{
  "_format": "hh-sol-artifact-1",
  "contractName": "GigStamp",
  "sourceName": "contracts/GigStamp.sol",
  "abi": [
    {
      "anonymous": false,
      "inputs": [
        {
          "indexed": true,
          "internalType": "address",
          "name": "user",
          "type": "address"
        },
        {
          "indexed": true,
          "internalType": "enum BadgeManager.BadgeType",
          "name": "badgeType",
          "type": "uint8"
        },
        {
          "indexed": false,
          "internalType": "uint256",
          "name": "jobId",
          "type": "uint256"
        }
      ],
      "name": "BadgeAwarded",
      "type": "event"
    },
    {
      "anonymous": false,
      "inputs": [
        {
          "indexed": true,
          "internalType": "uint256",
          "name": "jobId",
          "type": "uint256"
        },
        {
          "indexed": true,
          "internalType": "address",
          "name": "responder",
          "type": "address"
        }
      ],
      "name": "CounterEvidenceSubmitted",
      "type": "event"
    },
    {
      "anonymous": false,
      "inputs": [
        {
          "indexed": true,
          "internalType": "uint256",
          "name": "jobId",
          "type": "uint256"
        },
        {
          "indexed": true,
          "internalType": "address",
          "name": "initiator",
          "type": "address"
        }
      ],
      "name": "DisputeRaised",
      "type": "event"
    },
    {
      "anonymous": false,
      "inputs": [
        {
          "indexed": true,
          "internalType": "uint256",
          "name": "jobId",
          "type": "uint256"
        },
        {
          "indexed": false,
          "internalType": "bool",
          "name": "workerWon",
          "type": "bool"
        }
      ],
      "name": "DisputeResolved",
      "type": "event"
    },
    {
      "anonymous": false,
      "inputs": [
        {
          "indexed": true,
          "internalType": "address",
          "name": "user",
          "type": "address"
        },
        {
          "indexed": false,
          "internalType": "uint8",
          "name": "oldScore",
          "type": "uint8"
        },
        {
          "indexed": false,
          "internalType": "uint8",
          "name": "newScore",
          "type": "uint8"
        },
        {
          "indexed": false,
          "internalType": "string",
          "name": "reason",
          "type": "string"
        }
      ],
      "name": "ScoreChanged",
      "type": "event"
    },
    {
      "anonymous": false,
      "inputs": [
        {
          "indexed": true,
          "internalType": "address",
          "name": "user",
          "type": "address"
        }
      ],
      "name": "ScoreInitialized",
      "type": "event"
    },
    {
      "anonymous": false,
      "inputs": [
        {
          "indexed": true,
          "internalType": "uint256",
          "name": "jobId",
          "type": "uint256"
        },
        {
          "indexed": true,
          "internalType": "address",
          "name": "voter",
          "type": "address"
        },
        {
          "indexed": false,
          "internalType": "bool",
          "name": "voteForWorker",
          "type": "bool"
        }
      ],
      "name": "Voted",
      "type": "event"
    },
    {
      "anonymous": false,
      "inputs": [
        {
          "indexed": true,
          "internalType": "uint256",
          "name": "jobId",
          "type": "uint256"
        },
        {
          "indexed": false,
          "internalType": "address[]",
          "name": "voters",
          "type": "address[]"
        }
      ],
      "name": "VoterSelected",
      "type": "event"
    },
    {
      "inputs": [],
      "name": "APPROVE_TIMEOUT",
      "outputs": [
        {
          "internalType": "uint256",
          "name": "",
          "type": "uint256"
        }
      ],
      "stateMutability": "view",
      "type": "function"
    },
    {
      "inputs": [],
      "name": "FUND_TIMEOUT",
      "outputs": [
        {
          "internalType": "uint256",
          "name": "",
          "type": "uint256"
        }
      ],
      "stateMutability": "view",
      "type": "function"
    },
    {
      "inputs": [],
      "name": "GHOST_SCAM_THRESHOLD",
      "outputs": [
        {
          "internalType": "uint256",
          "name": "",
          "type": "uint256"
        }
      ],
      "stateMutability": "view",
      "type": "function"
    },
    {
      "inputs": [],
      "name": "INIT_SCORE",
      "outputs": [
        {
          "internalType": "uint8",
          "name": "",
          "type": "uint8"
        }
      ],
      "stateMutability": "view",
      "type": "function"
    },
    {
      "inputs": [],
      "name": "MAX_SCORE",
      "outputs": [
        {
          "internalType": "uint8",
          "name": "",
          "type": "uint8"
        }
      ],
      "stateMutability": "view",
      "type": "function"
    },
    {
      "inputs": [],
      "name": "MIN_SCORE",
      "outputs": [
        {
          "internalType": "uint8",
          "name": "",
          "type": "uint8"
        }
      ],
      "stateMutability": "view",
      "type": "function"
    },
    {
      "inputs": [],
      "name": "SCAM_THRESHOLD",
      "outputs": [
        {
          "internalType": "uint256",
          "name": "",
          "type": "uint256"
        }
      ],
      "stateMutability": "view",
      "type": "function"
    },
    {
      "inputs": [],
      "name": "SERIAL_CANCEL_THRESHOLD",
      "outputs": [
        {
          "internalType": "uint256",
          "name": "",
          "type": "uint256"
        }
      ],
      "stateMutability": "view",
      "type": "function"
    },
    {
      "inputs": [],
      "name": "SUBMIT_TIMEOUT",
      "outputs": [
        {
          "internalType": "uint256",
          "name": "",
          "type": "uint256"
        }
      ],
      "stateMutability": "view",
      "type": "function"
    },
    {
      "inputs": [],
      "name": "VOTER_THRESHOLD",
      "outputs": [
        {
          "internalType": "uint8",
          "name": "",
          "type": "uint8"
        }
      ],
      "stateMutability": "view",
      "type": "function"
    },
    {
      "inputs": [],
      "name": "VOTE_DURATION",
      "outputs": [
        {
          "internalType": "uint256",
          "name": "",
          "type": "uint256"
        }
      ],
      "stateMutability": "view",
      "type": "function"
    },
    {
      "inputs": [
        {
          "internalType": "uint256",
          "name": "jobId",
          "type": "uint256"
        }
      ],
      "name": "acceptJob",
      "outputs": [],
      "stateMutability": "nonpayable",
      "type": "function"
    },
    {
      "inputs": [
        {
          "internalType": "uint256",
          "name": "jobId",
          "type": "uint256"
        },
        {
          "internalType": "uint8",
          "name": "_rating",
          "type": "uint8"
        },
        {
          "internalType": "string",
          "name": "_comment",
          "type": "string"
        }
      ],
      "name": "approveJob",
      "outputs": [],
      "stateMutability": "nonpayable",
      "type": "function"
    },
    {
      "inputs": [
        {
          "internalType": "uint256",
          "name": "jobId",
          "type": "uint256"
        }
      ],
      "name": "autoReleaseIfNotApproved",
      "outputs": [],
      "stateMutability": "nonpayable",
      "type": "function"
    },
    {
      "inputs": [
        {
          "internalType": "address",
          "name": "",
          "type": "address"
        },
        {
          "internalType": "uint256",
          "name": "",
          "type": "uint256"
        }
      ],
      "name": "badgeCount",
      "outputs": [
        {
          "internalType": "uint256",
          "name": "",
          "type": "uint256"
        }
      ],
      "stateMutability": "view",
      "type": "function"
    },
    {
      "inputs": [
        {
          "internalType": "uint256",
          "name": "jobId",
          "type": "uint256"
        }
      ],
      "name": "cancelIfNotStarted",
      "outputs": [],
      "stateMutability": "nonpayable",
      "type": "function"
    },
    {
      "inputs": [
        {
          "internalType": "uint256",
          "name": "jobId",
          "type": "uint256"
        }
      ],
      "name": "cancelIfNotSubmitted",
      "outputs": [],
      "stateMutability": "nonpayable",
      "type": "function"
    },
    {
      "inputs": [
        {
          "internalType": "uint256",
          "name": "jobId",
          "type": "uint256"
        }
      ],
      "name": "cancelJob",
      "outputs": [],
      "stateMutability": "nonpayable",
      "type": "function"
    },
    {
      "inputs": [
        {
          "internalType": "uint256",
          "name": "jobId",
          "type": "uint256"
        },
        {
          "internalType": "bool",
          "name": "voteForWorker",
          "type": "bool"
        }
      ],
      "name": "castVote",
      "outputs": [],
      "stateMutability": "nonpayable",
      "type": "function"
    },
    {
      "inputs": [
        {
          "internalType": "string",
          "name": "_jobHash",
          "type": "string"
        },
        {
          "internalType": "uint256",
          "name": "_pay",
          "type": "uint256"
        },
        {
          "internalType": "uint256",
          "name": "_deadline",
          "type": "uint256"
        }
      ],
      "name": "createJob",
      "outputs": [],
      "stateMutability": "nonpayable",
      "type": "function"
    },
    {
      "inputs": [
        {
          "internalType": "uint256",
          "name": "",
          "type": "uint256"
        }
      ],
      "name": "disputes",
      "outputs": [
        {
          "internalType": "uint256",
          "name": "jobId",
          "type": "uint256"
        },
        {
          "internalType": "address",
          "name": "initiator",
          "type": "address"
        },
        {
          "internalType": "string",
          "name": "evidenceHash",
          "type": "string"
        },
        {
          "internalType": "string",
          "name": "counterHash",
          "type": "string"
        },
        {
          "internalType": "uint8",
          "name": "voterCount",
          "type": "uint8"
        },
        {
          "internalType": "uint8",
          "name": "votesForWorker",
          "type": "uint8"
        },
        {
          "internalType": "uint8",
          "name": "votesForClient",
          "type": "uint8"
        },
        {
          "internalType": "uint256",
          "name": "deadline",
          "type": "uint256"
        },
        {
          "internalType": "bool",
          "name": "resolved",
          "type": "bool"
        },
        {
          "internalType": "bool",
          "name": "workerWon",
          "type": "bool"
        }
      ],
      "stateMutability": "view",
      "type": "function"
    },
    {
      "inputs": [
        {
          "internalType": "uint256",
          "name": "",
          "type": "uint256"
        }
      ],
      "name": "feedbacks",
      "outputs": [
        {
          "internalType": "address",
          "name": "client",
          "type": "address"
        },
        {
          "internalType": "address",
          "name": "worker",
          "type": "address"
        },
        {
          "internalType": "uint8",
          "name": "rating",
          "type": "uint8"
        },
        {
          "internalType": "string",
          "name": "comment",
          "type": "string"
        }
      ],
      "stateMutability": "view",
      "type": "function"
    },
    {
      "inputs": [
        {
          "internalType": "uint256",
          "name": "jobId",
          "type": "uint256"
        }
      ],
      "name": "fundJob",
      "outputs": [],
      "stateMutability": "payable",
      "type": "function"
    },
    {
      "inputs": [
        {
          "internalType": "address",
          "name": "user",
          "type": "address"
        },
        {
          "internalType": "enum BadgeManager.BadgeType",
          "name": "badgeType",
          "type": "uint8"
        }
      ],
      "name": "getBadgeCount",
      "outputs": [
        {
          "internalType": "uint256",
          "name": "",
          "type": "uint256"
        }
      ],
      "stateMutability": "view",
      "type": "function"
    },
    {
      "inputs": [
        {
          "internalType": "address",
          "name": "user",
          "type": "address"
        }
      ],
      "name": "getBadges",
      "outputs": [
        {
          "internalType": "enum BadgeManager.BadgeType[]",
          "name": "types",
          "type": "uint8[]"
        },
        {
          "internalType": "uint256[]",
          "name": "jobIds",
          "type": "uint256[]"
        },
        {
          "internalType": "uint256[]",
          "name": "timestamps",
          "type": "uint256[]"
        },
        {
          "internalType": "string[]",
          "name": "notes",
          "type": "string[]"
        }
      ],
      "stateMutability": "view",
      "type": "function"
    },
    {
      "inputs": [
        {
          "internalType": "uint256",
          "name": "jobId",
          "type": "uint256"
        }
      ],
      "name": "getDisputeVoters",
      "outputs": [
        {
          "internalType": "address[5]",
          "name": "",
          "type": "address[5]"
        }
      ],
      "stateMutability": "view",
      "type": "function"
    },
    {
      "inputs": [],
      "name": "getMyRole",
      "outputs": [
        {
          "internalType": "enum Auth.Role",
          "name": "",
          "type": "uint8"
        }
      ],
      "stateMutability": "view",
      "type": "function"
    },
    {
      "inputs": [
        {
          "internalType": "address",
          "name": "worker",
          "type": "address"
        }
      ],
      "name": "getRating",
      "outputs": [
        {
          "internalType": "uint256",
          "name": "",
          "type": "uint256"
        }
      ],
      "stateMutability": "view",
      "type": "function"
    },
    {
      "inputs": [
        {
          "internalType": "uint256",
          "name": "jobId",
          "type": "uint256"
        }
      ],
      "name": "getVoteCount",
      "outputs": [
        {
          "internalType": "uint8",
          "name": "forWorker",
          "type": "uint8"
        },
        {
          "internalType": "uint8",
          "name": "forClient",
          "type": "uint8"
        }
      ],
      "stateMutability": "view",
      "type": "function"
    },
    {
      "inputs": [
        {
          "internalType": "uint256",
          "name": "",
          "type": "uint256"
        },
        {
          "internalType": "address",
          "name": "",
          "type": "address"
        }
      ],
      "name": "hasVoted",
      "outputs": [
        {
          "internalType": "bool",
          "name": "",
          "type": "bool"
        }
      ],
      "stateMutability": "view",
      "type": "function"
    },
    {
      "inputs": [
        {
          "internalType": "address",
          "name": "user",
          "type": "address"
        }
      ],
      "name": "isEligibleVoter",
      "outputs": [
        {
          "internalType": "bool",
          "name": "",
          "type": "bool"
        }
      ],
      "stateMutability": "view",
      "type": "function"
    },
    {
      "inputs": [
        {
          "internalType": "address",
          "name": "user",
          "type": "address"
        }
      ],
      "name": "isScammer",
      "outputs": [
        {
          "internalType": "bool",
          "name": "",
          "type": "bool"
        }
      ],
      "stateMutability": "view",
      "type": "function"
    },
    {
      "inputs": [],
      "name": "jobCount",
      "outputs": [
        {
          "internalType": "uint256",
          "name": "",
          "type": "uint256"
        }
      ],
      "stateMutability": "view",
      "type": "function"
    },
    {
      "inputs": [
        {
          "internalType": "uint256",
          "name": "",
          "type": "uint256"
        }
      ],
      "name": "jobs",
      "outputs": [
        {
          "internalType": "address",
          "name": "client",
          "type": "address"
        },
        {
          "internalType": "address",
          "name": "worker",
          "type": "address"
        },
        {
          "internalType": "uint256",
          "name": "pay",
          "type": "uint256"
        },
        {
          "internalType": "uint256",
          "name": "deadline",
          "type": "uint256"
        },
        {
          "internalType": "string",
          "name": "jobHash",
          "type": "string"
        },
        {
          "internalType": "string",
          "name": "resultHash",
          "type": "string"
        },
        {
          "internalType": "uint256",
          "name": "fundedAt",
          "type": "uint256"
        },
        {
          "internalType": "uint256",
          "name": "acceptedAt",
          "type": "uint256"
        },
        {
          "internalType": "uint256",
          "name": "submittedAt",
          "type": "uint256"
        },
        {
          "internalType": "enum JobStatus",
          "name": "status",
          "type": "uint8"
        }
      ],
      "stateMutability": "view",
      "type": "function"
    },
    {
      "inputs": [
        {
          "internalType": "uint256",
          "name": "jobId",
          "type": "uint256"
        },
        {
          "internalType": "string",
          "name": "evidenceHash",
          "type": "string"
        }
      ],
      "name": "raiseDispute",
      "outputs": [],
      "stateMutability": "nonpayable",
      "type": "function"
    },
    {
      "inputs": [
        {
          "internalType": "address",
          "name": "",
          "type": "address"
        }
      ],
      "name": "ratingCount",
      "outputs": [
        {
          "internalType": "uint256",
          "name": "",
          "type": "uint256"
        }
      ],
      "stateMutability": "view",
      "type": "function"
    },
    {
      "inputs": [],
      "name": "registerClient",
      "outputs": [],
      "stateMutability": "nonpayable",
      "type": "function"
    },
    {
      "inputs": [],
      "name": "registerWorker",
      "outputs": [],
      "stateMutability": "nonpayable",
      "type": "function"
    },
    {
      "inputs": [
        {
          "internalType": "address",
          "name": "",
          "type": "address"
        }
      ],
      "name": "reputationScore",
      "outputs": [
        {
          "internalType": "uint8",
          "name": "",
          "type": "uint8"
        }
      ],
      "stateMutability": "view",
      "type": "function"
    },
    {
      "inputs": [
        {
          "internalType": "uint256",
          "name": "jobId",
          "type": "uint256"
        }
      ],
      "name": "resolveDispute",
      "outputs": [],
      "stateMutability": "nonpayable",
      "type": "function"
    },
    {
      "inputs": [
        {
          "internalType": "address",
          "name": "",
          "type": "address"
        }
      ],
      "name": "roles",
      "outputs": [
        {
          "internalType": "enum Auth.Role",
          "name": "",
          "type": "uint8"
        }
      ],
      "stateMutability": "view",
      "type": "function"
    },
    {
      "inputs": [
        {
          "internalType": "uint256",
          "name": "jobId",
          "type": "uint256"
        }
      ],
      "name": "startWork",
      "outputs": [],
      "stateMutability": "nonpayable",
      "type": "function"
    },
    {
      "inputs": [
        {
          "internalType": "uint256",
          "name": "jobId",
          "type": "uint256"
        },
        {
          "internalType": "string",
          "name": "counterHash",
          "type": "string"
        }
      ],
      "name": "submitCounterEvidence",
      "outputs": [],
      "stateMutability": "nonpayable",
      "type": "function"
    },
    {
      "inputs": [
        {
          "internalType": "uint256",
          "name": "jobId",
          "type": "uint256"
        },
        {
          "internalType": "string",
          "name": "_resultHash",
          "type": "string"
        }
      ],
      "name": "submitWork",
      "outputs": [],
      "stateMutability": "nonpayable",
      "type": "function"
    },
    {
      "inputs": [
        {
          "internalType": "address",
          "name": "",
          "type": "address"
        }
      ],
      "name": "totalRating",
      "outputs": [
        {
          "internalType": "uint256",
          "name": "",
          "type": "uint256"
        }
      ],
      "stateMutability": "view",
      "type": "function"
    },
    {
      "inputs": [
        {
          "internalType": "uint256",
          "name": "",
          "type": "uint256"
        },
        {
          "internalType": "address",
          "name": "",
          "type": "address"
        }
      ],
      "name": "voteChoice",
      "outputs": [
        {
          "internalType": "bool",
          "name": "",
          "type": "bool"
        }
      ],
      "stateMutability": "view",
      "type": "function"
    }
  ],
  "bytecode": "0x6080806040523461001657614dd7908161001c8239f35b600080fdfe6080604052600436101561001257600080fd5b60003560e01c806303828e45146138a157806303a250f9146137e757806315373e3d146135285780631732d6521461347f578063180aedf3146133ab5780631965bb0f146102685780631dffa3dc1461338f578063208082bf146133375780632404165e146132fd578063247bc4a7146116715780632488b2ee146132e157806327ff6223146132c55780632bb8b0dc146132575780632d5928651461320f5780633dc9fe42146131f357806340b89270146131d75780634225e7f4146131aa578063438596321461315d5780634654ff05146131405780634807632f146131065780634c5d8a0f146130e85780634f0db62214612a4157806350d061cb146130ab578063564a565d14612fdc5780635aef573c14612a465780635d5a373c14612a4157806363b2f3c9146128fa57806366c910c8146125e857806369c04c441461259f5780636d9fb2871461253e5780636e3b47fc1461250c578063771dd58114611c1857806379c627111461185a57806380fc9c0e1461182f5780638721ba3f146117dd5780638d22b863146116bc57806399374642146116765780639ec0164a14611671578063b2c2f2e814611633578063c2b7b86814610d9d578063c5f8e299146109ff578063ca62fafd146106b3578063d0d2414214610445578063da8accf91461026d578063e72f73a8146102685763fb4688551461021657600080fd5b346102635760403660031901126102635761022f613add565b600435600052600760205260406000209060018060a01b0316600052602052602060ff604060002054166040519015158152f35b600080fd5b613cd6565b346102635761027b36613d8c565b906000526020600b815260406000209060016102a360018060a01b0382850154163314613ee9565b600983019360ff855416600981101561042f576003036103fa578051600585019390916001600160401b0383116103e4576102de8554613b67565b601f811161039b575b5081601f8411600114610335575092829391839260009461032a575b50501b916000199060031b1c19161790555b4260089190910155805460ff19166004179055005b015192508780610303565b919083601f1981168760005284600020946000905b888383106103815750505010610368575b505050811b019055610315565b015160001960f88460031b161c1916905585808061035b565b85870151885590960195948501948793509081019061034a565b8560005282600020601f850160051c8101918486106103da575b601f0160051c019085905b8281106103ce5750506102e7565b600081550185906103c0565b90915081906103b5565b634e487b7160e01b600052604160045260246000fd5b60405162461bcd60e51b815260048101849052600d60248201526c496e76616c696420737461746560981b6044820152606490fd5b634e487b7160e01b600052602160045260246000fd5b346102635761045336613d8c565b81600052602090600b825260406000209060ff600960018060a01b039384815416331480156106a4575b610486906148b9565b015416600981101561042f57600761049e9114614954565b8360005260058352604060002060019283820154166104c2600a830154151561498f565b6104d360ff600b84015416156148f4565b331461066257600301928354916104e983613b67565b610621578051926001600160401b0384116103e45761050790613b67565b601f81116105d8575b5081601f84116001146105725750928293918392600094610567575b50501b916000199060031b1c19161790555b33907f7878f55c48613e960719430c5332344cefc8c552f6afc747476ff85169f618fe600080a3005b01519250868061052c565b919083601f1981168760005284600020946000905b888383106105be57505050106105a5575b505050811b01905561053e565b015160001960f88460031b161c19169055848080610598565b858701518855909601959485019487935090810190610587565b8560005282600020601f850160051c810191848610610617575b601f0160051c019085905b82811061060b575050610510565b600081550185906105fd565b90915081906105f2565b60405162461bcd60e51b815260048101839052601960248201527810dbdd5b9d195c88185b1c9958591e481cdd589b5a5d1d1959603a1b6044820152606490fd5b60405162461bcd60e51b815260048101859052601a60248201527943616e6e6f7420636f756e746572206f776e206469737075746560301b6044820152606490fd5b5060018101548516331461047d565b3461026357602080600319360112610263576004359081600052600b81526040600020916009830191825460ff8116600981101561042f5760026106f79114613f22565b60006007860194610718610711875460038a015490613f5d565b4211613f6a565b600160ff19938416811790915595860180546001600160a01b0319811690915594556040516001600160a01b0390941693849061075481613bf2565b601b81527a1ddbdc9ad95c97d858d8d95c1d195917db9bdd17dcdd185c9d1959602a1b848201526000828152808552604090205460ff16600581116109d45790600080516020614d82833981519152916107cf6000925b8560005260008852604060002060ff85168882541617905560405193849384614ac1565b0390a26107da613fa2565b9084600052600883526040600020604051906107f582613ba1565b600082528482018681526040830191428352606084019586528054600160401b8110156103e45761082a918b82018155613e6a565b9390936109be5751600e81101561042f5760ff6003958554169116178355518883015551600282015501905180519060018060401b0382116103e45781906108728454613b67565b601f811161096b575b508490601f8311600114610908576000926108fd575b5050600019600383901b1c191690861b1790555b8260005260098152604060002060008052815260406000209182549485018095116108e757600094600080516020614d628339815191529355604051908152a3005b634e487b7160e01b600052601160045260246000fd5b015190508780610891565b90889350601f1983169185600052866000209260005b88828210610955575050841161093c575b505050811b0190556108a5565b015160001960f88460031b161c1916905587808061092f565b8385015186558c9790950194938401930161091e565b9091508360005284600020601f840160051c8101918685106109b4575b84939291601f8b920160051c01915b8281106109a557505061087b565b600081558594508a9101610997565b9091508190610988565b634e487b7160e01b600052600060045260246000fd5b915060041982019060ff82116108e75786926107cf600080516020614d8283398151915293926107ab565b3461026357602080600319360112610263576004359081600052600b81526040600020600981019081549260ff8416600981101561042f576004610a43911461402e565b6008820154607881018091116108e757610a5f90421015613f6a565b600560ff19948516811790935581546040516001600160a01b039391841690610a8781613bf2565b601981527831b634b2b73a2fb4b3b737b932b22fb9bab136b4b9b9b4b7b760391b848201526000828152808552604090205460ff169060088211610d7657600080516020614d8283398151915291610b006000925b8560005260008852604060002060ff85168c82541617905560405193849384614ac1565b0390a28281541692604051610b1481613bd7565b602681527f446964206e6f7420726573706f6e6420616674657220776f726b65722073756284820152651b5a5d1d195960d21b60408201528460005260088452604060002096604051610b6681613ba1565b8781528581018a81526040820190428252606083019485528a54600160401b8110156103e457610b9d9060019c8d82018155613e6a565b9390936109be5751600e81101561042f5760ff6003958554169116178355518a83015551600282015501905180519060018060401b0382116103e4578190610be58454613b67565b601f8111610d25575b508690601f8311600114610cc257600092610cb7575b5050600019600383901b1c191690881b1790555b836000526009835260406000208560005283526040600020908154938785018095116108e757610c9f60009889988998600080516020614d6283398151915285610cb59e8c9b60029a55604051908152a385019183835416716a6f625f636f6d706c657465645f6175746f60701b60405192610c9384613bf2565b60128452830152614bab565b5416910154905af1610caf614093565b506140c3565b005b015190508a80610c04565b908a9350601f1983169185600052886000209260005b8a828210610d0f5750508411610cf6575b505050811b019055610c18565b015160001960f88460031b161c191690558a8080610ce9565b8385015186558e97909501949384019301610cd8565b9091508360005286600020601f84018a1c810191888510610d6c575b84939291601f8d92018c1c01915b828110610d5d575050610bee565b600081558594508c9101610d4f565b9091508190610d41565b60071982019160ff83116108e757610b00600080516020614d828339815191529392610adc565b3461026357602036600319011261026357600435600052600b60205260406000206009810160ff815416600981101561042f576007610ddc9114614954565b60043560005260056020526040600020600a81015492610dfd84151561498f565b600b82015493610e1060ff8616156148f4565b4210801590611608575b156115d057600160098301549461ff0060ff8760101c1660ff8860081c161160081b169061ffff19161717600b83015560405160ff8560101c1660ff8660081c161181527f5a87909bff68caaaaf0b3fd9c74eeccc928832f879315e5c6fb7a73612f26c0c602060043592a260005b60ff60098401541660ff821610156110f757610ea88160048501614944565b91905491600435600052600660205260406000209260039360018060a01b038284871b1c1660005260205260ff60406000205416156110eb576004356000526007602052604060002060018060a01b038284871b1c1660005260205260ff8860101c1660ff8960081c161160ff6040600020541615151460001461101f5760405191610f3383613bf2565b600f83526e766f7465645f636f72726563746c7960881b602084015260018060a01b038282871b1c16600052600060205260ff604060002054169261ffff868501116108e75760648061ffff8887011611600014610ff257600080516020614d82833981519152939291610fed97610fe492905b9390931b9390931c6001600160a01b031660008181526020819052604090819020805460ff191660ff861617905551909590938493909184614ac1565b0390a25b614933565b610e89565b50919060ff868501116108e757610fe4600080516020614d828339815191529387610fed98870190610fa7565b6040519161102c83613bf2565b600d83526c766f7465645f77726f6e676c7960981b602084015260018060a01b038282871b1c16600052600060205260ff6040600020541692838610156000146110bb57941b1c6001600160a01b0316600081815260208190526040808220805460ff1916905551610fed959293600080516020614d828339815191529391928392610fe49290919084614ac1565b919060ff6002198501116108e757610fe4600080516020614d8283398151915293610fed97600219870190610fa7565b5050610fed9150614933565b50828460ff199160088382541617905560ff808260101c169160081c16116000146113795781546001600160a01b039061113b9082166111356149c8565b90614c20565b80835416916040519061114d82613bf2565b6018825277131bdcdd081848191a5cdc1d5d1948185cc818db1a595b9d60421b602083015283600052600860205260406000206040519061118d82613ba1565b600782526020820160043581526040830191428352606084019586528054600160401b8110156103e4576111c691600182018155613e6a565b9390936109be5751600e81101561042f5760ff600395855416911617835551600183015551600282015501905180519060018060401b0382116103e457819061120f8454613b67565b601f8111611326575b50602090601f83116001146112c0576000926112b5575b50508160011b916000199060031b1c19161790555b816000526009602052604060002060076000526020526040600020805492600184018094116108e757610cb5946002600095946007879694879695879655600080516020614d6283398151915260206040516004358152a360018301610c9f828254166112af6149f0565b90614bab565b01519050868061122f565b6000858152602081209350601f198516905b81811061130e57509084600195949392106112f5575b505050811b019055611244565b015160001960f88460031b161c191690558680806112e8565b929360206001819287860151815501950193016112d2565b909150836000526020600020601f840160051c8101916020851061136f575b90601f859493920160051c01905b8181106113605750611218565b60008155849350600101611353565b9091508190611345565b6001820180546001600160a01b039182916113989083166111356149c8565b541691604051906113a882613bf2565b600e82526d4c6f73742061206469737075746560901b60208301528360005260086020526040600020604051906113de82613ba1565b600282526020820160043581526040830191428352606084019586528054600160401b8110156103e45761141791600182018155613e6a565b9390936109be5751600e81101561042f5760ff600395855416911617835551600183015551600282015501905180519060018060401b0382116103e45781906114608454613b67565b601f811161157d575b50602090601f83116001146115175760009261150c575b50508160011b916000199060031b1c19161790555b816000526009602052604060002060026000526020526040600020805492600184018094116108e757610cb59460026000959481879694879695879655600080516020614d6283398151915260206040516004358152a36114fb818454166112af6149f0565b825416910154905af1610caf614093565b015190508680611480565b6000858152602081209350601f198516905b818110611565575090846001959493921061154c575b505050811b019055611495565b015160001960f88460031b161c1916905586808061153f565b92936020600181928786015181550195019301611529565b909150836000526020600020601f840160051c810191602085106115c6575b90601f859493920160051c01905b8181106115b75750611469565b600081558493506001016115aa565b909150819061159c565b60405162461bcd60e51b815260206004820152601060248201526f159bdd1a5b99c81b9bdd08195b99195960821b6044820152606490fd5b50600982015460ff8160101c1660ff8260081c16019060ff82116108e75760ff809116911614610e1a565b346102635760203660031901126102635760043560005260056020526040600981600020015460ff825191818160081c16835260101c166020820152f35b613cf2565b34610263576020366003190112610263576001600160a01b03611697613ac7565b1660005260046020526116b860ff6040600020541660405191829182613dbe565b0390f35b60208060031936011261026357600435600052600b81526040600020336000526004825260ff60406000205416600381101561042f5760016116fe9114613eb0565b80546001600160a01b031633036117ac57600981019081549060ff8216600981101561042f576117795760028101543403611745574260069091015560ff19166001179055005b60405162461bcd60e51b815260048101859052600c60248201526b15dc9bdb99c8185b5bdd5b9d60a21b6044820152606490fd5b60405162461bcd60e51b815260048101859052600b60248201526a139bdd0810dc99585d195960aa1b6044820152606490fd5b60405162461bcd60e51b81526004810183905260096024820152682737ba1037bbb732b960b91b6044820152606490fd5b34610263576040366003190112610263576117f6613ac7565b60243590600e8210156102635760018060a01b031660005260096020526040600020906000526020526020604060002054604051908152f35b3461026357602036600319011261026357602061185261184d613ac7565b614868565b604051908152f35b34610263576060366003190112610263576004356001600160401b0381116102635761188a903690600401613d45565b33600052600460205260ff60406000205416600381101561042f5760016118b19114613eb0565b6040519061014082016001600160401b038111838210176103e457604052338252600060208301526024356040830152604435606083015260808201526040516020810181811060018060401b038211176103e4576040526000815260a0820152600060c0820152600060e082015260006101008201526000610120820152600a54600052600b60205260406000209060018060a01b038082511660018060a01b031990818554161784556001840191602084015116908254161790556040810151600283015560608101516003830155608081015191825160018060401b0381116103e4576119a46004830154613b67565b601f8111611bd1575b506020601f8211600114611b635781929394600092611b58575b50508160011b916000199060031b1c19161760048201555b60a08201518051906001600160401b0382116103e457611a026005840154613b67565b601f8111611b0d575b50602090601f8311600114611a975791806101209492600994600092611a8c575b50508160011b916000199060031b1c19161760058201555b60c0840151600682015560e08401516007820155610100840151600882015501910151600981101561042f5760ff80198354169116179055611a87600a54613e5b565b600a55005b015190508680611a2c565b906005840160005260206000209160005b601f1985168110611af5575092610120949260019260099583601f19811610611adc575b505050811b016005820155611a44565b015160001960f88460031b161c19169055868080611acc565b91926020600181928685015181550194019201611aa8565b600584016000526020600020601f840160051c81019160208510611b4e575b601f0160051c01905b818110611b425750611a0b565b60008155600101611b35565b9091508190611b2c565b0151905084806119c7565b6004830160005260206000209060005b601f1984168110611bb95750600193949583601f19811610611ba0575b505050811b0160048201556119df565b015160001960f88460031b161c19169055848080611b90565b9091602060018192858a015181550193019101611b73565b600483016000526020600020601f830160051c810160208410611c11575b601f830160051c82018110611c055750506119ad565b60008155600101611bef565b5080611bef565b346102635760603660031901126102635760243560ff81168103610263576044356001600160401b03811161026357611c55903690600401613d45565b90600435600052600b60205260406000209160018060a01b03835416611c7c813314613eb0565b60098401805460ff8116600981101561042f576004611c9b911461402e565b600160ff86161015806124fe575b156124c85760ff19166005179055604051611cc381613bd7565b602281527f52656c6961626c6520636c69656e74207769746820636c65616e20686973746f602082015261727960f01b6040820152816000526008602052604060002060405191611d1383613ba1565b600c8352600435602084015242604084015260608301528054600160401b8110156103e457611d4791600182018155613e6a565b9190916109be57805190600e82101561042f5760609160ff801985541691161783556020810151600184015560408101516002840155015180519060018060401b0382116103e457611d9c6003840154613b67565b601f8111612481575b50602090601f8311600114612412576003929160009183612407575b50508160011b9160001990841b1c1916179101555b8060005260096020526040600020600c6000526020526040600020908154916001830183116108e7576001600c93019055600080516020614d6283398151915260206040516004358152a3611e56604051611e3081613bf2565b601381527231b634b2b73a2fb0b8383937bb32b22fb537b160691b602082015233614ae2565b600460ff8316106120da57600183018054611eb59190611e81906001600160a01b03166112af61406a565b54604051906001600160a01b0316611e9882613bf2565b600b82526a676f6f645f726174696e6760a81b6020830152614ae2565b600183015460405191906001600160a01b0316611ed183613ba1565b338352602080840191825260ff85166040808601918252606086019485526004356000908152600c909352909120935184546001600160a01b0319166001600160a01b03918216178555915160018501805492516001600160a81b0319909316919093161760a09190911b60ff60a01b16179055518051906001600160401b0382116103e457611f646002840154613b67565b601f8111612093575b50602090601f831160011461202557600292916000918361201a575b50508160011b916000199060031b1c1916179101555b60018060a01b03600183015416600052600d602052611fc760ff604060002092168254613f5d565b905560018060a01b03600182015416600052600e6020526040600020805491600183018093116108e75760008080809386610cb59655600260018060a01b03600183015416910154905af1610caf614093565b015190508680611f89565b90601f198316916002850160005260206000209260005b81811061207b57509160019391856002969410612062575b505050811b01910155611f9f565b015160001960f88460031b161c19169055868080612054565b9293602060018192878601518155019501930161203c565b600284016000526020600020601f840160051c8101602085106120d3575b601f830160051c820181106120c7575050611f6d565b600081556001016120b1565b50806120b1565b600260ff8316116123e85760018301546120ff906001600160a01b03166112af61406a565b60018060a01b0360018401541660405161211881613bf2565b600a8152696261645f726174696e6760b01b602082015281600052600060205260ff604060002054169081600710156000146123be57600080516020614d828339815191529161218c6000925b856000526000602052604060002060ff851660ff1982541617905560405193849384614ac1565b0390a260018060a01b036001840154166040516121a881613bf2565b601b81527a52656365697665642031206f722032207374617220726174696e6760281b60208201528160005260086020526040600020604051916121eb83613ba1565b60018352600435602084015242604084015260608301528054600160401b8110156103e45761221f91600182018155613e6a565b9190916109be57805190600e82101561042f5760609160ff801985541691161783556020810151600184015560408101516002840155015180519060018060401b0382116103e4576122746003840154613b67565b601f8111612377575b50602090601f83116001146123085760039291600091836122fd575b50508160011b9160001990841b1c1916179101555b806000526009602052604060002060016000526020526040600020908154916001830183116108e75760018093019055600080516020614d6283398151915260206040516004358152a3611eb5565b015190508880612299565b906003840160005260206000209160005b601f198516811061235f5750918391600193600395601f19811610612347575b505050811b019101556122ae565b015160001983861b60f8161c19169055888080612339565b91926020600181928685015181550194019201612319565b600384016000526020600020601f840160051c8101602085106123b7575b601f830160051c820181106123ab57505061227d565b60008155600101612395565b5080612395565b60ff6006198301116108e757600080516020614d828339815191529161218c600619820192612165565b6001830154612402906001600160a01b03166112af61406a565b611eb5565b015190508880611dc1565b906003840160005260206000209160005b601f19851681106124695750918391600193600395601f19811610612451575b505050811b01910155611dd6565b015160001983861b60f8161c19169055888080612443565b91926020600181928685015181550194019201612423565b600384016000526020600020601f840160051c8101602085106124c1575b601f830160051c820181106124b5575050611da5565b6000815560010161249f565b508061249f565b60405162461bcd60e51b815260206004820152600e60248201526d496e76616c696420726174696e6760901b6044820152606490fd5b50600560ff86161115611ca9565b34610263576000366003190112610263573360005260046020526116b860ff6040600020541660405191829182613dbe565b346102635760003660031901126102635733600052600460205260ff60406000205416600381101561042f576125749015613dd1565b3360005260046020526040600020600160ff1982541617905561259633614a17565b610cb533614ce8565b34610263576020366003190112610263576001600160a01b036125c0613ac7565b1660005260096020526040600020600a60005260205260206040600020541515604051908152f35b34610263576020806003193601126102635760043580600052600b82526040600020906009820180549060ff8216600981101561042f576003036128c3576007840154607881018091116108e75761264290421015613f6a565b60ff199182166006179055600183810180546040516001600160a01b0396928792909161269591841661267482613bf2565b601082526f1ddbdc9ad95c97d858985b991bdb995960821b8b830152614c20565b5416926126a0613fa2565b9084600052600888526040600020604051906126bb82613ba1565b600082528982018881526040830191428352606084019586528054600160401b8110156103e4576126f0918982018155613e6a565b9390936109be5751600e81101561042f5760ff6003958554169116178355518683015551600282015501905180519060018060401b0382116103e45781906127388454613b67565b601f8111612870575b508990601f831160011461280d57600092612802575b5050600019600383901b1c191690841b1790555b82600052600986526040600020600080528652604060002080549283018093116108e75760009586809695600080516020614d628339815191528a8398849860029755604051908152a3825416910154905af16127c6614093565b50156127ce57005b6064906040519062461bcd60e51b82526004820152600d60248201526c1499599d5b990819985a5b1959609a1b6044820152fd5b015190508980612757565b90869350601f19831691856000528b6000209260005b8d82821061285a5750508411612841575b505050811b01905561276b565b015160001960f88460031b161c19169055898080612834565b8385015186558a97909501949384019301612823565b9091508360005289600020601f840160051c8101918b85106128b9575b84939291601f89920160051c01915b8281106128aa575050612741565b6000815585945088910161289c565b909150819061288d565b60405162461bcd60e51b815260048101869052600f60248201526e4e6f7420696e2070726f677265737360881b6044820152606490fd5b346102635760208060031936011261026357600435600052600b81526040600020336000526004825260ff60406000205416600381101561042f5760026129419114613ee9565b600981019081549060ff8216600981101561042f57600103612a0f5780546001600160a01b0390811633146129d4576001820190815490811661299f576001600160a01b03191633179055426007919091015560ff19166002179055005b60405162461bcd60e51b815260048101879052600d60248201526c20b63932b0b23c903a30b5b2b760991b6044820152606490fd5b60405162461bcd60e51b815260048101869052601360248201527221b0b73737ba103a30b5b29037bbb7103537b160691b6044820152606490fd5b60405162461bcd60e51b815260048101859052600a602482015269139bdd08199d5b99195960b21b6044820152606490fd5b613d0e565b3461026357612a5436613d8c565b6000828152600b6020526040902080546001600160a01b0316903382148015612fc6575b612a81906148b9565b60098101805460ff8116600981101561042f5760048114908115612fbb575b5015612f7a5760079060ff19161790556001808060a01b039101541690836000526005602052604060002092612add60ff600b86015416156148f4565b600a840154612f3c578484556001840180546001600160a01b031916331790558051906001600160401b0382116103e4578190612b1d6002870154613b67565b601f8111612ee9575b50602090601f8311600114612e7c57600092612e71575b50508160011b916000199060031b1c19161760028401555b61012c42018042116108e757600a840155604051602081019042825244604082015285606082015260608152612b8a81613ba1565b51902091600254612b9a81613e29565b9260009260005b838110612dff575050505060058110600014612df45760ff8116909493945b612bcc60ff8316613e29565b93612bd682613e29565b9360005b838110612dc757505060005b60ff84168110612cfd5787878760ff815116600984019060ff19825416179055600460009301925b815160ff821690811015612c6857612c639190610fe8906001600160a01b0390612c389086613e9c565b5116612c448388614944565b90919082549060031b9160018060a01b03809116831b921b1916179055565b612c0e565b50506040519033837f84a477df8a28a4276ca6dee4458a06c3015f30c477d9c949ede4e13ff8a552b4600080a36020820160208352815180915260206040840192019060005b818110612cde57857faaf49c3b93c6f3a66b3ad89750cfdbb3fe0be786559ef1298f6e6cb97756633786860387a2005b82516001600160a01b0316845260209384019390920191600101612cae565b604097969751602081019083825282604082015260408152612d1e81613bd7565b51902090808403908482116108e757808514612db157612d45612da79260ff940682613f5d565b612d826001600160a01b03612d5a848b613e9c565b5116916001600160a01b03612d6f828c613e9c565b5116612d7b858c613e9c565b5289613e9c565b526001600160a01b03612d958289613e9c565b5116612da1828a613e9c565b52613e5b565b9050969596612be6565b634e487b7160e01b600052601260045260246000fd5b969796612dec906001600160a01b03612de08285613e9c565b5116612da18289613e9c565b979697612bda565b600590949394612bc0565b612e0881614ccd565b905460039190911b1c6001600160a01b03168381141580612e67575b80612e58575b612e3e575b50612e3990613e5b565b612ba1565b85612e5191612da1612e3994988a613e9c565b9490612e2f565b50612e6281614cad565b612e2a565b5082811415612e24565b015190508680612b3d565b600287016000908152602081209350601f198516905b818110612ed15750908460019594939210612eb8575b505050811b016002840155612b55565b015160001960f88460031b161c19169055868080612ea8565b92936020600181928786015181550195019301612e92565b909150600286016000526020600020601f840160051c810160208510612f35575b90849392915b601f830160051c82018110612f26575050612b26565b60008155859450600101612f10565b5080612f0a565b60405162461bcd60e51b8152602060048201526016602482015275111a5cdc1d5d1948185b1c9958591e481c985a5cd95960521b6044820152606490fd5b60405162461bcd60e51b8152602060048201526019602482015278496e76616c696420737461746520666f72206469737075746560381b6044820152606490fd5b600391501487612aa0565b5060018101546001600160a01b03163314612a78565b34610263576020366003190112610263576004356000908152600560205260409020805460018201546001600160a01b03169160ff61301d60028301613c30565b61302960038401613c30565b928261306e600983015495613060600b600a860154950154956040519a8b9a8b5260208b01526101408060408c01528a0190613b27565b9088820360608a0152613b27565b948181166080880152818160081c1660a088015260101c1660c086015260e0850152818116151561010085015260081c1615156101208301520390f35b34610263576020366003190112610263576001600160a01b036130cc613ac7565b166000526000602052602060ff60406000205416604051908152f35b34610263576000366003190112610263576020600a54604051908152f35b34610263576020366003190112610263576001600160a01b03613127613ac7565b16600052600d6020526020604060002054604051908152f35b3461026357600036600319011261026357602060405161012c8152f35b3461026357604036600319011261026357613176613add565b600435600052600660205260406000209060018060a01b0316600052602052602060ff604060002054166040519015158152f35b346102635760203660031901126102635760206131cd6131c8613ac7565b614cad565b6040519015158152f35b3461026357600036600319011261026357602060405160008152f35b34610263576000366003190112610263576020604051603c8152f35b34610263576040366003190112610263576001600160a01b03613230613ac7565b16600052600960205260406000206024356000526020526020604060002054604051908152f35b3461026357602036600319011261026357600435600052600c602052604060002060018060a01b03906116b8828254169160ff61329b600260018401549301613c30565b9160405195869586528116602086015260a01c166040840152608060608401526080830190613b27565b3461026357600036600319011261026357602060405160648152f35b3461026357600036600319011261026357602060405160058152f35b34610263576020366003190112610263576001600160a01b0361331e613ac7565b16600052600e6020526020604060002054604051908152f35b346102635760003660031901126102635733600052600460205260ff60406000205416600381101561042f5761336d9015613dd1565b3360005260046020526040600020600260ff1982541617905561259633614a17565b3461026357602036600319011261026357610cb5600435614101565b3461026357602036600319011261026357600435600052600b602052604060002060018060a01b03908181541691600182015416906002810154906003810154916134596133fb60048401613c30565b61344b61340a60058601613c30565b9160068601549660078701549560ff600960088a015499015416996040519b8c5260208c015260408b015260608a01526101408060808b0152890190613b27565b9087820360a0890152613b27565b9260c086015260e0850152610100840152600982101561042f5782916101208301520390f35b34610263576020806003193601126102635760a060405161349f81613bbc565b36903760043560005260058082526004604060002001916040519283826000915b85831061350857505050506134d483613bbc565b60405192600090845b8483106134e95760a086f35b81516001600160a01b03168152600192909201919083019083016134dd565b83546001600160a01b0316815260019384019392909201918491016134c0565b34610263576040366003190112610263576024803580151590600435908281036102635781600052602090600b825260ff806009604060002001541660098110156137d25760076135799114614954565b8360005260058352604060002091600a830154801561379a576135a283600b86015416156148f4565b4210156137605784600052600684526040600020336000528452816040600020541661372c576000809360098101946004858754169201905b82868216106136ee575b505050156136b357847ff2913dbe661ee2acc4a046d8fbcdc792373bda34c41c6086484b5345e5785e5f95969750600052600684526040600020336000528452604060002060ff19906001828254161790558660005260078552604060002033600052855260406000209081541683891617905560001461368c5761ff006136738354928360081c16614933565b60081b169061ff0019161790555b6040519384523393a3005b62ff00006136a08354928360101c16614933565b60101b169062ff00001916179055613681565b60405162461bcd60e51b815260048101859052601481890152732737ba10309039b2b632b1ba32b2103b37ba32b960611b6044820152606490fd5b6136f88183614944565b905460039190911b1c6001600160a01b0316331461371e5761371990614933565b6135db565b5050505060018880806135e5565b60405162461bcd60e51b815260048101859052600d818901526c105b1c9958591e481d9bdd1959609a1b6044820152606490fd5b60405162461bcd60e51b81526004810185905260138189015272159bdd1a5b99c81c195c9a5bd908195b991959606a1b6044820152606490fd5b60405162461bcd60e51b8152600481018690526011818a0152704e6f20646973707574652065786973747360781b6044820152606490fd5b86634e487b7160e01b60005260216004526000fd5b3461026357602036600319011261026357600435600052600b602052604060002061381f60018060a01b036001830154163314613ee9565b600981019081549060ff821690600982101561042f5761384460026138549314613f22565b6003600782015491015490613f5d565b42116138655760ff19166003179055005b60405162461bcd60e51b815260206004820152601460248201527314dd185c9d081dda5b991bddc8195e1c1a5c995960621b6044820152606490fd5b3461026357602080600319360112610263576001600160a01b036138c3613ac7565b166000526008815260406000208054906138dc82613e12565b916138ea6040519384613c0d565b8083526138f681613e12565b90848401601f1980930136823761390c82613e29565b61391583613e29565b9261391f81613e12565b9561392d6040519788613c0d565b8187528561393a83613e12565b0160005b818110613ab857505060005b828110613a1f57505050604051956080870190608088525180915260a08701929060005b8181106139f8575050508161398d918761399b95940389890152613af3565b908582036040870152613af3565b93838503606085015282519081865280860181808460051b8901019501936000975b8489106139ca5787870388f35b90919293949584806139e6838686600196030188528a51613b27565b980194019801979190949392946139bd565b909193849996995190600e82101561042f579081529598958901938901919060010161396e565b60ff613a2e82849c999c613e6a565b50541690613a3c818b613e9c565b91600e81101561042f57613ab092526001613a578285613e6a565b500154613a648287613e9c565b526002613a718285613e6a565b500154613a7e8289613e9c565b52613a956003613a8e8386613e6a565b5001613c30565b613a9f828b613e9c565b52613aaa818a613e9c565b50613e5b565b98959861394a565b60608982018c01528a0161393e565b600435906001600160a01b038216820361026357565b602435906001600160a01b038216820361026357565b90815180825260208080930193019160005b828110613b13575050505090565b835185529381019392810192600101613b05565b919082519283825260005b848110613b53575050826000602080949584010152601f8019910116010190565b602081830181015184830182015201613b32565b90600182811c92168015613b97575b6020831014613b8157565b634e487b7160e01b600052602260045260246000fd5b91607f1691613b76565b608081019081106001600160401b038211176103e457604052565b60a081019081106001600160401b038211176103e457604052565b606081019081106001600160401b038211176103e457604052565b604081019081106001600160401b038211176103e457604052565b601f909101601f19168101906001600160401b038211908210176103e457604052565b9060405191826000825492613c4484613b67565b908184526001948581169081600014613cb35750600114613c70575b5050613c6e92500383613c0d565b565b9093915060005260209081600020936000915b818310613c9b575050613c6e93508201013880613c60565b85548884018501529485019487945091830191613c83565b915050613c6e94506020925060ff191682840152151560051b8201013880613c60565b3461026357600036600319011261026357602060405160038152f35b3461026357600036600319011261026357602060405160508152f35b3461026357600036600319011261026357602060405160788152f35b6001600160401b0381116103e457601f01601f191660200190565b81601f8201121561026357803590613d5c82613d2a565b92613d6a6040519485613c0d565b8284526020838301011161026357816000926020809301838601378301015290565b9060406003198301126102635760043591602435906001600160401b03821161026357613dbb91600401613d45565b90565b91906020830192600382101561042f5752565b15613dd857565b60405162461bcd60e51b8152602060048201526012602482015271105b1c9958591e481c9959da5cdd195c995960721b6044820152606490fd5b6001600160401b0381116103e45760051b60200190565b90613e3382613e12565b613e406040519182613c0d565b8281528092613e51601f1991613e12565b0190602036910137565b60001981146108e75760010190565b8054821015613e865760005260206000209060021b0190600090565b634e487b7160e01b600052603260045260246000fd5b8051821015613e865760209160051b010190565b15613eb757565b60405162461bcd60e51b815260206004820152600a602482015269139bdd0818db1a595b9d60b21b6044820152606490fd5b15613ef057565b60405162461bcd60e51b815260206004820152600a6024820152692737ba103bb7b935b2b960b11b6044820152606490fd5b15613f2957565b60405162461bcd60e51b815260206004820152600c60248201526b139bdd081858d8d95c1d195960a21b6044820152606490fd5b919082018092116108e757565b15613f7157565b60405162461bcd60e51b8152602060048201526009602482015268546f6f206561726c7960b81b6044820152606490fd5b604051613fae81613bd7565b602581527f4163636570746564206f7220696e2d70726f6772657373206a6f62206162616e602082015264191bdb995960da1b604082015290565b604051613ff581613bd7565b602381527f43616e63656c6c6564206a6f6220616674657220776f726b65722061636365706020820152621d195960ea1b604082015290565b1561403557565b60405162461bcd60e51b815260206004820152600d60248201526c139bdd081cdd589b5a5d1d1959609a1b6044820152606490fd5b6040519061407782613bf2565b600d82526c1a9bd897d8dbdb5c1b195d1959609a1b6020830152565b3d156140be573d906140a482613d2a565b916140b26040519384613c0d565b82523d6000602084013e565b606090565b156140ca57565b60405162461bcd60e51b815260206004820152600f60248201526e151c985b9cd9995c8819985a5b1959608a1b6044820152606490fd5b6000818152600b6020526040902080546001600160a01b0316614125338214613eb0565b6009820190815460ff8116600981101561042f57600114614821575050805460ff8116600981101561042f5760021461419b5760405162461bcd60e51b815260206004820152601b60248201527a43616e6e6f742063616e63656c206174207468697320737461676560281b6044820152606490fd5b60ff19166006179055600181015481546001600160a01b039182169291166141c1613fe9565b816000526008602052604060002090604051916141dd83613ba1565b60088352602083018781526040840191428352606085019384528054600160401b8110156103e45761421491600182018155613e6a565b9490946109be5751600e81101561042f5760ff801986541691161784555160018401555160028301555180519060018060401b0382116103e45761425b6003840154613b67565b601f81116147da575b50602090601f831160011461476b576003929160009183614760575b50508160011b9160001990841b1c1916179101555b80600052600960205260406000206008600052602052604060002080546001810181116108e7576001019055600881600080516020614d628339815191526020604051888152a3806000526009602052604060002060086000526020526005604060002054101561450d575b50600080808061432594600260018060a01b03825416910154905af1610caf614093565b61432d613fe9565b816000526008602052604060002060405161434781613ba1565b6008815260208101918583526040820190428252606083019485528054600160401b8110156103e45761437f91600182018155613e6a565b9290926109be575192600e84101561042f5760039360ff8019855416911617835551600183015551600282015501905180519060018060401b0382116103e45781906143cb8454613b67565b601f81116144ba575b50602090601f831160011461445457600092614449575b50508160011b916000199060031b1c19161790555b806000526009602052604060002060086000526020526040600020805490600182018092116108e757600893600080516020614d628339815191529260209255604051908152a3565b0151905038806143eb565b6000858152602081209350601f198516905b8181106144a25750908460019594939210614489575b505050811b019055614400565b015160001960f88460031b161c1916905538808061447c565b92936020600181928786015181550195019301614466565b909150836000526020600020601f840160051c81019160208510614503575b90601f859493920160051c01905b8181106144f457506143d4565b600081558493506001016144e7565b90915081906144d9565b8060005260096020526040600020600a600052602052604060002054614301579060405161453a81613bf2565b601c81527b233630b3b3b2b21030b9903837ba32b73a34b0b61039b1b0b6b6b2b960211b602082015282600052600860205260406000206040519161457e83613ba1565b600a83526000602084015242604084015260608301528054600160401b8110156103e4576145b191600182018155613e6a565b9190916109be57805190600e82101561042f5760609160ff801985541691161783556020810151600184015560408101516002840155015180519060018060401b0382116103e4576146066003840154613b67565b601f8111614719575b50602090601f83116001146146aa57600392916000918361469f575b50508160011b9160001990841b1c1916179101555b8160005260096020526040600020600a6000526020526040600020918254906001820182116108e75760008093600a8294936143259760018596019055600080516020614d628339815191526020604051868152a39450505050614301565b01519050388061462b565b906003840160005260206000209160005b601f19851681106147015750918391600193600395601f198116106146e9575b505050811b01910155614640565b015160001983861b60f8161c191690553880806146db565b919260206001819286850151815501940192016146bb565b600384016000526020600020601f840160051c810160208510614759575b601f830160051c8201811061474d57505061460f565b60008155600101614737565b5080614737565b015190503880614280565b906003840160005260206000209160005b601f19851681106147c25750918391600193600395601f198116106147aa575b505050811b01910155614295565b015160001983861b60f8161c1916905538808061479c565b9192602060018192868501518155019401920161477c565b600384016000526020600020601f840160051c81016020851061481a575b601f830160051c8201811061480e575050614264565b600081556001016147f8565b50806147f8565b92919093506006820154603c81018091116108e757613c6e94600260009594869594600687966148548897421015613f6a565b60ff19161790550154905af1610caf614093565b6001600160a01b03166000908152600e602052604081205415613dbb57600d6020526040812054600e60205260408220549182156148a557500490565b634e487b7160e01b81526012600452602490fd5b156148c057565b60405162461bcd60e51b815260206004820152600c60248201526b139bdd081a5b9d9bdb1d995960a21b6044820152606490fd5b156148fb57565b60405162461bcd60e51b815260206004820152601060248201526f105b1c9958591e481c995cdbdb1d995960821b6044820152606490fd5b60ff1660ff81146108e75760010190565b6005821015613e86570190600090565b1561495b57565b60405162461bcd60e51b815260206004820152600c60248201526b139bdd08191a5cdc1d5d195960a21b6044820152606490fd5b1561499657565b60405162461bcd60e51b815260206004820152600a6024820152694e6f206469737075746560b01b6044820152606490fd5b604051906149d582613bf2565b600c82526b6c6f73745f6469737075746560a01b6020830152565b604051906149fd82613bf2565b600b82526a776f6e5f6469737075746560a81b6020830152565b6001600160a01b031660008181526001602052604081205460ff16614a865780827f5d95448edae7bcc3f04ceed898bf2926c2e56c8de7c6a57d3b90539b1ff037a69252806020526040812060ff199060508282541617905560016020526001604083209182541617905580a2565b60405162461bcd60e51b8152602060048201526013602482015272105b1c9958591e481a5b9a5d1a585b1a5e9959606a1b6044820152606490fd5b60ff613dbb9493816060941683521660208201528160408201520190613b27565b6001600160a01b03166000818152602081905260408120549192909160ff16906005820161ffff808211614b975760649082161115614b5d575090614b58600080516020614d82833981519152939260406064945b878152806020522060ff851660ff1982541617905560405193849384614ac1565b0390a2565b60ff8111614b8357600080516020614d828339815191529392916040614b589294614b37565b634e487b7160e01b84526011600452602484fd5b634e487b7160e01b85526011600452602485fd5b6001600160a01b03166000818152602081905260408120549192909160ff1690600a820161ffff808211614b975760649082161115614b5d575090614b58600080516020614d8283398151915293926040606494878152806020522060ff851660ff1982541617905560405193849384614ac1565b6001600160a01b03166000818152602081905260408120549192909160ff1690600a8211614c825790614b5883926040600080516020614d828339815191529594878152806020522060ff851660ff1982541617905560405193849384614ac1565b600919820160ff8111614b8357600080516020614d828339815191529392916040614b589294614b37565b60018060a01b03166000526000602052605060ff60406000205416101590565b600254811015613e8657600260005260206000200190600090565b6001600160a01b03811660008181526003602052604081205490929060ff1615614d1157505050565b600254600160401b811015614d4d576040939291612c44826001614d389401600255614ccd565b8152600360205220805460ff19166001179055565b634e487b7160e01b84526041600452602484fdfed4df0cb969b99d25f121a3e9c7f32d8fcc5a0d782408695f68de9493db8cc177bbf5ee5eee34326c6c2d38c9b7ceeb7a8e3ee460657a93dd17fac3e82b141d57a26469706673582212201043ec525239ce0328e290f7651f9afd62a36776edad9da16876e34ba7dc6fcc64736f6c63430008140033",
  "linkReferences": {},
  "deployedLinkReferences": {}
}