{
  "_format": "hh-sol-artifact-1",
  "contractName": "GigStamp",
  "sourceName": "contracts/GigStamp.sol",
  "abi": [
    {
      "anonymous": false,
      "inputs": [
        {
          "indexed": true,
          "internalType": "address",
          "name": "user",
          "type": "address"
        },
        {
          "indexed": true,
          "internalType": "enum BadgeManager.BadgeType",
          "name": "badgeType",
          "type": "uint8"
        },
        {
          "indexed": false,
          "internalType": "uint256",
          "name": "jobId",
          "type": "uint256"
        }
      ],
      "name": "BadgeAwarded",
      "type": "event"
    },
    {
      "anonymous": false,
      "inputs": [
        {
          "indexed": true,
          "internalType": "uint256",
          "name": "jobId",
          "type": "uint256"
        },
        {
          "indexed": true,
          "internalType": "address",
          "name": "responder",
          "type": "address"
        }
      ],
      "name": "CounterEvidenceSubmitted",
      "type": "event"
    },
    {
      "anonymous": false,
      "inputs": [
        {
          "indexed": true,
          "internalType": "uint256",
          "name": "jobId",
          "type": "uint256"
        },
        {
          "indexed": true,
          "internalType": "address",
          "name": "initiator",
          "type": "address"
        }
      ],
      "name": "DisputeRaised",
      "type": "event"
    },
    {
      "anonymous": false,
      "inputs": [
        {
          "indexed": true,
          "internalType": "uint256",
          "name": "jobId",
          "type": "uint256"
        },
        {
          "indexed": false,
          "internalType": "enum DisputeOutcome",
          "name": "outcome",
          "type": "uint8"
        }
      ],
      "name": "DisputeResolved",
      "type": "event"
    },
    {
      "anonymous": false,
      "inputs": [
        {
          "indexed": true,
          "internalType": "address",
          "name": "user",
          "type": "address"
        },
        {
          "indexed": false,
          "internalType": "uint8",
          "name": "oldScore",
          "type": "uint8"
        },
        {
          "indexed": false,
          "internalType": "uint8",
          "name": "newScore",
          "type": "uint8"
        },
        {
          "indexed": false,
          "internalType": "string",
          "name": "reason",
          "type": "string"
        }
      ],
      "name": "ScoreChanged",
      "type": "event"
    },
    {
      "anonymous": false,
      "inputs": [
        {
          "indexed": true,
          "internalType": "address",
          "name": "user",
          "type": "address"
        }
      ],
      "name": "ScoreInitialized",
      "type": "event"
    },
    {
      "anonymous": false,
      "inputs": [
        {
          "indexed": true,
          "internalType": "uint256",
          "name": "jobId",
          "type": "uint256"
        },
        {
          "indexed": true,
          "internalType": "address",
          "name": "voter",
          "type": "address"
        },
        {
          "indexed": false,
          "internalType": "bool",
          "name": "voteForWorker",
          "type": "bool"
        }
      ],
      "name": "Voted",
      "type": "event"
    },
    {
      "anonymous": false,
      "inputs": [
        {
          "indexed": true,
          "internalType": "uint256",
          "name": "jobId",
          "type": "uint256"
        },
        {
          "indexed": false,
          "internalType": "address[]",
          "name": "voters",
          "type": "address[]"
        }
      ],
      "name": "VoterSelected",
      "type": "event"
    },
    {
      "anonymous": false,
      "inputs": [
        {
          "indexed": true,
          "internalType": "uint256",
          "name": "jobId",
          "type": "uint256"
        },
        {
          "indexed": false,
          "internalType": "address[]",
          "name": "newVoters",
          "type": "address[]"
        },
        {
          "indexed": false,
          "internalType": "uint256",
          "name": "newDeadline",
          "type": "uint256"
        }
      ],
      "name": "VotersReplaced",
      "type": "event"
    },
    {
      "inputs": [],
      "name": "APPROVE_TIMEOUT",
      "outputs": [
        {
          "internalType": "uint256",
          "name": "",
          "type": "uint256"
        }
      ],
      "stateMutability": "view",
      "type": "function"
    },
    {
      "inputs": [],
      "name": "INIT_SCORE",
      "outputs": [
        {
          "internalType": "uint8",
          "name": "",
          "type": "uint8"
        }
      ],
      "stateMutability": "view",
      "type": "function"
    },
    {
      "inputs": [],
      "name": "MAX_SCORE",
      "outputs": [
        {
          "internalType": "uint8",
          "name": "",
          "type": "uint8"
        }
      ],
      "stateMutability": "view",
      "type": "function"
    },
    {
      "inputs": [],
      "name": "MIN_SCORE",
      "outputs": [
        {
          "internalType": "uint8",
          "name": "",
          "type": "uint8"
        }
      ],
      "stateMutability": "view",
      "type": "function"
    },
    {
      "inputs": [],
      "name": "SCAM_THRESHOLD",
      "outputs": [
        {
          "internalType": "uint256",
          "name": "",
          "type": "uint256"
        }
      ],
      "stateMutability": "view",
      "type": "function"
    },
    {
      "inputs": [],
      "name": "SERIAL_CANCEL_THRESHOLD",
      "outputs": [
        {
          "internalType": "uint256",
          "name": "",
          "type": "uint256"
        }
      ],
      "stateMutability": "view",
      "type": "function"
    },
    {
      "inputs": [],
      "name": "VOTER_THRESHOLD",
      "outputs": [
        {
          "internalType": "uint8",
          "name": "",
          "type": "uint8"
        }
      ],
      "stateMutability": "view",
      "type": "function"
    },
    {
      "inputs": [],
      "name": "VOTE_DURATION",
      "outputs": [
        {
          "internalType": "uint256",
          "name": "",
          "type": "uint256"
        }
      ],
      "stateMutability": "view",
      "type": "function"
    },
    {
      "inputs": [
        {
          "internalType": "uint256",
          "name": "jobId",
          "type": "uint256"
        }
      ],
      "name": "acceptJob",
      "outputs": [],
      "stateMutability": "nonpayable",
      "type": "function"
    },
    {
      "inputs": [
        {
          "internalType": "uint256",
          "name": "jobId",
          "type": "uint256"
        },
        {
          "internalType": "uint8",
          "name": "_rating",
          "type": "uint8"
        },
        {
          "internalType": "string",
          "name": "_comment",
          "type": "string"
        }
      ],
      "name": "approveJob",
      "outputs": [],
      "stateMutability": "nonpayable",
      "type": "function"
    },
    {
      "inputs": [
        {
          "internalType": "uint256",
          "name": "jobId",
          "type": "uint256"
        }
      ],
      "name": "autoReleaseIfNotApproved",
      "outputs": [],
      "stateMutability": "nonpayable",
      "type": "function"
    },
    {
      "inputs": [
        {
          "internalType": "address",
          "name": "",
          "type": "address"
        },
        {
          "internalType": "uint256",
          "name": "",
          "type": "uint256"
        }
      ],
      "name": "badgeCount",
      "outputs": [
        {
          "internalType": "uint256",
          "name": "",
          "type": "uint256"
        }
      ],
      "stateMutability": "view",
      "type": "function"
    },
    {
      "inputs": [
        {
          "internalType": "uint256",
          "name": "jobId",
          "type": "uint256"
        }
      ],
      "name": "cancelIfNotStarted",
      "outputs": [],
      "stateMutability": "nonpayable",
      "type": "function"
    },
    {
      "inputs": [
        {
          "internalType": "uint256",
          "name": "jobId",
          "type": "uint256"
        }
      ],
      "name": "cancelIfNotSubmitted",
      "outputs": [],
      "stateMutability": "nonpayable",
      "type": "function"
    },
    {
      "inputs": [
        {
          "internalType": "uint256",
          "name": "jobId",
          "type": "uint256"
        }
      ],
      "name": "cancelJob",
      "outputs": [],
      "stateMutability": "nonpayable",
      "type": "function"
    },
    {
      "inputs": [
        {
          "internalType": "uint256",
          "name": "jobId",
          "type": "uint256"
        },
        {
          "internalType": "bool",
          "name": "voteForWorker",
          "type": "bool"
        }
      ],
      "name": "castVote",
      "outputs": [],
      "stateMutability": "nonpayable",
      "type": "function"
    },
    {
      "inputs": [
        {
          "internalType": "string",
          "name": "_jobHash",
          "type": "string"
        },
        {
          "internalType": "uint256",
          "name": "_pay",
          "type": "uint256"
        },
        {
          "internalType": "uint256",
          "name": "_startTime",
          "type": "uint256"
        },
        {
          "internalType": "uint256",
          "name": "_endTime",
          "type": "uint256"
        },
        {
          "internalType": "uint256",
          "name": "_tolerance",
          "type": "uint256"
        }
      ],
      "name": "createJob",
      "outputs": [],
      "stateMutability": "nonpayable",
      "type": "function"
    },
    {
      "inputs": [
        {
          "internalType": "uint256",
          "name": "",
          "type": "uint256"
        }
      ],
      "name": "disputes",
      "outputs": [
        {
          "internalType": "uint256",
          "name": "jobId",
          "type": "uint256"
        },
        {
          "internalType": "address",
          "name": "initiator",
          "type": "address"
        },
        {
          "internalType": "string",
          "name": "evidenceHash",
          "type": "string"
        },
        {
          "internalType": "string",
          "name": "counterHash",
          "type": "string"
        },
        {
          "internalType": "uint8",
          "name": "voterCount",
          "type": "uint8"
        },
        {
          "internalType": "uint8",
          "name": "votesForWorker",
          "type": "uint8"
        },
        {
          "internalType": "uint8",
          "name": "votesForClient",
          "type": "uint8"
        },
        {
          "internalType": "uint256",
          "name": "deadline",
          "type": "uint256"
        },
        {
          "internalType": "bool",
          "name": "resolved",
          "type": "bool"
        },
        {
          "internalType": "enum DisputeOutcome",
          "name": "outcome",
          "type": "uint8"
        }
      ],
      "stateMutability": "view",
      "type": "function"
    },
    {
      "inputs": [
        {
          "internalType": "uint256",
          "name": "",
          "type": "uint256"
        }
      ],
      "name": "feedbacks",
      "outputs": [
        {
          "internalType": "address",
          "name": "client",
          "type": "address"
        },
        {
          "internalType": "address",
          "name": "worker",
          "type": "address"
        },
        {
          "internalType": "uint8",
          "name": "rating",
          "type": "uint8"
        },
        {
          "internalType": "string",
          "name": "comment",
          "type": "string"
        }
      ],
      "stateMutability": "view",
      "type": "function"
    },
    {
      "inputs": [
        {
          "internalType": "uint256",
          "name": "jobId",
          "type": "uint256"
        }
      ],
      "name": "fundJob",
      "outputs": [],
      "stateMutability": "payable",
      "type": "function"
    },
    {
      "inputs": [
        {
          "internalType": "address",
          "name": "user",
          "type": "address"
        },
        {
          "internalType": "enum BadgeManager.BadgeType",
          "name": "badgeType",
          "type": "uint8"
        }
      ],
      "name": "getBadgeCount",
      "outputs": [
        {
          "internalType": "uint256",
          "name": "",
          "type": "uint256"
        }
      ],
      "stateMutability": "view",
      "type": "function"
    },
    {
      "inputs": [
        {
          "internalType": "address",
          "name": "user",
          "type": "address"
        }
      ],
      "name": "getBadges",
      "outputs": [
        {
          "internalType": "enum BadgeManager.BadgeType[]",
          "name": "types",
          "type": "uint8[]"
        },
        {
          "internalType": "uint256[]",
          "name": "jobIds",
          "type": "uint256[]"
        },
        {
          "internalType": "uint256[]",
          "name": "timestamps",
          "type": "uint256[]"
        },
        {
          "internalType": "string[]",
          "name": "notes",
          "type": "string[]"
        }
      ],
      "stateMutability": "view",
      "type": "function"
    },
    {
      "inputs": [
        {
          "internalType": "uint256",
          "name": "jobId",
          "type": "uint256"
        }
      ],
      "name": "getDisputeVoters",
      "outputs": [
        {
          "internalType": "address[5]",
          "name": "",
          "type": "address[5]"
        }
      ],
      "stateMutability": "view",
      "type": "function"
    },
    {
      "inputs": [],
      "name": "getMyRole",
      "outputs": [
        {
          "internalType": "enum Auth.Role",
          "name": "",
          "type": "uint8"
        }
      ],
      "stateMutability": "view",
      "type": "function"
    },
    {
      "inputs": [
        {
          "internalType": "address",
          "name": "worker",
          "type": "address"
        }
      ],
      "name": "getRating",
      "outputs": [
        {
          "internalType": "uint256",
          "name": "",
          "type": "uint256"
        }
      ],
      "stateMutability": "view",
      "type": "function"
    },
    {
      "inputs": [
        {
          "internalType": "uint256",
          "name": "jobId",
          "type": "uint256"
        }
      ],
      "name": "getVoteCount",
      "outputs": [
        {
          "internalType": "uint8",
          "name": "forWorker",
          "type": "uint8"
        },
        {
          "internalType": "uint8",
          "name": "forClient",
          "type": "uint8"
        }
      ],
      "stateMutability": "view",
      "type": "function"
    },
    {
      "inputs": [
        {
          "internalType": "uint256",
          "name": "",
          "type": "uint256"
        },
        {
          "internalType": "address",
          "name": "",
          "type": "address"
        }
      ],
      "name": "hasVoted",
      "outputs": [
        {
          "internalType": "bool",
          "name": "",
          "type": "bool"
        }
      ],
      "stateMutability": "view",
      "type": "function"
    },
    {
      "inputs": [
        {
          "internalType": "address",
          "name": "user",
          "type": "address"
        }
      ],
      "name": "isEligibleVoter",
      "outputs": [
        {
          "internalType": "bool",
          "name": "",
          "type": "bool"
        }
      ],
      "stateMutability": "view",
      "type": "function"
    },
    {
      "inputs": [
        {
          "internalType": "address",
          "name": "user",
          "type": "address"
        }
      ],
      "name": "isScammer",
      "outputs": [
        {
          "internalType": "bool",
          "name": "",
          "type": "bool"
        }
      ],
      "stateMutability": "view",
      "type": "function"
    },
    {
      "inputs": [],
      "name": "jobCount",
      "outputs": [
        {
          "internalType": "uint256",
          "name": "",
          "type": "uint256"
        }
      ],
      "stateMutability": "view",
      "type": "function"
    },
    {
      "inputs": [
        {
          "internalType": "uint256",
          "name": "",
          "type": "uint256"
        }
      ],
      "name": "jobs",
      "outputs": [
        {
          "internalType": "address",
          "name": "client",
          "type": "address"
        },
        {
          "internalType": "address",
          "name": "worker",
          "type": "address"
        },
        {
          "internalType": "uint256",
          "name": "pay",
          "type": "uint256"
        },
        {
          "internalType": "uint256",
          "name": "startTime",
          "type": "uint256"
        },
        {
          "internalType": "uint256",
          "name": "endTime",
          "type": "uint256"
        },
        {
          "internalType": "uint256",
          "name": "tolerance",
          "type": "uint256"
        },
        {
          "internalType": "string",
          "name": "jobHash",
          "type": "string"
        },
        {
          "internalType": "string",
          "name": "resultHash",
          "type": "string"
        },
        {
          "internalType": "uint256",
          "name": "fundedAt",
          "type": "uint256"
        },
        {
          "internalType": "uint256",
          "name": "acceptedAt",
          "type": "uint256"
        },
        {
          "internalType": "uint256",
          "name": "submittedAt",
          "type": "uint256"
        },
        {
          "internalType": "enum JobStatus",
          "name": "status",
          "type": "uint8"
        }
      ],
      "stateMutability": "view",
      "type": "function"
    },
    {
      "inputs": [
        {
          "internalType": "uint256",
          "name": "jobId",
          "type": "uint256"
        },
        {
          "internalType": "string",
          "name": "evidenceHash",
          "type": "string"
        }
      ],
      "name": "raiseDispute",
      "outputs": [],
      "stateMutability": "nonpayable",
      "type": "function"
    },
    {
      "inputs": [
        {
          "internalType": "address",
          "name": "",
          "type": "address"
        }
      ],
      "name": "ratingCount",
      "outputs": [
        {
          "internalType": "uint256",
          "name": "",
          "type": "uint256"
        }
      ],
      "stateMutability": "view",
      "type": "function"
    },
    {
      "inputs": [],
      "name": "registerClient",
      "outputs": [],
      "stateMutability": "nonpayable",
      "type": "function"
    },
    {
      "inputs": [],
      "name": "registerWorker",
      "outputs": [],
      "stateMutability": "nonpayable",
      "type": "function"
    },
    {
      "inputs": [
        {
          "internalType": "uint256",
          "name": "jobId",
          "type": "uint256"
        }
      ],
      "name": "replaceInactiveVoters",
      "outputs": [],
      "stateMutability": "nonpayable",
      "type": "function"
    },
    {
      "inputs": [
        {
          "internalType": "address",
          "name": "",
          "type": "address"
        }
      ],
      "name": "reputationScore",
      "outputs": [
        {
          "internalType": "uint8",
          "name": "",
          "type": "uint8"
        }
      ],
      "stateMutability": "view",
      "type": "function"
    },
    {
      "inputs": [
        {
          "internalType": "uint256",
          "name": "jobId",
          "type": "uint256"
        }
      ],
      "name": "resolveDispute",
      "outputs": [],
      "stateMutability": "nonpayable",
      "type": "function"
    },
    {
      "inputs": [
        {
          "internalType": "address",
          "name": "",
          "type": "address"
        }
      ],
      "name": "roles",
      "outputs": [
        {
          "internalType": "enum Auth.Role",
          "name": "",
          "type": "uint8"
        }
      ],
      "stateMutability": "view",
      "type": "function"
    },
    {
      "inputs": [
        {
          "internalType": "uint256",
          "name": "jobId",
          "type": "uint256"
        }
      ],
      "name": "startWork",
      "outputs": [],
      "stateMutability": "nonpayable",
      "type": "function"
    },
    {
      "inputs": [
        {
          "internalType": "uint256",
          "name": "jobId",
          "type": "uint256"
        },
        {
          "internalType": "string",
          "name": "counterHash",
          "type": "string"
        }
      ],
      "name": "submitCounterEvidence",
      "outputs": [],
      "stateMutability": "nonpayable",
      "type": "function"
    },
    {
      "inputs": [
        {
          "internalType": "uint256",
          "name": "jobId",
          "type": "uint256"
        },
        {
          "internalType": "string",
          "name": "_resultHash",
          "type": "string"
        }
      ],
      "name": "submitWork",
      "outputs": [],
      "stateMutability": "nonpayable",
      "type": "function"
    },
    {
      "inputs": [
        {
          "internalType": "address",
          "name": "",
          "type": "address"
        }
      ],
      "name": "totalRating",
      "outputs": [
        {
          "internalType": "uint256",
          "name": "",
          "type": "uint256"
        }
      ],
      "stateMutability": "view",
      "type": "function"
    },
    {
      "inputs": [
        {
          "internalType": "uint256",
          "name": "",
          "type": "uint256"
        },
        {
          "internalType": "address",
          "name": "",
          "type": "address"
        }
      ],
      "name": "voteChoice",
      "outputs": [
        {
          "internalType": "bool",
          "name": "",
          "type": "bool"
        }
      ],
      "stateMutability": "view",
      "type": "function"
    }
  ],
  "bytecode": "0x60808060405234610016576153c4908161001c8239f35b600080fdfe6080604052600436101561001257600080fd5b60003560e01c806303828e4514613eed57806303a250f914613e7357806315373e3d14613bb45780631732d65214613b0b578063180aedf314613a1f5780631dffa3dc14613a03578063208082bf146139ab5780632404165e14613971578063247bc4a7146121af5780632488b2ee1461395557806327ff6223146121af5780632bb8b0dc146138e75780632d5928651461389f57806340b89270146138835780634225e7f41461385657806343859632146138095780634654ff05146137ec5780634807632f146137b25780634c5d8a0f146137945780634f0db6221461377857806350d061cb1461373b578063564a565d146136685780635aef573c146131a357806363b2f3c91461303b57806366c910c814612d6057806369c04c4414612d175780636d9fb28714612cb65780636e3b47fc14612c84578063771dd5811461239857806380fc9c0e1461236d5780638721ba3f1461231b5780638d22b863146121fa57806399374642146121b45780639ec0164a146121af578063adcd584314611ba9578063b2c2f2e814611b6b578063c2b7b868146111e6578063c5f8e29914610e48578063ca62fafd14610af0578063cbf78ee61461070a578063d0d241421461049c578063da8accf91461026e578063e72f73a8146102525763fb4688551461020057600080fd5b3461024d57604036600319011261024d57610219614129565b600435600052600760205260406000209060018060a01b0316600052602052602060ff604060002054166040519015158152f35b600080fd5b3461024d57600036600319011261024d57602060405160038152f35b3461024d5761027c366143ad565b906000526020600b815260406000209060016102a460018060a01b03828501541633146144f4565b600b83019360ff855416600981101561048657600303610451576102d1600485015460058601549061452d565b4211610414578051600785019390916001600160401b0383116103fe576102f885546141b3565b601f81116103b5575b5081601f841160011461034f5750928293918392600094610344575b50501b916000199060031b1c19161790555b42600a9190910155805460ff19166004179055005b01519250878061031d565b919083601f1981168760005284600020946000905b8883831061039b5750505010610382575b505050811b01905561032f565b015160001960f88460031b161c19169055858080610375565b858701518855909601959485019487935090810190610364565b8560005282600020601f850160051c8101918486106103f4575b601f0160051c019085905b8281106103e8575050610301565b600081550185906103da565b90915081906103cf565b634e487b7160e01b600052604160045260246000fd5b60405162461bcd60e51b815260048101849052601560248201527414dd589b5a5d081dda5b991bddc8195e1c1a5c9959605a1b6044820152606490fd5b60405162461bcd60e51b815260048101849052600d60248201526c496e76616c696420737461746560981b6044820152606490fd5b634e487b7160e01b600052602160045260246000fd5b3461024d576104aa366143ad565b81600052602090600b825260406000209060ff600b60018060a01b039384815416331480156106fb575b6104dd90614e1f565b01541660098110156104865760076104f59114614ef7565b836000526005835260406000206001928382015416610519600a8301541515614f32565b61052a60ff600b8401541615614e5a565b33146106b95760030192835491610540836141b3565b610678578051926001600160401b0384116103fe5761055e906141b3565b601f811161062f575b5081601f84116001146105c957509282939183926000946105be575b50501b916000199060031b1c19161790555b33907f7878f55c48613e960719430c5332344cefc8c552f6afc747476ff85169f618fe600080a3005b015192508680610583565b919083601f1981168760005284600020946000905b8883831061061557505050106105fc575b505050811b019055610595565b015160001960f88460031b161c191690558480806105ef565b8587015188559096019594850194879350908101906105de565b8560005282600020601f850160051c81019184861061066e575b601f0160051c019085905b828110610662575050610567565b60008155018590610654565b9091508190610649565b60405162461bcd60e51b815260048101839052601960248201527810dbdd5b9d195c88185b1c9958591e481cdd589b5a5d1d1959603a1b6044820152606490fd5b60405162461bcd60e51b815260048101859052601a60248201527943616e6e6f7420636f756e746572206f776e206469737075746560301b6044820152606490fd5b506001810154851633146104d4565b3461024d5760a036600319011261024d576004356001600160401b03811161024d5761073a903690600401614366565b33600052600460205260ff60406000205416600381101561048657600161076191146144bb565b6040519061018082016001600160401b038111838210176103fe576040523382526000602083015260243560408301526044356060830152606435608083015260843560a083015260c08201526040516020810181811060018060401b038211176103fe576040526000815260e08201526000610100820152600061012082015260006101408201526000610160820152600a54600052600b60205260406000209060018060a01b038082511660018060a01b0319908185541617845560018401916020840151169082541617905560408101516002830155606081015160038301556080810151600483015560a0810151600583015560c081015191825160018060401b0381116103fe5761087a60068301546141b3565b601f8111610aa9575b506020601f8211600114610a3b5781929394600092610a30575b50508160011b916000199060031b1c19161760068201555b60e08201518051906001600160401b0382116103fe576108d860078401546141b3565b601f81116109e5575b50602090601f831160011461096f5791806101609492600b94600092610964575b50508160011b916000199060031b1c19161760078201555b61010084015160088201556101208401516009820155610140840151600a8201550191015160098110156104865760ff8019835416911617905561095f600a5461447c565b600a55005b015190508680610902565b906007840160005260206000209160005b601f19851681106109cd5750926101609492600192600b9583601f198116106109b4575b505050811b01600782015561091a565b015160001960f88460031b161c191690558680806109a4565b91926020600181928685015181550194019201610980565b600784016000526020600020601f840160051c81019160208510610a26575b601f0160051c01905b818110610a1a57506108e1565b60008155600101610a0d565b9091508190610a04565b01519050848061089d565b6006830160005260206000209060005b601f1984168110610a915750600193949583601f19811610610a78575b505050811b0160068201556108b5565b015160001960f88460031b161c19169055848080610a68565b9091602060018192858a015181550193019101610a4b565b600683016000526020600020601f830160051c810160208410610ae9575b601f830160051c82018110610add575050610883565b60008155600101610ac7565b5080610ac7565b3461024d5760208060031936011261024d576004359081600052600b8152604060002091600b83019182549260ff84166009811015610486576002610b35911461457d565b610b52610b4b600387015460058801549061452d565b42116145b8565b600660ff1980951617905560018060a01b0392610b90600080808060019960028a8c830154169a825416910154905af1610b8a6145f0565b50614620565b83604051610b9d8161423e565b601b81527a1ddbdc9ad95c97d858d8d95c1d195917db9bdd17dcdd185c9d1959602a1b848201526000828152808552604090205460ff1660058111610e1d579060008051602061536f83398151915291610c186000925b8560005260008852604060002060ff85168882541617905560405193849384615082565b0390a2610c236148d7565b908460005260088352604060002060405190610c3e826141ed565b600082528482018681526040830191428352606084019586528054600160401b8110156103fe57610c73918b8201815561448b565b939093610e075751600d8110156104865760ff6003958554169116178355518883015551600282015501905180519060018060401b0382116103fe578190610cbb84546141b3565b601f8111610db4575b508490601f8311600114610d5157600092610d46575b5050600019600383901b1c191690861b1790555b826000526009815260406000206000805281526040600020918254948501809511610d305760009460008051602061534f8339815191529355604051908152a3005b634e487b7160e01b600052601160045260246000fd5b015190508780610cda565b90889350601f1983169185600052866000209260005b88828210610d9e5750508411610d85575b505050811b019055610cee565b015160001960f88460031b161c19169055878080610d78565b8385015186558c97909501949384019301610d67565b9091508360005284600020601f840160051c810191868510610dfd575b84939291601f8b920160051c01915b828110610dee575050610cc4565b600081558594508a9101610de0565b9091508190610dd1565b634e487b7160e01b600052600060045260246000fd5b915060041982019060ff8211610d30578692610c1860008051602061536f8339815191529392610bf4565b3461024d5760208060031936011261024d576004359081600052600b81526040600020600b81019081549260ff84166009811015610486576004610e8c911461491e565b600a82015460788101809111610d3057610ea8904210156145b8565b600560ff19948516811790935581546040516001600160a01b039391841690610ed08161423e565b601981527831b634b2b73a2fb4b3b737b932b22fb9bab136b4b9b9b4b7b760391b848201526000828152808552604090205460ff1690600882116111bf5760008051602061536f83398151915291610f496000925b8560005260008852604060002060ff85168c82541617905560405193849384615082565b0390a28281541692604051610f5d81614223565b602681527f446964206e6f7420726573706f6e6420616674657220776f726b65722073756284820152651b5a5d1d195960d21b60408201528460005260088452604060002096604051610faf816141ed565b8781528581018a81526040820190428252606083019485528a54600160401b8110156103fe57610fe69060019c8d8201815561448b565b939093610e075751600d8110156104865760ff6003958554169116178355518a83015551600282015501905180519060018060401b0382116103fe57819061102e84546141b3565b601f811161116e575b508690601f831160011461110b57600092611100575b5050600019600383901b1c191690881b1790555b83600052600983526040600020856000528352604060002090815493878501809511610d30576110e86000988998899860008051602061534f833981519152856110fe9e8c9b60029a55604051908152a385019183835416716a6f625f636f6d706c657465645f6175746f60701b604051926110dc8461423e565b6012845283015261516c565b5416910154905af16110f86145f0565b50614983565b005b015190508a8061104d565b908a9350601f1983169185600052886000209260005b8a828210611158575050841161113f575b505050811b019055611061565b015160001960f88460031b161c191690558a8080611132565b8385015186558e97909501949384019301611121565b9091508360005286600020601f84018a1c8101918885106111b5575b84939291601f8d92018c1c01915b8281106111a6575050611037565b600081558594508c9101611198565b909150819061118a565b60071982019160ff8311610d3057610f4960008051602061536f8339815191529392610f25565b3461024d57602036600319011261024d57600435600052600b602052604060002060ff600b8201541660098110156104865760076112249114614ef7565b60043560005260056020526040600020600a810154611244811515614f32565b600b820180549161125860ff841615614e5a565b4210801590611b40575b15611b0857600983015460ff808260081c169160101c1690818114600014611af25750506003915b60048310156104865761ffff1916600883901b61ff00161760011790556040516112b4818361433e565b7f2ffcfee146bc0d5ff304c6b65111a0d485af9456dc64eee7d66ebdcc90b223ea602060043592a2600091600382036118cf575b5060ff1991600883600b8601541617600b850155610486576002810361158c57508154909190611329906001600160a01b0316611323614f89565b906151e1565b60018060a01b03815416916040516113408161423e565b6018815277131bdcdd081848191a5cdc1d5d1948185cc818db1a595b9d60421b6020820152836000526008602052604060002060405192611380846141ed565b60078452602084019060043582526040850192428452606086019485528054600160401b8110156103fe576113ba9160018201815561448b565b959095610e07575190600d8210156104865785541660ff91909116178455516001840155516002830155518051906001600160401b0382116103fe5761140360038401546141b3565b601f8111611545575b50602090601f83116001146114d85760039291600091836114cd575b50508160011b9160001990841b1c1916179101555b81600052600960205260406000206007600052602052604060002080549260018401809411610d30576000809360078294936110fe9784955560008051602061534f83398151915260206040516004358152a3600181018054600291906114b5906001600160a01b03166114af614fb1565b9061516c565b54910154906001600160a01b03165af16110f86145f0565b015190508680611428565b90601f198316916003850160005260206000209260005b81811061152d57509160019391856003969410611515575b505050811b0191015561143d565b015160001983861b60f8161c19169055868080611507565b929360206001819287860151815501950193016114ef565b600384016000526020600020601f840160051c810160208510611585575b601f830160051c8201811061157957505061140c565b60008155600101611563565b5080611563565b600181036117ec57506001820180546001600160a01b039182916115b4908316611323614f89565b541691604051906115c48261423e565b600e82526d4c6f73742061206469737075746560901b60208301528360005260086020526040600020604051906115fa826141ed565b600282526020820160043581526040830191428352606084019586528054600160401b8110156103fe576116339160018201815561448b565b939093610e075751600d8110156104865760ff600395855416911617835551600183015551600282015501905180519060018060401b0382116103fe57819061167c84546141b3565b601f8111611799575b50602090601f831160011461173357600092611728575b50508160011b916000199060031b1c19161790555b81600052600960205260406000206002600052602052604060002080549260018401809411610d30576110fe946002600095948187969487969587965560008051602061534f83398151915260206040516004358152a3611717818454166114af614fb1565b825416910154905af16110f86145f0565b01519050868061169c565b6000858152602081209350601f198516905b8181106117815750908460019594939210611768575b505050811b0190556116b1565b015160001960f88460031b161c1916905586808061175b565b92936020600181928786015181550195019301611745565b909150836000526020600020601f840160051c810191602085106117e2575b90601f859493920160051c01905b8181106117d35750611685565b600081558493506001016117c6565b90915081906117b8565b60039150146117f757005b6002810190815460011c60018060a01b03600080808085858854165af161181c6145f0565b501561188f5760009361183c859493859493600186950154169254614f7c565b905af16118476145f0565b501561184f57005b60405162461bcd60e51b81526020600482015260186024820152775472616e73666572206661696c65642028776f726b65722960401b6044820152606490fd5b60405162461bcd60e51b81526020600482015260186024820152775472616e73666572206661696c65642028636c69656e742960401b6044820152606490fd5b909260009250825b60ff60098401541660ff82161015611ae8576118f68160048501614eaa565b60018060a01b0391549060031b1c1690600435600052600660205260406000208260005260205260ff6040600020541615611ade5760043560005260076020526040600020826000526020526002861460ff60406000205416151514600014611a2f57604051916119668361423e565b600f83526e766f7465645f636f72726563746c7960881b602084015280600052600060205260ff6040600020541661ffff6003820111610d305760648061ffff600384011611600014611a02579360008051602061536f833981519152916119f46119fd96925b856000526000602052604060002060ff851660ff1982541617905560405193849384615082565b0390a25b614e99565b6118d7565b5060ff6003820111610d30576119fd93816119f4600360008051602061536f8339815191529401926119cd565b60405191611a3c8361423e565b600d83526c766f7465645f77726f6e676c7960981b602084015280600052600060205260ff604060002054168060031015600014611ab057600082815260208190526040808220805460ff19169055516119fd9560008051602061536f83398151915293919283926119f492919084615082565b60ff600219820111610d30576119fd9360008051602061536f833981519152916119f46002198201926119cd565b6119fd9150614e99565b50929050836112e8565b1115611b005760029161128a565b60019161128a565b60405162461bcd60e51b815260206004820152601060248201526f159bdd1a5b99c81b9bdd08195b99195960821b6044820152606490fd5b50600983015460ff8160101c1660ff8260081c16019060ff8211610d305760ff809116911614611262565b3461024d57602036600319011261024d5760043560005260056020526040600981600020015460ff825191818160081c16835260101c166020820152f35b3461024d57602036600319011261024d57600435600052600b602052604060002060ff600b820154166009811015610486576007611be79114614ef7565b80546001909101546004356000908152600560205260409020600a81015490926001600160a01b03908116921690611c20811515614f32565b611c3160ff600b8601541615614e5a565b42106121745760009060009060ff600986015416915b8260ff821610612110575060ff8316156120cb57611c6f60ff611c6984614f6b565b1661444a565b938451156120b55760208501528351600110156120b557604084015260005b8160ff821610612078575050906040516020810190428252600435604082015260ff60f81b8460f81b16606082015260418152611cca816141ed565b5190209160025490611cdb8261444a565b916000936000915b808310611fbc5750505060ff8116831015611fb6575060ff8216915b611d0b60ff841661444a565b93611d158261444a565b9260005b838110611f8f57505060005b60ff85168110611ee35786600087815b60ff60098501541660ff82161015611e005760043560005260066020526040600020611d648260048701614eaa565b60018060a01b0391549060031b1c1660005260205260ff604060002054161580611df3575b611d9c575b611d9790614e99565b611d35565b91611d9790611deb906119f86001600160a01b03611dbd60ff8416876144a7565b5116611dcc8760048a01614eaa565b90919082549060031b9160018060a01b03809116831b921b1916179055565b929050611d8e565b50815160ff841610611d89565b838261012c420190814211610d30577f3a17c250c2edd7885bc2d2c7e6a85ef460b5a11cdfcdef622788b6584ad9d6339082600a850155611e4c60405191604083526040830190614eba565b92602082015280600435930390a260ff60098201541690611e6c8261444a565b9160005b60ff81169082821015611eb557611eb091611eaa611e918360048801614eaa565b905460039190911b1c6001600160a01b031691876144a7565b52614e99565b611e70565b8460008051602061532f8339815191526040516020815280611ede600435946020830190614eba565b0390a2005b611f8860ff91611f26611f20604051602081019087825284604082015260408152611f0d81614223565b519020611f1a8489614f7c565b9061530e565b8261452d565b611f636001600160a01b03611f3b848a6144a7565b5116916001600160a01b03611f50828b6144a7565b5116611f5c858b6144a7565b52886144a7565b526001600160a01b03611f7682886144a7565b5116611f82828a6144a7565b5261447c565b9050611d25565b611fb1906001600160a01b03611fa582856144a7565b5116611f8282886144a7565b611d19565b91611cff565b9091959296611fcd8796959661528e565b905460009960039290921b1c6001600160a01b03169490895b855181101561206a576001600160a01b0361200182886144a7565b51168714612017576120129061447c565b611fe6565b5094909791985060019695965b158061205b575b612041575b5061203a9061447c565b9190611ce3565b8661205491611f8261203a9499896144a7565b9590612030565b506120658161526e565b61202b565b509490979198969596612024565b806120896120b09260048801614eaa565b905460039190911b1c6001600160a01b0316611eaa60ff6120a984614f6b565b16876144a7565b611c8e565b634e487b7160e01b600052603260045260246000fd5b60405162461bcd60e51b815260206004820152601e60248201527f416c6c2073656c656374656420766f74657273206861766520766f74656400006044820152606490fd5b6004356000526006602052604060002061212d8260048901614eaa565b60018060a01b0391549060031b1c1660005260205260ff604060002054161561215f575b61215a90614e99565b611c47565b9261216c61215a91614e99565b939050612151565b60405162461bcd60e51b8152602060048201526013602482015272111958591b1a5b99481b9bdd081c185cdcd959606a1b6044820152606490fd5b614322565b3461024d57602036600319011261024d576001600160a01b036121d5614113565b1660005260046020526121f660ff60406000205416604051918291826143df565b0390f35b60208060031936011261024d57600435600052600b81526040600020336000526004825260ff60406000205416600381101561048657600161223c91146144bb565b80546001600160a01b031633036122ea57600b81019081549060ff82166009811015610486576122b75760028101543403612283574260089091015560ff19166001179055005b60405162461bcd60e51b815260048101859052600c60248201526b15dc9bdb99c8185b5bdd5b9d60a21b6044820152606490fd5b60405162461bcd60e51b815260048101859052600b60248201526a139bdd0810dc99585d195960aa1b6044820152606490fd5b60405162461bcd60e51b81526004810183905260096024820152682737ba1037bbb732b960b91b6044820152606490fd5b3461024d57604036600319011261024d57612334614113565b60243590600d82101561024d5760018060a01b031660005260096020526040600020906000526020526020604060002054604051908152f35b3461024d57602036600319011261024d57602061239061238b614113565b614dce565b604051908152f35b3461024d57606036600319011261024d5760243560ff8116810361024d576044356001600160401b03811161024d576123d5903690600401614366565b90600435600052600b60205260406000209160018060a01b038354166123fc8133146144bb565b600b8401805460ff8116600981101561048657600461241b911461491e565b600160ff8616101580612c76575b15612c405760ff1916600517905560405161244381614223565b602281527f52656c6961626c6520636c69656e74207769746820636c65616e20686973746f602082015261727960f01b6040820152816000526008602052604060002060405191612493836141ed565b600b8352600435602084015242604084015260608301528054600160401b8110156103fe576124c79160018201815561448b565b919091610e0757805190600d8210156104865760609160ff801985541691161783556020810151600184015560408101516002840155015180519060018060401b0382116103fe5761251c60038401546141b3565b601f8111612bf9575b50602090601f8311600114612b8a576003929160009183612b7f575b50508160011b9160001990841b1c1916179101555b8060005260096020526040600020600b600052602052604060002090815491600183018311610d30576001600b9301905560008051602061534f83398151915260206040516004358152a36125d66040516125b08161423e565b601381527231b634b2b73a2fb0b8383937bb32b22fb537b160691b6020820152336150a3565b600460ff83161061285a576001830180546126359190612601906001600160a01b03166114af61495a565b54604051906001600160a01b03166126188261423e565b600b82526a676f6f645f726174696e6760a81b60208301526150a3565b600183015460405191906001600160a01b0316612651836141ed565b338352602080840191825260ff85166040808601918252606086019485526004356000908152600c909352909120935184546001600160a01b0319166001600160a01b03918216178555915160018501805492516001600160a81b0319909316919093161760a09190911b60ff60a01b16179055518051906001600160401b0382116103fe576126e460028401546141b3565b601f8111612813575b50602090601f83116001146127a557600292916000918361279a575b50508160011b916000199060031b1c1916179101555b60018060a01b03600183015416600052600d60205261274760ff60406000209216825461452d565b905560018060a01b03600182015416600052600e602052604060002080549160018301809311610d3057600080808093866110fe9655600260018060a01b03600183015416910154905af16110f86145f0565b015190508680612709565b90601f198316916002850160005260206000209260005b8181106127fb575091600193918560029694106127e2575b505050811b0191015561271f565b015160001960f88460031b161c191690558680806127d4565b929360206001819287860151815501950193016127bc565b600284016000526020600020601f840160051c810160208510612853575b601f830160051c820181106128475750506126ed565b60008155600101612831565b5080612831565b600260ff831611612b6057600183015461287f906001600160a01b03166114af61495a565b60018060a01b036001840154166040516128988161423e565b600a8152696261645f726174696e6760b01b602082015281600052600060205260ff60406000205416908160071015600014612b3657600083815260208190526040808220805460ff191690555160008051602061536f83398151915293909283926129049284615082565b0390a260018060a01b036001840154166040516129208161423e565b601b81527a52656365697665642031206f722032207374617220726174696e6760281b6020820152816000526008602052604060002060405191612963836141ed565b60018352600435602084015242604084015260608301528054600160401b8110156103fe576129979160018201815561448b565b919091610e0757805190600d8210156104865760609160ff801985541691161783556020810151600184015560408101516002840155015180519060018060401b0382116103fe576129ec60038401546141b3565b601f8111612aef575b50602090601f8311600114612a80576003929160009183612a75575b50508160011b9160001990841b1c1916179101555b80600052600960205260406000206001600052602052604060002090815491600183018311610d30576001809301905560008051602061534f83398151915260206040516004358152a3612635565b015190508880612a11565b906003840160005260206000209160005b601f1985168110612ad75750918391600193600395601f19811610612abf575b505050811b01910155612a26565b015160001983861b60f8161c19169055888080612ab1565b91926020600181928685015181550194019201612a91565b600384016000526020600020601f840160051c810160208510612b2f575b601f830160051c82018110612b235750506129f5565b60008155600101612b0d565b5080612b0d565b60ff600619830111610d305760008051602061536f833981519152916129046006198201926119cd565b6001830154612b7a906001600160a01b03166114af61495a565b612635565b015190508880612541565b906003840160005260206000209160005b601f1985168110612be15750918391600193600395601f19811610612bc9575b505050811b01910155612556565b015160001983861b60f8161c19169055888080612bbb565b91926020600181928685015181550194019201612b9b565b600384016000526020600020601f840160051c810160208510612c39575b601f830160051c82018110612c2d575050612525565b60008155600101612c17565b5080612c17565b60405162461bcd60e51b815260206004820152600e60248201526d496e76616c696420726174696e6760901b6044820152606490fd5b50600560ff86161115612429565b3461024d57600036600319011261024d573360005260046020526121f660ff60406000205416604051918291826143df565b3461024d57600036600319011261024d5733600052600460205260ff60406000205416600381101561048657612cec90156143f2565b3360005260046020526040600020600160ff19825416179055612d0e33614fd8565b6110fe336152a9565b3461024d57602036600319011261024d576001600160a01b03612d38614113565b1660005260096020526040600020600960005260205260206040600020541515604051908152f35b3461024d5760208060031936011261024d576004359081600052600b8152604060002091600b83019081549160ff831660098110156104865760030361300457612dbe612db6600487015460058801549061452d565b4210156145b8565b600660ff198094161790556001928385019460018060a01b0386612e0e828099541660405190612ded8261423e565b601082526f1ddbdc9ad95c97d858985b991bdb995960821b878301526151e1565b541693612e196148d7565b908560005260088452604060002060405190612e34826141ed565b600082528582018781526040830191428352606084019586528054600160401b8110156103fe57612e69918c8201815561448b565b939093610e075751600d8110156104865760ff6003958554169116178355518983015551600282015501905180519060018060401b0382116103fe578190612eb184546141b3565b601f8111612fb1575b508590601f8311600114612f4e57600092612f43575b5050600019600383901b1c191690871b1790555b836000526009825260406000206000805282526040600020928354958601809611610d3057600080809360028a838a60008051602061534f8339815191526110fe9a83998f8e55604051908152a3825416910154905af1610b8a6145f0565b015190508980612ed0565b90899350601f1983169185600052876000209260005b89828210612f9b5750508411612f82575b505050811b019055612ee4565b015160001960f88460031b161c19169055898080612f75565b8385015186558d97909501949384019301612f64565b9091508360005285600020601f840160051c810191878510612ffa575b84939291601f8c920160051c01915b828110612feb575050612eba565b600081558594508b9101612fdd565b9091508190612fce565b60405162461bcd60e51b815260048101859052600f60248201526e4e6f7420696e2070726f677265737360881b6044820152606490fd5b3461024d5760208060031936011261024d57600435600052600b81526040600020336000526004825260ff60406000205416600381101561048657600261308291146144f4565b600b81019081549060ff82166009811015610486576001036131715780546001600160a01b03908116331461313657600182019081549081166131015760029495506130e26130da600385015460058601549061452d565b42111561453a565b6001600160a01b03191633179055426009919091015560ff1916179055005b60405162461bcd60e51b815260048101879052600d60248201526c20b63932b0b23c903a30b5b2b760991b6044820152606490fd5b60405162461bcd60e51b815260048101869052601360248201527221b0b73737ba103a30b5b29037bbb7103537b160691b6044820152606490fd5b60405162461bcd60e51b815260048101859052600a602482015269139bdd08199d5b99195960b21b6044820152606490fd5b3461024d576131b1366143ad565b6000828152600b6020526040902080546001600160a01b0316903382148015613652575b6131de90614e1f565b600b8101805460ff811660098110156104865760048114908115613647575b50156136065760079060ff19161790556001808060a01b039101541683600052600560205260406000209261323960ff600b8601541615614e5a565b600a8401546135c8578484556001840180546001600160a01b031916331790558051906001600160401b0382116103fe57819061327960028701546141b3565b601f8111613575575b50602090601f8311600114613508576000926134fd575b50508160011b916000199060031b1c19161760028401555b61012c4201804211610d3057600a8401556040516020810190428252446040820152856060820152606081526132e6816141ed565b519020916002546132f68161444a565b9160009360005b83811061348b5750505050600582106000146134835760ff8216915b60ff8316801580158581613477575b50613463575b505061333f60ff849796971661444a565b936133498261444a565b9260005b83811061344257505060005b60ff8516811061340b5787878760ff815116600984019060ff19825416179055600460009301925b815160ff8216908110156133bc576133b791906119f8906001600160a01b03906133ab90866144a7565b5116611dcc8388614eaa565b613381565b8360008051602061532f833981519152611ede8560405191829133867f84a477df8a28a4276ca6dee4458a06c3015f30c477d9c949ede4e13ff8a552b4600080a3602083526020830190614eba565b61343860ff91611f26611f2060409b9a9b51602081019087825284604082015260408152611f0d81614223565b9050969596613359565b96979661345b906001600160a01b03611fa582856144a7565b97969761334d565b90919350610d30576000190191868061332e565b60019150161589613328565b600591613319565b6134948161528e565b905460039190911b1c6001600160a01b031683811415806134f3575b806134e4575b6134ca575b506134c59061447c565b6132fd565b866134dd91611f826134c59499896144a7565b95906134bb565b506134ee8161526e565b6134b6565b50828114156134b0565b015190508680613299565b600287016000908152602081209350601f198516905b81811061355d5750908460019594939210613544575b505050811b0160028401556132b1565b015160001960f88460031b161c19169055868080613534565b9293602060018192878601518155019501930161351e565b909150600286016000526020600020601f840160051c8101602085106135c1575b90849392915b601f830160051c820181106135b2575050613282565b6000815585945060010161359c565b5080613596565b60405162461bcd60e51b8152602060048201526016602482015275111a5cdc1d5d1948185b1c9958591e481c985a5cd95960521b6044820152606490fd5b60405162461bcd60e51b8152602060048201526019602482015278496e76616c696420737461746520666f72206469737075746560381b6044820152606490fd5b6003915014876131fd565b5060018101546001600160a01b031633146131d5565b3461024d57602036600319011261024d576004356000908152600560205260409020805460018201546001600160a01b0316916121f66136aa6002830161427c565b6136b66003840161427c565b9260ff6136fc6009830154956136ee600b600a860154950154956040519a8b9a8b5260208b01526101408060408c01528a0190614173565b9088820360608a0152614173565b948181166080880152818160081c1660a088015260101c1660c086015260e085015260ff8116151561010085015260ff61012085019160081c1661433e565b3461024d57602036600319011261024d576001600160a01b0361375c614113565b166000526000602052602060ff60406000205416604051908152f35b3461024d57600036600319011261024d57602060405160788152f35b3461024d57600036600319011261024d576020600a54604051908152f35b3461024d57602036600319011261024d576001600160a01b036137d3614113565b16600052600d6020526020604060002054604051908152f35b3461024d57600036600319011261024d57602060405161012c8152f35b3461024d57604036600319011261024d57613822614129565b600435600052600660205260406000209060018060a01b0316600052602052602060ff604060002054166040519015158152f35b3461024d57602036600319011261024d576020613879613874614113565b61526e565b6040519015158152f35b3461024d57600036600319011261024d57602060405160008152f35b3461024d57604036600319011261024d576001600160a01b036138c0614113565b16600052600960205260406000206024356000526020526020604060002054604051908152f35b3461024d57602036600319011261024d57600435600052600c602052604060002060018060a01b03906121f6828254169160ff61392b60026001840154930161427c565b9160405195869586528116602086015260a01c166040840152608060608401526080830190614173565b3461024d57600036600319011261024d57602060405160058152f35b3461024d57602036600319011261024d576001600160a01b03613992614113565b16600052600e6020526020604060002054604051908152f35b3461024d57600036600319011261024d5733600052600460205260ff604060002054166003811015610486576139e190156143f2565b3360005260046020526040600020600260ff19825416179055612d0e33614fd8565b3461024d57602036600319011261024d576110fe6004356149c1565b3461024d57602036600319011261024d57600435600052600b602052604060002060018060a01b0390818154169160018201541690600281015490600381015491613ae36004830154613ad56005850154613a7c6006870161427c565b90613a896007880161427c565b9360088801549860098901549760ff600b600a8c01549b0154169b60206040519e8f908152015260408d015260608c015260808b015260a08a01526101808060c08b0152890190614173565b9087820360e0890152614173565b9261010086015261012085015261014084015260098210156104865782916101608301520390f35b3461024d5760208060031936011261024d5760a0604051613b2b81614208565b36903760043560005260058082526004604060002001916040519283826000915b858310613b945750505050613b6083614208565b60405192600090845b848310613b755760a086f35b81516001600160a01b0316815260019290920191908301908301613b69565b83546001600160a01b031681526001938401939290920191849101613b4c565b3461024d57604036600319011261024d5760248035801515906004359082810361024d5781600052602090600b825260ff80600b60406000200154166009811015613e5e576007613c059114614ef7565b8360005260058352604060002091600a8301548015613e2657613c2e83600b8601541615614e5a565b421015613dec57846000526006845260406000203360005284528160406000205416613db8576000809360098101946004858754169201905b8286821610613d7a575b50505015613d3f57847ff2913dbe661ee2acc4a046d8fbcdc792373bda34c41c6086484b5345e5785e5f95969750600052600684526040600020336000528452604060002060ff199060018282541617905586600052600785526040600020336000528552604060002090815416838916179055600014613d185761ff00613cff8354928360081c16614e99565b60081b169061ff0019161790555b6040519384523393a3005b62ff0000613d2c8354928360101c16614e99565b60101b169062ff00001916179055613d0d565b60405162461bcd60e51b815260048101859052601481890152732737ba10309039b2b632b1ba32b2103b37ba32b960611b6044820152606490fd5b613d848183614eaa565b905460039190911b1c6001600160a01b03163314613daa57613da590614e99565b613c67565b505050506001888080613c71565b60405162461bcd60e51b815260048101859052600d818901526c105b1c9958591e481d9bdd1959609a1b6044820152606490fd5b60405162461bcd60e51b81526004810185905260138189015272159bdd1a5b99c81c195c9a5bd908195b991959606a1b6044820152606490fd5b60405162461bcd60e51b8152600481018690526011818a0152704e6f20646973707574652065786973747360781b6044820152606490fd5b86634e487b7160e01b60005260216004526000fd5b3461024d57602036600319011261024d57600435600052600b6020526040600020613eab60018060a01b0360018301541633146144f4565b600b810190815460ff8116916009831015610486576130da613ee491613ed560026003961461457d565b6005858201549101549061452d565b60ff1916179055005b3461024d5760208060031936011261024d576001600160a01b03613f0f614113565b16600052600881526040600020805490613f2882614433565b91613f366040519384614259565b808352613f4281614433565b90848401601f19809301368237613f588261444a565b613f618361444a565b92613f6b81614433565b95613f796040519788614259565b81875285613f8683614433565b0160005b81811061410457505060005b82811061406b57505050604051956080870190608088525180915260a08701929060005b8181106140445750505081613fd99187613fe79594038989015261413f565b90858203604087015261413f565b93838503606085015282519081865280860181808460051b8901019501936000975b8489106140165787870388f35b9091929394958480614032838686600196030188528a51614173565b98019401980197919094939294614009565b909193849996995190600d8210156104865790815295989589019389019190600101613fba565b60ff61407a82849c999c61448b565b50541690614088818b6144a7565b91600d811015610486576140fc925260016140a3828561448b565b5001546140b082876144a7565b5260026140bd828561448b565b5001546140ca82896144a7565b526140e160036140da838661448b565b500161427c565b6140eb828b6144a7565b526140f6818a6144a7565b5061447c565b989598613f96565b60608982018c01528a01613f8a565b600435906001600160a01b038216820361024d57565b602435906001600160a01b038216820361024d57565b90815180825260208080930193019160005b82811061415f575050505090565b835185529381019392810192600101614151565b919082519283825260005b84811061419f575050826000602080949584010152601f8019910116010190565b60208183018101518483018201520161417e565b90600182811c921680156141e3575b60208310146141cd57565b634e487b7160e01b600052602260045260246000fd5b91607f16916141c2565b608081019081106001600160401b038211176103fe57604052565b60a081019081106001600160401b038211176103fe57604052565b606081019081106001600160401b038211176103fe57604052565b604081019081106001600160401b038211176103fe57604052565b601f909101601f19168101906001600160401b038211908210176103fe57604052565b9060405191826000825492614290846141b3565b9081845260019485811690816000146142ff57506001146142bc575b50506142ba92500383614259565b565b9093915060005260209081600020936000915b8183106142e75750506142ba935082010138806142ac565b855488840185015294850194879450918301916142cf565b9150506142ba94506020925060ff191682840152151560051b82010138806142ac565b3461024d57600036600319011261024d57602060405160648152f35b9060048210156104865752565b6001600160401b0381116103fe57601f01601f191660200190565b81601f8201121561024d5780359061437d8261434b565b9261438b6040519485614259565b8284526020838301011161024d57816000926020809301838601378301015290565b90604060031983011261024d5760043591602435906001600160401b03821161024d576143dc91600401614366565b90565b9190602083019260038210156104865752565b156143f957565b60405162461bcd60e51b8152602060048201526012602482015271105b1c9958591e481c9959da5cdd195c995960721b6044820152606490fd5b6001600160401b0381116103fe5760051b60200190565b9061445482614433565b6144616040519182614259565b8281528092614472601f1991614433565b0190602036910137565b6000198114610d305760010190565b80548210156120b55760005260206000209060021b0190600090565b80518210156120b55760209160051b010190565b156144c257565b60405162461bcd60e51b815260206004820152600a602482015269139bdd0818db1a595b9d60b21b6044820152606490fd5b156144fb57565b60405162461bcd60e51b815260206004820152600a6024820152692737ba103bb7b935b2b960b11b6044820152606490fd5b91908201809211610d3057565b1561454157565b60405162461bcd60e51b815260206004820152601460248201527314dd185c9d081dda5b991bddc8195e1c1a5c995960621b6044820152606490fd5b1561458457565b60405162461bcd60e51b815260206004820152600c60248201526b139bdd081858d8d95c1d195960a21b6044820152606490fd5b156145bf57565b60405162461bcd60e51b8152602060048201526009602482015268546f6f206561726c7960b81b6044820152606490fd5b3d1561461b573d906146018261434b565b9161460f6040519384614259565b82523d6000602084013e565b606090565b1561462757565b60405162461bcd60e51b815260206004820152600d60248201526c1499599d5b990819985a5b1959609a1b6044820152606490fd5b60409182519261466b84614223565b602384526020927f43616e63656c6c6564206a6f6220616674657220776f726b657220616363657084860152621d195960ea1b8286015260018060a01b0316936000858152600885528281209183516146c3816141ed565b6008815286810186815285820190428252606083019384528554600160401b8110156148c3576146fa90600197888201815561448b565b9390936148af5751600d81101561489b57835460ff191660ff91909116178355518583015551600282015590518051600390920191906001600160401b03821161488757819061474a84546141b3565b601f8111614837575b508890601f83116001146147d85785926147cd575b5050600019600383901b1c191690841b1790555b858152600985528281206008825285528281209081549283018093116147b9575055519081526008929160008051602061534f83398151915291a3565b634e487b7160e01b81526011600452602490fd5b015190503880614768565b8486528986208794509190601f198416875b8c8282106148215750508411614808575b505050811b01905561477c565b015160001960f88460031b161c191690553880806147fb565b8385015186558a979095019493840193016147ea565b909150838552888520601f840160051c8101918a851061487d575b84939291601f89920160051c01915b82811061486f575050614753565b878155859450889101614861565b9091508190614852565b634e487b7160e01b84526041600452602484fd5b634e487b7160e01b86526021600452602486fd5b634e487b7160e01b86526004869052602486fd5b634e487b7160e01b86526041600452602486fd5b6040516148e381614223565b602581527f4163636570746564206f7220696e2d70726f6772657373206a6f62206162616e602082015264191bdb995960da1b604082015290565b1561492557565b60405162461bcd60e51b815260206004820152600d60248201526c139bdd081cdd589b5a5d1d1959609a1b6044820152606490fd5b604051906149678261423e565b600d82526c1a9bd897d8dbdb5c1b195d1959609a1b6020830152565b1561498a57565b60405162461bcd60e51b815260206004820152600f60248201526e151c985b9cd9995c8819985a5b1959608a1b6044820152606490fd5b90600091808352602091600b835260409182852060018060a01b0390818154166149ec8133146144bb565b600b820180546009929060ff811684811015614d755715614db8575081549060ff82169184831015614d75576001809314614d8957505081549160ff831684811015614d7557600214614a7b57885162461bcd60e51b8152600481018b9052601b60248201527a43616e6e6f742063616e63656c206174207468697320737461676560281b6044820152606490fd5b600660ff9a9496989a9993959799198096161790558686541693614a9f898661465c565b848b52858452828b2060088c5284526005838c20541015614ae7575b505050505050614ae08580806142ba9798868654166002870154905af16110f86145f0565b541661465c565b848b52858452828b20868c528452828b2054614abb57825190614b098261423e565b601c82527b233630b3b3b2b21030b9903837ba32b73a34b0b61039b1b0b6b6b2b960211b85830152858c5260088552838c208c855192614b48846141ed565b898452878401918252428785019081526060850195865283549093600160401b821015614d5f5790614b7e91888201815561448b565b949094614d4a575190600d821015614d3557845460ff9092169116178355518483015551600282015590518051600390920191906001600160401b038211614d21578c8291614bcd85546141b3565b88601f8211614cc9575b50508791601f8411600114614c6a5792614c5f575b5050600019600383901b1c191690831b1790555b838a52848352818a20858b528352818a208054918201809211614c4b57926142ba999a949260008051602061534f83398151915292614ae097955551858152a3959438808080614abb565b634e487b7160e01b8b52601160045260248bfd5b015190503880614bec565b9190869450601f198416868452898420935b8a828210614cb35750508411614c9a575b505050811b019055614c00565b015160001960f88460031b161c19169055388080614c8d565b8385015186558997909501949384019301614c7c565b9193509185815220601f840160051c810191888510614d17575b918f92859492601f89920160051c01915b828110614d0357505088614bd7565b809294919395505501918e91868594614cf4565b9091508190614ce3565b634e487b7160e01b8d52604160045260248dfd5b50634e487b7160e01b8f52602160045260248ffd5b50634e487b7160e01b8f5260048f905260248ffd5b5050634e487b7160e01b8f52604160045260248ffd5b634e487b7160e01b8c52602160045260248cfd5b6142ba9a508b995089989b9750879650600294506006919593925060ff19161790550154905af16110f86145f0565b60ff191660061790915550939650505050505050565b6001600160a01b03166000908152600e6020526040812054156143dc57600d6020526040812054600e6020526040822054918215614e0b57500490565b634e487b7160e01b81526012600452602490fd5b15614e2657565b60405162461bcd60e51b815260206004820152600c60248201526b139bdd081a5b9d9bdb1d995960a21b6044820152606490fd5b15614e6157565b60405162461bcd60e51b815260206004820152601060248201526f105b1c9958591e481c995cdbdb1d995960821b6044820152606490fd5b60ff1660ff8114610d305760010190565b60058210156120b5570190600090565b90815180825260208080930193019160005b828110614eda575050505090565b83516001600160a01b031685529381019392810192600101614ecc565b15614efe57565b60405162461bcd60e51b815260206004820152600c60248201526b139bdd08191a5cdc1d5d195960a21b6044820152606490fd5b15614f3957565b60405162461bcd60e51b815260206004820152600a6024820152694e6f206469737075746560b01b6044820152606490fd5b60ff166002019060ff8211610d3057565b91908203918211610d3057565b60405190614f968261423e565b600c82526b6c6f73745f6469737075746560a01b6020830152565b60405190614fbe8261423e565b600b82526a776f6e5f6469737075746560a81b6020830152565b6001600160a01b031660008181526001602052604081205460ff166150475780827f5d95448edae7bcc3f04ceed898bf2926c2e56c8de7c6a57d3b90539b1ff037a69252806020526040812060ff199060648282541617905560016020526001604083209182541617905580a2565b60405162461bcd60e51b8152602060048201526013602482015272105b1c9958591e481a5b9a5d1a585b1a5e9959606a1b6044820152606490fd5b60ff6143dc9493816060941683521660208201528160408201520190614173565b6001600160a01b03166000818152602081905260408120549192909160ff16906005820161ffff808211615158576064908216111561511e57509061511960008051602061536f833981519152939260406064945b878152806020522060ff851660ff1982541617905560405193849384615082565b0390a2565b60ff81116151445760008051602061536f833981519152939291604061511992946150f8565b634e487b7160e01b84526011600452602484fd5b634e487b7160e01b85526011600452602485fd5b6001600160a01b03166000818152602081905260408120549192909160ff1690600a820161ffff808211615158576064908216111561511e57509061511960008051602061536f83398151915293926040606494878152806020522060ff851660ff1982541617905560405193849384615082565b6001600160a01b03166000818152602081905260408120549192909160ff1690600a821161524357906151198392604060008051602061536f8339815191529594878152806020522060ff851660ff1982541617905560405193849384615082565b600919820160ff81116151445760008051602061536f833981519152939291604061511992946150f8565b60018060a01b03166000526000602052606460ff60406000205416101590565b6002548110156120b557600260005260206000200190600090565b6001600160a01b03811660008181526003602052604081205490929060ff16156152d257505050565b600254600160401b811015614887576040939291611dcc8260016152f9940160025561528e565b8152600360205220805460ff19166001179055565b8115615318570690565b634e487b7160e01b600052601260045260246000fdfeaaf49c3b93c6f3a66b3ad89750cfdbb3fe0be786559ef1298f6e6cb977566337d4df0cb969b99d25f121a3e9c7f32d8fcc5a0d782408695f68de9493db8cc177bbf5ee5eee34326c6c2d38c9b7ceeb7a8e3ee460657a93dd17fac3e82b141d57a26469706673582212208edb6488a3a9193fd296d40e65637f87bdb2ee772109ae47b1f4ab1bbf6a6a9964736f6c63430008140033",
  "linkReferences": {},
  "deployedLinkReferences": {}
}