{
  "_format": "hh-sol-artifact-1",
  "contractName": "GigStamp",
  "sourceName": "contracts/GigStamp.sol",
  "abi": [
    {
      "anonymous": false,
      "inputs": [
        {
          "indexed": true,
          "internalType": "address",
          "name": "user",
          "type": "address"
        },
        {
          "indexed": true,
          "internalType": "enum BadgeManager.BadgeType",
          "name": "badgeType",
          "type": "uint8"
        },
        {
          "indexed": false,
          "internalType": "uint256",
          "name": "jobId",
          "type": "uint256"
        }
      ],
      "name": "BadgeAwarded",
      "type": "event"
    },
    {
      "anonymous": false,
      "inputs": [
        {
          "indexed": true,
          "internalType": "uint256",
          "name": "jobId",
          "type": "uint256"
        },
        {
          "indexed": true,
          "internalType": "address",
          "name": "responder",
          "type": "address"
        }
      ],
      "name": "CounterEvidenceSubmitted",
      "type": "event"
    },
    {
      "anonymous": false,
      "inputs": [
        {
          "indexed": true,
          "internalType": "uint256",
          "name": "jobId",
          "type": "uint256"
        },
        {
          "indexed": true,
          "internalType": "address",
          "name": "initiator",
          "type": "address"
        }
      ],
      "name": "DisputeRaised",
      "type": "event"
    },
    {
      "anonymous": false,
      "inputs": [
        {
          "indexed": true,
          "internalType": "uint256",
          "name": "jobId",
          "type": "uint256"
        },
        {
          "indexed": false,
          "internalType": "bool",
          "name": "workerWon",
          "type": "bool"
        }
      ],
      "name": "DisputeResolved",
      "type": "event"
    },
    {
      "anonymous": false,
      "inputs": [
        {
          "indexed": true,
          "internalType": "address",
          "name": "user",
          "type": "address"
        },
        {
          "indexed": false,
          "internalType": "uint8",
          "name": "oldScore",
          "type": "uint8"
        },
        {
          "indexed": false,
          "internalType": "uint8",
          "name": "newScore",
          "type": "uint8"
        },
        {
          "indexed": false,
          "internalType": "string",
          "name": "reason",
          "type": "string"
        }
      ],
      "name": "ScoreChanged",
      "type": "event"
    },
    {
      "anonymous": false,
      "inputs": [
        {
          "indexed": true,
          "internalType": "address",
          "name": "user",
          "type": "address"
        }
      ],
      "name": "ScoreInitialized",
      "type": "event"
    },
    {
      "anonymous": false,
      "inputs": [
        {
          "indexed": true,
          "internalType": "uint256",
          "name": "jobId",
          "type": "uint256"
        },
        {
          "indexed": true,
          "internalType": "address",
          "name": "voter",
          "type": "address"
        },
        {
          "indexed": false,
          "internalType": "bool",
          "name": "voteForWorker",
          "type": "bool"
        }
      ],
      "name": "Voted",
      "type": "event"
    },
    {
      "anonymous": false,
      "inputs": [
        {
          "indexed": true,
          "internalType": "uint256",
          "name": "jobId",
          "type": "uint256"
        },
        {
          "indexed": false,
          "internalType": "address[]",
          "name": "voters",
          "type": "address[]"
        }
      ],
      "name": "VoterSelected",
      "type": "event"
    },
    {
      "inputs": [],
      "name": "APPROVE_TIMEOUT",
      "outputs": [
        {
          "internalType": "uint256",
          "name": "",
          "type": "uint256"
        }
      ],
      "stateMutability": "view",
      "type": "function"
    },
    {
      "inputs": [],
      "name": "INIT_SCORE",
      "outputs": [
        {
          "internalType": "uint8",
          "name": "",
          "type": "uint8"
        }
      ],
      "stateMutability": "view",
      "type": "function"
    },
    {
      "inputs": [],
      "name": "MAX_SCORE",
      "outputs": [
        {
          "internalType": "uint8",
          "name": "",
          "type": "uint8"
        }
      ],
      "stateMutability": "view",
      "type": "function"
    },
    {
      "inputs": [],
      "name": "MIN_SCORE",
      "outputs": [
        {
          "internalType": "uint8",
          "name": "",
          "type": "uint8"
        }
      ],
      "stateMutability": "view",
      "type": "function"
    },
    {
      "inputs": [],
      "name": "SCAM_THRESHOLD",
      "outputs": [
        {
          "internalType": "uint256",
          "name": "",
          "type": "uint256"
        }
      ],
      "stateMutability": "view",
      "type": "function"
    },
    {
      "inputs": [],
      "name": "SERIAL_CANCEL_THRESHOLD",
      "outputs": [
        {
          "internalType": "uint256",
          "name": "",
          "type": "uint256"
        }
      ],
      "stateMutability": "view",
      "type": "function"
    },
    {
      "inputs": [],
      "name": "VOTER_THRESHOLD",
      "outputs": [
        {
          "internalType": "uint8",
          "name": "",
          "type": "uint8"
        }
      ],
      "stateMutability": "view",
      "type": "function"
    },
    {
      "inputs": [],
      "name": "VOTE_DURATION",
      "outputs": [
        {
          "internalType": "uint256",
          "name": "",
          "type": "uint256"
        }
      ],
      "stateMutability": "view",
      "type": "function"
    },
    {
      "inputs": [
        {
          "internalType": "uint256",
          "name": "jobId",
          "type": "uint256"
        }
      ],
      "name": "acceptJob",
      "outputs": [],
      "stateMutability": "nonpayable",
      "type": "function"
    },
    {
      "inputs": [
        {
          "internalType": "uint256",
          "name": "jobId",
          "type": "uint256"
        },
        {
          "internalType": "uint8",
          "name": "_rating",
          "type": "uint8"
        },
        {
          "internalType": "string",
          "name": "_comment",
          "type": "string"
        }
      ],
      "name": "approveJob",
      "outputs": [],
      "stateMutability": "nonpayable",
      "type": "function"
    },
    {
      "inputs": [
        {
          "internalType": "uint256",
          "name": "jobId",
          "type": "uint256"
        }
      ],
      "name": "autoReleaseIfNotApproved",
      "outputs": [],
      "stateMutability": "nonpayable",
      "type": "function"
    },
    {
      "inputs": [
        {
          "internalType": "address",
          "name": "",
          "type": "address"
        },
        {
          "internalType": "uint256",
          "name": "",
          "type": "uint256"
        }
      ],
      "name": "badgeCount",
      "outputs": [
        {
          "internalType": "uint256",
          "name": "",
          "type": "uint256"
        }
      ],
      "stateMutability": "view",
      "type": "function"
    },
    {
      "inputs": [
        {
          "internalType": "uint256",
          "name": "jobId",
          "type": "uint256"
        }
      ],
      "name": "cancelIfNotStarted",
      "outputs": [],
      "stateMutability": "nonpayable",
      "type": "function"
    },
    {
      "inputs": [
        {
          "internalType": "uint256",
          "name": "jobId",
          "type": "uint256"
        }
      ],
      "name": "cancelIfNotSubmitted",
      "outputs": [],
      "stateMutability": "nonpayable",
      "type": "function"
    },
    {
      "inputs": [
        {
          "internalType": "uint256",
          "name": "jobId",
          "type": "uint256"
        }
      ],
      "name": "cancelJob",
      "outputs": [],
      "stateMutability": "nonpayable",
      "type": "function"
    },
    {
      "inputs": [
        {
          "internalType": "uint256",
          "name": "jobId",
          "type": "uint256"
        },
        {
          "internalType": "bool",
          "name": "voteForWorker",
          "type": "bool"
        }
      ],
      "name": "castVote",
      "outputs": [],
      "stateMutability": "nonpayable",
      "type": "function"
    },
    {
      "inputs": [
        {
          "internalType": "string",
          "name": "_jobHash",
          "type": "string"
        },
        {
          "internalType": "uint256",
          "name": "_pay",
          "type": "uint256"
        },
        {
          "internalType": "uint256",
          "name": "_startTime",
          "type": "uint256"
        },
        {
          "internalType": "uint256",
          "name": "_endTime",
          "type": "uint256"
        },
        {
          "internalType": "uint256",
          "name": "_tolerance",
          "type": "uint256"
        }
      ],
      "name": "createJob",
      "outputs": [],
      "stateMutability": "nonpayable",
      "type": "function"
    },
    {
      "inputs": [
        {
          "internalType": "uint256",
          "name": "",
          "type": "uint256"
        }
      ],
      "name": "disputes",
      "outputs": [
        {
          "internalType": "uint256",
          "name": "jobId",
          "type": "uint256"
        },
        {
          "internalType": "address",
          "name": "initiator",
          "type": "address"
        },
        {
          "internalType": "string",
          "name": "evidenceHash",
          "type": "string"
        },
        {
          "internalType": "string",
          "name": "counterHash",
          "type": "string"
        },
        {
          "internalType": "uint8",
          "name": "voterCount",
          "type": "uint8"
        },
        {
          "internalType": "uint8",
          "name": "votesForWorker",
          "type": "uint8"
        },
        {
          "internalType": "uint8",
          "name": "votesForClient",
          "type": "uint8"
        },
        {
          "internalType": "uint256",
          "name": "deadline",
          "type": "uint256"
        },
        {
          "internalType": "bool",
          "name": "resolved",
          "type": "bool"
        },
        {
          "internalType": "bool",
          "name": "workerWon",
          "type": "bool"
        }
      ],
      "stateMutability": "view",
      "type": "function"
    },
    {
      "inputs": [
        {
          "internalType": "uint256",
          "name": "",
          "type": "uint256"
        }
      ],
      "name": "feedbacks",
      "outputs": [
        {
          "internalType": "address",
          "name": "client",
          "type": "address"
        },
        {
          "internalType": "address",
          "name": "worker",
          "type": "address"
        },
        {
          "internalType": "uint8",
          "name": "rating",
          "type": "uint8"
        },
        {
          "internalType": "string",
          "name": "comment",
          "type": "string"
        }
      ],
      "stateMutability": "view",
      "type": "function"
    },
    {
      "inputs": [
        {
          "internalType": "uint256",
          "name": "jobId",
          "type": "uint256"
        }
      ],
      "name": "fundJob",
      "outputs": [],
      "stateMutability": "payable",
      "type": "function"
    },
    {
      "inputs": [
        {
          "internalType": "address",
          "name": "user",
          "type": "address"
        },
        {
          "internalType": "enum BadgeManager.BadgeType",
          "name": "badgeType",
          "type": "uint8"
        }
      ],
      "name": "getBadgeCount",
      "outputs": [
        {
          "internalType": "uint256",
          "name": "",
          "type": "uint256"
        }
      ],
      "stateMutability": "view",
      "type": "function"
    },
    {
      "inputs": [
        {
          "internalType": "address",
          "name": "user",
          "type": "address"
        }
      ],
      "name": "getBadges",
      "outputs": [
        {
          "internalType": "enum BadgeManager.BadgeType[]",
          "name": "types",
          "type": "uint8[]"
        },
        {
          "internalType": "uint256[]",
          "name": "jobIds",
          "type": "uint256[]"
        },
        {
          "internalType": "uint256[]",
          "name": "timestamps",
          "type": "uint256[]"
        },
        {
          "internalType": "string[]",
          "name": "notes",
          "type": "string[]"
        }
      ],
      "stateMutability": "view",
      "type": "function"
    },
    {
      "inputs": [
        {
          "internalType": "uint256",
          "name": "jobId",
          "type": "uint256"
        }
      ],
      "name": "getDisputeVoters",
      "outputs": [
        {
          "internalType": "address[5]",
          "name": "",
          "type": "address[5]"
        }
      ],
      "stateMutability": "view",
      "type": "function"
    },
    {
      "inputs": [],
      "name": "getMyRole",
      "outputs": [
        {
          "internalType": "enum Auth.Role",
          "name": "",
          "type": "uint8"
        }
      ],
      "stateMutability": "view",
      "type": "function"
    },
    {
      "inputs": [
        {
          "internalType": "address",
          "name": "worker",
          "type": "address"
        }
      ],
      "name": "getRating",
      "outputs": [
        {
          "internalType": "uint256",
          "name": "",
          "type": "uint256"
        }
      ],
      "stateMutability": "view",
      "type": "function"
    },
    {
      "inputs": [
        {
          "internalType": "uint256",
          "name": "jobId",
          "type": "uint256"
        }
      ],
      "name": "getVoteCount",
      "outputs": [
        {
          "internalType": "uint8",
          "name": "forWorker",
          "type": "uint8"
        },
        {
          "internalType": "uint8",
          "name": "forClient",
          "type": "uint8"
        }
      ],
      "stateMutability": "view",
      "type": "function"
    },
    {
      "inputs": [
        {
          "internalType": "uint256",
          "name": "",
          "type": "uint256"
        },
        {
          "internalType": "address",
          "name": "",
          "type": "address"
        }
      ],
      "name": "hasVoted",
      "outputs": [
        {
          "internalType": "bool",
          "name": "",
          "type": "bool"
        }
      ],
      "stateMutability": "view",
      "type": "function"
    },
    {
      "inputs": [
        {
          "internalType": "address",
          "name": "user",
          "type": "address"
        }
      ],
      "name": "isEligibleVoter",
      "outputs": [
        {
          "internalType": "bool",
          "name": "",
          "type": "bool"
        }
      ],
      "stateMutability": "view",
      "type": "function"
    },
    {
      "inputs": [
        {
          "internalType": "address",
          "name": "user",
          "type": "address"
        }
      ],
      "name": "isScammer",
      "outputs": [
        {
          "internalType": "bool",
          "name": "",
          "type": "bool"
        }
      ],
      "stateMutability": "view",
      "type": "function"
    },
    {
      "inputs": [],
      "name": "jobCount",
      "outputs": [
        {
          "internalType": "uint256",
          "name": "",
          "type": "uint256"
        }
      ],
      "stateMutability": "view",
      "type": "function"
    },
    {
      "inputs": [
        {
          "internalType": "uint256",
          "name": "",
          "type": "uint256"
        }
      ],
      "name": "jobs",
      "outputs": [
        {
          "internalType": "address",
          "name": "client",
          "type": "address"
        },
        {
          "internalType": "address",
          "name": "worker",
          "type": "address"
        },
        {
          "internalType": "uint256",
          "name": "pay",
          "type": "uint256"
        },
        {
          "internalType": "uint256",
          "name": "startTime",
          "type": "uint256"
        },
        {
          "internalType": "uint256",
          "name": "endTime",
          "type": "uint256"
        },
        {
          "internalType": "uint256",
          "name": "tolerance",
          "type": "uint256"
        },
        {
          "internalType": "string",
          "name": "jobHash",
          "type": "string"
        },
        {
          "internalType": "string",
          "name": "resultHash",
          "type": "string"
        },
        {
          "internalType": "uint256",
          "name": "fundedAt",
          "type": "uint256"
        },
        {
          "internalType": "uint256",
          "name": "acceptedAt",
          "type": "uint256"
        },
        {
          "internalType": "uint256",
          "name": "submittedAt",
          "type": "uint256"
        },
        {
          "internalType": "enum JobStatus",
          "name": "status",
          "type": "uint8"
        }
      ],
      "stateMutability": "view",
      "type": "function"
    },
    {
      "inputs": [
        {
          "internalType": "uint256",
          "name": "jobId",
          "type": "uint256"
        },
        {
          "internalType": "string",
          "name": "evidenceHash",
          "type": "string"
        }
      ],
      "name": "raiseDispute",
      "outputs": [],
      "stateMutability": "nonpayable",
      "type": "function"
    },
    {
      "inputs": [
        {
          "internalType": "address",
          "name": "",
          "type": "address"
        }
      ],
      "name": "ratingCount",
      "outputs": [
        {
          "internalType": "uint256",
          "name": "",
          "type": "uint256"
        }
      ],
      "stateMutability": "view",
      "type": "function"
    },
    {
      "inputs": [],
      "name": "registerClient",
      "outputs": [],
      "stateMutability": "nonpayable",
      "type": "function"
    },
    {
      "inputs": [],
      "name": "registerWorker",
      "outputs": [],
      "stateMutability": "nonpayable",
      "type": "function"
    },
    {
      "inputs": [
        {
          "internalType": "address",
          "name": "",
          "type": "address"
        }
      ],
      "name": "reputationScore",
      "outputs": [
        {
          "internalType": "uint8",
          "name": "",
          "type": "uint8"
        }
      ],
      "stateMutability": "view",
      "type": "function"
    },
    {
      "inputs": [
        {
          "internalType": "uint256",
          "name": "jobId",
          "type": "uint256"
        }
      ],
      "name": "resolveDispute",
      "outputs": [],
      "stateMutability": "nonpayable",
      "type": "function"
    },
    {
      "inputs": [
        {
          "internalType": "address",
          "name": "",
          "type": "address"
        }
      ],
      "name": "roles",
      "outputs": [
        {
          "internalType": "enum Auth.Role",
          "name": "",
          "type": "uint8"
        }
      ],
      "stateMutability": "view",
      "type": "function"
    },
    {
      "inputs": [
        {
          "internalType": "uint256",
          "name": "jobId",
          "type": "uint256"
        }
      ],
      "name": "startWork",
      "outputs": [],
      "stateMutability": "nonpayable",
      "type": "function"
    },
    {
      "inputs": [
        {
          "internalType": "uint256",
          "name": "jobId",
          "type": "uint256"
        },
        {
          "internalType": "string",
          "name": "counterHash",
          "type": "string"
        }
      ],
      "name": "submitCounterEvidence",
      "outputs": [],
      "stateMutability": "nonpayable",
      "type": "function"
    },
    {
      "inputs": [
        {
          "internalType": "uint256",
          "name": "jobId",
          "type": "uint256"
        },
        {
          "internalType": "string",
          "name": "_resultHash",
          "type": "string"
        }
      ],
      "name": "submitWork",
      "outputs": [],
      "stateMutability": "nonpayable",
      "type": "function"
    },
    {
      "inputs": [
        {
          "internalType": "address",
          "name": "",
          "type": "address"
        }
      ],
      "name": "totalRating",
      "outputs": [
        {
          "internalType": "uint256",
          "name": "",
          "type": "uint256"
        }
      ],
      "stateMutability": "view",
      "type": "function"
    },
    {
      "inputs": [
        {
          "internalType": "uint256",
          "name": "",
          "type": "uint256"
        },
        {
          "internalType": "address",
          "name": "",
          "type": "address"
        }
      ],
      "name": "voteChoice",
      "outputs": [
        {
          "internalType": "bool",
          "name": "",
          "type": "bool"
        }
      ],
      "stateMutability": "view",
      "type": "function"
    }
  ],
  "bytecode": "0x6080806040523461001657614cb7908161001c8239f35b600080fdfe6080604052600436101561001257600080fd5b60003560e01c806303828e451461356c57806303a250f9146134b257806315373e3d146131f35780631732d6521461314a578063180aedf31461305e5780631dffa3dc14613042578063208082bf14612fea5780632404165e14612fb0578063247bc4a7146118ec5780632488b2ee14612f9457806327ff622314612f785780632bb8b0dc14612f0a5780632d59286514612ec257806340b8927014612ea65780634225e7f414612e795780634385963214612e2c5780634654ff0514612e0f5780634807632f14612dd55780634c5d8a0f14612db75780634f0db62214612d9b57806350d061cb14612d5e578063564a565d14612c8f5780635aef573c146126f957806363b2f3c9146125b257806366c910c8146124a557806369c04c441461245c5780636d9fb287146123fb5780636e3b47fc146123c9578063771dd58114611ad557806380fc9c0e14611aaa5780638721ba3f14611a585780638d22b8631461193757806399374642146118f15780639ec0164a146118ec578063b2c2f2e8146118ae578063c2b7b86814611018578063c5f8e29914610c66578063ca62fafd14610ae5578063cbf78ee6146106ff578063d0d2414214610491578063da8accf914610263578063e72f73a8146102475763fb468855146101f557600080fd5b346102425760403660031901126102425761020e6137a8565b600435600052600760205260406000209060018060a01b0316600052602052602060ff604060002054166040519015158152f35b600080fd5b3461024257600036600319011261024257602060405160038152f35b346102425761027136613a1f565b906000526020600b8152604060002090600161029960018060a01b0382850154163314613b7c565b600b83019360ff855416600981101561047b57600303610446576102c66004850154600586015490613bf0565b4211610409578051600785019390916001600160401b0383116103f3576102ed8554613832565b601f81116103aa575b5081601f84116001146103445750928293918392600094610339575b50501b916000199060031b1c19161790555b42600a9190910155805460ff19166004179055005b015192508780610312565b919083601f1981168760005284600020946000905b888383106103905750505010610377575b505050811b019055610324565b015160001960f88460031b161c1916905585808061036a565b858701518855909601959485019487935090810190610359565b8560005282600020601f850160051c8101918486106103e9575b601f0160051c019085905b8281106103dd5750506102f6565b600081550185906103cf565b90915081906103c4565b634e487b7160e01b600052604160045260246000fd5b60405162461bcd60e51b815260048101849052601560248201527414dd589b5a5d081dda5b991bddc8195e1c1a5c9959605a1b6044820152606490fd5b60405162461bcd60e51b815260048101849052600d60248201526c496e76616c696420737461746560981b6044820152606490fd5b634e487b7160e01b600052602160045260246000fd5b346102425761049f36613a1f565b81600052602090600b825260406000209060ff600b60018060a01b039384815416331480156106f0575b6104d290614799565b015416600981101561047b5760076104ea9114614834565b83600052600583526040600020600192838201541661050e600a830154151561486f565b61051f60ff600b84015416156147d4565b33146106ae576003019283549161053583613832565b61066d578051926001600160401b0384116103f35761055390613832565b601f8111610624575b5081601f84116001146105be57509282939183926000946105b3575b50501b916000199060031b1c19161790555b33907f7878f55c48613e960719430c5332344cefc8c552f6afc747476ff85169f618fe600080a3005b015192508680610578565b919083601f1981168760005284600020946000905b8883831061060a57505050106105f1575b505050811b01905561058a565b015160001960f88460031b161c191690558480806105e4565b8587015188559096019594850194879350908101906105d3565b8560005282600020601f850160051c810191848610610663575b601f0160051c019085905b82811061065757505061055c565b60008155018590610649565b909150819061063e565b60405162461bcd60e51b815260048101839052601960248201527810dbdd5b9d195c88185b1c9958591e481cdd589b5a5d1d1959603a1b6044820152606490fd5b60405162461bcd60e51b815260048101859052601a60248201527943616e6e6f7420636f756e746572206f776e206469737075746560301b6044820152606490fd5b506001810154851633146104c9565b346102425760a0366003190112610242576004356001600160401b0381116102425761072f9036906004016139d8565b33600052600460205260ff60406000205416600381101561047b5760016107569114613b43565b6040519061018082016001600160401b038111838210176103f3576040523382526000602083015260243560408301526044356060830152606435608083015260843560a083015260c08201526040516020810181811060018060401b038211176103f3576040526000815260e08201526000610100820152600061012082015260006101408201526000610160820152600a54600052600b60205260406000209060018060a01b038082511660018060a01b0319908185541617845560018401916020840151169082541617905560408101516002830155606081015160038301556080810151600483015560a0810151600583015560c081015191825160018060401b0381116103f35761086f6006830154613832565b601f8111610a9e575b506020601f8211600114610a305781929394600092610a25575b50508160011b916000199060031b1c19161760068201555b60e08201518051906001600160401b0382116103f3576108cd6007840154613832565b601f81116109da575b50602090601f83116001146109645791806101609492600b94600092610959575b50508160011b916000199060031b1c19161760078201555b61010084015160088201556101208401516009820155610140840151600a82015501910151600981101561047b5760ff80198354169116179055610954600a54613aee565b600a55005b0151905086806108f7565b906007840160005260206000209160005b601f19851681106109c25750926101609492600192600b9583601f198116106109a9575b505050811b01600782015561090f565b015160001960f88460031b161c19169055868080610999565b91926020600181928685015181550194019201610975565b600784016000526020600020601f840160051c81019160208510610a1b575b601f0160051c01905b818110610a0f57506108d6565b60008155600101610a02565b90915081906109f9565b015190508480610892565b6006830160005260206000209060005b601f1984168110610a865750600193949583601f19811610610a6d575b505050811b0160068201556108aa565b015160001960f88460031b161c19169055848080610a5d565b9091602060018192858a015181550193019101610a40565b600683016000526020600020601f830160051c810160208410610ade575b601f830160051c82018110610ad2575050610878565b60008155600101610abc565b5080610abc565b346102425760203660031901126102425760043580600052600b602052604060002090600b82019182549260ff8416600981101561047b576002610b299114613bb5565b610b46610b3f6003840154600585015490613bf0565b4211613bfd565b600660ff19809516179055610b82600080808060018060a01b039560028760018301541697825416910154905af1610b7c613c35565b50613c65565b60405192610b8f846138bd565b601b84527a1ddbdc9ad95c97d858d8d95c1d195917db9bdd17dcdd185c9d1959602a1b602085015281600052600060205260ff60406000205416938460051015600014610c23578291610c2195610c19600080516020614c62833981519152936000935b86600052600060205260406000209060ff861690825416179055604051938493846149a1565b0390a2613ca1565b005b60041985019160ff8311610c5057610c2195610c19600080516020614c6283398151915293869593610bf3565b634e487b7160e01b600052601160045260246000fd5b3461024257602080600319360112610242576004359081600052600b81526040600020600b81019081549260ff8416600981101561047b576004610caa9114613f5d565b600a82015460788101809111610c5057610cc690421015613bfd565b600560ff19948516811790935581546040516001600160a01b039391841690610cee816138bd565b601981527831b634b2b73a2fb4b3b737b932b22fb9bab136b4b9b9b4b7b760391b848201526000828152808552604090205460ff169060088211610ff157600080516020614c6283398151915291610d676000925b8560005260008852604060002060ff85168c825416179055604051938493846149a1565b0390a28281541692604051610d7b816138a2565b602681527f446964206e6f7420726573706f6e6420616674657220776f726b65722073756284820152651b5a5d1d195960d21b60408201528460005260088452604060002096604051610dcd8161386c565b8781528581018a81526040820190428252606083019485528a54600160401b8110156103f357610e049060019c8d82018155613afd565b939093610fdb5751600d81101561047b5760ff6003958554169116178355518a83015551600282015501905180519060018060401b0382116103f3578190610e4c8454613832565b601f8111610f8a575b508690601f8311600114610f2757600092610f1c575b5050600019600383901b1c191690881b1790555b83600052600983526040600020856000528352604060002090815493878501809511610c5057610f0660009889988998600080516020614c4283398151915285610c219e8c9b60029a55604051908152a385019183835416716a6f625f636f6d706c657465645f6175746f60701b60405192610efa846138bd565b60128452830152614a8b565b5416910154905af1610f16613c35565b50613fc2565b015190508a80610e6b565b908a9350601f1983169185600052886000209260005b8a828210610f745750508411610f5b575b505050811b019055610e7f565b015160001960f88460031b161c191690558a8080610f4e565b8385015186558e97909501949384019301610f3d565b9091508360005286600020601f84018a1c810191888510610fd1575b84939291601f8d92018c1c01915b828110610fc2575050610e55565b600081558594508c9101610fb4565b9091508190610fa6565b634e487b7160e01b600052600060045260246000fd5b60071982019160ff8311610c5057610d67600080516020614c628339815191529392610d43565b3461024257602036600319011261024257600435600052600b6020526040600020600b810160ff815416600981101561047b5760076110579114614834565b60043560005260056020526040600020600a8101549261107884151561486f565b600b8201549361108b60ff8616156147d4565b4210801590611883575b1561184b57600160098301549461ff0060ff8760101c1660ff8860081c161160081b169061ffff19161717600b83015560405160ff8560101c1660ff8660081c161181527f5a87909bff68caaaaf0b3fd9c74eeccc928832f879315e5c6fb7a73612f26c0c602060043592a260005b60ff60098401541660ff82161015611372576111238160048501614824565b91905491600435600052600660205260406000209260039360018060a01b038284871b1c1660005260205260ff6040600020541615611366576004356000526007602052604060002060018060a01b038284871b1c1660005260205260ff8860101c1660ff8960081c161160ff6040600020541615151460001461129a57604051916111ae836138bd565b600f83526e766f7465645f636f72726563746c7960881b602084015260018060a01b038282871b1c16600052600060205260ff604060002054169261ffff86850111610c505760648061ffff888701161160001461126d57600080516020614c628339815191529392916112689761125f92905b9390931b9390931c6001600160a01b031660008181526020819052604090819020805460ff191660ff8616179055519095909384939091846149a1565b0390a25b614813565b611104565b50919060ff86850111610c505761125f600080516020614c62833981519152938761126898870190611222565b604051916112a7836138bd565b600d83526c766f7465645f77726f6e676c7960981b602084015260018060a01b038282871b1c16600052600060205260ff60406000205416928386101560001461133657941b1c6001600160a01b0316600081815260208190526040808220805460ff1916905551611268959293600080516020614c62833981519152939192839261125f92909190846149a1565b919060ff600219850111610c505761125f600080516020614c628339815191529361126897600219870190611222565b50506112689150614813565b50828460ff199160088382541617905560ff808260101c169160081c16116000146115f45781546001600160a01b03906113b69082166113b06148a8565b90614b00565b8083541691604051906113c8826138bd565b6018825277131bdcdd081848191a5cdc1d5d1948185cc818db1a595b9d60421b60208301528360005260086020526040600020604051906114088261386c565b600782526020820160043581526040830191428352606084019586528054600160401b8110156103f35761144191600182018155613afd565b939093610fdb5751600d81101561047b5760ff600395855416911617835551600183015551600282015501905180519060018060401b0382116103f357819061148a8454613832565b601f81116115a1575b50602090601f831160011461153b57600092611530575b50508160011b916000199060031b1c19161790555b81600052600960205260406000206007600052602052604060002080549260018401809411610c5057610c21946002600095946007879694879695879655600080516020614c4283398151915260206040516004358152a360018301610f068282541661152a6148d0565b90614a8b565b0151905086806114aa565b6000858152602081209350601f198516905b8181106115895750908460019594939210611570575b505050811b0190556114bf565b015160001960f88460031b161c19169055868080611563565b9293602060018192878601518155019501930161154d565b909150836000526020600020601f840160051c810191602085106115ea575b90601f859493920160051c01905b8181106115db5750611493565b600081558493506001016115ce565b90915081906115c0565b6001820180546001600160a01b039182916116139083166113b06148a8565b54169160405190611623826138bd565b600e82526d4c6f73742061206469737075746560901b60208301528360005260086020526040600020604051906116598261386c565b600282526020820160043581526040830191428352606084019586528054600160401b8110156103f35761169291600182018155613afd565b939093610fdb5751600d81101561047b5760ff600395855416911617835551600183015551600282015501905180519060018060401b0382116103f35781906116db8454613832565b601f81116117f8575b50602090601f831160011461179257600092611787575b50508160011b916000199060031b1c19161790555b81600052600960205260406000206002600052602052604060002080549260018401809411610c5057610c219460026000959481879694879695879655600080516020614c4283398151915260206040516004358152a36117768184541661152a6148d0565b825416910154905af1610f16613c35565b0151905086806116fb565b6000858152602081209350601f198516905b8181106117e057509084600195949392106117c7575b505050811b019055611710565b015160001960f88460031b161c191690558680806117ba565b929360206001819287860151815501950193016117a4565b909150836000526020600020601f840160051c81019160208510611841575b90601f859493920160051c01905b81811061183257506116e4565b60008155849350600101611825565b9091508190611817565b60405162461bcd60e51b815260206004820152601060248201526f159bdd1a5b99c81b9bdd08195b99195960821b6044820152606490fd5b50600982015460ff8160101c1660ff8260081c16019060ff8211610c505760ff809116911614611095565b346102425760203660031901126102425760043560005260056020526040600981600020015460ff825191818160081c16835260101c166020820152f35b6139a1565b34610242576020366003190112610242576001600160a01b03611912613792565b16600052600460205261193360ff6040600020541660405191829182613a51565b0390f35b60208060031936011261024257600435600052600b81526040600020336000526004825260ff60406000205416600381101561047b5760016119799114613b43565b80546001600160a01b03163303611a2757600b81019081549060ff8216600981101561047b576119f457600281015434036119c0574260089091015560ff19166001179055005b60405162461bcd60e51b815260048101859052600c60248201526b15dc9bdb99c8185b5bdd5b9d60a21b6044820152606490fd5b60405162461bcd60e51b815260048101859052600b60248201526a139bdd0810dc99585d195960aa1b6044820152606490fd5b60405162461bcd60e51b81526004810183905260096024820152682737ba1037bbb732b960b91b6044820152606490fd5b3461024257604036600319011261024257611a71613792565b60243590600d8210156102425760018060a01b031660005260096020526040600020906000526020526020604060002054604051908152f35b34610242576020366003190112610242576020611acd611ac8613792565b614748565b604051908152f35b346102425760603660031901126102425760243560ff81168103610242576044356001600160401b03811161024257611b129036906004016139d8565b90600435600052600b60205260406000209160018060a01b03835416611b39813314613b43565b600b8401805460ff8116600981101561047b576004611b589114613f5d565b600160ff86161015806123bb575b156123855760ff19166005179055604051611b80816138a2565b602281527f52656c6961626c6520636c69656e74207769746820636c65616e20686973746f602082015261727960f01b6040820152816000526008602052604060002060405191611bd08361386c565b600b8352600435602084015242604084015260608301528054600160401b8110156103f357611c0491600182018155613afd565b919091610fdb57805190600d82101561047b5760609160ff801985541691161783556020810151600184015560408101516002840155015180519060018060401b0382116103f357611c596003840154613832565b601f811161233e575b50602090601f83116001146122cf5760039291600091836122c4575b50508160011b9160001990841b1c1916179101555b8060005260096020526040600020600b600052602052604060002090815491600183018311610c50576001600b93019055600080516020614c4283398151915260206040516004358152a3611d13604051611ced816138bd565b601381527231b634b2b73a2fb0b8383937bb32b22fb537b160691b6020820152336149c2565b600460ff831610611f9757600183018054611d729190611d3e906001600160a01b031661152a613f99565b54604051906001600160a01b0316611d55826138bd565b600b82526a676f6f645f726174696e6760a81b60208301526149c2565b600183015460405191906001600160a01b0316611d8e8361386c565b338352602080840191825260ff85166040808601918252606086019485526004356000908152600c909352909120935184546001600160a01b0319166001600160a01b03918216178555915160018501805492516001600160a81b0319909316919093161760a09190911b60ff60a01b16179055518051906001600160401b0382116103f357611e216002840154613832565b601f8111611f50575b50602090601f8311600114611ee2576002929160009183611ed7575b50508160011b916000199060031b1c1916179101555b60018060a01b03600183015416600052600d602052611e8460ff604060002092168254613bf0565b905560018060a01b03600182015416600052600e602052604060002080549160018301809311610c505760008080809386610c219655600260018060a01b03600183015416910154905af1610f16613c35565b015190508680611e46565b90601f198316916002850160005260206000209260005b818110611f3857509160019391856002969410611f1f575b505050811b01910155611e5c565b015160001960f88460031b161c19169055868080611f11565b92936020600181928786015181550195019301611ef9565b600284016000526020600020601f840160051c810160208510611f90575b601f830160051c82018110611f84575050611e2a565b60008155600101611f6e565b5080611f6e565b600260ff8316116122a5576001830154611fbc906001600160a01b031661152a613f99565b60018060a01b03600184015416604051611fd5816138bd565b600a8152696261645f726174696e6760b01b602082015281600052600060205260ff6040600020541690816007101560001461227b57600080516020614c62833981519152916120496000925b856000526000602052604060002060ff851660ff19825416179055604051938493846149a1565b0390a260018060a01b03600184015416604051612065816138bd565b601b81527a52656365697665642031206f722032207374617220726174696e6760281b60208201528160005260086020526040600020604051916120a88361386c565b60018352600435602084015242604084015260608301528054600160401b8110156103f3576120dc91600182018155613afd565b919091610fdb57805190600d82101561047b5760609160ff801985541691161783556020810151600184015560408101516002840155015180519060018060401b0382116103f3576121316003840154613832565b601f8111612234575b50602090601f83116001146121c55760039291600091836121ba575b50508160011b9160001990841b1c1916179101555b80600052600960205260406000206001600052602052604060002090815491600183018311610c505760018093019055600080516020614c4283398151915260206040516004358152a3611d72565b015190508880612156565b906003840160005260206000209160005b601f198516811061221c5750918391600193600395601f19811610612204575b505050811b0191015561216b565b015160001983861b60f8161c191690558880806121f6565b919260206001819286850151815501940192016121d6565b600384016000526020600020601f840160051c810160208510612274575b601f830160051c8201811061226857505061213a565b60008155600101612252565b5080612252565b60ff600619830111610c5057600080516020614c6283398151915291612049600619820192612022565b60018301546122bf906001600160a01b031661152a613f99565b611d72565b015190508880611c7e565b906003840160005260206000209160005b601f19851681106123265750918391600193600395601f1981161061230e575b505050811b01910155611c93565b015160001983861b60f8161c19169055888080612300565b919260206001819286850151815501940192016122e0565b600384016000526020600020601f840160051c81016020851061237e575b601f830160051c82018110612372575050611c62565b6000815560010161235c565b508061235c565b60405162461bcd60e51b815260206004820152600e60248201526d496e76616c696420726174696e6760901b6044820152606490fd5b50600560ff86161115611b66565b346102425760003660031901126102425733600052600460205261193360ff6040600020541660405191829182613a51565b346102425760003660031901126102425733600052600460205260ff60406000205416600381101561047b576124319015613a64565b3360005260046020526040600020600160ff19825416179055612453336148f7565b610c2133614bc8565b34610242576020366003190112610242576001600160a01b0361247d613792565b1660005260096020526040600020600960005260205260206040600020541515604051908152f35b346102425760203660031901126102425760043580600052600b6020526040600020600b81019182549060ff8216600981101561047b5760030361257b57600080808560028295896006610c21996125116125096004880154600589015490613bf0565b421015613bfd565b60ff19161790556001830180546040516001600160a01b039361256a9390928592612563918416612541826138bd565b601082526f1ddbdc9ad95c97d858985b991bdb995960821b6020830152614b00565b5416613ca1565b825416910154905af1610b7c613c35565b60405162461bcd60e51b815260206004820152600f60248201526e4e6f7420696e2070726f677265737360881b6044820152606490fd5b346102425760208060031936011261024257600435600052600b81526040600020336000526004825260ff60406000205416600381101561047b5760026125f99114613b7c565b600b81019081549060ff8216600981101561047b576001036126c75780546001600160a01b03908116331461268c5760018201908154908116612657576001600160a01b03191633179055426009919091015560ff19166002179055005b60405162461bcd60e51b815260048101879052600d60248201526c20b63932b0b23c903a30b5b2b760991b6044820152606490fd5b60405162461bcd60e51b815260048101869052601360248201527221b0b73737ba103a30b5b29037bbb7103537b160691b6044820152606490fd5b60405162461bcd60e51b815260048101859052600a602482015269139bdd08199d5b99195960b21b6044820152606490fd5b346102425761270736613a1f565b6000828152600b6020526040902080546001600160a01b0316903382148015612c79575b61273490614799565b600b8101805460ff8116600981101561047b5760048114908115612c6e575b5015612c2d5760079060ff19161790556001808060a01b03910154169083600052600560205260406000209261279060ff600b86015416156147d4565b600a840154612bef578484556001840180546001600160a01b031916331790558051906001600160401b0382116103f35781906127d06002870154613832565b601f8111612b9c575b50602090601f8311600114612b2f57600092612b24575b50508160011b916000199060031b1c19161760028401555b61012c4201804211610c5057600a84015560405160208101904282524460408201528560608201526060815261283d8161386c565b5190209160025461284d81613abc565b9260009260005b838110612ab2575050505060058110600014612aa75760ff8116909493945b61287f60ff8316613abc565b9361288982613abc565b9360005b838110612a7a57505060005b60ff841681106129b05787878760ff815116600984019060ff19825416179055600460009301925b815160ff82169081101561291b576129169190611263906001600160a01b03906128eb9086613b2f565b51166128f78388614824565b90919082549060031b9160018060a01b03809116831b921b1916179055565b6128c1565b50506040519033837f84a477df8a28a4276ca6dee4458a06c3015f30c477d9c949ede4e13ff8a552b4600080a36020820160208352815180915260206040840192019060005b81811061299157857faaf49c3b93c6f3a66b3ad89750cfdbb3fe0be786559ef1298f6e6cb97756633786860387a2005b82516001600160a01b0316845260209384019390920191600101612961565b6040979697516020810190838252826040820152604081526129d1816138a2565b5190209080840390848211610c5057808514612a64576129f8612a5a9260ff940682613bf0565b612a356001600160a01b03612a0d848b613b2f565b5116916001600160a01b03612a22828c613b2f565b5116612a2e858c613b2f565b5289613b2f565b526001600160a01b03612a488289613b2f565b5116612a54828a613b2f565b52613aee565b9050969596612899565b634e487b7160e01b600052601260045260246000fd5b969796612a9f906001600160a01b03612a938285613b2f565b5116612a548289613b2f565b97969761288d565b600590949394612873565b612abb81614bad565b905460039190911b1c6001600160a01b03168381141580612b1a575b80612b0b575b612af1575b50612aec90613aee565b612854565b85612b0491612a54612aec94988a613b2f565b9490612ae2565b50612b1581614b8d565b612add565b5082811415612ad7565b0151905086806127f0565b600287016000908152602081209350601f198516905b818110612b845750908460019594939210612b6b575b505050811b016002840155612808565b015160001960f88460031b161c19169055868080612b5b565b92936020600181928786015181550195019301612b45565b909150600286016000526020600020601f840160051c810160208510612be8575b90849392915b601f830160051c82018110612bd95750506127d9565b60008155859450600101612bc3565b5080612bbd565b60405162461bcd60e51b8152602060048201526016602482015275111a5cdc1d5d1948185b1c9958591e481c985a5cd95960521b6044820152606490fd5b60405162461bcd60e51b8152602060048201526019602482015278496e76616c696420737461746520666f72206469737075746560381b6044820152606490fd5b600391501487612753565b5060018101546001600160a01b0316331461272b565b34610242576020366003190112610242576004356000908152600560205260409020805460018201546001600160a01b03169160ff612cd0600283016138fb565b612cdc600384016138fb565b9282612d21600983015495612d13600b600a860154950154956040519a8b9a8b5260208b01526101408060408c01528a01906137f2565b9088820360608a01526137f2565b948181166080880152818160081c1660a088015260101c1660c086015260e0850152818116151561010085015260081c1615156101208301520390f35b34610242576020366003190112610242576001600160a01b03612d7f613792565b166000526000602052602060ff60406000205416604051908152f35b3461024257600036600319011261024257602060405160788152f35b34610242576000366003190112610242576020600a54604051908152f35b34610242576020366003190112610242576001600160a01b03612df6613792565b16600052600d6020526020604060002054604051908152f35b3461024257600036600319011261024257602060405161012c8152f35b3461024257604036600319011261024257612e456137a8565b600435600052600660205260406000209060018060a01b0316600052602052602060ff604060002054166040519015158152f35b34610242576020366003190112610242576020612e9c612e97613792565b614b8d565b6040519015158152f35b3461024257600036600319011261024257602060405160008152f35b34610242576040366003190112610242576001600160a01b03612ee3613792565b16600052600960205260406000206024356000526020526020604060002054604051908152f35b3461024257602036600319011261024257600435600052600c602052604060002060018060a01b0390611933828254169160ff612f4e6002600184015493016138fb565b9160405195869586528116602086015260a01c1660408401526080606084015260808301906137f2565b3461024257600036600319011261024257602060405160648152f35b3461024257600036600319011261024257602060405160058152f35b34610242576020366003190112610242576001600160a01b03612fd1613792565b16600052600e6020526020604060002054604051908152f35b346102425760003660031901126102425733600052600460205260ff60406000205416600381101561047b576130209015613a64565b3360005260046020526040600020600260ff19825416179055612453336148f7565b3461024257602036600319011261024257610c21600435614000565b3461024257602036600319011261024257600435600052600b602052604060002060018060a01b0390818154169160018201541690600281015490600381015491613122600483015461311460058501546130bb600687016138fb565b906130c8600788016138fb565b9360088801549860098901549760ff600b600a8c01549b0154169b60206040519e8f908152015260408d015260608c015260808b015260a08a01526101808060c08b01528901906137f2565b9087820360e08901526137f2565b92610100860152610120850152610140840152600982101561047b5782916101608301520390f35b34610242576020806003193601126102425760a060405161316a81613887565b36903760043560005260058082526004604060002001916040519283826000915b8583106131d3575050505061319f83613887565b60405192600090845b8483106131b45760a086f35b81516001600160a01b03168152600192909201919083019083016131a8565b83546001600160a01b03168152600193840193929092019184910161318b565b34610242576040366003190112610242576024803580151590600435908281036102425781600052602090600b825260ff80600b6040600020015416600981101561349d5760076132449114614834565b8360005260058352604060002091600a83015480156134655761326d83600b86015416156147d4565b42101561342b578460005260068452604060002033600052845281604060002054166133f7576000809360098101946004858754169201905b82868216106133b9575b5050501561337e57847ff2913dbe661ee2acc4a046d8fbcdc792373bda34c41c6086484b5345e5785e5f95969750600052600684526040600020336000528452604060002060ff1990600182825416179055866000526007855260406000203360005285526040600020908154168389161790556000146133575761ff0061333e8354928360081c16614813565b60081b169061ff0019161790555b6040519384523393a3005b62ff000061336b8354928360101c16614813565b60101b169062ff0000191617905561334c565b60405162461bcd60e51b815260048101859052601481890152732737ba10309039b2b632b1ba32b2103b37ba32b960611b6044820152606490fd5b6133c38183614824565b905460039190911b1c6001600160a01b031633146133e9576133e490614813565b6132a6565b5050505060018880806132b0565b60405162461bcd60e51b815260048101859052600d818901526c105b1c9958591e481d9bdd1959609a1b6044820152606490fd5b60405162461bcd60e51b81526004810185905260138189015272159bdd1a5b99c81c195c9a5bd908195b991959606a1b6044820152606490fd5b60405162461bcd60e51b8152600481018690526011818a0152704e6f20646973707574652065786973747360781b6044820152606490fd5b86634e487b7160e01b60005260216004526000fd5b3461024257602036600319011261024257600435600052600b60205260406000206134ea60018060a01b036001830154163314613b7c565b600b81019081549060ff821690600982101561047b5761350f600261351f9314613bb5565b6005600382015491015490613bf0565b42116135305760ff19166003179055005b60405162461bcd60e51b815260206004820152601460248201527314dd185c9d081dda5b991bddc8195e1c1a5c995960621b6044820152606490fd5b3461024257602080600319360112610242576001600160a01b0361358e613792565b166000526008815260406000208054906135a782613aa5565b916135b560405193846138d8565b8083526135c181613aa5565b90848401601f198093013682376135d782613abc565b6135e083613abc565b926135ea81613aa5565b956135f860405197886138d8565b8187528561360583613aa5565b0160005b81811061378357505060005b8281106136ea57505050604051956080870190608088525180915260a08701929060005b8181106136c357505050816136589187613666959403898901526137be565b9085820360408701526137be565b93838503606085015282519081865280860181808460051b8901019501936000975b8489106136955787870388f35b90919293949584806136b1838686600196030188528a516137f2565b98019401980197919094939294613688565b909193849996995190600d82101561047b5790815295989589019389019190600101613639565b60ff6136f982849c999c613afd565b50541690613707818b613b2f565b91600d81101561047b5761377b925260016137228285613afd565b50015461372f8287613b2f565b52600261373c8285613afd565b5001546137498289613b2f565b5261376060036137598386613afd565b50016138fb565b61376a828b613b2f565b52613775818a613b2f565b50613aee565b989598613615565b60608982018c01528a01613609565b600435906001600160a01b038216820361024257565b602435906001600160a01b038216820361024257565b90815180825260208080930193019160005b8281106137de575050505090565b8351855293810193928101926001016137d0565b919082519283825260005b84811061381e575050826000602080949584010152601f8019910116010190565b6020818301810151848301820152016137fd565b90600182811c92168015613862575b602083101461384c57565b634e487b7160e01b600052602260045260246000fd5b91607f1691613841565b608081019081106001600160401b038211176103f357604052565b60a081019081106001600160401b038211176103f357604052565b606081019081106001600160401b038211176103f357604052565b604081019081106001600160401b038211176103f357604052565b601f909101601f19168101906001600160401b038211908210176103f357604052565b906040519182600082549261390f84613832565b90818452600194858116908160001461397e575060011461393b575b5050613939925003836138d8565b565b9093915060005260209081600020936000915b8183106139665750506139399350820101388061392b565b8554888401850152948501948794509183019161394e565b91505061393994506020925060ff191682840152151560051b820101388061392b565b3461024257600036600319011261024257602060405160508152f35b6001600160401b0381116103f357601f01601f191660200190565b81601f82011215610242578035906139ef826139bd565b926139fd60405194856138d8565b8284526020838301011161024257816000926020809301838601378301015290565b9060406003198301126102425760043591602435906001600160401b03821161024257613a4e916004016139d8565b90565b91906020830192600382101561047b5752565b15613a6b57565b60405162461bcd60e51b8152602060048201526012602482015271105b1c9958591e481c9959da5cdd195c995960721b6044820152606490fd5b6001600160401b0381116103f35760051b60200190565b90613ac682613aa5565b613ad360405191826138d8565b8281528092613ae4601f1991613aa5565b0190602036910137565b6000198114610c505760010190565b8054821015613b195760005260206000209060021b0190600090565b634e487b7160e01b600052603260045260246000fd5b8051821015613b195760209160051b010190565b15613b4a57565b60405162461bcd60e51b815260206004820152600a602482015269139bdd0818db1a595b9d60b21b6044820152606490fd5b15613b8357565b60405162461bcd60e51b815260206004820152600a6024820152692737ba103bb7b935b2b960b11b6044820152606490fd5b15613bbc57565b60405162461bcd60e51b815260206004820152600c60248201526b139bdd081858d8d95c1d195960a21b6044820152606490fd5b91908201809211610c5057565b15613c0457565b60405162461bcd60e51b8152602060048201526009602482015268546f6f206561726c7960b81b6044820152606490fd5b3d15613c60573d90613c46826139bd565b91613c5460405193846138d8565b82523d6000602084013e565b606090565b15613c6c57565b60405162461bcd60e51b815260206004820152600d60248201526c1499599d5b990819985a5b1959609a1b6044820152606490fd5b604090815192613cb0846138a2565b602584526020917f4163636570746564206f7220696e2d70726f6772657373206a6f62206162616e8386015264191bdb995960da1b8486015260018060a01b03169260009484865260088452818620908251613d0b8161386c565b87815285810185815284820190428252606083019384528454600160401b811015613f0457613d41906001968782018155613afd565b939093613ef05751600d811015613edc57835460ff191660ff91909116178355518483015551600282015590518051600390920191906001600160401b038211613ec8578190613d918454613832565b601f8111613e78575b508790601f8311600114613e19578a92613e0e575b5050600019600383901b1c191690831b1790555b8486526009845281862086805284528186208054918201809211613dfa575551908152600080516020614c428339815191529190a3565b634e487b7160e01b87526011600452602487fd5b015190503880613daf565b848b52888b208694509190601f1984168c5b8b828210613e625750508411613e49575b505050811b019055613dc3565b015160001960f88460031b161c19169055388080613e3c565b8385015186558997909501949384019301613e2b565b909150838a52878a20601f840160051c810191898510613ebe575b84939291601f88920160051c01915b828110613eb0575050613d9a565b8c8155859450879101613ea2565b9091508190613e93565b634e487b7160e01b89526041600452602489fd5b634e487b7160e01b8b52602160045260248bfd5b634e487b7160e01b8b5260048b905260248bfd5b634e487b7160e01b8b52604160045260248bfd5b604051613f24816138a2565b602381527f43616e63656c6c6564206a6f6220616674657220776f726b65722061636365706020820152621d195960ea1b604082015290565b15613f6457565b60405162461bcd60e51b815260206004820152600d60248201526c139bdd081cdd589b5a5d1d1959609a1b6044820152606490fd5b60405190613fa6826138bd565b600d82526c1a9bd897d8dbdb5c1b195d1959609a1b6020830152565b15613fc957565b60405162461bcd60e51b815260206004820152600f60248201526e151c985b9cd9995c8819985a5b1959608a1b6044820152606490fd5b6000818152600b6020526040902080546001600160a01b0316614024338214613b43565b600b820190815460ff8116600981101561047b57600114614720575050805460ff8116600981101561047b5760021461409a5760405162461bcd60e51b815260206004820152601b60248201527a43616e6e6f742063616e63656c206174207468697320737461676560281b6044820152606490fd5b60ff19166006179055600181015481546001600160a01b039182169291166140c0613f18565b816000526008602052604060002090604051916140dc8361386c565b60088352602083018781526040840191428352606085019384528054600160401b8110156103f35761411391600182018155613afd565b949094610fdb5751600d81101561047b5760ff801986541691161784555160018401555160028301555180519060018060401b0382116103f35761415a6003840154613832565b601f81116146d9575b50602090601f831160011461466a57600392916000918361465f575b50508160011b9160001990841b1c1916179101555b8060005260096020526040600020600860005260205260406000208054600181018111610c50576001019055600881600080516020614c428339815191526020604051888152a3806000526009602052604060002060086000526020526005604060002054101561440c575b50600080808061422494600260018060a01b03825416910154905af1610f16613c35565b61422c613f18565b81600052600860205260406000206040516142468161386c565b6008815260208101918583526040820190428252606083019485528054600160401b8110156103f35761427e91600182018155613afd565b929092610fdb575192600d84101561047b5760039360ff8019855416911617835551600183015551600282015501905180519060018060401b0382116103f35781906142ca8454613832565b601f81116143b9575b50602090601f831160011461435357600092614348575b50508160011b916000199060031b1c19161790555b80600052600960205260406000206008600052602052604060002080549060018201809211610c5057600893600080516020614c428339815191529260209255604051908152a3565b0151905038806142ea565b6000858152602081209350601f198516905b8181106143a15750908460019594939210614388575b505050811b0190556142ff565b015160001960f88460031b161c1916905538808061437b565b92936020600181928786015181550195019301614365565b909150836000526020600020601f840160051c81019160208510614402575b90601f859493920160051c01905b8181106143f357506142d3565b600081558493506001016143e6565b90915081906143d8565b806000526009602052604060002060096000526020526040600020546142005790604051614439816138bd565b601c81527b233630b3b3b2b21030b9903837ba32b73a34b0b61039b1b0b6b6b2b960211b602082015282600052600860205260406000206040519161447d8361386c565b600983526000602084015242604084015260608301528054600160401b8110156103f3576144b091600182018155613afd565b919091610fdb57805190600d82101561047b5760609160ff801985541691161783556020810151600184015560408101516002840155015180519060018060401b0382116103f3576145056003840154613832565b601f8111614618575b50602090601f83116001146145a957600392916000918361459e575b50508160011b9160001990841b1c1916179101555b81600052600960205260406000206009600052602052604060002091825490600182018211610c50576000809360098294936142249760018596019055600080516020614c428339815191526020604051868152a39450505050614200565b01519050388061452a565b906003840160005260206000209160005b601f19851681106146005750918391600193600395601f198116106145e8575b505050811b0191015561453f565b015160001983861b60f8161c191690553880806145da565b919260206001819286850151815501940192016145ba565b600384016000526020600020601f840160051c810160208510614658575b601f830160051c8201811061464c57505061450e565b60008155600101614636565b5080614636565b01519050388061417f565b906003840160005260206000209160005b601f19851681106146c15750918391600193600395601f198116106146a9575b505050811b01910155614194565b015160001983861b60f8161c1916905538808061469b565b9192602060018192868501518155019401920161467b565b600384016000526020600020601f840160051c810160208510614719575b601f830160051c8201811061470d575050614163565b600081556001016146f7565b50806146f7565b613939945060009391600285949385946006869560ff19161790550154905af1610f16613c35565b6001600160a01b03166000908152600e602052604081205415613a4e57600d6020526040812054600e602052604082205491821561478557500490565b634e487b7160e01b81526012600452602490fd5b156147a057565b60405162461bcd60e51b815260206004820152600c60248201526b139bdd081a5b9d9bdb1d995960a21b6044820152606490fd5b156147db57565b60405162461bcd60e51b815260206004820152601060248201526f105b1c9958591e481c995cdbdb1d995960821b6044820152606490fd5b60ff1660ff8114610c505760010190565b6005821015613b19570190600090565b1561483b57565b60405162461bcd60e51b815260206004820152600c60248201526b139bdd08191a5cdc1d5d195960a21b6044820152606490fd5b1561487657565b60405162461bcd60e51b815260206004820152600a6024820152694e6f206469737075746560b01b6044820152606490fd5b604051906148b5826138bd565b600c82526b6c6f73745f6469737075746560a01b6020830152565b604051906148dd826138bd565b600b82526a776f6e5f6469737075746560a81b6020830152565b6001600160a01b031660008181526001602052604081205460ff166149665780827f5d95448edae7bcc3f04ceed898bf2926c2e56c8de7c6a57d3b90539b1ff037a69252806020526040812060ff199060508282541617905560016020526001604083209182541617905580a2565b60405162461bcd60e51b8152602060048201526013602482015272105b1c9958591e481a5b9a5d1a585b1a5e9959606a1b6044820152606490fd5b60ff613a4e94938160609416835216602082015281604082015201906137f2565b6001600160a01b03166000818152602081905260408120549192909160ff16906005820161ffff808211614a775760649082161115614a3d575090614a38600080516020614c62833981519152939260406064945b878152806020522060ff851660ff19825416179055604051938493846149a1565b0390a2565b60ff8111614a6357600080516020614c628339815191529392916040614a389294614a17565b634e487b7160e01b84526011600452602484fd5b634e487b7160e01b85526011600452602485fd5b6001600160a01b03166000818152602081905260408120549192909160ff1690600a820161ffff808211614a775760649082161115614a3d575090614a38600080516020614c6283398151915293926040606494878152806020522060ff851660ff19825416179055604051938493846149a1565b6001600160a01b03166000818152602081905260408120549192909160ff1690600a8211614b625790614a3883926040600080516020614c628339815191529594878152806020522060ff851660ff19825416179055604051938493846149a1565b600919820160ff8111614a6357600080516020614c628339815191529392916040614a389294614a17565b60018060a01b03166000526000602052605060ff60406000205416101590565b600254811015613b1957600260005260206000200190600090565b6001600160a01b03811660008181526003602052604081205490929060ff1615614bf157505050565b600254600160401b811015614c2d5760409392916128f7826001614c189401600255614bad565b8152600360205220805460ff19166001179055565b634e487b7160e01b84526041600452602484fdfed4df0cb969b99d25f121a3e9c7f32d8fcc5a0d782408695f68de9493db8cc177bbf5ee5eee34326c6c2d38c9b7ceeb7a8e3ee460657a93dd17fac3e82b141d57a2646970667358221220ed291a01a526e824fa52c1b48d232c2fef9c7804dd50c3788ab18d12e7ac363964736f6c63430008140033",
  "linkReferences": {},
  "deployedLinkReferences": {}
}