{"contracts/BadgeManager.sol":{"BadgeManager":{"abi":[{"anonymous":false,"inputs":[{"indexed":true,"internalType":"address","name":"user","type":"address"},{"indexed":true,"internalType":"enum BadgeManager.BadgeType","name":"badgeType","type":"uint8"},{"indexed":false,"internalType":"uint256","name":"jobId","type":"uint256"}],"name":"BadgeAwarded","type":"event"},{"inputs":[],"name":"GHOST_SCAM_THRESHOLD","outputs":[{"internalType":"uint256","name":"","type":"uint256"}],"stateMutability":"view","type":"function"},{"inputs":[],"name":"SCAM_THRESHOLD","outputs":[{"internalType":"uint256","name":"","type":"uint256"}],"stateMutability":"view","type":"function"},{"inputs":[],"name":"SERIAL_CANCEL_THRESHOLD","outputs":[{"internalType":"uint256","name":"","type":"uint256"}],"stateMutability":"view","type":"function"},{"inputs":[{"internalType":"address","name":"","type":"address"},{"internalType":"uint256","name":"","type":"uint256"}],"name":"badgeCount","outputs":[{"internalType":"uint256","name":"","type":"uint256"}],"stateMutability":"view","type":"function"},{"inputs":[{"internalType":"address","name":"user","type":"address"},{"internalType":"enum BadgeManager.BadgeType","name":"badgeType","type":"uint8"}],"name":"getBadgeCount","outputs":[{"internalType":"uint256","name":"","type":"uint256"}],"stateMutability":"view","type":"function"},{"inputs":[{"internalType":"address","name":"user","type":"address"}],"name":"getBadges","outputs":[{"internalType":"enum BadgeManager.BadgeType[]","name":"types","type":"uint8[]"},{"internalType":"uint256[]","name":"jobIds","type":"uint256[]"},{"internalType":"uint256[]","name":"timestamps","type":"uint256[]"},{"internalType":"string[]","name":"notes","type":"string[]"}],"stateMutability":"view","type":"function"},{"inputs":[{"internalType":"address","name":"user","type":"address"}],"name":"isScammer","outputs":[{"internalType":"bool","name":"","type":"bool"}],"stateMutability":"view","type":"function"}],"evm":{"bytecode":{"linkReferences":{},"object":"6080806040523461001657610626908161001c8239f35b600080fdfe6080604052600436101561001257600080fd5b60003560e01c806303828e45146101725780631965bb0f146100695780632488b2ee146101565780632d5928651461010e57806369c04c44146100c55780638721ba3f1461006e5763e72f73a81461006957600080fd5b61050c565b346100c05760403660031901126100c0576100876104c2565b60243590600e8210156100c05760018060a01b031660005260016020526040600020906000526020526020604060002054604051908152f35b600080fd5b346100c05760203660031901126100c0576001600160a01b036100e66104c2565b1660005260016020526040600020600a60005260205260206040600020541515604051908152f35b346100c05760403660031901126100c0576001600160a01b0361012f6104c2565b16600052600160205260406000206024356000526020526020604060002054604051908152f35b346100c05760003660031901126100c057602060405160058152f35b346100c05760203660031901126100c0576001600160a01b036101936104c2565b166000526000602052604060002080546101ac81610561565b906101ba6040519283610528565b808252601f196101c982610561565b013660208401376101d981610578565b916101e382610578565b916101ed81610561565b946101fb6040519687610528565b818652601f1961020a83610561565b0160005b8181106104b157505060005b828110610339575050506040519260808401608085528251809152602060a086019301906000905b8082106103005750505081610262918561027095940360208701526104d8565b9083820360408501526104d8565b918183036060830152805180845260208401906020808260051b8701019301916000955b8287106102a15785850386f35b90919293601f19828203018352845180519081835260005b8281106102eb57505060208083836000838096600198010152601f801991011601019601930196019590929192610294565b806020809284010151828287010152016102b9565b909193845190600e82101561032357602081600193829352019501920190610242565b634e487b7160e01b600052602160045260246000fd5b60ff61034582846105aa565b50541661035282866105dc565b600e8210156103235752600161036882846105aa565b50015461037582886105dc565b52600261038282846105aa565b50015461038f82876105dc565b5261039a81836105aa565b506040519060006003820154908160011c9260018316156104a7575b6020841060018416146104915783855284926001811690811561046f5750600114610426575b506103e992500382610528565b6103f382896105dc565b526103fe81886105dc565b5060001981146104105760010161021a565b634e487b7160e01b600052601160045260246000fd5b90506003915001600052816020600020916000925b81841061045357505060206103e9928201018b6103dc565b602091925080600191548386880101520192019190839161043b565b9050602092506103e994915060ff191682840152151560051b8201018b6103dc565b634e487b7160e01b600052602260045260246000fd5b92607f16926103b6565b806060602080938b0101520161020e565b600435906001600160a01b03821682036100c057565b90815180825260208080930193019160005b8281106104f8575050505090565b8351855293810193928101926001016104ea565b346100c05760003660031901126100c057602060405160038152f35b601f909101601f19168101906001600160401b0382119082101761054b57604052565b634e487b7160e01b600052604160045260246000fd5b6001600160401b03811161054b5760051b60200190565b9061058282610561565b61058f6040519182610528565b82815280926105a0601f1991610561565b0190602036910137565b80548210156105c65760005260206000209060021b0190600090565b634e487b7160e01b600052603260045260246000fd5b80518210156105c65760209160051b01019056fea26469706673582212207776342ac7417320e67675a6451ae859d34289d5ec4e0b313d730f35925c96da64736f6c63430008140033","opcodes":"PUSH1 0x80 DUP1 PUSH1 0x40 MSTORE CALLVALUE PUSH2 0x16 JUMPI PUSH2 0x626 SWAP1 DUP2 PUSH2 0x1C DUP3 CODECOPY RETURN JUMPDEST PUSH1 0x0 DUP1 REVERT INVALID PUSH1 0x80 PUSH1 0x40 MSTORE PUSH1 0x4 CALLDATASIZE LT ISZERO PUSH2 0x12 JUMPI PUSH1 0x0 DUP1 REVERT JUMPDEST PUSH1 0x0 CALLDATALOAD PUSH1 0xE0 SHR DUP1 PUSH4 0x3828E45 EQ PUSH2 0x172 JUMPI DUP1 PUSH4 0x1965BB0F EQ PUSH2 0x69 JUMPI DUP1 PUSH4 0x2488B2EE EQ PUSH2 0x156 JUMPI DUP1 PUSH4 0x2D592865 EQ PUSH2 0x10E JUMPI DUP1 PUSH4 0x69C04C44 EQ PUSH2 0xC5 JUMPI DUP1 PUSH4 0x8721BA3F EQ PUSH2 0x6E JUMPI PUSH4 0xE72F73A8 EQ PUSH2 0x69 JUMPI PUSH1 0x0 DUP1 REVERT JUMPDEST PUSH2 0x50C JUMP JUMPDEST CALLVALUE PUSH2 0xC0 JUMPI PUSH1 0x40 CALLDATASIZE PUSH1 0x3 NOT ADD SLT PUSH2 0xC0 JUMPI PUSH2 0x87 PUSH2 0x4C2 JUMP JUMPDEST PUSH1 0x24 CALLDATALOAD SWAP1 PUSH1 0xE DUP3 LT ISZERO PUSH2 0xC0 JUMPI PUSH1 0x1 DUP1 PUSH1 0xA0 SHL SUB AND PUSH1 0x0 MSTORE PUSH1 0x1 PUSH1 0x20 MSTORE PUSH1 0x40 PUSH1 0x0 KECCAK256 SWAP1 PUSH1 0x0 MSTORE PUSH1 0x20 MSTORE PUSH1 0x20 PUSH1 0x40 PUSH1 0x0 KECCAK256 SLOAD PUSH1 0x40 MLOAD SWAP1 DUP2 MSTORE RETURN JUMPDEST PUSH1 0x0 DUP1 REVERT JUMPDEST CALLVALUE PUSH2 0xC0 JUMPI PUSH1 0x20 CALLDATASIZE PUSH1 0x3 NOT ADD SLT PUSH2 0xC0 JUMPI PUSH1 0x1 PUSH1 0x1 PUSH1 0xA0 SHL SUB PUSH2 0xE6 PUSH2 0x4C2 JUMP JUMPDEST AND PUSH1 0x0 MSTORE PUSH1 0x1 PUSH1 0x20 MSTORE PUSH1 0x40 PUSH1 0x0 KECCAK256 PUSH1 0xA PUSH1 0x0 MSTORE PUSH1 0x20 MSTORE PUSH1 0x20 PUSH1 0x40 PUSH1 0x0 KECCAK256 SLOAD ISZERO ISZERO PUSH1 0x40 MLOAD SWAP1 DUP2 MSTORE RETURN JUMPDEST CALLVALUE PUSH2 0xC0 JUMPI PUSH1 0x40 CALLDATASIZE PUSH1 0x3 NOT ADD SLT PUSH2 0xC0 JUMPI PUSH1 0x1 PUSH1 0x1 PUSH1 0xA0 SHL SUB PUSH2 0x12F PUSH2 0x4C2 JUMP JUMPDEST AND PUSH1 0x0 MSTORE PUSH1 0x1 PUSH1 0x20 MSTORE PUSH1 0x40 PUSH1 0x0 KECCAK256 PUSH1 0x24 CALLDATALOAD PUSH1 0x0 MSTORE PUSH1 0x20 MSTORE PUSH1 0x20 PUSH1 0x40 PUSH1 0x0 KECCAK256 SLOAD PUSH1 0x40 MLOAD SWAP1 DUP2 MSTORE RETURN JUMPDEST CALLVALUE PUSH2 0xC0 JUMPI PUSH1 0x0 CALLDATASIZE PUSH1 0x3 NOT ADD SLT PUSH2 0xC0 JUMPI PUSH1 0x20 PUSH1 0x40 MLOAD PUSH1 0x5 DUP2 MSTORE RETURN JUMPDEST CALLVALUE PUSH2 0xC0 JUMPI PUSH1 0x20 CALLDATASIZE PUSH1 0x3 NOT ADD SLT PUSH2 0xC0 JUMPI PUSH1 0x1 PUSH1 0x1 PUSH1 0xA0 SHL SUB PUSH2 0x193 PUSH2 0x4C2 JUMP JUMPDEST AND PUSH1 0x0 MSTORE PUSH1 0x0 PUSH1 0x20 MSTORE PUSH1 0x40 PUSH1 0x0 KECCAK256 DUP1 SLOAD PUSH2 0x1AC DUP2 PUSH2 0x561 JUMP JUMPDEST SWAP1 PUSH2 0x1BA PUSH1 0x40 MLOAD SWAP3 DUP4 PUSH2 0x528 JUMP JUMPDEST DUP1 DUP3 MSTORE PUSH1 0x1F NOT PUSH2 0x1C9 DUP3 PUSH2 0x561 JUMP JUMPDEST ADD CALLDATASIZE PUSH1 0x20 DUP5 ADD CALLDATACOPY PUSH2 0x1D9 DUP2 PUSH2 0x578 JUMP JUMPDEST SWAP2 PUSH2 0x1E3 DUP3 PUSH2 0x578 JUMP JUMPDEST SWAP2 PUSH2 0x1ED DUP2 PUSH2 0x561 JUMP JUMPDEST SWAP5 PUSH2 0x1FB PUSH1 0x40 MLOAD SWAP7 DUP8 PUSH2 0x528 JUMP JUMPDEST DUP2 DUP7 MSTORE PUSH1 0x1F NOT PUSH2 0x20A DUP4 PUSH2 0x561 JUMP JUMPDEST ADD PUSH1 0x0 JUMPDEST DUP2 DUP2 LT PUSH2 0x4B1 JUMPI POP POP PUSH1 0x0 JUMPDEST DUP3 DUP2 LT PUSH2 0x339 JUMPI POP POP POP PUSH1 0x40 MLOAD SWAP3 PUSH1 0x80 DUP5 ADD PUSH1 0x80 DUP6 MSTORE DUP3 MLOAD DUP1 SWAP2 MSTORE PUSH1 0x20 PUSH1 0xA0 DUP7 ADD SWAP4 ADD SWAP1 PUSH1 0x0 SWAP1 JUMPDEST DUP1 DUP3 LT PUSH2 0x300 JUMPI POP POP POP DUP2 PUSH2 0x262 SWAP2 DUP6 PUSH2 0x270 SWAP6 SWAP5 SUB PUSH1 0x20 DUP8 ADD MSTORE PUSH2 0x4D8 JUMP JUMPDEST SWAP1 DUP4 DUP3 SUB PUSH1 0x40 DUP6 ADD MSTORE PUSH2 0x4D8 JUMP JUMPDEST SWAP2 DUP2 DUP4 SUB PUSH1 0x60 DUP4 ADD MSTORE DUP1 MLOAD DUP1 DUP5 MSTORE PUSH1 0x20 DUP5 ADD SWAP1 PUSH1 0x20 DUP1 DUP3 PUSH1 0x5 SHL DUP8 ADD ADD SWAP4 ADD SWAP2 PUSH1 0x0 SWAP6 JUMPDEST DUP3 DUP8 LT PUSH2 0x2A1 JUMPI DUP6 DUP6 SUB DUP7 RETURN JUMPDEST SWAP1 SWAP2 SWAP3 SWAP4 PUSH1 0x1F NOT DUP3 DUP3 SUB ADD DUP4 MSTORE DUP5 MLOAD DUP1 MLOAD SWAP1 DUP2 DUP4 MSTORE PUSH1 0x0 JUMPDEST DUP3 DUP2 LT PUSH2 0x2EB JUMPI POP POP PUSH1 0x20 DUP1 DUP4 DUP4 PUSH1 0x0 DUP4 DUP1 SWAP7 PUSH1 0x1 SWAP9 ADD ADD MSTORE PUSH1 0x1F DUP1 NOT SWAP2 ADD AND ADD ADD SWAP7 ADD SWAP4 ADD SWAP7 ADD SWAP6 SWAP1 SWAP3 SWAP2 SWAP3 PUSH2 0x294 JUMP JUMPDEST DUP1 PUSH1 0x20 DUP1 SWAP3 DUP5 ADD ADD MLOAD DUP3 DUP3 DUP8 ADD ADD MSTORE ADD PUSH2 0x2B9 JUMP JUMPDEST SWAP1 SWAP2 SWAP4 DUP5 MLOAD SWAP1 PUSH1 0xE DUP3 LT ISZERO PUSH2 0x323 JUMPI PUSH1 0x20 DUP2 PUSH1 0x1 SWAP4 DUP3 SWAP4 MSTORE ADD SWAP6 ADD SWAP3 ADD SWAP1 PUSH2 0x242 JUMP JUMPDEST PUSH4 0x4E487B71 PUSH1 0xE0 SHL PUSH1 0x0 MSTORE PUSH1 0x21 PUSH1 0x4 MSTORE PUSH1 0x24 PUSH1 0x0 REVERT JUMPDEST PUSH1 0xFF PUSH2 0x345 DUP3 DUP5 PUSH2 0x5AA JUMP JUMPDEST POP SLOAD AND PUSH2 0x352 DUP3 DUP7 PUSH2 0x5DC JUMP JUMPDEST PUSH1 0xE DUP3 LT ISZERO PUSH2 0x323 JUMPI MSTORE PUSH1 0x1 PUSH2 0x368 DUP3 DUP5 PUSH2 0x5AA JUMP JUMPDEST POP ADD SLOAD PUSH2 0x375 DUP3 DUP9 PUSH2 0x5DC JUMP JUMPDEST MSTORE PUSH1 0x2 PUSH2 0x382 DUP3 DUP5 PUSH2 0x5AA JUMP JUMPDEST POP ADD SLOAD PUSH2 0x38F DUP3 DUP8 PUSH2 0x5DC JUMP JUMPDEST MSTORE PUSH2 0x39A DUP2 DUP4 PUSH2 0x5AA JUMP JUMPDEST POP PUSH1 0x40 MLOAD SWAP1 PUSH1 0x0 PUSH1 0x3 DUP3 ADD SLOAD SWAP1 DUP2 PUSH1 0x1 SHR SWAP3 PUSH1 0x1 DUP4 AND ISZERO PUSH2 0x4A7 JUMPI JUMPDEST PUSH1 0x20 DUP5 LT PUSH1 0x1 DUP5 AND EQ PUSH2 0x491 JUMPI DUP4 DUP6 MSTORE DUP5 SWAP3 PUSH1 0x1 DUP2 AND SWAP1 DUP2 ISZERO PUSH2 0x46F JUMPI POP PUSH1 0x1 EQ PUSH2 0x426 JUMPI JUMPDEST POP PUSH2 0x3E9 SWAP3 POP SUB DUP3 PUSH2 0x528 JUMP JUMPDEST PUSH2 0x3F3 DUP3 DUP10 PUSH2 0x5DC JUMP JUMPDEST MSTORE PUSH2 0x3FE DUP2 DUP9 PUSH2 0x5DC JUMP JUMPDEST POP PUSH1 0x0 NOT DUP2 EQ PUSH2 0x410 JUMPI PUSH1 0x1 ADD PUSH2 0x21A JUMP JUMPDEST PUSH4 0x4E487B71 PUSH1 0xE0 SHL PUSH1 0x0 MSTORE PUSH1 0x11 PUSH1 0x4 MSTORE PUSH1 0x24 PUSH1 0x0 REVERT JUMPDEST SWAP1 POP PUSH1 0x3 SWAP2 POP ADD PUSH1 0x0 MSTORE DUP2 PUSH1 0x20 PUSH1 0x0 KECCAK256 SWAP2 PUSH1 0x0 SWAP3 JUMPDEST DUP2 DUP5 LT PUSH2 0x453 JUMPI POP POP PUSH1 0x20 PUSH2 0x3E9 SWAP3 DUP3 ADD ADD DUP12 PUSH2 0x3DC JUMP JUMPDEST PUSH1 0x20 SWAP2 SWAP3 POP DUP1 PUSH1 0x1 SWAP2 SLOAD DUP4 DUP7 DUP9 ADD ADD MSTORE ADD SWAP3 ADD SWAP2 SWAP1 DUP4 SWAP2 PUSH2 0x43B JUMP JUMPDEST SWAP1 POP PUSH1 0x20 SWAP3 POP PUSH2 0x3E9 SWAP5 SWAP2 POP PUSH1 0xFF NOT AND DUP3 DUP5 ADD MSTORE ISZERO ISZERO PUSH1 0x5 SHL DUP3 ADD ADD DUP12 PUSH2 0x3DC JUMP JUMPDEST PUSH4 0x4E487B71 PUSH1 0xE0 SHL PUSH1 0x0 MSTORE PUSH1 0x22 PUSH1 0x4 MSTORE PUSH1 0x24 PUSH1 0x0 REVERT JUMPDEST SWAP3 PUSH1 0x7F AND SWAP3 PUSH2 0x3B6 JUMP JUMPDEST DUP1 PUSH1 0x60 PUSH1 0x20 DUP1 SWAP4 DUP12 ADD ADD MSTORE ADD PUSH2 0x20E JUMP JUMPDEST PUSH1 0x4 CALLDATALOAD SWAP1 PUSH1 0x1 PUSH1 0x1 PUSH1 0xA0 SHL SUB DUP3 AND DUP3 SUB PUSH2 0xC0 JUMPI JUMP JUMPDEST SWAP1 DUP2 MLOAD DUP1 DUP3 MSTORE PUSH1 0x20 DUP1 DUP1 SWAP4 ADD SWAP4 ADD SWAP2 PUSH1 0x0 JUMPDEST DUP3 DUP2 LT PUSH2 0x4F8 JUMPI POP POP POP POP SWAP1 JUMP JUMPDEST DUP4 MLOAD DUP6 MSTORE SWAP4 DUP2 ADD SWAP4 SWAP3 DUP2 ADD SWAP3 PUSH1 0x1 ADD PUSH2 0x4EA JUMP JUMPDEST CALLVALUE PUSH2 0xC0 JUMPI PUSH1 0x0 CALLDATASIZE PUSH1 0x3 NOT ADD SLT PUSH2 0xC0 JUMPI PUSH1 0x20 PUSH1 0x40 MLOAD PUSH1 0x3 DUP2 MSTORE RETURN JUMPDEST PUSH1 0x1F SWAP1 SWAP2 ADD PUSH1 0x1F NOT AND DUP2 ADD SWAP1 PUSH1 0x1 PUSH1 0x1 PUSH1 0x40 SHL SUB DUP3 GT SWAP1 DUP3 LT OR PUSH2 0x54B JUMPI PUSH1 0x40 MSTORE JUMP JUMPDEST PUSH4 0x4E487B71 PUSH1 0xE0 SHL PUSH1 0x0 MSTORE PUSH1 0x41 PUSH1 0x4 MSTORE PUSH1 0x24 PUSH1 0x0 REVERT JUMPDEST PUSH1 0x1 PUSH1 0x1 PUSH1 0x40 SHL SUB DUP2 GT PUSH2 0x54B JUMPI PUSH1 0x5 SHL PUSH1 0x20 ADD SWAP1 JUMP JUMPDEST SWAP1 PUSH2 0x582 DUP3 PUSH2 0x561 JUMP JUMPDEST PUSH2 0x58F PUSH1 0x40 MLOAD SWAP2 DUP3 PUSH2 0x528 JUMP JUMPDEST DUP3 DUP2 MSTORE DUP1 SWAP3 PUSH2 0x5A0 PUSH1 0x1F NOT SWAP2 PUSH2 0x561 JUMP JUMPDEST ADD SWAP1 PUSH1 0x20 CALLDATASIZE SWAP2 ADD CALLDATACOPY JUMP JUMPDEST DUP1 SLOAD DUP3 LT ISZERO PUSH2 0x5C6 JUMPI PUSH1 0x0 MSTORE PUSH1 0x20 PUSH1 0x0 KECCAK256 SWAP1 PUSH1 0x2 SHL ADD SWAP1 PUSH1 0x0 SWAP1 JUMP JUMPDEST PUSH4 0x4E487B71 PUSH1 0xE0 SHL PUSH1 0x0 MSTORE PUSH1 0x32 PUSH1 0x4 MSTORE PUSH1 0x24 PUSH1 0x0 REVERT JUMPDEST DUP1 MLOAD DUP3 LT ISZERO PUSH2 0x5C6 JUMPI PUSH1 0x20 SWAP2 PUSH1 0x5 SHL ADD ADD SWAP1 JUMP INVALID LOG2 PUSH5 0x6970667358 0x22 SLT KECCAK256 PUSH24 0x76342AC7417320E67675A6451AE859D34289D5EC4E0B313D PUSH20 0xF35925C96DA64736F6C63430008140033000000 "},"methodIdentifiers":{"GHOST_SCAM_THRESHOLD()":"1965bb0f","SCAM_THRESHOLD()":"2488b2ee","SERIAL_CANCEL_THRESHOLD()":"e72f73a8","badgeCount(address,uint256)":"2d592865","getBadgeCount(address,uint8)":"8721ba3f","getBadges(address)":"03828e45","isScammer(address)":"69c04c44"}}}}}