{"contracts/GigStamp.sol":{"GigStamp":{"abi":[{"anonymous":false,"inputs":[{"indexed":true,"internalType":"address","name":"user","type":"address"},{"indexed":true,"internalType":"enum BadgeManager.BadgeType","name":"badgeType","type":"uint8"},{"indexed":false,"internalType":"uint256","name":"jobId","type":"uint256"}],"name":"BadgeAwarded","type":"event"},{"anonymous":false,"inputs":[{"indexed":true,"internalType":"uint256","name":"jobId","type":"uint256"},{"indexed":true,"internalType":"address","name":"responder","type":"address"}],"name":"CounterEvidenceSubmitted","type":"event"},{"anonymous":false,"inputs":[{"indexed":true,"internalType":"uint256","name":"jobId","type":"uint256"},{"indexed":true,"internalType":"address","name":"initiator","type":"address"}],"name":"DisputeRaised","type":"event"},{"anonymous":false,"inputs":[{"indexed":true,"internalType":"uint256","name":"jobId","type":"uint256"},{"indexed":false,"internalType":"bool","name":"workerWon","type":"bool"}],"name":"DisputeResolved","type":"event"},{"anonymous":false,"inputs":[{"indexed":true,"internalType":"address","name":"user","type":"address"},{"indexed":false,"internalType":"uint8","name":"oldScore","type":"uint8"},{"indexed":false,"internalType":"uint8","name":"newScore","type":"uint8"},{"indexed":false,"internalType":"string","name":"reason","type":"string"}],"name":"ScoreChanged","type":"event"},{"anonymous":false,"inputs":[{"indexed":true,"internalType":"address","name":"user","type":"address"}],"name":"ScoreInitialized","type":"event"},{"anonymous":false,"inputs":[{"indexed":true,"internalType":"uint256","name":"jobId","type":"uint256"},{"indexed":true,"internalType":"address","name":"voter","type":"address"},{"indexed":false,"internalType":"bool","name":"voteForWorker","type":"bool"}],"name":"Voted","type":"event"},{"anonymous":false,"inputs":[{"indexed":true,"internalType":"uint256","name":"jobId","type":"uint256"},{"indexed":false,"internalType":"address[]","name":"voters","type":"address[]"}],"name":"VoterSelected","type":"event"},{"inputs":[],"name":"APPROVE_TIMEOUT","outputs":[{"internalType":"uint256","name":"","type":"uint256"}],"stateMutability":"view","type":"function"},{"inputs":[],"name":"FUND_TIMEOUT","outputs":[{"internalType":"uint256","name":"","type":"uint256"}],"stateMutability":"view","type":"function"},{"inputs":[],"name":"GHOST_SCAM_THRESHOLD","outputs":[{"internalType":"uint256","name":"","type":"uint256"}],"stateMutability":"view","type":"function"},{"inputs":[],"name":"INIT_SCORE","outputs":[{"internalType":"uint8","name":"","type":"uint8"}],"stateMutability":"view","type":"function"},{"inputs":[],"name":"MAX_SCORE","outputs":[{"internalType":"uint8","name":"","type":"uint8"}],"stateMutability":"view","type":"function"},{"inputs":[],"name":"MIN_SCORE","outputs":[{"internalType":"uint8","name":"","type":"uint8"}],"stateMutability":"view","type":"function"},{"inputs":[],"name":"SCAM_THRESHOLD","outputs":[{"internalType":"uint256","name":"","type":"uint256"}],"stateMutability":"view","type":"function"},{"inputs":[],"name":"SERIAL_CANCEL_THRESHOLD","outputs":[{"internalType":"uint256","name":"","type":"uint256"}],"stateMutability":"view","type":"function"},{"inputs":[],"name":"SUBMIT_TIMEOUT","outputs":[{"internalType":"uint256","name":"","type":"uint256"}],"stateMutability":"view","type":"function"},{"inputs":[],"name":"VOTER_THRESHOLD","outputs":[{"internalType":"uint8","name":"","type":"uint8"}],"stateMutability":"view","type":"function"},{"inputs":[],"name":"VOTE_DURATION","outputs":[{"internalType":"uint256","name":"","type":"uint256"}],"stateMutability":"view","type":"function"},{"inputs":[{"internalType":"uint256","name":"jobId","type":"uint256"}],"name":"acceptJob","outputs":[],"stateMutability":"nonpayable","type":"function"},{"inputs":[{"internalType":"uint256","name":"jobId","type":"uint256"},{"internalType":"uint8","name":"_rating","type":"uint8"},{"internalType":"string","name":"_comment","type":"string"}],"name":"approveJob","outputs":[],"stateMutability":"nonpayable","type":"function"},{"inputs":[{"internalType":"uint256","name":"jobId","type":"uint256"}],"name":"autoReleaseIfNotApproved","outputs":[],"stateMutability":"nonpayable","type":"function"},{"inputs":[{"internalType":"address","name":"","type":"address"},{"internalType":"uint256","name":"","type":"uint256"}],"name":"badgeCount","outputs":[{"internalType":"uint256","name":"","type":"uint256"}],"stateMutability":"view","type":"function"},{"inputs":[{"internalType":"uint256","name":"jobId","type":"uint256"}],"name":"cancelIfNotStarted","outputs":[],"stateMutability":"nonpayable","type":"function"},{"inputs":[{"internalType":"uint256","name":"jobId","type":"uint256"}],"name":"cancelIfNotSubmitted","outputs":[],"stateMutability":"nonpayable","type":"function"},{"inputs":[{"internalType":"uint256","name":"jobId","type":"uint256"}],"name":"cancelJob","outputs":[],"stateMutability":"nonpayable","type":"function"},{"inputs":[{"internalType":"uint256","name":"jobId","type":"uint256"},{"internalType":"bool","name":"voteForWorker","type":"bool"}],"name":"castVote","outputs":[],"stateMutability":"nonpayable","type":"function"},{"inputs":[{"internalType":"string","name":"_jobHash","type":"string"},{"internalType":"uint256","name":"_pay","type":"uint256"},{"internalType":"uint256","name":"_deadline","type":"uint256"}],"name":"createJob","outputs":[],"stateMutability":"nonpayable","type":"function"},{"inputs":[{"internalType":"uint256","name":"","type":"uint256"}],"name":"disputes","outputs":[{"internalType":"uint256","name":"jobId","type":"uint256"},{"internalType":"address","name":"initiator","type":"address"},{"internalType":"string","name":"evidenceHash","type":"string"},{"internalType":"string","name":"counterHash","type":"string"},{"internalType":"uint8","name":"voterCount","type":"uint8"},{"internalType":"uint8","name":"votesForWorker","type":"uint8"},{"internalType":"uint8","name":"votesForClient","type":"uint8"},{"internalType":"uint256","name":"deadline","type":"uint256"},{"internalType":"bool","name":"resolved","type":"bool"},{"internalType":"bool","name":"workerWon","type":"bool"}],"stateMutability":"view","type":"function"},{"inputs":[{"internalType":"uint256","name":"","type":"uint256"}],"name":"feedbacks","outputs":[{"internalType":"address","name":"client","type":"address"},{"internalType":"address","name":"worker","type":"address"},{"internalType":"uint8","name":"rating","type":"uint8"},{"internalType":"string","name":"comment","type":"string"}],"stateMutability":"view","type":"function"},{"inputs":[{"internalType":"uint256","name":"jobId","type":"uint256"}],"name":"fundJob","outputs":[],"stateMutability":"payable","type":"function"},{"inputs":[{"internalType":"address","name":"user","type":"address"},{"internalType":"enum BadgeManager.BadgeType","name":"badgeType","type":"uint8"}],"name":"getBadgeCount","outputs":[{"internalType":"uint256","name":"","type":"uint256"}],"stateMutability":"view","type":"function"},{"inputs":[{"internalType":"address","name":"user","type":"address"}],"name":"getBadges","outputs":[{"internalType":"enum BadgeManager.BadgeType[]","name":"types","type":"uint8[]"},{"internalType":"uint256[]","name":"jobIds","type":"uint256[]"},{"internalType":"uint256[]","name":"timestamps","type":"uint256[]"},{"internalType":"string[]","name":"notes","type":"string[]"}],"stateMutability":"view","type":"function"},{"inputs":[{"internalType":"uint256","name":"jobId","type":"uint256"}],"name":"getDisputeVoters","outputs":[{"internalType":"address[5]","name":"","type":"address[5]"}],"stateMutability":"view","type":"function"},{"inputs":[],"name":"getMyRole","outputs":[{"internalType":"enum Auth.Role","name":"","type":"uint8"}],"stateMutability":"view","type":"function"},{"inputs":[{"internalType":"address","name":"worker","type":"address"}],"name":"getRating","outputs":[{"internalType":"uint256","name":"","type":"uint256"}],"stateMutability":"view","type":"function"},{"inputs":[{"internalType":"uint256","name":"jobId","type":"uint256"}],"name":"getVoteCount","outputs":[{"internalType":"uint8","name":"forWorker","type":"uint8"},{"internalType":"uint8","name":"forClient","type":"uint8"}],"stateMutability":"view","type":"function"},{"inputs":[{"internalType":"uint256","name":"","type":"uint256"},{"internalType":"address","name":"","type":"address"}],"name":"hasVoted","outputs":[{"internalType":"bool","name":"","type":"bool"}],"stateMutability":"view","type":"function"},{"inputs":[{"internalType":"address","name":"user","type":"address"}],"name":"isEligibleVoter","outputs":[{"internalType":"bool","name":"","type":"bool"}],"stateMutability":"view","type":"function"},{"inputs":[{"internalType":"address","name":"user","type":"address"}],"name":"isScammer","outputs":[{"internalType":"bool","name":"","type":"bool"}],"stateMutability":"view","type":"function"},{"inputs":[],"name":"jobCount","outputs":[{"internalType":"uint256","name":"","type":"uint256"}],"stateMutability":"view","type":"function"},{"inputs":[{"internalType":"uint256","name":"","type":"uint256"}],"name":"jobs","outputs":[{"internalType":"address","name":"client","type":"address"},{"internalType":"address","name":"worker","type":"address"},{"internalType":"uint256","name":"pay","type":"uint256"},{"internalType":"uint256","name":"deadline","type":"uint256"},{"internalType":"string","name":"jobHash","type":"string"},{"internalType":"string","name":"resultHash","type":"string"},{"internalType":"uint256","name":"fundedAt","type":"uint256"},{"internalType":"uint256","name":"acceptedAt","type":"uint256"},{"internalType":"uint256","name":"submittedAt","type":"uint256"},{"internalType":"enum JobStatus","name":"status","type":"uint8"}],"stateMutability":"view","type":"function"},{"inputs":[{"internalType":"uint256","name":"jobId","type":"uint256"},{"internalType":"string","name":"evidenceHash","type":"string"}],"name":"raiseDispute","outputs":[],"stateMutability":"nonpayable","type":"function"},{"inputs":[{"internalType":"address","name":"","type":"address"}],"name":"ratingCount","outputs":[{"internalType":"uint256","name":"","type":"uint256"}],"stateMutability":"view","type":"function"},{"inputs":[],"name":"registerClient","outputs":[],"stateMutability":"nonpayable","type":"function"},{"inputs":[],"name":"registerWorker","outputs":[],"stateMutability":"nonpayable","type":"function"},{"inputs":[{"internalType":"address","name":"","type":"address"}],"name":"reputationScore","outputs":[{"internalType":"uint8","name":"","type":"uint8"}],"stateMutability":"view","type":"function"},{"inputs":[{"internalType":"uint256","name":"jobId","type":"uint256"}],"name":"resolveDispute","outputs":[],"stateMutability":"nonpayable","type":"function"},{"inputs":[{"internalType":"address","name":"","type":"address"}],"name":"roles","outputs":[{"internalType":"enum Auth.Role","name":"","type":"uint8"}],"stateMutability":"view","type":"function"},{"inputs":[{"internalType":"uint256","name":"jobId","type":"uint256"}],"name":"startWork","outputs":[],"stateMutability":"nonpayable","type":"function"},{"inputs":[{"internalType":"uint256","name":"jobId","type":"uint256"},{"internalType":"string","name":"counterHash","type":"string"}],"name":"submitCounterEvidence","outputs":[],"stateMutability":"nonpayable","type":"function"},{"inputs":[{"internalType":"uint256","name":"jobId","type":"uint256"},{"internalType":"string","name":"_resultHash","type":"string"}],"name":"submitWork","outputs":[],"stateMutability":"nonpayable","type":"function"},{"inputs":[{"internalType":"address","name":"","type":"address"}],"name":"totalRating","outputs":[{"internalType":"uint256","name":"","type":"uint256"}],"stateMutability":"view","type":"function"},{"inputs":[{"internalType":"uint256","name":"","type":"uint256"},{"internalType":"address","name":"","type":"address"}],"name":"voteChoice","outputs":[{"internalType":"bool","name":"","type":"bool"}],"stateMutability":"view","type":"function"}],"evm":{"bytecode":{"linkReferences":{},"object":"6080806040523461001657614dd7908161001c8239f35b600080fdfe6080604052600436101561001257600080fd5b60003560e01c806303828e45146138a157806303a250f9146137e757806315373e3d146135285780631732d6521461347f578063180aedf3146133ab5780631965bb0f146102685780631dffa3dc1461338f578063208082bf146133375780632404165e146132fd578063247bc4a7146116715780632488b2ee146132e157806327ff6223146132c55780632bb8b0dc146132575780632d5928651461320f5780633dc9fe42146131f357806340b89270146131d75780634225e7f4146131aa578063438596321461315d5780634654ff05146131405780634807632f146131065780634c5d8a0f146130e85780634f0db62214612a4157806350d061cb146130ab578063564a565d14612fdc5780635aef573c14612a465780635d5a373c14612a4157806363b2f3c9146128fa57806366c910c8146125e857806369c04c441461259f5780636d9fb2871461253e5780636e3b47fc1461250c578063771dd58114611c1857806379c627111461185a57806380fc9c0e1461182f5780638721ba3f146117dd5780638d22b863146116bc57806399374642146116765780639ec0164a14611671578063b2c2f2e814611633578063c2b7b86814610d9d578063c5f8e299146109ff578063ca62fafd146106b3578063d0d2414214610445578063da8accf91461026d578063e72f73a8146102685763fb4688551461021657600080fd5b346102635760403660031901126102635761022f613add565b600435600052600760205260406000209060018060a01b0316600052602052602060ff604060002054166040519015158152f35b600080fd5b613cd6565b346102635761027b36613d8c565b906000526020600b815260406000209060016102a360018060a01b0382850154163314613ee9565b600983019360ff855416600981101561042f576003036103fa578051600585019390916001600160401b0383116103e4576102de8554613b67565b601f811161039b575b5081601f8411600114610335575092829391839260009461032a575b50501b916000199060031b1c19161790555b4260089190910155805460ff19166004179055005b015192508780610303565b919083601f1981168760005284600020946000905b888383106103815750505010610368575b505050811b019055610315565b015160001960f88460031b161c1916905585808061035b565b85870151885590960195948501948793509081019061034a565b8560005282600020601f850160051c8101918486106103da575b601f0160051c019085905b8281106103ce5750506102e7565b600081550185906103c0565b90915081906103b5565b634e487b7160e01b600052604160045260246000fd5b60405162461bcd60e51b815260048101849052600d60248201526c496e76616c696420737461746560981b6044820152606490fd5b634e487b7160e01b600052602160045260246000fd5b346102635761045336613d8c565b81600052602090600b825260406000209060ff600960018060a01b039384815416331480156106a4575b610486906148b9565b015416600981101561042f57600761049e9114614954565b8360005260058352604060002060019283820154166104c2600a830154151561498f565b6104d360ff600b84015416156148f4565b331461066257600301928354916104e983613b67565b610621578051926001600160401b0384116103e45761050790613b67565b601f81116105d8575b5081601f84116001146105725750928293918392600094610567575b50501b916000199060031b1c19161790555b33907f7878f55c48613e960719430c5332344cefc8c552f6afc747476ff85169f618fe600080a3005b01519250868061052c565b919083601f1981168760005284600020946000905b888383106105be57505050106105a5575b505050811b01905561053e565b015160001960f88460031b161c19169055848080610598565b858701518855909601959485019487935090810190610587565b8560005282600020601f850160051c810191848610610617575b601f0160051c019085905b82811061060b575050610510565b600081550185906105fd565b90915081906105f2565b60405162461bcd60e51b815260048101839052601960248201527810dbdd5b9d195c88185b1c9958591e481cdd589b5a5d1d1959603a1b6044820152606490fd5b60405162461bcd60e51b815260048101859052601a60248201527943616e6e6f7420636f756e746572206f776e206469737075746560301b6044820152606490fd5b5060018101548516331461047d565b3461026357602080600319360112610263576004359081600052600b81526040600020916009830191825460ff8116600981101561042f5760026106f79114613f22565b60006007860194610718610711875460038a015490613f5d565b4211613f6a565b600160ff19938416811790915595860180546001600160a01b0319811690915594556040516001600160a01b0390941693849061075481613bf2565b601b81527a1ddbdc9ad95c97d858d8d95c1d195917db9bdd17dcdd185c9d1959602a1b848201526000828152808552604090205460ff16600581116109d45790600080516020614d82833981519152916107cf6000925b8560005260008852604060002060ff85168882541617905560405193849384614ac1565b0390a26107da613fa2565b9084600052600883526040600020604051906107f582613ba1565b600082528482018681526040830191428352606084019586528054600160401b8110156103e45761082a918b82018155613e6a565b9390936109be5751600e81101561042f5760ff6003958554169116178355518883015551600282015501905180519060018060401b0382116103e45781906108728454613b67565b601f811161096b575b508490601f8311600114610908576000926108fd575b5050600019600383901b1c191690861b1790555b8260005260098152604060002060008052815260406000209182549485018095116108e757600094600080516020614d628339815191529355604051908152a3005b634e487b7160e01b600052601160045260246000fd5b015190508780610891565b90889350601f1983169185600052866000209260005b88828210610955575050841161093c575b505050811b0190556108a5565b015160001960f88460031b161c1916905587808061092f565b8385015186558c9790950194938401930161091e565b9091508360005284600020601f840160051c8101918685106109b4575b84939291601f8b920160051c01915b8281106109a557505061087b565b600081558594508a9101610997565b9091508190610988565b634e487b7160e01b600052600060045260246000fd5b915060041982019060ff82116108e75786926107cf600080516020614d8283398151915293926107ab565b3461026357602080600319360112610263576004359081600052600b81526040600020600981019081549260ff8416600981101561042f576004610a43911461402e565b6008820154607881018091116108e757610a5f90421015613f6a565b600560ff19948516811790935581546040516001600160a01b039391841690610a8781613bf2565b601981527831b634b2b73a2fb4b3b737b932b22fb9bab136b4b9b9b4b7b760391b848201526000828152808552604090205460ff169060088211610d7657600080516020614d8283398151915291610b006000925b8560005260008852604060002060ff85168c82541617905560405193849384614ac1565b0390a28281541692604051610b1481613bd7565b602681527f446964206e6f7420726573706f6e6420616674657220776f726b65722073756284820152651b5a5d1d195960d21b60408201528460005260088452604060002096604051610b6681613ba1565b8781528581018a81526040820190428252606083019485528a54600160401b8110156103e457610b9d9060019c8d82018155613e6a565b9390936109be5751600e81101561042f5760ff6003958554169116178355518a83015551600282015501905180519060018060401b0382116103e4578190610be58454613b67565b601f8111610d25575b508690601f8311600114610cc257600092610cb7575b5050600019600383901b1c191690881b1790555b836000526009835260406000208560005283526040600020908154938785018095116108e757610c9f60009889988998600080516020614d6283398151915285610cb59e8c9b60029a55604051908152a385019183835416716a6f625f636f6d706c657465645f6175746f60701b60405192610c9384613bf2565b60128452830152614bab565b5416910154905af1610caf614093565b506140c3565b005b015190508a80610c04565b908a9350601f1983169185600052886000209260005b8a828210610d0f5750508411610cf6575b505050811b019055610c18565b015160001960f88460031b161c191690558a8080610ce9565b8385015186558e97909501949384019301610cd8565b9091508360005286600020601f84018a1c810191888510610d6c575b84939291601f8d92018c1c01915b828110610d5d575050610bee565b600081558594508c9101610d4f565b9091508190610d41565b60071982019160ff83116108e757610b00600080516020614d828339815191529392610adc565b3461026357602036600319011261026357600435600052600b60205260406000206009810160ff815416600981101561042f576007610ddc9114614954565b60043560005260056020526040600020600a81015492610dfd84151561498f565b600b82015493610e1060ff8616156148f4565b4210801590611608575b156115d057600160098301549461ff0060ff8760101c1660ff8860081c161160081b169061ffff19161717600b83015560405160ff8560101c1660ff8660081c161181527f5a87909bff68caaaaf0b3fd9c74eeccc928832f879315e5c6fb7a73612f26c0c602060043592a260005b60ff60098401541660ff821610156110f757610ea88160048501614944565b91905491600435600052600660205260406000209260039360018060a01b038284871b1c1660005260205260ff60406000205416156110eb576004356000526007602052604060002060018060a01b038284871b1c1660005260205260ff8860101c1660ff8960081c161160ff6040600020541615151460001461101f5760405191610f3383613bf2565b600f83526e766f7465645f636f72726563746c7960881b602084015260018060a01b038282871b1c16600052600060205260ff604060002054169261ffff868501116108e75760648061ffff8887011611600014610ff257600080516020614d82833981519152939291610fed97610fe492905b9390931b9390931c6001600160a01b031660008181526020819052604090819020805460ff191660ff861617905551909590938493909184614ac1565b0390a25b614933565b610e89565b50919060ff868501116108e757610fe4600080516020614d828339815191529387610fed98870190610fa7565b6040519161102c83613bf2565b600d83526c766f7465645f77726f6e676c7960981b602084015260018060a01b038282871b1c16600052600060205260ff6040600020541692838610156000146110bb57941b1c6001600160a01b0316600081815260208190526040808220805460ff1916905551610fed959293600080516020614d828339815191529391928392610fe49290919084614ac1565b919060ff6002198501116108e757610fe4600080516020614d8283398151915293610fed97600219870190610fa7565b5050610fed9150614933565b50828460ff199160088382541617905560ff808260101c169160081c16116000146113795781546001600160a01b039061113b9082166111356149c8565b90614c20565b80835416916040519061114d82613bf2565b6018825277131bdcdd081848191a5cdc1d5d1948185cc818db1a595b9d60421b602083015283600052600860205260406000206040519061118d82613ba1565b600782526020820160043581526040830191428352606084019586528054600160401b8110156103e4576111c691600182018155613e6a565b9390936109be5751600e81101561042f5760ff600395855416911617835551600183015551600282015501905180519060018060401b0382116103e457819061120f8454613b67565b601f8111611326575b50602090601f83116001146112c0576000926112b5575b50508160011b916000199060031b1c19161790555b816000526009602052604060002060076000526020526040600020805492600184018094116108e757610cb5946002600095946007879694879695879655600080516020614d6283398151915260206040516004358152a360018301610c9f828254166112af6149f0565b90614bab565b01519050868061122f565b6000858152602081209350601f198516905b81811061130e57509084600195949392106112f5575b505050811b019055611244565b015160001960f88460031b161c191690558680806112e8565b929360206001819287860151815501950193016112d2565b909150836000526020600020601f840160051c8101916020851061136f575b90601f859493920160051c01905b8181106113605750611218565b60008155849350600101611353565b9091508190611345565b6001820180546001600160a01b039182916113989083166111356149c8565b541691604051906113a882613bf2565b600e82526d4c6f73742061206469737075746560901b60208301528360005260086020526040600020604051906113de82613ba1565b600282526020820160043581526040830191428352606084019586528054600160401b8110156103e45761141791600182018155613e6a565b9390936109be5751600e81101561042f5760ff600395855416911617835551600183015551600282015501905180519060018060401b0382116103e45781906114608454613b67565b601f811161157d575b50602090601f83116001146115175760009261150c575b50508160011b916000199060031b1c19161790555b816000526009602052604060002060026000526020526040600020805492600184018094116108e757610cb59460026000959481879694879695879655600080516020614d6283398151915260206040516004358152a36114fb818454166112af6149f0565b825416910154905af1610caf614093565b015190508680611480565b6000858152602081209350601f198516905b818110611565575090846001959493921061154c575b505050811b019055611495565b015160001960f88460031b161c1916905586808061153f565b92936020600181928786015181550195019301611529565b909150836000526020600020601f840160051c810191602085106115c6575b90601f859493920160051c01905b8181106115b75750611469565b600081558493506001016115aa565b909150819061159c565b60405162461bcd60e51b815260206004820152601060248201526f159bdd1a5b99c81b9bdd08195b99195960821b6044820152606490fd5b50600982015460ff8160101c1660ff8260081c16019060ff82116108e75760ff809116911614610e1a565b346102635760203660031901126102635760043560005260056020526040600981600020015460ff825191818160081c16835260101c166020820152f35b613cf2565b34610263576020366003190112610263576001600160a01b03611697613ac7565b1660005260046020526116b860ff6040600020541660405191829182613dbe565b0390f35b60208060031936011261026357600435600052600b81526040600020336000526004825260ff60406000205416600381101561042f5760016116fe9114613eb0565b80546001600160a01b031633036117ac57600981019081549060ff8216600981101561042f576117795760028101543403611745574260069091015560ff19166001179055005b60405162461bcd60e51b815260048101859052600c60248201526b15dc9bdb99c8185b5bdd5b9d60a21b6044820152606490fd5b60405162461bcd60e51b815260048101859052600b60248201526a139bdd0810dc99585d195960aa1b6044820152606490fd5b60405162461bcd60e51b81526004810183905260096024820152682737ba1037bbb732b960b91b6044820152606490fd5b34610263576040366003190112610263576117f6613ac7565b60243590600e8210156102635760018060a01b031660005260096020526040600020906000526020526020604060002054604051908152f35b3461026357602036600319011261026357602061185261184d613ac7565b614868565b604051908152f35b34610263576060366003190112610263576004356001600160401b0381116102635761188a903690600401613d45565b33600052600460205260ff60406000205416600381101561042f5760016118b19114613eb0565b6040519061014082016001600160401b038111838210176103e457604052338252600060208301526024356040830152604435606083015260808201526040516020810181811060018060401b038211176103e4576040526000815260a0820152600060c0820152600060e082015260006101008201526000610120820152600a54600052600b60205260406000209060018060a01b038082511660018060a01b031990818554161784556001840191602084015116908254161790556040810151600283015560608101516003830155608081015191825160018060401b0381116103e4576119a46004830154613b67565b601f8111611bd1575b506020601f8211600114611b635781929394600092611b58575b50508160011b916000199060031b1c19161760048201555b60a08201518051906001600160401b0382116103e457611a026005840154613b67565b601f8111611b0d575b50602090601f8311600114611a975791806101209492600994600092611a8c575b50508160011b916000199060031b1c19161760058201555b60c0840151600682015560e08401516007820155610100840151600882015501910151600981101561042f5760ff80198354169116179055611a87600a54613e5b565b600a55005b015190508680611a2c565b906005840160005260206000209160005b601f1985168110611af5575092610120949260019260099583601f19811610611adc575b505050811b016005820155611a44565b015160001960f88460031b161c19169055868080611acc565b91926020600181928685015181550194019201611aa8565b600584016000526020600020601f840160051c81019160208510611b4e575b601f0160051c01905b818110611b425750611a0b565b60008155600101611b35565b9091508190611b2c565b0151905084806119c7565b6004830160005260206000209060005b601f1984168110611bb95750600193949583601f19811610611ba0575b505050811b0160048201556119df565b015160001960f88460031b161c19169055848080611b90565b9091602060018192858a015181550193019101611b73565b600483016000526020600020601f830160051c810160208410611c11575b601f830160051c82018110611c055750506119ad565b60008155600101611bef565b5080611bef565b346102635760603660031901126102635760243560ff81168103610263576044356001600160401b03811161026357611c55903690600401613d45565b90600435600052600b60205260406000209160018060a01b03835416611c7c813314613eb0565b60098401805460ff8116600981101561042f576004611c9b911461402e565b600160ff86161015806124fe575b156124c85760ff19166005179055604051611cc381613bd7565b602281527f52656c6961626c6520636c69656e74207769746820636c65616e20686973746f602082015261727960f01b6040820152816000526008602052604060002060405191611d1383613ba1565b600c8352600435602084015242604084015260608301528054600160401b8110156103e457611d4791600182018155613e6a565b9190916109be57805190600e82101561042f5760609160ff801985541691161783556020810151600184015560408101516002840155015180519060018060401b0382116103e457611d9c6003840154613b67565b601f8111612481575b50602090601f8311600114612412576003929160009183612407575b50508160011b9160001990841b1c1916179101555b8060005260096020526040600020600c6000526020526040600020908154916001830183116108e7576001600c93019055600080516020614d6283398151915260206040516004358152a3611e56604051611e3081613bf2565b601381527231b634b2b73a2fb0b8383937bb32b22fb537b160691b602082015233614ae2565b600460ff8316106120da57600183018054611eb59190611e81906001600160a01b03166112af61406a565b54604051906001600160a01b0316611e9882613bf2565b600b82526a676f6f645f726174696e6760a81b6020830152614ae2565b600183015460405191906001600160a01b0316611ed183613ba1565b338352602080840191825260ff85166040808601918252606086019485526004356000908152600c909352909120935184546001600160a01b0319166001600160a01b03918216178555915160018501805492516001600160a81b0319909316919093161760a09190911b60ff60a01b16179055518051906001600160401b0382116103e457611f646002840154613b67565b601f8111612093575b50602090601f831160011461202557600292916000918361201a575b50508160011b916000199060031b1c1916179101555b60018060a01b03600183015416600052600d602052611fc760ff604060002092168254613f5d565b905560018060a01b03600182015416600052600e6020526040600020805491600183018093116108e75760008080809386610cb59655600260018060a01b03600183015416910154905af1610caf614093565b015190508680611f89565b90601f198316916002850160005260206000209260005b81811061207b57509160019391856002969410612062575b505050811b01910155611f9f565b015160001960f88460031b161c19169055868080612054565b9293602060018192878601518155019501930161203c565b600284016000526020600020601f840160051c8101602085106120d3575b601f830160051c820181106120c7575050611f6d565b600081556001016120b1565b50806120b1565b600260ff8316116123e85760018301546120ff906001600160a01b03166112af61406a565b60018060a01b0360018401541660405161211881613bf2565b600a8152696261645f726174696e6760b01b602082015281600052600060205260ff604060002054169081600710156000146123be57600080516020614d828339815191529161218c6000925b856000526000602052604060002060ff851660ff1982541617905560405193849384614ac1565b0390a260018060a01b036001840154166040516121a881613bf2565b601b81527a52656365697665642031206f722032207374617220726174696e6760281b60208201528160005260086020526040600020604051916121eb83613ba1565b60018352600435602084015242604084015260608301528054600160401b8110156103e45761221f91600182018155613e6a565b9190916109be57805190600e82101561042f5760609160ff801985541691161783556020810151600184015560408101516002840155015180519060018060401b0382116103e4576122746003840154613b67565b601f8111612377575b50602090601f83116001146123085760039291600091836122fd575b50508160011b9160001990841b1c1916179101555b806000526009602052604060002060016000526020526040600020908154916001830183116108e75760018093019055600080516020614d6283398151915260206040516004358152a3611eb5565b015190508880612299565b906003840160005260206000209160005b601f198516811061235f5750918391600193600395601f19811610612347575b505050811b019101556122ae565b015160001983861b60f8161c19169055888080612339565b91926020600181928685015181550194019201612319565b600384016000526020600020601f840160051c8101602085106123b7575b601f830160051c820181106123ab57505061227d565b60008155600101612395565b5080612395565b60ff6006198301116108e757600080516020614d828339815191529161218c600619820192612165565b6001830154612402906001600160a01b03166112af61406a565b611eb5565b015190508880611dc1565b906003840160005260206000209160005b601f19851681106124695750918391600193600395601f19811610612451575b505050811b01910155611dd6565b015160001983861b60f8161c19169055888080612443565b91926020600181928685015181550194019201612423565b600384016000526020600020601f840160051c8101602085106124c1575b601f830160051c820181106124b5575050611da5565b6000815560010161249f565b508061249f565b60405162461bcd60e51b815260206004820152600e60248201526d496e76616c696420726174696e6760901b6044820152606490fd5b50600560ff86161115611ca9565b34610263576000366003190112610263573360005260046020526116b860ff6040600020541660405191829182613dbe565b346102635760003660031901126102635733600052600460205260ff60406000205416600381101561042f576125749015613dd1565b3360005260046020526040600020600160ff1982541617905561259633614a17565b610cb533614ce8565b34610263576020366003190112610263576001600160a01b036125c0613ac7565b1660005260096020526040600020600a60005260205260206040600020541515604051908152f35b34610263576020806003193601126102635760043580600052600b82526040600020906009820180549060ff8216600981101561042f576003036128c3576007840154607881018091116108e75761264290421015613f6a565b60ff199182166006179055600183810180546040516001600160a01b0396928792909161269591841661267482613bf2565b601082526f1ddbdc9ad95c97d858985b991bdb995960821b8b830152614c20565b5416926126a0613fa2565b9084600052600888526040600020604051906126bb82613ba1565b600082528982018881526040830191428352606084019586528054600160401b8110156103e4576126f0918982018155613e6a565b9390936109be5751600e81101561042f5760ff6003958554169116178355518683015551600282015501905180519060018060401b0382116103e45781906127388454613b67565b601f8111612870575b508990601f831160011461280d57600092612802575b5050600019600383901b1c191690841b1790555b82600052600986526040600020600080528652604060002080549283018093116108e75760009586809695600080516020614d628339815191528a8398849860029755604051908152a3825416910154905af16127c6614093565b50156127ce57005b6064906040519062461bcd60e51b82526004820152600d60248201526c1499599d5b990819985a5b1959609a1b6044820152fd5b015190508980612757565b90869350601f19831691856000528b6000209260005b8d82821061285a5750508411612841575b505050811b01905561276b565b015160001960f88460031b161c19169055898080612834565b8385015186558a97909501949384019301612823565b9091508360005289600020601f840160051c8101918b85106128b9575b84939291601f89920160051c01915b8281106128aa575050612741565b6000815585945088910161289c565b909150819061288d565b60405162461bcd60e51b815260048101869052600f60248201526e4e6f7420696e2070726f677265737360881b6044820152606490fd5b346102635760208060031936011261026357600435600052600b81526040600020336000526004825260ff60406000205416600381101561042f5760026129419114613ee9565b600981019081549060ff8216600981101561042f57600103612a0f5780546001600160a01b0390811633146129d4576001820190815490811661299f576001600160a01b03191633179055426007919091015560ff19166002179055005b60405162461bcd60e51b815260048101879052600d60248201526c20b63932b0b23c903a30b5b2b760991b6044820152606490fd5b60405162461bcd60e51b815260048101869052601360248201527221b0b73737ba103a30b5b29037bbb7103537b160691b6044820152606490fd5b60405162461bcd60e51b815260048101859052600a602482015269139bdd08199d5b99195960b21b6044820152606490fd5b613d0e565b3461026357612a5436613d8c565b6000828152600b6020526040902080546001600160a01b0316903382148015612fc6575b612a81906148b9565b60098101805460ff8116600981101561042f5760048114908115612fbb575b5015612f7a5760079060ff19161790556001808060a01b039101541690836000526005602052604060002092612add60ff600b86015416156148f4565b600a840154612f3c578484556001840180546001600160a01b031916331790558051906001600160401b0382116103e4578190612b1d6002870154613b67565b601f8111612ee9575b50602090601f8311600114612e7c57600092612e71575b50508160011b916000199060031b1c19161760028401555b61012c42018042116108e757600a840155604051602081019042825244604082015285606082015260608152612b8a81613ba1565b51902091600254612b9a81613e29565b9260009260005b838110612dff575050505060058110600014612df45760ff8116909493945b612bcc60ff8316613e29565b93612bd682613e29565b9360005b838110612dc757505060005b60ff84168110612cfd5787878760ff815116600984019060ff19825416179055600460009301925b815160ff821690811015612c6857612c639190610fe8906001600160a01b0390612c389086613e9c565b5116612c448388614944565b90919082549060031b9160018060a01b03809116831b921b1916179055565b612c0e565b50506040519033837f84a477df8a28a4276ca6dee4458a06c3015f30c477d9c949ede4e13ff8a552b4600080a36020820160208352815180915260206040840192019060005b818110612cde57857faaf49c3b93c6f3a66b3ad89750cfdbb3fe0be786559ef1298f6e6cb97756633786860387a2005b82516001600160a01b0316845260209384019390920191600101612cae565b604097969751602081019083825282604082015260408152612d1e81613bd7565b51902090808403908482116108e757808514612db157612d45612da79260ff940682613f5d565b612d826001600160a01b03612d5a848b613e9c565b5116916001600160a01b03612d6f828c613e9c565b5116612d7b858c613e9c565b5289613e9c565b526001600160a01b03612d958289613e9c565b5116612da1828a613e9c565b52613e5b565b9050969596612be6565b634e487b7160e01b600052601260045260246000fd5b969796612dec906001600160a01b03612de08285613e9c565b5116612da18289613e9c565b979697612bda565b600590949394612bc0565b612e0881614ccd565b905460039190911b1c6001600160a01b03168381141580612e67575b80612e58575b612e3e575b50612e3990613e5b565b612ba1565b85612e5191612da1612e3994988a613e9c565b9490612e2f565b50612e6281614cad565b612e2a565b5082811415612e24565b015190508680612b3d565b600287016000908152602081209350601f198516905b818110612ed15750908460019594939210612eb8575b505050811b016002840155612b55565b015160001960f88460031b161c19169055868080612ea8565b92936020600181928786015181550195019301612e92565b909150600286016000526020600020601f840160051c810160208510612f35575b90849392915b601f830160051c82018110612f26575050612b26565b60008155859450600101612f10565b5080612f0a565b60405162461bcd60e51b8152602060048201526016602482015275111a5cdc1d5d1948185b1c9958591e481c985a5cd95960521b6044820152606490fd5b60405162461bcd60e51b8152602060048201526019602482015278496e76616c696420737461746520666f72206469737075746560381b6044820152606490fd5b600391501487612aa0565b5060018101546001600160a01b03163314612a78565b34610263576020366003190112610263576004356000908152600560205260409020805460018201546001600160a01b03169160ff61301d60028301613c30565b61302960038401613c30565b928261306e600983015495613060600b600a860154950154956040519a8b9a8b5260208b01526101408060408c01528a0190613b27565b9088820360608a0152613b27565b948181166080880152818160081c1660a088015260101c1660c086015260e0850152818116151561010085015260081c1615156101208301520390f35b34610263576020366003190112610263576001600160a01b036130cc613ac7565b166000526000602052602060ff60406000205416604051908152f35b34610263576000366003190112610263576020600a54604051908152f35b34610263576020366003190112610263576001600160a01b03613127613ac7565b16600052600d6020526020604060002054604051908152f35b3461026357600036600319011261026357602060405161012c8152f35b3461026357604036600319011261026357613176613add565b600435600052600660205260406000209060018060a01b0316600052602052602060ff604060002054166040519015158152f35b346102635760203660031901126102635760206131cd6131c8613ac7565b614cad565b6040519015158152f35b3461026357600036600319011261026357602060405160008152f35b34610263576000366003190112610263576020604051603c8152f35b34610263576040366003190112610263576001600160a01b03613230613ac7565b16600052600960205260406000206024356000526020526020604060002054604051908152f35b3461026357602036600319011261026357600435600052600c602052604060002060018060a01b03906116b8828254169160ff61329b600260018401549301613c30565b9160405195869586528116602086015260a01c166040840152608060608401526080830190613b27565b3461026357600036600319011261026357602060405160648152f35b3461026357600036600319011261026357602060405160058152f35b34610263576020366003190112610263576001600160a01b0361331e613ac7565b16600052600e6020526020604060002054604051908152f35b346102635760003660031901126102635733600052600460205260ff60406000205416600381101561042f5761336d9015613dd1565b3360005260046020526040600020600260ff1982541617905561259633614a17565b3461026357602036600319011261026357610cb5600435614101565b3461026357602036600319011261026357600435600052600b602052604060002060018060a01b03908181541691600182015416906002810154906003810154916134596133fb60048401613c30565b61344b61340a60058601613c30565b9160068601549660078701549560ff600960088a015499015416996040519b8c5260208c015260408b015260608a01526101408060808b0152890190613b27565b9087820360a0890152613b27565b9260c086015260e0850152610100840152600982101561042f5782916101208301520390f35b34610263576020806003193601126102635760a060405161349f81613bbc565b36903760043560005260058082526004604060002001916040519283826000915b85831061350857505050506134d483613bbc565b60405192600090845b8483106134e95760a086f35b81516001600160a01b03168152600192909201919083019083016134dd565b83546001600160a01b0316815260019384019392909201918491016134c0565b34610263576040366003190112610263576024803580151590600435908281036102635781600052602090600b825260ff806009604060002001541660098110156137d25760076135799114614954565b8360005260058352604060002091600a830154801561379a576135a283600b86015416156148f4565b4210156137605784600052600684526040600020336000528452816040600020541661372c576000809360098101946004858754169201905b82868216106136ee575b505050156136b357847ff2913dbe661ee2acc4a046d8fbcdc792373bda34c41c6086484b5345e5785e5f95969750600052600684526040600020336000528452604060002060ff19906001828254161790558660005260078552604060002033600052855260406000209081541683891617905560001461368c5761ff006136738354928360081c16614933565b60081b169061ff0019161790555b6040519384523393a3005b62ff00006136a08354928360101c16614933565b60101b169062ff00001916179055613681565b60405162461bcd60e51b815260048101859052601481890152732737ba10309039b2b632b1ba32b2103b37ba32b960611b6044820152606490fd5b6136f88183614944565b905460039190911b1c6001600160a01b0316331461371e5761371990614933565b6135db565b5050505060018880806135e5565b60405162461bcd60e51b815260048101859052600d818901526c105b1c9958591e481d9bdd1959609a1b6044820152606490fd5b60405162461bcd60e51b81526004810185905260138189015272159bdd1a5b99c81c195c9a5bd908195b991959606a1b6044820152606490fd5b60405162461bcd60e51b8152600481018690526011818a0152704e6f20646973707574652065786973747360781b6044820152606490fd5b86634e487b7160e01b60005260216004526000fd5b3461026357602036600319011261026357600435600052600b602052604060002061381f60018060a01b036001830154163314613ee9565b600981019081549060ff821690600982101561042f5761384460026138549314613f22565b6003600782015491015490613f5d565b42116138655760ff19166003179055005b60405162461bcd60e51b815260206004820152601460248201527314dd185c9d081dda5b991bddc8195e1c1a5c995960621b6044820152606490fd5b3461026357602080600319360112610263576001600160a01b036138c3613ac7565b166000526008815260406000208054906138dc82613e12565b916138ea6040519384613c0d565b8083526138f681613e12565b90848401601f1980930136823761390c82613e29565b61391583613e29565b9261391f81613e12565b9561392d6040519788613c0d565b8187528561393a83613e12565b0160005b818110613ab857505060005b828110613a1f57505050604051956080870190608088525180915260a08701929060005b8181106139f8575050508161398d918761399b95940389890152613af3565b908582036040870152613af3565b93838503606085015282519081865280860181808460051b8901019501936000975b8489106139ca5787870388f35b90919293949584806139e6838686600196030188528a51613b27565b980194019801979190949392946139bd565b909193849996995190600e82101561042f579081529598958901938901919060010161396e565b60ff613a2e82849c999c613e6a565b50541690613a3c818b613e9c565b91600e81101561042f57613ab092526001613a578285613e6a565b500154613a648287613e9c565b526002613a718285613e6a565b500154613a7e8289613e9c565b52613a956003613a8e8386613e6a565b5001613c30565b613a9f828b613e9c565b52613aaa818a613e9c565b50613e5b565b98959861394a565b60608982018c01528a0161393e565b600435906001600160a01b038216820361026357565b602435906001600160a01b038216820361026357565b90815180825260208080930193019160005b828110613b13575050505090565b835185529381019392810192600101613b05565b919082519283825260005b848110613b53575050826000602080949584010152601f8019910116010190565b602081830181015184830182015201613b32565b90600182811c92168015613b97575b6020831014613b8157565b634e487b7160e01b600052602260045260246000fd5b91607f1691613b76565b608081019081106001600160401b038211176103e457604052565b60a081019081106001600160401b038211176103e457604052565b606081019081106001600160401b038211176103e457604052565b604081019081106001600160401b038211176103e457604052565b601f909101601f19168101906001600160401b038211908210176103e457604052565b9060405191826000825492613c4484613b67565b908184526001948581169081600014613cb35750600114613c70575b5050613c6e92500383613c0d565b565b9093915060005260209081600020936000915b818310613c9b575050613c6e93508201013880613c60565b85548884018501529485019487945091830191613c83565b915050613c6e94506020925060ff191682840152151560051b8201013880613c60565b3461026357600036600319011261026357602060405160038152f35b3461026357600036600319011261026357602060405160508152f35b3461026357600036600319011261026357602060405160788152f35b6001600160401b0381116103e457601f01601f191660200190565b81601f8201121561026357803590613d5c82613d2a565b92613d6a6040519485613c0d565b8284526020838301011161026357816000926020809301838601378301015290565b9060406003198301126102635760043591602435906001600160401b03821161026357613dbb91600401613d45565b90565b91906020830192600382101561042f5752565b15613dd857565b60405162461bcd60e51b8152602060048201526012602482015271105b1c9958591e481c9959da5cdd195c995960721b6044820152606490fd5b6001600160401b0381116103e45760051b60200190565b90613e3382613e12565b613e406040519182613c0d565b8281528092613e51601f1991613e12565b0190602036910137565b60001981146108e75760010190565b8054821015613e865760005260206000209060021b0190600090565b634e487b7160e01b600052603260045260246000fd5b8051821015613e865760209160051b010190565b15613eb757565b60405162461bcd60e51b815260206004820152600a602482015269139bdd0818db1a595b9d60b21b6044820152606490fd5b15613ef057565b60405162461bcd60e51b815260206004820152600a6024820152692737ba103bb7b935b2b960b11b6044820152606490fd5b15613f2957565b60405162461bcd60e51b815260206004820152600c60248201526b139bdd081858d8d95c1d195960a21b6044820152606490fd5b919082018092116108e757565b15613f7157565b60405162461bcd60e51b8152602060048201526009602482015268546f6f206561726c7960b81b6044820152606490fd5b604051613fae81613bd7565b602581527f4163636570746564206f7220696e2d70726f6772657373206a6f62206162616e602082015264191bdb995960da1b604082015290565b604051613ff581613bd7565b602381527f43616e63656c6c6564206a6f6220616674657220776f726b65722061636365706020820152621d195960ea1b604082015290565b1561403557565b60405162461bcd60e51b815260206004820152600d60248201526c139bdd081cdd589b5a5d1d1959609a1b6044820152606490fd5b6040519061407782613bf2565b600d82526c1a9bd897d8dbdb5c1b195d1959609a1b6020830152565b3d156140be573d906140a482613d2a565b916140b26040519384613c0d565b82523d6000602084013e565b606090565b156140ca57565b60405162461bcd60e51b815260206004820152600f60248201526e151c985b9cd9995c8819985a5b1959608a1b6044820152606490fd5b6000818152600b6020526040902080546001600160a01b0316614125338214613eb0565b6009820190815460ff8116600981101561042f57600114614821575050805460ff8116600981101561042f5760021461419b5760405162461bcd60e51b815260206004820152601b60248201527a43616e6e6f742063616e63656c206174207468697320737461676560281b6044820152606490fd5b60ff19166006179055600181015481546001600160a01b039182169291166141c1613fe9565b816000526008602052604060002090604051916141dd83613ba1565b60088352602083018781526040840191428352606085019384528054600160401b8110156103e45761421491600182018155613e6a565b9490946109be5751600e81101561042f5760ff801986541691161784555160018401555160028301555180519060018060401b0382116103e45761425b6003840154613b67565b601f81116147da575b50602090601f831160011461476b576003929160009183614760575b50508160011b9160001990841b1c1916179101555b80600052600960205260406000206008600052602052604060002080546001810181116108e7576001019055600881600080516020614d628339815191526020604051888152a3806000526009602052604060002060086000526020526005604060002054101561450d575b50600080808061432594600260018060a01b03825416910154905af1610caf614093565b61432d613fe9565b816000526008602052604060002060405161434781613ba1565b6008815260208101918583526040820190428252606083019485528054600160401b8110156103e45761437f91600182018155613e6a565b9290926109be575192600e84101561042f5760039360ff8019855416911617835551600183015551600282015501905180519060018060401b0382116103e45781906143cb8454613b67565b601f81116144ba575b50602090601f831160011461445457600092614449575b50508160011b916000199060031b1c19161790555b806000526009602052604060002060086000526020526040600020805490600182018092116108e757600893600080516020614d628339815191529260209255604051908152a3565b0151905038806143eb565b6000858152602081209350601f198516905b8181106144a25750908460019594939210614489575b505050811b019055614400565b015160001960f88460031b161c1916905538808061447c565b92936020600181928786015181550195019301614466565b909150836000526020600020601f840160051c81019160208510614503575b90601f859493920160051c01905b8181106144f457506143d4565b600081558493506001016144e7565b90915081906144d9565b8060005260096020526040600020600a600052602052604060002054614301579060405161453a81613bf2565b601c81527b233630b3b3b2b21030b9903837ba32b73a34b0b61039b1b0b6b6b2b960211b602082015282600052600860205260406000206040519161457e83613ba1565b600a83526000602084015242604084015260608301528054600160401b8110156103e4576145b191600182018155613e6a565b9190916109be57805190600e82101561042f5760609160ff801985541691161783556020810151600184015560408101516002840155015180519060018060401b0382116103e4576146066003840154613b67565b601f8111614719575b50602090601f83116001146146aa57600392916000918361469f575b50508160011b9160001990841b1c1916179101555b8160005260096020526040600020600a6000526020526040600020918254906001820182116108e75760008093600a8294936143259760018596019055600080516020614d628339815191526020604051868152a39450505050614301565b01519050388061462b565b906003840160005260206000209160005b601f19851681106147015750918391600193600395601f198116106146e9575b505050811b01910155614640565b015160001983861b60f8161c191690553880806146db565b919260206001819286850151815501940192016146bb565b600384016000526020600020601f840160051c810160208510614759575b601f830160051c8201811061474d57505061460f565b60008155600101614737565b5080614737565b015190503880614280565b906003840160005260206000209160005b601f19851681106147c25750918391600193600395601f198116106147aa575b505050811b01910155614295565b015160001983861b60f8161c1916905538808061479c565b9192602060018192868501518155019401920161477c565b600384016000526020600020601f840160051c81016020851061481a575b601f830160051c8201811061480e575050614264565b600081556001016147f8565b50806147f8565b92919093506006820154603c81018091116108e757613c6e94600260009594869594600687966148548897421015613f6a565b60ff19161790550154905af1610caf614093565b6001600160a01b03166000908152600e602052604081205415613dbb57600d6020526040812054600e60205260408220549182156148a557500490565b634e487b7160e01b81526012600452602490fd5b156148c057565b60405162461bcd60e51b815260206004820152600c60248201526b139bdd081a5b9d9bdb1d995960a21b6044820152606490fd5b156148fb57565b60405162461bcd60e51b815260206004820152601060248201526f105b1c9958591e481c995cdbdb1d995960821b6044820152606490fd5b60ff1660ff81146108e75760010190565b6005821015613e86570190600090565b1561495b57565b60405162461bcd60e51b815260206004820152600c60248201526b139bdd08191a5cdc1d5d195960a21b6044820152606490fd5b1561499657565b60405162461bcd60e51b815260206004820152600a6024820152694e6f206469737075746560b01b6044820152606490fd5b604051906149d582613bf2565b600c82526b6c6f73745f6469737075746560a01b6020830152565b604051906149fd82613bf2565b600b82526a776f6e5f6469737075746560a81b6020830152565b6001600160a01b031660008181526001602052604081205460ff16614a865780827f5d95448edae7bcc3f04ceed898bf2926c2e56c8de7c6a57d3b90539b1ff037a69252806020526040812060ff199060508282541617905560016020526001604083209182541617905580a2565b60405162461bcd60e51b8152602060048201526013602482015272105b1c9958591e481a5b9a5d1a585b1a5e9959606a1b6044820152606490fd5b60ff613dbb9493816060941683521660208201528160408201520190613b27565b6001600160a01b03166000818152602081905260408120549192909160ff16906005820161ffff808211614b975760649082161115614b5d575090614b58600080516020614d82833981519152939260406064945b878152806020522060ff851660ff1982541617905560405193849384614ac1565b0390a2565b60ff8111614b8357600080516020614d828339815191529392916040614b589294614b37565b634e487b7160e01b84526011600452602484fd5b634e487b7160e01b85526011600452602485fd5b6001600160a01b03166000818152602081905260408120549192909160ff1690600a820161ffff808211614b975760649082161115614b5d575090614b58600080516020614d8283398151915293926040606494878152806020522060ff851660ff1982541617905560405193849384614ac1565b6001600160a01b03166000818152602081905260408120549192909160ff1690600a8211614c825790614b5883926040600080516020614d828339815191529594878152806020522060ff851660ff1982541617905560405193849384614ac1565b600919820160ff8111614b8357600080516020614d828339815191529392916040614b589294614b37565b60018060a01b03166000526000602052605060ff60406000205416101590565b600254811015613e8657600260005260206000200190600090565b6001600160a01b03811660008181526003602052604081205490929060ff1615614d1157505050565b600254600160401b811015614d4d576040939291612c44826001614d389401600255614ccd565b8152600360205220805460ff19166001179055565b634e487b7160e01b84526041600452602484fdfed4df0cb969b99d25f121a3e9c7f32d8fcc5a0d782408695f68de9493db8cc177bbf5ee5eee34326c6c2d38c9b7ceeb7a8e3ee460657a93dd17fac3e82b141d57a26469706673582212201043ec525239ce0328e290f7651f9afd62a36776edad9da16876e34ba7dc6fcc64736f6c63430008140033","opcodes":"PUSH1 0x80 DUP1 PUSH1 0x40 MSTORE CALLVALUE PUSH2 0x16 JUMPI PUSH2 0x4DD7 SWAP1 DUP2 PUSH2 0x1C DUP3 CODECOPY RETURN JUMPDEST PUSH1 0x0 DUP1 REVERT INVALID PUSH1 0x80 PUSH1 0x40 MSTORE PUSH1 0x4 CALLDATASIZE LT ISZERO PUSH2 0x12 JUMPI PUSH1 0x0 DUP1 REVERT JUMPDEST PUSH1 0x0 CALLDATALOAD PUSH1 0xE0 SHR DUP1 PUSH4 0x3828E45 EQ PUSH2 0x38A1 JUMPI DUP1 PUSH4 0x3A250F9 EQ PUSH2 0x37E7 JUMPI DUP1 PUSH4 0x15373E3D EQ PUSH2 0x3528 JUMPI DUP1 PUSH4 0x1732D652 EQ PUSH2 0x347F JUMPI DUP1 PUSH4 0x180AEDF3 EQ PUSH2 0x33AB JUMPI DUP1 PUSH4 0x1965BB0F EQ PUSH2 0x268 JUMPI DUP1 PUSH4 0x1DFFA3DC EQ PUSH2 0x338F JUMPI DUP1 PUSH4 0x208082BF EQ PUSH2 0x3337 JUMPI DUP1 PUSH4 0x2404165E EQ PUSH2 0x32FD JUMPI DUP1 PUSH4 0x247BC4A7 EQ PUSH2 0x1671 JUMPI DUP1 PUSH4 0x2488B2EE EQ PUSH2 0x32E1 JUMPI DUP1 PUSH4 0x27FF6223 EQ PUSH2 0x32C5 JUMPI DUP1 PUSH4 0x2BB8B0DC EQ PUSH2 0x3257 JUMPI DUP1 PUSH4 0x2D592865 EQ PUSH2 0x320F JUMPI DUP1 PUSH4 0x3DC9FE42 EQ PUSH2 0x31F3 JUMPI DUP1 PUSH4 0x40B89270 EQ PUSH2 0x31D7 JUMPI DUP1 PUSH4 0x4225E7F4 EQ PUSH2 0x31AA JUMPI DUP1 PUSH4 0x43859632 EQ PUSH2 0x315D JUMPI DUP1 PUSH4 0x4654FF05 EQ PUSH2 0x3140 JUMPI DUP1 PUSH4 0x4807632F EQ PUSH2 0x3106 JUMPI DUP1 PUSH4 0x4C5D8A0F EQ PUSH2 0x30E8 JUMPI DUP1 PUSH4 0x4F0DB622 EQ PUSH2 0x2A41 JUMPI DUP1 PUSH4 0x50D061CB EQ PUSH2 0x30AB JUMPI DUP1 PUSH4 0x564A565D EQ PUSH2 0x2FDC JUMPI DUP1 PUSH4 0x5AEF573C EQ PUSH2 0x2A46 JUMPI DUP1 PUSH4 0x5D5A373C EQ PUSH2 0x2A41 JUMPI DUP1 PUSH4 0x63B2F3C9 EQ PUSH2 0x28FA JUMPI DUP1 PUSH4 0x66C910C8 EQ PUSH2 0x25E8 JUMPI DUP1 PUSH4 0x69C04C44 EQ PUSH2 0x259F JUMPI DUP1 PUSH4 0x6D9FB287 EQ PUSH2 0x253E JUMPI DUP1 PUSH4 0x6E3B47FC EQ PUSH2 0x250C JUMPI DUP1 PUSH4 0x771DD581 EQ PUSH2 0x1C18 JUMPI DUP1 PUSH4 0x79C62711 EQ PUSH2 0x185A JUMPI DUP1 PUSH4 0x80FC9C0E EQ PUSH2 0x182F JUMPI DUP1 PUSH4 0x8721BA3F EQ PUSH2 0x17DD JUMPI DUP1 PUSH4 0x8D22B863 EQ PUSH2 0x16BC JUMPI DUP1 PUSH4 0x99374642 EQ PUSH2 0x1676 JUMPI DUP1 PUSH4 0x9EC0164A EQ PUSH2 0x1671 JUMPI DUP1 PUSH4 0xB2C2F2E8 EQ PUSH2 0x1633 JUMPI DUP1 PUSH4 0xC2B7B868 EQ PUSH2 0xD9D JUMPI DUP1 PUSH4 0xC5F8E299 EQ PUSH2 0x9FF JUMPI DUP1 PUSH4 0xCA62FAFD EQ PUSH2 0x6B3 JUMPI DUP1 PUSH4 0xD0D24142 EQ PUSH2 0x445 JUMPI DUP1 PUSH4 0xDA8ACCF9 EQ PUSH2 0x26D JUMPI DUP1 PUSH4 0xE72F73A8 EQ PUSH2 0x268 JUMPI PUSH4 0xFB468855 EQ PUSH2 0x216 JUMPI PUSH1 0x0 DUP1 REVERT JUMPDEST CALLVALUE PUSH2 0x263 JUMPI PUSH1 0x40 CALLDATASIZE PUSH1 0x3 NOT ADD SLT PUSH2 0x263 JUMPI PUSH2 0x22F PUSH2 0x3ADD JUMP JUMPDEST PUSH1 0x4 CALLDATALOAD PUSH1 0x0 MSTORE PUSH1 0x7 PUSH1 0x20 MSTORE PUSH1 0x40 PUSH1 0x0 KECCAK256 SWAP1 PUSH1 0x1 DUP1 PUSH1 0xA0 SHL SUB AND PUSH1 0x0 MSTORE PUSH1 0x20 MSTORE PUSH1 0x20 PUSH1 0xFF PUSH1 0x40 PUSH1 0x0 KECCAK256 SLOAD AND PUSH1 0x40 MLOAD SWAP1 ISZERO ISZERO DUP2 MSTORE RETURN JUMPDEST PUSH1 0x0 DUP1 REVERT JUMPDEST PUSH2 0x3CD6 JUMP JUMPDEST CALLVALUE PUSH2 0x263 JUMPI PUSH2 0x27B CALLDATASIZE PUSH2 0x3D8C JUMP JUMPDEST SWAP1 PUSH1 0x0 MSTORE PUSH1 0x20 PUSH1 0xB DUP2 MSTORE PUSH1 0x40 PUSH1 0x0 KECCAK256 SWAP1 PUSH1 0x1 PUSH2 0x2A3 PUSH1 0x1 DUP1 PUSH1 0xA0 SHL SUB DUP3 DUP6 ADD SLOAD AND CALLER EQ PUSH2 0x3EE9 JUMP JUMPDEST PUSH1 0x9 DUP4 ADD SWAP4 PUSH1 0xFF DUP6 SLOAD AND PUSH1 0x9 DUP2 LT ISZERO PUSH2 0x42F JUMPI PUSH1 0x3 SUB PUSH2 0x3FA JUMPI DUP1 MLOAD PUSH1 0x5 DUP6 ADD SWAP4 SWAP1 SWAP2 PUSH1 0x1 PUSH1 0x1 PUSH1 0x40 SHL SUB DUP4 GT PUSH2 0x3E4 JUMPI PUSH2 0x2DE DUP6 SLOAD PUSH2 0x3B67 JUMP JUMPDEST PUSH1 0x1F DUP2 GT PUSH2 0x39B JUMPI JUMPDEST POP DUP2 PUSH1 0x1F DUP5 GT PUSH1 0x1 EQ PUSH2 0x335 JUMPI POP SWAP3 DUP3 SWAP4 SWAP2 DUP4 SWAP3 PUSH1 0x0 SWAP5 PUSH2 0x32A JUMPI JUMPDEST POP POP SHL SWAP2 PUSH1 0x0 NOT SWAP1 PUSH1 0x3 SHL SHR NOT AND OR SWAP1 SSTORE JUMPDEST TIMESTAMP PUSH1 0x8 SWAP2 SWAP1 SWAP2 ADD SSTORE DUP1 SLOAD PUSH1 0xFF NOT AND PUSH1 0x4 OR SWAP1 SSTORE STOP JUMPDEST ADD MLOAD SWAP3 POP DUP8 DUP1 PUSH2 0x303 JUMP JUMPDEST SWAP2 SWAP1 DUP4 PUSH1 0x1F NOT DUP2 AND DUP8 PUSH1 0x0 MSTORE DUP5 PUSH1 0x0 KECCAK256 SWAP5 PUSH1 0x0 SWAP1 JUMPDEST DUP9 DUP4 DUP4 LT PUSH2 0x381 JUMPI POP POP POP LT PUSH2 0x368 JUMPI JUMPDEST POP POP POP DUP2 SHL ADD SWAP1 SSTORE PUSH2 0x315 JUMP JUMPDEST ADD MLOAD PUSH1 0x0 NOT PUSH1 0xF8 DUP5 PUSH1 0x3 SHL AND SHR NOT AND SWAP1 SSTORE DUP6 DUP1 DUP1 PUSH2 0x35B JUMP JUMPDEST DUP6 DUP8 ADD MLOAD DUP9 SSTORE SWAP1 SWAP7 ADD SWAP6 SWAP5 DUP6 ADD SWAP5 DUP8 SWAP4 POP SWAP1 DUP2 ADD SWAP1 PUSH2 0x34A JUMP JUMPDEST DUP6 PUSH1 0x0 MSTORE DUP3 PUSH1 0x0 KECCAK256 PUSH1 0x1F DUP6 ADD PUSH1 0x5 SHR DUP2 ADD SWAP2 DUP5 DUP7 LT PUSH2 0x3DA JUMPI JUMPDEST PUSH1 0x1F ADD PUSH1 0x5 SHR ADD SWAP1 DUP6 SWAP1 JUMPDEST DUP3 DUP2 LT PUSH2 0x3CE JUMPI POP POP PUSH2 0x2E7 JUMP JUMPDEST PUSH1 0x0 DUP2 SSTORE ADD DUP6 SWAP1 PUSH2 0x3C0 JUMP JUMPDEST SWAP1 SWAP2 POP DUP2 SWAP1 PUSH2 0x3B5 JUMP JUMPDEST PUSH4 0x4E487B71 PUSH1 0xE0 SHL PUSH1 0x0 MSTORE PUSH1 0x41 PUSH1 0x4 MSTORE PUSH1 0x24 PUSH1 0x0 REVERT JUMPDEST PUSH1 0x40 MLOAD PUSH3 0x461BCD PUSH1 0xE5 SHL DUP2 MSTORE PUSH1 0x4 DUP2 ADD DUP5 SWAP1 MSTORE PUSH1 0xD PUSH1 0x24 DUP3 ADD MSTORE PUSH13 0x496E76616C6964207374617465 PUSH1 0x98 SHL PUSH1 0x44 DUP3 ADD MSTORE PUSH1 0x64 SWAP1 REVERT JUMPDEST PUSH4 0x4E487B71 PUSH1 0xE0 SHL PUSH1 0x0 MSTORE PUSH1 0x21 PUSH1 0x4 MSTORE PUSH1 0x24 PUSH1 0x0 REVERT JUMPDEST CALLVALUE PUSH2 0x263 JUMPI PUSH2 0x453 CALLDATASIZE PUSH2 0x3D8C JUMP JUMPDEST DUP2 PUSH1 0x0 MSTORE PUSH1 0x20 SWAP1 PUSH1 0xB DUP3 MSTORE PUSH1 0x40 PUSH1 0x0 KECCAK256 SWAP1 PUSH1 0xFF PUSH1 0x9 PUSH1 0x1 DUP1 PUSH1 0xA0 SHL SUB SWAP4 DUP5 DUP2 SLOAD AND CALLER EQ DUP1 ISZERO PUSH2 0x6A4 JUMPI JUMPDEST PUSH2 0x486 SWAP1 PUSH2 0x48B9 JUMP JUMPDEST ADD SLOAD AND PUSH1 0x9 DUP2 LT ISZERO PUSH2 0x42F JUMPI PUSH1 0x7 PUSH2 0x49E SWAP2 EQ PUSH2 0x4954 JUMP JUMPDEST DUP4 PUSH1 0x0 MSTORE PUSH1 0x5 DUP4 MSTORE PUSH1 0x40 PUSH1 0x0 KECCAK256 PUSH1 0x1 SWAP3 DUP4 DUP3 ADD SLOAD AND PUSH2 0x4C2 PUSH1 0xA DUP4 ADD SLOAD ISZERO ISZERO PUSH2 0x498F JUMP JUMPDEST PUSH2 0x4D3 PUSH1 0xFF PUSH1 0xB DUP5 ADD SLOAD AND ISZERO PUSH2 0x48F4 JUMP JUMPDEST CALLER EQ PUSH2 0x662 JUMPI PUSH1 0x3 ADD SWAP3 DUP4 SLOAD SWAP2 PUSH2 0x4E9 DUP4 PUSH2 0x3B67 JUMP JUMPDEST PUSH2 0x621 JUMPI DUP1 MLOAD SWAP3 PUSH1 0x1 PUSH1 0x1 PUSH1 0x40 SHL SUB DUP5 GT PUSH2 0x3E4 JUMPI PUSH2 0x507 SWAP1 PUSH2 0x3B67 JUMP JUMPDEST PUSH1 0x1F DUP2 GT PUSH2 0x5D8 JUMPI JUMPDEST POP DUP2 PUSH1 0x1F DUP5 GT PUSH1 0x1 EQ PUSH2 0x572 JUMPI POP SWAP3 DUP3 SWAP4 SWAP2 DUP4 SWAP3 PUSH1 0x0 SWAP5 PUSH2 0x567 JUMPI JUMPDEST POP POP SHL SWAP2 PUSH1 0x0 NOT SWAP1 PUSH1 0x3 SHL SHR NOT AND OR SWAP1 SSTORE JUMPDEST CALLER SWAP1 PUSH32 0x7878F55C48613E960719430C5332344CEFC8C552F6AFC747476FF85169F618FE PUSH1 0x0 DUP1 LOG3 STOP JUMPDEST ADD MLOAD SWAP3 POP DUP7 DUP1 PUSH2 0x52C JUMP JUMPDEST SWAP2 SWAP1 DUP4 PUSH1 0x1F NOT DUP2 AND DUP8 PUSH1 0x0 MSTORE DUP5 PUSH1 0x0 KECCAK256 SWAP5 PUSH1 0x0 SWAP1 JUMPDEST DUP9 DUP4 DUP4 LT PUSH2 0x5BE JUMPI POP POP POP LT PUSH2 0x5A5 JUMPI JUMPDEST POP POP POP DUP2 SHL ADD SWAP1 SSTORE PUSH2 0x53E JUMP JUMPDEST ADD MLOAD PUSH1 0x0 NOT PUSH1 0xF8 DUP5 PUSH1 0x3 SHL AND SHR NOT AND SWAP1 SSTORE DUP5 DUP1 DUP1 PUSH2 0x598 JUMP JUMPDEST DUP6 DUP8 ADD MLOAD DUP9 SSTORE SWAP1 SWAP7 ADD SWAP6 SWAP5 DUP6 ADD SWAP5 DUP8 SWAP4 POP SWAP1 DUP2 ADD SWAP1 PUSH2 0x587 JUMP JUMPDEST DUP6 PUSH1 0x0 MSTORE DUP3 PUSH1 0x0 KECCAK256 PUSH1 0x1F DUP6 ADD PUSH1 0x5 SHR DUP2 ADD SWAP2 DUP5 DUP7 LT PUSH2 0x617 JUMPI JUMPDEST PUSH1 0x1F ADD PUSH1 0x5 SHR ADD SWAP1 DUP6 SWAP1 JUMPDEST DUP3 DUP2 LT PUSH2 0x60B JUMPI POP POP PUSH2 0x510 JUMP JUMPDEST PUSH1 0x0 DUP2 SSTORE ADD DUP6 SWAP1 PUSH2 0x5FD JUMP JUMPDEST SWAP1 SWAP2 POP DUP2 SWAP1 PUSH2 0x5F2 JUMP JUMPDEST PUSH1 0x40 MLOAD PUSH3 0x461BCD PUSH1 0xE5 SHL DUP2 MSTORE PUSH1 0x4 DUP2 ADD DUP4 SWAP1 MSTORE PUSH1 0x19 PUSH1 0x24 DUP3 ADD MSTORE PUSH25 0x10DBDD5B9D195C88185B1C9958591E481CDD589B5A5D1D1959 PUSH1 0x3A SHL PUSH1 0x44 DUP3 ADD MSTORE PUSH1 0x64 SWAP1 REVERT JUMPDEST PUSH1 0x40 MLOAD PUSH3 0x461BCD PUSH1 0xE5 SHL DUP2 MSTORE PUSH1 0x4 DUP2 ADD DUP6 SWAP1 MSTORE PUSH1 0x1A PUSH1 0x24 DUP3 ADD MSTORE PUSH26 0x43616E6E6F7420636F756E746572206F776E2064697370757465 PUSH1 0x30 SHL PUSH1 0x44 DUP3 ADD MSTORE PUSH1 0x64 SWAP1 REVERT JUMPDEST POP PUSH1 0x1 DUP2 ADD SLOAD DUP6 AND CALLER EQ PUSH2 0x47D JUMP JUMPDEST CALLVALUE PUSH2 0x263 JUMPI PUSH1 0x20 DUP1 PUSH1 0x3 NOT CALLDATASIZE ADD SLT PUSH2 0x263 JUMPI PUSH1 0x4 CALLDATALOAD SWAP1 DUP2 PUSH1 0x0 MSTORE PUSH1 0xB DUP2 MSTORE PUSH1 0x40 PUSH1 0x0 KECCAK256 SWAP2 PUSH1 0x9 DUP4 ADD SWAP2 DUP3 SLOAD PUSH1 0xFF DUP2 AND PUSH1 0x9 DUP2 LT ISZERO PUSH2 0x42F JUMPI PUSH1 0x2 PUSH2 0x6F7 SWAP2 EQ PUSH2 0x3F22 JUMP JUMPDEST PUSH1 0x0 PUSH1 0x7 DUP7 ADD SWAP5 PUSH2 0x718 PUSH2 0x711 DUP8 SLOAD PUSH1 0x3 DUP11 ADD SLOAD SWAP1 PUSH2 0x3F5D JUMP JUMPDEST TIMESTAMP GT PUSH2 0x3F6A JUMP JUMPDEST PUSH1 0x1 PUSH1 0xFF NOT SWAP4 DUP5 AND DUP2 OR SWAP1 SWAP2 SSTORE SWAP6 DUP7 ADD DUP1 SLOAD PUSH1 0x1 PUSH1 0x1 PUSH1 0xA0 SHL SUB NOT DUP2 AND SWAP1 SWAP2 SSTORE SWAP5 SSTORE PUSH1 0x40 MLOAD PUSH1 0x1 PUSH1 0x1 PUSH1 0xA0 SHL SUB SWAP1 SWAP5 AND SWAP4 DUP5 SWAP1 PUSH2 0x754 DUP2 PUSH2 0x3BF2 JUMP JUMPDEST PUSH1 0x1B DUP2 MSTORE PUSH27 0x1DDBDC9AD95C97D858D8D95C1D195917DB9BDD17DCDD185C9D1959 PUSH1 0x2A SHL DUP5 DUP3 ADD MSTORE PUSH1 0x0 DUP3 DUP2 MSTORE DUP1 DUP6 MSTORE PUSH1 0x40 SWAP1 KECCAK256 SLOAD PUSH1 0xFF AND PUSH1 0x5 DUP2 GT PUSH2 0x9D4 JUMPI SWAP1 PUSH1 0x0 DUP1 MLOAD PUSH1 0x20 PUSH2 0x4D82 DUP4 CODECOPY DUP2 MLOAD SWAP2 MSTORE SWAP2 PUSH2 0x7CF PUSH1 0x0 SWAP3 JUMPDEST DUP6 PUSH1 0x0 MSTORE PUSH1 0x0 DUP9 MSTORE PUSH1 0x40 PUSH1 0x0 KECCAK256 PUSH1 0xFF DUP6 AND DUP9 DUP3 SLOAD AND OR SWAP1 SSTORE PUSH1 0x40 MLOAD SWAP4 DUP5 SWAP4 DUP5 PUSH2 0x4AC1 JUMP JUMPDEST SUB SWAP1 LOG2 PUSH2 0x7DA PUSH2 0x3FA2 JUMP JUMPDEST SWAP1 DUP5 PUSH1 0x0 MSTORE PUSH1 0x8 DUP4 MSTORE PUSH1 0x40 PUSH1 0x0 KECCAK256 PUSH1 0x40 MLOAD SWAP1 PUSH2 0x7F5 DUP3 PUSH2 0x3BA1 JUMP JUMPDEST PUSH1 0x0 DUP3 MSTORE DUP5 DUP3 ADD DUP7 DUP2 MSTORE PUSH1 0x40 DUP4 ADD SWAP2 TIMESTAMP DUP4 MSTORE PUSH1 0x60 DUP5 ADD SWAP6 DUP7 MSTORE DUP1 SLOAD PUSH1 0x1 PUSH1 0x40 SHL DUP2 LT ISZERO PUSH2 0x3E4 JUMPI PUSH2 0x82A SWAP2 DUP12 DUP3 ADD DUP2 SSTORE PUSH2 0x3E6A JUMP JUMPDEST SWAP4 SWAP1 SWAP4 PUSH2 0x9BE JUMPI MLOAD PUSH1 0xE DUP2 LT ISZERO PUSH2 0x42F JUMPI PUSH1 0xFF PUSH1 0x3 SWAP6 DUP6 SLOAD AND SWAP2 AND OR DUP4 SSTORE MLOAD DUP9 DUP4 ADD SSTORE MLOAD PUSH1 0x2 DUP3 ADD SSTORE ADD SWAP1 MLOAD DUP1 MLOAD SWAP1 PUSH1 0x1 DUP1 PUSH1 0x40 SHL SUB DUP3 GT PUSH2 0x3E4 JUMPI DUP2 SWAP1 PUSH2 0x872 DUP5 SLOAD PUSH2 0x3B67 JUMP JUMPDEST PUSH1 0x1F DUP2 GT PUSH2 0x96B JUMPI JUMPDEST POP DUP5 SWAP1 PUSH1 0x1F DUP4 GT PUSH1 0x1 EQ PUSH2 0x908 JUMPI PUSH1 0x0 SWAP3 PUSH2 0x8FD JUMPI JUMPDEST POP POP PUSH1 0x0 NOT PUSH1 0x3 DUP4 SWAP1 SHL SHR NOT AND SWAP1 DUP7 SHL OR SWAP1 SSTORE JUMPDEST DUP3 PUSH1 0x0 MSTORE PUSH1 0x9 DUP2 MSTORE PUSH1 0x40 PUSH1 0x0 KECCAK256 PUSH1 0x0 DUP1 MSTORE DUP2 MSTORE PUSH1 0x40 PUSH1 0x0 KECCAK256 SWAP2 DUP3 SLOAD SWAP5 DUP6 ADD DUP1 SWAP6 GT PUSH2 0x8E7 JUMPI PUSH1 0x0 SWAP5 PUSH1 0x0 DUP1 MLOAD PUSH1 0x20 PUSH2 0x4D62 DUP4 CODECOPY DUP2 MLOAD SWAP2 MSTORE SWAP4 SSTORE PUSH1 0x40 MLOAD SWAP1 DUP2 MSTORE LOG3 STOP JUMPDEST PUSH4 0x4E487B71 PUSH1 0xE0 SHL PUSH1 0x0 MSTORE PUSH1 0x11 PUSH1 0x4 MSTORE PUSH1 0x24 PUSH1 0x0 REVERT JUMPDEST ADD MLOAD SWAP1 POP DUP8 DUP1 PUSH2 0x891 JUMP JUMPDEST SWAP1 DUP9 SWAP4 POP PUSH1 0x1F NOT DUP4 AND SWAP2 DUP6 PUSH1 0x0 MSTORE DUP7 PUSH1 0x0 KECCAK256 SWAP3 PUSH1 0x0 JUMPDEST DUP9 DUP3 DUP3 LT PUSH2 0x955 JUMPI POP POP DUP5 GT PUSH2 0x93C JUMPI JUMPDEST POP POP POP DUP2 SHL ADD SWAP1 SSTORE PUSH2 0x8A5 JUMP JUMPDEST ADD MLOAD PUSH1 0x0 NOT PUSH1 0xF8 DUP5 PUSH1 0x3 SHL AND SHR NOT AND SWAP1 SSTORE DUP8 DUP1 DUP1 PUSH2 0x92F JUMP JUMPDEST DUP4 DUP6 ADD MLOAD DUP7 SSTORE DUP13 SWAP8 SWAP1 SWAP6 ADD SWAP5 SWAP4 DUP5 ADD SWAP4 ADD PUSH2 0x91E JUMP JUMPDEST SWAP1 SWAP2 POP DUP4 PUSH1 0x0 MSTORE DUP5 PUSH1 0x0 KECCAK256 PUSH1 0x1F DUP5 ADD PUSH1 0x5 SHR DUP2 ADD SWAP2 DUP7 DUP6 LT PUSH2 0x9B4 JUMPI JUMPDEST DUP5 SWAP4 SWAP3 SWAP2 PUSH1 0x1F DUP12 SWAP3 ADD PUSH1 0x5 SHR ADD SWAP2 JUMPDEST DUP3 DUP2 LT PUSH2 0x9A5 JUMPI POP POP PUSH2 0x87B JUMP JUMPDEST PUSH1 0x0 DUP2 SSTORE DUP6 SWAP5 POP DUP11 SWAP2 ADD PUSH2 0x997 JUMP JUMPDEST SWAP1 SWAP2 POP DUP2 SWAP1 PUSH2 0x988 JUMP JUMPDEST PUSH4 0x4E487B71 PUSH1 0xE0 SHL PUSH1 0x0 MSTORE PUSH1 0x0 PUSH1 0x4 MSTORE PUSH1 0x24 PUSH1 0x0 REVERT JUMPDEST SWAP2 POP PUSH1 0x4 NOT DUP3 ADD SWAP1 PUSH1 0xFF DUP3 GT PUSH2 0x8E7 JUMPI DUP7 SWAP3 PUSH2 0x7CF PUSH1 0x0 DUP1 MLOAD PUSH1 0x20 PUSH2 0x4D82 DUP4 CODECOPY DUP2 MLOAD SWAP2 MSTORE SWAP4 SWAP3 PUSH2 0x7AB JUMP JUMPDEST CALLVALUE PUSH2 0x263 JUMPI PUSH1 0x20 DUP1 PUSH1 0x3 NOT CALLDATASIZE ADD SLT PUSH2 0x263 JUMPI PUSH1 0x4 CALLDATALOAD SWAP1 DUP2 PUSH1 0x0 MSTORE PUSH1 0xB DUP2 MSTORE PUSH1 0x40 PUSH1 0x0 KECCAK256 PUSH1 0x9 DUP2 ADD SWAP1 DUP2 SLOAD SWAP3 PUSH1 0xFF DUP5 AND PUSH1 0x9 DUP2 LT ISZERO PUSH2 0x42F JUMPI PUSH1 0x4 PUSH2 0xA43 SWAP2 EQ PUSH2 0x402E JUMP JUMPDEST PUSH1 0x8 DUP3 ADD SLOAD PUSH1 0x78 DUP2 ADD DUP1 SWAP2 GT PUSH2 0x8E7 JUMPI PUSH2 0xA5F SWAP1 TIMESTAMP LT ISZERO PUSH2 0x3F6A JUMP JUMPDEST PUSH1 0x5 PUSH1 0xFF NOT SWAP5 DUP6 AND DUP2 OR SWAP1 SWAP4 SSTORE DUP2 SLOAD PUSH1 0x40 MLOAD PUSH1 0x1 PUSH1 0x1 PUSH1 0xA0 SHL SUB SWAP4 SWAP2 DUP5 AND SWAP1 PUSH2 0xA87 DUP2 PUSH2 0x3BF2 JUMP JUMPDEST PUSH1 0x19 DUP2 MSTORE PUSH25 0x31B634B2B73A2FB4B3B737B932B22FB9BAB136B4B9B9B4B7B7 PUSH1 0x39 SHL DUP5 DUP3 ADD MSTORE PUSH1 0x0 DUP3 DUP2 MSTORE DUP1 DUP6 MSTORE PUSH1 0x40 SWAP1 KECCAK256 SLOAD PUSH1 0xFF AND SWAP1 PUSH1 0x8 DUP3 GT PUSH2 0xD76 JUMPI PUSH1 0x0 DUP1 MLOAD PUSH1 0x20 PUSH2 0x4D82 DUP4 CODECOPY DUP2 MLOAD SWAP2 MSTORE SWAP2 PUSH2 0xB00 PUSH1 0x0 SWAP3 JUMPDEST DUP6 PUSH1 0x0 MSTORE PUSH1 0x0 DUP9 MSTORE PUSH1 0x40 PUSH1 0x0 KECCAK256 PUSH1 0xFF DUP6 AND DUP13 DUP3 SLOAD AND OR SWAP1 SSTORE PUSH1 0x40 MLOAD SWAP4 DUP5 SWAP4 DUP5 PUSH2 0x4AC1 JUMP JUMPDEST SUB SWAP1 LOG2 DUP3 DUP2 SLOAD AND SWAP3 PUSH1 0x40 MLOAD PUSH2 0xB14 DUP2 PUSH2 0x3BD7 JUMP JUMPDEST PUSH1 0x26 DUP2 MSTORE PUSH32 0x446964206E6F7420726573706F6E6420616674657220776F726B657220737562 DUP5 DUP3 ADD MSTORE PUSH6 0x1B5A5D1D1959 PUSH1 0xD2 SHL PUSH1 0x40 DUP3 ADD MSTORE DUP5 PUSH1 0x0 MSTORE PUSH1 0x8 DUP5 MSTORE PUSH1 0x40 PUSH1 0x0 KECCAK256 SWAP7 PUSH1 0x40 MLOAD PUSH2 0xB66 DUP2 PUSH2 0x3BA1 JUMP JUMPDEST DUP8 DUP2 MSTORE DUP6 DUP2 ADD DUP11 DUP2 MSTORE PUSH1 0x40 DUP3 ADD SWAP1 TIMESTAMP DUP3 MSTORE PUSH1 0x60 DUP4 ADD SWAP5 DUP6 MSTORE DUP11 SLOAD PUSH1 0x1 PUSH1 0x40 SHL DUP2 LT ISZERO PUSH2 0x3E4 JUMPI PUSH2 0xB9D SWAP1 PUSH1 0x1 SWAP13 DUP14 DUP3 ADD DUP2 SSTORE PUSH2 0x3E6A JUMP JUMPDEST SWAP4 SWAP1 SWAP4 PUSH2 0x9BE JUMPI MLOAD PUSH1 0xE DUP2 LT ISZERO PUSH2 0x42F JUMPI PUSH1 0xFF PUSH1 0x3 SWAP6 DUP6 SLOAD AND SWAP2 AND OR DUP4 SSTORE MLOAD DUP11 DUP4 ADD SSTORE MLOAD PUSH1 0x2 DUP3 ADD SSTORE ADD SWAP1 MLOAD DUP1 MLOAD SWAP1 PUSH1 0x1 DUP1 PUSH1 0x40 SHL SUB DUP3 GT PUSH2 0x3E4 JUMPI DUP2 SWAP1 PUSH2 0xBE5 DUP5 SLOAD PUSH2 0x3B67 JUMP JUMPDEST PUSH1 0x1F DUP2 GT PUSH2 0xD25 JUMPI JUMPDEST POP DUP7 SWAP1 PUSH1 0x1F DUP4 GT PUSH1 0x1 EQ PUSH2 0xCC2 JUMPI PUSH1 0x0 SWAP3 PUSH2 0xCB7 JUMPI JUMPDEST POP POP PUSH1 0x0 NOT PUSH1 0x3 DUP4 SWAP1 SHL SHR NOT AND SWAP1 DUP9 SHL OR SWAP1 SSTORE JUMPDEST DUP4 PUSH1 0x0 MSTORE PUSH1 0x9 DUP4 MSTORE PUSH1 0x40 PUSH1 0x0 KECCAK256 DUP6 PUSH1 0x0 MSTORE DUP4 MSTORE PUSH1 0x40 PUSH1 0x0 KECCAK256 SWAP1 DUP2 SLOAD SWAP4 DUP8 DUP6 ADD DUP1 SWAP6 GT PUSH2 0x8E7 JUMPI PUSH2 0xC9F PUSH1 0x0 SWAP9 DUP10 SWAP9 DUP10 SWAP9 PUSH1 0x0 DUP1 MLOAD PUSH1 0x20 PUSH2 0x4D62 DUP4 CODECOPY DUP2 MLOAD SWAP2 MSTORE DUP6 PUSH2 0xCB5 SWAP15 DUP13 SWAP12 PUSH1 0x2 SWAP11 SSTORE PUSH1 0x40 MLOAD SWAP1 DUP2 MSTORE LOG3 DUP6 ADD SWAP2 DUP4 DUP4 SLOAD AND PUSH18 0x6A6F625F636F6D706C657465645F6175746F PUSH1 0x70 SHL PUSH1 0x40 MLOAD SWAP3 PUSH2 0xC93 DUP5 PUSH2 0x3BF2 JUMP JUMPDEST PUSH1 0x12 DUP5 MSTORE DUP4 ADD MSTORE PUSH2 0x4BAB JUMP JUMPDEST SLOAD AND SWAP2 ADD SLOAD SWAP1 GAS CALL PUSH2 0xCAF PUSH2 0x4093 JUMP JUMPDEST POP PUSH2 0x40C3 JUMP JUMPDEST STOP JUMPDEST ADD MLOAD SWAP1 POP DUP11 DUP1 PUSH2 0xC04 JUMP JUMPDEST SWAP1 DUP11 SWAP4 POP PUSH1 0x1F NOT DUP4 AND SWAP2 DUP6 PUSH1 0x0 MSTORE DUP9 PUSH1 0x0 KECCAK256 SWAP3 PUSH1 0x0 JUMPDEST DUP11 DUP3 DUP3 LT PUSH2 0xD0F JUMPI POP POP DUP5 GT PUSH2 0xCF6 JUMPI JUMPDEST POP POP POP DUP2 SHL ADD SWAP1 SSTORE PUSH2 0xC18 JUMP JUMPDEST ADD MLOAD PUSH1 0x0 NOT PUSH1 0xF8 DUP5 PUSH1 0x3 SHL AND SHR NOT AND SWAP1 SSTORE DUP11 DUP1 DUP1 PUSH2 0xCE9 JUMP JUMPDEST DUP4 DUP6 ADD MLOAD DUP7 SSTORE DUP15 SWAP8 SWAP1 SWAP6 ADD SWAP5 SWAP4 DUP5 ADD SWAP4 ADD PUSH2 0xCD8 JUMP JUMPDEST SWAP1 SWAP2 POP DUP4 PUSH1 0x0 MSTORE DUP7 PUSH1 0x0 KECCAK256 PUSH1 0x1F DUP5 ADD DUP11 SHR DUP2 ADD SWAP2 DUP9 DUP6 LT PUSH2 0xD6C JUMPI JUMPDEST DUP5 SWAP4 SWAP3 SWAP2 PUSH1 0x1F DUP14 SWAP3 ADD DUP13 SHR ADD SWAP2 JUMPDEST DUP3 DUP2 LT PUSH2 0xD5D JUMPI POP POP PUSH2 0xBEE JUMP JUMPDEST PUSH1 0x0 DUP2 SSTORE DUP6 SWAP5 POP DUP13 SWAP2 ADD PUSH2 0xD4F JUMP JUMPDEST SWAP1 SWAP2 POP DUP2 SWAP1 PUSH2 0xD41 JUMP JUMPDEST PUSH1 0x7 NOT DUP3 ADD SWAP2 PUSH1 0xFF DUP4 GT PUSH2 0x8E7 JUMPI PUSH2 0xB00 PUSH1 0x0 DUP1 MLOAD PUSH1 0x20 PUSH2 0x4D82 DUP4 CODECOPY DUP2 MLOAD SWAP2 MSTORE SWAP4 SWAP3 PUSH2 0xADC JUMP JUMPDEST CALLVALUE PUSH2 0x263 JUMPI PUSH1 0x20 CALLDATASIZE PUSH1 0x3 NOT ADD SLT PUSH2 0x263 JUMPI PUSH1 0x4 CALLDATALOAD PUSH1 0x0 MSTORE PUSH1 0xB PUSH1 0x20 MSTORE PUSH1 0x40 PUSH1 0x0 KECCAK256 PUSH1 0x9 DUP2 ADD PUSH1 0xFF DUP2 SLOAD AND PUSH1 0x9 DUP2 LT ISZERO PUSH2 0x42F JUMPI PUSH1 0x7 PUSH2 0xDDC SWAP2 EQ PUSH2 0x4954 JUMP JUMPDEST PUSH1 0x4 CALLDATALOAD PUSH1 0x0 MSTORE PUSH1 0x5 PUSH1 0x20 MSTORE PUSH1 0x40 PUSH1 0x0 KECCAK256 PUSH1 0xA DUP2 ADD SLOAD SWAP3 PUSH2 0xDFD DUP5 ISZERO ISZERO PUSH2 0x498F JUMP JUMPDEST PUSH1 0xB DUP3 ADD SLOAD SWAP4 PUSH2 0xE10 PUSH1 0xFF DUP7 AND ISZERO PUSH2 0x48F4 JUMP JUMPDEST TIMESTAMP LT DUP1 ISZERO SWAP1 PUSH2 0x1608 JUMPI JUMPDEST ISZERO PUSH2 0x15D0 JUMPI PUSH1 0x1 PUSH1 0x9 DUP4 ADD SLOAD SWAP5 PUSH2 0xFF00 PUSH1 0xFF DUP8 PUSH1 0x10 SHR AND PUSH1 0xFF DUP9 PUSH1 0x8 SHR AND GT PUSH1 0x8 SHL AND SWAP1 PUSH2 0xFFFF NOT AND OR OR PUSH1 0xB DUP4 ADD SSTORE PUSH1 0x40 MLOAD PUSH1 0xFF DUP6 PUSH1 0x10 SHR AND PUSH1 0xFF DUP7 PUSH1 0x8 SHR AND GT DUP2 MSTORE PUSH32 0x5A87909BFF68CAAAAF0B3FD9C74EECCC928832F879315E5C6FB7A73612F26C0C PUSH1 0x20 PUSH1 0x4 CALLDATALOAD SWAP3 LOG2 PUSH1 0x0 JUMPDEST PUSH1 0xFF PUSH1 0x9 DUP5 ADD SLOAD AND PUSH1 0xFF DUP3 AND LT ISZERO PUSH2 0x10F7 JUMPI PUSH2 0xEA8 DUP2 PUSH1 0x4 DUP6 ADD PUSH2 0x4944 JUMP JUMPDEST SWAP2 SWAP1 SLOAD SWAP2 PUSH1 0x4 CALLDATALOAD PUSH1 0x0 MSTORE PUSH1 0x6 PUSH1 0x20 MSTORE PUSH1 0x40 PUSH1 0x0 KECCAK256 SWAP3 PUSH1 0x3 SWAP4 PUSH1 0x1 DUP1 PUSH1 0xA0 SHL SUB DUP3 DUP5 DUP8 SHL SHR AND PUSH1 0x0 MSTORE PUSH1 0x20 MSTORE PUSH1 0xFF PUSH1 0x40 PUSH1 0x0 KECCAK256 SLOAD AND ISZERO PUSH2 0x10EB JUMPI PUSH1 0x4 CALLDATALOAD PUSH1 0x0 MSTORE PUSH1 0x7 PUSH1 0x20 MSTORE PUSH1 0x40 PUSH1 0x0 KECCAK256 PUSH1 0x1 DUP1 PUSH1 0xA0 SHL SUB DUP3 DUP5 DUP8 SHL SHR AND PUSH1 0x0 MSTORE PUSH1 0x20 MSTORE PUSH1 0xFF DUP9 PUSH1 0x10 SHR AND PUSH1 0xFF DUP10 PUSH1 0x8 SHR AND GT PUSH1 0xFF PUSH1 0x40 PUSH1 0x0 KECCAK256 SLOAD AND ISZERO ISZERO EQ PUSH1 0x0 EQ PUSH2 0x101F JUMPI PUSH1 0x40 MLOAD SWAP2 PUSH2 0xF33 DUP4 PUSH2 0x3BF2 JUMP JUMPDEST PUSH1 0xF DUP4 MSTORE PUSH15 0x766F7465645F636F72726563746C79 PUSH1 0x88 SHL PUSH1 0x20 DUP5 ADD MSTORE PUSH1 0x1 DUP1 PUSH1 0xA0 SHL SUB DUP3 DUP3 DUP8 SHL SHR AND PUSH1 0x0 MSTORE PUSH1 0x0 PUSH1 0x20 MSTORE PUSH1 0xFF PUSH1 0x40 PUSH1 0x0 KECCAK256 SLOAD AND SWAP3 PUSH2 0xFFFF DUP7 DUP6 ADD GT PUSH2 0x8E7 JUMPI PUSH1 0x64 DUP1 PUSH2 0xFFFF DUP9 DUP8 ADD AND GT PUSH1 0x0 EQ PUSH2 0xFF2 JUMPI PUSH1 0x0 DUP1 MLOAD PUSH1 0x20 PUSH2 0x4D82 DUP4 CODECOPY DUP2 MLOAD SWAP2 MSTORE SWAP4 SWAP3 SWAP2 PUSH2 0xFED SWAP8 PUSH2 0xFE4 SWAP3 SWAP1 JUMPDEST SWAP4 SWAP1 SWAP4 SHL SWAP4 SWAP1 SWAP4 SHR PUSH1 0x1 PUSH1 0x1 PUSH1 0xA0 SHL SUB AND PUSH1 0x0 DUP2 DUP2 MSTORE PUSH1 0x20 DUP2 SWAP1 MSTORE PUSH1 0x40 SWAP1 DUP2 SWAP1 KECCAK256 DUP1 SLOAD PUSH1 0xFF NOT AND PUSH1 0xFF DUP7 AND OR SWAP1 SSTORE MLOAD SWAP1 SWAP6 SWAP1 SWAP4 DUP5 SWAP4 SWAP1 SWAP2 DUP5 PUSH2 0x4AC1 JUMP JUMPDEST SUB SWAP1 LOG2 JUMPDEST PUSH2 0x4933 JUMP JUMPDEST PUSH2 0xE89 JUMP JUMPDEST POP SWAP2 SWAP1 PUSH1 0xFF DUP7 DUP6 ADD GT PUSH2 0x8E7 JUMPI PUSH2 0xFE4 PUSH1 0x0 DUP1 MLOAD PUSH1 0x20 PUSH2 0x4D82 DUP4 CODECOPY DUP2 MLOAD SWAP2 MSTORE SWAP4 DUP8 PUSH2 0xFED SWAP9 DUP8 ADD SWAP1 PUSH2 0xFA7 JUMP JUMPDEST PUSH1 0x40 MLOAD SWAP2 PUSH2 0x102C DUP4 PUSH2 0x3BF2 JUMP JUMPDEST PUSH1 0xD DUP4 MSTORE PUSH13 0x766F7465645F77726F6E676C79 PUSH1 0x98 SHL PUSH1 0x20 DUP5 ADD MSTORE PUSH1 0x1 DUP1 PUSH1 0xA0 SHL SUB DUP3 DUP3 DUP8 SHL SHR AND PUSH1 0x0 MSTORE PUSH1 0x0 PUSH1 0x20 MSTORE PUSH1 0xFF PUSH1 0x40 PUSH1 0x0 KECCAK256 SLOAD AND SWAP3 DUP4 DUP7 LT ISZERO PUSH1 0x0 EQ PUSH2 0x10BB JUMPI SWAP5 SHL SHR PUSH1 0x1 PUSH1 0x1 PUSH1 0xA0 SHL SUB AND PUSH1 0x0 DUP2 DUP2 MSTORE PUSH1 0x20 DUP2 SWAP1 MSTORE PUSH1 0x40 DUP1 DUP3 KECCAK256 DUP1 SLOAD PUSH1 0xFF NOT AND SWAP1 SSTORE MLOAD PUSH2 0xFED SWAP6 SWAP3 SWAP4 PUSH1 0x0 DUP1 MLOAD PUSH1 0x20 PUSH2 0x4D82 DUP4 CODECOPY DUP2 MLOAD SWAP2 MSTORE SWAP4 SWAP2 SWAP3 DUP4 SWAP3 PUSH2 0xFE4 SWAP3 SWAP1 SWAP2 SWAP1 DUP5 PUSH2 0x4AC1 JUMP JUMPDEST SWAP2 SWAP1 PUSH1 0xFF PUSH1 0x2 NOT DUP6 ADD GT PUSH2 0x8E7 JUMPI PUSH2 0xFE4 PUSH1 0x0 DUP1 MLOAD PUSH1 0x20 PUSH2 0x4D82 DUP4 CODECOPY DUP2 MLOAD SWAP2 MSTORE SWAP4 PUSH2 0xFED SWAP8 PUSH1 0x2 NOT DUP8 ADD SWAP1 PUSH2 0xFA7 JUMP JUMPDEST POP POP PUSH2 0xFED SWAP2 POP PUSH2 0x4933 JUMP JUMPDEST POP DUP3 DUP5 PUSH1 0xFF NOT SWAP2 PUSH1 0x8 DUP4 DUP3 SLOAD AND OR SWAP1 SSTORE PUSH1 0xFF DUP1 DUP3 PUSH1 0x10 SHR AND SWAP2 PUSH1 0x8 SHR AND GT PUSH1 0x0 EQ PUSH2 0x1379 JUMPI DUP2 SLOAD PUSH1 0x1 PUSH1 0x1 PUSH1 0xA0 SHL SUB SWAP1 PUSH2 0x113B SWAP1 DUP3 AND PUSH2 0x1135 PUSH2 0x49C8 JUMP JUMPDEST SWAP1 PUSH2 0x4C20 JUMP JUMPDEST DUP1 DUP4 SLOAD AND SWAP2 PUSH1 0x40 MLOAD SWAP1 PUSH2 0x114D DUP3 PUSH2 0x3BF2 JUMP JUMPDEST PUSH1 0x18 DUP3 MSTORE PUSH24 0x131BDCDD081848191A5CDC1D5D1948185CC818DB1A595B9D PUSH1 0x42 SHL PUSH1 0x20 DUP4 ADD MSTORE DUP4 PUSH1 0x0 MSTORE PUSH1 0x8 PUSH1 0x20 MSTORE PUSH1 0x40 PUSH1 0x0 KECCAK256 PUSH1 0x40 MLOAD SWAP1 PUSH2 0x118D DUP3 PUSH2 0x3BA1 JUMP JUMPDEST PUSH1 0x7 DUP3 MSTORE PUSH1 0x20 DUP3 ADD PUSH1 0x4 CALLDATALOAD DUP2 MSTORE PUSH1 0x40 DUP4 ADD SWAP2 TIMESTAMP DUP4 MSTORE PUSH1 0x60 DUP5 ADD SWAP6 DUP7 MSTORE DUP1 SLOAD PUSH1 0x1 PUSH1 0x40 SHL DUP2 LT ISZERO PUSH2 0x3E4 JUMPI PUSH2 0x11C6 SWAP2 PUSH1 0x1 DUP3 ADD DUP2 SSTORE PUSH2 0x3E6A JUMP JUMPDEST SWAP4 SWAP1 SWAP4 PUSH2 0x9BE JUMPI MLOAD PUSH1 0xE DUP2 LT ISZERO PUSH2 0x42F JUMPI PUSH1 0xFF PUSH1 0x3 SWAP6 DUP6 SLOAD AND SWAP2 AND OR DUP4 SSTORE MLOAD PUSH1 0x1 DUP4 ADD SSTORE MLOAD PUSH1 0x2 DUP3 ADD SSTORE ADD SWAP1 MLOAD DUP1 MLOAD SWAP1 PUSH1 0x1 DUP1 PUSH1 0x40 SHL SUB DUP3 GT PUSH2 0x3E4 JUMPI DUP2 SWAP1 PUSH2 0x120F DUP5 SLOAD PUSH2 0x3B67 JUMP JUMPDEST PUSH1 0x1F DUP2 GT PUSH2 0x1326 JUMPI JUMPDEST POP PUSH1 0x20 SWAP1 PUSH1 0x1F DUP4 GT PUSH1 0x1 EQ PUSH2 0x12C0 JUMPI PUSH1 0x0 SWAP3 PUSH2 0x12B5 JUMPI JUMPDEST POP POP DUP2 PUSH1 0x1 SHL SWAP2 PUSH1 0x0 NOT SWAP1 PUSH1 0x3 SHL SHR NOT AND OR SWAP1 SSTORE JUMPDEST DUP2 PUSH1 0x0 MSTORE PUSH1 0x9 PUSH1 0x20 MSTORE PUSH1 0x40 PUSH1 0x0 KECCAK256 PUSH1 0x7 PUSH1 0x0 MSTORE PUSH1 0x20 MSTORE PUSH1 0x40 PUSH1 0x0 KECCAK256 DUP1 SLOAD SWAP3 PUSH1 0x1 DUP5 ADD DUP1 SWAP5 GT PUSH2 0x8E7 JUMPI PUSH2 0xCB5 SWAP5 PUSH1 0x2 PUSH1 0x0 SWAP6 SWAP5 PUSH1 0x7 DUP8 SWAP7 SWAP5 DUP8 SWAP7 SWAP6 DUP8 SWAP7 SSTORE PUSH1 0x0 DUP1 MLOAD PUSH1 0x20 PUSH2 0x4D62 DUP4 CODECOPY DUP2 MLOAD SWAP2 MSTORE PUSH1 0x20 PUSH1 0x40 MLOAD PUSH1 0x4 CALLDATALOAD DUP2 MSTORE LOG3 PUSH1 0x1 DUP4 ADD PUSH2 0xC9F DUP3 DUP3 SLOAD AND PUSH2 0x12AF PUSH2 0x49F0 JUMP JUMPDEST SWAP1 PUSH2 0x4BAB JUMP JUMPDEST ADD MLOAD SWAP1 POP DUP7 DUP1 PUSH2 0x122F JUMP JUMPDEST PUSH1 0x0 DUP6 DUP2 MSTORE PUSH1 0x20 DUP2 KECCAK256 SWAP4 POP PUSH1 0x1F NOT DUP6 AND SWAP1 JUMPDEST DUP2 DUP2 LT PUSH2 0x130E JUMPI POP SWAP1 DUP5 PUSH1 0x1 SWAP6 SWAP5 SWAP4 SWAP3 LT PUSH2 0x12F5 JUMPI JUMPDEST POP POP POP DUP2 SHL ADD SWAP1 SSTORE PUSH2 0x1244 JUMP JUMPDEST ADD MLOAD PUSH1 0x0 NOT PUSH1 0xF8 DUP5 PUSH1 0x3 SHL AND SHR NOT AND SWAP1 SSTORE DUP7 DUP1 DUP1 PUSH2 0x12E8 JUMP JUMPDEST SWAP3 SWAP4 PUSH1 0x20 PUSH1 0x1 DUP2 SWAP3 DUP8 DUP7 ADD MLOAD DUP2 SSTORE ADD SWAP6 ADD SWAP4 ADD PUSH2 0x12D2 JUMP JUMPDEST SWAP1 SWAP2 POP DUP4 PUSH1 0x0 MSTORE PUSH1 0x20 PUSH1 0x0 KECCAK256 PUSH1 0x1F DUP5 ADD PUSH1 0x5 SHR DUP2 ADD SWAP2 PUSH1 0x20 DUP6 LT PUSH2 0x136F JUMPI JUMPDEST SWAP1 PUSH1 0x1F DUP6 SWAP5 SWAP4 SWAP3 ADD PUSH1 0x5 SHR ADD SWAP1 JUMPDEST DUP2 DUP2 LT PUSH2 0x1360 JUMPI POP PUSH2 0x1218 JUMP JUMPDEST PUSH1 0x0 DUP2 SSTORE DUP5 SWAP4 POP PUSH1 0x1 ADD PUSH2 0x1353 JUMP JUMPDEST SWAP1 SWAP2 POP DUP2 SWAP1 PUSH2 0x1345 JUMP JUMPDEST PUSH1 0x1 DUP3 ADD DUP1 SLOAD PUSH1 0x1 PUSH1 0x1 PUSH1 0xA0 SHL SUB SWAP2 DUP3 SWAP2 PUSH2 0x1398 SWAP1 DUP4 AND PUSH2 0x1135 PUSH2 0x49C8 JUMP JUMPDEST SLOAD AND SWAP2 PUSH1 0x40 MLOAD SWAP1 PUSH2 0x13A8 DUP3 PUSH2 0x3BF2 JUMP JUMPDEST PUSH1 0xE DUP3 MSTORE PUSH14 0x4C6F737420612064697370757465 PUSH1 0x90 SHL PUSH1 0x20 DUP4 ADD MSTORE DUP4 PUSH1 0x0 MSTORE PUSH1 0x8 PUSH1 0x20 MSTORE PUSH1 0x40 PUSH1 0x0 KECCAK256 PUSH1 0x40 MLOAD SWAP1 PUSH2 0x13DE DUP3 PUSH2 0x3BA1 JUMP JUMPDEST PUSH1 0x2 DUP3 MSTORE PUSH1 0x20 DUP3 ADD PUSH1 0x4 CALLDATALOAD DUP2 MSTORE PUSH1 0x40 DUP4 ADD SWAP2 TIMESTAMP DUP4 MSTORE PUSH1 0x60 DUP5 ADD SWAP6 DUP7 MSTORE DUP1 SLOAD PUSH1 0x1 PUSH1 0x40 SHL DUP2 LT ISZERO PUSH2 0x3E4 JUMPI PUSH2 0x1417 SWAP2 PUSH1 0x1 DUP3 ADD DUP2 SSTORE PUSH2 0x3E6A JUMP JUMPDEST SWAP4 SWAP1 SWAP4 PUSH2 0x9BE JUMPI MLOAD PUSH1 0xE DUP2 LT ISZERO PUSH2 0x42F JUMPI PUSH1 0xFF PUSH1 0x3 SWAP6 DUP6 SLOAD AND SWAP2 AND OR DUP4 SSTORE MLOAD PUSH1 0x1 DUP4 ADD SSTORE MLOAD PUSH1 0x2 DUP3 ADD SSTORE ADD SWAP1 MLOAD DUP1 MLOAD SWAP1 PUSH1 0x1 DUP1 PUSH1 0x40 SHL SUB DUP3 GT PUSH2 0x3E4 JUMPI DUP2 SWAP1 PUSH2 0x1460 DUP5 SLOAD PUSH2 0x3B67 JUMP JUMPDEST PUSH1 0x1F DUP2 GT PUSH2 0x157D JUMPI JUMPDEST POP PUSH1 0x20 SWAP1 PUSH1 0x1F DUP4 GT PUSH1 0x1 EQ PUSH2 0x1517 JUMPI PUSH1 0x0 SWAP3 PUSH2 0x150C JUMPI JUMPDEST POP POP DUP2 PUSH1 0x1 SHL SWAP2 PUSH1 0x0 NOT SWAP1 PUSH1 0x3 SHL SHR NOT AND OR SWAP1 SSTORE JUMPDEST DUP2 PUSH1 0x0 MSTORE PUSH1 0x9 PUSH1 0x20 MSTORE PUSH1 0x40 PUSH1 0x0 KECCAK256 PUSH1 0x2 PUSH1 0x0 MSTORE PUSH1 0x20 MSTORE PUSH1 0x40 PUSH1 0x0 KECCAK256 DUP1 SLOAD SWAP3 PUSH1 0x1 DUP5 ADD DUP1 SWAP5 GT PUSH2 0x8E7 JUMPI PUSH2 0xCB5 SWAP5 PUSH1 0x2 PUSH1 0x0 SWAP6 SWAP5 DUP2 DUP8 SWAP7 SWAP5 DUP8 SWAP7 SWAP6 DUP8 SWAP7 SSTORE PUSH1 0x0 DUP1 MLOAD PUSH1 0x20 PUSH2 0x4D62 DUP4 CODECOPY DUP2 MLOAD SWAP2 MSTORE PUSH1 0x20 PUSH1 0x40 MLOAD PUSH1 0x4 CALLDATALOAD DUP2 MSTORE LOG3 PUSH2 0x14FB DUP2 DUP5 SLOAD AND PUSH2 0x12AF PUSH2 0x49F0 JUMP JUMPDEST DUP3 SLOAD AND SWAP2 ADD SLOAD SWAP1 GAS CALL PUSH2 0xCAF PUSH2 0x4093 JUMP JUMPDEST ADD MLOAD SWAP1 POP DUP7 DUP1 PUSH2 0x1480 JUMP JUMPDEST PUSH1 0x0 DUP6 DUP2 MSTORE PUSH1 0x20 DUP2 KECCAK256 SWAP4 POP PUSH1 0x1F NOT DUP6 AND SWAP1 JUMPDEST DUP2 DUP2 LT PUSH2 0x1565 JUMPI POP SWAP1 DUP5 PUSH1 0x1 SWAP6 SWAP5 SWAP4 SWAP3 LT PUSH2 0x154C JUMPI JUMPDEST POP POP POP DUP2 SHL ADD SWAP1 SSTORE PUSH2 0x1495 JUMP JUMPDEST ADD MLOAD PUSH1 0x0 NOT PUSH1 0xF8 DUP5 PUSH1 0x3 SHL AND SHR NOT AND SWAP1 SSTORE DUP7 DUP1 DUP1 PUSH2 0x153F JUMP JUMPDEST SWAP3 SWAP4 PUSH1 0x20 PUSH1 0x1 DUP2 SWAP3 DUP8 DUP7 ADD MLOAD DUP2 SSTORE ADD SWAP6 ADD SWAP4 ADD PUSH2 0x1529 JUMP JUMPDEST SWAP1 SWAP2 POP DUP4 PUSH1 0x0 MSTORE PUSH1 0x20 PUSH1 0x0 KECCAK256 PUSH1 0x1F DUP5 ADD PUSH1 0x5 SHR DUP2 ADD SWAP2 PUSH1 0x20 DUP6 LT PUSH2 0x15C6 JUMPI JUMPDEST SWAP1 PUSH1 0x1F DUP6 SWAP5 SWAP4 SWAP3 ADD PUSH1 0x5 SHR ADD SWAP1 JUMPDEST DUP2 DUP2 LT PUSH2 0x15B7 JUMPI POP PUSH2 0x1469 JUMP JUMPDEST PUSH1 0x0 DUP2 SSTORE DUP5 SWAP4 POP PUSH1 0x1 ADD PUSH2 0x15AA JUMP JUMPDEST SWAP1 SWAP2 POP DUP2 SWAP1 PUSH2 0x159C JUMP JUMPDEST PUSH1 0x40 MLOAD PUSH3 0x461BCD PUSH1 0xE5 SHL DUP2 MSTORE PUSH1 0x20 PUSH1 0x4 DUP3 ADD MSTORE PUSH1 0x10 PUSH1 0x24 DUP3 ADD MSTORE PUSH16 0x159BDD1A5B99C81B9BDD08195B991959 PUSH1 0x82 SHL PUSH1 0x44 DUP3 ADD MSTORE PUSH1 0x64 SWAP1 REVERT JUMPDEST POP PUSH1 0x9 DUP3 ADD SLOAD PUSH1 0xFF DUP2 PUSH1 0x10 SHR AND PUSH1 0xFF DUP3 PUSH1 0x8 SHR AND ADD SWAP1 PUSH1 0xFF DUP3 GT PUSH2 0x8E7 JUMPI PUSH1 0xFF DUP1 SWAP2 AND SWAP2 AND EQ PUSH2 0xE1A JUMP JUMPDEST CALLVALUE PUSH2 0x263 JUMPI PUSH1 0x20 CALLDATASIZE PUSH1 0x3 NOT ADD SLT PUSH2 0x263 JUMPI PUSH1 0x4 CALLDATALOAD PUSH1 0x0 MSTORE PUSH1 0x5 PUSH1 0x20 MSTORE PUSH1 0x40 PUSH1 0x9 DUP2 PUSH1 0x0 KECCAK256 ADD SLOAD PUSH1 0xFF DUP3 MLOAD SWAP2 DUP2 DUP2 PUSH1 0x8 SHR AND DUP4 MSTORE PUSH1 0x10 SHR AND PUSH1 0x20 DUP3 ADD MSTORE RETURN JUMPDEST PUSH2 0x3CF2 JUMP JUMPDEST CALLVALUE PUSH2 0x263 JUMPI PUSH1 0x20 CALLDATASIZE PUSH1 0x3 NOT ADD SLT PUSH2 0x263 JUMPI PUSH1 0x1 PUSH1 0x1 PUSH1 0xA0 SHL SUB PUSH2 0x1697 PUSH2 0x3AC7 JUMP JUMPDEST AND PUSH1 0x0 MSTORE PUSH1 0x4 PUSH1 0x20 MSTORE PUSH2 0x16B8 PUSH1 0xFF PUSH1 0x40 PUSH1 0x0 KECCAK256 SLOAD AND PUSH1 0x40 MLOAD SWAP2 DUP3 SWAP2 DUP3 PUSH2 0x3DBE JUMP JUMPDEST SUB SWAP1 RETURN JUMPDEST PUSH1 0x20 DUP1 PUSH1 0x3 NOT CALLDATASIZE ADD SLT PUSH2 0x263 JUMPI PUSH1 0x4 CALLDATALOAD PUSH1 0x0 MSTORE PUSH1 0xB DUP2 MSTORE PUSH1 0x40 PUSH1 0x0 KECCAK256 CALLER PUSH1 0x0 MSTORE PUSH1 0x4 DUP3 MSTORE PUSH1 0xFF PUSH1 0x40 PUSH1 0x0 KECCAK256 SLOAD AND PUSH1 0x3 DUP2 LT ISZERO PUSH2 0x42F JUMPI PUSH1 0x1 PUSH2 0x16FE SWAP2 EQ PUSH2 0x3EB0 JUMP JUMPDEST DUP1 SLOAD PUSH1 0x1 PUSH1 0x1 PUSH1 0xA0 SHL SUB AND CALLER SUB PUSH2 0x17AC JUMPI PUSH1 0x9 DUP2 ADD SWAP1 DUP2 SLOAD SWAP1 PUSH1 0xFF DUP3 AND PUSH1 0x9 DUP2 LT ISZERO PUSH2 0x42F JUMPI PUSH2 0x1779 JUMPI PUSH1 0x2 DUP2 ADD SLOAD CALLVALUE SUB PUSH2 0x1745 JUMPI TIMESTAMP PUSH1 0x6 SWAP1 SWAP2 ADD SSTORE PUSH1 0xFF NOT AND PUSH1 0x1 OR SWAP1 SSTORE STOP JUMPDEST PUSH1 0x40 MLOAD PUSH3 0x461BCD PUSH1 0xE5 SHL DUP2 MSTORE PUSH1 0x4 DUP2 ADD DUP6 SWAP1 MSTORE PUSH1 0xC PUSH1 0x24 DUP3 ADD MSTORE PUSH12 0x15DC9BDB99C8185B5BDD5B9D PUSH1 0xA2 SHL PUSH1 0x44 DUP3 ADD MSTORE PUSH1 0x64 SWAP1 REVERT JUMPDEST PUSH1 0x40 MLOAD PUSH3 0x461BCD PUSH1 0xE5 SHL DUP2 MSTORE PUSH1 0x4 DUP2 ADD DUP6 SWAP1 MSTORE PUSH1 0xB PUSH1 0x24 DUP3 ADD MSTORE PUSH11 0x139BDD0810DC99585D1959 PUSH1 0xAA SHL PUSH1 0x44 DUP3 ADD MSTORE PUSH1 0x64 SWAP1 REVERT JUMPDEST PUSH1 0x40 MLOAD PUSH3 0x461BCD PUSH1 0xE5 SHL DUP2 MSTORE PUSH1 0x4 DUP2 ADD DUP4 SWAP1 MSTORE PUSH1 0x9 PUSH1 0x24 DUP3 ADD MSTORE PUSH9 0x2737BA1037BBB732B9 PUSH1 0xB9 SHL PUSH1 0x44 DUP3 ADD MSTORE PUSH1 0x64 SWAP1 REVERT JUMPDEST CALLVALUE PUSH2 0x263 JUMPI PUSH1 0x40 CALLDATASIZE PUSH1 0x3 NOT ADD SLT PUSH2 0x263 JUMPI PUSH2 0x17F6 PUSH2 0x3AC7 JUMP JUMPDEST PUSH1 0x24 CALLDATALOAD SWAP1 PUSH1 0xE DUP3 LT ISZERO PUSH2 0x263 JUMPI PUSH1 0x1 DUP1 PUSH1 0xA0 SHL SUB AND PUSH1 0x0 MSTORE PUSH1 0x9 PUSH1 0x20 MSTORE PUSH1 0x40 PUSH1 0x0 KECCAK256 SWAP1 PUSH1 0x0 MSTORE PUSH1 0x20 MSTORE PUSH1 0x20 PUSH1 0x40 PUSH1 0x0 KECCAK256 SLOAD PUSH1 0x40 MLOAD SWAP1 DUP2 MSTORE RETURN JUMPDEST CALLVALUE PUSH2 0x263 JUMPI PUSH1 0x20 CALLDATASIZE PUSH1 0x3 NOT ADD SLT PUSH2 0x263 JUMPI PUSH1 0x20 PUSH2 0x1852 PUSH2 0x184D PUSH2 0x3AC7 JUMP JUMPDEST PUSH2 0x4868 JUMP JUMPDEST PUSH1 0x40 MLOAD SWAP1 DUP2 MSTORE RETURN JUMPDEST CALLVALUE PUSH2 0x263 JUMPI PUSH1 0x60 CALLDATASIZE PUSH1 0x3 NOT ADD SLT PUSH2 0x263 JUMPI PUSH1 0x4 CALLDATALOAD PUSH1 0x1 PUSH1 0x1 PUSH1 0x40 SHL SUB DUP2 GT PUSH2 0x263 JUMPI PUSH2 0x188A SWAP1 CALLDATASIZE SWAP1 PUSH1 0x4 ADD PUSH2 0x3D45 JUMP JUMPDEST CALLER PUSH1 0x0 MSTORE PUSH1 0x4 PUSH1 0x20 MSTORE PUSH1 0xFF PUSH1 0x40 PUSH1 0x0 KECCAK256 SLOAD AND PUSH1 0x3 DUP2 LT ISZERO PUSH2 0x42F JUMPI PUSH1 0x1 PUSH2 0x18B1 SWAP2 EQ PUSH2 0x3EB0 JUMP JUMPDEST PUSH1 0x40 MLOAD SWAP1 PUSH2 0x140 DUP3 ADD PUSH1 0x1 PUSH1 0x1 PUSH1 0x40 SHL SUB DUP2 GT DUP4 DUP3 LT OR PUSH2 0x3E4 JUMPI PUSH1 0x40 MSTORE CALLER DUP3 MSTORE PUSH1 0x0 PUSH1 0x20 DUP4 ADD MSTORE PUSH1 0x24 CALLDATALOAD PUSH1 0x40 DUP4 ADD MSTORE PUSH1 0x44 CALLDATALOAD PUSH1 0x60 DUP4 ADD MSTORE PUSH1 0x80 DUP3 ADD MSTORE PUSH1 0x40 MLOAD PUSH1 0x20 DUP2 ADD DUP2 DUP2 LT PUSH1 0x1 DUP1 PUSH1 0x40 SHL SUB DUP3 GT OR PUSH2 0x3E4 JUMPI PUSH1 0x40 MSTORE PUSH1 0x0 DUP2 MSTORE PUSH1 0xA0 DUP3 ADD MSTORE PUSH1 0x0 PUSH1 0xC0 DUP3 ADD MSTORE PUSH1 0x0 PUSH1 0xE0 DUP3 ADD MSTORE PUSH1 0x0 PUSH2 0x100 DUP3 ADD MSTORE PUSH1 0x0 PUSH2 0x120 DUP3 ADD MSTORE PUSH1 0xA SLOAD PUSH1 0x0 MSTORE PUSH1 0xB PUSH1 0x20 MSTORE PUSH1 0x40 PUSH1 0x0 KECCAK256 SWAP1 PUSH1 0x1 DUP1 PUSH1 0xA0 SHL SUB DUP1 DUP3 MLOAD AND PUSH1 0x1 DUP1 PUSH1 0xA0 SHL SUB NOT SWAP1 DUP2 DUP6 SLOAD AND OR DUP5 SSTORE PUSH1 0x1 DUP5 ADD SWAP2 PUSH1 0x20 DUP5 ADD MLOAD AND SWAP1 DUP3 SLOAD AND OR SWAP1 SSTORE PUSH1 0x40 DUP2 ADD MLOAD PUSH1 0x2 DUP4 ADD SSTORE PUSH1 0x60 DUP2 ADD MLOAD PUSH1 0x3 DUP4 ADD SSTORE PUSH1 0x80 DUP2 ADD MLOAD SWAP2 DUP3 MLOAD PUSH1 0x1 DUP1 PUSH1 0x40 SHL SUB DUP2 GT PUSH2 0x3E4 JUMPI PUSH2 0x19A4 PUSH1 0x4 DUP4 ADD SLOAD PUSH2 0x3B67 JUMP JUMPDEST PUSH1 0x1F DUP2 GT PUSH2 0x1BD1 JUMPI JUMPDEST POP PUSH1 0x20 PUSH1 0x1F DUP3 GT PUSH1 0x1 EQ PUSH2 0x1B63 JUMPI DUP2 SWAP3 SWAP4 SWAP5 PUSH1 0x0 SWAP3 PUSH2 0x1B58 JUMPI JUMPDEST POP POP DUP2 PUSH1 0x1 SHL SWAP2 PUSH1 0x0 NOT SWAP1 PUSH1 0x3 SHL SHR NOT AND OR PUSH1 0x4 DUP3 ADD SSTORE JUMPDEST PUSH1 0xA0 DUP3 ADD MLOAD DUP1 MLOAD SWAP1 PUSH1 0x1 PUSH1 0x1 PUSH1 0x40 SHL SUB DUP3 GT PUSH2 0x3E4 JUMPI PUSH2 0x1A02 PUSH1 0x5 DUP5 ADD SLOAD PUSH2 0x3B67 JUMP JUMPDEST PUSH1 0x1F DUP2 GT PUSH2 0x1B0D JUMPI JUMPDEST POP PUSH1 0x20 SWAP1 PUSH1 0x1F DUP4 GT PUSH1 0x1 EQ PUSH2 0x1A97 JUMPI SWAP2 DUP1 PUSH2 0x120 SWAP5 SWAP3 PUSH1 0x9 SWAP5 PUSH1 0x0 SWAP3 PUSH2 0x1A8C JUMPI JUMPDEST POP POP DUP2 PUSH1 0x1 SHL SWAP2 PUSH1 0x0 NOT SWAP1 PUSH1 0x3 SHL SHR NOT AND OR PUSH1 0x5 DUP3 ADD SSTORE JUMPDEST PUSH1 0xC0 DUP5 ADD MLOAD PUSH1 0x6 DUP3 ADD SSTORE PUSH1 0xE0 DUP5 ADD MLOAD PUSH1 0x7 DUP3 ADD SSTORE PUSH2 0x100 DUP5 ADD MLOAD PUSH1 0x8 DUP3 ADD SSTORE ADD SWAP2 ADD MLOAD PUSH1 0x9 DUP2 LT ISZERO PUSH2 0x42F JUMPI PUSH1 0xFF DUP1 NOT DUP4 SLOAD AND SWAP2 AND OR SWAP1 SSTORE PUSH2 0x1A87 PUSH1 0xA SLOAD PUSH2 0x3E5B JUMP JUMPDEST PUSH1 0xA SSTORE STOP JUMPDEST ADD MLOAD SWAP1 POP DUP7 DUP1 PUSH2 0x1A2C JUMP JUMPDEST SWAP1 PUSH1 0x5 DUP5 ADD PUSH1 0x0 MSTORE PUSH1 0x20 PUSH1 0x0 KECCAK256 SWAP2 PUSH1 0x0 JUMPDEST PUSH1 0x1F NOT DUP6 AND DUP2 LT PUSH2 0x1AF5 JUMPI POP SWAP3 PUSH2 0x120 SWAP5 SWAP3 PUSH1 0x1 SWAP3 PUSH1 0x9 SWAP6 DUP4 PUSH1 0x1F NOT DUP2 AND LT PUSH2 0x1ADC JUMPI JUMPDEST POP POP POP DUP2 SHL ADD PUSH1 0x5 DUP3 ADD SSTORE PUSH2 0x1A44 JUMP JUMPDEST ADD MLOAD PUSH1 0x0 NOT PUSH1 0xF8 DUP5 PUSH1 0x3 SHL AND SHR NOT AND SWAP1 SSTORE DUP7 DUP1 DUP1 PUSH2 0x1ACC JUMP JUMPDEST SWAP2 SWAP3 PUSH1 0x20 PUSH1 0x1 DUP2 SWAP3 DUP7 DUP6 ADD MLOAD DUP2 SSTORE ADD SWAP5 ADD SWAP3 ADD PUSH2 0x1AA8 JUMP JUMPDEST PUSH1 0x5 DUP5 ADD PUSH1 0x0 MSTORE PUSH1 0x20 PUSH1 0x0 KECCAK256 PUSH1 0x1F DUP5 ADD PUSH1 0x5 SHR DUP2 ADD SWAP2 PUSH1 0x20 DUP6 LT PUSH2 0x1B4E JUMPI JUMPDEST PUSH1 0x1F ADD PUSH1 0x5 SHR ADD SWAP1 JUMPDEST DUP2 DUP2 LT PUSH2 0x1B42 JUMPI POP PUSH2 0x1A0B JUMP JUMPDEST PUSH1 0x0 DUP2 SSTORE PUSH1 0x1 ADD PUSH2 0x1B35 JUMP JUMPDEST SWAP1 SWAP2 POP DUP2 SWAP1 PUSH2 0x1B2C JUMP JUMPDEST ADD MLOAD SWAP1 POP DUP5 DUP1 PUSH2 0x19C7 JUMP JUMPDEST PUSH1 0x4 DUP4 ADD PUSH1 0x0 MSTORE PUSH1 0x20 PUSH1 0x0 KECCAK256 SWAP1 PUSH1 0x0 JUMPDEST PUSH1 0x1F NOT DUP5 AND DUP2 LT PUSH2 0x1BB9 JUMPI POP PUSH1 0x1 SWAP4 SWAP5 SWAP6 DUP4 PUSH1 0x1F NOT DUP2 AND LT PUSH2 0x1BA0 JUMPI JUMPDEST POP POP POP DUP2 SHL ADD PUSH1 0x4 DUP3 ADD SSTORE PUSH2 0x19DF JUMP JUMPDEST ADD MLOAD PUSH1 0x0 NOT PUSH1 0xF8 DUP5 PUSH1 0x3 SHL AND SHR NOT AND SWAP1 SSTORE DUP5 DUP1 DUP1 PUSH2 0x1B90 JUMP JUMPDEST SWAP1 SWAP2 PUSH1 0x20 PUSH1 0x1 DUP2 SWAP3 DUP6 DUP11 ADD MLOAD DUP2 SSTORE ADD SWAP4 ADD SWAP2 ADD PUSH2 0x1B73 JUMP JUMPDEST PUSH1 0x4 DUP4 ADD PUSH1 0x0 MSTORE PUSH1 0x20 PUSH1 0x0 KECCAK256 PUSH1 0x1F DUP4 ADD PUSH1 0x5 SHR DUP2 ADD PUSH1 0x20 DUP5 LT PUSH2 0x1C11 JUMPI JUMPDEST PUSH1 0x1F DUP4 ADD PUSH1 0x5 SHR DUP3 ADD DUP2 LT PUSH2 0x1C05 JUMPI POP POP PUSH2 0x19AD JUMP JUMPDEST PUSH1 0x0 DUP2 SSTORE PUSH1 0x1 ADD PUSH2 0x1BEF JUMP JUMPDEST POP DUP1 PUSH2 0x1BEF JUMP JUMPDEST CALLVALUE PUSH2 0x263 JUMPI PUSH1 0x60 CALLDATASIZE PUSH1 0x3 NOT ADD SLT PUSH2 0x263 JUMPI PUSH1 0x24 CALLDATALOAD PUSH1 0xFF DUP2 AND DUP2 SUB PUSH2 0x263 JUMPI PUSH1 0x44 CALLDATALOAD PUSH1 0x1 PUSH1 0x1 PUSH1 0x40 SHL SUB DUP2 GT PUSH2 0x263 JUMPI PUSH2 0x1C55 SWAP1 CALLDATASIZE SWAP1 PUSH1 0x4 ADD PUSH2 0x3D45 JUMP JUMPDEST SWAP1 PUSH1 0x4 CALLDATALOAD PUSH1 0x0 MSTORE PUSH1 0xB PUSH1 0x20 MSTORE PUSH1 0x40 PUSH1 0x0 KECCAK256 SWAP2 PUSH1 0x1 DUP1 PUSH1 0xA0 SHL SUB DUP4 SLOAD AND PUSH2 0x1C7C DUP2 CALLER EQ PUSH2 0x3EB0 JUMP JUMPDEST PUSH1 0x9 DUP5 ADD DUP1 SLOAD PUSH1 0xFF DUP2 AND PUSH1 0x9 DUP2 LT ISZERO PUSH2 0x42F JUMPI PUSH1 0x4 PUSH2 0x1C9B SWAP2 EQ PUSH2 0x402E JUMP JUMPDEST PUSH1 0x1 PUSH1 0xFF DUP7 AND LT ISZERO DUP1 PUSH2 0x24FE JUMPI JUMPDEST ISZERO PUSH2 0x24C8 JUMPI PUSH1 0xFF NOT AND PUSH1 0x5 OR SWAP1 SSTORE PUSH1 0x40 MLOAD PUSH2 0x1CC3 DUP2 PUSH2 0x3BD7 JUMP JUMPDEST PUSH1 0x22 DUP2 MSTORE PUSH32 0x52656C6961626C6520636C69656E74207769746820636C65616E20686973746F PUSH1 0x20 DUP3 ADD MSTORE PUSH2 0x7279 PUSH1 0xF0 SHL PUSH1 0x40 DUP3 ADD MSTORE DUP2 PUSH1 0x0 MSTORE PUSH1 0x8 PUSH1 0x20 MSTORE PUSH1 0x40 PUSH1 0x0 KECCAK256 PUSH1 0x40 MLOAD SWAP2 PUSH2 0x1D13 DUP4 PUSH2 0x3BA1 JUMP JUMPDEST PUSH1 0xC DUP4 MSTORE PUSH1 0x4 CALLDATALOAD PUSH1 0x20 DUP5 ADD MSTORE TIMESTAMP PUSH1 0x40 DUP5 ADD MSTORE PUSH1 0x60 DUP4 ADD MSTORE DUP1 SLOAD PUSH1 0x1 PUSH1 0x40 SHL DUP2 LT ISZERO PUSH2 0x3E4 JUMPI PUSH2 0x1D47 SWAP2 PUSH1 0x1 DUP3 ADD DUP2 SSTORE PUSH2 0x3E6A JUMP JUMPDEST SWAP2 SWAP1 SWAP2 PUSH2 0x9BE JUMPI DUP1 MLOAD SWAP1 PUSH1 0xE DUP3 LT ISZERO PUSH2 0x42F JUMPI PUSH1 0x60 SWAP2 PUSH1 0xFF DUP1 NOT DUP6 SLOAD AND SWAP2 AND OR DUP4 SSTORE PUSH1 0x20 DUP2 ADD MLOAD PUSH1 0x1 DUP5 ADD SSTORE PUSH1 0x40 DUP2 ADD MLOAD PUSH1 0x2 DUP5 ADD SSTORE ADD MLOAD DUP1 MLOAD SWAP1 PUSH1 0x1 DUP1 PUSH1 0x40 SHL SUB DUP3 GT PUSH2 0x3E4 JUMPI PUSH2 0x1D9C PUSH1 0x3 DUP5 ADD SLOAD PUSH2 0x3B67 JUMP JUMPDEST PUSH1 0x1F DUP2 GT PUSH2 0x2481 JUMPI JUMPDEST POP PUSH1 0x20 SWAP1 PUSH1 0x1F DUP4 GT PUSH1 0x1 EQ PUSH2 0x2412 JUMPI PUSH1 0x3 SWAP3 SWAP2 PUSH1 0x0 SWAP2 DUP4 PUSH2 0x2407 JUMPI JUMPDEST POP POP DUP2 PUSH1 0x1 SHL SWAP2 PUSH1 0x0 NOT SWAP1 DUP5 SHL SHR NOT AND OR SWAP2 ADD SSTORE JUMPDEST DUP1 PUSH1 0x0 MSTORE PUSH1 0x9 PUSH1 0x20 MSTORE PUSH1 0x40 PUSH1 0x0 KECCAK256 PUSH1 0xC PUSH1 0x0 MSTORE PUSH1 0x20 MSTORE PUSH1 0x40 PUSH1 0x0 KECCAK256 SWAP1 DUP2 SLOAD SWAP2 PUSH1 0x1 DUP4 ADD DUP4 GT PUSH2 0x8E7 JUMPI PUSH1 0x1 PUSH1 0xC SWAP4 ADD SWAP1 SSTORE PUSH1 0x0 DUP1 MLOAD PUSH1 0x20 PUSH2 0x4D62 DUP4 CODECOPY DUP2 MLOAD SWAP2 MSTORE PUSH1 0x20 PUSH1 0x40 MLOAD PUSH1 0x4 CALLDATALOAD DUP2 MSTORE LOG3 PUSH2 0x1E56 PUSH1 0x40 MLOAD PUSH2 0x1E30 DUP2 PUSH2 0x3BF2 JUMP JUMPDEST PUSH1 0x13 DUP2 MSTORE PUSH19 0x31B634B2B73A2FB0B8383937BB32B22FB537B1 PUSH1 0x69 SHL PUSH1 0x20 DUP3 ADD MSTORE CALLER PUSH2 0x4AE2 JUMP JUMPDEST PUSH1 0x4 PUSH1 0xFF DUP4 AND LT PUSH2 0x20DA JUMPI PUSH1 0x1 DUP4 ADD DUP1 SLOAD PUSH2 0x1EB5 SWAP2 SWAP1 PUSH2 0x1E81 SWAP1 PUSH1 0x1 PUSH1 0x1 PUSH1 0xA0 SHL SUB AND PUSH2 0x12AF PUSH2 0x406A JUMP JUMPDEST SLOAD PUSH1 0x40 MLOAD SWAP1 PUSH1 0x1 PUSH1 0x1 PUSH1 0xA0 SHL SUB AND PUSH2 0x1E98 DUP3 PUSH2 0x3BF2 JUMP JUMPDEST PUSH1 0xB DUP3 MSTORE PUSH11 0x676F6F645F726174696E67 PUSH1 0xA8 SHL PUSH1 0x20 DUP4 ADD MSTORE PUSH2 0x4AE2 JUMP JUMPDEST PUSH1 0x1 DUP4 ADD SLOAD PUSH1 0x40 MLOAD SWAP2 SWAP1 PUSH1 0x1 PUSH1 0x1 PUSH1 0xA0 SHL SUB AND PUSH2 0x1ED1 DUP4 PUSH2 0x3BA1 JUMP JUMPDEST CALLER DUP4 MSTORE PUSH1 0x20 DUP1 DUP5 ADD SWAP2 DUP3 MSTORE PUSH1 0xFF DUP6 AND PUSH1 0x40 DUP1 DUP7 ADD SWAP2 DUP3 MSTORE PUSH1 0x60 DUP7 ADD SWAP5 DUP6 MSTORE PUSH1 0x4 CALLDATALOAD PUSH1 0x0 SWAP1 DUP2 MSTORE PUSH1 0xC SWAP1 SWAP4 MSTORE SWAP1 SWAP2 KECCAK256 SWAP4 MLOAD DUP5 SLOAD PUSH1 0x1 PUSH1 0x1 PUSH1 0xA0 SHL SUB NOT AND PUSH1 0x1 PUSH1 0x1 PUSH1 0xA0 SHL SUB SWAP2 DUP3 AND OR DUP6 SSTORE SWAP2 MLOAD PUSH1 0x1 DUP6 ADD DUP1 SLOAD SWAP3 MLOAD PUSH1 0x1 PUSH1 0x1 PUSH1 0xA8 SHL SUB NOT SWAP1 SWAP4 AND SWAP2 SWAP1 SWAP4 AND OR PUSH1 0xA0 SWAP2 SWAP1 SWAP2 SHL PUSH1 0xFF PUSH1 0xA0 SHL AND OR SWAP1 SSTORE MLOAD DUP1 MLOAD SWAP1 PUSH1 0x1 PUSH1 0x1 PUSH1 0x40 SHL SUB DUP3 GT PUSH2 0x3E4 JUMPI PUSH2 0x1F64 PUSH1 0x2 DUP5 ADD SLOAD PUSH2 0x3B67 JUMP JUMPDEST PUSH1 0x1F DUP2 GT PUSH2 0x2093 JUMPI JUMPDEST POP PUSH1 0x20 SWAP1 PUSH1 0x1F DUP4 GT PUSH1 0x1 EQ PUSH2 0x2025 JUMPI PUSH1 0x2 SWAP3 SWAP2 PUSH1 0x0 SWAP2 DUP4 PUSH2 0x201A JUMPI JUMPDEST POP POP DUP2 PUSH1 0x1 SHL SWAP2 PUSH1 0x0 NOT SWAP1 PUSH1 0x3 SHL SHR NOT AND OR SWAP2 ADD SSTORE JUMPDEST PUSH1 0x1 DUP1 PUSH1 0xA0 SHL SUB PUSH1 0x1 DUP4 ADD SLOAD AND PUSH1 0x0 MSTORE PUSH1 0xD PUSH1 0x20 MSTORE PUSH2 0x1FC7 PUSH1 0xFF PUSH1 0x40 PUSH1 0x0 KECCAK256 SWAP3 AND DUP3 SLOAD PUSH2 0x3F5D JUMP JUMPDEST SWAP1 SSTORE PUSH1 0x1 DUP1 PUSH1 0xA0 SHL SUB PUSH1 0x1 DUP3 ADD SLOAD AND PUSH1 0x0 MSTORE PUSH1 0xE PUSH1 0x20 MSTORE PUSH1 0x40 PUSH1 0x0 KECCAK256 DUP1 SLOAD SWAP2 PUSH1 0x1 DUP4 ADD DUP1 SWAP4 GT PUSH2 0x8E7 JUMPI PUSH1 0x0 DUP1 DUP1 DUP1 SWAP4 DUP7 PUSH2 0xCB5 SWAP7 SSTORE PUSH1 0x2 PUSH1 0x1 DUP1 PUSH1 0xA0 SHL SUB PUSH1 0x1 DUP4 ADD SLOAD AND SWAP2 ADD SLOAD SWAP1 GAS CALL PUSH2 0xCAF PUSH2 0x4093 JUMP JUMPDEST ADD MLOAD SWAP1 POP DUP7 DUP1 PUSH2 0x1F89 JUMP JUMPDEST SWAP1 PUSH1 0x1F NOT DUP4 AND SWAP2 PUSH1 0x2 DUP6 ADD PUSH1 0x0 MSTORE PUSH1 0x20 PUSH1 0x0 KECCAK256 SWAP3 PUSH1 0x0 JUMPDEST DUP2 DUP2 LT PUSH2 0x207B JUMPI POP SWAP2 PUSH1 0x1 SWAP4 SWAP2 DUP6 PUSH1 0x2 SWAP7 SWAP5 LT PUSH2 0x2062 JUMPI JUMPDEST POP POP POP DUP2 SHL ADD SWAP2 ADD SSTORE PUSH2 0x1F9F JUMP JUMPDEST ADD MLOAD PUSH1 0x0 NOT PUSH1 0xF8 DUP5 PUSH1 0x3 SHL AND SHR NOT AND SWAP1 SSTORE DUP7 DUP1 DUP1 PUSH2 0x2054 JUMP JUMPDEST SWAP3 SWAP4 PUSH1 0x20 PUSH1 0x1 DUP2 SWAP3 DUP8 DUP7 ADD MLOAD DUP2 SSTORE ADD SWAP6 ADD SWAP4 ADD PUSH2 0x203C JUMP JUMPDEST PUSH1 0x2 DUP5 ADD PUSH1 0x0 MSTORE PUSH1 0x20 PUSH1 0x0 KECCAK256 PUSH1 0x1F DUP5 ADD PUSH1 0x5 SHR DUP2 ADD PUSH1 0x20 DUP6 LT PUSH2 0x20D3 JUMPI JUMPDEST PUSH1 0x1F DUP4 ADD PUSH1 0x5 SHR DUP3 ADD DUP2 LT PUSH2 0x20C7 JUMPI POP POP PUSH2 0x1F6D JUMP JUMPDEST PUSH1 0x0 DUP2 SSTORE PUSH1 0x1 ADD PUSH2 0x20B1 JUMP JUMPDEST POP DUP1 PUSH2 0x20B1 JUMP JUMPDEST PUSH1 0x2 PUSH1 0xFF DUP4 AND GT PUSH2 0x23E8 JUMPI PUSH1 0x1 DUP4 ADD SLOAD PUSH2 0x20FF SWAP1 PUSH1 0x1 PUSH1 0x1 PUSH1 0xA0 SHL SUB AND PUSH2 0x12AF PUSH2 0x406A JUMP JUMPDEST PUSH1 0x1 DUP1 PUSH1 0xA0 SHL SUB PUSH1 0x1 DUP5 ADD SLOAD AND PUSH1 0x40 MLOAD PUSH2 0x2118 DUP2 PUSH2 0x3BF2 JUMP JUMPDEST PUSH1 0xA DUP2 MSTORE PUSH10 0x6261645F726174696E67 PUSH1 0xB0 SHL PUSH1 0x20 DUP3 ADD MSTORE DUP2 PUSH1 0x0 MSTORE PUSH1 0x0 PUSH1 0x20 MSTORE PUSH1 0xFF PUSH1 0x40 PUSH1 0x0 KECCAK256 SLOAD AND SWAP1 DUP2 PUSH1 0x7 LT ISZERO PUSH1 0x0 EQ PUSH2 0x23BE JUMPI PUSH1 0x0 DUP1 MLOAD PUSH1 0x20 PUSH2 0x4D82 DUP4 CODECOPY DUP2 MLOAD SWAP2 MSTORE SWAP2 PUSH2 0x218C PUSH1 0x0 SWAP3 JUMPDEST DUP6 PUSH1 0x0 MSTORE PUSH1 0x0 PUSH1 0x20 MSTORE PUSH1 0x40 PUSH1 0x0 KECCAK256 PUSH1 0xFF DUP6 AND PUSH1 0xFF NOT DUP3 SLOAD AND OR SWAP1 SSTORE PUSH1 0x40 MLOAD SWAP4 DUP5 SWAP4 DUP5 PUSH2 0x4AC1 JUMP JUMPDEST SUB SWAP1 LOG2 PUSH1 0x1 DUP1 PUSH1 0xA0 SHL SUB PUSH1 0x1 DUP5 ADD SLOAD AND PUSH1 0x40 MLOAD PUSH2 0x21A8 DUP2 PUSH2 0x3BF2 JUMP JUMPDEST PUSH1 0x1B DUP2 MSTORE PUSH27 0x52656365697665642031206F722032207374617220726174696E67 PUSH1 0x28 SHL PUSH1 0x20 DUP3 ADD MSTORE DUP2 PUSH1 0x0 MSTORE PUSH1 0x8 PUSH1 0x20 MSTORE PUSH1 0x40 PUSH1 0x0 KECCAK256 PUSH1 0x40 MLOAD SWAP2 PUSH2 0x21EB DUP4 PUSH2 0x3BA1 JUMP JUMPDEST PUSH1 0x1 DUP4 MSTORE PUSH1 0x4 CALLDATALOAD PUSH1 0x20 DUP5 ADD MSTORE TIMESTAMP PUSH1 0x40 DUP5 ADD MSTORE PUSH1 0x60 DUP4 ADD MSTORE DUP1 SLOAD PUSH1 0x1 PUSH1 0x40 SHL DUP2 LT ISZERO PUSH2 0x3E4 JUMPI PUSH2 0x221F SWAP2 PUSH1 0x1 DUP3 ADD DUP2 SSTORE PUSH2 0x3E6A JUMP JUMPDEST SWAP2 SWAP1 SWAP2 PUSH2 0x9BE JUMPI DUP1 MLOAD SWAP1 PUSH1 0xE DUP3 LT ISZERO PUSH2 0x42F JUMPI PUSH1 0x60 SWAP2 PUSH1 0xFF DUP1 NOT DUP6 SLOAD AND SWAP2 AND OR DUP4 SSTORE PUSH1 0x20 DUP2 ADD MLOAD PUSH1 0x1 DUP5 ADD SSTORE PUSH1 0x40 DUP2 ADD MLOAD PUSH1 0x2 DUP5 ADD SSTORE ADD MLOAD DUP1 MLOAD SWAP1 PUSH1 0x1 DUP1 PUSH1 0x40 SHL SUB DUP3 GT PUSH2 0x3E4 JUMPI PUSH2 0x2274 PUSH1 0x3 DUP5 ADD SLOAD PUSH2 0x3B67 JUMP JUMPDEST PUSH1 0x1F DUP2 GT PUSH2 0x2377 JUMPI JUMPDEST POP PUSH1 0x20 SWAP1 PUSH1 0x1F DUP4 GT PUSH1 0x1 EQ PUSH2 0x2308 JUMPI PUSH1 0x3 SWAP3 SWAP2 PUSH1 0x0 SWAP2 DUP4 PUSH2 0x22FD JUMPI JUMPDEST POP POP DUP2 PUSH1 0x1 SHL SWAP2 PUSH1 0x0 NOT SWAP1 DUP5 SHL SHR NOT AND OR SWAP2 ADD SSTORE JUMPDEST DUP1 PUSH1 0x0 MSTORE PUSH1 0x9 PUSH1 0x20 MSTORE PUSH1 0x40 PUSH1 0x0 KECCAK256 PUSH1 0x1 PUSH1 0x0 MSTORE PUSH1 0x20 MSTORE PUSH1 0x40 PUSH1 0x0 KECCAK256 SWAP1 DUP2 SLOAD SWAP2 PUSH1 0x1 DUP4 ADD DUP4 GT PUSH2 0x8E7 JUMPI PUSH1 0x1 DUP1 SWAP4 ADD SWAP1 SSTORE PUSH1 0x0 DUP1 MLOAD PUSH1 0x20 PUSH2 0x4D62 DUP4 CODECOPY DUP2 MLOAD SWAP2 MSTORE PUSH1 0x20 PUSH1 0x40 MLOAD PUSH1 0x4 CALLDATALOAD DUP2 MSTORE LOG3 PUSH2 0x1EB5 JUMP JUMPDEST ADD MLOAD SWAP1 POP DUP9 DUP1 PUSH2 0x2299 JUMP JUMPDEST SWAP1 PUSH1 0x3 DUP5 ADD PUSH1 0x0 MSTORE PUSH1 0x20 PUSH1 0x0 KECCAK256 SWAP2 PUSH1 0x0 JUMPDEST PUSH1 0x1F NOT DUP6 AND DUP2 LT PUSH2 0x235F JUMPI POP SWAP2 DUP4 SWAP2 PUSH1 0x1 SWAP4 PUSH1 0x3 SWAP6 PUSH1 0x1F NOT DUP2 AND LT PUSH2 0x2347 JUMPI JUMPDEST POP POP POP DUP2 SHL ADD SWAP2 ADD SSTORE PUSH2 0x22AE JUMP JUMPDEST ADD MLOAD PUSH1 0x0 NOT DUP4 DUP7 SHL PUSH1 0xF8 AND SHR NOT AND SWAP1 SSTORE DUP9 DUP1 DUP1 PUSH2 0x2339 JUMP JUMPDEST SWAP2 SWAP3 PUSH1 0x20 PUSH1 0x1 DUP2 SWAP3 DUP7 DUP6 ADD MLOAD DUP2 SSTORE ADD SWAP5 ADD SWAP3 ADD PUSH2 0x2319 JUMP JUMPDEST PUSH1 0x3 DUP5 ADD PUSH1 0x0 MSTORE PUSH1 0x20 PUSH1 0x0 KECCAK256 PUSH1 0x1F DUP5 ADD PUSH1 0x5 SHR DUP2 ADD PUSH1 0x20 DUP6 LT PUSH2 0x23B7 JUMPI JUMPDEST PUSH1 0x1F DUP4 ADD PUSH1 0x5 SHR DUP3 ADD DUP2 LT PUSH2 0x23AB JUMPI POP POP PUSH2 0x227D JUMP JUMPDEST PUSH1 0x0 DUP2 SSTORE PUSH1 0x1 ADD PUSH2 0x2395 JUMP JUMPDEST POP DUP1 PUSH2 0x2395 JUMP JUMPDEST PUSH1 0xFF PUSH1 0x6 NOT DUP4 ADD GT PUSH2 0x8E7 JUMPI PUSH1 0x0 DUP1 MLOAD PUSH1 0x20 PUSH2 0x4D82 DUP4 CODECOPY DUP2 MLOAD SWAP2 MSTORE SWAP2 PUSH2 0x218C PUSH1 0x6 NOT DUP3 ADD SWAP3 PUSH2 0x2165 JUMP JUMPDEST PUSH1 0x1 DUP4 ADD SLOAD PUSH2 0x2402 SWAP1 PUSH1 0x1 PUSH1 0x1 PUSH1 0xA0 SHL SUB AND PUSH2 0x12AF PUSH2 0x406A JUMP JUMPDEST PUSH2 0x1EB5 JUMP JUMPDEST ADD MLOAD SWAP1 POP DUP9 DUP1 PUSH2 0x1DC1 JUMP JUMPDEST SWAP1 PUSH1 0x3 DUP5 ADD PUSH1 0x0 MSTORE PUSH1 0x20 PUSH1 0x0 KECCAK256 SWAP2 PUSH1 0x0 JUMPDEST PUSH1 0x1F NOT DUP6 AND DUP2 LT PUSH2 0x2469 JUMPI POP SWAP2 DUP4 SWAP2 PUSH1 0x1 SWAP4 PUSH1 0x3 SWAP6 PUSH1 0x1F NOT DUP2 AND LT PUSH2 0x2451 JUMPI JUMPDEST POP POP POP DUP2 SHL ADD SWAP2 ADD SSTORE PUSH2 0x1DD6 JUMP JUMPDEST ADD MLOAD PUSH1 0x0 NOT DUP4 DUP7 SHL PUSH1 0xF8 AND SHR NOT AND SWAP1 SSTORE DUP9 DUP1 DUP1 PUSH2 0x2443 JUMP JUMPDEST SWAP2 SWAP3 PUSH1 0x20 PUSH1 0x1 DUP2 SWAP3 DUP7 DUP6 ADD MLOAD DUP2 SSTORE ADD SWAP5 ADD SWAP3 ADD PUSH2 0x2423 JUMP JUMPDEST PUSH1 0x3 DUP5 ADD PUSH1 0x0 MSTORE PUSH1 0x20 PUSH1 0x0 KECCAK256 PUSH1 0x1F DUP5 ADD PUSH1 0x5 SHR DUP2 ADD PUSH1 0x20 DUP6 LT PUSH2 0x24C1 JUMPI JUMPDEST PUSH1 0x1F DUP4 ADD PUSH1 0x5 SHR DUP3 ADD DUP2 LT PUSH2 0x24B5 JUMPI POP POP PUSH2 0x1DA5 JUMP JUMPDEST PUSH1 0x0 DUP2 SSTORE PUSH1 0x1 ADD PUSH2 0x249F JUMP JUMPDEST POP DUP1 PUSH2 0x249F JUMP JUMPDEST PUSH1 0x40 MLOAD PUSH3 0x461BCD PUSH1 0xE5 SHL DUP2 MSTORE PUSH1 0x20 PUSH1 0x4 DUP3 ADD MSTORE PUSH1 0xE PUSH1 0x24 DUP3 ADD MSTORE PUSH14 0x496E76616C696420726174696E67 PUSH1 0x90 SHL PUSH1 0x44 DUP3 ADD MSTORE PUSH1 0x64 SWAP1 REVERT JUMPDEST POP PUSH1 0x5 PUSH1 0xFF DUP7 AND GT ISZERO PUSH2 0x1CA9 JUMP JUMPDEST CALLVALUE PUSH2 0x263 JUMPI PUSH1 0x0 CALLDATASIZE PUSH1 0x3 NOT ADD SLT PUSH2 0x263 JUMPI CALLER PUSH1 0x0 MSTORE PUSH1 0x4 PUSH1 0x20 MSTORE PUSH2 0x16B8 PUSH1 0xFF PUSH1 0x40 PUSH1 0x0 KECCAK256 SLOAD AND PUSH1 0x40 MLOAD SWAP2 DUP3 SWAP2 DUP3 PUSH2 0x3DBE JUMP JUMPDEST CALLVALUE PUSH2 0x263 JUMPI PUSH1 0x0 CALLDATASIZE PUSH1 0x3 NOT ADD SLT PUSH2 0x263 JUMPI CALLER PUSH1 0x0 MSTORE PUSH1 0x4 PUSH1 0x20 MSTORE PUSH1 0xFF PUSH1 0x40 PUSH1 0x0 KECCAK256 SLOAD AND PUSH1 0x3 DUP2 LT ISZERO PUSH2 0x42F JUMPI PUSH2 0x2574 SWAP1 ISZERO PUSH2 0x3DD1 JUMP JUMPDEST CALLER PUSH1 0x0 MSTORE PUSH1 0x4 PUSH1 0x20 MSTORE PUSH1 0x40 PUSH1 0x0 KECCAK256 PUSH1 0x1 PUSH1 0xFF NOT DUP3 SLOAD AND OR SWAP1 SSTORE PUSH2 0x2596 CALLER PUSH2 0x4A17 JUMP JUMPDEST PUSH2 0xCB5 CALLER PUSH2 0x4CE8 JUMP JUMPDEST CALLVALUE PUSH2 0x263 JUMPI PUSH1 0x20 CALLDATASIZE PUSH1 0x3 NOT ADD SLT PUSH2 0x263 JUMPI PUSH1 0x1 PUSH1 0x1 PUSH1 0xA0 SHL SUB PUSH2 0x25C0 PUSH2 0x3AC7 JUMP JUMPDEST AND PUSH1 0x0 MSTORE PUSH1 0x9 PUSH1 0x20 MSTORE PUSH1 0x40 PUSH1 0x0 KECCAK256 PUSH1 0xA PUSH1 0x0 MSTORE PUSH1 0x20 MSTORE PUSH1 0x20 PUSH1 0x40 PUSH1 0x0 KECCAK256 SLOAD ISZERO ISZERO PUSH1 0x40 MLOAD SWAP1 DUP2 MSTORE RETURN JUMPDEST CALLVALUE PUSH2 0x263 JUMPI PUSH1 0x20 DUP1 PUSH1 0x3 NOT CALLDATASIZE ADD SLT PUSH2 0x263 JUMPI PUSH1 0x4 CALLDATALOAD DUP1 PUSH1 0x0 MSTORE PUSH1 0xB DUP3 MSTORE PUSH1 0x40 PUSH1 0x0 KECCAK256 SWAP1 PUSH1 0x9 DUP3 ADD DUP1 SLOAD SWAP1 PUSH1 0xFF DUP3 AND PUSH1 0x9 DUP2 LT ISZERO PUSH2 0x42F JUMPI PUSH1 0x3 SUB PUSH2 0x28C3 JUMPI PUSH1 0x7 DUP5 ADD SLOAD PUSH1 0x78 DUP2 ADD DUP1 SWAP2 GT PUSH2 0x8E7 JUMPI PUSH2 0x2642 SWAP1 TIMESTAMP LT ISZERO PUSH2 0x3F6A JUMP JUMPDEST PUSH1 0xFF NOT SWAP2 DUP3 AND PUSH1 0x6 OR SWAP1 SSTORE PUSH1 0x1 DUP4 DUP2 ADD DUP1 SLOAD PUSH1 0x40 MLOAD PUSH1 0x1 PUSH1 0x1 PUSH1 0xA0 SHL SUB SWAP7 SWAP3 DUP8 SWAP3 SWAP1 SWAP2 PUSH2 0x2695 SWAP2 DUP5 AND PUSH2 0x2674 DUP3 PUSH2 0x3BF2 JUMP JUMPDEST PUSH1 0x10 DUP3 MSTORE PUSH16 0x1DDBDC9AD95C97D858985B991BDB9959 PUSH1 0x82 SHL DUP12 DUP4 ADD MSTORE PUSH2 0x4C20 JUMP JUMPDEST SLOAD AND SWAP3 PUSH2 0x26A0 PUSH2 0x3FA2 JUMP JUMPDEST SWAP1 DUP5 PUSH1 0x0 MSTORE PUSH1 0x8 DUP9 MSTORE PUSH1 0x40 PUSH1 0x0 KECCAK256 PUSH1 0x40 MLOAD SWAP1 PUSH2 0x26BB DUP3 PUSH2 0x3BA1 JUMP JUMPDEST PUSH1 0x0 DUP3 MSTORE DUP10 DUP3 ADD DUP9 DUP2 MSTORE PUSH1 0x40 DUP4 ADD SWAP2 TIMESTAMP DUP4 MSTORE PUSH1 0x60 DUP5 ADD SWAP6 DUP7 MSTORE DUP1 SLOAD PUSH1 0x1 PUSH1 0x40 SHL DUP2 LT ISZERO PUSH2 0x3E4 JUMPI PUSH2 0x26F0 SWAP2 DUP10 DUP3 ADD DUP2 SSTORE PUSH2 0x3E6A JUMP JUMPDEST SWAP4 SWAP1 SWAP4 PUSH2 0x9BE JUMPI MLOAD PUSH1 0xE DUP2 LT ISZERO PUSH2 0x42F JUMPI PUSH1 0xFF PUSH1 0x3 SWAP6 DUP6 SLOAD AND SWAP2 AND OR DUP4 SSTORE MLOAD DUP7 DUP4 ADD SSTORE MLOAD PUSH1 0x2 DUP3 ADD SSTORE ADD SWAP1 MLOAD DUP1 MLOAD SWAP1 PUSH1 0x1 DUP1 PUSH1 0x40 SHL SUB DUP3 GT PUSH2 0x3E4 JUMPI DUP2 SWAP1 PUSH2 0x2738 DUP5 SLOAD PUSH2 0x3B67 JUMP JUMPDEST PUSH1 0x1F DUP2 GT PUSH2 0x2870 JUMPI JUMPDEST POP DUP10 SWAP1 PUSH1 0x1F DUP4 GT PUSH1 0x1 EQ PUSH2 0x280D JUMPI PUSH1 0x0 SWAP3 PUSH2 0x2802 JUMPI JUMPDEST POP POP PUSH1 0x0 NOT PUSH1 0x3 DUP4 SWAP1 SHL SHR NOT AND SWAP1 DUP5 SHL OR SWAP1 SSTORE JUMPDEST DUP3 PUSH1 0x0 MSTORE PUSH1 0x9 DUP7 MSTORE PUSH1 0x40 PUSH1 0x0 KECCAK256 PUSH1 0x0 DUP1 MSTORE DUP7 MSTORE PUSH1 0x40 PUSH1 0x0 KECCAK256 DUP1 SLOAD SWAP3 DUP4 ADD DUP1 SWAP4 GT PUSH2 0x8E7 JUMPI PUSH1 0x0 SWAP6 DUP7 DUP1 SWAP7 SWAP6 PUSH1 0x0 DUP1 MLOAD PUSH1 0x20 PUSH2 0x4D62 DUP4 CODECOPY DUP2 MLOAD SWAP2 MSTORE DUP11 DUP4 SWAP9 DUP5 SWAP9 PUSH1 0x2 SWAP8 SSTORE PUSH1 0x40 MLOAD SWAP1 DUP2 MSTORE LOG3 DUP3 SLOAD AND SWAP2 ADD SLOAD SWAP1 GAS CALL PUSH2 0x27C6 PUSH2 0x4093 JUMP JUMPDEST POP ISZERO PUSH2 0x27CE JUMPI STOP JUMPDEST PUSH1 0x64 SWAP1 PUSH1 0x40 MLOAD SWAP1 PUSH3 0x461BCD PUSH1 0xE5 SHL DUP3 MSTORE PUSH1 0x4 DUP3 ADD MSTORE PUSH1 0xD PUSH1 0x24 DUP3 ADD MSTORE PUSH13 0x1499599D5B990819985A5B1959 PUSH1 0x9A SHL PUSH1 0x44 DUP3 ADD MSTORE REVERT JUMPDEST ADD MLOAD SWAP1 POP DUP10 DUP1 PUSH2 0x2757 JUMP JUMPDEST SWAP1 DUP7 SWAP4 POP PUSH1 0x1F NOT DUP4 AND SWAP2 DUP6 PUSH1 0x0 MSTORE DUP12 PUSH1 0x0 KECCAK256 SWAP3 PUSH1 0x0 JUMPDEST DUP14 DUP3 DUP3 LT PUSH2 0x285A JUMPI POP POP DUP5 GT PUSH2 0x2841 JUMPI JUMPDEST POP POP POP DUP2 SHL ADD SWAP1 SSTORE PUSH2 0x276B JUMP JUMPDEST ADD MLOAD PUSH1 0x0 NOT PUSH1 0xF8 DUP5 PUSH1 0x3 SHL AND SHR NOT AND SWAP1 SSTORE DUP10 DUP1 DUP1 PUSH2 0x2834 JUMP JUMPDEST DUP4 DUP6 ADD MLOAD DUP7 SSTORE DUP11 SWAP8 SWAP1 SWAP6 ADD SWAP5 SWAP4 DUP5 ADD SWAP4 ADD PUSH2 0x2823 JUMP JUMPDEST SWAP1 SWAP2 POP DUP4 PUSH1 0x0 MSTORE DUP10 PUSH1 0x0 KECCAK256 PUSH1 0x1F DUP5 ADD PUSH1 0x5 SHR DUP2 ADD SWAP2 DUP12 DUP6 LT PUSH2 0x28B9 JUMPI JUMPDEST DUP5 SWAP4 SWAP3 SWAP2 PUSH1 0x1F DUP10 SWAP3 ADD PUSH1 0x5 SHR ADD SWAP2 JUMPDEST DUP3 DUP2 LT PUSH2 0x28AA JUMPI POP POP PUSH2 0x2741 JUMP JUMPDEST PUSH1 0x0 DUP2 SSTORE DUP6 SWAP5 POP DUP9 SWAP2 ADD PUSH2 0x289C JUMP JUMPDEST SWAP1 SWAP2 POP DUP2 SWAP1 PUSH2 0x288D JUMP JUMPDEST PUSH1 0x40 MLOAD PUSH3 0x461BCD PUSH1 0xE5 SHL DUP2 MSTORE PUSH1 0x4 DUP2 ADD DUP7 SWAP1 MSTORE PUSH1 0xF PUSH1 0x24 DUP3 ADD MSTORE PUSH15 0x4E6F7420696E2070726F6772657373 PUSH1 0x88 SHL PUSH1 0x44 DUP3 ADD MSTORE PUSH1 0x64 SWAP1 REVERT JUMPDEST CALLVALUE PUSH2 0x263 JUMPI PUSH1 0x20 DUP1 PUSH1 0x3 NOT CALLDATASIZE ADD SLT PUSH2 0x263 JUMPI PUSH1 0x4 CALLDATALOAD PUSH1 0x0 MSTORE PUSH1 0xB DUP2 MSTORE PUSH1 0x40 PUSH1 0x0 KECCAK256 CALLER PUSH1 0x0 MSTORE PUSH1 0x4 DUP3 MSTORE PUSH1 0xFF PUSH1 0x40 PUSH1 0x0 KECCAK256 SLOAD AND PUSH1 0x3 DUP2 LT ISZERO PUSH2 0x42F JUMPI PUSH1 0x2 PUSH2 0x2941 SWAP2 EQ PUSH2 0x3EE9 JUMP JUMPDEST PUSH1 0x9 DUP2 ADD SWAP1 DUP2 SLOAD SWAP1 PUSH1 0xFF DUP3 AND PUSH1 0x9 DUP2 LT ISZERO PUSH2 0x42F JUMPI PUSH1 0x1 SUB PUSH2 0x2A0F JUMPI DUP1 SLOAD PUSH1 0x1 PUSH1 0x1 PUSH1 0xA0 SHL SUB SWAP1 DUP2 AND CALLER EQ PUSH2 0x29D4 JUMPI PUSH1 0x1 DUP3 ADD SWAP1 DUP2 SLOAD SWAP1 DUP2 AND PUSH2 0x299F JUMPI PUSH1 0x1 PUSH1 0x1 PUSH1 0xA0 SHL SUB NOT AND CALLER OR SWAP1 SSTORE TIMESTAMP PUSH1 0x7 SWAP2 SWAP1 SWAP2 ADD SSTORE PUSH1 0xFF NOT AND PUSH1 0x2 OR SWAP1 SSTORE STOP JUMPDEST PUSH1 0x40 MLOAD PUSH3 0x461BCD PUSH1 0xE5 SHL DUP2 MSTORE PUSH1 0x4 DUP2 ADD DUP8 SWAP1 MSTORE PUSH1 0xD PUSH1 0x24 DUP3 ADD MSTORE PUSH13 0x20B63932B0B23C903A30B5B2B7 PUSH1 0x99 SHL PUSH1 0x44 DUP3 ADD MSTORE PUSH1 0x64 SWAP1 REVERT JUMPDEST PUSH1 0x40 MLOAD PUSH3 0x461BCD PUSH1 0xE5 SHL DUP2 MSTORE PUSH1 0x4 DUP2 ADD DUP7 SWAP1 MSTORE PUSH1 0x13 PUSH1 0x24 DUP3 ADD MSTORE PUSH19 0x21B0B73737BA103A30B5B29037BBB7103537B1 PUSH1 0x69 SHL PUSH1 0x44 DUP3 ADD MSTORE PUSH1 0x64 SWAP1 REVERT JUMPDEST PUSH1 0x40 MLOAD PUSH3 0x461BCD PUSH1 0xE5 SHL DUP2 MSTORE PUSH1 0x4 DUP2 ADD DUP6 SWAP1 MSTORE PUSH1 0xA PUSH1 0x24 DUP3 ADD MSTORE PUSH10 0x139BDD08199D5B991959 PUSH1 0xB2 SHL PUSH1 0x44 DUP3 ADD MSTORE PUSH1 0x64 SWAP1 REVERT JUMPDEST PUSH2 0x3D0E JUMP JUMPDEST CALLVALUE PUSH2 0x263 JUMPI PUSH2 0x2A54 CALLDATASIZE PUSH2 0x3D8C JUMP JUMPDEST PUSH1 0x0 DUP3 DUP2 MSTORE PUSH1 0xB PUSH1 0x20 MSTORE PUSH1 0x40 SWAP1 KECCAK256 DUP1 SLOAD PUSH1 0x1 PUSH1 0x1 PUSH1 0xA0 SHL SUB AND SWAP1 CALLER DUP3 EQ DUP1 ISZERO PUSH2 0x2FC6 JUMPI JUMPDEST PUSH2 0x2A81 SWAP1 PUSH2 0x48B9 JUMP JUMPDEST PUSH1 0x9 DUP2 ADD DUP1 SLOAD PUSH1 0xFF DUP2 AND PUSH1 0x9 DUP2 LT ISZERO PUSH2 0x42F JUMPI PUSH1 0x4 DUP2 EQ SWAP1 DUP2 ISZERO PUSH2 0x2FBB JUMPI JUMPDEST POP ISZERO PUSH2 0x2F7A JUMPI PUSH1 0x7 SWAP1 PUSH1 0xFF NOT AND OR SWAP1 SSTORE PUSH1 0x1 DUP1 DUP1 PUSH1 0xA0 SHL SUB SWAP2 ADD SLOAD AND SWAP1 DUP4 PUSH1 0x0 MSTORE PUSH1 0x5 PUSH1 0x20 MSTORE PUSH1 0x40 PUSH1 0x0 KECCAK256 SWAP3 PUSH2 0x2ADD PUSH1 0xFF PUSH1 0xB DUP7 ADD SLOAD AND ISZERO PUSH2 0x48F4 JUMP JUMPDEST PUSH1 0xA DUP5 ADD SLOAD PUSH2 0x2F3C JUMPI DUP5 DUP5 SSTORE PUSH1 0x1 DUP5 ADD DUP1 SLOAD PUSH1 0x1 PUSH1 0x1 PUSH1 0xA0 SHL SUB NOT AND CALLER OR SWAP1 SSTORE DUP1 MLOAD SWAP1 PUSH1 0x1 PUSH1 0x1 PUSH1 0x40 SHL SUB DUP3 GT PUSH2 0x3E4 JUMPI DUP2 SWAP1 PUSH2 0x2B1D PUSH1 0x2 DUP8 ADD SLOAD PUSH2 0x3B67 JUMP JUMPDEST PUSH1 0x1F DUP2 GT PUSH2 0x2EE9 JUMPI JUMPDEST POP PUSH1 0x20 SWAP1 PUSH1 0x1F DUP4 GT PUSH1 0x1 EQ PUSH2 0x2E7C JUMPI PUSH1 0x0 SWAP3 PUSH2 0x2E71 JUMPI JUMPDEST POP POP DUP2 PUSH1 0x1 SHL SWAP2 PUSH1 0x0 NOT SWAP1 PUSH1 0x3 SHL SHR NOT AND OR PUSH1 0x2 DUP5 ADD SSTORE JUMPDEST PUSH2 0x12C TIMESTAMP ADD DUP1 TIMESTAMP GT PUSH2 0x8E7 JUMPI PUSH1 0xA DUP5 ADD SSTORE PUSH1 0x40 MLOAD PUSH1 0x20 DUP2 ADD SWAP1 TIMESTAMP DUP3 MSTORE PREVRANDAO PUSH1 0x40 DUP3 ADD MSTORE DUP6 PUSH1 0x60 DUP3 ADD MSTORE PUSH1 0x60 DUP2 MSTORE PUSH2 0x2B8A DUP2 PUSH2 0x3BA1 JUMP JUMPDEST MLOAD SWAP1 KECCAK256 SWAP2 PUSH1 0x2 SLOAD PUSH2 0x2B9A DUP2 PUSH2 0x3E29 JUMP JUMPDEST SWAP3 PUSH1 0x0 SWAP3 PUSH1 0x0 JUMPDEST DUP4 DUP2 LT PUSH2 0x2DFF JUMPI POP POP POP POP PUSH1 0x5 DUP2 LT PUSH1 0x0 EQ PUSH2 0x2DF4 JUMPI PUSH1 0xFF DUP2 AND SWAP1 SWAP5 SWAP4 SWAP5 JUMPDEST PUSH2 0x2BCC PUSH1 0xFF DUP4 AND PUSH2 0x3E29 JUMP JUMPDEST SWAP4 PUSH2 0x2BD6 DUP3 PUSH2 0x3E29 JUMP JUMPDEST SWAP4 PUSH1 0x0 JUMPDEST DUP4 DUP2 LT PUSH2 0x2DC7 JUMPI POP POP PUSH1 0x0 JUMPDEST PUSH1 0xFF DUP5 AND DUP2 LT PUSH2 0x2CFD JUMPI DUP8 DUP8 DUP8 PUSH1 0xFF DUP2 MLOAD AND PUSH1 0x9 DUP5 ADD SWAP1 PUSH1 0xFF NOT DUP3 SLOAD AND OR SWAP1 SSTORE PUSH1 0x4 PUSH1 0x0 SWAP4 ADD SWAP3 JUMPDEST DUP2 MLOAD PUSH1 0xFF DUP3 AND SWAP1 DUP2 LT ISZERO PUSH2 0x2C68 JUMPI PUSH2 0x2C63 SWAP2 SWAP1 PUSH2 0xFE8 SWAP1 PUSH1 0x1 PUSH1 0x1 PUSH1 0xA0 SHL SUB SWAP1 PUSH2 0x2C38 SWAP1 DUP7 PUSH2 0x3E9C JUMP JUMPDEST MLOAD AND PUSH2 0x2C44 DUP4 DUP9 PUSH2 0x4944 JUMP JUMPDEST SWAP1 SWAP2 SWAP1 DUP3 SLOAD SWAP1 PUSH1 0x3 SHL SWAP2 PUSH1 0x1 DUP1 PUSH1 0xA0 SHL SUB DUP1 SWAP2 AND DUP4 SHL SWAP3 SHL NOT AND OR SWAP1 SSTORE JUMP JUMPDEST PUSH2 0x2C0E JUMP JUMPDEST POP POP PUSH1 0x40 MLOAD SWAP1 CALLER DUP4 PUSH32 0x84A477DF8A28A4276CA6DEE4458A06C3015F30C477D9C949EDE4E13FF8A552B4 PUSH1 0x0 DUP1 LOG3 PUSH1 0x20 DUP3 ADD PUSH1 0x20 DUP4 MSTORE DUP2 MLOAD DUP1 SWAP2 MSTORE PUSH1 0x20 PUSH1 0x40 DUP5 ADD SWAP3 ADD SWAP1 PUSH1 0x0 JUMPDEST DUP2 DUP2 LT PUSH2 0x2CDE JUMPI DUP6 PUSH32 0xAAF49C3B93C6F3A66B3AD89750CFDBB3FE0BE786559EF1298F6E6CB977566337 DUP7 DUP7 SUB DUP8 LOG2 STOP JUMPDEST DUP3 MLOAD PUSH1 0x1 PUSH1 0x1 PUSH1 0xA0 SHL SUB AND DUP5 MSTORE PUSH1 0x20 SWAP4 DUP5 ADD SWAP4 SWAP1 SWAP3 ADD SWAP2 PUSH1 0x1 ADD PUSH2 0x2CAE JUMP JUMPDEST PUSH1 0x40 SWAP8 SWAP7 SWAP8 MLOAD PUSH1 0x20 DUP2 ADD SWAP1 DUP4 DUP3 MSTORE DUP3 PUSH1 0x40 DUP3 ADD MSTORE PUSH1 0x40 DUP2 MSTORE PUSH2 0x2D1E DUP2 PUSH2 0x3BD7 JUMP JUMPDEST MLOAD SWAP1 KECCAK256 SWAP1 DUP1 DUP5 SUB SWAP1 DUP5 DUP3 GT PUSH2 0x8E7 JUMPI DUP1 DUP6 EQ PUSH2 0x2DB1 JUMPI PUSH2 0x2D45 PUSH2 0x2DA7 SWAP3 PUSH1 0xFF SWAP5 MOD DUP3 PUSH2 0x3F5D JUMP JUMPDEST PUSH2 0x2D82 PUSH1 0x1 PUSH1 0x1 PUSH1 0xA0 SHL SUB PUSH2 0x2D5A DUP5 DUP12 PUSH2 0x3E9C JUMP JUMPDEST MLOAD AND SWAP2 PUSH1 0x1 PUSH1 0x1 PUSH1 0xA0 SHL SUB PUSH2 0x2D6F DUP3 DUP13 PUSH2 0x3E9C JUMP JUMPDEST MLOAD AND PUSH2 0x2D7B DUP6 DUP13 PUSH2 0x3E9C JUMP JUMPDEST MSTORE DUP10 PUSH2 0x3E9C JUMP JUMPDEST MSTORE PUSH1 0x1 PUSH1 0x1 PUSH1 0xA0 SHL SUB PUSH2 0x2D95 DUP3 DUP10 PUSH2 0x3E9C JUMP JUMPDEST MLOAD AND PUSH2 0x2DA1 DUP3 DUP11 PUSH2 0x3E9C JUMP JUMPDEST MSTORE PUSH2 0x3E5B JUMP JUMPDEST SWAP1 POP SWAP7 SWAP6 SWAP7 PUSH2 0x2BE6 JUMP JUMPDEST PUSH4 0x4E487B71 PUSH1 0xE0 SHL PUSH1 0x0 MSTORE PUSH1 0x12 PUSH1 0x4 MSTORE PUSH1 0x24 PUSH1 0x0 REVERT JUMPDEST SWAP7 SWAP8 SWAP7 PUSH2 0x2DEC SWAP1 PUSH1 0x1 PUSH1 0x1 PUSH1 0xA0 SHL SUB PUSH2 0x2DE0 DUP3 DUP6 PUSH2 0x3E9C JUMP JUMPDEST MLOAD AND PUSH2 0x2DA1 DUP3 DUP10 PUSH2 0x3E9C JUMP JUMPDEST SWAP8 SWAP7 SWAP8 PUSH2 0x2BDA JUMP JUMPDEST PUSH1 0x5 SWAP1 SWAP5 SWAP4 SWAP5 PUSH2 0x2BC0 JUMP JUMPDEST PUSH2 0x2E08 DUP2 PUSH2 0x4CCD JUMP JUMPDEST SWAP1 SLOAD PUSH1 0x3 SWAP2 SWAP1 SWAP2 SHL SHR PUSH1 0x1 PUSH1 0x1 PUSH1 0xA0 SHL SUB AND DUP4 DUP2 EQ ISZERO DUP1 PUSH2 0x2E67 JUMPI JUMPDEST DUP1 PUSH2 0x2E58 JUMPI JUMPDEST PUSH2 0x2E3E JUMPI JUMPDEST POP PUSH2 0x2E39 SWAP1 PUSH2 0x3E5B JUMP JUMPDEST PUSH2 0x2BA1 JUMP JUMPDEST DUP6 PUSH2 0x2E51 SWAP2 PUSH2 0x2DA1 PUSH2 0x2E39 SWAP5 SWAP9 DUP11 PUSH2 0x3E9C JUMP JUMPDEST SWAP5 SWAP1 PUSH2 0x2E2F JUMP JUMPDEST POP PUSH2 0x2E62 DUP2 PUSH2 0x4CAD JUMP JUMPDEST PUSH2 0x2E2A JUMP JUMPDEST POP DUP3 DUP2 EQ ISZERO PUSH2 0x2E24 JUMP JUMPDEST ADD MLOAD SWAP1 POP DUP7 DUP1 PUSH2 0x2B3D JUMP JUMPDEST PUSH1 0x2 DUP8 ADD PUSH1 0x0 SWAP1 DUP2 MSTORE PUSH1 0x20 DUP2 KECCAK256 SWAP4 POP PUSH1 0x1F NOT DUP6 AND SWAP1 JUMPDEST DUP2 DUP2 LT PUSH2 0x2ED1 JUMPI POP SWAP1 DUP5 PUSH1 0x1 SWAP6 SWAP5 SWAP4 SWAP3 LT PUSH2 0x2EB8 JUMPI JUMPDEST POP POP POP DUP2 SHL ADD PUSH1 0x2 DUP5 ADD SSTORE PUSH2 0x2B55 JUMP JUMPDEST ADD MLOAD PUSH1 0x0 NOT PUSH1 0xF8 DUP5 PUSH1 0x3 SHL AND SHR NOT AND SWAP1 SSTORE DUP7 DUP1 DUP1 PUSH2 0x2EA8 JUMP JUMPDEST SWAP3 SWAP4 PUSH1 0x20 PUSH1 0x1 DUP2 SWAP3 DUP8 DUP7 ADD MLOAD DUP2 SSTORE ADD SWAP6 ADD SWAP4 ADD PUSH2 0x2E92 JUMP JUMPDEST SWAP1 SWAP2 POP PUSH1 0x2 DUP7 ADD PUSH1 0x0 MSTORE PUSH1 0x20 PUSH1 0x0 KECCAK256 PUSH1 0x1F DUP5 ADD PUSH1 0x5 SHR DUP2 ADD PUSH1 0x20 DUP6 LT PUSH2 0x2F35 JUMPI JUMPDEST SWAP1 DUP5 SWAP4 SWAP3 SWAP2 JUMPDEST PUSH1 0x1F DUP4 ADD PUSH1 0x5 SHR DUP3 ADD DUP2 LT PUSH2 0x2F26 JUMPI POP POP PUSH2 0x2B26 JUMP JUMPDEST PUSH1 0x0 DUP2 SSTORE DUP6 SWAP5 POP PUSH1 0x1 ADD PUSH2 0x2F10 JUMP JUMPDEST POP DUP1 PUSH2 0x2F0A JUMP JUMPDEST PUSH1 0x40 MLOAD PUSH3 0x461BCD PUSH1 0xE5 SHL DUP2 MSTORE PUSH1 0x20 PUSH1 0x4 DUP3 ADD MSTORE PUSH1 0x16 PUSH1 0x24 DUP3 ADD MSTORE PUSH22 0x111A5CDC1D5D1948185B1C9958591E481C985A5CD959 PUSH1 0x52 SHL PUSH1 0x44 DUP3 ADD MSTORE PUSH1 0x64 SWAP1 REVERT JUMPDEST PUSH1 0x40 MLOAD PUSH3 0x461BCD PUSH1 0xE5 SHL DUP2 MSTORE PUSH1 0x20 PUSH1 0x4 DUP3 ADD MSTORE PUSH1 0x19 PUSH1 0x24 DUP3 ADD MSTORE PUSH25 0x496E76616C696420737461746520666F722064697370757465 PUSH1 0x38 SHL PUSH1 0x44 DUP3 ADD MSTORE PUSH1 0x64 SWAP1 REVERT JUMPDEST PUSH1 0x3 SWAP2 POP EQ DUP8 PUSH2 0x2AA0 JUMP JUMPDEST POP PUSH1 0x1 DUP2 ADD SLOAD PUSH1 0x1 PUSH1 0x1 PUSH1 0xA0 SHL SUB AND CALLER EQ PUSH2 0x2A78 JUMP JUMPDEST CALLVALUE PUSH2 0x263 JUMPI PUSH1 0x20 CALLDATASIZE PUSH1 0x3 NOT ADD SLT PUSH2 0x263 JUMPI PUSH1 0x4 CALLDATALOAD PUSH1 0x0 SWAP1 DUP2 MSTORE PUSH1 0x5 PUSH1 0x20 MSTORE PUSH1 0x40 SWAP1 KECCAK256 DUP1 SLOAD PUSH1 0x1 DUP3 ADD SLOAD PUSH1 0x1 PUSH1 0x1 PUSH1 0xA0 SHL SUB AND SWAP2 PUSH1 0xFF PUSH2 0x301D PUSH1 0x2 DUP4 ADD PUSH2 0x3C30 JUMP JUMPDEST PUSH2 0x3029 PUSH1 0x3 DUP5 ADD PUSH2 0x3C30 JUMP JUMPDEST SWAP3 DUP3 PUSH2 0x306E PUSH1 0x9 DUP4 ADD SLOAD SWAP6 PUSH2 0x3060 PUSH1 0xB PUSH1 0xA DUP7 ADD SLOAD SWAP6 ADD SLOAD SWAP6 PUSH1 0x40 MLOAD SWAP11 DUP12 SWAP11 DUP12 MSTORE PUSH1 0x20 DUP12 ADD MSTORE PUSH2 0x140 DUP1 PUSH1 0x40 DUP13 ADD MSTORE DUP11 ADD SWAP1 PUSH2 0x3B27 JUMP JUMPDEST SWAP1 DUP9 DUP3 SUB PUSH1 0x60 DUP11 ADD MSTORE PUSH2 0x3B27 JUMP JUMPDEST SWAP5 DUP2 DUP2 AND PUSH1 0x80 DUP9 ADD MSTORE DUP2 DUP2 PUSH1 0x8 SHR AND PUSH1 0xA0 DUP9 ADD MSTORE PUSH1 0x10 SHR AND PUSH1 0xC0 DUP7 ADD MSTORE PUSH1 0xE0 DUP6 ADD MSTORE DUP2 DUP2 AND ISZERO ISZERO PUSH2 0x100 DUP6 ADD MSTORE PUSH1 0x8 SHR AND ISZERO ISZERO PUSH2 0x120 DUP4 ADD MSTORE SUB SWAP1 RETURN JUMPDEST CALLVALUE PUSH2 0x263 JUMPI PUSH1 0x20 CALLDATASIZE PUSH1 0x3 NOT ADD SLT PUSH2 0x263 JUMPI PUSH1 0x1 PUSH1 0x1 PUSH1 0xA0 SHL SUB PUSH2 0x30CC PUSH2 0x3AC7 JUMP JUMPDEST AND PUSH1 0x0 MSTORE PUSH1 0x0 PUSH1 0x20 MSTORE PUSH1 0x20 PUSH1 0xFF PUSH1 0x40 PUSH1 0x0 KECCAK256 SLOAD AND PUSH1 0x40 MLOAD SWAP1 DUP2 MSTORE RETURN JUMPDEST CALLVALUE PUSH2 0x263 JUMPI PUSH1 0x0 CALLDATASIZE PUSH1 0x3 NOT ADD SLT PUSH2 0x263 JUMPI PUSH1 0x20 PUSH1 0xA SLOAD PUSH1 0x40 MLOAD SWAP1 DUP2 MSTORE RETURN JUMPDEST CALLVALUE PUSH2 0x263 JUMPI PUSH1 0x20 CALLDATASIZE PUSH1 0x3 NOT ADD SLT PUSH2 0x263 JUMPI PUSH1 0x1 PUSH1 0x1 PUSH1 0xA0 SHL SUB PUSH2 0x3127 PUSH2 0x3AC7 JUMP JUMPDEST AND PUSH1 0x0 MSTORE PUSH1 0xD PUSH1 0x20 MSTORE PUSH1 0x20 PUSH1 0x40 PUSH1 0x0 KECCAK256 SLOAD PUSH1 0x40 MLOAD SWAP1 DUP2 MSTORE RETURN JUMPDEST CALLVALUE PUSH2 0x263 JUMPI PUSH1 0x0 CALLDATASIZE PUSH1 0x3 NOT ADD SLT PUSH2 0x263 JUMPI PUSH1 0x20 PUSH1 0x40 MLOAD PUSH2 0x12C DUP2 MSTORE RETURN JUMPDEST CALLVALUE PUSH2 0x263 JUMPI PUSH1 0x40 CALLDATASIZE PUSH1 0x3 NOT ADD SLT PUSH2 0x263 JUMPI PUSH2 0x3176 PUSH2 0x3ADD JUMP JUMPDEST PUSH1 0x4 CALLDATALOAD PUSH1 0x0 MSTORE PUSH1 0x6 PUSH1 0x20 MSTORE PUSH1 0x40 PUSH1 0x0 KECCAK256 SWAP1 PUSH1 0x1 DUP1 PUSH1 0xA0 SHL SUB AND PUSH1 0x0 MSTORE PUSH1 0x20 MSTORE PUSH1 0x20 PUSH1 0xFF PUSH1 0x40 PUSH1 0x0 KECCAK256 SLOAD AND PUSH1 0x40 MLOAD SWAP1 ISZERO ISZERO DUP2 MSTORE RETURN JUMPDEST CALLVALUE PUSH2 0x263 JUMPI PUSH1 0x20 CALLDATASIZE PUSH1 0x3 NOT ADD SLT PUSH2 0x263 JUMPI PUSH1 0x20 PUSH2 0x31CD PUSH2 0x31C8 PUSH2 0x3AC7 JUMP JUMPDEST PUSH2 0x4CAD JUMP JUMPDEST PUSH1 0x40 MLOAD SWAP1 ISZERO ISZERO DUP2 MSTORE RETURN JUMPDEST CALLVALUE PUSH2 0x263 JUMPI PUSH1 0x0 CALLDATASIZE PUSH1 0x3 NOT ADD SLT PUSH2 0x263 JUMPI PUSH1 0x20 PUSH1 0x40 MLOAD PUSH1 0x0 DUP2 MSTORE RETURN JUMPDEST CALLVALUE PUSH2 0x263 JUMPI PUSH1 0x0 CALLDATASIZE PUSH1 0x3 NOT ADD SLT PUSH2 0x263 JUMPI PUSH1 0x20 PUSH1 0x40 MLOAD PUSH1 0x3C DUP2 MSTORE RETURN JUMPDEST CALLVALUE PUSH2 0x263 JUMPI PUSH1 0x40 CALLDATASIZE PUSH1 0x3 NOT ADD SLT PUSH2 0x263 JUMPI PUSH1 0x1 PUSH1 0x1 PUSH1 0xA0 SHL SUB PUSH2 0x3230 PUSH2 0x3AC7 JUMP JUMPDEST AND PUSH1 0x0 MSTORE PUSH1 0x9 PUSH1 0x20 MSTORE PUSH1 0x40 PUSH1 0x0 KECCAK256 PUSH1 0x24 CALLDATALOAD PUSH1 0x0 MSTORE PUSH1 0x20 MSTORE PUSH1 0x20 PUSH1 0x40 PUSH1 0x0 KECCAK256 SLOAD PUSH1 0x40 MLOAD SWAP1 DUP2 MSTORE RETURN JUMPDEST CALLVALUE PUSH2 0x263 JUMPI PUSH1 0x20 CALLDATASIZE PUSH1 0x3 NOT ADD SLT PUSH2 0x263 JUMPI PUSH1 0x4 CALLDATALOAD PUSH1 0x0 MSTORE PUSH1 0xC PUSH1 0x20 MSTORE PUSH1 0x40 PUSH1 0x0 KECCAK256 PUSH1 0x1 DUP1 PUSH1 0xA0 SHL SUB SWAP1 PUSH2 0x16B8 DUP3 DUP3 SLOAD AND SWAP2 PUSH1 0xFF PUSH2 0x329B PUSH1 0x2 PUSH1 0x1 DUP5 ADD SLOAD SWAP4 ADD PUSH2 0x3C30 JUMP JUMPDEST SWAP2 PUSH1 0x40 MLOAD SWAP6 DUP7 SWAP6 DUP7 MSTORE DUP2 AND PUSH1 0x20 DUP7 ADD MSTORE PUSH1 0xA0 SHR AND PUSH1 0x40 DUP5 ADD MSTORE PUSH1 0x80 PUSH1 0x60 DUP5 ADD MSTORE PUSH1 0x80 DUP4 ADD SWAP1 PUSH2 0x3B27 JUMP JUMPDEST CALLVALUE PUSH2 0x263 JUMPI PUSH1 0x0 CALLDATASIZE PUSH1 0x3 NOT ADD SLT PUSH2 0x263 JUMPI PUSH1 0x20 PUSH1 0x40 MLOAD PUSH1 0x64 DUP2 MSTORE RETURN JUMPDEST CALLVALUE PUSH2 0x263 JUMPI PUSH1 0x0 CALLDATASIZE PUSH1 0x3 NOT ADD SLT PUSH2 0x263 JUMPI PUSH1 0x20 PUSH1 0x40 MLOAD PUSH1 0x5 DUP2 MSTORE RETURN JUMPDEST CALLVALUE PUSH2 0x263 JUMPI PUSH1 0x20 CALLDATASIZE PUSH1 0x3 NOT ADD SLT PUSH2 0x263 JUMPI PUSH1 0x1 PUSH1 0x1 PUSH1 0xA0 SHL SUB PUSH2 0x331E PUSH2 0x3AC7 JUMP JUMPDEST AND PUSH1 0x0 MSTORE PUSH1 0xE PUSH1 0x20 MSTORE PUSH1 0x20 PUSH1 0x40 PUSH1 0x0 KECCAK256 SLOAD PUSH1 0x40 MLOAD SWAP1 DUP2 MSTORE RETURN JUMPDEST CALLVALUE PUSH2 0x263 JUMPI PUSH1 0x0 CALLDATASIZE PUSH1 0x3 NOT ADD SLT PUSH2 0x263 JUMPI CALLER PUSH1 0x0 MSTORE PUSH1 0x4 PUSH1 0x20 MSTORE PUSH1 0xFF PUSH1 0x40 PUSH1 0x0 KECCAK256 SLOAD AND PUSH1 0x3 DUP2 LT ISZERO PUSH2 0x42F JUMPI PUSH2 0x336D SWAP1 ISZERO PUSH2 0x3DD1 JUMP JUMPDEST CALLER PUSH1 0x0 MSTORE PUSH1 0x4 PUSH1 0x20 MSTORE PUSH1 0x40 PUSH1 0x0 KECCAK256 PUSH1 0x2 PUSH1 0xFF NOT DUP3 SLOAD AND OR SWAP1 SSTORE PUSH2 0x2596 CALLER PUSH2 0x4A17 JUMP JUMPDEST CALLVALUE PUSH2 0x263 JUMPI PUSH1 0x20 CALLDATASIZE PUSH1 0x3 NOT ADD SLT PUSH2 0x263 JUMPI PUSH2 0xCB5 PUSH1 0x4 CALLDATALOAD PUSH2 0x4101 JUMP JUMPDEST CALLVALUE PUSH2 0x263 JUMPI PUSH1 0x20 CALLDATASIZE PUSH1 0x3 NOT ADD SLT PUSH2 0x263 JUMPI PUSH1 0x4 CALLDATALOAD PUSH1 0x0 MSTORE PUSH1 0xB PUSH1 0x20 MSTORE PUSH1 0x40 PUSH1 0x0 KECCAK256 PUSH1 0x1 DUP1 PUSH1 0xA0 SHL SUB SWAP1 DUP2 DUP2 SLOAD AND SWAP2 PUSH1 0x1 DUP3 ADD SLOAD AND SWAP1 PUSH1 0x2 DUP2 ADD SLOAD SWAP1 PUSH1 0x3 DUP2 ADD SLOAD SWAP2 PUSH2 0x3459 PUSH2 0x33FB PUSH1 0x4 DUP5 ADD PUSH2 0x3C30 JUMP JUMPDEST PUSH2 0x344B PUSH2 0x340A PUSH1 0x5 DUP7 ADD PUSH2 0x3C30 JUMP JUMPDEST SWAP2 PUSH1 0x6 DUP7 ADD SLOAD SWAP7 PUSH1 0x7 DUP8 ADD SLOAD SWAP6 PUSH1 0xFF PUSH1 0x9 PUSH1 0x8 DUP11 ADD SLOAD SWAP10 ADD SLOAD AND SWAP10 PUSH1 0x40 MLOAD SWAP12 DUP13 MSTORE PUSH1 0x20 DUP13 ADD MSTORE PUSH1 0x40 DUP12 ADD MSTORE PUSH1 0x60 DUP11 ADD MSTORE PUSH2 0x140 DUP1 PUSH1 0x80 DUP12 ADD MSTORE DUP10 ADD SWAP1 PUSH2 0x3B27 JUMP JUMPDEST SWAP1 DUP8 DUP3 SUB PUSH1 0xA0 DUP10 ADD MSTORE PUSH2 0x3B27 JUMP JUMPDEST SWAP3 PUSH1 0xC0 DUP7 ADD MSTORE PUSH1 0xE0 DUP6 ADD MSTORE PUSH2 0x100 DUP5 ADD MSTORE PUSH1 0x9 DUP3 LT ISZERO PUSH2 0x42F JUMPI DUP3 SWAP2 PUSH2 0x120 DUP4 ADD MSTORE SUB SWAP1 RETURN JUMPDEST CALLVALUE PUSH2 0x263 JUMPI PUSH1 0x20 DUP1 PUSH1 0x3 NOT CALLDATASIZE ADD SLT PUSH2 0x263 JUMPI PUSH1 0xA0 PUSH1 0x40 MLOAD PUSH2 0x349F DUP2 PUSH2 0x3BBC JUMP JUMPDEST CALLDATASIZE SWAP1 CALLDATACOPY PUSH1 0x4 CALLDATALOAD PUSH1 0x0 MSTORE PUSH1 0x5 DUP1 DUP3 MSTORE PUSH1 0x4 PUSH1 0x40 PUSH1 0x0 KECCAK256 ADD SWAP2 PUSH1 0x40 MLOAD SWAP3 DUP4 DUP3 PUSH1 0x0 SWAP2 JUMPDEST DUP6 DUP4 LT PUSH2 0x3508 JUMPI POP POP POP POP PUSH2 0x34D4 DUP4 PUSH2 0x3BBC JUMP JUMPDEST PUSH1 0x40 MLOAD SWAP3 PUSH1 0x0 SWAP1 DUP5 JUMPDEST DUP5 DUP4 LT PUSH2 0x34E9 JUMPI PUSH1 0xA0 DUP7 RETURN JUMPDEST DUP2 MLOAD PUSH1 0x1 PUSH1 0x1 PUSH1 0xA0 SHL SUB AND DUP2 MSTORE PUSH1 0x1 SWAP3 SWAP1 SWAP3 ADD SWAP2 SWAP1 DUP4 ADD SWAP1 DUP4 ADD PUSH2 0x34DD JUMP JUMPDEST DUP4 SLOAD PUSH1 0x1 PUSH1 0x1 PUSH1 0xA0 SHL SUB AND DUP2 MSTORE PUSH1 0x1 SWAP4 DUP5 ADD SWAP4 SWAP3 SWAP1 SWAP3 ADD SWAP2 DUP5 SWAP2 ADD PUSH2 0x34C0 JUMP JUMPDEST CALLVALUE PUSH2 0x263 JUMPI PUSH1 0x40 CALLDATASIZE PUSH1 0x3 NOT ADD SLT PUSH2 0x263 JUMPI PUSH1 0x24 DUP1 CALLDATALOAD DUP1 ISZERO ISZERO SWAP1 PUSH1 0x4 CALLDATALOAD SWAP1 DUP3 DUP2 SUB PUSH2 0x263 JUMPI DUP2 PUSH1 0x0 MSTORE PUSH1 0x20 SWAP1 PUSH1 0xB DUP3 MSTORE PUSH1 0xFF DUP1 PUSH1 0x9 PUSH1 0x40 PUSH1 0x0 KECCAK256 ADD SLOAD AND PUSH1 0x9 DUP2 LT ISZERO PUSH2 0x37D2 JUMPI PUSH1 0x7 PUSH2 0x3579 SWAP2 EQ PUSH2 0x4954 JUMP JUMPDEST DUP4 PUSH1 0x0 MSTORE PUSH1 0x5 DUP4 MSTORE PUSH1 0x40 PUSH1 0x0 KECCAK256 SWAP2 PUSH1 0xA DUP4 ADD SLOAD DUP1 ISZERO PUSH2 0x379A JUMPI PUSH2 0x35A2 DUP4 PUSH1 0xB DUP7 ADD SLOAD AND ISZERO PUSH2 0x48F4 JUMP JUMPDEST TIMESTAMP LT ISZERO PUSH2 0x3760 JUMPI DUP5 PUSH1 0x0 MSTORE PUSH1 0x6 DUP5 MSTORE PUSH1 0x40 PUSH1 0x0 KECCAK256 CALLER PUSH1 0x0 MSTORE DUP5 MSTORE DUP2 PUSH1 0x40 PUSH1 0x0 KECCAK256 SLOAD AND PUSH2 0x372C JUMPI PUSH1 0x0 DUP1 SWAP4 PUSH1 0x9 DUP2 ADD SWAP5 PUSH1 0x4 DUP6 DUP8 SLOAD AND SWAP3 ADD SWAP1 JUMPDEST DUP3 DUP7 DUP3 AND LT PUSH2 0x36EE JUMPI JUMPDEST POP POP POP ISZERO PUSH2 0x36B3 JUMPI DUP5 PUSH32 0xF2913DBE661EE2ACC4A046D8FBCDC792373BDA34C41C6086484B5345E5785E5F SWAP6 SWAP7 SWAP8 POP PUSH1 0x0 MSTORE PUSH1 0x6 DUP5 MSTORE PUSH1 0x40 PUSH1 0x0 KECCAK256 CALLER PUSH1 0x0 MSTORE DUP5 MSTORE PUSH1 0x40 PUSH1 0x0 KECCAK256 PUSH1 0xFF NOT SWAP1 PUSH1 0x1 DUP3 DUP3 SLOAD AND OR SWAP1 SSTORE DUP7 PUSH1 0x0 MSTORE PUSH1 0x7 DUP6 MSTORE PUSH1 0x40 PUSH1 0x0 KECCAK256 CALLER PUSH1 0x0 MSTORE DUP6 MSTORE PUSH1 0x40 PUSH1 0x0 KECCAK256 SWAP1 DUP2 SLOAD AND DUP4 DUP10 AND OR SWAP1 SSTORE PUSH1 0x0 EQ PUSH2 0x368C JUMPI PUSH2 0xFF00 PUSH2 0x3673 DUP4 SLOAD SWAP3 DUP4 PUSH1 0x8 SHR AND PUSH2 0x4933 JUMP JUMPDEST PUSH1 0x8 SHL AND SWAP1 PUSH2 0xFF00 NOT AND OR SWAP1 SSTORE JUMPDEST PUSH1 0x40 MLOAD SWAP4 DUP5 MSTORE CALLER SWAP4 LOG3 STOP JUMPDEST PUSH3 0xFF0000 PUSH2 0x36A0 DUP4 SLOAD SWAP3 DUP4 PUSH1 0x10 SHR AND PUSH2 0x4933 JUMP JUMPDEST PUSH1 0x10 SHL AND SWAP1 PUSH3 0xFF0000 NOT AND OR SWAP1 SSTORE PUSH2 0x3681 JUMP JUMPDEST PUSH1 0x40 MLOAD PUSH3 0x461BCD PUSH1 0xE5 SHL DUP2 MSTORE PUSH1 0x4 DUP2 ADD DUP6 SWAP1 MSTORE PUSH1 0x14 DUP2 DUP10 ADD MSTORE PUSH20 0x2737BA10309039B2B632B1BA32B2103B37BA32B9 PUSH1 0x61 SHL PUSH1 0x44 DUP3 ADD MSTORE PUSH1 0x64 SWAP1 REVERT JUMPDEST PUSH2 0x36F8 DUP2 DUP4 PUSH2 0x4944 JUMP JUMPDEST SWAP1 SLOAD PUSH1 0x3 SWAP2 SWAP1 SWAP2 SHL SHR PUSH1 0x1 PUSH1 0x1 PUSH1 0xA0 SHL SUB AND CALLER EQ PUSH2 0x371E JUMPI PUSH2 0x3719 SWAP1 PUSH2 0x4933 JUMP JUMPDEST PUSH2 0x35DB JUMP JUMPDEST POP POP POP POP PUSH1 0x1 DUP9 DUP1 DUP1 PUSH2 0x35E5 JUMP JUMPDEST PUSH1 0x40 MLOAD PUSH3 0x461BCD PUSH1 0xE5 SHL DUP2 MSTORE PUSH1 0x4 DUP2 ADD DUP6 SWAP1 MSTORE PUSH1 0xD DUP2 DUP10 ADD MSTORE PUSH13 0x105B1C9958591E481D9BDD1959 PUSH1 0x9A SHL PUSH1 0x44 DUP3 ADD MSTORE PUSH1 0x64 SWAP1 REVERT JUMPDEST PUSH1 0x40 MLOAD PUSH3 0x461BCD PUSH1 0xE5 SHL DUP2 MSTORE PUSH1 0x4 DUP2 ADD DUP6 SWAP1 MSTORE PUSH1 0x13 DUP2 DUP10 ADD MSTORE PUSH19 0x159BDD1A5B99C81C195C9A5BD908195B991959 PUSH1 0x6A SHL PUSH1 0x44 DUP3 ADD MSTORE PUSH1 0x64 SWAP1 REVERT JUMPDEST PUSH1 0x40 MLOAD PUSH3 0x461BCD PUSH1 0xE5 SHL DUP2 MSTORE PUSH1 0x4 DUP2 ADD DUP7 SWAP1 MSTORE PUSH1 0x11 DUP2 DUP11 ADD MSTORE PUSH17 0x4E6F206469737075746520657869737473 PUSH1 0x78 SHL PUSH1 0x44 DUP3 ADD MSTORE PUSH1 0x64 SWAP1 REVERT JUMPDEST DUP7 PUSH4 0x4E487B71 PUSH1 0xE0 SHL PUSH1 0x0 MSTORE PUSH1 0x21 PUSH1 0x4 MSTORE PUSH1 0x0 REVERT JUMPDEST CALLVALUE PUSH2 0x263 JUMPI PUSH1 0x20 CALLDATASIZE PUSH1 0x3 NOT ADD SLT PUSH2 0x263 JUMPI PUSH1 0x4 CALLDATALOAD PUSH1 0x0 MSTORE PUSH1 0xB PUSH1 0x20 MSTORE PUSH1 0x40 PUSH1 0x0 KECCAK256 PUSH2 0x381F PUSH1 0x1 DUP1 PUSH1 0xA0 SHL SUB PUSH1 0x1 DUP4 ADD SLOAD AND CALLER EQ PUSH2 0x3EE9 JUMP JUMPDEST PUSH1 0x9 DUP2 ADD SWAP1 DUP2 SLOAD SWAP1 PUSH1 0xFF DUP3 AND SWAP1 PUSH1 0x9 DUP3 LT ISZERO PUSH2 0x42F JUMPI PUSH2 0x3844 PUSH1 0x2 PUSH2 0x3854 SWAP4 EQ PUSH2 0x3F22 JUMP JUMPDEST PUSH1 0x3 PUSH1 0x7 DUP3 ADD SLOAD SWAP2 ADD SLOAD SWAP1 PUSH2 0x3F5D JUMP JUMPDEST TIMESTAMP GT PUSH2 0x3865 JUMPI PUSH1 0xFF NOT AND PUSH1 0x3 OR SWAP1 SSTORE STOP JUMPDEST PUSH1 0x40 MLOAD PUSH3 0x461BCD PUSH1 0xE5 SHL DUP2 MSTORE PUSH1 0x20 PUSH1 0x4 DUP3 ADD MSTORE PUSH1 0x14 PUSH1 0x24 DUP3 ADD MSTORE PUSH20 0x14DD185C9D081DDA5B991BDDC8195E1C1A5C9959 PUSH1 0x62 SHL PUSH1 0x44 DUP3 ADD MSTORE PUSH1 0x64 SWAP1 REVERT JUMPDEST CALLVALUE PUSH2 0x263 JUMPI PUSH1 0x20 DUP1 PUSH1 0x3 NOT CALLDATASIZE ADD SLT PUSH2 0x263 JUMPI PUSH1 0x1 PUSH1 0x1 PUSH1 0xA0 SHL SUB PUSH2 0x38C3 PUSH2 0x3AC7 JUMP JUMPDEST AND PUSH1 0x0 MSTORE PUSH1 0x8 DUP2 MSTORE PUSH1 0x40 PUSH1 0x0 KECCAK256 DUP1 SLOAD SWAP1 PUSH2 0x38DC DUP3 PUSH2 0x3E12 JUMP JUMPDEST SWAP2 PUSH2 0x38EA PUSH1 0x40 MLOAD SWAP4 DUP5 PUSH2 0x3C0D JUMP JUMPDEST DUP1 DUP4 MSTORE PUSH2 0x38F6 DUP2 PUSH2 0x3E12 JUMP JUMPDEST SWAP1 DUP5 DUP5 ADD PUSH1 0x1F NOT DUP1 SWAP4 ADD CALLDATASIZE DUP3 CALLDATACOPY PUSH2 0x390C DUP3 PUSH2 0x3E29 JUMP JUMPDEST PUSH2 0x3915 DUP4 PUSH2 0x3E29 JUMP JUMPDEST SWAP3 PUSH2 0x391F DUP2 PUSH2 0x3E12 JUMP JUMPDEST SWAP6 PUSH2 0x392D PUSH1 0x40 MLOAD SWAP8 DUP9 PUSH2 0x3C0D JUMP JUMPDEST DUP2 DUP8 MSTORE DUP6 PUSH2 0x393A DUP4 PUSH2 0x3E12 JUMP JUMPDEST ADD PUSH1 0x0 JUMPDEST DUP2 DUP2 LT PUSH2 0x3AB8 JUMPI POP POP PUSH1 0x0 JUMPDEST DUP3 DUP2 LT PUSH2 0x3A1F JUMPI POP POP POP PUSH1 0x40 MLOAD SWAP6 PUSH1 0x80 DUP8 ADD SWAP1 PUSH1 0x80 DUP9 MSTORE MLOAD DUP1 SWAP2 MSTORE PUSH1 0xA0 DUP8 ADD SWAP3 SWAP1 PUSH1 0x0 JUMPDEST DUP2 DUP2 LT PUSH2 0x39F8 JUMPI POP POP POP DUP2 PUSH2 0x398D SWAP2 DUP8 PUSH2 0x399B SWAP6 SWAP5 SUB DUP10 DUP10 ADD MSTORE PUSH2 0x3AF3 JUMP JUMPDEST SWAP1 DUP6 DUP3 SUB PUSH1 0x40 DUP8 ADD MSTORE PUSH2 0x3AF3 JUMP JUMPDEST SWAP4 DUP4 DUP6 SUB PUSH1 0x60 DUP6 ADD MSTORE DUP3 MLOAD SWAP1 DUP2 DUP7 MSTORE DUP1 DUP7 ADD DUP2 DUP1 DUP5 PUSH1 0x5 SHL DUP10 ADD ADD SWAP6 ADD SWAP4 PUSH1 0x0 SWAP8 JUMPDEST DUP5 DUP10 LT PUSH2 0x39CA JUMPI DUP8 DUP8 SUB DUP9 RETURN JUMPDEST SWAP1 SWAP2 SWAP3 SWAP4 SWAP5 SWAP6 DUP5 DUP1 PUSH2 0x39E6 DUP4 DUP7 DUP7 PUSH1 0x1 SWAP7 SUB ADD DUP9 MSTORE DUP11 MLOAD PUSH2 0x3B27 JUMP JUMPDEST SWAP9 ADD SWAP5 ADD SWAP9 ADD SWAP8 SWAP2 SWAP1 SWAP5 SWAP4 SWAP3 SWAP5 PUSH2 0x39BD JUMP JUMPDEST SWAP1 SWAP2 SWAP4 DUP5 SWAP10 SWAP7 SWAP10 MLOAD SWAP1 PUSH1 0xE DUP3 LT ISZERO PUSH2 0x42F JUMPI SWAP1 DUP2 MSTORE SWAP6 SWAP9 SWAP6 DUP10 ADD SWAP4 DUP10 ADD SWAP2 SWAP1 PUSH1 0x1 ADD PUSH2 0x396E JUMP JUMPDEST PUSH1 0xFF PUSH2 0x3A2E DUP3 DUP5 SWAP13 SWAP10 SWAP13 PUSH2 0x3E6A JUMP JUMPDEST POP SLOAD AND SWAP1 PUSH2 0x3A3C DUP2 DUP12 PUSH2 0x3E9C JUMP JUMPDEST SWAP2 PUSH1 0xE DUP2 LT ISZERO PUSH2 0x42F JUMPI PUSH2 0x3AB0 SWAP3 MSTORE PUSH1 0x1 PUSH2 0x3A57 DUP3 DUP6 PUSH2 0x3E6A JUMP JUMPDEST POP ADD SLOAD PUSH2 0x3A64 DUP3 DUP8 PUSH2 0x3E9C JUMP JUMPDEST MSTORE PUSH1 0x2 PUSH2 0x3A71 DUP3 DUP6 PUSH2 0x3E6A JUMP JUMPDEST POP ADD SLOAD PUSH2 0x3A7E DUP3 DUP10 PUSH2 0x3E9C JUMP JUMPDEST MSTORE PUSH2 0x3A95 PUSH1 0x3 PUSH2 0x3A8E DUP4 DUP7 PUSH2 0x3E6A JUMP JUMPDEST POP ADD PUSH2 0x3C30 JUMP JUMPDEST PUSH2 0x3A9F DUP3 DUP12 PUSH2 0x3E9C JUMP JUMPDEST MSTORE PUSH2 0x3AAA DUP2 DUP11 PUSH2 0x3E9C JUMP JUMPDEST POP PUSH2 0x3E5B JUMP JUMPDEST SWAP9 SWAP6 SWAP9 PUSH2 0x394A JUMP JUMPDEST PUSH1 0x60 DUP10 DUP3 ADD DUP13 ADD MSTORE DUP11 ADD PUSH2 0x393E JUMP JUMPDEST PUSH1 0x4 CALLDATALOAD SWAP1 PUSH1 0x1 PUSH1 0x1 PUSH1 0xA0 SHL SUB DUP3 AND DUP3 SUB PUSH2 0x263 JUMPI JUMP JUMPDEST PUSH1 0x24 CALLDATALOAD SWAP1 PUSH1 0x1 PUSH1 0x1 PUSH1 0xA0 SHL SUB DUP3 AND DUP3 SUB PUSH2 0x263 JUMPI JUMP JUMPDEST SWAP1 DUP2 MLOAD DUP1 DUP3 MSTORE PUSH1 0x20 DUP1 DUP1 SWAP4 ADD SWAP4 ADD SWAP2 PUSH1 0x0 JUMPDEST DUP3 DUP2 LT PUSH2 0x3B13 JUMPI POP POP POP POP SWAP1 JUMP JUMPDEST DUP4 MLOAD DUP6 MSTORE SWAP4 DUP2 ADD SWAP4 SWAP3 DUP2 ADD SWAP3 PUSH1 0x1 ADD PUSH2 0x3B05 JUMP JUMPDEST SWAP2 SWAP1 DUP3 MLOAD SWAP3 DUP4 DUP3 MSTORE PUSH1 0x0 JUMPDEST DUP5 DUP2 LT PUSH2 0x3B53 JUMPI POP POP DUP3 PUSH1 0x0 PUSH1 0x20 DUP1 SWAP5 SWAP6 DUP5 ADD ADD MSTORE PUSH1 0x1F DUP1 NOT SWAP2 ADD AND ADD ADD SWAP1 JUMP JUMPDEST PUSH1 0x20 DUP2 DUP4 ADD DUP2 ADD MLOAD DUP5 DUP4 ADD DUP3 ADD MSTORE ADD PUSH2 0x3B32 JUMP JUMPDEST SWAP1 PUSH1 0x1 DUP3 DUP2 SHR SWAP3 AND DUP1 ISZERO PUSH2 0x3B97 JUMPI JUMPDEST PUSH1 0x20 DUP4 LT EQ PUSH2 0x3B81 JUMPI JUMP JUMPDEST PUSH4 0x4E487B71 PUSH1 0xE0 SHL PUSH1 0x0 MSTORE PUSH1 0x22 PUSH1 0x4 MSTORE PUSH1 0x24 PUSH1 0x0 REVERT JUMPDEST SWAP2 PUSH1 0x7F AND SWAP2 PUSH2 0x3B76 JUMP JUMPDEST PUSH1 0x80 DUP2 ADD SWAP1 DUP2 LT PUSH1 0x1 PUSH1 0x1 PUSH1 0x40 SHL SUB DUP3 GT OR PUSH2 0x3E4 JUMPI PUSH1 0x40 MSTORE JUMP JUMPDEST PUSH1 0xA0 DUP2 ADD SWAP1 DUP2 LT PUSH1 0x1 PUSH1 0x1 PUSH1 0x40 SHL SUB DUP3 GT OR PUSH2 0x3E4 JUMPI PUSH1 0x40 MSTORE JUMP JUMPDEST PUSH1 0x60 DUP2 ADD SWAP1 DUP2 LT PUSH1 0x1 PUSH1 0x1 PUSH1 0x40 SHL SUB DUP3 GT OR PUSH2 0x3E4 JUMPI PUSH1 0x40 MSTORE JUMP JUMPDEST PUSH1 0x40 DUP2 ADD SWAP1 DUP2 LT PUSH1 0x1 PUSH1 0x1 PUSH1 0x40 SHL SUB DUP3 GT OR PUSH2 0x3E4 JUMPI PUSH1 0x40 MSTORE JUMP JUMPDEST PUSH1 0x1F SWAP1 SWAP2 ADD PUSH1 0x1F NOT AND DUP2 ADD SWAP1 PUSH1 0x1 PUSH1 0x1 PUSH1 0x40 SHL SUB DUP3 GT SWAP1 DUP3 LT OR PUSH2 0x3E4 JUMPI PUSH1 0x40 MSTORE JUMP JUMPDEST SWAP1 PUSH1 0x40 MLOAD SWAP2 DUP3 PUSH1 0x0 DUP3 SLOAD SWAP3 PUSH2 0x3C44 DUP5 PUSH2 0x3B67 JUMP JUMPDEST SWAP1 DUP2 DUP5 MSTORE PUSH1 0x1 SWAP5 DUP6 DUP2 AND SWAP1 DUP2 PUSH1 0x0 EQ PUSH2 0x3CB3 JUMPI POP PUSH1 0x1 EQ PUSH2 0x3C70 JUMPI JUMPDEST POP POP PUSH2 0x3C6E SWAP3 POP SUB DUP4 PUSH2 0x3C0D JUMP JUMPDEST JUMP JUMPDEST SWAP1 SWAP4 SWAP2 POP PUSH1 0x0 MSTORE PUSH1 0x20 SWAP1 DUP2 PUSH1 0x0 KECCAK256 SWAP4 PUSH1 0x0 SWAP2 JUMPDEST DUP2 DUP4 LT PUSH2 0x3C9B JUMPI POP POP PUSH2 0x3C6E SWAP4 POP DUP3 ADD ADD CODESIZE DUP1 PUSH2 0x3C60 JUMP JUMPDEST DUP6 SLOAD DUP9 DUP5 ADD DUP6 ADD MSTORE SWAP5 DUP6 ADD SWAP5 DUP8 SWAP5 POP SWAP2 DUP4 ADD SWAP2 PUSH2 0x3C83 JUMP JUMPDEST SWAP2 POP POP PUSH2 0x3C6E SWAP5 POP PUSH1 0x20 SWAP3 POP PUSH1 0xFF NOT AND DUP3 DUP5 ADD MSTORE ISZERO ISZERO PUSH1 0x5 SHL DUP3 ADD ADD CODESIZE DUP1 PUSH2 0x3C60 JUMP JUMPDEST CALLVALUE PUSH2 0x263 JUMPI PUSH1 0x0 CALLDATASIZE PUSH1 0x3 NOT ADD SLT PUSH2 0x263 JUMPI PUSH1 0x20 PUSH1 0x40 MLOAD PUSH1 0x3 DUP2 MSTORE RETURN JUMPDEST CALLVALUE PUSH2 0x263 JUMPI PUSH1 0x0 CALLDATASIZE PUSH1 0x3 NOT ADD SLT PUSH2 0x263 JUMPI PUSH1 0x20 PUSH1 0x40 MLOAD PUSH1 0x50 DUP2 MSTORE RETURN JUMPDEST CALLVALUE PUSH2 0x263 JUMPI PUSH1 0x0 CALLDATASIZE PUSH1 0x3 NOT ADD SLT PUSH2 0x263 JUMPI PUSH1 0x20 PUSH1 0x40 MLOAD PUSH1 0x78 DUP2 MSTORE RETURN JUMPDEST PUSH1 0x1 PUSH1 0x1 PUSH1 0x40 SHL SUB DUP2 GT PUSH2 0x3E4 JUMPI PUSH1 0x1F ADD PUSH1 0x1F NOT AND PUSH1 0x20 ADD SWAP1 JUMP JUMPDEST DUP2 PUSH1 0x1F DUP3 ADD SLT ISZERO PUSH2 0x263 JUMPI DUP1 CALLDATALOAD SWAP1 PUSH2 0x3D5C DUP3 PUSH2 0x3D2A JUMP JUMPDEST SWAP3 PUSH2 0x3D6A PUSH1 0x40 MLOAD SWAP5 DUP6 PUSH2 0x3C0D JUMP JUMPDEST DUP3 DUP5 MSTORE PUSH1 0x20 DUP4 DUP4 ADD ADD GT PUSH2 0x263 JUMPI DUP2 PUSH1 0x0 SWAP3 PUSH1 0x20 DUP1 SWAP4 ADD DUP4 DUP7 ADD CALLDATACOPY DUP4 ADD ADD MSTORE SWAP1 JUMP JUMPDEST SWAP1 PUSH1 0x40 PUSH1 0x3 NOT DUP4 ADD SLT PUSH2 0x263 JUMPI PUSH1 0x4 CALLDATALOAD SWAP2 PUSH1 0x24 CALLDATALOAD SWAP1 PUSH1 0x1 PUSH1 0x1 PUSH1 0x40 SHL SUB DUP3 GT PUSH2 0x263 JUMPI PUSH2 0x3DBB SWAP2 PUSH1 0x4 ADD PUSH2 0x3D45 JUMP JUMPDEST SWAP1 JUMP JUMPDEST SWAP2 SWAP1 PUSH1 0x20 DUP4 ADD SWAP3 PUSH1 0x3 DUP3 LT ISZERO PUSH2 0x42F JUMPI MSTORE JUMP JUMPDEST ISZERO PUSH2 0x3DD8 JUMPI JUMP JUMPDEST PUSH1 0x40 MLOAD PUSH3 0x461BCD PUSH1 0xE5 SHL DUP2 MSTORE PUSH1 0x20 PUSH1 0x4 DUP3 ADD MSTORE PUSH1 0x12 PUSH1 0x24 DUP3 ADD MSTORE PUSH18 0x105B1C9958591E481C9959DA5CDD195C9959 PUSH1 0x72 SHL PUSH1 0x44 DUP3 ADD MSTORE PUSH1 0x64 SWAP1 REVERT JUMPDEST PUSH1 0x1 PUSH1 0x1 PUSH1 0x40 SHL SUB DUP2 GT PUSH2 0x3E4 JUMPI PUSH1 0x5 SHL PUSH1 0x20 ADD SWAP1 JUMP JUMPDEST SWAP1 PUSH2 0x3E33 DUP3 PUSH2 0x3E12 JUMP JUMPDEST PUSH2 0x3E40 PUSH1 0x40 MLOAD SWAP2 DUP3 PUSH2 0x3C0D JUMP JUMPDEST DUP3 DUP2 MSTORE DUP1 SWAP3 PUSH2 0x3E51 PUSH1 0x1F NOT SWAP2 PUSH2 0x3E12 JUMP JUMPDEST ADD SWAP1 PUSH1 0x20 CALLDATASIZE SWAP2 ADD CALLDATACOPY JUMP JUMPDEST PUSH1 0x0 NOT DUP2 EQ PUSH2 0x8E7 JUMPI PUSH1 0x1 ADD SWAP1 JUMP JUMPDEST DUP1 SLOAD DUP3 LT ISZERO PUSH2 0x3E86 JUMPI PUSH1 0x0 MSTORE PUSH1 0x20 PUSH1 0x0 KECCAK256 SWAP1 PUSH1 0x2 SHL ADD SWAP1 PUSH1 0x0 SWAP1 JUMP JUMPDEST PUSH4 0x4E487B71 PUSH1 0xE0 SHL PUSH1 0x0 MSTORE PUSH1 0x32 PUSH1 0x4 MSTORE PUSH1 0x24 PUSH1 0x0 REVERT JUMPDEST DUP1 MLOAD DUP3 LT ISZERO PUSH2 0x3E86 JUMPI PUSH1 0x20 SWAP2 PUSH1 0x5 SHL ADD ADD SWAP1 JUMP JUMPDEST ISZERO PUSH2 0x3EB7 JUMPI JUMP JUMPDEST PUSH1 0x40 MLOAD PUSH3 0x461BCD PUSH1 0xE5 SHL DUP2 MSTORE PUSH1 0x20 PUSH1 0x4 DUP3 ADD MSTORE PUSH1 0xA PUSH1 0x24 DUP3 ADD MSTORE PUSH10 0x139BDD0818DB1A595B9D PUSH1 0xB2 SHL PUSH1 0x44 DUP3 ADD MSTORE PUSH1 0x64 SWAP1 REVERT JUMPDEST ISZERO PUSH2 0x3EF0 JUMPI JUMP JUMPDEST PUSH1 0x40 MLOAD PUSH3 0x461BCD PUSH1 0xE5 SHL DUP2 MSTORE PUSH1 0x20 PUSH1 0x4 DUP3 ADD MSTORE PUSH1 0xA PUSH1 0x24 DUP3 ADD MSTORE PUSH10 0x2737BA103BB7B935B2B9 PUSH1 0xB1 SHL PUSH1 0x44 DUP3 ADD MSTORE PUSH1 0x64 SWAP1 REVERT JUMPDEST ISZERO PUSH2 0x3F29 JUMPI JUMP JUMPDEST PUSH1 0x40 MLOAD PUSH3 0x461BCD PUSH1 0xE5 SHL DUP2 MSTORE PUSH1 0x20 PUSH1 0x4 DUP3 ADD MSTORE PUSH1 0xC PUSH1 0x24 DUP3 ADD MSTORE PUSH12 0x139BDD081858D8D95C1D1959 PUSH1 0xA2 SHL PUSH1 0x44 DUP3 ADD MSTORE PUSH1 0x64 SWAP1 REVERT JUMPDEST SWAP2 SWAP1 DUP3 ADD DUP1 SWAP3 GT PUSH2 0x8E7 JUMPI JUMP JUMPDEST ISZERO PUSH2 0x3F71 JUMPI JUMP JUMPDEST PUSH1 0x40 MLOAD PUSH3 0x461BCD PUSH1 0xE5 SHL DUP2 MSTORE PUSH1 0x20 PUSH1 0x4 DUP3 ADD MSTORE PUSH1 0x9 PUSH1 0x24 DUP3 ADD MSTORE PUSH9 0x546F6F206561726C79 PUSH1 0xB8 SHL PUSH1 0x44 DUP3 ADD MSTORE PUSH1 0x64 SWAP1 REVERT JUMPDEST PUSH1 0x40 MLOAD PUSH2 0x3FAE DUP2 PUSH2 0x3BD7 JUMP JUMPDEST PUSH1 0x25 DUP2 MSTORE PUSH32 0x4163636570746564206F7220696E2D70726F6772657373206A6F62206162616E PUSH1 0x20 DUP3 ADD MSTORE PUSH5 0x191BDB9959 PUSH1 0xDA SHL PUSH1 0x40 DUP3 ADD MSTORE SWAP1 JUMP JUMPDEST PUSH1 0x40 MLOAD PUSH2 0x3FF5 DUP2 PUSH2 0x3BD7 JUMP JUMPDEST PUSH1 0x23 DUP2 MSTORE PUSH32 0x43616E63656C6C6564206A6F6220616674657220776F726B6572206163636570 PUSH1 0x20 DUP3 ADD MSTORE PUSH3 0x1D1959 PUSH1 0xEA SHL PUSH1 0x40 DUP3 ADD MSTORE SWAP1 JUMP JUMPDEST ISZERO PUSH2 0x4035 JUMPI JUMP JUMPDEST PUSH1 0x40 MLOAD PUSH3 0x461BCD PUSH1 0xE5 SHL DUP2 MSTORE PUSH1 0x20 PUSH1 0x4 DUP3 ADD MSTORE PUSH1 0xD PUSH1 0x24 DUP3 ADD MSTORE PUSH13 0x139BDD081CDD589B5A5D1D1959 PUSH1 0x9A SHL PUSH1 0x44 DUP3 ADD MSTORE PUSH1 0x64 SWAP1 REVERT JUMPDEST PUSH1 0x40 MLOAD SWAP1 PUSH2 0x4077 DUP3 PUSH2 0x3BF2 JUMP JUMPDEST PUSH1 0xD DUP3 MSTORE PUSH13 0x1A9BD897D8DBDB5C1B195D1959 PUSH1 0x9A SHL PUSH1 0x20 DUP4 ADD MSTORE JUMP JUMPDEST RETURNDATASIZE ISZERO PUSH2 0x40BE JUMPI RETURNDATASIZE SWAP1 PUSH2 0x40A4 DUP3 PUSH2 0x3D2A JUMP JUMPDEST SWAP2 PUSH2 0x40B2 PUSH1 0x40 MLOAD SWAP4 DUP5 PUSH2 0x3C0D JUMP JUMPDEST DUP3 MSTORE RETURNDATASIZE PUSH1 0x0 PUSH1 0x20 DUP5 ADD RETURNDATACOPY JUMP JUMPDEST PUSH1 0x60 SWAP1 JUMP JUMPDEST ISZERO PUSH2 0x40CA JUMPI JUMP JUMPDEST PUSH1 0x40 MLOAD PUSH3 0x461BCD PUSH1 0xE5 SHL DUP2 MSTORE PUSH1 0x20 PUSH1 0x4 DUP3 ADD MSTORE PUSH1 0xF PUSH1 0x24 DUP3 ADD MSTORE PUSH15 0x151C985B9CD9995C8819985A5B1959 PUSH1 0x8A SHL PUSH1 0x44 DUP3 ADD MSTORE PUSH1 0x64 SWAP1 REVERT JUMPDEST PUSH1 0x0 DUP2 DUP2 MSTORE PUSH1 0xB PUSH1 0x20 MSTORE PUSH1 0x40 SWAP1 KECCAK256 DUP1 SLOAD PUSH1 0x1 PUSH1 0x1 PUSH1 0xA0 SHL SUB AND PUSH2 0x4125 CALLER DUP3 EQ PUSH2 0x3EB0 JUMP JUMPDEST PUSH1 0x9 DUP3 ADD SWAP1 DUP2 SLOAD PUSH1 0xFF DUP2 AND PUSH1 0x9 DUP2 LT ISZERO PUSH2 0x42F JUMPI PUSH1 0x1 EQ PUSH2 0x4821 JUMPI POP POP DUP1 SLOAD PUSH1 0xFF DUP2 AND PUSH1 0x9 DUP2 LT ISZERO PUSH2 0x42F JUMPI PUSH1 0x2 EQ PUSH2 0x419B JUMPI PUSH1 0x40 MLOAD PUSH3 0x461BCD PUSH1 0xE5 SHL DUP2 MSTORE PUSH1 0x20 PUSH1 0x4 DUP3 ADD MSTORE PUSH1 0x1B PUSH1 0x24 DUP3 ADD MSTORE PUSH27 0x43616E6E6F742063616E63656C2061742074686973207374616765 PUSH1 0x28 SHL PUSH1 0x44 DUP3 ADD MSTORE PUSH1 0x64 SWAP1 REVERT JUMPDEST PUSH1 0xFF NOT AND PUSH1 0x6 OR SWAP1 SSTORE PUSH1 0x1 DUP2 ADD SLOAD DUP2 SLOAD PUSH1 0x1 PUSH1 0x1 PUSH1 0xA0 SHL SUB SWAP2 DUP3 AND SWAP3 SWAP2 AND PUSH2 0x41C1 PUSH2 0x3FE9 JUMP JUMPDEST DUP2 PUSH1 0x0 MSTORE PUSH1 0x8 PUSH1 0x20 MSTORE PUSH1 0x40 PUSH1 0x0 KECCAK256 SWAP1 PUSH1 0x40 MLOAD SWAP2 PUSH2 0x41DD DUP4 PUSH2 0x3BA1 JUMP JUMPDEST PUSH1 0x8 DUP4 MSTORE PUSH1 0x20 DUP4 ADD DUP8 DUP2 MSTORE PUSH1 0x40 DUP5 ADD SWAP2 TIMESTAMP DUP4 MSTORE PUSH1 0x60 DUP6 ADD SWAP4 DUP5 MSTORE DUP1 SLOAD PUSH1 0x1 PUSH1 0x40 SHL DUP2 LT ISZERO PUSH2 0x3E4 JUMPI PUSH2 0x4214 SWAP2 PUSH1 0x1 DUP3 ADD DUP2 SSTORE PUSH2 0x3E6A JUMP JUMPDEST SWAP5 SWAP1 SWAP5 PUSH2 0x9BE JUMPI MLOAD PUSH1 0xE DUP2 LT ISZERO PUSH2 0x42F JUMPI PUSH1 0xFF DUP1 NOT DUP7 SLOAD AND SWAP2 AND OR DUP5 SSTORE MLOAD PUSH1 0x1 DUP5 ADD SSTORE MLOAD PUSH1 0x2 DUP4 ADD SSTORE MLOAD DUP1 MLOAD SWAP1 PUSH1 0x1 DUP1 PUSH1 0x40 SHL SUB DUP3 GT PUSH2 0x3E4 JUMPI PUSH2 0x425B PUSH1 0x3 DUP5 ADD SLOAD PUSH2 0x3B67 JUMP JUMPDEST PUSH1 0x1F DUP2 GT PUSH2 0x47DA JUMPI JUMPDEST POP PUSH1 0x20 SWAP1 PUSH1 0x1F DUP4 GT PUSH1 0x1 EQ PUSH2 0x476B JUMPI PUSH1 0x3 SWAP3 SWAP2 PUSH1 0x0 SWAP2 DUP4 PUSH2 0x4760 JUMPI JUMPDEST POP POP DUP2 PUSH1 0x1 SHL SWAP2 PUSH1 0x0 NOT SWAP1 DUP5 SHL SHR NOT AND OR SWAP2 ADD SSTORE JUMPDEST DUP1 PUSH1 0x0 MSTORE PUSH1 0x9 PUSH1 0x20 MSTORE PUSH1 0x40 PUSH1 0x0 KECCAK256 PUSH1 0x8 PUSH1 0x0 MSTORE PUSH1 0x20 MSTORE PUSH1 0x40 PUSH1 0x0 KECCAK256 DUP1 SLOAD PUSH1 0x1 DUP2 ADD DUP2 GT PUSH2 0x8E7 JUMPI PUSH1 0x1 ADD SWAP1 SSTORE PUSH1 0x8 DUP2 PUSH1 0x0 DUP1 MLOAD PUSH1 0x20 PUSH2 0x4D62 DUP4 CODECOPY DUP2 MLOAD SWAP2 MSTORE PUSH1 0x20 PUSH1 0x40 MLOAD DUP9 DUP2 MSTORE LOG3 DUP1 PUSH1 0x0 MSTORE PUSH1 0x9 PUSH1 0x20 MSTORE PUSH1 0x40 PUSH1 0x0 KECCAK256 PUSH1 0x8 PUSH1 0x0 MSTORE PUSH1 0x20 MSTORE PUSH1 0x5 PUSH1 0x40 PUSH1 0x0 KECCAK256 SLOAD LT ISZERO PUSH2 0x450D JUMPI JUMPDEST POP PUSH1 0x0 DUP1 DUP1 DUP1 PUSH2 0x4325 SWAP5 PUSH1 0x2 PUSH1 0x1 DUP1 PUSH1 0xA0 SHL SUB DUP3 SLOAD AND SWAP2 ADD SLOAD SWAP1 GAS CALL PUSH2 0xCAF PUSH2 0x4093 JUMP JUMPDEST PUSH2 0x432D PUSH2 0x3FE9 JUMP JUMPDEST DUP2 PUSH1 0x0 MSTORE PUSH1 0x8 PUSH1 0x20 MSTORE PUSH1 0x40 PUSH1 0x0 KECCAK256 PUSH1 0x40 MLOAD PUSH2 0x4347 DUP2 PUSH2 0x3BA1 JUMP JUMPDEST PUSH1 0x8 DUP2 MSTORE PUSH1 0x20 DUP2 ADD SWAP2 DUP6 DUP4 MSTORE PUSH1 0x40 DUP3 ADD SWAP1 TIMESTAMP DUP3 MSTORE PUSH1 0x60 DUP4 ADD SWAP5 DUP6 MSTORE DUP1 SLOAD PUSH1 0x1 PUSH1 0x40 SHL DUP2 LT ISZERO PUSH2 0x3E4 JUMPI PUSH2 0x437F SWAP2 PUSH1 0x1 DUP3 ADD DUP2 SSTORE PUSH2 0x3E6A JUMP JUMPDEST SWAP3 SWAP1 SWAP3 PUSH2 0x9BE JUMPI MLOAD SWAP3 PUSH1 0xE DUP5 LT ISZERO PUSH2 0x42F JUMPI PUSH1 0x3 SWAP4 PUSH1 0xFF DUP1 NOT DUP6 SLOAD AND SWAP2 AND OR DUP4 SSTORE MLOAD PUSH1 0x1 DUP4 ADD SSTORE MLOAD PUSH1 0x2 DUP3 ADD SSTORE ADD SWAP1 MLOAD DUP1 MLOAD SWAP1 PUSH1 0x1 DUP1 PUSH1 0x40 SHL SUB DUP3 GT PUSH2 0x3E4 JUMPI DUP2 SWAP1 PUSH2 0x43CB DUP5 SLOAD PUSH2 0x3B67 JUMP JUMPDEST PUSH1 0x1F DUP2 GT PUSH2 0x44BA JUMPI JUMPDEST POP PUSH1 0x20 SWAP1 PUSH1 0x1F DUP4 GT PUSH1 0x1 EQ PUSH2 0x4454 JUMPI PUSH1 0x0 SWAP3 PUSH2 0x4449 JUMPI JUMPDEST POP POP DUP2 PUSH1 0x1 SHL SWAP2 PUSH1 0x0 NOT SWAP1 PUSH1 0x3 SHL SHR NOT AND OR SWAP1 SSTORE JUMPDEST DUP1 PUSH1 0x0 MSTORE PUSH1 0x9 PUSH1 0x20 MSTORE PUSH1 0x40 PUSH1 0x0 KECCAK256 PUSH1 0x8 PUSH1 0x0 MSTORE PUSH1 0x20 MSTORE PUSH1 0x40 PUSH1 0x0 KECCAK256 DUP1 SLOAD SWAP1 PUSH1 0x1 DUP3 ADD DUP1 SWAP3 GT PUSH2 0x8E7 JUMPI PUSH1 0x8 SWAP4 PUSH1 0x0 DUP1 MLOAD PUSH1 0x20 PUSH2 0x4D62 DUP4 CODECOPY DUP2 MLOAD SWAP2 MSTORE SWAP3 PUSH1 0x20 SWAP3 SSTORE PUSH1 0x40 MLOAD SWAP1 DUP2 MSTORE LOG3 JUMP JUMPDEST ADD MLOAD SWAP1 POP CODESIZE DUP1 PUSH2 0x43EB JUMP JUMPDEST PUSH1 0x0 DUP6 DUP2 MSTORE PUSH1 0x20 DUP2 KECCAK256 SWAP4 POP PUSH1 0x1F NOT DUP6 AND SWAP1 JUMPDEST DUP2 DUP2 LT PUSH2 0x44A2 JUMPI POP SWAP1 DUP5 PUSH1 0x1 SWAP6 SWAP5 SWAP4 SWAP3 LT PUSH2 0x4489 JUMPI JUMPDEST POP POP POP DUP2 SHL ADD SWAP1 SSTORE PUSH2 0x4400 JUMP JUMPDEST ADD MLOAD PUSH1 0x0 NOT PUSH1 0xF8 DUP5 PUSH1 0x3 SHL AND SHR NOT AND SWAP1 SSTORE CODESIZE DUP1 DUP1 PUSH2 0x447C JUMP JUMPDEST SWAP3 SWAP4 PUSH1 0x20 PUSH1 0x1 DUP2 SWAP3 DUP8 DUP7 ADD MLOAD DUP2 SSTORE ADD SWAP6 ADD SWAP4 ADD PUSH2 0x4466 JUMP JUMPDEST SWAP1 SWAP2 POP DUP4 PUSH1 0x0 MSTORE PUSH1 0x20 PUSH1 0x0 KECCAK256 PUSH1 0x1F DUP5 ADD PUSH1 0x5 SHR DUP2 ADD SWAP2 PUSH1 0x20 DUP6 LT PUSH2 0x4503 JUMPI JUMPDEST SWAP1 PUSH1 0x1F DUP6 SWAP5 SWAP4 SWAP3 ADD PUSH1 0x5 SHR ADD SWAP1 JUMPDEST DUP2 DUP2 LT PUSH2 0x44F4 JUMPI POP PUSH2 0x43D4 JUMP JUMPDEST PUSH1 0x0 DUP2 SSTORE DUP5 SWAP4 POP PUSH1 0x1 ADD PUSH2 0x44E7 JUMP JUMPDEST SWAP1 SWAP2 POP DUP2 SWAP1 PUSH2 0x44D9 JUMP JUMPDEST DUP1 PUSH1 0x0 MSTORE PUSH1 0x9 PUSH1 0x20 MSTORE PUSH1 0x40 PUSH1 0x0 KECCAK256 PUSH1 0xA PUSH1 0x0 MSTORE PUSH1 0x20 MSTORE PUSH1 0x40 PUSH1 0x0 KECCAK256 SLOAD PUSH2 0x4301 JUMPI SWAP1 PUSH1 0x40 MLOAD PUSH2 0x453A DUP2 PUSH2 0x3BF2 JUMP JUMPDEST PUSH1 0x1C DUP2 MSTORE PUSH28 0x233630B3B3B2B21030B9903837BA32B73A34B0B61039B1B0B6B6B2B9 PUSH1 0x21 SHL PUSH1 0x20 DUP3 ADD MSTORE DUP3 PUSH1 0x0 MSTORE PUSH1 0x8 PUSH1 0x20 MSTORE PUSH1 0x40 PUSH1 0x0 KECCAK256 PUSH1 0x40 MLOAD SWAP2 PUSH2 0x457E DUP4 PUSH2 0x3BA1 JUMP JUMPDEST PUSH1 0xA DUP4 MSTORE PUSH1 0x0 PUSH1 0x20 DUP5 ADD MSTORE TIMESTAMP PUSH1 0x40 DUP5 ADD MSTORE PUSH1 0x60 DUP4 ADD MSTORE DUP1 SLOAD PUSH1 0x1 PUSH1 0x40 SHL DUP2 LT ISZERO PUSH2 0x3E4 JUMPI PUSH2 0x45B1 SWAP2 PUSH1 0x1 DUP3 ADD DUP2 SSTORE PUSH2 0x3E6A JUMP JUMPDEST SWAP2 SWAP1 SWAP2 PUSH2 0x9BE JUMPI DUP1 MLOAD SWAP1 PUSH1 0xE DUP3 LT ISZERO PUSH2 0x42F JUMPI PUSH1 0x60 SWAP2 PUSH1 0xFF DUP1 NOT DUP6 SLOAD AND SWAP2 AND OR DUP4 SSTORE PUSH1 0x20 DUP2 ADD MLOAD PUSH1 0x1 DUP5 ADD SSTORE PUSH1 0x40 DUP2 ADD MLOAD PUSH1 0x2 DUP5 ADD SSTORE ADD MLOAD DUP1 MLOAD SWAP1 PUSH1 0x1 DUP1 PUSH1 0x40 SHL SUB DUP3 GT PUSH2 0x3E4 JUMPI PUSH2 0x4606 PUSH1 0x3 DUP5 ADD SLOAD PUSH2 0x3B67 JUMP JUMPDEST PUSH1 0x1F DUP2 GT PUSH2 0x4719 JUMPI JUMPDEST POP PUSH1 0x20 SWAP1 PUSH1 0x1F DUP4 GT PUSH1 0x1 EQ PUSH2 0x46AA JUMPI PUSH1 0x3 SWAP3 SWAP2 PUSH1 0x0 SWAP2 DUP4 PUSH2 0x469F JUMPI JUMPDEST POP POP DUP2 PUSH1 0x1 SHL SWAP2 PUSH1 0x0 NOT SWAP1 DUP5 SHL SHR NOT AND OR SWAP2 ADD SSTORE JUMPDEST DUP2 PUSH1 0x0 MSTORE PUSH1 0x9 PUSH1 0x20 MSTORE PUSH1 0x40 PUSH1 0x0 KECCAK256 PUSH1 0xA PUSH1 0x0 MSTORE PUSH1 0x20 MSTORE PUSH1 0x40 PUSH1 0x0 KECCAK256 SWAP2 DUP3 SLOAD SWAP1 PUSH1 0x1 DUP3 ADD DUP3 GT PUSH2 0x8E7 JUMPI PUSH1 0x0 DUP1 SWAP4 PUSH1 0xA DUP3 SWAP5 SWAP4 PUSH2 0x4325 SWAP8 PUSH1 0x1 DUP6 SWAP7 ADD SWAP1 SSTORE PUSH1 0x0 DUP1 MLOAD PUSH1 0x20 PUSH2 0x4D62 DUP4 CODECOPY DUP2 MLOAD SWAP2 MSTORE PUSH1 0x20 PUSH1 0x40 MLOAD DUP7 DUP2 MSTORE LOG3 SWAP5 POP POP POP POP PUSH2 0x4301 JUMP JUMPDEST ADD MLOAD SWAP1 POP CODESIZE DUP1 PUSH2 0x462B JUMP JUMPDEST SWAP1 PUSH1 0x3 DUP5 ADD PUSH1 0x0 MSTORE PUSH1 0x20 PUSH1 0x0 KECCAK256 SWAP2 PUSH1 0x0 JUMPDEST PUSH1 0x1F NOT DUP6 AND DUP2 LT PUSH2 0x4701 JUMPI POP SWAP2 DUP4 SWAP2 PUSH1 0x1 SWAP4 PUSH1 0x3 SWAP6 PUSH1 0x1F NOT DUP2 AND LT PUSH2 0x46E9 JUMPI JUMPDEST POP POP POP DUP2 SHL ADD SWAP2 ADD SSTORE PUSH2 0x4640 JUMP JUMPDEST ADD MLOAD PUSH1 0x0 NOT DUP4 DUP7 SHL PUSH1 0xF8 AND SHR NOT AND SWAP1 SSTORE CODESIZE DUP1 DUP1 PUSH2 0x46DB JUMP JUMPDEST SWAP2 SWAP3 PUSH1 0x20 PUSH1 0x1 DUP2 SWAP3 DUP7 DUP6 ADD MLOAD DUP2 SSTORE ADD SWAP5 ADD SWAP3 ADD PUSH2 0x46BB JUMP JUMPDEST PUSH1 0x3 DUP5 ADD PUSH1 0x0 MSTORE PUSH1 0x20 PUSH1 0x0 KECCAK256 PUSH1 0x1F DUP5 ADD PUSH1 0x5 SHR DUP2 ADD PUSH1 0x20 DUP6 LT PUSH2 0x4759 JUMPI JUMPDEST PUSH1 0x1F DUP4 ADD PUSH1 0x5 SHR DUP3 ADD DUP2 LT PUSH2 0x474D JUMPI POP POP PUSH2 0x460F JUMP JUMPDEST PUSH1 0x0 DUP2 SSTORE PUSH1 0x1 ADD PUSH2 0x4737 JUMP JUMPDEST POP DUP1 PUSH2 0x4737 JUMP JUMPDEST ADD MLOAD SWAP1 POP CODESIZE DUP1 PUSH2 0x4280 JUMP JUMPDEST SWAP1 PUSH1 0x3 DUP5 ADD PUSH1 0x0 MSTORE PUSH1 0x20 PUSH1 0x0 KECCAK256 SWAP2 PUSH1 0x0 JUMPDEST PUSH1 0x1F NOT DUP6 AND DUP2 LT PUSH2 0x47C2 JUMPI POP SWAP2 DUP4 SWAP2 PUSH1 0x1 SWAP4 PUSH1 0x3 SWAP6 PUSH1 0x1F NOT DUP2 AND LT PUSH2 0x47AA JUMPI JUMPDEST POP POP POP DUP2 SHL ADD SWAP2 ADD SSTORE PUSH2 0x4295 JUMP JUMPDEST ADD MLOAD PUSH1 0x0 NOT DUP4 DUP7 SHL PUSH1 0xF8 AND SHR NOT AND SWAP1 SSTORE CODESIZE DUP1 DUP1 PUSH2 0x479C JUMP JUMPDEST SWAP2 SWAP3 PUSH1 0x20 PUSH1 0x1 DUP2 SWAP3 DUP7 DUP6 ADD MLOAD DUP2 SSTORE ADD SWAP5 ADD SWAP3 ADD PUSH2 0x477C JUMP JUMPDEST PUSH1 0x3 DUP5 ADD PUSH1 0x0 MSTORE PUSH1 0x20 PUSH1 0x0 KECCAK256 PUSH1 0x1F DUP5 ADD PUSH1 0x5 SHR DUP2 ADD PUSH1 0x20 DUP6 LT PUSH2 0x481A JUMPI JUMPDEST PUSH1 0x1F DUP4 ADD PUSH1 0x5 SHR DUP3 ADD DUP2 LT PUSH2 0x480E JUMPI POP POP PUSH2 0x4264 JUMP JUMPDEST PUSH1 0x0 DUP2 SSTORE PUSH1 0x1 ADD PUSH2 0x47F8 JUMP JUMPDEST POP DUP1 PUSH2 0x47F8 JUMP JUMPDEST SWAP3 SWAP2 SWAP1 SWAP4 POP PUSH1 0x6 DUP3 ADD SLOAD PUSH1 0x3C DUP2 ADD DUP1 SWAP2 GT PUSH2 0x8E7 JUMPI PUSH2 0x3C6E SWAP5 PUSH1 0x2 PUSH1 0x0 SWAP6 SWAP5 DUP7 SWAP6 SWAP5 PUSH1 0x6 DUP8 SWAP7 PUSH2 0x4854 DUP9 SWAP8 TIMESTAMP LT ISZERO PUSH2 0x3F6A JUMP JUMPDEST PUSH1 0xFF NOT AND OR SWAP1 SSTORE ADD SLOAD SWAP1 GAS CALL PUSH2 0xCAF PUSH2 0x4093 JUMP JUMPDEST PUSH1 0x1 PUSH1 0x1 PUSH1 0xA0 SHL SUB AND PUSH1 0x0 SWAP1 DUP2 MSTORE PUSH1 0xE PUSH1 0x20 MSTORE PUSH1 0x40 DUP2 KECCAK256 SLOAD ISZERO PUSH2 0x3DBB JUMPI PUSH1 0xD PUSH1 0x20 MSTORE PUSH1 0x40 DUP2 KECCAK256 SLOAD PUSH1 0xE PUSH1 0x20 MSTORE PUSH1 0x40 DUP3 KECCAK256 SLOAD SWAP2 DUP3 ISZERO PUSH2 0x48A5 JUMPI POP DIV SWAP1 JUMP JUMPDEST PUSH4 0x4E487B71 PUSH1 0xE0 SHL DUP2 MSTORE PUSH1 0x12 PUSH1 0x4 MSTORE PUSH1 0x24 SWAP1 REVERT JUMPDEST ISZERO PUSH2 0x48C0 JUMPI JUMP JUMPDEST PUSH1 0x40 MLOAD PUSH3 0x461BCD PUSH1 0xE5 SHL DUP2 MSTORE PUSH1 0x20 PUSH1 0x4 DUP3 ADD MSTORE PUSH1 0xC PUSH1 0x24 DUP3 ADD MSTORE PUSH12 0x139BDD081A5B9D9BDB1D9959 PUSH1 0xA2 SHL PUSH1 0x44 DUP3 ADD MSTORE PUSH1 0x64 SWAP1 REVERT JUMPDEST ISZERO PUSH2 0x48FB JUMPI JUMP JUMPDEST PUSH1 0x40 MLOAD PUSH3 0x461BCD PUSH1 0xE5 SHL DUP2 MSTORE PUSH1 0x20 PUSH1 0x4 DUP3 ADD MSTORE PUSH1 0x10 PUSH1 0x24 DUP3 ADD MSTORE PUSH16 0x105B1C9958591E481C995CDBDB1D9959 PUSH1 0x82 SHL PUSH1 0x44 DUP3 ADD MSTORE PUSH1 0x64 SWAP1 REVERT JUMPDEST PUSH1 0xFF AND PUSH1 0xFF DUP2 EQ PUSH2 0x8E7 JUMPI PUSH1 0x1 ADD SWAP1 JUMP JUMPDEST PUSH1 0x5 DUP3 LT ISZERO PUSH2 0x3E86 JUMPI ADD SWAP1 PUSH1 0x0 SWAP1 JUMP JUMPDEST ISZERO PUSH2 0x495B JUMPI JUMP JUMPDEST PUSH1 0x40 MLOAD PUSH3 0x461BCD PUSH1 0xE5 SHL DUP2 MSTORE PUSH1 0x20 PUSH1 0x4 DUP3 ADD MSTORE PUSH1 0xC PUSH1 0x24 DUP3 ADD MSTORE PUSH12 0x139BDD08191A5CDC1D5D1959 PUSH1 0xA2 SHL PUSH1 0x44 DUP3 ADD MSTORE PUSH1 0x64 SWAP1 REVERT JUMPDEST ISZERO PUSH2 0x4996 JUMPI JUMP JUMPDEST PUSH1 0x40 MLOAD PUSH3 0x461BCD PUSH1 0xE5 SHL DUP2 MSTORE PUSH1 0x20 PUSH1 0x4 DUP3 ADD MSTORE PUSH1 0xA PUSH1 0x24 DUP3 ADD MSTORE PUSH10 0x4E6F2064697370757465 PUSH1 0xB0 SHL PUSH1 0x44 DUP3 ADD MSTORE PUSH1 0x64 SWAP1 REVERT JUMPDEST PUSH1 0x40 MLOAD SWAP1 PUSH2 0x49D5 DUP3 PUSH2 0x3BF2 JUMP JUMPDEST PUSH1 0xC DUP3 MSTORE PUSH12 0x6C6F73745F64697370757465 PUSH1 0xA0 SHL PUSH1 0x20 DUP4 ADD MSTORE JUMP JUMPDEST PUSH1 0x40 MLOAD SWAP1 PUSH2 0x49FD DUP3 PUSH2 0x3BF2 JUMP JUMPDEST PUSH1 0xB DUP3 MSTORE PUSH11 0x776F6E5F64697370757465 PUSH1 0xA8 SHL PUSH1 0x20 DUP4 ADD MSTORE JUMP JUMPDEST PUSH1 0x1 PUSH1 0x1 PUSH1 0xA0 SHL SUB AND PUSH1 0x0 DUP2 DUP2 MSTORE PUSH1 0x1 PUSH1 0x20 MSTORE PUSH1 0x40 DUP2 KECCAK256 SLOAD PUSH1 0xFF AND PUSH2 0x4A86 JUMPI DUP1 DUP3 PUSH32 0x5D95448EDAE7BCC3F04CEED898BF2926C2E56C8DE7C6A57D3B90539B1FF037A6 SWAP3 MSTORE DUP1 PUSH1 0x20 MSTORE PUSH1 0x40 DUP2 KECCAK256 PUSH1 0xFF NOT SWAP1 PUSH1 0x50 DUP3 DUP3 SLOAD AND OR SWAP1 SSTORE PUSH1 0x1 PUSH1 0x20 MSTORE PUSH1 0x1 PUSH1 0x40 DUP4 KECCAK256 SWAP2 DUP3 SLOAD AND OR SWAP1 SSTORE DUP1 LOG2 JUMP JUMPDEST PUSH1 0x40 MLOAD PUSH3 0x461BCD PUSH1 0xE5 SHL DUP2 MSTORE PUSH1 0x20 PUSH1 0x4 DUP3 ADD MSTORE PUSH1 0x13 PUSH1 0x24 DUP3 ADD MSTORE PUSH19 0x105B1C9958591E481A5B9A5D1A585B1A5E9959 PUSH1 0x6A SHL PUSH1 0x44 DUP3 ADD MSTORE PUSH1 0x64 SWAP1 REVERT JUMPDEST PUSH1 0xFF PUSH2 0x3DBB SWAP5 SWAP4 DUP2 PUSH1 0x60 SWAP5 AND DUP4 MSTORE AND PUSH1 0x20 DUP3 ADD MSTORE DUP2 PUSH1 0x40 DUP3 ADD MSTORE ADD SWAP1 PUSH2 0x3B27 JUMP JUMPDEST PUSH1 0x1 PUSH1 0x1 PUSH1 0xA0 SHL SUB AND PUSH1 0x0 DUP2 DUP2 MSTORE PUSH1 0x20 DUP2 SWAP1 MSTORE PUSH1 0x40 DUP2 KECCAK256 SLOAD SWAP2 SWAP3 SWAP1 SWAP2 PUSH1 0xFF AND SWAP1 PUSH1 0x5 DUP3 ADD PUSH2 0xFFFF DUP1 DUP3 GT PUSH2 0x4B97 JUMPI PUSH1 0x64 SWAP1 DUP3 AND GT ISZERO PUSH2 0x4B5D JUMPI POP SWAP1 PUSH2 0x4B58 PUSH1 0x0 DUP1 MLOAD PUSH1 0x20 PUSH2 0x4D82 DUP4 CODECOPY DUP2 MLOAD SWAP2 MSTORE SWAP4 SWAP3 PUSH1 0x40 PUSH1 0x64 SWAP5 JUMPDEST DUP8 DUP2 MSTORE DUP1 PUSH1 0x20 MSTORE KECCAK256 PUSH1 0xFF DUP6 AND PUSH1 0xFF NOT DUP3 SLOAD AND OR SWAP1 SSTORE PUSH1 0x40 MLOAD SWAP4 DUP5 SWAP4 DUP5 PUSH2 0x4AC1 JUMP JUMPDEST SUB SWAP1 LOG2 JUMP JUMPDEST PUSH1 0xFF DUP2 GT PUSH2 0x4B83 JUMPI PUSH1 0x0 DUP1 MLOAD PUSH1 0x20 PUSH2 0x4D82 DUP4 CODECOPY DUP2 MLOAD SWAP2 MSTORE SWAP4 SWAP3 SWAP2 PUSH1 0x40 PUSH2 0x4B58 SWAP3 SWAP5 PUSH2 0x4B37 JUMP JUMPDEST PUSH4 0x4E487B71 PUSH1 0xE0 SHL DUP5 MSTORE PUSH1 0x11 PUSH1 0x4 MSTORE PUSH1 0x24 DUP5 REVERT JUMPDEST PUSH4 0x4E487B71 PUSH1 0xE0 SHL DUP6 MSTORE PUSH1 0x11 PUSH1 0x4 MSTORE PUSH1 0x24 DUP6 REVERT JUMPDEST PUSH1 0x1 PUSH1 0x1 PUSH1 0xA0 SHL SUB AND PUSH1 0x0 DUP2 DUP2 MSTORE PUSH1 0x20 DUP2 SWAP1 MSTORE PUSH1 0x40 DUP2 KECCAK256 SLOAD SWAP2 SWAP3 SWAP1 SWAP2 PUSH1 0xFF AND SWAP1 PUSH1 0xA DUP3 ADD PUSH2 0xFFFF DUP1 DUP3 GT PUSH2 0x4B97 JUMPI PUSH1 0x64 SWAP1 DUP3 AND GT ISZERO PUSH2 0x4B5D JUMPI POP SWAP1 PUSH2 0x4B58 PUSH1 0x0 DUP1 MLOAD PUSH1 0x20 PUSH2 0x4D82 DUP4 CODECOPY DUP2 MLOAD SWAP2 MSTORE SWAP4 SWAP3 PUSH1 0x40 PUSH1 0x64 SWAP5 DUP8 DUP2 MSTORE DUP1 PUSH1 0x20 MSTORE KECCAK256 PUSH1 0xFF DUP6 AND PUSH1 0xFF NOT DUP3 SLOAD AND OR SWAP1 SSTORE PUSH1 0x40 MLOAD SWAP4 DUP5 SWAP4 DUP5 PUSH2 0x4AC1 JUMP JUMPDEST PUSH1 0x1 PUSH1 0x1 PUSH1 0xA0 SHL SUB AND PUSH1 0x0 DUP2 DUP2 MSTORE PUSH1 0x20 DUP2 SWAP1 MSTORE PUSH1 0x40 DUP2 KECCAK256 SLOAD SWAP2 SWAP3 SWAP1 SWAP2 PUSH1 0xFF AND SWAP1 PUSH1 0xA DUP3 GT PUSH2 0x4C82 JUMPI SWAP1 PUSH2 0x4B58 DUP4 SWAP3 PUSH1 0x40 PUSH1 0x0 DUP1 MLOAD PUSH1 0x20 PUSH2 0x4D82 DUP4 CODECOPY DUP2 MLOAD SWAP2 MSTORE SWAP6 SWAP5 DUP8 DUP2 MSTORE DUP1 PUSH1 0x20 MSTORE KECCAK256 PUSH1 0xFF DUP6 AND PUSH1 0xFF NOT DUP3 SLOAD AND OR SWAP1 SSTORE PUSH1 0x40 MLOAD SWAP4 DUP5 SWAP4 DUP5 PUSH2 0x4AC1 JUMP JUMPDEST PUSH1 0x9 NOT DUP3 ADD PUSH1 0xFF DUP2 GT PUSH2 0x4B83 JUMPI PUSH1 0x0 DUP1 MLOAD PUSH1 0x20 PUSH2 0x4D82 DUP4 CODECOPY DUP2 MLOAD SWAP2 MSTORE SWAP4 SWAP3 SWAP2 PUSH1 0x40 PUSH2 0x4B58 SWAP3 SWAP5 PUSH2 0x4B37 JUMP JUMPDEST PUSH1 0x1 DUP1 PUSH1 0xA0 SHL SUB AND PUSH1 0x0 MSTORE PUSH1 0x0 PUSH1 0x20 MSTORE PUSH1 0x50 PUSH1 0xFF PUSH1 0x40 PUSH1 0x0 KECCAK256 SLOAD AND LT ISZERO SWAP1 JUMP JUMPDEST PUSH1 0x2 SLOAD DUP2 LT ISZERO PUSH2 0x3E86 JUMPI PUSH1 0x2 PUSH1 0x0 MSTORE PUSH1 0x20 PUSH1 0x0 KECCAK256 ADD SWAP1 PUSH1 0x0 SWAP1 JUMP JUMPDEST PUSH1 0x1 PUSH1 0x1 PUSH1 0xA0 SHL SUB DUP2 AND PUSH1 0x0 DUP2 DUP2 MSTORE PUSH1 0x3 PUSH1 0x20 MSTORE PUSH1 0x40 DUP2 KECCAK256 SLOAD SWAP1 SWAP3 SWAP1 PUSH1 0xFF AND ISZERO PUSH2 0x4D11 JUMPI POP POP POP JUMP JUMPDEST PUSH1 0x2 SLOAD PUSH1 0x1 PUSH1 0x40 SHL DUP2 LT ISZERO PUSH2 0x4D4D JUMPI PUSH1 0x40 SWAP4 SWAP3 SWAP2 PUSH2 0x2C44 DUP3 PUSH1 0x1 PUSH2 0x4D38 SWAP5 ADD PUSH1 0x2 SSTORE PUSH2 0x4CCD JUMP JUMPDEST DUP2 MSTORE PUSH1 0x3 PUSH1 0x20 MSTORE KECCAK256 DUP1 SLOAD PUSH1 0xFF NOT AND PUSH1 0x1 OR SWAP1 SSTORE JUMP JUMPDEST PUSH4 0x4E487B71 PUSH1 0xE0 SHL DUP5 MSTORE PUSH1 0x41 PUSH1 0x4 MSTORE PUSH1 0x24 DUP5 REVERT INVALID 0xD4 0xDF 0xC 0xB9 PUSH10 0xB99D25F121A3E9C7F32D DUP16 0xCC GAS 0xD PUSH25 0x2408695F68DE9493DB8CC177BBF5EE5EEE34326C6C2D38C9B7 0xCE 0xEB PUSH27 0x8E3EE460657A93DD17FAC3E82B141D57A264697066735822122010 NUMBER 0xEC MSTORE MSTORE CODECOPY 0xCE SUB 0x28 0xE2 SWAP1 0xF7 PUSH6 0x1F9AFD62A367 PUSH23 0xEDAD9DA16876E34BA7DC6FCC64736F6C63430008140033 "},"methodIdentifiers":{"APPROVE_TIMEOUT()":"4f0db622","FUND_TIMEOUT()":"3dc9fe42","GHOST_SCAM_THRESHOLD()":"1965bb0f","INIT_SCORE()":"247bc4a7","MAX_SCORE()":"27ff6223","MIN_SCORE()":"40b89270","SCAM_THRESHOLD()":"2488b2ee","SERIAL_CANCEL_THRESHOLD()":"e72f73a8","SUBMIT_TIMEOUT()":"5d5a373c","VOTER_THRESHOLD()":"9ec0164a","VOTE_DURATION()":"4654ff05","acceptJob(uint256)":"63b2f3c9","approveJob(uint256,uint8,string)":"771dd581","autoReleaseIfNotApproved(uint256)":"c5f8e299","badgeCount(address,uint256)":"2d592865","cancelIfNotStarted(uint256)":"ca62fafd","cancelIfNotSubmitted(uint256)":"66c910c8","cancelJob(uint256)":"1dffa3dc","castVote(uint256,bool)":"15373e3d","createJob(string,uint256,uint256)":"79c62711","disputes(uint256)":"564a565d","feedbacks(uint256)":"2bb8b0dc","fundJob(uint256)":"8d22b863","getBadgeCount(address,uint8)":"8721ba3f","getBadges(address)":"03828e45","getDisputeVoters(uint256)":"1732d652","getMyRole()":"6e3b47fc","getRating(address)":"80fc9c0e","getVoteCount(uint256)":"b2c2f2e8","hasVoted(uint256,address)":"43859632","isEligibleVoter(address)":"4225e7f4","isScammer(address)":"69c04c44","jobCount()":"4c5d8a0f","jobs(uint256)":"180aedf3","raiseDispute(uint256,string)":"5aef573c","ratingCount(address)":"2404165e","registerClient()":"6d9fb287","registerWorker()":"208082bf","reputationScore(address)":"50d061cb","resolveDispute(uint256)":"c2b7b868","roles(address)":"99374642","startWork(uint256)":"03a250f9","submitCounterEvidence(uint256,string)":"d0d24142","submitWork(uint256,string)":"da8accf9","totalRating(address)":"4807632f","voteChoice(uint256,address)":"fb468855"}}}}}