{"contracts/VoterSelector.sol":{"VoterSelector":{"abi":[{"anonymous":false,"inputs":[{"indexed":true,"internalType":"address","name":"user","type":"address"},{"indexed":false,"internalType":"uint8","name":"oldScore","type":"uint8"},{"indexed":false,"internalType":"uint8","name":"newScore","type":"uint8"},{"indexed":false,"internalType":"string","name":"reason","type":"string"}],"name":"ScoreChanged","type":"event"},{"anonymous":false,"inputs":[{"indexed":true,"internalType":"address","name":"user","type":"address"}],"name":"ScoreInitialized","type":"event"},{"inputs":[],"name":"INIT_SCORE","outputs":[{"internalType":"uint8","name":"","type":"uint8"}],"stateMutability":"view","type":"function"},{"inputs":[],"name":"MAX_SCORE","outputs":[{"internalType":"uint8","name":"","type":"uint8"}],"stateMutability":"view","type":"function"},{"inputs":[],"name":"MIN_SCORE","outputs":[{"internalType":"uint8","name":"","type":"uint8"}],"stateMutability":"view","type":"function"},{"inputs":[],"name":"VOTER_THRESHOLD","outputs":[{"internalType":"uint8","name":"","type":"uint8"}],"stateMutability":"view","type":"function"},{"inputs":[{"internalType":"address","name":"user","type":"address"}],"name":"isEligibleVoter","outputs":[{"internalType":"bool","name":"","type":"bool"}],"stateMutability":"view","type":"function"},{"inputs":[{"internalType":"address","name":"","type":"address"}],"name":"reputationScore","outputs":[{"internalType":"uint8","name":"","type":"uint8"}],"stateMutability":"view","type":"function"}],"evm":{"bytecode":{"linkReferences":{},"object":"608080604052346100165761015c908161001c8239f35b600080fdfe604060808152600436101561001357600080fd5b6000803560e01c918263247bc4a71461010557826327ff62231461006357826340b89270146100ec5782634225e7f4146100ac57826350d061cb14610068575050639ec0164a1461006357600080fd5b610105565b346100a85760203660031901126100a8576004356001600160a01b038116908190036100a457818360ff92602095528085522054169051908152f35b8280fd5b5080fd5b346100a85760203660031901126100a8576004356001600160a01b038116908190036100a45760ff82846064936020965280865220541610159051908152f35b346100a857816003193601126100a85751908152602090f35b3461012157600036600319011261012157602060405160648152f35b600080fdfea2646970667358221220e26b40f39adc3c240d29abfa26e3e05af3ae3d1d5005298a3bc553764da047b064736f6c63430008140033","opcodes":"PUSH1 0x80 DUP1 PUSH1 0x40 MSTORE CALLVALUE PUSH2 0x16 JUMPI PUSH2 0x15C SWAP1 DUP2 PUSH2 0x1C DUP3 CODECOPY RETURN JUMPDEST PUSH1 0x0 DUP1 REVERT INVALID PUSH1 0x40 PUSH1 0x80 DUP2 MSTORE PUSH1 0x4 CALLDATASIZE LT ISZERO PUSH2 0x13 JUMPI PUSH1 0x0 DUP1 REVERT JUMPDEST PUSH1 0x0 DUP1 CALLDATALOAD PUSH1 0xE0 SHR SWAP2 DUP3 PUSH4 0x247BC4A7 EQ PUSH2 0x105 JUMPI DUP3 PUSH4 0x27FF6223 EQ PUSH2 0x63 JUMPI DUP3 PUSH4 0x40B89270 EQ PUSH2 0xEC JUMPI DUP3 PUSH4 0x4225E7F4 EQ PUSH2 0xAC JUMPI DUP3 PUSH4 0x50D061CB EQ PUSH2 0x68 JUMPI POP POP PUSH4 0x9EC0164A EQ PUSH2 0x63 JUMPI PUSH1 0x0 DUP1 REVERT JUMPDEST PUSH2 0x105 JUMP JUMPDEST CALLVALUE PUSH2 0xA8 JUMPI PUSH1 0x20 CALLDATASIZE PUSH1 0x3 NOT ADD SLT PUSH2 0xA8 JUMPI PUSH1 0x4 CALLDATALOAD PUSH1 0x1 PUSH1 0x1 PUSH1 0xA0 SHL SUB DUP2 AND SWAP1 DUP2 SWAP1 SUB PUSH2 0xA4 JUMPI DUP2 DUP4 PUSH1 0xFF SWAP3 PUSH1 0x20 SWAP6 MSTORE DUP1 DUP6 MSTORE KECCAK256 SLOAD AND SWAP1 MLOAD SWAP1 DUP2 MSTORE RETURN JUMPDEST DUP3 DUP1 REVERT JUMPDEST POP DUP1 REVERT JUMPDEST CALLVALUE PUSH2 0xA8 JUMPI PUSH1 0x20 CALLDATASIZE PUSH1 0x3 NOT ADD SLT PUSH2 0xA8 JUMPI PUSH1 0x4 CALLDATALOAD PUSH1 0x1 PUSH1 0x1 PUSH1 0xA0 SHL SUB DUP2 AND SWAP1 DUP2 SWAP1 SUB PUSH2 0xA4 JUMPI PUSH1 0xFF DUP3 DUP5 PUSH1 0x64 SWAP4 PUSH1 0x20 SWAP7 MSTORE DUP1 DUP7 MSTORE KECCAK256 SLOAD AND LT ISZERO SWAP1 MLOAD SWAP1 DUP2 MSTORE RETURN JUMPDEST CALLVALUE PUSH2 0xA8 JUMPI DUP2 PUSH1 0x3 NOT CALLDATASIZE ADD SLT PUSH2 0xA8 JUMPI MLOAD SWAP1 DUP2 MSTORE PUSH1 0x20 SWAP1 RETURN JUMPDEST CALLVALUE PUSH2 0x121 JUMPI PUSH1 0x0 CALLDATASIZE PUSH1 0x3 NOT ADD SLT PUSH2 0x121 JUMPI PUSH1 0x20 PUSH1 0x40 MLOAD PUSH1 0x64 DUP2 MSTORE RETURN JUMPDEST PUSH1 0x0 DUP1 REVERT INVALID LOG2 PUSH5 0x6970667358 0x22 SLT KECCAK256 0xE2 PUSH12 0x40F39ADC3C240D29ABFA26E3 0xE0 GAS RETURN 0xAE RETURNDATASIZE SAR POP SDIV 0x29 DUP11 EXTCODESIZE 0xC5 MSTORE8 PUSH23 0x4DA047B064736F6C634300081400330000000000000000 "},"methodIdentifiers":{"INIT_SCORE()":"247bc4a7","MAX_SCORE()":"27ff6223","MIN_SCORE()":"40b89270","VOTER_THRESHOLD()":"9ec0164a","isEligibleVoter(address)":"4225e7f4","reputationScore(address)":"50d061cb"}}}}}