{"contracts/DisputeManager.sol":{"DisputeManager":{"abi":[{"anonymous":false,"inputs":[{"indexed":true,"internalType":"uint256","name":"jobId","type":"uint256"},{"indexed":true,"internalType":"address","name":"responder","type":"address"}],"name":"CounterEvidenceSubmitted","type":"event"},{"anonymous":false,"inputs":[{"indexed":true,"internalType":"uint256","name":"jobId","type":"uint256"},{"indexed":true,"internalType":"address","name":"initiator","type":"address"}],"name":"DisputeRaised","type":"event"},{"anonymous":false,"inputs":[{"indexed":true,"internalType":"uint256","name":"jobId","type":"uint256"},{"indexed":false,"internalType":"bool","name":"workerWon","type":"bool"}],"name":"DisputeResolved","type":"event"},{"anonymous":false,"inputs":[{"indexed":true,"internalType":"address","name":"user","type":"address"},{"indexed":false,"internalType":"uint8","name":"oldScore","type":"uint8"},{"indexed":false,"internalType":"uint8","name":"newScore","type":"uint8"},{"indexed":false,"internalType":"string","name":"reason","type":"string"}],"name":"ScoreChanged","type":"event"},{"anonymous":false,"inputs":[{"indexed":true,"internalType":"address","name":"user","type":"address"}],"name":"ScoreInitialized","type":"event"},{"anonymous":false,"inputs":[{"indexed":true,"internalType":"uint256","name":"jobId","type":"uint256"},{"indexed":true,"internalType":"address","name":"voter","type":"address"},{"indexed":false,"internalType":"bool","name":"voteForWorker","type":"bool"}],"name":"Voted","type":"event"},{"anonymous":false,"inputs":[{"indexed":true,"internalType":"uint256","name":"jobId","type":"uint256"},{"indexed":false,"internalType":"address[]","name":"voters","type":"address[]"}],"name":"VoterSelected","type":"event"},{"anonymous":false,"inputs":[{"indexed":true,"internalType":"uint256","name":"jobId","type":"uint256"},{"indexed":false,"internalType":"address[]","name":"newVoters","type":"address[]"},{"indexed":false,"internalType":"uint256","name":"newDeadline","type":"uint256"}],"name":"VotersReplaced","type":"event"},{"inputs":[],"name":"INIT_SCORE","outputs":[{"internalType":"uint8","name":"","type":"uint8"}],"stateMutability":"view","type":"function"},{"inputs":[],"name":"MAX_SCORE","outputs":[{"internalType":"uint8","name":"","type":"uint8"}],"stateMutability":"view","type":"function"},{"inputs":[],"name":"MIN_SCORE","outputs":[{"internalType":"uint8","name":"","type":"uint8"}],"stateMutability":"view","type":"function"},{"inputs":[],"name":"VOTER_THRESHOLD","outputs":[{"internalType":"uint8","name":"","type":"uint8"}],"stateMutability":"view","type":"function"},{"inputs":[],"name":"VOTE_DURATION","outputs":[{"internalType":"uint256","name":"","type":"uint256"}],"stateMutability":"view","type":"function"},{"inputs":[{"internalType":"uint256","name":"","type":"uint256"}],"name":"disputes","outputs":[{"internalType":"uint256","name":"jobId","type":"uint256"},{"internalType":"address","name":"initiator","type":"address"},{"internalType":"string","name":"evidenceHash","type":"string"},{"internalType":"string","name":"counterHash","type":"string"},{"internalType":"uint8","name":"voterCount","type":"uint8"},{"internalType":"uint8","name":"votesForWorker","type":"uint8"},{"internalType":"uint8","name":"votesForClient","type":"uint8"},{"internalType":"uint256","name":"deadline","type":"uint256"},{"internalType":"bool","name":"resolved","type":"bool"},{"internalType":"bool","name":"workerWon","type":"bool"}],"stateMutability":"view","type":"function"},{"inputs":[{"internalType":"uint256","name":"jobId","type":"uint256"}],"name":"getDisputeVoters","outputs":[{"internalType":"address[5]","name":"","type":"address[5]"}],"stateMutability":"view","type":"function"},{"inputs":[{"internalType":"uint256","name":"jobId","type":"uint256"}],"name":"getVoteCount","outputs":[{"internalType":"uint8","name":"forWorker","type":"uint8"},{"internalType":"uint8","name":"forClient","type":"uint8"}],"stateMutability":"view","type":"function"},{"inputs":[{"internalType":"uint256","name":"","type":"uint256"},{"internalType":"address","name":"","type":"address"}],"name":"hasVoted","outputs":[{"internalType":"bool","name":"","type":"bool"}],"stateMutability":"view","type":"function"},{"inputs":[{"internalType":"address","name":"user","type":"address"}],"name":"isEligibleVoter","outputs":[{"internalType":"bool","name":"","type":"bool"}],"stateMutability":"view","type":"function"},{"inputs":[{"internalType":"address","name":"","type":"address"}],"name":"reputationScore","outputs":[{"internalType":"uint8","name":"","type":"uint8"}],"stateMutability":"view","type":"function"},{"inputs":[{"internalType":"uint256","name":"","type":"uint256"},{"internalType":"address","name":"","type":"address"}],"name":"voteChoice","outputs":[{"internalType":"bool","name":"","type":"bool"}],"stateMutability":"view","type":"function"}],"evm":{"bytecode":{"linkReferences":{},"object":"608080604052346100165761056d908161001c8239f35b600080fdfe6080604081815260048036101561001557600080fd5b600092833560e01c9081631732d652146102f957508063247bc4a71461012f57806327ff62231461012f57806340b89270146102de5780634225e7f41461029e57806343859632146102585780634654ff051461023b57806350d061cb14610200578063564a565d146101345780639ec0164a1461012f578063b2c2f2e8146100f05763fb468855146100a757600080fd5b346100ec57816003193601126100ec578160209360ff926100c66103d6565b90358252600686528282206001600160a01b039091168252855220549151911615158152f35b8280fd5b5082903461012b57602036600319011261012b5760099181849235825260205220015460ff825191818160081c16835260101c166020820152f35b5080fd5b61039f565b50346100ec5760203660031901126100ec578035835260205290819020805460018201546001600160a01b03169290919060ff906101746002840161041d565b92826101c36101856003840161041d565b6101b5600985015497600b600a8701549601549680519b8c9b8c5260208c015261014080918c01528a01906104f7565b9088820360608a01526104f7565b948181166080880152818160081c1660a088015260101c1660c086015260e0850152818116151561010085015260081c1615156101208301520390f35b50503461012b57602036600319011261012b5760209160ff9082906001600160a01b0361022b6103c0565b1681528085522054169051908152f35b50503461012b578160031936011261012b576020905161012c8152f35b50346100ec57816003193601126100ec578160209360ff926102786103d6565b90358252600586528282206001600160a01b039091168252855220549151911615158152f35b50503461012b57602036600319011261012b5760209160649060ff9083906001600160a01b036102cc6103c0565b16815280865220541610159051908152f35b50503461012b578160031936011261012b5751908152602090f35b9190503461039b5760209182600319360112610397578061031e60a0929695966103ec565b36903780358352808252838320845194910183855b6005821061037857505050610347846103ec565b519291835b600582106103595760a085f35b83516001600160a01b031681529282019260019190910190820161034c565b82546001600160a01b0316815260019283019291909101908401610333565b8480fd5b8380fd5b346103bb5760003660031901126103bb57602060405160648152f35b600080fd5b600435906001600160a01b03821682036103bb57565b602435906001600160a01b03821682036103bb57565b60a081019081106001600160401b0382111761040757604052565b634e487b7160e01b600052604160045260246000fd5b9060405191600090805490600182811c918184169384156104ed575b60209485851081146104d9578489529081156104bb575060011461047f575b50505050829003601f01601f191682016001600160401b0381118382101761040757604052565b909293506000528260002091836000935b8385106104a7575050505083010138808080610458565b805488860183015293019284908201610490565b60ff191688860152505050151560051b840101905038808080610458565b634e487b7160e01b87526022600452602487fd5b92607f1692610439565b919082519283825260005b848110610523575050826000602080949584010152601f8019910116010190565b60208183018101518483018201520161050256fea2646970667358221220927dedd5dbc1809235c448b6a75990314b57e7dbed4a5df155337d5a574a4b9364736f6c63430008140033","opcodes":"PUSH1 0x80 DUP1 PUSH1 0x40 MSTORE CALLVALUE PUSH2 0x16 JUMPI PUSH2 0x56D SWAP1 DUP2 PUSH2 0x1C DUP3 CODECOPY RETURN JUMPDEST PUSH1 0x0 DUP1 REVERT INVALID PUSH1 0x80 PUSH1 0x40 DUP2 DUP2 MSTORE PUSH1 0x4 DUP1 CALLDATASIZE LT ISZERO PUSH2 0x15 JUMPI PUSH1 0x0 DUP1 REVERT JUMPDEST PUSH1 0x0 SWAP3 DUP4 CALLDATALOAD PUSH1 0xE0 SHR SWAP1 DUP2 PUSH4 0x1732D652 EQ PUSH2 0x2F9 JUMPI POP DUP1 PUSH4 0x247BC4A7 EQ PUSH2 0x12F JUMPI DUP1 PUSH4 0x27FF6223 EQ PUSH2 0x12F JUMPI DUP1 PUSH4 0x40B89270 EQ PUSH2 0x2DE JUMPI DUP1 PUSH4 0x4225E7F4 EQ PUSH2 0x29E JUMPI DUP1 PUSH4 0x43859632 EQ PUSH2 0x258 JUMPI DUP1 PUSH4 0x4654FF05 EQ PUSH2 0x23B JUMPI DUP1 PUSH4 0x50D061CB EQ PUSH2 0x200 JUMPI DUP1 PUSH4 0x564A565D EQ PUSH2 0x134 JUMPI DUP1 PUSH4 0x9EC0164A EQ PUSH2 0x12F JUMPI DUP1 PUSH4 0xB2C2F2E8 EQ PUSH2 0xF0 JUMPI PUSH4 0xFB468855 EQ PUSH2 0xA7 JUMPI PUSH1 0x0 DUP1 REVERT JUMPDEST CALLVALUE PUSH2 0xEC JUMPI DUP2 PUSH1 0x3 NOT CALLDATASIZE ADD SLT PUSH2 0xEC JUMPI DUP2 PUSH1 0x20 SWAP4 PUSH1 0xFF SWAP3 PUSH2 0xC6 PUSH2 0x3D6 JUMP JUMPDEST SWAP1 CALLDATALOAD DUP3 MSTORE PUSH1 0x6 DUP7 MSTORE DUP3 DUP3 KECCAK256 PUSH1 0x1 PUSH1 0x1 PUSH1 0xA0 SHL SUB SWAP1 SWAP2 AND DUP3 MSTORE DUP6 MSTORE KECCAK256 SLOAD SWAP2 MLOAD SWAP2 AND ISZERO ISZERO DUP2 MSTORE RETURN JUMPDEST DUP3 DUP1 REVERT JUMPDEST POP DUP3 SWAP1 CALLVALUE PUSH2 0x12B JUMPI PUSH1 0x20 CALLDATASIZE PUSH1 0x3 NOT ADD SLT PUSH2 0x12B JUMPI PUSH1 0x9 SWAP2 DUP2 DUP5 SWAP3 CALLDATALOAD DUP3 MSTORE PUSH1 0x20 MSTORE KECCAK256 ADD SLOAD PUSH1 0xFF DUP3 MLOAD SWAP2 DUP2 DUP2 PUSH1 0x8 SHR AND DUP4 MSTORE PUSH1 0x10 SHR AND PUSH1 0x20 DUP3 ADD MSTORE RETURN JUMPDEST POP DUP1 REVERT JUMPDEST PUSH2 0x39F JUMP JUMPDEST POP CALLVALUE PUSH2 0xEC JUMPI PUSH1 0x20 CALLDATASIZE PUSH1 0x3 NOT ADD SLT PUSH2 0xEC JUMPI DUP1 CALLDATALOAD DUP4 MSTORE PUSH1 0x20 MSTORE SWAP1 DUP2 SWAP1 KECCAK256 DUP1 SLOAD PUSH1 0x1 DUP3 ADD SLOAD PUSH1 0x1 PUSH1 0x1 PUSH1 0xA0 SHL SUB AND SWAP3 SWAP1 SWAP2 SWAP1 PUSH1 0xFF SWAP1 PUSH2 0x174 PUSH1 0x2 DUP5 ADD PUSH2 0x41D JUMP JUMPDEST SWAP3 DUP3 PUSH2 0x1C3 PUSH2 0x185 PUSH1 0x3 DUP5 ADD PUSH2 0x41D JUMP JUMPDEST PUSH2 0x1B5 PUSH1 0x9 DUP6 ADD SLOAD SWAP8 PUSH1 0xB PUSH1 0xA DUP8 ADD SLOAD SWAP7 ADD SLOAD SWAP7 DUP1 MLOAD SWAP12 DUP13 SWAP12 DUP13 MSTORE PUSH1 0x20 DUP13 ADD MSTORE PUSH2 0x140 DUP1 SWAP2 DUP13 ADD MSTORE DUP11 ADD SWAP1 PUSH2 0x4F7 JUMP JUMPDEST SWAP1 DUP9 DUP3 SUB PUSH1 0x60 DUP11 ADD MSTORE PUSH2 0x4F7 JUMP JUMPDEST SWAP5 DUP2 DUP2 AND PUSH1 0x80 DUP9 ADD MSTORE DUP2 DUP2 PUSH1 0x8 SHR AND PUSH1 0xA0 DUP9 ADD MSTORE PUSH1 0x10 SHR AND PUSH1 0xC0 DUP7 ADD MSTORE PUSH1 0xE0 DUP6 ADD MSTORE DUP2 DUP2 AND ISZERO ISZERO PUSH2 0x100 DUP6 ADD MSTORE PUSH1 0x8 SHR AND ISZERO ISZERO PUSH2 0x120 DUP4 ADD MSTORE SUB SWAP1 RETURN JUMPDEST POP POP CALLVALUE PUSH2 0x12B JUMPI PUSH1 0x20 CALLDATASIZE PUSH1 0x3 NOT ADD SLT PUSH2 0x12B JUMPI PUSH1 0x20 SWAP2 PUSH1 0xFF SWAP1 DUP3 SWAP1 PUSH1 0x1 PUSH1 0x1 PUSH1 0xA0 SHL SUB PUSH2 0x22B PUSH2 0x3C0 JUMP JUMPDEST AND DUP2 MSTORE DUP1 DUP6 MSTORE KECCAK256 SLOAD AND SWAP1 MLOAD SWAP1 DUP2 MSTORE RETURN JUMPDEST POP POP CALLVALUE PUSH2 0x12B JUMPI DUP2 PUSH1 0x3 NOT CALLDATASIZE ADD SLT PUSH2 0x12B JUMPI PUSH1 0x20 SWAP1 MLOAD PUSH2 0x12C DUP2 MSTORE RETURN JUMPDEST POP CALLVALUE PUSH2 0xEC JUMPI DUP2 PUSH1 0x3 NOT CALLDATASIZE ADD SLT PUSH2 0xEC JUMPI DUP2 PUSH1 0x20 SWAP4 PUSH1 0xFF SWAP3 PUSH2 0x278 PUSH2 0x3D6 JUMP JUMPDEST SWAP1 CALLDATALOAD DUP3 MSTORE PUSH1 0x5 DUP7 MSTORE DUP3 DUP3 KECCAK256 PUSH1 0x1 PUSH1 0x1 PUSH1 0xA0 SHL SUB SWAP1 SWAP2 AND DUP3 MSTORE DUP6 MSTORE KECCAK256 SLOAD SWAP2 MLOAD SWAP2 AND ISZERO ISZERO DUP2 MSTORE RETURN JUMPDEST POP POP CALLVALUE PUSH2 0x12B JUMPI PUSH1 0x20 CALLDATASIZE PUSH1 0x3 NOT ADD SLT PUSH2 0x12B JUMPI PUSH1 0x20 SWAP2 PUSH1 0x64 SWAP1 PUSH1 0xFF SWAP1 DUP4 SWAP1 PUSH1 0x1 PUSH1 0x1 PUSH1 0xA0 SHL SUB PUSH2 0x2CC PUSH2 0x3C0 JUMP JUMPDEST AND DUP2 MSTORE DUP1 DUP7 MSTORE KECCAK256 SLOAD AND LT ISZERO SWAP1 MLOAD SWAP1 DUP2 MSTORE RETURN JUMPDEST POP POP CALLVALUE PUSH2 0x12B JUMPI DUP2 PUSH1 0x3 NOT CALLDATASIZE ADD SLT PUSH2 0x12B JUMPI MLOAD SWAP1 DUP2 MSTORE PUSH1 0x20 SWAP1 RETURN JUMPDEST SWAP2 SWAP1 POP CALLVALUE PUSH2 0x39B JUMPI PUSH1 0x20 SWAP2 DUP3 PUSH1 0x3 NOT CALLDATASIZE ADD SLT PUSH2 0x397 JUMPI DUP1 PUSH2 0x31E PUSH1 0xA0 SWAP3 SWAP7 SWAP6 SWAP7 PUSH2 0x3EC JUMP JUMPDEST CALLDATASIZE SWAP1 CALLDATACOPY DUP1 CALLDATALOAD DUP4 MSTORE DUP1 DUP3 MSTORE DUP4 DUP4 KECCAK256 DUP5 MLOAD SWAP5 SWAP2 ADD DUP4 DUP6 JUMPDEST PUSH1 0x5 DUP3 LT PUSH2 0x378 JUMPI POP POP POP PUSH2 0x347 DUP5 PUSH2 0x3EC JUMP JUMPDEST MLOAD SWAP3 SWAP2 DUP4 JUMPDEST PUSH1 0x5 DUP3 LT PUSH2 0x359 JUMPI PUSH1 0xA0 DUP6 RETURN JUMPDEST DUP4 MLOAD PUSH1 0x1 PUSH1 0x1 PUSH1 0xA0 SHL SUB AND DUP2 MSTORE SWAP3 DUP3 ADD SWAP3 PUSH1 0x1 SWAP2 SWAP1 SWAP2 ADD SWAP1 DUP3 ADD PUSH2 0x34C JUMP JUMPDEST DUP3 SLOAD PUSH1 0x1 PUSH1 0x1 PUSH1 0xA0 SHL SUB AND DUP2 MSTORE PUSH1 0x1 SWAP3 DUP4 ADD SWAP3 SWAP2 SWAP1 SWAP2 ADD SWAP1 DUP5 ADD PUSH2 0x333 JUMP JUMPDEST DUP5 DUP1 REVERT JUMPDEST DUP4 DUP1 REVERT JUMPDEST CALLVALUE PUSH2 0x3BB JUMPI PUSH1 0x0 CALLDATASIZE PUSH1 0x3 NOT ADD SLT PUSH2 0x3BB JUMPI PUSH1 0x20 PUSH1 0x40 MLOAD PUSH1 0x64 DUP2 MSTORE RETURN JUMPDEST PUSH1 0x0 DUP1 REVERT JUMPDEST PUSH1 0x4 CALLDATALOAD SWAP1 PUSH1 0x1 PUSH1 0x1 PUSH1 0xA0 SHL SUB DUP3 AND DUP3 SUB PUSH2 0x3BB JUMPI JUMP JUMPDEST PUSH1 0x24 CALLDATALOAD SWAP1 PUSH1 0x1 PUSH1 0x1 PUSH1 0xA0 SHL SUB DUP3 AND DUP3 SUB PUSH2 0x3BB JUMPI JUMP JUMPDEST PUSH1 0xA0 DUP2 ADD SWAP1 DUP2 LT PUSH1 0x1 PUSH1 0x1 PUSH1 0x40 SHL SUB DUP3 GT OR PUSH2 0x407 JUMPI PUSH1 0x40 MSTORE JUMP JUMPDEST PUSH4 0x4E487B71 PUSH1 0xE0 SHL PUSH1 0x0 MSTORE PUSH1 0x41 PUSH1 0x4 MSTORE PUSH1 0x24 PUSH1 0x0 REVERT JUMPDEST SWAP1 PUSH1 0x40 MLOAD SWAP2 PUSH1 0x0 SWAP1 DUP1 SLOAD SWAP1 PUSH1 0x1 DUP3 DUP2 SHR SWAP2 DUP2 DUP5 AND SWAP4 DUP5 ISZERO PUSH2 0x4ED JUMPI JUMPDEST PUSH1 0x20 SWAP5 DUP6 DUP6 LT DUP2 EQ PUSH2 0x4D9 JUMPI DUP5 DUP10 MSTORE SWAP1 DUP2 ISZERO PUSH2 0x4BB JUMPI POP PUSH1 0x1 EQ PUSH2 0x47F JUMPI JUMPDEST POP POP POP POP DUP3 SWAP1 SUB PUSH1 0x1F ADD PUSH1 0x1F NOT AND DUP3 ADD PUSH1 0x1 PUSH1 0x1 PUSH1 0x40 SHL SUB DUP2 GT DUP4 DUP3 LT OR PUSH2 0x407 JUMPI PUSH1 0x40 MSTORE JUMP JUMPDEST SWAP1 SWAP3 SWAP4 POP PUSH1 0x0 MSTORE DUP3 PUSH1 0x0 KECCAK256 SWAP2 DUP4 PUSH1 0x0 SWAP4 JUMPDEST DUP4 DUP6 LT PUSH2 0x4A7 JUMPI POP POP POP POP DUP4 ADD ADD CODESIZE DUP1 DUP1 DUP1 PUSH2 0x458 JUMP JUMPDEST DUP1 SLOAD DUP9 DUP7 ADD DUP4 ADD MSTORE SWAP4 ADD SWAP3 DUP5 SWAP1 DUP3 ADD PUSH2 0x490 JUMP JUMPDEST PUSH1 0xFF NOT AND DUP9 DUP7 ADD MSTORE POP POP POP ISZERO ISZERO PUSH1 0x5 SHL DUP5 ADD ADD SWAP1 POP CODESIZE DUP1 DUP1 DUP1 PUSH2 0x458 JUMP JUMPDEST PUSH4 0x4E487B71 PUSH1 0xE0 SHL DUP8 MSTORE PUSH1 0x22 PUSH1 0x4 MSTORE PUSH1 0x24 DUP8 REVERT JUMPDEST SWAP3 PUSH1 0x7F AND SWAP3 PUSH2 0x439 JUMP JUMPDEST SWAP2 SWAP1 DUP3 MLOAD SWAP3 DUP4 DUP3 MSTORE PUSH1 0x0 JUMPDEST DUP5 DUP2 LT PUSH2 0x523 JUMPI POP POP DUP3 PUSH1 0x0 PUSH1 0x20 DUP1 SWAP5 SWAP6 DUP5 ADD ADD MSTORE PUSH1 0x1F DUP1 NOT SWAP2 ADD AND ADD ADD SWAP1 JUMP JUMPDEST PUSH1 0x20 DUP2 DUP4 ADD DUP2 ADD MLOAD DUP5 DUP4 ADD DUP3 ADD MSTORE ADD PUSH2 0x502 JUMP INVALID LOG2 PUSH5 0x6970667358 0x22 SLT KECCAK256 SWAP3 PUSH30 0xEDD5DBC1809235C448B6A75990314B57E7DBED4A5DF155337D5A574A4B93 PUSH5 0x736F6C6343 STOP ADDMOD EQ STOP CALLER "},"methodIdentifiers":{"INIT_SCORE()":"247bc4a7","MAX_SCORE()":"27ff6223","MIN_SCORE()":"40b89270","VOTER_THRESHOLD()":"9ec0164a","VOTE_DURATION()":"4654ff05","disputes(uint256)":"564a565d","getDisputeVoters(uint256)":"1732d652","getVoteCount(uint256)":"b2c2f2e8","hasVoted(uint256,address)":"43859632","isEligibleVoter(address)":"4225e7f4","reputationScore(address)":"50d061cb","voteChoice(uint256,address)":"fb468855"}}}}}