{"contracts/GigStamp.sol":{"GigStamp":{"abi":[{"anonymous":false,"inputs":[{"indexed":true,"internalType":"address","name":"user","type":"address"},{"indexed":true,"internalType":"enum BadgeManager.BadgeType","name":"badgeType","type":"uint8"},{"indexed":false,"internalType":"uint256","name":"jobId","type":"uint256"}],"name":"BadgeAwarded","type":"event"},{"anonymous":false,"inputs":[{"indexed":true,"internalType":"uint256","name":"jobId","type":"uint256"},{"indexed":true,"internalType":"address","name":"responder","type":"address"}],"name":"CounterEvidenceSubmitted","type":"event"},{"anonymous":false,"inputs":[{"indexed":true,"internalType":"uint256","name":"jobId","type":"uint256"},{"indexed":true,"internalType":"address","name":"initiator","type":"address"}],"name":"DisputeRaised","type":"event"},{"anonymous":false,"inputs":[{"indexed":true,"internalType":"uint256","name":"jobId","type":"uint256"},{"indexed":false,"internalType":"bool","name":"workerWon","type":"bool"}],"name":"DisputeResolved","type":"event"},{"anonymous":false,"inputs":[{"indexed":true,"internalType":"address","name":"user","type":"address"},{"indexed":false,"internalType":"uint8","name":"oldScore","type":"uint8"},{"indexed":false,"internalType":"uint8","name":"newScore","type":"uint8"},{"indexed":false,"internalType":"string","name":"reason","type":"string"}],"name":"ScoreChanged","type":"event"},{"anonymous":false,"inputs":[{"indexed":true,"internalType":"address","name":"user","type":"address"}],"name":"ScoreInitialized","type":"event"},{"anonymous":false,"inputs":[{"indexed":true,"internalType":"uint256","name":"jobId","type":"uint256"},{"indexed":true,"internalType":"address","name":"voter","type":"address"},{"indexed":false,"internalType":"bool","name":"voteForWorker","type":"bool"}],"name":"Voted","type":"event"},{"anonymous":false,"inputs":[{"indexed":true,"internalType":"uint256","name":"jobId","type":"uint256"},{"indexed":false,"internalType":"address[]","name":"voters","type":"address[]"}],"name":"VoterSelected","type":"event"},{"anonymous":false,"inputs":[{"indexed":true,"internalType":"uint256","name":"jobId","type":"uint256"},{"indexed":false,"internalType":"address[]","name":"newVoters","type":"address[]"},{"indexed":false,"internalType":"uint256","name":"newDeadline","type":"uint256"}],"name":"VotersReplaced","type":"event"},{"inputs":[],"name":"APPROVE_TIMEOUT","outputs":[{"internalType":"uint256","name":"","type":"uint256"}],"stateMutability":"view","type":"function"},{"inputs":[],"name":"INIT_SCORE","outputs":[{"internalType":"uint8","name":"","type":"uint8"}],"stateMutability":"view","type":"function"},{"inputs":[],"name":"MAX_SCORE","outputs":[{"internalType":"uint8","name":"","type":"uint8"}],"stateMutability":"view","type":"function"},{"inputs":[],"name":"MIN_SCORE","outputs":[{"internalType":"uint8","name":"","type":"uint8"}],"stateMutability":"view","type":"function"},{"inputs":[],"name":"SCAM_THRESHOLD","outputs":[{"internalType":"uint256","name":"","type":"uint256"}],"stateMutability":"view","type":"function"},{"inputs":[],"name":"SERIAL_CANCEL_THRESHOLD","outputs":[{"internalType":"uint256","name":"","type":"uint256"}],"stateMutability":"view","type":"function"},{"inputs":[],"name":"VOTER_THRESHOLD","outputs":[{"internalType":"uint8","name":"","type":"uint8"}],"stateMutability":"view","type":"function"},{"inputs":[],"name":"VOTE_DURATION","outputs":[{"internalType":"uint256","name":"","type":"uint256"}],"stateMutability":"view","type":"function"},{"inputs":[{"internalType":"uint256","name":"jobId","type":"uint256"}],"name":"acceptJob","outputs":[],"stateMutability":"nonpayable","type":"function"},{"inputs":[{"internalType":"uint256","name":"jobId","type":"uint256"},{"internalType":"uint8","name":"_rating","type":"uint8"},{"internalType":"string","name":"_comment","type":"string"}],"name":"approveJob","outputs":[],"stateMutability":"nonpayable","type":"function"},{"inputs":[{"internalType":"uint256","name":"jobId","type":"uint256"}],"name":"autoReleaseIfNotApproved","outputs":[],"stateMutability":"nonpayable","type":"function"},{"inputs":[{"internalType":"address","name":"","type":"address"},{"internalType":"uint256","name":"","type":"uint256"}],"name":"badgeCount","outputs":[{"internalType":"uint256","name":"","type":"uint256"}],"stateMutability":"view","type":"function"},{"inputs":[{"internalType":"uint256","name":"jobId","type":"uint256"}],"name":"cancelIfNotStarted","outputs":[],"stateMutability":"nonpayable","type":"function"},{"inputs":[{"internalType":"uint256","name":"jobId","type":"uint256"}],"name":"cancelIfNotSubmitted","outputs":[],"stateMutability":"nonpayable","type":"function"},{"inputs":[{"internalType":"uint256","name":"jobId","type":"uint256"}],"name":"cancelJob","outputs":[],"stateMutability":"nonpayable","type":"function"},{"inputs":[{"internalType":"uint256","name":"jobId","type":"uint256"},{"internalType":"bool","name":"voteForWorker","type":"bool"}],"name":"castVote","outputs":[],"stateMutability":"nonpayable","type":"function"},{"inputs":[{"internalType":"string","name":"_jobHash","type":"string"},{"internalType":"uint256","name":"_pay","type":"uint256"},{"internalType":"uint256","name":"_startTime","type":"uint256"},{"internalType":"uint256","name":"_endTime","type":"uint256"},{"internalType":"uint256","name":"_tolerance","type":"uint256"}],"name":"createJob","outputs":[],"stateMutability":"nonpayable","type":"function"},{"inputs":[{"internalType":"uint256","name":"","type":"uint256"}],"name":"disputes","outputs":[{"internalType":"uint256","name":"jobId","type":"uint256"},{"internalType":"address","name":"initiator","type":"address"},{"internalType":"string","name":"evidenceHash","type":"string"},{"internalType":"string","name":"counterHash","type":"string"},{"internalType":"uint8","name":"voterCount","type":"uint8"},{"internalType":"uint8","name":"votesForWorker","type":"uint8"},{"internalType":"uint8","name":"votesForClient","type":"uint8"},{"internalType":"uint256","name":"deadline","type":"uint256"},{"internalType":"bool","name":"resolved","type":"bool"},{"internalType":"bool","name":"workerWon","type":"bool"}],"stateMutability":"view","type":"function"},{"inputs":[{"internalType":"uint256","name":"","type":"uint256"}],"name":"feedbacks","outputs":[{"internalType":"address","name":"client","type":"address"},{"internalType":"address","name":"worker","type":"address"},{"internalType":"uint8","name":"rating","type":"uint8"},{"internalType":"string","name":"comment","type":"string"}],"stateMutability":"view","type":"function"},{"inputs":[{"internalType":"uint256","name":"jobId","type":"uint256"}],"name":"fundJob","outputs":[],"stateMutability":"payable","type":"function"},{"inputs":[{"internalType":"address","name":"user","type":"address"},{"internalType":"enum BadgeManager.BadgeType","name":"badgeType","type":"uint8"}],"name":"getBadgeCount","outputs":[{"internalType":"uint256","name":"","type":"uint256"}],"stateMutability":"view","type":"function"},{"inputs":[{"internalType":"address","name":"user","type":"address"}],"name":"getBadges","outputs":[{"internalType":"enum BadgeManager.BadgeType[]","name":"types","type":"uint8[]"},{"internalType":"uint256[]","name":"jobIds","type":"uint256[]"},{"internalType":"uint256[]","name":"timestamps","type":"uint256[]"},{"internalType":"string[]","name":"notes","type":"string[]"}],"stateMutability":"view","type":"function"},{"inputs":[{"internalType":"uint256","name":"jobId","type":"uint256"}],"name":"getDisputeVoters","outputs":[{"internalType":"address[5]","name":"","type":"address[5]"}],"stateMutability":"view","type":"function"},{"inputs":[],"name":"getMyRole","outputs":[{"internalType":"enum Auth.Role","name":"","type":"uint8"}],"stateMutability":"view","type":"function"},{"inputs":[{"internalType":"address","name":"worker","type":"address"}],"name":"getRating","outputs":[{"internalType":"uint256","name":"","type":"uint256"}],"stateMutability":"view","type":"function"},{"inputs":[{"internalType":"uint256","name":"jobId","type":"uint256"}],"name":"getVoteCount","outputs":[{"internalType":"uint8","name":"forWorker","type":"uint8"},{"internalType":"uint8","name":"forClient","type":"uint8"}],"stateMutability":"view","type":"function"},{"inputs":[{"internalType":"uint256","name":"","type":"uint256"},{"internalType":"address","name":"","type":"address"}],"name":"hasVoted","outputs":[{"internalType":"bool","name":"","type":"bool"}],"stateMutability":"view","type":"function"},{"inputs":[{"internalType":"address","name":"user","type":"address"}],"name":"isEligibleVoter","outputs":[{"internalType":"bool","name":"","type":"bool"}],"stateMutability":"view","type":"function"},{"inputs":[{"internalType":"address","name":"user","type":"address"}],"name":"isScammer","outputs":[{"internalType":"bool","name":"","type":"bool"}],"stateMutability":"view","type":"function"},{"inputs":[],"name":"jobCount","outputs":[{"internalType":"uint256","name":"","type":"uint256"}],"stateMutability":"view","type":"function"},{"inputs":[{"internalType":"uint256","name":"","type":"uint256"}],"name":"jobs","outputs":[{"internalType":"address","name":"client","type":"address"},{"internalType":"address","name":"worker","type":"address"},{"internalType":"uint256","name":"pay","type":"uint256"},{"internalType":"uint256","name":"startTime","type":"uint256"},{"internalType":"uint256","name":"endTime","type":"uint256"},{"internalType":"uint256","name":"tolerance","type":"uint256"},{"internalType":"string","name":"jobHash","type":"string"},{"internalType":"string","name":"resultHash","type":"string"},{"internalType":"uint256","name":"fundedAt","type":"uint256"},{"internalType":"uint256","name":"acceptedAt","type":"uint256"},{"internalType":"uint256","name":"submittedAt","type":"uint256"},{"internalType":"enum JobStatus","name":"status","type":"uint8"}],"stateMutability":"view","type":"function"},{"inputs":[{"internalType":"uint256","name":"jobId","type":"uint256"},{"internalType":"string","name":"evidenceHash","type":"string"}],"name":"raiseDispute","outputs":[],"stateMutability":"nonpayable","type":"function"},{"inputs":[{"internalType":"address","name":"","type":"address"}],"name":"ratingCount","outputs":[{"internalType":"uint256","name":"","type":"uint256"}],"stateMutability":"view","type":"function"},{"inputs":[],"name":"registerClient","outputs":[],"stateMutability":"nonpayable","type":"function"},{"inputs":[],"name":"registerWorker","outputs":[],"stateMutability":"nonpayable","type":"function"},{"inputs":[{"internalType":"uint256","name":"jobId","type":"uint256"}],"name":"replaceInactiveVoters","outputs":[],"stateMutability":"nonpayable","type":"function"},{"inputs":[{"internalType":"address","name":"","type":"address"}],"name":"reputationScore","outputs":[{"internalType":"uint8","name":"","type":"uint8"}],"stateMutability":"view","type":"function"},{"inputs":[{"internalType":"uint256","name":"jobId","type":"uint256"}],"name":"resolveDispute","outputs":[],"stateMutability":"nonpayable","type":"function"},{"inputs":[{"internalType":"address","name":"","type":"address"}],"name":"roles","outputs":[{"internalType":"enum Auth.Role","name":"","type":"uint8"}],"stateMutability":"view","type":"function"},{"inputs":[{"internalType":"uint256","name":"jobId","type":"uint256"}],"name":"startWork","outputs":[],"stateMutability":"nonpayable","type":"function"},{"inputs":[{"internalType":"uint256","name":"jobId","type":"uint256"},{"internalType":"string","name":"counterHash","type":"string"}],"name":"submitCounterEvidence","outputs":[],"stateMutability":"nonpayable","type":"function"},{"inputs":[{"internalType":"uint256","name":"jobId","type":"uint256"},{"internalType":"string","name":"_resultHash","type":"string"}],"name":"submitWork","outputs":[],"stateMutability":"nonpayable","type":"function"},{"inputs":[{"internalType":"address","name":"","type":"address"}],"name":"totalRating","outputs":[{"internalType":"uint256","name":"","type":"uint256"}],"stateMutability":"view","type":"function"},{"inputs":[{"internalType":"uint256","name":"","type":"uint256"},{"internalType":"address","name":"","type":"address"}],"name":"voteChoice","outputs":[{"internalType":"bool","name":"","type":"bool"}],"stateMutability":"view","type":"function"}],"evm":{"bytecode":{"linkReferences":{},"object":"60808060405234610016576152a0908161001c8239f35b600080fdfe6080604052600436101561001257600080fd5b60003560e01c806303828e4514613e0257806303a250f914613d8857806315373e3d14613ac95780631732d65214613a20578063180aedf3146139345780631dffa3dc14613918578063208082bf146138c05780632404165e14613886578063247bc4a7146120c05780632488b2ee1461386a57806327ff6223146120c05780632bb8b0dc146137fc5780632d592865146137b457806340b89270146137985780634225e7f41461376b578063438596321461371e5780634654ff05146137015780634807632f146136c75780634c5d8a0f146136a95780634f0db6221461368d57806350d061cb14613650578063564a565d146135815780635aef573c146130bc57806363b2f3c914612f5457806366c910c814612c7957806369c04c4414612c305780636d9fb28714612bcf5780636e3b47fc14612b9d578063771dd581146122a957806380fc9c0e1461227e5780638721ba3f1461222c5780638d22b8631461210b57806399374642146120c55780639ec0164a146120c0578063adcd584314611aba578063b2c2f2e814611a7c578063c2b7b868146111e6578063c5f8e29914610e48578063ca62fafd14610af0578063cbf78ee61461070a578063d0d241421461049c578063da8accf91461026e578063e72f73a8146102525763fb4688551461020057600080fd5b3461024d57604036600319011261024d5761021961403e565b600435600052600760205260406000209060018060a01b0316600052602052602060ff604060002054166040519015158152f35b600080fd5b3461024d57600036600319011261024d57602060405160038152f35b3461024d5761027c366142b5565b906000526020600b815260406000209060016102a460018060a01b03828501541633146143fc565b600b83019360ff855416600981101561048657600303610451576102d16004850154600586015490614435565b4211610414578051600785019390916001600160401b0383116103fe576102f885546140c8565b601f81116103b5575b5081601f841160011461034f5750928293918392600094610344575b50501b916000199060031b1c19161790555b42600a9190910155805460ff19166004179055005b01519250878061031d565b919083601f1981168760005284600020946000905b8883831061039b5750505010610382575b505050811b01905561032f565b015160001960f88460031b161c19169055858080610375565b858701518855909601959485019487935090810190610364565b8560005282600020601f850160051c8101918486106103f4575b601f0160051c019085905b8281106103e8575050610301565b600081550185906103da565b90915081906103cf565b634e487b7160e01b600052604160045260246000fd5b60405162461bcd60e51b815260048101849052601560248201527414dd589b5a5d081dda5b991bddc8195e1c1a5c9959605a1b6044820152606490fd5b60405162461bcd60e51b815260048101849052600d60248201526c496e76616c696420737461746560981b6044820152606490fd5b634e487b7160e01b600052602160045260246000fd5b3461024d576104aa366142b5565b81600052602090600b825260406000209060ff600b60018060a01b039384815416331480156106fb575b6104dd90614cfb565b01541660098110156104865760076104f59114614dd3565b836000526005835260406000206001928382015416610519600a8301541515614e0e565b61052a60ff600b8401541615614d36565b33146106b95760030192835491610540836140c8565b610678578051926001600160401b0384116103fe5761055e906140c8565b601f811161062f575b5081601f84116001146105c957509282939183926000946105be575b50501b916000199060031b1c19161790555b33907f7878f55c48613e960719430c5332344cefc8c552f6afc747476ff85169f618fe600080a3005b015192508680610583565b919083601f1981168760005284600020946000905b8883831061061557505050106105fc575b505050811b019055610595565b015160001960f88460031b161c191690558480806105ef565b8587015188559096019594850194879350908101906105de565b8560005282600020601f850160051c81019184861061066e575b601f0160051c019085905b828110610662575050610567565b60008155018590610654565b9091508190610649565b60405162461bcd60e51b815260048101839052601960248201527810dbdd5b9d195c88185b1c9958591e481cdd589b5a5d1d1959603a1b6044820152606490fd5b60405162461bcd60e51b815260048101859052601a60248201527943616e6e6f7420636f756e746572206f776e206469737075746560301b6044820152606490fd5b506001810154851633146104d4565b3461024d5760a036600319011261024d576004356001600160401b03811161024d5761073a90369060040161426e565b33600052600460205260ff60406000205416600381101561048657600161076191146143c3565b6040519061018082016001600160401b038111838210176103fe576040523382526000602083015260243560408301526044356060830152606435608083015260843560a083015260c08201526040516020810181811060018060401b038211176103fe576040526000815260e08201526000610100820152600061012082015260006101408201526000610160820152600a54600052600b60205260406000209060018060a01b038082511660018060a01b0319908185541617845560018401916020840151169082541617905560408101516002830155606081015160038301556080810151600483015560a0810151600583015560c081015191825160018060401b0381116103fe5761087a60068301546140c8565b601f8111610aa9575b506020601f8211600114610a3b5781929394600092610a30575b50508160011b916000199060031b1c19161760068201555b60e08201518051906001600160401b0382116103fe576108d860078401546140c8565b601f81116109e5575b50602090601f831160011461096f5791806101609492600b94600092610964575b50508160011b916000199060031b1c19161760078201555b61010084015160088201556101208401516009820155610140840151600a8201550191015160098110156104865760ff8019835416911617905561095f600a54614384565b600a55005b015190508680610902565b906007840160005260206000209160005b601f19851681106109cd5750926101609492600192600b9583601f198116106109b4575b505050811b01600782015561091a565b015160001960f88460031b161c191690558680806109a4565b91926020600181928685015181550194019201610980565b600784016000526020600020601f840160051c81019160208510610a26575b601f0160051c01905b818110610a1a57506108e1565b60008155600101610a0d565b9091508190610a04565b01519050848061089d565b6006830160005260206000209060005b601f1984168110610a915750600193949583601f19811610610a78575b505050811b0160068201556108b5565b015160001960f88460031b161c19169055848080610a68565b9091602060018192858a015181550193019101610a4b565b600683016000526020600020601f830160051c810160208410610ae9575b601f830160051c82018110610add575050610883565b60008155600101610ac7565b5080610ac7565b3461024d5760208060031936011261024d576004359081600052600b8152604060002091600b83019182549260ff84166009811015610486576002610b359114614485565b610b52610b4b6003870154600588015490614435565b42116144c0565b600660ff1980951617905560018060a01b0392610b90600080808060019960028a8c830154169a825416910154905af1610b8a6144f8565b50614528565b83604051610b9d81614153565b601b81527a1ddbdc9ad95c97d858d8d95c1d195917db9bdd17dcdd185c9d1959602a1b848201526000828152808552604090205460ff1660058111610e1d579060008051602061524b83398151915291610c186000925b8560005260008852604060002060ff85168882541617905560405193849384614f51565b0390a2610c236147df565b908460005260088352604060002060405190610c3e82614102565b600082528482018681526040830191428352606084019586528054600160401b8110156103fe57610c73918b82018155614393565b939093610e075751600d8110156104865760ff6003958554169116178355518883015551600282015501905180519060018060401b0382116103fe578190610cbb84546140c8565b601f8111610db4575b508490601f8311600114610d5157600092610d46575b5050600019600383901b1c191690861b1790555b826000526009815260406000206000805281526040600020918254948501809511610d305760009460008051602061522b8339815191529355604051908152a3005b634e487b7160e01b600052601160045260246000fd5b015190508780610cda565b90889350601f1983169185600052866000209260005b88828210610d9e5750508411610d85575b505050811b019055610cee565b015160001960f88460031b161c19169055878080610d78565b8385015186558c97909501949384019301610d67565b9091508360005284600020601f840160051c810191868510610dfd575b84939291601f8b920160051c01915b828110610dee575050610cc4565b600081558594508a9101610de0565b9091508190610dd1565b634e487b7160e01b600052600060045260246000fd5b915060041982019060ff8211610d30578692610c1860008051602061524b8339815191529392610bf4565b3461024d5760208060031936011261024d576004359081600052600b81526040600020600b81019081549260ff84166009811015610486576004610e8c9114614826565b600a82015460788101809111610d3057610ea8904210156144c0565b600560ff19948516811790935581546040516001600160a01b039391841690610ed081614153565b601981527831b634b2b73a2fb4b3b737b932b22fb9bab136b4b9b9b4b7b760391b848201526000828152808552604090205460ff1690600882116111bf5760008051602061524b83398151915291610f496000925b8560005260008852604060002060ff85168c82541617905560405193849384614f51565b0390a28281541692604051610f5d81614138565b602681527f446964206e6f7420726573706f6e6420616674657220776f726b65722073756284820152651b5a5d1d195960d21b60408201528460005260088452604060002096604051610faf81614102565b8781528581018a81526040820190428252606083019485528a54600160401b8110156103fe57610fe69060019c8d82018155614393565b939093610e075751600d8110156104865760ff6003958554169116178355518a83015551600282015501905180519060018060401b0382116103fe57819061102e84546140c8565b601f811161116e575b508690601f831160011461110b57600092611100575b5050600019600383901b1c191690881b1790555b83600052600983526040600020856000528352604060002090815493878501809511610d30576110e86000988998899860008051602061522b833981519152856110fe9e8c9b60029a55604051908152a385019183835416716a6f625f636f6d706c657465645f6175746f60701b604051926110dc84614153565b6012845283015261503b565b5416910154905af16110f86144f8565b5061488b565b005b015190508a8061104d565b908a9350601f1983169185600052886000209260005b8a828210611158575050841161113f575b505050811b019055611061565b015160001960f88460031b161c191690558a8080611132565b8385015186558e97909501949384019301611121565b9091508360005286600020601f84018a1c8101918885106111b5575b84939291601f8d92018c1c01915b8281106111a6575050611037565b600081558594508c9101611198565b909150819061118a565b60071982019160ff8311610d3057610f4960008051602061524b8339815191529392610f25565b3461024d57602036600319011261024d57600435600052600b6020526040600020600b810160ff81541660098110156104865760076112259114614dd3565b60043560005260056020526040600020600a81015492611246841515614e0e565b600b8201549361125960ff861615614d36565b4210801590611a51575b15611a1957600160098301549461ff0060ff8760101c1660ff8860081c161160081b169061ffff19161717600b83015560405160ff8560101c1660ff8660081c161181527f5a87909bff68caaaaf0b3fd9c74eeccc928832f879315e5c6fb7a73612f26c0c602060043592a260005b60ff60098401541660ff82161015611540576112f18160048501614d86565b91905491600435600052600660205260406000209260039360018060a01b038284871b1c1660005260205260ff6040600020541615611534576004356000526007602052604060002060018060a01b038284871b1c1660005260205260ff8860101c1660ff8960081c161160ff60406000205416151514600014611468576040519161137c83614153565b600f83526e766f7465645f636f72726563746c7960881b602084015260018060a01b038282871b1c16600052600060205260ff604060002054169261ffff86850111610d305760648061ffff888701161160001461143b5760008051602061524b8339815191529392916114369761142d92905b9390931b9390931c6001600160a01b031660008181526020819052604090819020805460ff191660ff861617905551909590938493909184614f51565b0390a25b614d75565b6112d2565b50919060ff86850111610d305761142d60008051602061524b8339815191529387611436988701906113f0565b6040519161147583614153565b600d83526c766f7465645f77726f6e676c7960981b602084015260018060a01b038282871b1c16600052600060205260ff60406000205416928386101560001461150457941b1c6001600160a01b0316600081815260208190526040808220805460ff191690555161143695929360008051602061524b833981519152939192839261142d9290919084614f51565b919060ff600219850111610d305761142d60008051602061524b83398151915293611436976002198701906113f0565b50506114369150614d75565b50828460ff199160088382541617905560ff808260101c169160081c16116000146117c25781546001600160a01b039061158490821661157e614e58565b906150b0565b80835416916040519061159682614153565b6018825277131bdcdd081848191a5cdc1d5d1948185cc818db1a595b9d60421b60208301528360005260086020526040600020604051906115d682614102565b600782526020820160043581526040830191428352606084019586528054600160401b8110156103fe5761160f91600182018155614393565b939093610e075751600d8110156104865760ff600395855416911617835551600183015551600282015501905180519060018060401b0382116103fe57819061165884546140c8565b601f811161176f575b50602090601f8311600114611709576000926116fe575b50508160011b916000199060031b1c19161790555b81600052600960205260406000206007600052602052604060002080549260018401809411610d30576110fe94600260009594600787969487969587965560008051602061522b83398151915260206040516004358152a3600183016110e8828254166116f8614e80565b9061503b565b015190508680611678565b6000858152602081209350601f198516905b818110611757575090846001959493921061173e575b505050811b01905561168d565b015160001960f88460031b161c19169055868080611731565b9293602060018192878601518155019501930161171b565b909150836000526020600020601f840160051c810191602085106117b8575b90601f859493920160051c01905b8181106117a95750611661565b6000815584935060010161179c565b909150819061178e565b6001820180546001600160a01b039182916117e190831661157e614e58565b541691604051906117f182614153565b600e82526d4c6f73742061206469737075746560901b602083015283600052600860205260406000206040519061182782614102565b600282526020820160043581526040830191428352606084019586528054600160401b8110156103fe5761186091600182018155614393565b939093610e075751600d8110156104865760ff600395855416911617835551600183015551600282015501905180519060018060401b0382116103fe5781906118a984546140c8565b601f81116119c6575b50602090601f831160011461196057600092611955575b50508160011b916000199060031b1c19161790555b81600052600960205260406000206002600052602052604060002080549260018401809411610d30576110fe946002600095948187969487969587965560008051602061522b83398151915260206040516004358152a3611944818454166116f8614e80565b825416910154905af16110f86144f8565b0151905086806118c9565b6000858152602081209350601f198516905b8181106119ae5750908460019594939210611995575b505050811b0190556118de565b015160001960f88460031b161c19169055868080611988565b92936020600181928786015181550195019301611972565b909150836000526020600020601f840160051c81019160208510611a0f575b90601f859493920160051c01905b818110611a0057506118b2565b600081558493506001016119f3565b90915081906119e5565b60405162461bcd60e51b815260206004820152601060248201526f159bdd1a5b99c81b9bdd08195b99195960821b6044820152606490fd5b50600982015460ff8160101c1660ff8260081c16019060ff8211610d305760ff809116911614611263565b3461024d57602036600319011261024d5760043560005260056020526040600981600020015460ff825191818160081c16835260101c166020820152f35b3461024d57602036600319011261024d57600435600052600b602052604060002060ff600b820154166009811015610486576007611af89114614dd3565b80546001909101546004356000908152600560205260409020600a81015490926001600160a01b03908116921690611b31811515614e0e565b611b4260ff600b8601541615614d36565b42106120855760009060009060ff600986015416915b8260ff821610612021575060ff831615611fdc57611b8060ff611b7a84614e47565b16614352565b93845115611fc6576020850152835160011015611fc657604084015260005b8160ff821610611f89575050906040516020810190428252600435604082015260ff60f81b8460f81b16606082015260418152611bdb81614102565b5190209160025490611bec82614352565b916000936000915b808310611ecd5750505060ff8116831015611ec7575060ff8216915b611c1c60ff8416614352565b93611c2682614352565b9260005b838110611ea057505060005b60ff85168110611df45786600087815b60ff60098501541660ff82161015611d115760043560005260066020526040600020611c758260048701614d86565b60018060a01b0391549060031b1c1660005260205260ff604060002054161580611d04575b611cad575b611ca890614d75565b611c46565b91611ca890611cfc906114316001600160a01b03611cce60ff8416876143af565b5116611cdd8760048a01614d86565b90919082549060031b9160018060a01b03809116831b921b1916179055565b929050611c9f565b50815160ff841610611c9a565b838261012c420190814211610d30577f3a17c250c2edd7885bc2d2c7e6a85ef460b5a11cdfcdef622788b6584ad9d6339082600a850155611d5d60405191604083526040830190614d96565b92602082015280600435930390a260ff60098201541690611d7d82614352565b9160005b60ff81169082821015611dc657611dc191611dbb611da28360048801614d86565b905460039190911b1c6001600160a01b031691876143af565b52614d75565b611d81565b8460008051602061520b8339815191526040516020815280611def600435946020830190614d96565b0390a2005b611e9960ff91611e37611e31604051602081019087825284604082015260408152611e1e81614138565b519020611e2b84896151dd565b906151ea565b82614435565b611e746001600160a01b03611e4c848a6143af565b5116916001600160a01b03611e61828b6143af565b5116611e6d858b6143af565b52886143af565b526001600160a01b03611e8782886143af565b5116611e93828a6143af565b52614384565b9050611c36565b611ec2906001600160a01b03611eb682856143af565b5116611e9382886143af565b611c2a565b91611c10565b9091959296611ede8796959661515d565b905460009960039290921b1c6001600160a01b03169490895b8551811015611f7b576001600160a01b03611f1282886143af565b51168714611f2857611f2390614384565b611ef7565b5094909791985060019695965b1580611f6c575b611f52575b50611f4b90614384565b9190611bf4565b86611f6591611e93611f4b9499896143af565b9590611f41565b50611f768161513d565b611f3c565b509490979198969596611f35565b80611f9a611fc19260048801614d86565b905460039190911b1c6001600160a01b0316611dbb60ff611fba84614e47565b16876143af565b611b9f565b634e487b7160e01b600052603260045260246000fd5b60405162461bcd60e51b815260206004820152601e60248201527f416c6c2073656c656374656420766f74657273206861766520766f74656400006044820152606490fd5b6004356000526006602052604060002061203e8260048901614d86565b60018060a01b0391549060031b1c1660005260205260ff6040600020541615612070575b61206b90614d75565b611b58565b9261207d61206b91614d75565b939050612062565b60405162461bcd60e51b8152602060048201526013602482015272111958591b1a5b99481b9bdd081c185cdcd959606a1b6044820152606490fd5b614237565b3461024d57602036600319011261024d576001600160a01b036120e6614028565b16600052600460205261210760ff60406000205416604051918291826142e7565b0390f35b60208060031936011261024d57600435600052600b81526040600020336000526004825260ff60406000205416600381101561048657600161214d91146143c3565b80546001600160a01b031633036121fb57600b81019081549060ff82166009811015610486576121c85760028101543403612194574260089091015560ff19166001179055005b60405162461bcd60e51b815260048101859052600c60248201526b15dc9bdb99c8185b5bdd5b9d60a21b6044820152606490fd5b60405162461bcd60e51b815260048101859052600b60248201526a139bdd0810dc99585d195960aa1b6044820152606490fd5b60405162461bcd60e51b81526004810183905260096024820152682737ba1037bbb732b960b91b6044820152606490fd5b3461024d57604036600319011261024d57612245614028565b60243590600d82101561024d5760018060a01b031660005260096020526040600020906000526020526020604060002054604051908152f35b3461024d57602036600319011261024d5760206122a161229c614028565b614caa565b604051908152f35b3461024d57606036600319011261024d5760243560ff8116810361024d576044356001600160401b03811161024d576122e690369060040161426e565b90600435600052600b60205260406000209160018060a01b0383541661230d8133146143c3565b600b8401805460ff8116600981101561048657600461232c9114614826565b600160ff8616101580612b8f575b15612b595760ff1916600517905560405161235481614138565b602281527f52656c6961626c6520636c69656e74207769746820636c65616e20686973746f602082015261727960f01b60408201528160005260086020526040600020604051916123a483614102565b600b8352600435602084015242604084015260608301528054600160401b8110156103fe576123d891600182018155614393565b919091610e0757805190600d8210156104865760609160ff801985541691161783556020810151600184015560408101516002840155015180519060018060401b0382116103fe5761242d60038401546140c8565b601f8111612b12575b50602090601f8311600114612aa3576003929160009183612a98575b50508160011b9160001990841b1c1916179101555b8060005260096020526040600020600b600052602052604060002090815491600183018311610d30576001600b9301905560008051602061522b83398151915260206040516004358152a36124e76040516124c181614153565b601381527231b634b2b73a2fb0b8383937bb32b22fb537b160691b602082015233614f72565b600460ff83161061276b576001830180546125469190612512906001600160a01b03166116f8614862565b54604051906001600160a01b031661252982614153565b600b82526a676f6f645f726174696e6760a81b6020830152614f72565b600183015460405191906001600160a01b031661256283614102565b338352602080840191825260ff85166040808601918252606086019485526004356000908152600c909352909120935184546001600160a01b0319166001600160a01b03918216178555915160018501805492516001600160a81b0319909316919093161760a09190911b60ff60a01b16179055518051906001600160401b0382116103fe576125f560028401546140c8565b601f8111612724575b50602090601f83116001146126b65760029291600091836126ab575b50508160011b916000199060031b1c1916179101555b60018060a01b03600183015416600052600d60205261265860ff604060002092168254614435565b905560018060a01b03600182015416600052600e602052604060002080549160018301809311610d3057600080808093866110fe9655600260018060a01b03600183015416910154905af16110f86144f8565b01519050868061261a565b90601f198316916002850160005260206000209260005b81811061270c575091600193918560029694106126f3575b505050811b01910155612630565b015160001960f88460031b161c191690558680806126e5565b929360206001819287860151815501950193016126cd565b600284016000526020600020601f840160051c810160208510612764575b601f830160051c820181106127585750506125fe565b60008155600101612742565b5080612742565b600260ff831611612a79576001830154612790906001600160a01b03166116f8614862565b60018060a01b036001840154166040516127a981614153565b600a8152696261645f726174696e6760b01b602082015281600052600060205260ff60406000205416908160071015600014612a4f5760008051602061524b8339815191529161281d6000925b856000526000602052604060002060ff851660ff1982541617905560405193849384614f51565b0390a260018060a01b0360018401541660405161283981614153565b601b81527a52656365697665642031206f722032207374617220726174696e6760281b602082015281600052600860205260406000206040519161287c83614102565b60018352600435602084015242604084015260608301528054600160401b8110156103fe576128b091600182018155614393565b919091610e0757805190600d8210156104865760609160ff801985541691161783556020810151600184015560408101516002840155015180519060018060401b0382116103fe5761290560038401546140c8565b601f8111612a08575b50602090601f831160011461299957600392916000918361298e575b50508160011b9160001990841b1c1916179101555b80600052600960205260406000206001600052602052604060002090815491600183018311610d30576001809301905560008051602061522b83398151915260206040516004358152a3612546565b01519050888061292a565b906003840160005260206000209160005b601f19851681106129f05750918391600193600395601f198116106129d8575b505050811b0191015561293f565b015160001983861b60f8161c191690558880806129ca565b919260206001819286850151815501940192016129aa565b600384016000526020600020601f840160051c810160208510612a48575b601f830160051c82018110612a3c57505061290e565b60008155600101612a26565b5080612a26565b60ff600619830111610d305760008051602061524b8339815191529161281d6006198201926127f6565b6001830154612a93906001600160a01b03166116f8614862565b612546565b015190508880612452565b906003840160005260206000209160005b601f1985168110612afa5750918391600193600395601f19811610612ae2575b505050811b01910155612467565b015160001983861b60f8161c19169055888080612ad4565b91926020600181928685015181550194019201612ab4565b600384016000526020600020601f840160051c810160208510612b52575b601f830160051c82018110612b46575050612436565b60008155600101612b30565b5080612b30565b60405162461bcd60e51b815260206004820152600e60248201526d496e76616c696420726174696e6760901b6044820152606490fd5b50600560ff8616111561233a565b3461024d57600036600319011261024d5733600052600460205261210760ff60406000205416604051918291826142e7565b3461024d57600036600319011261024d5733600052600460205260ff60406000205416600381101561048657612c0590156142fa565b3360005260046020526040600020600160ff19825416179055612c2733614ea7565b6110fe33615178565b3461024d57602036600319011261024d576001600160a01b03612c51614028565b1660005260096020526040600020600960005260205260206040600020541515604051908152f35b3461024d5760208060031936011261024d576004359081600052600b8152604060002091600b83019081549160ff8316600981101561048657600303612f1d57612cd7612ccf6004870154600588015490614435565b4210156144c0565b600660ff198094161790556001928385019460018060a01b0386612d27828099541660405190612d0682614153565b601082526f1ddbdc9ad95c97d858985b991bdb995960821b878301526150b0565b541693612d326147df565b908560005260088452604060002060405190612d4d82614102565b600082528582018781526040830191428352606084019586528054600160401b8110156103fe57612d82918c82018155614393565b939093610e075751600d8110156104865760ff6003958554169116178355518983015551600282015501905180519060018060401b0382116103fe578190612dca84546140c8565b601f8111612eca575b508590601f8311600114612e6757600092612e5c575b5050600019600383901b1c191690871b1790555b836000526009825260406000206000805282526040600020928354958601809611610d3057600080809360028a838a60008051602061522b8339815191526110fe9a83998f8e55604051908152a3825416910154905af1610b8a6144f8565b015190508980612de9565b90899350601f1983169185600052876000209260005b89828210612eb45750508411612e9b575b505050811b019055612dfd565b015160001960f88460031b161c19169055898080612e8e565b8385015186558d97909501949384019301612e7d565b9091508360005285600020601f840160051c810191878510612f13575b84939291601f8c920160051c01915b828110612f04575050612dd3565b600081558594508b9101612ef6565b9091508190612ee7565b60405162461bcd60e51b815260048101859052600f60248201526e4e6f7420696e2070726f677265737360881b6044820152606490fd5b3461024d5760208060031936011261024d57600435600052600b81526040600020336000526004825260ff604060002054166003811015610486576002612f9b91146143fc565b600b81019081549060ff821660098110156104865760010361308a5780546001600160a01b03908116331461304f576001820190815490811661301a576002949550612ffb612ff36003850154600586015490614435565b421115614442565b6001600160a01b03191633179055426009919091015560ff1916179055005b60405162461bcd60e51b815260048101879052600d60248201526c20b63932b0b23c903a30b5b2b760991b6044820152606490fd5b60405162461bcd60e51b815260048101869052601360248201527221b0b73737ba103a30b5b29037bbb7103537b160691b6044820152606490fd5b60405162461bcd60e51b815260048101859052600a602482015269139bdd08199d5b99195960b21b6044820152606490fd5b3461024d576130ca366142b5565b6000828152600b6020526040902080546001600160a01b031690338214801561356b575b6130f790614cfb565b600b8101805460ff811660098110156104865760048114908115613560575b501561351f5760079060ff19161790556001808060a01b039101541683600052600560205260406000209261315260ff600b8601541615614d36565b600a8401546134e1578484556001840180546001600160a01b031916331790558051906001600160401b0382116103fe57819061319260028701546140c8565b601f811161348e575b50602090601f831160011461342157600092613416575b50508160011b916000199060031b1c19161760028401555b61012c4201804211610d3057600a8401556040516020810190428252446040820152856060820152606081526131ff81614102565b5190209160025461320f81614352565b9160009360005b8381106133a457505050506005821060001461339c5760ff8216915b60ff8316801580158581613390575b5061337c575b505061325860ff8497969716614352565b9361326282614352565b9260005b83811061335b57505060005b60ff851681106133245787878760ff815116600984019060ff19825416179055600460009301925b815160ff8216908110156132d5576132d09190611431906001600160a01b03906132c490866143af565b5116611cdd8388614d86565b61329a565b8360008051602061520b833981519152611def8560405191829133867f84a477df8a28a4276ca6dee4458a06c3015f30c477d9c949ede4e13ff8a552b4600080a3602083526020830190614d96565b61335160ff91611e37611e3160409b9a9b51602081019087825284604082015260408152611e1e81614138565b9050969596613272565b969796613374906001600160a01b03611eb682856143af565b979697613266565b90919350610d305760001901918680613247565b60019150161589613241565b600591613232565b6133ad8161515d565b905460039190911b1c6001600160a01b0316838114158061340c575b806133fd575b6133e3575b506133de90614384565b613216565b866133f691611e936133de9499896143af565b95906133d4565b506134078161513d565b6133cf565b50828114156133c9565b0151905086806131b2565b600287016000908152602081209350601f198516905b818110613476575090846001959493921061345d575b505050811b0160028401556131ca565b015160001960f88460031b161c1916905586808061344d565b92936020600181928786015181550195019301613437565b909150600286016000526020600020601f840160051c8101602085106134da575b90849392915b601f830160051c820181106134cb57505061319b565b600081558594506001016134b5565b50806134af565b60405162461bcd60e51b8152602060048201526016602482015275111a5cdc1d5d1948185b1c9958591e481c985a5cd95960521b6044820152606490fd5b60405162461bcd60e51b8152602060048201526019602482015278496e76616c696420737461746520666f72206469737075746560381b6044820152606490fd5b600391501487613116565b5060018101546001600160a01b031633146130ee565b3461024d57602036600319011261024d576004356000908152600560205260409020805460018201546001600160a01b03169160ff6135c260028301614191565b6135ce60038401614191565b9282613613600983015495613605600b600a860154950154956040519a8b9a8b5260208b01526101408060408c01528a0190614088565b9088820360608a0152614088565b948181166080880152818160081c1660a088015260101c1660c086015260e0850152818116151561010085015260081c1615156101208301520390f35b3461024d57602036600319011261024d576001600160a01b03613671614028565b166000526000602052602060ff60406000205416604051908152f35b3461024d57600036600319011261024d57602060405160788152f35b3461024d57600036600319011261024d576020600a54604051908152f35b3461024d57602036600319011261024d576001600160a01b036136e8614028565b16600052600d6020526020604060002054604051908152f35b3461024d57600036600319011261024d57602060405161012c8152f35b3461024d57604036600319011261024d5761373761403e565b600435600052600660205260406000209060018060a01b0316600052602052602060ff604060002054166040519015158152f35b3461024d57602036600319011261024d57602061378e613789614028565b61513d565b6040519015158152f35b3461024d57600036600319011261024d57602060405160008152f35b3461024d57604036600319011261024d576001600160a01b036137d5614028565b16600052600960205260406000206024356000526020526020604060002054604051908152f35b3461024d57602036600319011261024d57600435600052600c602052604060002060018060a01b0390612107828254169160ff613840600260018401549301614191565b9160405195869586528116602086015260a01c166040840152608060608401526080830190614088565b3461024d57600036600319011261024d57602060405160058152f35b3461024d57602036600319011261024d576001600160a01b036138a7614028565b16600052600e6020526020604060002054604051908152f35b3461024d57600036600319011261024d5733600052600460205260ff604060002054166003811015610486576138f690156142fa565b3360005260046020526040600020600260ff19825416179055612c2733614ea7565b3461024d57602036600319011261024d576110fe6004356148c9565b3461024d57602036600319011261024d57600435600052600b602052604060002060018060a01b03908181541691600182015416906002810154906003810154916139f860048301546139ea600585015461399160068701614191565b9061399e60078801614191565b9360088801549860098901549760ff600b600a8c01549b0154169b60206040519e8f908152015260408d015260608c015260808b015260a08a01526101808060c08b0152890190614088565b9087820360e0890152614088565b9261010086015261012085015261014084015260098210156104865782916101608301520390f35b3461024d5760208060031936011261024d5760a0604051613a408161411d565b36903760043560005260058082526004604060002001916040519283826000915b858310613aa95750505050613a758361411d565b60405192600090845b848310613a8a5760a086f35b81516001600160a01b0316815260019290920191908301908301613a7e565b83546001600160a01b031681526001938401939290920191849101613a61565b3461024d57604036600319011261024d5760248035801515906004359082810361024d5781600052602090600b825260ff80600b60406000200154166009811015613d73576007613b1a9114614dd3565b8360005260058352604060002091600a8301548015613d3b57613b4383600b8601541615614d36565b421015613d0157846000526006845260406000203360005284528160406000205416613ccd576000809360098101946004858754169201905b8286821610613c8f575b50505015613c5457847ff2913dbe661ee2acc4a046d8fbcdc792373bda34c41c6086484b5345e5785e5f95969750600052600684526040600020336000528452604060002060ff199060018282541617905586600052600785526040600020336000528552604060002090815416838916179055600014613c2d5761ff00613c148354928360081c16614d75565b60081b169061ff0019161790555b6040519384523393a3005b62ff0000613c418354928360101c16614d75565b60101b169062ff00001916179055613c22565b60405162461bcd60e51b815260048101859052601481890152732737ba10309039b2b632b1ba32b2103b37ba32b960611b6044820152606490fd5b613c998183614d86565b905460039190911b1c6001600160a01b03163314613cbf57613cba90614d75565b613b7c565b505050506001888080613b86565b60405162461bcd60e51b815260048101859052600d818901526c105b1c9958591e481d9bdd1959609a1b6044820152606490fd5b60405162461bcd60e51b81526004810185905260138189015272159bdd1a5b99c81c195c9a5bd908195b991959606a1b6044820152606490fd5b60405162461bcd60e51b8152600481018690526011818a0152704e6f20646973707574652065786973747360781b6044820152606490fd5b86634e487b7160e01b60005260216004526000fd5b3461024d57602036600319011261024d57600435600052600b6020526040600020613dc060018060a01b0360018301541633146143fc565b600b810190815460ff811691600983101561048657612ff3613df991613dea600260039614614485565b60058582015491015490614435565b60ff1916179055005b3461024d5760208060031936011261024d576001600160a01b03613e24614028565b16600052600881526040600020805490613e3d8261433b565b91613e4b604051938461416e565b808352613e578161433b565b90848401601f19809301368237613e6d82614352565b613e7683614352565b92613e808161433b565b95613e8e604051978861416e565b81875285613e9b8361433b565b0160005b81811061401957505060005b828110613f8057505050604051956080870190608088525180915260a08701929060005b818110613f595750505081613eee9187613efc95940389890152614054565b908582036040870152614054565b93838503606085015282519081865280860181808460051b8901019501936000975b848910613f2b5787870388f35b9091929394958480613f47838686600196030188528a51614088565b98019401980197919094939294613f1e565b909193849996995190600d8210156104865790815295989589019389019190600101613ecf565b60ff613f8f82849c999c614393565b50541690613f9d818b6143af565b91600d8110156104865761401192526001613fb88285614393565b500154613fc582876143af565b526002613fd28285614393565b500154613fdf82896143af565b52613ff66003613fef8386614393565b5001614191565b614000828b6143af565b5261400b818a6143af565b50614384565b989598613eab565b60608982018c01528a01613e9f565b600435906001600160a01b038216820361024d57565b602435906001600160a01b038216820361024d57565b90815180825260208080930193019160005b828110614074575050505090565b835185529381019392810192600101614066565b919082519283825260005b8481106140b4575050826000602080949584010152601f8019910116010190565b602081830181015184830182015201614093565b90600182811c921680156140f8575b60208310146140e257565b634e487b7160e01b600052602260045260246000fd5b91607f16916140d7565b608081019081106001600160401b038211176103fe57604052565b60a081019081106001600160401b038211176103fe57604052565b606081019081106001600160401b038211176103fe57604052565b604081019081106001600160401b038211176103fe57604052565b601f909101601f19168101906001600160401b038211908210176103fe57604052565b90604051918260008254926141a5846140c8565b90818452600194858116908160001461421457506001146141d1575b50506141cf9250038361416e565b565b9093915060005260209081600020936000915b8183106141fc5750506141cf935082010138806141c1565b855488840185015294850194879450918301916141e4565b9150506141cf94506020925060ff191682840152151560051b82010138806141c1565b3461024d57600036600319011261024d57602060405160648152f35b6001600160401b0381116103fe57601f01601f191660200190565b81601f8201121561024d5780359061428582614253565b92614293604051948561416e565b8284526020838301011161024d57816000926020809301838601378301015290565b90604060031983011261024d5760043591602435906001600160401b03821161024d576142e49160040161426e565b90565b9190602083019260038210156104865752565b1561430157565b60405162461bcd60e51b8152602060048201526012602482015271105b1c9958591e481c9959da5cdd195c995960721b6044820152606490fd5b6001600160401b0381116103fe5760051b60200190565b9061435c8261433b565b614369604051918261416e565b828152809261437a601f199161433b565b0190602036910137565b6000198114610d305760010190565b8054821015611fc65760005260206000209060021b0190600090565b8051821015611fc65760209160051b010190565b156143ca57565b60405162461bcd60e51b815260206004820152600a602482015269139bdd0818db1a595b9d60b21b6044820152606490fd5b1561440357565b60405162461bcd60e51b815260206004820152600a6024820152692737ba103bb7b935b2b960b11b6044820152606490fd5b91908201809211610d3057565b1561444957565b60405162461bcd60e51b815260206004820152601460248201527314dd185c9d081dda5b991bddc8195e1c1a5c995960621b6044820152606490fd5b1561448c57565b60405162461bcd60e51b815260206004820152600c60248201526b139bdd081858d8d95c1d195960a21b6044820152606490fd5b156144c757565b60405162461bcd60e51b8152602060048201526009602482015268546f6f206561726c7960b81b6044820152606490fd5b3d15614523573d9061450982614253565b91614517604051938461416e565b82523d6000602084013e565b606090565b1561452f57565b60405162461bcd60e51b815260206004820152600d60248201526c1499599d5b990819985a5b1959609a1b6044820152606490fd5b60409182519261457384614138565b602384526020927f43616e63656c6c6564206a6f6220616674657220776f726b657220616363657084860152621d195960ea1b8286015260018060a01b0316936000858152600885528281209183516145cb81614102565b6008815286810186815285820190428252606083019384528554600160401b8110156147cb57614602906001978882018155614393565b9390936147b75751600d8110156147a357835460ff191660ff91909116178355518583015551600282015590518051600390920191906001600160401b03821161478f57819061465284546140c8565b601f811161473f575b508890601f83116001146146e05785926146d5575b5050600019600383901b1c191690841b1790555b858152600985528281206008825285528281209081549283018093116146c1575055519081526008929160008051602061522b83398151915291a3565b634e487b7160e01b81526011600452602490fd5b015190503880614670565b8486528986208794509190601f198416875b8c8282106147295750508411614710575b505050811b019055614684565b015160001960f88460031b161c19169055388080614703565b8385015186558a979095019493840193016146f2565b909150838552888520601f840160051c8101918a8510614785575b84939291601f89920160051c01915b82811061477757505061465b565b878155859450889101614769565b909150819061475a565b634e487b7160e01b84526041600452602484fd5b634e487b7160e01b86526021600452602486fd5b634e487b7160e01b86526004869052602486fd5b634e487b7160e01b86526041600452602486fd5b6040516147eb81614138565b602581527f4163636570746564206f7220696e2d70726f6772657373206a6f62206162616e602082015264191bdb995960da1b604082015290565b1561482d57565b60405162461bcd60e51b815260206004820152600d60248201526c139bdd081cdd589b5a5d1d1959609a1b6044820152606490fd5b6040519061486f82614153565b600d82526c1a9bd897d8dbdb5c1b195d1959609a1b6020830152565b1561489257565b60405162461bcd60e51b815260206004820152600f60248201526e151c985b9cd9995c8819985a5b1959608a1b6044820152606490fd5b90600091808352602091600b835260409182852060018060a01b0390818154166148f48133146143c3565b600b8201805460099260ff82169184831015614c67576001809314614c7b57505081549160ff831684811015614c675760021461496d57885162461bcd60e51b8152600481018b9052601b60248201527a43616e6e6f742063616e63656c206174207468697320737461676560281b6044820152606490fd5b600660ff9a9496989a99939597991980961617905586865416936149918986614564565b848b52858452828b2060088c5284526005838c205410156149d9575b5050505050506149d28580806141cf9798868654166002870154905af16110f86144f8565b5416614564565b848b52858452828b20868c528452828b20546149ad578251906149fb82614153565b601c82527b233630b3b3b2b21030b9903837ba32b73a34b0b61039b1b0b6b6b2b960211b85830152858c5260088552838c208c855192614a3a84614102565b898452878401918252428785019081526060850195865283549093600160401b821015614c515790614a70918882018155614393565b949094614c3c575190600d821015614c2757845460ff9092169116178355518483015551600282015590518051600390920191906001600160401b038211614c13578c8291614abf85546140c8565b88601f8211614bbb575b50508791601f8411600114614b5c5792614b51575b5050600019600383901b1c191690831b1790555b838a52848352818a20858b528352818a208054918201809211614b3d57926141cf999a949260008051602061522b833981519152926149d297955551858152a39594388080806149ad565b634e487b7160e01b8b52601160045260248bfd5b015190503880614ade565b9190869450601f198416868452898420935b8a828210614ba55750508411614b8c575b505050811b019055614af2565b015160001960f88460031b161c19169055388080614b7f565b8385015186558997909501949384019301614b6e565b9193509185815220601f840160051c810191888510614c09575b918f92859492601f89920160051c01915b828110614bf557505088614ac9565b809294919395505501918e91868594614be6565b9091508190614bd5565b634e487b7160e01b8d52604160045260248dfd5b50634e487b7160e01b8f52602160045260248ffd5b50634e487b7160e01b8f5260048f905260248ffd5b5050634e487b7160e01b8f52604160045260248ffd5b634e487b7160e01b8c52602160045260248cfd5b6141cf9a508b995089989b9750879650600294506006919593925060ff19161790550154905af16110f86144f8565b6001600160a01b03166000908152600e6020526040812054156142e457600d6020526040812054600e6020526040822054918215614ce757500490565b634e487b7160e01b81526012600452602490fd5b15614d0257565b60405162461bcd60e51b815260206004820152600c60248201526b139bdd081a5b9d9bdb1d995960a21b6044820152606490fd5b15614d3d57565b60405162461bcd60e51b815260206004820152601060248201526f105b1c9958591e481c995cdbdb1d995960821b6044820152606490fd5b60ff1660ff8114610d305760010190565b6005821015611fc6570190600090565b90815180825260208080930193019160005b828110614db6575050505090565b83516001600160a01b031685529381019392810192600101614da8565b15614dda57565b60405162461bcd60e51b815260206004820152600c60248201526b139bdd08191a5cdc1d5d195960a21b6044820152606490fd5b15614e1557565b60405162461bcd60e51b815260206004820152600a6024820152694e6f206469737075746560b01b6044820152606490fd5b60ff166002019060ff8211610d3057565b60405190614e6582614153565b600c82526b6c6f73745f6469737075746560a01b6020830152565b60405190614e8d82614153565b600b82526a776f6e5f6469737075746560a81b6020830152565b6001600160a01b031660008181526001602052604081205460ff16614f165780827f5d95448edae7bcc3f04ceed898bf2926c2e56c8de7c6a57d3b90539b1ff037a69252806020526040812060ff199060648282541617905560016020526001604083209182541617905580a2565b60405162461bcd60e51b8152602060048201526013602482015272105b1c9958591e481a5b9a5d1a585b1a5e9959606a1b6044820152606490fd5b60ff6142e49493816060941683521660208201528160408201520190614088565b6001600160a01b03166000818152602081905260408120549192909160ff16906005820161ffff8082116150275760649082161115614fed575090614fe860008051602061524b833981519152939260406064945b878152806020522060ff851660ff1982541617905560405193849384614f51565b0390a2565b60ff81116150135760008051602061524b8339815191529392916040614fe89294614fc7565b634e487b7160e01b84526011600452602484fd5b634e487b7160e01b85526011600452602485fd5b6001600160a01b03166000818152602081905260408120549192909160ff1690600a820161ffff8082116150275760649082161115614fed575090614fe860008051602061524b83398151915293926040606494878152806020522060ff851660ff1982541617905560405193849384614f51565b6001600160a01b03166000818152602081905260408120549192909160ff1690600a82116151125790614fe88392604060008051602061524b8339815191529594878152806020522060ff851660ff1982541617905560405193849384614f51565b600919820160ff81116150135760008051602061524b8339815191529392916040614fe89294614fc7565b60018060a01b03166000526000602052606460ff60406000205416101590565b600254811015611fc657600260005260206000200190600090565b6001600160a01b03811660008181526003602052604081205490929060ff16156151a157505050565b600254600160401b81101561478f576040939291611cdd8260016151c8940160025561515d565b8152600360205220805460ff19166001179055565b91908203918211610d3057565b81156151f4570690565b634e487b7160e01b600052601260045260246000fdfeaaf49c3b93c6f3a66b3ad89750cfdbb3fe0be786559ef1298f6e6cb977566337d4df0cb969b99d25f121a3e9c7f32d8fcc5a0d782408695f68de9493db8cc177bbf5ee5eee34326c6c2d38c9b7ceeb7a8e3ee460657a93dd17fac3e82b141d57a2646970667358221220576d6790a801cbb9a86413998c960d1c0ccf1c26c579abdf85653433aefc034a64736f6c63430008140033","opcodes":"PUSH1 0x80 DUP1 PUSH1 0x40 MSTORE CALLVALUE PUSH2 0x16 JUMPI PUSH2 0x52A0 SWAP1 DUP2 PUSH2 0x1C DUP3 CODECOPY RETURN JUMPDEST PUSH1 0x0 DUP1 REVERT INVALID PUSH1 0x80 PUSH1 0x40 MSTORE PUSH1 0x4 CALLDATASIZE LT ISZERO PUSH2 0x12 JUMPI PUSH1 0x0 DUP1 REVERT JUMPDEST PUSH1 0x0 CALLDATALOAD PUSH1 0xE0 SHR DUP1 PUSH4 0x3828E45 EQ PUSH2 0x3E02 JUMPI DUP1 PUSH4 0x3A250F9 EQ PUSH2 0x3D88 JUMPI DUP1 PUSH4 0x15373E3D EQ PUSH2 0x3AC9 JUMPI DUP1 PUSH4 0x1732D652 EQ PUSH2 0x3A20 JUMPI DUP1 PUSH4 0x180AEDF3 EQ PUSH2 0x3934 JUMPI DUP1 PUSH4 0x1DFFA3DC EQ PUSH2 0x3918 JUMPI DUP1 PUSH4 0x208082BF EQ PUSH2 0x38C0 JUMPI DUP1 PUSH4 0x2404165E EQ PUSH2 0x3886 JUMPI DUP1 PUSH4 0x247BC4A7 EQ PUSH2 0x20C0 JUMPI DUP1 PUSH4 0x2488B2EE EQ PUSH2 0x386A JUMPI DUP1 PUSH4 0x27FF6223 EQ PUSH2 0x20C0 JUMPI DUP1 PUSH4 0x2BB8B0DC EQ PUSH2 0x37FC JUMPI DUP1 PUSH4 0x2D592865 EQ PUSH2 0x37B4 JUMPI DUP1 PUSH4 0x40B89270 EQ PUSH2 0x3798 JUMPI DUP1 PUSH4 0x4225E7F4 EQ PUSH2 0x376B JUMPI DUP1 PUSH4 0x43859632 EQ PUSH2 0x371E JUMPI DUP1 PUSH4 0x4654FF05 EQ PUSH2 0x3701 JUMPI DUP1 PUSH4 0x4807632F EQ PUSH2 0x36C7 JUMPI DUP1 PUSH4 0x4C5D8A0F EQ PUSH2 0x36A9 JUMPI DUP1 PUSH4 0x4F0DB622 EQ PUSH2 0x368D JUMPI DUP1 PUSH4 0x50D061CB EQ PUSH2 0x3650 JUMPI DUP1 PUSH4 0x564A565D EQ PUSH2 0x3581 JUMPI DUP1 PUSH4 0x5AEF573C EQ PUSH2 0x30BC JUMPI DUP1 PUSH4 0x63B2F3C9 EQ PUSH2 0x2F54 JUMPI DUP1 PUSH4 0x66C910C8 EQ PUSH2 0x2C79 JUMPI DUP1 PUSH4 0x69C04C44 EQ PUSH2 0x2C30 JUMPI DUP1 PUSH4 0x6D9FB287 EQ PUSH2 0x2BCF JUMPI DUP1 PUSH4 0x6E3B47FC EQ PUSH2 0x2B9D JUMPI DUP1 PUSH4 0x771DD581 EQ PUSH2 0x22A9 JUMPI DUP1 PUSH4 0x80FC9C0E EQ PUSH2 0x227E JUMPI DUP1 PUSH4 0x8721BA3F EQ PUSH2 0x222C JUMPI DUP1 PUSH4 0x8D22B863 EQ PUSH2 0x210B JUMPI DUP1 PUSH4 0x99374642 EQ PUSH2 0x20C5 JUMPI DUP1 PUSH4 0x9EC0164A EQ PUSH2 0x20C0 JUMPI DUP1 PUSH4 0xADCD5843 EQ PUSH2 0x1ABA JUMPI DUP1 PUSH4 0xB2C2F2E8 EQ PUSH2 0x1A7C JUMPI DUP1 PUSH4 0xC2B7B868 EQ PUSH2 0x11E6 JUMPI DUP1 PUSH4 0xC5F8E299 EQ PUSH2 0xE48 JUMPI DUP1 PUSH4 0xCA62FAFD EQ PUSH2 0xAF0 JUMPI DUP1 PUSH4 0xCBF78EE6 EQ PUSH2 0x70A JUMPI DUP1 PUSH4 0xD0D24142 EQ PUSH2 0x49C JUMPI DUP1 PUSH4 0xDA8ACCF9 EQ PUSH2 0x26E JUMPI DUP1 PUSH4 0xE72F73A8 EQ PUSH2 0x252 JUMPI PUSH4 0xFB468855 EQ PUSH2 0x200 JUMPI PUSH1 0x0 DUP1 REVERT JUMPDEST CALLVALUE PUSH2 0x24D JUMPI PUSH1 0x40 CALLDATASIZE PUSH1 0x3 NOT ADD SLT PUSH2 0x24D JUMPI PUSH2 0x219 PUSH2 0x403E JUMP JUMPDEST PUSH1 0x4 CALLDATALOAD PUSH1 0x0 MSTORE PUSH1 0x7 PUSH1 0x20 MSTORE PUSH1 0x40 PUSH1 0x0 KECCAK256 SWAP1 PUSH1 0x1 DUP1 PUSH1 0xA0 SHL SUB AND PUSH1 0x0 MSTORE PUSH1 0x20 MSTORE PUSH1 0x20 PUSH1 0xFF PUSH1 0x40 PUSH1 0x0 KECCAK256 SLOAD AND PUSH1 0x40 MLOAD SWAP1 ISZERO ISZERO DUP2 MSTORE RETURN JUMPDEST PUSH1 0x0 DUP1 REVERT JUMPDEST CALLVALUE PUSH2 0x24D JUMPI PUSH1 0x0 CALLDATASIZE PUSH1 0x3 NOT ADD SLT PUSH2 0x24D JUMPI PUSH1 0x20 PUSH1 0x40 MLOAD PUSH1 0x3 DUP2 MSTORE RETURN JUMPDEST CALLVALUE PUSH2 0x24D JUMPI PUSH2 0x27C CALLDATASIZE PUSH2 0x42B5 JUMP JUMPDEST SWAP1 PUSH1 0x0 MSTORE PUSH1 0x20 PUSH1 0xB DUP2 MSTORE PUSH1 0x40 PUSH1 0x0 KECCAK256 SWAP1 PUSH1 0x1 PUSH2 0x2A4 PUSH1 0x1 DUP1 PUSH1 0xA0 SHL SUB DUP3 DUP6 ADD SLOAD AND CALLER EQ PUSH2 0x43FC JUMP JUMPDEST PUSH1 0xB DUP4 ADD SWAP4 PUSH1 0xFF DUP6 SLOAD AND PUSH1 0x9 DUP2 LT ISZERO PUSH2 0x486 JUMPI PUSH1 0x3 SUB PUSH2 0x451 JUMPI PUSH2 0x2D1 PUSH1 0x4 DUP6 ADD SLOAD PUSH1 0x5 DUP7 ADD SLOAD SWAP1 PUSH2 0x4435 JUMP JUMPDEST TIMESTAMP GT PUSH2 0x414 JUMPI DUP1 MLOAD PUSH1 0x7 DUP6 ADD SWAP4 SWAP1 SWAP2 PUSH1 0x1 PUSH1 0x1 PUSH1 0x40 SHL SUB DUP4 GT PUSH2 0x3FE JUMPI PUSH2 0x2F8 DUP6 SLOAD PUSH2 0x40C8 JUMP JUMPDEST PUSH1 0x1F DUP2 GT PUSH2 0x3B5 JUMPI JUMPDEST POP DUP2 PUSH1 0x1F DUP5 GT PUSH1 0x1 EQ PUSH2 0x34F JUMPI POP SWAP3 DUP3 SWAP4 SWAP2 DUP4 SWAP3 PUSH1 0x0 SWAP5 PUSH2 0x344 JUMPI JUMPDEST POP POP SHL SWAP2 PUSH1 0x0 NOT SWAP1 PUSH1 0x3 SHL SHR NOT AND OR SWAP1 SSTORE JUMPDEST TIMESTAMP PUSH1 0xA SWAP2 SWAP1 SWAP2 ADD SSTORE DUP1 SLOAD PUSH1 0xFF NOT AND PUSH1 0x4 OR SWAP1 SSTORE STOP JUMPDEST ADD MLOAD SWAP3 POP DUP8 DUP1 PUSH2 0x31D JUMP JUMPDEST SWAP2 SWAP1 DUP4 PUSH1 0x1F NOT DUP2 AND DUP8 PUSH1 0x0 MSTORE DUP5 PUSH1 0x0 KECCAK256 SWAP5 PUSH1 0x0 SWAP1 JUMPDEST DUP9 DUP4 DUP4 LT PUSH2 0x39B JUMPI POP POP POP LT PUSH2 0x382 JUMPI JUMPDEST POP POP POP DUP2 SHL ADD SWAP1 SSTORE PUSH2 0x32F JUMP JUMPDEST ADD MLOAD PUSH1 0x0 NOT PUSH1 0xF8 DUP5 PUSH1 0x3 SHL AND SHR NOT AND SWAP1 SSTORE DUP6 DUP1 DUP1 PUSH2 0x375 JUMP JUMPDEST DUP6 DUP8 ADD MLOAD DUP9 SSTORE SWAP1 SWAP7 ADD SWAP6 SWAP5 DUP6 ADD SWAP5 DUP8 SWAP4 POP SWAP1 DUP2 ADD SWAP1 PUSH2 0x364 JUMP JUMPDEST DUP6 PUSH1 0x0 MSTORE DUP3 PUSH1 0x0 KECCAK256 PUSH1 0x1F DUP6 ADD PUSH1 0x5 SHR DUP2 ADD SWAP2 DUP5 DUP7 LT PUSH2 0x3F4 JUMPI JUMPDEST PUSH1 0x1F ADD PUSH1 0x5 SHR ADD SWAP1 DUP6 SWAP1 JUMPDEST DUP3 DUP2 LT PUSH2 0x3E8 JUMPI POP POP PUSH2 0x301 JUMP JUMPDEST PUSH1 0x0 DUP2 SSTORE ADD DUP6 SWAP1 PUSH2 0x3DA JUMP JUMPDEST SWAP1 SWAP2 POP DUP2 SWAP1 PUSH2 0x3CF JUMP JUMPDEST PUSH4 0x4E487B71 PUSH1 0xE0 SHL PUSH1 0x0 MSTORE PUSH1 0x41 PUSH1 0x4 MSTORE PUSH1 0x24 PUSH1 0x0 REVERT JUMPDEST PUSH1 0x40 MLOAD PUSH3 0x461BCD PUSH1 0xE5 SHL DUP2 MSTORE PUSH1 0x4 DUP2 ADD DUP5 SWAP1 MSTORE PUSH1 0x15 PUSH1 0x24 DUP3 ADD MSTORE PUSH21 0x14DD589B5A5D081DDA5B991BDDC8195E1C1A5C9959 PUSH1 0x5A SHL PUSH1 0x44 DUP3 ADD MSTORE PUSH1 0x64 SWAP1 REVERT JUMPDEST PUSH1 0x40 MLOAD PUSH3 0x461BCD PUSH1 0xE5 SHL DUP2 MSTORE PUSH1 0x4 DUP2 ADD DUP5 SWAP1 MSTORE PUSH1 0xD PUSH1 0x24 DUP3 ADD MSTORE PUSH13 0x496E76616C6964207374617465 PUSH1 0x98 SHL PUSH1 0x44 DUP3 ADD MSTORE PUSH1 0x64 SWAP1 REVERT JUMPDEST PUSH4 0x4E487B71 PUSH1 0xE0 SHL PUSH1 0x0 MSTORE PUSH1 0x21 PUSH1 0x4 MSTORE PUSH1 0x24 PUSH1 0x0 REVERT JUMPDEST CALLVALUE PUSH2 0x24D JUMPI PUSH2 0x4AA CALLDATASIZE PUSH2 0x42B5 JUMP JUMPDEST DUP2 PUSH1 0x0 MSTORE PUSH1 0x20 SWAP1 PUSH1 0xB DUP3 MSTORE PUSH1 0x40 PUSH1 0x0 KECCAK256 SWAP1 PUSH1 0xFF PUSH1 0xB PUSH1 0x1 DUP1 PUSH1 0xA0 SHL SUB SWAP4 DUP5 DUP2 SLOAD AND CALLER EQ DUP1 ISZERO PUSH2 0x6FB JUMPI JUMPDEST PUSH2 0x4DD SWAP1 PUSH2 0x4CFB JUMP JUMPDEST ADD SLOAD AND PUSH1 0x9 DUP2 LT ISZERO PUSH2 0x486 JUMPI PUSH1 0x7 PUSH2 0x4F5 SWAP2 EQ PUSH2 0x4DD3 JUMP JUMPDEST DUP4 PUSH1 0x0 MSTORE PUSH1 0x5 DUP4 MSTORE PUSH1 0x40 PUSH1 0x0 KECCAK256 PUSH1 0x1 SWAP3 DUP4 DUP3 ADD SLOAD AND PUSH2 0x519 PUSH1 0xA DUP4 ADD SLOAD ISZERO ISZERO PUSH2 0x4E0E JUMP JUMPDEST PUSH2 0x52A PUSH1 0xFF PUSH1 0xB DUP5 ADD SLOAD AND ISZERO PUSH2 0x4D36 JUMP JUMPDEST CALLER EQ PUSH2 0x6B9 JUMPI PUSH1 0x3 ADD SWAP3 DUP4 SLOAD SWAP2 PUSH2 0x540 DUP4 PUSH2 0x40C8 JUMP JUMPDEST PUSH2 0x678 JUMPI DUP1 MLOAD SWAP3 PUSH1 0x1 PUSH1 0x1 PUSH1 0x40 SHL SUB DUP5 GT PUSH2 0x3FE JUMPI PUSH2 0x55E SWAP1 PUSH2 0x40C8 JUMP JUMPDEST PUSH1 0x1F DUP2 GT PUSH2 0x62F JUMPI JUMPDEST POP DUP2 PUSH1 0x1F DUP5 GT PUSH1 0x1 EQ PUSH2 0x5C9 JUMPI POP SWAP3 DUP3 SWAP4 SWAP2 DUP4 SWAP3 PUSH1 0x0 SWAP5 PUSH2 0x5BE JUMPI JUMPDEST POP POP SHL SWAP2 PUSH1 0x0 NOT SWAP1 PUSH1 0x3 SHL SHR NOT AND OR SWAP1 SSTORE JUMPDEST CALLER SWAP1 PUSH32 0x7878F55C48613E960719430C5332344CEFC8C552F6AFC747476FF85169F618FE PUSH1 0x0 DUP1 LOG3 STOP JUMPDEST ADD MLOAD SWAP3 POP DUP7 DUP1 PUSH2 0x583 JUMP JUMPDEST SWAP2 SWAP1 DUP4 PUSH1 0x1F NOT DUP2 AND DUP8 PUSH1 0x0 MSTORE DUP5 PUSH1 0x0 KECCAK256 SWAP5 PUSH1 0x0 SWAP1 JUMPDEST DUP9 DUP4 DUP4 LT PUSH2 0x615 JUMPI POP POP POP LT PUSH2 0x5FC JUMPI JUMPDEST POP POP POP DUP2 SHL ADD SWAP1 SSTORE PUSH2 0x595 JUMP JUMPDEST ADD MLOAD PUSH1 0x0 NOT PUSH1 0xF8 DUP5 PUSH1 0x3 SHL AND SHR NOT AND SWAP1 SSTORE DUP5 DUP1 DUP1 PUSH2 0x5EF JUMP JUMPDEST DUP6 DUP8 ADD MLOAD DUP9 SSTORE SWAP1 SWAP7 ADD SWAP6 SWAP5 DUP6 ADD SWAP5 DUP8 SWAP4 POP SWAP1 DUP2 ADD SWAP1 PUSH2 0x5DE JUMP JUMPDEST DUP6 PUSH1 0x0 MSTORE DUP3 PUSH1 0x0 KECCAK256 PUSH1 0x1F DUP6 ADD PUSH1 0x5 SHR DUP2 ADD SWAP2 DUP5 DUP7 LT PUSH2 0x66E JUMPI JUMPDEST PUSH1 0x1F ADD PUSH1 0x5 SHR ADD SWAP1 DUP6 SWAP1 JUMPDEST DUP3 DUP2 LT PUSH2 0x662 JUMPI POP POP PUSH2 0x567 JUMP JUMPDEST PUSH1 0x0 DUP2 SSTORE ADD DUP6 SWAP1 PUSH2 0x654 JUMP JUMPDEST SWAP1 SWAP2 POP DUP2 SWAP1 PUSH2 0x649 JUMP JUMPDEST PUSH1 0x40 MLOAD PUSH3 0x461BCD PUSH1 0xE5 SHL DUP2 MSTORE PUSH1 0x4 DUP2 ADD DUP4 SWAP1 MSTORE PUSH1 0x19 PUSH1 0x24 DUP3 ADD MSTORE PUSH25 0x10DBDD5B9D195C88185B1C9958591E481CDD589B5A5D1D1959 PUSH1 0x3A SHL PUSH1 0x44 DUP3 ADD MSTORE PUSH1 0x64 SWAP1 REVERT JUMPDEST PUSH1 0x40 MLOAD PUSH3 0x461BCD PUSH1 0xE5 SHL DUP2 MSTORE PUSH1 0x4 DUP2 ADD DUP6 SWAP1 MSTORE PUSH1 0x1A PUSH1 0x24 DUP3 ADD MSTORE PUSH26 0x43616E6E6F7420636F756E746572206F776E2064697370757465 PUSH1 0x30 SHL PUSH1 0x44 DUP3 ADD MSTORE PUSH1 0x64 SWAP1 REVERT JUMPDEST POP PUSH1 0x1 DUP2 ADD SLOAD DUP6 AND CALLER EQ PUSH2 0x4D4 JUMP JUMPDEST CALLVALUE PUSH2 0x24D JUMPI PUSH1 0xA0 CALLDATASIZE PUSH1 0x3 NOT ADD SLT PUSH2 0x24D JUMPI PUSH1 0x4 CALLDATALOAD PUSH1 0x1 PUSH1 0x1 PUSH1 0x40 SHL SUB DUP2 GT PUSH2 0x24D JUMPI PUSH2 0x73A SWAP1 CALLDATASIZE SWAP1 PUSH1 0x4 ADD PUSH2 0x426E JUMP JUMPDEST CALLER PUSH1 0x0 MSTORE PUSH1 0x4 PUSH1 0x20 MSTORE PUSH1 0xFF PUSH1 0x40 PUSH1 0x0 KECCAK256 SLOAD AND PUSH1 0x3 DUP2 LT ISZERO PUSH2 0x486 JUMPI PUSH1 0x1 PUSH2 0x761 SWAP2 EQ PUSH2 0x43C3 JUMP JUMPDEST PUSH1 0x40 MLOAD SWAP1 PUSH2 0x180 DUP3 ADD PUSH1 0x1 PUSH1 0x1 PUSH1 0x40 SHL SUB DUP2 GT DUP4 DUP3 LT OR PUSH2 0x3FE JUMPI PUSH1 0x40 MSTORE CALLER DUP3 MSTORE PUSH1 0x0 PUSH1 0x20 DUP4 ADD MSTORE PUSH1 0x24 CALLDATALOAD PUSH1 0x40 DUP4 ADD MSTORE PUSH1 0x44 CALLDATALOAD PUSH1 0x60 DUP4 ADD MSTORE PUSH1 0x64 CALLDATALOAD PUSH1 0x80 DUP4 ADD MSTORE PUSH1 0x84 CALLDATALOAD PUSH1 0xA0 DUP4 ADD MSTORE PUSH1 0xC0 DUP3 ADD MSTORE PUSH1 0x40 MLOAD PUSH1 0x20 DUP2 ADD DUP2 DUP2 LT PUSH1 0x1 DUP1 PUSH1 0x40 SHL SUB DUP3 GT OR PUSH2 0x3FE JUMPI PUSH1 0x40 MSTORE PUSH1 0x0 DUP2 MSTORE PUSH1 0xE0 DUP3 ADD MSTORE PUSH1 0x0 PUSH2 0x100 DUP3 ADD MSTORE PUSH1 0x0 PUSH2 0x120 DUP3 ADD MSTORE PUSH1 0x0 PUSH2 0x140 DUP3 ADD MSTORE PUSH1 0x0 PUSH2 0x160 DUP3 ADD MSTORE PUSH1 0xA SLOAD PUSH1 0x0 MSTORE PUSH1 0xB PUSH1 0x20 MSTORE PUSH1 0x40 PUSH1 0x0 KECCAK256 SWAP1 PUSH1 0x1 DUP1 PUSH1 0xA0 SHL SUB DUP1 DUP3 MLOAD AND PUSH1 0x1 DUP1 PUSH1 0xA0 SHL SUB NOT SWAP1 DUP2 DUP6 SLOAD AND OR DUP5 SSTORE PUSH1 0x1 DUP5 ADD SWAP2 PUSH1 0x20 DUP5 ADD MLOAD AND SWAP1 DUP3 SLOAD AND OR SWAP1 SSTORE PUSH1 0x40 DUP2 ADD MLOAD PUSH1 0x2 DUP4 ADD SSTORE PUSH1 0x60 DUP2 ADD MLOAD PUSH1 0x3 DUP4 ADD SSTORE PUSH1 0x80 DUP2 ADD MLOAD PUSH1 0x4 DUP4 ADD SSTORE PUSH1 0xA0 DUP2 ADD MLOAD PUSH1 0x5 DUP4 ADD SSTORE PUSH1 0xC0 DUP2 ADD MLOAD SWAP2 DUP3 MLOAD PUSH1 0x1 DUP1 PUSH1 0x40 SHL SUB DUP2 GT PUSH2 0x3FE JUMPI PUSH2 0x87A PUSH1 0x6 DUP4 ADD SLOAD PUSH2 0x40C8 JUMP JUMPDEST PUSH1 0x1F DUP2 GT PUSH2 0xAA9 JUMPI JUMPDEST POP PUSH1 0x20 PUSH1 0x1F DUP3 GT PUSH1 0x1 EQ PUSH2 0xA3B JUMPI DUP2 SWAP3 SWAP4 SWAP5 PUSH1 0x0 SWAP3 PUSH2 0xA30 JUMPI JUMPDEST POP POP DUP2 PUSH1 0x1 SHL SWAP2 PUSH1 0x0 NOT SWAP1 PUSH1 0x3 SHL SHR NOT AND OR PUSH1 0x6 DUP3 ADD SSTORE JUMPDEST PUSH1 0xE0 DUP3 ADD MLOAD DUP1 MLOAD SWAP1 PUSH1 0x1 PUSH1 0x1 PUSH1 0x40 SHL SUB DUP3 GT PUSH2 0x3FE JUMPI PUSH2 0x8D8 PUSH1 0x7 DUP5 ADD SLOAD PUSH2 0x40C8 JUMP JUMPDEST PUSH1 0x1F DUP2 GT PUSH2 0x9E5 JUMPI JUMPDEST POP PUSH1 0x20 SWAP1 PUSH1 0x1F DUP4 GT PUSH1 0x1 EQ PUSH2 0x96F JUMPI SWAP2 DUP1 PUSH2 0x160 SWAP5 SWAP3 PUSH1 0xB SWAP5 PUSH1 0x0 SWAP3 PUSH2 0x964 JUMPI JUMPDEST POP POP DUP2 PUSH1 0x1 SHL SWAP2 PUSH1 0x0 NOT SWAP1 PUSH1 0x3 SHL SHR NOT AND OR PUSH1 0x7 DUP3 ADD SSTORE JUMPDEST PUSH2 0x100 DUP5 ADD MLOAD PUSH1 0x8 DUP3 ADD SSTORE PUSH2 0x120 DUP5 ADD MLOAD PUSH1 0x9 DUP3 ADD SSTORE PUSH2 0x140 DUP5 ADD MLOAD PUSH1 0xA DUP3 ADD SSTORE ADD SWAP2 ADD MLOAD PUSH1 0x9 DUP2 LT ISZERO PUSH2 0x486 JUMPI PUSH1 0xFF DUP1 NOT DUP4 SLOAD AND SWAP2 AND OR SWAP1 SSTORE PUSH2 0x95F PUSH1 0xA SLOAD PUSH2 0x4384 JUMP JUMPDEST PUSH1 0xA SSTORE STOP JUMPDEST ADD MLOAD SWAP1 POP DUP7 DUP1 PUSH2 0x902 JUMP JUMPDEST SWAP1 PUSH1 0x7 DUP5 ADD PUSH1 0x0 MSTORE PUSH1 0x20 PUSH1 0x0 KECCAK256 SWAP2 PUSH1 0x0 JUMPDEST PUSH1 0x1F NOT DUP6 AND DUP2 LT PUSH2 0x9CD JUMPI POP SWAP3 PUSH2 0x160 SWAP5 SWAP3 PUSH1 0x1 SWAP3 PUSH1 0xB SWAP6 DUP4 PUSH1 0x1F NOT DUP2 AND LT PUSH2 0x9B4 JUMPI JUMPDEST POP POP POP DUP2 SHL ADD PUSH1 0x7 DUP3 ADD SSTORE PUSH2 0x91A JUMP JUMPDEST ADD MLOAD PUSH1 0x0 NOT PUSH1 0xF8 DUP5 PUSH1 0x3 SHL AND SHR NOT AND SWAP1 SSTORE DUP7 DUP1 DUP1 PUSH2 0x9A4 JUMP JUMPDEST SWAP2 SWAP3 PUSH1 0x20 PUSH1 0x1 DUP2 SWAP3 DUP7 DUP6 ADD MLOAD DUP2 SSTORE ADD SWAP5 ADD SWAP3 ADD PUSH2 0x980 JUMP JUMPDEST PUSH1 0x7 DUP5 ADD PUSH1 0x0 MSTORE PUSH1 0x20 PUSH1 0x0 KECCAK256 PUSH1 0x1F DUP5 ADD PUSH1 0x5 SHR DUP2 ADD SWAP2 PUSH1 0x20 DUP6 LT PUSH2 0xA26 JUMPI JUMPDEST PUSH1 0x1F ADD PUSH1 0x5 SHR ADD SWAP1 JUMPDEST DUP2 DUP2 LT PUSH2 0xA1A JUMPI POP PUSH2 0x8E1 JUMP JUMPDEST PUSH1 0x0 DUP2 SSTORE PUSH1 0x1 ADD PUSH2 0xA0D JUMP JUMPDEST SWAP1 SWAP2 POP DUP2 SWAP1 PUSH2 0xA04 JUMP JUMPDEST ADD MLOAD SWAP1 POP DUP5 DUP1 PUSH2 0x89D JUMP JUMPDEST PUSH1 0x6 DUP4 ADD PUSH1 0x0 MSTORE PUSH1 0x20 PUSH1 0x0 KECCAK256 SWAP1 PUSH1 0x0 JUMPDEST PUSH1 0x1F NOT DUP5 AND DUP2 LT PUSH2 0xA91 JUMPI POP PUSH1 0x1 SWAP4 SWAP5 SWAP6 DUP4 PUSH1 0x1F NOT DUP2 AND LT PUSH2 0xA78 JUMPI JUMPDEST POP POP POP DUP2 SHL ADD PUSH1 0x6 DUP3 ADD SSTORE PUSH2 0x8B5 JUMP JUMPDEST ADD MLOAD PUSH1 0x0 NOT PUSH1 0xF8 DUP5 PUSH1 0x3 SHL AND SHR NOT AND SWAP1 SSTORE DUP5 DUP1 DUP1 PUSH2 0xA68 JUMP JUMPDEST SWAP1 SWAP2 PUSH1 0x20 PUSH1 0x1 DUP2 SWAP3 DUP6 DUP11 ADD MLOAD DUP2 SSTORE ADD SWAP4 ADD SWAP2 ADD PUSH2 0xA4B JUMP JUMPDEST PUSH1 0x6 DUP4 ADD PUSH1 0x0 MSTORE PUSH1 0x20 PUSH1 0x0 KECCAK256 PUSH1 0x1F DUP4 ADD PUSH1 0x5 SHR DUP2 ADD PUSH1 0x20 DUP5 LT PUSH2 0xAE9 JUMPI JUMPDEST PUSH1 0x1F DUP4 ADD PUSH1 0x5 SHR DUP3 ADD DUP2 LT PUSH2 0xADD JUMPI POP POP PUSH2 0x883 JUMP JUMPDEST PUSH1 0x0 DUP2 SSTORE PUSH1 0x1 ADD PUSH2 0xAC7 JUMP JUMPDEST POP DUP1 PUSH2 0xAC7 JUMP JUMPDEST CALLVALUE PUSH2 0x24D JUMPI PUSH1 0x20 DUP1 PUSH1 0x3 NOT CALLDATASIZE ADD SLT PUSH2 0x24D JUMPI PUSH1 0x4 CALLDATALOAD SWAP1 DUP2 PUSH1 0x0 MSTORE PUSH1 0xB DUP2 MSTORE PUSH1 0x40 PUSH1 0x0 KECCAK256 SWAP2 PUSH1 0xB DUP4 ADD SWAP2 DUP3 SLOAD SWAP3 PUSH1 0xFF DUP5 AND PUSH1 0x9 DUP2 LT ISZERO PUSH2 0x486 JUMPI PUSH1 0x2 PUSH2 0xB35 SWAP2 EQ PUSH2 0x4485 JUMP JUMPDEST PUSH2 0xB52 PUSH2 0xB4B PUSH1 0x3 DUP8 ADD SLOAD PUSH1 0x5 DUP9 ADD SLOAD SWAP1 PUSH2 0x4435 JUMP JUMPDEST TIMESTAMP GT PUSH2 0x44C0 JUMP JUMPDEST PUSH1 0x6 PUSH1 0xFF NOT DUP1 SWAP6 AND OR SWAP1 SSTORE PUSH1 0x1 DUP1 PUSH1 0xA0 SHL SUB SWAP3 PUSH2 0xB90 PUSH1 0x0 DUP1 DUP1 DUP1 PUSH1 0x1 SWAP10 PUSH1 0x2 DUP11 DUP13 DUP4 ADD SLOAD AND SWAP11 DUP3 SLOAD AND SWAP2 ADD SLOAD SWAP1 GAS CALL PUSH2 0xB8A PUSH2 0x44F8 JUMP JUMPDEST POP PUSH2 0x4528 JUMP JUMPDEST DUP4 PUSH1 0x40 MLOAD PUSH2 0xB9D DUP2 PUSH2 0x4153 JUMP JUMPDEST PUSH1 0x1B DUP2 MSTORE PUSH27 0x1DDBDC9AD95C97D858D8D95C1D195917DB9BDD17DCDD185C9D1959 PUSH1 0x2A SHL DUP5 DUP3 ADD MSTORE PUSH1 0x0 DUP3 DUP2 MSTORE DUP1 DUP6 MSTORE PUSH1 0x40 SWAP1 KECCAK256 SLOAD PUSH1 0xFF AND PUSH1 0x5 DUP2 GT PUSH2 0xE1D JUMPI SWAP1 PUSH1 0x0 DUP1 MLOAD PUSH1 0x20 PUSH2 0x524B DUP4 CODECOPY DUP2 MLOAD SWAP2 MSTORE SWAP2 PUSH2 0xC18 PUSH1 0x0 SWAP3 JUMPDEST DUP6 PUSH1 0x0 MSTORE PUSH1 0x0 DUP9 MSTORE PUSH1 0x40 PUSH1 0x0 KECCAK256 PUSH1 0xFF DUP6 AND DUP9 DUP3 SLOAD AND OR SWAP1 SSTORE PUSH1 0x40 MLOAD SWAP4 DUP5 SWAP4 DUP5 PUSH2 0x4F51 JUMP JUMPDEST SUB SWAP1 LOG2 PUSH2 0xC23 PUSH2 0x47DF JUMP JUMPDEST SWAP1 DUP5 PUSH1 0x0 MSTORE PUSH1 0x8 DUP4 MSTORE PUSH1 0x40 PUSH1 0x0 KECCAK256 PUSH1 0x40 MLOAD SWAP1 PUSH2 0xC3E DUP3 PUSH2 0x4102 JUMP JUMPDEST PUSH1 0x0 DUP3 MSTORE DUP5 DUP3 ADD DUP7 DUP2 MSTORE PUSH1 0x40 DUP4 ADD SWAP2 TIMESTAMP DUP4 MSTORE PUSH1 0x60 DUP5 ADD SWAP6 DUP7 MSTORE DUP1 SLOAD PUSH1 0x1 PUSH1 0x40 SHL DUP2 LT ISZERO PUSH2 0x3FE JUMPI PUSH2 0xC73 SWAP2 DUP12 DUP3 ADD DUP2 SSTORE PUSH2 0x4393 JUMP JUMPDEST SWAP4 SWAP1 SWAP4 PUSH2 0xE07 JUMPI MLOAD PUSH1 0xD DUP2 LT ISZERO PUSH2 0x486 JUMPI PUSH1 0xFF PUSH1 0x3 SWAP6 DUP6 SLOAD AND SWAP2 AND OR DUP4 SSTORE MLOAD DUP9 DUP4 ADD SSTORE MLOAD PUSH1 0x2 DUP3 ADD SSTORE ADD SWAP1 MLOAD DUP1 MLOAD SWAP1 PUSH1 0x1 DUP1 PUSH1 0x40 SHL SUB DUP3 GT PUSH2 0x3FE JUMPI DUP2 SWAP1 PUSH2 0xCBB DUP5 SLOAD PUSH2 0x40C8 JUMP JUMPDEST PUSH1 0x1F DUP2 GT PUSH2 0xDB4 JUMPI JUMPDEST POP DUP5 SWAP1 PUSH1 0x1F DUP4 GT PUSH1 0x1 EQ PUSH2 0xD51 JUMPI PUSH1 0x0 SWAP3 PUSH2 0xD46 JUMPI JUMPDEST POP POP PUSH1 0x0 NOT PUSH1 0x3 DUP4 SWAP1 SHL SHR NOT AND SWAP1 DUP7 SHL OR SWAP1 SSTORE JUMPDEST DUP3 PUSH1 0x0 MSTORE PUSH1 0x9 DUP2 MSTORE PUSH1 0x40 PUSH1 0x0 KECCAK256 PUSH1 0x0 DUP1 MSTORE DUP2 MSTORE PUSH1 0x40 PUSH1 0x0 KECCAK256 SWAP2 DUP3 SLOAD SWAP5 DUP6 ADD DUP1 SWAP6 GT PUSH2 0xD30 JUMPI PUSH1 0x0 SWAP5 PUSH1 0x0 DUP1 MLOAD PUSH1 0x20 PUSH2 0x522B DUP4 CODECOPY DUP2 MLOAD SWAP2 MSTORE SWAP4 SSTORE PUSH1 0x40 MLOAD SWAP1 DUP2 MSTORE LOG3 STOP JUMPDEST PUSH4 0x4E487B71 PUSH1 0xE0 SHL PUSH1 0x0 MSTORE PUSH1 0x11 PUSH1 0x4 MSTORE PUSH1 0x24 PUSH1 0x0 REVERT JUMPDEST ADD MLOAD SWAP1 POP DUP8 DUP1 PUSH2 0xCDA JUMP JUMPDEST SWAP1 DUP9 SWAP4 POP PUSH1 0x1F NOT DUP4 AND SWAP2 DUP6 PUSH1 0x0 MSTORE DUP7 PUSH1 0x0 KECCAK256 SWAP3 PUSH1 0x0 JUMPDEST DUP9 DUP3 DUP3 LT PUSH2 0xD9E JUMPI POP POP DUP5 GT PUSH2 0xD85 JUMPI JUMPDEST POP POP POP DUP2 SHL ADD SWAP1 SSTORE PUSH2 0xCEE JUMP JUMPDEST ADD MLOAD PUSH1 0x0 NOT PUSH1 0xF8 DUP5 PUSH1 0x3 SHL AND SHR NOT AND SWAP1 SSTORE DUP8 DUP1 DUP1 PUSH2 0xD78 JUMP JUMPDEST DUP4 DUP6 ADD MLOAD DUP7 SSTORE DUP13 SWAP8 SWAP1 SWAP6 ADD SWAP5 SWAP4 DUP5 ADD SWAP4 ADD PUSH2 0xD67 JUMP JUMPDEST SWAP1 SWAP2 POP DUP4 PUSH1 0x0 MSTORE DUP5 PUSH1 0x0 KECCAK256 PUSH1 0x1F DUP5 ADD PUSH1 0x5 SHR DUP2 ADD SWAP2 DUP7 DUP6 LT PUSH2 0xDFD JUMPI JUMPDEST DUP5 SWAP4 SWAP3 SWAP2 PUSH1 0x1F DUP12 SWAP3 ADD PUSH1 0x5 SHR ADD SWAP2 JUMPDEST DUP3 DUP2 LT PUSH2 0xDEE JUMPI POP POP PUSH2 0xCC4 JUMP JUMPDEST PUSH1 0x0 DUP2 SSTORE DUP6 SWAP5 POP DUP11 SWAP2 ADD PUSH2 0xDE0 JUMP JUMPDEST SWAP1 SWAP2 POP DUP2 SWAP1 PUSH2 0xDD1 JUMP JUMPDEST PUSH4 0x4E487B71 PUSH1 0xE0 SHL PUSH1 0x0 MSTORE PUSH1 0x0 PUSH1 0x4 MSTORE PUSH1 0x24 PUSH1 0x0 REVERT JUMPDEST SWAP2 POP PUSH1 0x4 NOT DUP3 ADD SWAP1 PUSH1 0xFF DUP3 GT PUSH2 0xD30 JUMPI DUP7 SWAP3 PUSH2 0xC18 PUSH1 0x0 DUP1 MLOAD PUSH1 0x20 PUSH2 0x524B DUP4 CODECOPY DUP2 MLOAD SWAP2 MSTORE SWAP4 SWAP3 PUSH2 0xBF4 JUMP JUMPDEST CALLVALUE PUSH2 0x24D JUMPI PUSH1 0x20 DUP1 PUSH1 0x3 NOT CALLDATASIZE ADD SLT PUSH2 0x24D JUMPI PUSH1 0x4 CALLDATALOAD SWAP1 DUP2 PUSH1 0x0 MSTORE PUSH1 0xB DUP2 MSTORE PUSH1 0x40 PUSH1 0x0 KECCAK256 PUSH1 0xB DUP2 ADD SWAP1 DUP2 SLOAD SWAP3 PUSH1 0xFF DUP5 AND PUSH1 0x9 DUP2 LT ISZERO PUSH2 0x486 JUMPI PUSH1 0x4 PUSH2 0xE8C SWAP2 EQ PUSH2 0x4826 JUMP JUMPDEST PUSH1 0xA DUP3 ADD SLOAD PUSH1 0x78 DUP2 ADD DUP1 SWAP2 GT PUSH2 0xD30 JUMPI PUSH2 0xEA8 SWAP1 TIMESTAMP LT ISZERO PUSH2 0x44C0 JUMP JUMPDEST PUSH1 0x5 PUSH1 0xFF NOT SWAP5 DUP6 AND DUP2 OR SWAP1 SWAP4 SSTORE DUP2 SLOAD PUSH1 0x40 MLOAD PUSH1 0x1 PUSH1 0x1 PUSH1 0xA0 SHL SUB SWAP4 SWAP2 DUP5 AND SWAP1 PUSH2 0xED0 DUP2 PUSH2 0x4153 JUMP JUMPDEST PUSH1 0x19 DUP2 MSTORE PUSH25 0x31B634B2B73A2FB4B3B737B932B22FB9BAB136B4B9B9B4B7B7 PUSH1 0x39 SHL DUP5 DUP3 ADD MSTORE PUSH1 0x0 DUP3 DUP2 MSTORE DUP1 DUP6 MSTORE PUSH1 0x40 SWAP1 KECCAK256 SLOAD PUSH1 0xFF AND SWAP1 PUSH1 0x8 DUP3 GT PUSH2 0x11BF JUMPI PUSH1 0x0 DUP1 MLOAD PUSH1 0x20 PUSH2 0x524B DUP4 CODECOPY DUP2 MLOAD SWAP2 MSTORE SWAP2 PUSH2 0xF49 PUSH1 0x0 SWAP3 JUMPDEST DUP6 PUSH1 0x0 MSTORE PUSH1 0x0 DUP9 MSTORE PUSH1 0x40 PUSH1 0x0 KECCAK256 PUSH1 0xFF DUP6 AND DUP13 DUP3 SLOAD AND OR SWAP1 SSTORE PUSH1 0x40 MLOAD SWAP4 DUP5 SWAP4 DUP5 PUSH2 0x4F51 JUMP JUMPDEST SUB SWAP1 LOG2 DUP3 DUP2 SLOAD AND SWAP3 PUSH1 0x40 MLOAD PUSH2 0xF5D DUP2 PUSH2 0x4138 JUMP JUMPDEST PUSH1 0x26 DUP2 MSTORE PUSH32 0x446964206E6F7420726573706F6E6420616674657220776F726B657220737562 DUP5 DUP3 ADD MSTORE PUSH6 0x1B5A5D1D1959 PUSH1 0xD2 SHL PUSH1 0x40 DUP3 ADD MSTORE DUP5 PUSH1 0x0 MSTORE PUSH1 0x8 DUP5 MSTORE PUSH1 0x40 PUSH1 0x0 KECCAK256 SWAP7 PUSH1 0x40 MLOAD PUSH2 0xFAF DUP2 PUSH2 0x4102 JUMP JUMPDEST DUP8 DUP2 MSTORE DUP6 DUP2 ADD DUP11 DUP2 MSTORE PUSH1 0x40 DUP3 ADD SWAP1 TIMESTAMP DUP3 MSTORE PUSH1 0x60 DUP4 ADD SWAP5 DUP6 MSTORE DUP11 SLOAD PUSH1 0x1 PUSH1 0x40 SHL DUP2 LT ISZERO PUSH2 0x3FE JUMPI PUSH2 0xFE6 SWAP1 PUSH1 0x1 SWAP13 DUP14 DUP3 ADD DUP2 SSTORE PUSH2 0x4393 JUMP JUMPDEST SWAP4 SWAP1 SWAP4 PUSH2 0xE07 JUMPI MLOAD PUSH1 0xD DUP2 LT ISZERO PUSH2 0x486 JUMPI PUSH1 0xFF PUSH1 0x3 SWAP6 DUP6 SLOAD AND SWAP2 AND OR DUP4 SSTORE MLOAD DUP11 DUP4 ADD SSTORE MLOAD PUSH1 0x2 DUP3 ADD SSTORE ADD SWAP1 MLOAD DUP1 MLOAD SWAP1 PUSH1 0x1 DUP1 PUSH1 0x40 SHL SUB DUP3 GT PUSH2 0x3FE JUMPI DUP2 SWAP1 PUSH2 0x102E DUP5 SLOAD PUSH2 0x40C8 JUMP JUMPDEST PUSH1 0x1F DUP2 GT PUSH2 0x116E JUMPI JUMPDEST POP DUP7 SWAP1 PUSH1 0x1F DUP4 GT PUSH1 0x1 EQ PUSH2 0x110B JUMPI PUSH1 0x0 SWAP3 PUSH2 0x1100 JUMPI JUMPDEST POP POP PUSH1 0x0 NOT PUSH1 0x3 DUP4 SWAP1 SHL SHR NOT AND SWAP1 DUP9 SHL OR SWAP1 SSTORE JUMPDEST DUP4 PUSH1 0x0 MSTORE PUSH1 0x9 DUP4 MSTORE PUSH1 0x40 PUSH1 0x0 KECCAK256 DUP6 PUSH1 0x0 MSTORE DUP4 MSTORE PUSH1 0x40 PUSH1 0x0 KECCAK256 SWAP1 DUP2 SLOAD SWAP4 DUP8 DUP6 ADD DUP1 SWAP6 GT PUSH2 0xD30 JUMPI PUSH2 0x10E8 PUSH1 0x0 SWAP9 DUP10 SWAP9 DUP10 SWAP9 PUSH1 0x0 DUP1 MLOAD PUSH1 0x20 PUSH2 0x522B DUP4 CODECOPY DUP2 MLOAD SWAP2 MSTORE DUP6 PUSH2 0x10FE SWAP15 DUP13 SWAP12 PUSH1 0x2 SWAP11 SSTORE PUSH1 0x40 MLOAD SWAP1 DUP2 MSTORE LOG3 DUP6 ADD SWAP2 DUP4 DUP4 SLOAD AND PUSH18 0x6A6F625F636F6D706C657465645F6175746F PUSH1 0x70 SHL PUSH1 0x40 MLOAD SWAP3 PUSH2 0x10DC DUP5 PUSH2 0x4153 JUMP JUMPDEST PUSH1 0x12 DUP5 MSTORE DUP4 ADD MSTORE PUSH2 0x503B JUMP JUMPDEST SLOAD AND SWAP2 ADD SLOAD SWAP1 GAS CALL PUSH2 0x10F8 PUSH2 0x44F8 JUMP JUMPDEST POP PUSH2 0x488B JUMP JUMPDEST STOP JUMPDEST ADD MLOAD SWAP1 POP DUP11 DUP1 PUSH2 0x104D JUMP JUMPDEST SWAP1 DUP11 SWAP4 POP PUSH1 0x1F NOT DUP4 AND SWAP2 DUP6 PUSH1 0x0 MSTORE DUP9 PUSH1 0x0 KECCAK256 SWAP3 PUSH1 0x0 JUMPDEST DUP11 DUP3 DUP3 LT PUSH2 0x1158 JUMPI POP POP DUP5 GT PUSH2 0x113F JUMPI JUMPDEST POP POP POP DUP2 SHL ADD SWAP1 SSTORE PUSH2 0x1061 JUMP JUMPDEST ADD MLOAD PUSH1 0x0 NOT PUSH1 0xF8 DUP5 PUSH1 0x3 SHL AND SHR NOT AND SWAP1 SSTORE DUP11 DUP1 DUP1 PUSH2 0x1132 JUMP JUMPDEST DUP4 DUP6 ADD MLOAD DUP7 SSTORE DUP15 SWAP8 SWAP1 SWAP6 ADD SWAP5 SWAP4 DUP5 ADD SWAP4 ADD PUSH2 0x1121 JUMP JUMPDEST SWAP1 SWAP2 POP DUP4 PUSH1 0x0 MSTORE DUP7 PUSH1 0x0 KECCAK256 PUSH1 0x1F DUP5 ADD DUP11 SHR DUP2 ADD SWAP2 DUP9 DUP6 LT PUSH2 0x11B5 JUMPI JUMPDEST DUP5 SWAP4 SWAP3 SWAP2 PUSH1 0x1F DUP14 SWAP3 ADD DUP13 SHR ADD SWAP2 JUMPDEST DUP3 DUP2 LT PUSH2 0x11A6 JUMPI POP POP PUSH2 0x1037 JUMP JUMPDEST PUSH1 0x0 DUP2 SSTORE DUP6 SWAP5 POP DUP13 SWAP2 ADD PUSH2 0x1198 JUMP JUMPDEST SWAP1 SWAP2 POP DUP2 SWAP1 PUSH2 0x118A JUMP JUMPDEST PUSH1 0x7 NOT DUP3 ADD SWAP2 PUSH1 0xFF DUP4 GT PUSH2 0xD30 JUMPI PUSH2 0xF49 PUSH1 0x0 DUP1 MLOAD PUSH1 0x20 PUSH2 0x524B DUP4 CODECOPY DUP2 MLOAD SWAP2 MSTORE SWAP4 SWAP3 PUSH2 0xF25 JUMP JUMPDEST CALLVALUE PUSH2 0x24D JUMPI PUSH1 0x20 CALLDATASIZE PUSH1 0x3 NOT ADD SLT PUSH2 0x24D JUMPI PUSH1 0x4 CALLDATALOAD PUSH1 0x0 MSTORE PUSH1 0xB PUSH1 0x20 MSTORE PUSH1 0x40 PUSH1 0x0 KECCAK256 PUSH1 0xB DUP2 ADD PUSH1 0xFF DUP2 SLOAD AND PUSH1 0x9 DUP2 LT ISZERO PUSH2 0x486 JUMPI PUSH1 0x7 PUSH2 0x1225 SWAP2 EQ PUSH2 0x4DD3 JUMP JUMPDEST PUSH1 0x4 CALLDATALOAD PUSH1 0x0 MSTORE PUSH1 0x5 PUSH1 0x20 MSTORE PUSH1 0x40 PUSH1 0x0 KECCAK256 PUSH1 0xA DUP2 ADD SLOAD SWAP3 PUSH2 0x1246 DUP5 ISZERO ISZERO PUSH2 0x4E0E JUMP JUMPDEST PUSH1 0xB DUP3 ADD SLOAD SWAP4 PUSH2 0x1259 PUSH1 0xFF DUP7 AND ISZERO PUSH2 0x4D36 JUMP JUMPDEST TIMESTAMP LT DUP1 ISZERO SWAP1 PUSH2 0x1A51 JUMPI JUMPDEST ISZERO PUSH2 0x1A19 JUMPI PUSH1 0x1 PUSH1 0x9 DUP4 ADD SLOAD SWAP5 PUSH2 0xFF00 PUSH1 0xFF DUP8 PUSH1 0x10 SHR AND PUSH1 0xFF DUP9 PUSH1 0x8 SHR AND GT PUSH1 0x8 SHL AND SWAP1 PUSH2 0xFFFF NOT AND OR OR PUSH1 0xB DUP4 ADD SSTORE PUSH1 0x40 MLOAD PUSH1 0xFF DUP6 PUSH1 0x10 SHR AND PUSH1 0xFF DUP7 PUSH1 0x8 SHR AND GT DUP2 MSTORE PUSH32 0x5A87909BFF68CAAAAF0B3FD9C74EECCC928832F879315E5C6FB7A73612F26C0C PUSH1 0x20 PUSH1 0x4 CALLDATALOAD SWAP3 LOG2 PUSH1 0x0 JUMPDEST PUSH1 0xFF PUSH1 0x9 DUP5 ADD SLOAD AND PUSH1 0xFF DUP3 AND LT ISZERO PUSH2 0x1540 JUMPI PUSH2 0x12F1 DUP2 PUSH1 0x4 DUP6 ADD PUSH2 0x4D86 JUMP JUMPDEST SWAP2 SWAP1 SLOAD SWAP2 PUSH1 0x4 CALLDATALOAD PUSH1 0x0 MSTORE PUSH1 0x6 PUSH1 0x20 MSTORE PUSH1 0x40 PUSH1 0x0 KECCAK256 SWAP3 PUSH1 0x3 SWAP4 PUSH1 0x1 DUP1 PUSH1 0xA0 SHL SUB DUP3 DUP5 DUP8 SHL SHR AND PUSH1 0x0 MSTORE PUSH1 0x20 MSTORE PUSH1 0xFF PUSH1 0x40 PUSH1 0x0 KECCAK256 SLOAD AND ISZERO PUSH2 0x1534 JUMPI PUSH1 0x4 CALLDATALOAD PUSH1 0x0 MSTORE PUSH1 0x7 PUSH1 0x20 MSTORE PUSH1 0x40 PUSH1 0x0 KECCAK256 PUSH1 0x1 DUP1 PUSH1 0xA0 SHL SUB DUP3 DUP5 DUP8 SHL SHR AND PUSH1 0x0 MSTORE PUSH1 0x20 MSTORE PUSH1 0xFF DUP9 PUSH1 0x10 SHR AND PUSH1 0xFF DUP10 PUSH1 0x8 SHR AND GT PUSH1 0xFF PUSH1 0x40 PUSH1 0x0 KECCAK256 SLOAD AND ISZERO ISZERO EQ PUSH1 0x0 EQ PUSH2 0x1468 JUMPI PUSH1 0x40 MLOAD SWAP2 PUSH2 0x137C DUP4 PUSH2 0x4153 JUMP JUMPDEST PUSH1 0xF DUP4 MSTORE PUSH15 0x766F7465645F636F72726563746C79 PUSH1 0x88 SHL PUSH1 0x20 DUP5 ADD MSTORE PUSH1 0x1 DUP1 PUSH1 0xA0 SHL SUB DUP3 DUP3 DUP8 SHL SHR AND PUSH1 0x0 MSTORE PUSH1 0x0 PUSH1 0x20 MSTORE PUSH1 0xFF PUSH1 0x40 PUSH1 0x0 KECCAK256 SLOAD AND SWAP3 PUSH2 0xFFFF DUP7 DUP6 ADD GT PUSH2 0xD30 JUMPI PUSH1 0x64 DUP1 PUSH2 0xFFFF DUP9 DUP8 ADD AND GT PUSH1 0x0 EQ PUSH2 0x143B JUMPI PUSH1 0x0 DUP1 MLOAD PUSH1 0x20 PUSH2 0x524B DUP4 CODECOPY DUP2 MLOAD SWAP2 MSTORE SWAP4 SWAP3 SWAP2 PUSH2 0x1436 SWAP8 PUSH2 0x142D SWAP3 SWAP1 JUMPDEST SWAP4 SWAP1 SWAP4 SHL SWAP4 SWAP1 SWAP4 SHR PUSH1 0x1 PUSH1 0x1 PUSH1 0xA0 SHL SUB AND PUSH1 0x0 DUP2 DUP2 MSTORE PUSH1 0x20 DUP2 SWAP1 MSTORE PUSH1 0x40 SWAP1 DUP2 SWAP1 KECCAK256 DUP1 SLOAD PUSH1 0xFF NOT AND PUSH1 0xFF DUP7 AND OR SWAP1 SSTORE MLOAD SWAP1 SWAP6 SWAP1 SWAP4 DUP5 SWAP4 SWAP1 SWAP2 DUP5 PUSH2 0x4F51 JUMP JUMPDEST SUB SWAP1 LOG2 JUMPDEST PUSH2 0x4D75 JUMP JUMPDEST PUSH2 0x12D2 JUMP JUMPDEST POP SWAP2 SWAP1 PUSH1 0xFF DUP7 DUP6 ADD GT PUSH2 0xD30 JUMPI PUSH2 0x142D PUSH1 0x0 DUP1 MLOAD PUSH1 0x20 PUSH2 0x524B DUP4 CODECOPY DUP2 MLOAD SWAP2 MSTORE SWAP4 DUP8 PUSH2 0x1436 SWAP9 DUP8 ADD SWAP1 PUSH2 0x13F0 JUMP JUMPDEST PUSH1 0x40 MLOAD SWAP2 PUSH2 0x1475 DUP4 PUSH2 0x4153 JUMP JUMPDEST PUSH1 0xD DUP4 MSTORE PUSH13 0x766F7465645F77726F6E676C79 PUSH1 0x98 SHL PUSH1 0x20 DUP5 ADD MSTORE PUSH1 0x1 DUP1 PUSH1 0xA0 SHL SUB DUP3 DUP3 DUP8 SHL SHR AND PUSH1 0x0 MSTORE PUSH1 0x0 PUSH1 0x20 MSTORE PUSH1 0xFF PUSH1 0x40 PUSH1 0x0 KECCAK256 SLOAD AND SWAP3 DUP4 DUP7 LT ISZERO PUSH1 0x0 EQ PUSH2 0x1504 JUMPI SWAP5 SHL SHR PUSH1 0x1 PUSH1 0x1 PUSH1 0xA0 SHL SUB AND PUSH1 0x0 DUP2 DUP2 MSTORE PUSH1 0x20 DUP2 SWAP1 MSTORE PUSH1 0x40 DUP1 DUP3 KECCAK256 DUP1 SLOAD PUSH1 0xFF NOT AND SWAP1 SSTORE MLOAD PUSH2 0x1436 SWAP6 SWAP3 SWAP4 PUSH1 0x0 DUP1 MLOAD PUSH1 0x20 PUSH2 0x524B DUP4 CODECOPY DUP2 MLOAD SWAP2 MSTORE SWAP4 SWAP2 SWAP3 DUP4 SWAP3 PUSH2 0x142D SWAP3 SWAP1 SWAP2 SWAP1 DUP5 PUSH2 0x4F51 JUMP JUMPDEST SWAP2 SWAP1 PUSH1 0xFF PUSH1 0x2 NOT DUP6 ADD GT PUSH2 0xD30 JUMPI PUSH2 0x142D PUSH1 0x0 DUP1 MLOAD PUSH1 0x20 PUSH2 0x524B DUP4 CODECOPY DUP2 MLOAD SWAP2 MSTORE SWAP4 PUSH2 0x1436 SWAP8 PUSH1 0x2 NOT DUP8 ADD SWAP1 PUSH2 0x13F0 JUMP JUMPDEST POP POP PUSH2 0x1436 SWAP2 POP PUSH2 0x4D75 JUMP JUMPDEST POP DUP3 DUP5 PUSH1 0xFF NOT SWAP2 PUSH1 0x8 DUP4 DUP3 SLOAD AND OR SWAP1 SSTORE PUSH1 0xFF DUP1 DUP3 PUSH1 0x10 SHR AND SWAP2 PUSH1 0x8 SHR AND GT PUSH1 0x0 EQ PUSH2 0x17C2 JUMPI DUP2 SLOAD PUSH1 0x1 PUSH1 0x1 PUSH1 0xA0 SHL SUB SWAP1 PUSH2 0x1584 SWAP1 DUP3 AND PUSH2 0x157E PUSH2 0x4E58 JUMP JUMPDEST SWAP1 PUSH2 0x50B0 JUMP JUMPDEST DUP1 DUP4 SLOAD AND SWAP2 PUSH1 0x40 MLOAD SWAP1 PUSH2 0x1596 DUP3 PUSH2 0x4153 JUMP JUMPDEST PUSH1 0x18 DUP3 MSTORE PUSH24 0x131BDCDD081848191A5CDC1D5D1948185CC818DB1A595B9D PUSH1 0x42 SHL PUSH1 0x20 DUP4 ADD MSTORE DUP4 PUSH1 0x0 MSTORE PUSH1 0x8 PUSH1 0x20 MSTORE PUSH1 0x40 PUSH1 0x0 KECCAK256 PUSH1 0x40 MLOAD SWAP1 PUSH2 0x15D6 DUP3 PUSH2 0x4102 JUMP JUMPDEST PUSH1 0x7 DUP3 MSTORE PUSH1 0x20 DUP3 ADD PUSH1 0x4 CALLDATALOAD DUP2 MSTORE PUSH1 0x40 DUP4 ADD SWAP2 TIMESTAMP DUP4 MSTORE PUSH1 0x60 DUP5 ADD SWAP6 DUP7 MSTORE DUP1 SLOAD PUSH1 0x1 PUSH1 0x40 SHL DUP2 LT ISZERO PUSH2 0x3FE JUMPI PUSH2 0x160F SWAP2 PUSH1 0x1 DUP3 ADD DUP2 SSTORE PUSH2 0x4393 JUMP JUMPDEST SWAP4 SWAP1 SWAP4 PUSH2 0xE07 JUMPI MLOAD PUSH1 0xD DUP2 LT ISZERO PUSH2 0x486 JUMPI PUSH1 0xFF PUSH1 0x3 SWAP6 DUP6 SLOAD AND SWAP2 AND OR DUP4 SSTORE MLOAD PUSH1 0x1 DUP4 ADD SSTORE MLOAD PUSH1 0x2 DUP3 ADD SSTORE ADD SWAP1 MLOAD DUP1 MLOAD SWAP1 PUSH1 0x1 DUP1 PUSH1 0x40 SHL SUB DUP3 GT PUSH2 0x3FE JUMPI DUP2 SWAP1 PUSH2 0x1658 DUP5 SLOAD PUSH2 0x40C8 JUMP JUMPDEST PUSH1 0x1F DUP2 GT PUSH2 0x176F JUMPI JUMPDEST POP PUSH1 0x20 SWAP1 PUSH1 0x1F DUP4 GT PUSH1 0x1 EQ PUSH2 0x1709 JUMPI PUSH1 0x0 SWAP3 PUSH2 0x16FE JUMPI JUMPDEST POP POP DUP2 PUSH1 0x1 SHL SWAP2 PUSH1 0x0 NOT SWAP1 PUSH1 0x3 SHL SHR NOT AND OR SWAP1 SSTORE JUMPDEST DUP2 PUSH1 0x0 MSTORE PUSH1 0x9 PUSH1 0x20 MSTORE PUSH1 0x40 PUSH1 0x0 KECCAK256 PUSH1 0x7 PUSH1 0x0 MSTORE PUSH1 0x20 MSTORE PUSH1 0x40 PUSH1 0x0 KECCAK256 DUP1 SLOAD SWAP3 PUSH1 0x1 DUP5 ADD DUP1 SWAP5 GT PUSH2 0xD30 JUMPI PUSH2 0x10FE SWAP5 PUSH1 0x2 PUSH1 0x0 SWAP6 SWAP5 PUSH1 0x7 DUP8 SWAP7 SWAP5 DUP8 SWAP7 SWAP6 DUP8 SWAP7 SSTORE PUSH1 0x0 DUP1 MLOAD PUSH1 0x20 PUSH2 0x522B DUP4 CODECOPY DUP2 MLOAD SWAP2 MSTORE PUSH1 0x20 PUSH1 0x40 MLOAD PUSH1 0x4 CALLDATALOAD DUP2 MSTORE LOG3 PUSH1 0x1 DUP4 ADD PUSH2 0x10E8 DUP3 DUP3 SLOAD AND PUSH2 0x16F8 PUSH2 0x4E80 JUMP JUMPDEST SWAP1 PUSH2 0x503B JUMP JUMPDEST ADD MLOAD SWAP1 POP DUP7 DUP1 PUSH2 0x1678 JUMP JUMPDEST PUSH1 0x0 DUP6 DUP2 MSTORE PUSH1 0x20 DUP2 KECCAK256 SWAP4 POP PUSH1 0x1F NOT DUP6 AND SWAP1 JUMPDEST DUP2 DUP2 LT PUSH2 0x1757 JUMPI POP SWAP1 DUP5 PUSH1 0x1 SWAP6 SWAP5 SWAP4 SWAP3 LT PUSH2 0x173E JUMPI JUMPDEST POP POP POP DUP2 SHL ADD SWAP1 SSTORE PUSH2 0x168D JUMP JUMPDEST ADD MLOAD PUSH1 0x0 NOT PUSH1 0xF8 DUP5 PUSH1 0x3 SHL AND SHR NOT AND SWAP1 SSTORE DUP7 DUP1 DUP1 PUSH2 0x1731 JUMP JUMPDEST SWAP3 SWAP4 PUSH1 0x20 PUSH1 0x1 DUP2 SWAP3 DUP8 DUP7 ADD MLOAD DUP2 SSTORE ADD SWAP6 ADD SWAP4 ADD PUSH2 0x171B JUMP JUMPDEST SWAP1 SWAP2 POP DUP4 PUSH1 0x0 MSTORE PUSH1 0x20 PUSH1 0x0 KECCAK256 PUSH1 0x1F DUP5 ADD PUSH1 0x5 SHR DUP2 ADD SWAP2 PUSH1 0x20 DUP6 LT PUSH2 0x17B8 JUMPI JUMPDEST SWAP1 PUSH1 0x1F DUP6 SWAP5 SWAP4 SWAP3 ADD PUSH1 0x5 SHR ADD SWAP1 JUMPDEST DUP2 DUP2 LT PUSH2 0x17A9 JUMPI POP PUSH2 0x1661 JUMP JUMPDEST PUSH1 0x0 DUP2 SSTORE DUP5 SWAP4 POP PUSH1 0x1 ADD PUSH2 0x179C JUMP JUMPDEST SWAP1 SWAP2 POP DUP2 SWAP1 PUSH2 0x178E JUMP JUMPDEST PUSH1 0x1 DUP3 ADD DUP1 SLOAD PUSH1 0x1 PUSH1 0x1 PUSH1 0xA0 SHL SUB SWAP2 DUP3 SWAP2 PUSH2 0x17E1 SWAP1 DUP4 AND PUSH2 0x157E PUSH2 0x4E58 JUMP JUMPDEST SLOAD AND SWAP2 PUSH1 0x40 MLOAD SWAP1 PUSH2 0x17F1 DUP3 PUSH2 0x4153 JUMP JUMPDEST PUSH1 0xE DUP3 MSTORE PUSH14 0x4C6F737420612064697370757465 PUSH1 0x90 SHL PUSH1 0x20 DUP4 ADD MSTORE DUP4 PUSH1 0x0 MSTORE PUSH1 0x8 PUSH1 0x20 MSTORE PUSH1 0x40 PUSH1 0x0 KECCAK256 PUSH1 0x40 MLOAD SWAP1 PUSH2 0x1827 DUP3 PUSH2 0x4102 JUMP JUMPDEST PUSH1 0x2 DUP3 MSTORE PUSH1 0x20 DUP3 ADD PUSH1 0x4 CALLDATALOAD DUP2 MSTORE PUSH1 0x40 DUP4 ADD SWAP2 TIMESTAMP DUP4 MSTORE PUSH1 0x60 DUP5 ADD SWAP6 DUP7 MSTORE DUP1 SLOAD PUSH1 0x1 PUSH1 0x40 SHL DUP2 LT ISZERO PUSH2 0x3FE JUMPI PUSH2 0x1860 SWAP2 PUSH1 0x1 DUP3 ADD DUP2 SSTORE PUSH2 0x4393 JUMP JUMPDEST SWAP4 SWAP1 SWAP4 PUSH2 0xE07 JUMPI MLOAD PUSH1 0xD DUP2 LT ISZERO PUSH2 0x486 JUMPI PUSH1 0xFF PUSH1 0x3 SWAP6 DUP6 SLOAD AND SWAP2 AND OR DUP4 SSTORE MLOAD PUSH1 0x1 DUP4 ADD SSTORE MLOAD PUSH1 0x2 DUP3 ADD SSTORE ADD SWAP1 MLOAD DUP1 MLOAD SWAP1 PUSH1 0x1 DUP1 PUSH1 0x40 SHL SUB DUP3 GT PUSH2 0x3FE JUMPI DUP2 SWAP1 PUSH2 0x18A9 DUP5 SLOAD PUSH2 0x40C8 JUMP JUMPDEST PUSH1 0x1F DUP2 GT PUSH2 0x19C6 JUMPI JUMPDEST POP PUSH1 0x20 SWAP1 PUSH1 0x1F DUP4 GT PUSH1 0x1 EQ PUSH2 0x1960 JUMPI PUSH1 0x0 SWAP3 PUSH2 0x1955 JUMPI JUMPDEST POP POP DUP2 PUSH1 0x1 SHL SWAP2 PUSH1 0x0 NOT SWAP1 PUSH1 0x3 SHL SHR NOT AND OR SWAP1 SSTORE JUMPDEST DUP2 PUSH1 0x0 MSTORE PUSH1 0x9 PUSH1 0x20 MSTORE PUSH1 0x40 PUSH1 0x0 KECCAK256 PUSH1 0x2 PUSH1 0x0 MSTORE PUSH1 0x20 MSTORE PUSH1 0x40 PUSH1 0x0 KECCAK256 DUP1 SLOAD SWAP3 PUSH1 0x1 DUP5 ADD DUP1 SWAP5 GT PUSH2 0xD30 JUMPI PUSH2 0x10FE SWAP5 PUSH1 0x2 PUSH1 0x0 SWAP6 SWAP5 DUP2 DUP8 SWAP7 SWAP5 DUP8 SWAP7 SWAP6 DUP8 SWAP7 SSTORE PUSH1 0x0 DUP1 MLOAD PUSH1 0x20 PUSH2 0x522B DUP4 CODECOPY DUP2 MLOAD SWAP2 MSTORE PUSH1 0x20 PUSH1 0x40 MLOAD PUSH1 0x4 CALLDATALOAD DUP2 MSTORE LOG3 PUSH2 0x1944 DUP2 DUP5 SLOAD AND PUSH2 0x16F8 PUSH2 0x4E80 JUMP JUMPDEST DUP3 SLOAD AND SWAP2 ADD SLOAD SWAP1 GAS CALL PUSH2 0x10F8 PUSH2 0x44F8 JUMP JUMPDEST ADD MLOAD SWAP1 POP DUP7 DUP1 PUSH2 0x18C9 JUMP JUMPDEST PUSH1 0x0 DUP6 DUP2 MSTORE PUSH1 0x20 DUP2 KECCAK256 SWAP4 POP PUSH1 0x1F NOT DUP6 AND SWAP1 JUMPDEST DUP2 DUP2 LT PUSH2 0x19AE JUMPI POP SWAP1 DUP5 PUSH1 0x1 SWAP6 SWAP5 SWAP4 SWAP3 LT PUSH2 0x1995 JUMPI JUMPDEST POP POP POP DUP2 SHL ADD SWAP1 SSTORE PUSH2 0x18DE JUMP JUMPDEST ADD MLOAD PUSH1 0x0 NOT PUSH1 0xF8 DUP5 PUSH1 0x3 SHL AND SHR NOT AND SWAP1 SSTORE DUP7 DUP1 DUP1 PUSH2 0x1988 JUMP JUMPDEST SWAP3 SWAP4 PUSH1 0x20 PUSH1 0x1 DUP2 SWAP3 DUP8 DUP7 ADD MLOAD DUP2 SSTORE ADD SWAP6 ADD SWAP4 ADD PUSH2 0x1972 JUMP JUMPDEST SWAP1 SWAP2 POP DUP4 PUSH1 0x0 MSTORE PUSH1 0x20 PUSH1 0x0 KECCAK256 PUSH1 0x1F DUP5 ADD PUSH1 0x5 SHR DUP2 ADD SWAP2 PUSH1 0x20 DUP6 LT PUSH2 0x1A0F JUMPI JUMPDEST SWAP1 PUSH1 0x1F DUP6 SWAP5 SWAP4 SWAP3 ADD PUSH1 0x5 SHR ADD SWAP1 JUMPDEST DUP2 DUP2 LT PUSH2 0x1A00 JUMPI POP PUSH2 0x18B2 JUMP JUMPDEST PUSH1 0x0 DUP2 SSTORE DUP5 SWAP4 POP PUSH1 0x1 ADD PUSH2 0x19F3 JUMP JUMPDEST SWAP1 SWAP2 POP DUP2 SWAP1 PUSH2 0x19E5 JUMP JUMPDEST PUSH1 0x40 MLOAD PUSH3 0x461BCD PUSH1 0xE5 SHL DUP2 MSTORE PUSH1 0x20 PUSH1 0x4 DUP3 ADD MSTORE PUSH1 0x10 PUSH1 0x24 DUP3 ADD MSTORE PUSH16 0x159BDD1A5B99C81B9BDD08195B991959 PUSH1 0x82 SHL PUSH1 0x44 DUP3 ADD MSTORE PUSH1 0x64 SWAP1 REVERT JUMPDEST POP PUSH1 0x9 DUP3 ADD SLOAD PUSH1 0xFF DUP2 PUSH1 0x10 SHR AND PUSH1 0xFF DUP3 PUSH1 0x8 SHR AND ADD SWAP1 PUSH1 0xFF DUP3 GT PUSH2 0xD30 JUMPI PUSH1 0xFF DUP1 SWAP2 AND SWAP2 AND EQ PUSH2 0x1263 JUMP JUMPDEST CALLVALUE PUSH2 0x24D JUMPI PUSH1 0x20 CALLDATASIZE PUSH1 0x3 NOT ADD SLT PUSH2 0x24D JUMPI PUSH1 0x4 CALLDATALOAD PUSH1 0x0 MSTORE PUSH1 0x5 PUSH1 0x20 MSTORE PUSH1 0x40 PUSH1 0x9 DUP2 PUSH1 0x0 KECCAK256 ADD SLOAD PUSH1 0xFF DUP3 MLOAD SWAP2 DUP2 DUP2 PUSH1 0x8 SHR AND DUP4 MSTORE PUSH1 0x10 SHR AND PUSH1 0x20 DUP3 ADD MSTORE RETURN JUMPDEST CALLVALUE PUSH2 0x24D JUMPI PUSH1 0x20 CALLDATASIZE PUSH1 0x3 NOT ADD SLT PUSH2 0x24D JUMPI PUSH1 0x4 CALLDATALOAD PUSH1 0x0 MSTORE PUSH1 0xB PUSH1 0x20 MSTORE PUSH1 0x40 PUSH1 0x0 KECCAK256 PUSH1 0xFF PUSH1 0xB DUP3 ADD SLOAD AND PUSH1 0x9 DUP2 LT ISZERO PUSH2 0x486 JUMPI PUSH1 0x7 PUSH2 0x1AF8 SWAP2 EQ PUSH2 0x4DD3 JUMP JUMPDEST DUP1 SLOAD PUSH1 0x1 SWAP1 SWAP2 ADD SLOAD PUSH1 0x4 CALLDATALOAD PUSH1 0x0 SWAP1 DUP2 MSTORE PUSH1 0x5 PUSH1 0x20 MSTORE PUSH1 0x40 SWAP1 KECCAK256 PUSH1 0xA DUP2 ADD SLOAD SWAP1 SWAP3 PUSH1 0x1 PUSH1 0x1 PUSH1 0xA0 SHL SUB SWAP1 DUP2 AND SWAP3 AND SWAP1 PUSH2 0x1B31 DUP2 ISZERO ISZERO PUSH2 0x4E0E JUMP JUMPDEST PUSH2 0x1B42 PUSH1 0xFF PUSH1 0xB DUP7 ADD SLOAD AND ISZERO PUSH2 0x4D36 JUMP JUMPDEST TIMESTAMP LT PUSH2 0x2085 JUMPI PUSH1 0x0 SWAP1 PUSH1 0x0 SWAP1 PUSH1 0xFF PUSH1 0x9 DUP7 ADD SLOAD AND SWAP2 JUMPDEST DUP3 PUSH1 0xFF DUP3 AND LT PUSH2 0x2021 JUMPI POP PUSH1 0xFF DUP4 AND ISZERO PUSH2 0x1FDC JUMPI PUSH2 0x1B80 PUSH1 0xFF PUSH2 0x1B7A DUP5 PUSH2 0x4E47 JUMP JUMPDEST AND PUSH2 0x4352 JUMP JUMPDEST SWAP4 DUP5 MLOAD ISZERO PUSH2 0x1FC6 JUMPI PUSH1 0x20 DUP6 ADD MSTORE DUP4 MLOAD PUSH1 0x1 LT ISZERO PUSH2 0x1FC6 JUMPI PUSH1 0x40 DUP5 ADD MSTORE PUSH1 0x0 JUMPDEST DUP2 PUSH1 0xFF DUP3 AND LT PUSH2 0x1F89 JUMPI POP POP SWAP1 PUSH1 0x40 MLOAD PUSH1 0x20 DUP2 ADD SWAP1 TIMESTAMP DUP3 MSTORE PUSH1 0x4 CALLDATALOAD PUSH1 0x40 DUP3 ADD MSTORE PUSH1 0xFF PUSH1 0xF8 SHL DUP5 PUSH1 0xF8 SHL AND PUSH1 0x60 DUP3 ADD MSTORE PUSH1 0x41 DUP2 MSTORE PUSH2 0x1BDB DUP2 PUSH2 0x4102 JUMP JUMPDEST MLOAD SWAP1 KECCAK256 SWAP2 PUSH1 0x2 SLOAD SWAP1 PUSH2 0x1BEC DUP3 PUSH2 0x4352 JUMP JUMPDEST SWAP2 PUSH1 0x0 SWAP4 PUSH1 0x0 SWAP2 JUMPDEST DUP1 DUP4 LT PUSH2 0x1ECD JUMPI POP POP POP PUSH1 0xFF DUP2 AND DUP4 LT ISZERO PUSH2 0x1EC7 JUMPI POP PUSH1 0xFF DUP3 AND SWAP2 JUMPDEST PUSH2 0x1C1C PUSH1 0xFF DUP5 AND PUSH2 0x4352 JUMP JUMPDEST SWAP4 PUSH2 0x1C26 DUP3 PUSH2 0x4352 JUMP JUMPDEST SWAP3 PUSH1 0x0 JUMPDEST DUP4 DUP2 LT PUSH2 0x1EA0 JUMPI POP POP PUSH1 0x0 JUMPDEST PUSH1 0xFF DUP6 AND DUP2 LT PUSH2 0x1DF4 JUMPI DUP7 PUSH1 0x0 DUP8 DUP2 JUMPDEST PUSH1 0xFF PUSH1 0x9 DUP6 ADD SLOAD AND PUSH1 0xFF DUP3 AND LT ISZERO PUSH2 0x1D11 JUMPI PUSH1 0x4 CALLDATALOAD PUSH1 0x0 MSTORE PUSH1 0x6 PUSH1 0x20 MSTORE PUSH1 0x40 PUSH1 0x0 KECCAK256 PUSH2 0x1C75 DUP3 PUSH1 0x4 DUP8 ADD PUSH2 0x4D86 JUMP JUMPDEST PUSH1 0x1 DUP1 PUSH1 0xA0 SHL SUB SWAP2 SLOAD SWAP1 PUSH1 0x3 SHL SHR AND PUSH1 0x0 MSTORE PUSH1 0x20 MSTORE PUSH1 0xFF PUSH1 0x40 PUSH1 0x0 KECCAK256 SLOAD AND ISZERO DUP1 PUSH2 0x1D04 JUMPI JUMPDEST PUSH2 0x1CAD JUMPI JUMPDEST PUSH2 0x1CA8 SWAP1 PUSH2 0x4D75 JUMP JUMPDEST PUSH2 0x1C46 JUMP JUMPDEST SWAP2 PUSH2 0x1CA8 SWAP1 PUSH2 0x1CFC SWAP1 PUSH2 0x1431 PUSH1 0x1 PUSH1 0x1 PUSH1 0xA0 SHL SUB PUSH2 0x1CCE PUSH1 0xFF DUP5 AND DUP8 PUSH2 0x43AF JUMP JUMPDEST MLOAD AND PUSH2 0x1CDD DUP8 PUSH1 0x4 DUP11 ADD PUSH2 0x4D86 JUMP JUMPDEST SWAP1 SWAP2 SWAP1 DUP3 SLOAD SWAP1 PUSH1 0x3 SHL SWAP2 PUSH1 0x1 DUP1 PUSH1 0xA0 SHL SUB DUP1 SWAP2 AND DUP4 SHL SWAP3 SHL NOT AND OR SWAP1 SSTORE JUMP JUMPDEST SWAP3 SWAP1 POP PUSH2 0x1C9F JUMP JUMPDEST POP DUP2 MLOAD PUSH1 0xFF DUP5 AND LT PUSH2 0x1C9A JUMP JUMPDEST DUP4 DUP3 PUSH2 0x12C TIMESTAMP ADD SWAP1 DUP2 TIMESTAMP GT PUSH2 0xD30 JUMPI PUSH32 0x3A17C250C2EDD7885BC2D2C7E6A85EF460B5A11CDFCDEF622788B6584AD9D633 SWAP1 DUP3 PUSH1 0xA DUP6 ADD SSTORE PUSH2 0x1D5D PUSH1 0x40 MLOAD SWAP2 PUSH1 0x40 DUP4 MSTORE PUSH1 0x40 DUP4 ADD SWAP1 PUSH2 0x4D96 JUMP JUMPDEST SWAP3 PUSH1 0x20 DUP3 ADD MSTORE DUP1 PUSH1 0x4 CALLDATALOAD SWAP4 SUB SWAP1 LOG2 PUSH1 0xFF PUSH1 0x9 DUP3 ADD SLOAD AND SWAP1 PUSH2 0x1D7D DUP3 PUSH2 0x4352 JUMP JUMPDEST SWAP2 PUSH1 0x0 JUMPDEST PUSH1 0xFF DUP2 AND SWAP1 DUP3 DUP3 LT ISZERO PUSH2 0x1DC6 JUMPI PUSH2 0x1DC1 SWAP2 PUSH2 0x1DBB PUSH2 0x1DA2 DUP4 PUSH1 0x4 DUP9 ADD PUSH2 0x4D86 JUMP JUMPDEST SWAP1 SLOAD PUSH1 0x3 SWAP2 SWAP1 SWAP2 SHL SHR PUSH1 0x1 PUSH1 0x1 PUSH1 0xA0 SHL SUB AND SWAP2 DUP8 PUSH2 0x43AF JUMP JUMPDEST MSTORE PUSH2 0x4D75 JUMP JUMPDEST PUSH2 0x1D81 JUMP JUMPDEST DUP5 PUSH1 0x0 DUP1 MLOAD PUSH1 0x20 PUSH2 0x520B DUP4 CODECOPY DUP2 MLOAD SWAP2 MSTORE PUSH1 0x40 MLOAD PUSH1 0x20 DUP2 MSTORE DUP1 PUSH2 0x1DEF PUSH1 0x4 CALLDATALOAD SWAP5 PUSH1 0x20 DUP4 ADD SWAP1 PUSH2 0x4D96 JUMP JUMPDEST SUB SWAP1 LOG2 STOP JUMPDEST PUSH2 0x1E99 PUSH1 0xFF SWAP2 PUSH2 0x1E37 PUSH2 0x1E31 PUSH1 0x40 MLOAD PUSH1 0x20 DUP2 ADD SWAP1 DUP8 DUP3 MSTORE DUP5 PUSH1 0x40 DUP3 ADD MSTORE PUSH1 0x40 DUP2 MSTORE PUSH2 0x1E1E DUP2 PUSH2 0x4138 JUMP JUMPDEST MLOAD SWAP1 KECCAK256 PUSH2 0x1E2B DUP5 DUP10 PUSH2 0x51DD JUMP JUMPDEST SWAP1 PUSH2 0x51EA JUMP JUMPDEST DUP3 PUSH2 0x4435 JUMP JUMPDEST PUSH2 0x1E74 PUSH1 0x1 PUSH1 0x1 PUSH1 0xA0 SHL SUB PUSH2 0x1E4C DUP5 DUP11 PUSH2 0x43AF JUMP JUMPDEST MLOAD AND SWAP2 PUSH1 0x1 PUSH1 0x1 PUSH1 0xA0 SHL SUB PUSH2 0x1E61 DUP3 DUP12 PUSH2 0x43AF JUMP JUMPDEST MLOAD AND PUSH2 0x1E6D DUP6 DUP12 PUSH2 0x43AF JUMP JUMPDEST MSTORE DUP9 PUSH2 0x43AF JUMP JUMPDEST MSTORE PUSH1 0x1 PUSH1 0x1 PUSH1 0xA0 SHL SUB PUSH2 0x1E87 DUP3 DUP9 PUSH2 0x43AF JUMP JUMPDEST MLOAD AND PUSH2 0x1E93 DUP3 DUP11 PUSH2 0x43AF JUMP JUMPDEST MSTORE PUSH2 0x4384 JUMP JUMPDEST SWAP1 POP PUSH2 0x1C36 JUMP JUMPDEST PUSH2 0x1EC2 SWAP1 PUSH1 0x1 PUSH1 0x1 PUSH1 0xA0 SHL SUB PUSH2 0x1EB6 DUP3 DUP6 PUSH2 0x43AF JUMP JUMPDEST MLOAD AND PUSH2 0x1E93 DUP3 DUP9 PUSH2 0x43AF JUMP JUMPDEST PUSH2 0x1C2A JUMP JUMPDEST SWAP2 PUSH2 0x1C10 JUMP JUMPDEST SWAP1 SWAP2 SWAP6 SWAP3 SWAP7 PUSH2 0x1EDE DUP8 SWAP7 SWAP6 SWAP7 PUSH2 0x515D JUMP JUMPDEST SWAP1 SLOAD PUSH1 0x0 SWAP10 PUSH1 0x3 SWAP3 SWAP1 SWAP3 SHL SHR PUSH1 0x1 PUSH1 0x1 PUSH1 0xA0 SHL SUB AND SWAP5 SWAP1 DUP10 JUMPDEST DUP6 MLOAD DUP2 LT ISZERO PUSH2 0x1F7B JUMPI PUSH1 0x1 PUSH1 0x1 PUSH1 0xA0 SHL SUB PUSH2 0x1F12 DUP3 DUP9 PUSH2 0x43AF JUMP JUMPDEST MLOAD AND DUP8 EQ PUSH2 0x1F28 JUMPI PUSH2 0x1F23 SWAP1 PUSH2 0x4384 JUMP JUMPDEST PUSH2 0x1EF7 JUMP JUMPDEST POP SWAP5 SWAP1 SWAP8 SWAP2 SWAP9 POP PUSH1 0x1 SWAP7 SWAP6 SWAP7 JUMPDEST ISZERO DUP1 PUSH2 0x1F6C JUMPI JUMPDEST PUSH2 0x1F52 JUMPI JUMPDEST POP PUSH2 0x1F4B SWAP1 PUSH2 0x4384 JUMP JUMPDEST SWAP2 SWAP1 PUSH2 0x1BF4 JUMP JUMPDEST DUP7 PUSH2 0x1F65 SWAP2 PUSH2 0x1E93 PUSH2 0x1F4B SWAP5 SWAP10 DUP10 PUSH2 0x43AF JUMP JUMPDEST SWAP6 SWAP1 PUSH2 0x1F41 JUMP JUMPDEST POP PUSH2 0x1F76 DUP2 PUSH2 0x513D JUMP JUMPDEST PUSH2 0x1F3C JUMP JUMPDEST POP SWAP5 SWAP1 SWAP8 SWAP2 SWAP9 SWAP7 SWAP6 SWAP7 PUSH2 0x1F35 JUMP JUMPDEST DUP1 PUSH2 0x1F9A PUSH2 0x1FC1 SWAP3 PUSH1 0x4 DUP9 ADD PUSH2 0x4D86 JUMP JUMPDEST SWAP1 SLOAD PUSH1 0x3 SWAP2 SWAP1 SWAP2 SHL SHR PUSH1 0x1 PUSH1 0x1 PUSH1 0xA0 SHL SUB AND PUSH2 0x1DBB PUSH1 0xFF PUSH2 0x1FBA DUP5 PUSH2 0x4E47 JUMP JUMPDEST AND DUP8 PUSH2 0x43AF JUMP JUMPDEST PUSH2 0x1B9F JUMP JUMPDEST PUSH4 0x4E487B71 PUSH1 0xE0 SHL PUSH1 0x0 MSTORE PUSH1 0x32 PUSH1 0x4 MSTORE PUSH1 0x24 PUSH1 0x0 REVERT JUMPDEST PUSH1 0x40 MLOAD PUSH3 0x461BCD PUSH1 0xE5 SHL DUP2 MSTORE PUSH1 0x20 PUSH1 0x4 DUP3 ADD MSTORE PUSH1 0x1E PUSH1 0x24 DUP3 ADD MSTORE PUSH32 0x416C6C2073656C656374656420766F74657273206861766520766F7465640000 PUSH1 0x44 DUP3 ADD MSTORE PUSH1 0x64 SWAP1 REVERT JUMPDEST PUSH1 0x4 CALLDATALOAD PUSH1 0x0 MSTORE PUSH1 0x6 PUSH1 0x20 MSTORE PUSH1 0x40 PUSH1 0x0 KECCAK256 PUSH2 0x203E DUP3 PUSH1 0x4 DUP10 ADD PUSH2 0x4D86 JUMP JUMPDEST PUSH1 0x1 DUP1 PUSH1 0xA0 SHL SUB SWAP2 SLOAD SWAP1 PUSH1 0x3 SHL SHR AND PUSH1 0x0 MSTORE PUSH1 0x20 MSTORE PUSH1 0xFF PUSH1 0x40 PUSH1 0x0 KECCAK256 SLOAD AND ISZERO PUSH2 0x2070 JUMPI JUMPDEST PUSH2 0x206B SWAP1 PUSH2 0x4D75 JUMP JUMPDEST PUSH2 0x1B58 JUMP JUMPDEST SWAP3 PUSH2 0x207D PUSH2 0x206B SWAP2 PUSH2 0x4D75 JUMP JUMPDEST SWAP4 SWAP1 POP PUSH2 0x2062 JUMP JUMPDEST PUSH1 0x40 MLOAD PUSH3 0x461BCD PUSH1 0xE5 SHL DUP2 MSTORE PUSH1 0x20 PUSH1 0x4 DUP3 ADD MSTORE PUSH1 0x13 PUSH1 0x24 DUP3 ADD MSTORE PUSH19 0x111958591B1A5B99481B9BDD081C185CDCD959 PUSH1 0x6A SHL PUSH1 0x44 DUP3 ADD MSTORE PUSH1 0x64 SWAP1 REVERT JUMPDEST PUSH2 0x4237 JUMP JUMPDEST CALLVALUE PUSH2 0x24D JUMPI PUSH1 0x20 CALLDATASIZE PUSH1 0x3 NOT ADD SLT PUSH2 0x24D JUMPI PUSH1 0x1 PUSH1 0x1 PUSH1 0xA0 SHL SUB PUSH2 0x20E6 PUSH2 0x4028 JUMP JUMPDEST AND PUSH1 0x0 MSTORE PUSH1 0x4 PUSH1 0x20 MSTORE PUSH2 0x2107 PUSH1 0xFF PUSH1 0x40 PUSH1 0x0 KECCAK256 SLOAD AND PUSH1 0x40 MLOAD SWAP2 DUP3 SWAP2 DUP3 PUSH2 0x42E7 JUMP JUMPDEST SUB SWAP1 RETURN JUMPDEST PUSH1 0x20 DUP1 PUSH1 0x3 NOT CALLDATASIZE ADD SLT PUSH2 0x24D JUMPI PUSH1 0x4 CALLDATALOAD PUSH1 0x0 MSTORE PUSH1 0xB DUP2 MSTORE PUSH1 0x40 PUSH1 0x0 KECCAK256 CALLER PUSH1 0x0 MSTORE PUSH1 0x4 DUP3 MSTORE PUSH1 0xFF PUSH1 0x40 PUSH1 0x0 KECCAK256 SLOAD AND PUSH1 0x3 DUP2 LT ISZERO PUSH2 0x486 JUMPI PUSH1 0x1 PUSH2 0x214D SWAP2 EQ PUSH2 0x43C3 JUMP JUMPDEST DUP1 SLOAD PUSH1 0x1 PUSH1 0x1 PUSH1 0xA0 SHL SUB AND CALLER SUB PUSH2 0x21FB JUMPI PUSH1 0xB DUP2 ADD SWAP1 DUP2 SLOAD SWAP1 PUSH1 0xFF DUP3 AND PUSH1 0x9 DUP2 LT ISZERO PUSH2 0x486 JUMPI PUSH2 0x21C8 JUMPI PUSH1 0x2 DUP2 ADD SLOAD CALLVALUE SUB PUSH2 0x2194 JUMPI TIMESTAMP PUSH1 0x8 SWAP1 SWAP2 ADD SSTORE PUSH1 0xFF NOT AND PUSH1 0x1 OR SWAP1 SSTORE STOP JUMPDEST PUSH1 0x40 MLOAD PUSH3 0x461BCD PUSH1 0xE5 SHL DUP2 MSTORE PUSH1 0x4 DUP2 ADD DUP6 SWAP1 MSTORE PUSH1 0xC PUSH1 0x24 DUP3 ADD MSTORE PUSH12 0x15DC9BDB99C8185B5BDD5B9D PUSH1 0xA2 SHL PUSH1 0x44 DUP3 ADD MSTORE PUSH1 0x64 SWAP1 REVERT JUMPDEST PUSH1 0x40 MLOAD PUSH3 0x461BCD PUSH1 0xE5 SHL DUP2 MSTORE PUSH1 0x4 DUP2 ADD DUP6 SWAP1 MSTORE PUSH1 0xB PUSH1 0x24 DUP3 ADD MSTORE PUSH11 0x139BDD0810DC99585D1959 PUSH1 0xAA SHL PUSH1 0x44 DUP3 ADD MSTORE PUSH1 0x64 SWAP1 REVERT JUMPDEST PUSH1 0x40 MLOAD PUSH3 0x461BCD PUSH1 0xE5 SHL DUP2 MSTORE PUSH1 0x4 DUP2 ADD DUP4 SWAP1 MSTORE PUSH1 0x9 PUSH1 0x24 DUP3 ADD MSTORE PUSH9 0x2737BA1037BBB732B9 PUSH1 0xB9 SHL PUSH1 0x44 DUP3 ADD MSTORE PUSH1 0x64 SWAP1 REVERT JUMPDEST CALLVALUE PUSH2 0x24D JUMPI PUSH1 0x40 CALLDATASIZE PUSH1 0x3 NOT ADD SLT PUSH2 0x24D JUMPI PUSH2 0x2245 PUSH2 0x4028 JUMP JUMPDEST PUSH1 0x24 CALLDATALOAD SWAP1 PUSH1 0xD DUP3 LT ISZERO PUSH2 0x24D JUMPI PUSH1 0x1 DUP1 PUSH1 0xA0 SHL SUB AND PUSH1 0x0 MSTORE PUSH1 0x9 PUSH1 0x20 MSTORE PUSH1 0x40 PUSH1 0x0 KECCAK256 SWAP1 PUSH1 0x0 MSTORE PUSH1 0x20 MSTORE PUSH1 0x20 PUSH1 0x40 PUSH1 0x0 KECCAK256 SLOAD PUSH1 0x40 MLOAD SWAP1 DUP2 MSTORE RETURN JUMPDEST CALLVALUE PUSH2 0x24D JUMPI PUSH1 0x20 CALLDATASIZE PUSH1 0x3 NOT ADD SLT PUSH2 0x24D JUMPI PUSH1 0x20 PUSH2 0x22A1 PUSH2 0x229C PUSH2 0x4028 JUMP JUMPDEST PUSH2 0x4CAA JUMP JUMPDEST PUSH1 0x40 MLOAD SWAP1 DUP2 MSTORE RETURN JUMPDEST CALLVALUE PUSH2 0x24D JUMPI PUSH1 0x60 CALLDATASIZE PUSH1 0x3 NOT ADD SLT PUSH2 0x24D JUMPI PUSH1 0x24 CALLDATALOAD PUSH1 0xFF DUP2 AND DUP2 SUB PUSH2 0x24D JUMPI PUSH1 0x44 CALLDATALOAD PUSH1 0x1 PUSH1 0x1 PUSH1 0x40 SHL SUB DUP2 GT PUSH2 0x24D JUMPI PUSH2 0x22E6 SWAP1 CALLDATASIZE SWAP1 PUSH1 0x4 ADD PUSH2 0x426E JUMP JUMPDEST SWAP1 PUSH1 0x4 CALLDATALOAD PUSH1 0x0 MSTORE PUSH1 0xB PUSH1 0x20 MSTORE PUSH1 0x40 PUSH1 0x0 KECCAK256 SWAP2 PUSH1 0x1 DUP1 PUSH1 0xA0 SHL SUB DUP4 SLOAD AND PUSH2 0x230D DUP2 CALLER EQ PUSH2 0x43C3 JUMP JUMPDEST PUSH1 0xB DUP5 ADD DUP1 SLOAD PUSH1 0xFF DUP2 AND PUSH1 0x9 DUP2 LT ISZERO PUSH2 0x486 JUMPI PUSH1 0x4 PUSH2 0x232C SWAP2 EQ PUSH2 0x4826 JUMP JUMPDEST PUSH1 0x1 PUSH1 0xFF DUP7 AND LT ISZERO DUP1 PUSH2 0x2B8F JUMPI JUMPDEST ISZERO PUSH2 0x2B59 JUMPI PUSH1 0xFF NOT AND PUSH1 0x5 OR SWAP1 SSTORE PUSH1 0x40 MLOAD PUSH2 0x2354 DUP2 PUSH2 0x4138 JUMP JUMPDEST PUSH1 0x22 DUP2 MSTORE PUSH32 0x52656C6961626C6520636C69656E74207769746820636C65616E20686973746F PUSH1 0x20 DUP3 ADD MSTORE PUSH2 0x7279 PUSH1 0xF0 SHL PUSH1 0x40 DUP3 ADD MSTORE DUP2 PUSH1 0x0 MSTORE PUSH1 0x8 PUSH1 0x20 MSTORE PUSH1 0x40 PUSH1 0x0 KECCAK256 PUSH1 0x40 MLOAD SWAP2 PUSH2 0x23A4 DUP4 PUSH2 0x4102 JUMP JUMPDEST PUSH1 0xB DUP4 MSTORE PUSH1 0x4 CALLDATALOAD PUSH1 0x20 DUP5 ADD MSTORE TIMESTAMP PUSH1 0x40 DUP5 ADD MSTORE PUSH1 0x60 DUP4 ADD MSTORE DUP1 SLOAD PUSH1 0x1 PUSH1 0x40 SHL DUP2 LT ISZERO PUSH2 0x3FE JUMPI PUSH2 0x23D8 SWAP2 PUSH1 0x1 DUP3 ADD DUP2 SSTORE PUSH2 0x4393 JUMP JUMPDEST SWAP2 SWAP1 SWAP2 PUSH2 0xE07 JUMPI DUP1 MLOAD SWAP1 PUSH1 0xD DUP3 LT ISZERO PUSH2 0x486 JUMPI PUSH1 0x60 SWAP2 PUSH1 0xFF DUP1 NOT DUP6 SLOAD AND SWAP2 AND OR DUP4 SSTORE PUSH1 0x20 DUP2 ADD MLOAD PUSH1 0x1 DUP5 ADD SSTORE PUSH1 0x40 DUP2 ADD MLOAD PUSH1 0x2 DUP5 ADD SSTORE ADD MLOAD DUP1 MLOAD SWAP1 PUSH1 0x1 DUP1 PUSH1 0x40 SHL SUB DUP3 GT PUSH2 0x3FE JUMPI PUSH2 0x242D PUSH1 0x3 DUP5 ADD SLOAD PUSH2 0x40C8 JUMP JUMPDEST PUSH1 0x1F DUP2 GT PUSH2 0x2B12 JUMPI JUMPDEST POP PUSH1 0x20 SWAP1 PUSH1 0x1F DUP4 GT PUSH1 0x1 EQ PUSH2 0x2AA3 JUMPI PUSH1 0x3 SWAP3 SWAP2 PUSH1 0x0 SWAP2 DUP4 PUSH2 0x2A98 JUMPI JUMPDEST POP POP DUP2 PUSH1 0x1 SHL SWAP2 PUSH1 0x0 NOT SWAP1 DUP5 SHL SHR NOT AND OR SWAP2 ADD SSTORE JUMPDEST DUP1 PUSH1 0x0 MSTORE PUSH1 0x9 PUSH1 0x20 MSTORE PUSH1 0x40 PUSH1 0x0 KECCAK256 PUSH1 0xB PUSH1 0x0 MSTORE PUSH1 0x20 MSTORE PUSH1 0x40 PUSH1 0x0 KECCAK256 SWAP1 DUP2 SLOAD SWAP2 PUSH1 0x1 DUP4 ADD DUP4 GT PUSH2 0xD30 JUMPI PUSH1 0x1 PUSH1 0xB SWAP4 ADD SWAP1 SSTORE PUSH1 0x0 DUP1 MLOAD PUSH1 0x20 PUSH2 0x522B DUP4 CODECOPY DUP2 MLOAD SWAP2 MSTORE PUSH1 0x20 PUSH1 0x40 MLOAD PUSH1 0x4 CALLDATALOAD DUP2 MSTORE LOG3 PUSH2 0x24E7 PUSH1 0x40 MLOAD PUSH2 0x24C1 DUP2 PUSH2 0x4153 JUMP JUMPDEST PUSH1 0x13 DUP2 MSTORE PUSH19 0x31B634B2B73A2FB0B8383937BB32B22FB537B1 PUSH1 0x69 SHL PUSH1 0x20 DUP3 ADD MSTORE CALLER PUSH2 0x4F72 JUMP JUMPDEST PUSH1 0x4 PUSH1 0xFF DUP4 AND LT PUSH2 0x276B JUMPI PUSH1 0x1 DUP4 ADD DUP1 SLOAD PUSH2 0x2546 SWAP2 SWAP1 PUSH2 0x2512 SWAP1 PUSH1 0x1 PUSH1 0x1 PUSH1 0xA0 SHL SUB AND PUSH2 0x16F8 PUSH2 0x4862 JUMP JUMPDEST SLOAD PUSH1 0x40 MLOAD SWAP1 PUSH1 0x1 PUSH1 0x1 PUSH1 0xA0 SHL SUB AND PUSH2 0x2529 DUP3 PUSH2 0x4153 JUMP JUMPDEST PUSH1 0xB DUP3 MSTORE PUSH11 0x676F6F645F726174696E67 PUSH1 0xA8 SHL PUSH1 0x20 DUP4 ADD MSTORE PUSH2 0x4F72 JUMP JUMPDEST PUSH1 0x1 DUP4 ADD SLOAD PUSH1 0x40 MLOAD SWAP2 SWAP1 PUSH1 0x1 PUSH1 0x1 PUSH1 0xA0 SHL SUB AND PUSH2 0x2562 DUP4 PUSH2 0x4102 JUMP JUMPDEST CALLER DUP4 MSTORE PUSH1 0x20 DUP1 DUP5 ADD SWAP2 DUP3 MSTORE PUSH1 0xFF DUP6 AND PUSH1 0x40 DUP1 DUP7 ADD SWAP2 DUP3 MSTORE PUSH1 0x60 DUP7 ADD SWAP5 DUP6 MSTORE PUSH1 0x4 CALLDATALOAD PUSH1 0x0 SWAP1 DUP2 MSTORE PUSH1 0xC SWAP1 SWAP4 MSTORE SWAP1 SWAP2 KECCAK256 SWAP4 MLOAD DUP5 SLOAD PUSH1 0x1 PUSH1 0x1 PUSH1 0xA0 SHL SUB NOT AND PUSH1 0x1 PUSH1 0x1 PUSH1 0xA0 SHL SUB SWAP2 DUP3 AND OR DUP6 SSTORE SWAP2 MLOAD PUSH1 0x1 DUP6 ADD DUP1 SLOAD SWAP3 MLOAD PUSH1 0x1 PUSH1 0x1 PUSH1 0xA8 SHL SUB NOT SWAP1 SWAP4 AND SWAP2 SWAP1 SWAP4 AND OR PUSH1 0xA0 SWAP2 SWAP1 SWAP2 SHL PUSH1 0xFF PUSH1 0xA0 SHL AND OR SWAP1 SSTORE MLOAD DUP1 MLOAD SWAP1 PUSH1 0x1 PUSH1 0x1 PUSH1 0x40 SHL SUB DUP3 GT PUSH2 0x3FE JUMPI PUSH2 0x25F5 PUSH1 0x2 DUP5 ADD SLOAD PUSH2 0x40C8 JUMP JUMPDEST PUSH1 0x1F DUP2 GT PUSH2 0x2724 JUMPI JUMPDEST POP PUSH1 0x20 SWAP1 PUSH1 0x1F DUP4 GT PUSH1 0x1 EQ PUSH2 0x26B6 JUMPI PUSH1 0x2 SWAP3 SWAP2 PUSH1 0x0 SWAP2 DUP4 PUSH2 0x26AB JUMPI JUMPDEST POP POP DUP2 PUSH1 0x1 SHL SWAP2 PUSH1 0x0 NOT SWAP1 PUSH1 0x3 SHL SHR NOT AND OR SWAP2 ADD SSTORE JUMPDEST PUSH1 0x1 DUP1 PUSH1 0xA0 SHL SUB PUSH1 0x1 DUP4 ADD SLOAD AND PUSH1 0x0 MSTORE PUSH1 0xD PUSH1 0x20 MSTORE PUSH2 0x2658 PUSH1 0xFF PUSH1 0x40 PUSH1 0x0 KECCAK256 SWAP3 AND DUP3 SLOAD PUSH2 0x4435 JUMP JUMPDEST SWAP1 SSTORE PUSH1 0x1 DUP1 PUSH1 0xA0 SHL SUB PUSH1 0x1 DUP3 ADD SLOAD AND PUSH1 0x0 MSTORE PUSH1 0xE PUSH1 0x20 MSTORE PUSH1 0x40 PUSH1 0x0 KECCAK256 DUP1 SLOAD SWAP2 PUSH1 0x1 DUP4 ADD DUP1 SWAP4 GT PUSH2 0xD30 JUMPI PUSH1 0x0 DUP1 DUP1 DUP1 SWAP4 DUP7 PUSH2 0x10FE SWAP7 SSTORE PUSH1 0x2 PUSH1 0x1 DUP1 PUSH1 0xA0 SHL SUB PUSH1 0x1 DUP4 ADD SLOAD AND SWAP2 ADD SLOAD SWAP1 GAS CALL PUSH2 0x10F8 PUSH2 0x44F8 JUMP JUMPDEST ADD MLOAD SWAP1 POP DUP7 DUP1 PUSH2 0x261A JUMP JUMPDEST SWAP1 PUSH1 0x1F NOT DUP4 AND SWAP2 PUSH1 0x2 DUP6 ADD PUSH1 0x0 MSTORE PUSH1 0x20 PUSH1 0x0 KECCAK256 SWAP3 PUSH1 0x0 JUMPDEST DUP2 DUP2 LT PUSH2 0x270C JUMPI POP SWAP2 PUSH1 0x1 SWAP4 SWAP2 DUP6 PUSH1 0x2 SWAP7 SWAP5 LT PUSH2 0x26F3 JUMPI JUMPDEST POP POP POP DUP2 SHL ADD SWAP2 ADD SSTORE PUSH2 0x2630 JUMP JUMPDEST ADD MLOAD PUSH1 0x0 NOT PUSH1 0xF8 DUP5 PUSH1 0x3 SHL AND SHR NOT AND SWAP1 SSTORE DUP7 DUP1 DUP1 PUSH2 0x26E5 JUMP JUMPDEST SWAP3 SWAP4 PUSH1 0x20 PUSH1 0x1 DUP2 SWAP3 DUP8 DUP7 ADD MLOAD DUP2 SSTORE ADD SWAP6 ADD SWAP4 ADD PUSH2 0x26CD JUMP JUMPDEST PUSH1 0x2 DUP5 ADD PUSH1 0x0 MSTORE PUSH1 0x20 PUSH1 0x0 KECCAK256 PUSH1 0x1F DUP5 ADD PUSH1 0x5 SHR DUP2 ADD PUSH1 0x20 DUP6 LT PUSH2 0x2764 JUMPI JUMPDEST PUSH1 0x1F DUP4 ADD PUSH1 0x5 SHR DUP3 ADD DUP2 LT PUSH2 0x2758 JUMPI POP POP PUSH2 0x25FE JUMP JUMPDEST PUSH1 0x0 DUP2 SSTORE PUSH1 0x1 ADD PUSH2 0x2742 JUMP JUMPDEST POP DUP1 PUSH2 0x2742 JUMP JUMPDEST PUSH1 0x2 PUSH1 0xFF DUP4 AND GT PUSH2 0x2A79 JUMPI PUSH1 0x1 DUP4 ADD SLOAD PUSH2 0x2790 SWAP1 PUSH1 0x1 PUSH1 0x1 PUSH1 0xA0 SHL SUB AND PUSH2 0x16F8 PUSH2 0x4862 JUMP JUMPDEST PUSH1 0x1 DUP1 PUSH1 0xA0 SHL SUB PUSH1 0x1 DUP5 ADD SLOAD AND PUSH1 0x40 MLOAD PUSH2 0x27A9 DUP2 PUSH2 0x4153 JUMP JUMPDEST PUSH1 0xA DUP2 MSTORE PUSH10 0x6261645F726174696E67 PUSH1 0xB0 SHL PUSH1 0x20 DUP3 ADD MSTORE DUP2 PUSH1 0x0 MSTORE PUSH1 0x0 PUSH1 0x20 MSTORE PUSH1 0xFF PUSH1 0x40 PUSH1 0x0 KECCAK256 SLOAD AND SWAP1 DUP2 PUSH1 0x7 LT ISZERO PUSH1 0x0 EQ PUSH2 0x2A4F JUMPI PUSH1 0x0 DUP1 MLOAD PUSH1 0x20 PUSH2 0x524B DUP4 CODECOPY DUP2 MLOAD SWAP2 MSTORE SWAP2 PUSH2 0x281D PUSH1 0x0 SWAP3 JUMPDEST DUP6 PUSH1 0x0 MSTORE PUSH1 0x0 PUSH1 0x20 MSTORE PUSH1 0x40 PUSH1 0x0 KECCAK256 PUSH1 0xFF DUP6 AND PUSH1 0xFF NOT DUP3 SLOAD AND OR SWAP1 SSTORE PUSH1 0x40 MLOAD SWAP4 DUP5 SWAP4 DUP5 PUSH2 0x4F51 JUMP JUMPDEST SUB SWAP1 LOG2 PUSH1 0x1 DUP1 PUSH1 0xA0 SHL SUB PUSH1 0x1 DUP5 ADD SLOAD AND PUSH1 0x40 MLOAD PUSH2 0x2839 DUP2 PUSH2 0x4153 JUMP JUMPDEST PUSH1 0x1B DUP2 MSTORE PUSH27 0x52656365697665642031206F722032207374617220726174696E67 PUSH1 0x28 SHL PUSH1 0x20 DUP3 ADD MSTORE DUP2 PUSH1 0x0 MSTORE PUSH1 0x8 PUSH1 0x20 MSTORE PUSH1 0x40 PUSH1 0x0 KECCAK256 PUSH1 0x40 MLOAD SWAP2 PUSH2 0x287C DUP4 PUSH2 0x4102 JUMP JUMPDEST PUSH1 0x1 DUP4 MSTORE PUSH1 0x4 CALLDATALOAD PUSH1 0x20 DUP5 ADD MSTORE TIMESTAMP PUSH1 0x40 DUP5 ADD MSTORE PUSH1 0x60 DUP4 ADD MSTORE DUP1 SLOAD PUSH1 0x1 PUSH1 0x40 SHL DUP2 LT ISZERO PUSH2 0x3FE JUMPI PUSH2 0x28B0 SWAP2 PUSH1 0x1 DUP3 ADD DUP2 SSTORE PUSH2 0x4393 JUMP JUMPDEST SWAP2 SWAP1 SWAP2 PUSH2 0xE07 JUMPI DUP1 MLOAD SWAP1 PUSH1 0xD DUP3 LT ISZERO PUSH2 0x486 JUMPI PUSH1 0x60 SWAP2 PUSH1 0xFF DUP1 NOT DUP6 SLOAD AND SWAP2 AND OR DUP4 SSTORE PUSH1 0x20 DUP2 ADD MLOAD PUSH1 0x1 DUP5 ADD SSTORE PUSH1 0x40 DUP2 ADD MLOAD PUSH1 0x2 DUP5 ADD SSTORE ADD MLOAD DUP1 MLOAD SWAP1 PUSH1 0x1 DUP1 PUSH1 0x40 SHL SUB DUP3 GT PUSH2 0x3FE JUMPI PUSH2 0x2905 PUSH1 0x3 DUP5 ADD SLOAD PUSH2 0x40C8 JUMP JUMPDEST PUSH1 0x1F DUP2 GT PUSH2 0x2A08 JUMPI JUMPDEST POP PUSH1 0x20 SWAP1 PUSH1 0x1F DUP4 GT PUSH1 0x1 EQ PUSH2 0x2999 JUMPI PUSH1 0x3 SWAP3 SWAP2 PUSH1 0x0 SWAP2 DUP4 PUSH2 0x298E JUMPI JUMPDEST POP POP DUP2 PUSH1 0x1 SHL SWAP2 PUSH1 0x0 NOT SWAP1 DUP5 SHL SHR NOT AND OR SWAP2 ADD SSTORE JUMPDEST DUP1 PUSH1 0x0 MSTORE PUSH1 0x9 PUSH1 0x20 MSTORE PUSH1 0x40 PUSH1 0x0 KECCAK256 PUSH1 0x1 PUSH1 0x0 MSTORE PUSH1 0x20 MSTORE PUSH1 0x40 PUSH1 0x0 KECCAK256 SWAP1 DUP2 SLOAD SWAP2 PUSH1 0x1 DUP4 ADD DUP4 GT PUSH2 0xD30 JUMPI PUSH1 0x1 DUP1 SWAP4 ADD SWAP1 SSTORE PUSH1 0x0 DUP1 MLOAD PUSH1 0x20 PUSH2 0x522B DUP4 CODECOPY DUP2 MLOAD SWAP2 MSTORE PUSH1 0x20 PUSH1 0x40 MLOAD PUSH1 0x4 CALLDATALOAD DUP2 MSTORE LOG3 PUSH2 0x2546 JUMP JUMPDEST ADD MLOAD SWAP1 POP DUP9 DUP1 PUSH2 0x292A JUMP JUMPDEST SWAP1 PUSH1 0x3 DUP5 ADD PUSH1 0x0 MSTORE PUSH1 0x20 PUSH1 0x0 KECCAK256 SWAP2 PUSH1 0x0 JUMPDEST PUSH1 0x1F NOT DUP6 AND DUP2 LT PUSH2 0x29F0 JUMPI POP SWAP2 DUP4 SWAP2 PUSH1 0x1 SWAP4 PUSH1 0x3 SWAP6 PUSH1 0x1F NOT DUP2 AND LT PUSH2 0x29D8 JUMPI JUMPDEST POP POP POP DUP2 SHL ADD SWAP2 ADD SSTORE PUSH2 0x293F JUMP JUMPDEST ADD MLOAD PUSH1 0x0 NOT DUP4 DUP7 SHL PUSH1 0xF8 AND SHR NOT AND SWAP1 SSTORE DUP9 DUP1 DUP1 PUSH2 0x29CA JUMP JUMPDEST SWAP2 SWAP3 PUSH1 0x20 PUSH1 0x1 DUP2 SWAP3 DUP7 DUP6 ADD MLOAD DUP2 SSTORE ADD SWAP5 ADD SWAP3 ADD PUSH2 0x29AA JUMP JUMPDEST PUSH1 0x3 DUP5 ADD PUSH1 0x0 MSTORE PUSH1 0x20 PUSH1 0x0 KECCAK256 PUSH1 0x1F DUP5 ADD PUSH1 0x5 SHR DUP2 ADD PUSH1 0x20 DUP6 LT PUSH2 0x2A48 JUMPI JUMPDEST PUSH1 0x1F DUP4 ADD PUSH1 0x5 SHR DUP3 ADD DUP2 LT PUSH2 0x2A3C JUMPI POP POP PUSH2 0x290E JUMP JUMPDEST PUSH1 0x0 DUP2 SSTORE PUSH1 0x1 ADD PUSH2 0x2A26 JUMP JUMPDEST POP DUP1 PUSH2 0x2A26 JUMP JUMPDEST PUSH1 0xFF PUSH1 0x6 NOT DUP4 ADD GT PUSH2 0xD30 JUMPI PUSH1 0x0 DUP1 MLOAD PUSH1 0x20 PUSH2 0x524B DUP4 CODECOPY DUP2 MLOAD SWAP2 MSTORE SWAP2 PUSH2 0x281D PUSH1 0x6 NOT DUP3 ADD SWAP3 PUSH2 0x27F6 JUMP JUMPDEST PUSH1 0x1 DUP4 ADD SLOAD PUSH2 0x2A93 SWAP1 PUSH1 0x1 PUSH1 0x1 PUSH1 0xA0 SHL SUB AND PUSH2 0x16F8 PUSH2 0x4862 JUMP JUMPDEST PUSH2 0x2546 JUMP JUMPDEST ADD MLOAD SWAP1 POP DUP9 DUP1 PUSH2 0x2452 JUMP JUMPDEST SWAP1 PUSH1 0x3 DUP5 ADD PUSH1 0x0 MSTORE PUSH1 0x20 PUSH1 0x0 KECCAK256 SWAP2 PUSH1 0x0 JUMPDEST PUSH1 0x1F NOT DUP6 AND DUP2 LT PUSH2 0x2AFA JUMPI POP SWAP2 DUP4 SWAP2 PUSH1 0x1 SWAP4 PUSH1 0x3 SWAP6 PUSH1 0x1F NOT DUP2 AND LT PUSH2 0x2AE2 JUMPI JUMPDEST POP POP POP DUP2 SHL ADD SWAP2 ADD SSTORE PUSH2 0x2467 JUMP JUMPDEST ADD MLOAD PUSH1 0x0 NOT DUP4 DUP7 SHL PUSH1 0xF8 AND SHR NOT AND SWAP1 SSTORE DUP9 DUP1 DUP1 PUSH2 0x2AD4 JUMP JUMPDEST SWAP2 SWAP3 PUSH1 0x20 PUSH1 0x1 DUP2 SWAP3 DUP7 DUP6 ADD MLOAD DUP2 SSTORE ADD SWAP5 ADD SWAP3 ADD PUSH2 0x2AB4 JUMP JUMPDEST PUSH1 0x3 DUP5 ADD PUSH1 0x0 MSTORE PUSH1 0x20 PUSH1 0x0 KECCAK256 PUSH1 0x1F DUP5 ADD PUSH1 0x5 SHR DUP2 ADD PUSH1 0x20 DUP6 LT PUSH2 0x2B52 JUMPI JUMPDEST PUSH1 0x1F DUP4 ADD PUSH1 0x5 SHR DUP3 ADD DUP2 LT PUSH2 0x2B46 JUMPI POP POP PUSH2 0x2436 JUMP JUMPDEST PUSH1 0x0 DUP2 SSTORE PUSH1 0x1 ADD PUSH2 0x2B30 JUMP JUMPDEST POP DUP1 PUSH2 0x2B30 JUMP JUMPDEST PUSH1 0x40 MLOAD PUSH3 0x461BCD PUSH1 0xE5 SHL DUP2 MSTORE PUSH1 0x20 PUSH1 0x4 DUP3 ADD MSTORE PUSH1 0xE PUSH1 0x24 DUP3 ADD MSTORE PUSH14 0x496E76616C696420726174696E67 PUSH1 0x90 SHL PUSH1 0x44 DUP3 ADD MSTORE PUSH1 0x64 SWAP1 REVERT JUMPDEST POP PUSH1 0x5 PUSH1 0xFF DUP7 AND GT ISZERO PUSH2 0x233A JUMP JUMPDEST CALLVALUE PUSH2 0x24D JUMPI PUSH1 0x0 CALLDATASIZE PUSH1 0x3 NOT ADD SLT PUSH2 0x24D JUMPI CALLER PUSH1 0x0 MSTORE PUSH1 0x4 PUSH1 0x20 MSTORE PUSH2 0x2107 PUSH1 0xFF PUSH1 0x40 PUSH1 0x0 KECCAK256 SLOAD AND PUSH1 0x40 MLOAD SWAP2 DUP3 SWAP2 DUP3 PUSH2 0x42E7 JUMP JUMPDEST CALLVALUE PUSH2 0x24D JUMPI PUSH1 0x0 CALLDATASIZE PUSH1 0x3 NOT ADD SLT PUSH2 0x24D JUMPI CALLER PUSH1 0x0 MSTORE PUSH1 0x4 PUSH1 0x20 MSTORE PUSH1 0xFF PUSH1 0x40 PUSH1 0x0 KECCAK256 SLOAD AND PUSH1 0x3 DUP2 LT ISZERO PUSH2 0x486 JUMPI PUSH2 0x2C05 SWAP1 ISZERO PUSH2 0x42FA JUMP JUMPDEST CALLER PUSH1 0x0 MSTORE PUSH1 0x4 PUSH1 0x20 MSTORE PUSH1 0x40 PUSH1 0x0 KECCAK256 PUSH1 0x1 PUSH1 0xFF NOT DUP3 SLOAD AND OR SWAP1 SSTORE PUSH2 0x2C27 CALLER PUSH2 0x4EA7 JUMP JUMPDEST PUSH2 0x10FE CALLER PUSH2 0x5178 JUMP JUMPDEST CALLVALUE PUSH2 0x24D JUMPI PUSH1 0x20 CALLDATASIZE PUSH1 0x3 NOT ADD SLT PUSH2 0x24D JUMPI PUSH1 0x1 PUSH1 0x1 PUSH1 0xA0 SHL SUB PUSH2 0x2C51 PUSH2 0x4028 JUMP JUMPDEST AND PUSH1 0x0 MSTORE PUSH1 0x9 PUSH1 0x20 MSTORE PUSH1 0x40 PUSH1 0x0 KECCAK256 PUSH1 0x9 PUSH1 0x0 MSTORE PUSH1 0x20 MSTORE PUSH1 0x20 PUSH1 0x40 PUSH1 0x0 KECCAK256 SLOAD ISZERO ISZERO PUSH1 0x40 MLOAD SWAP1 DUP2 MSTORE RETURN JUMPDEST CALLVALUE PUSH2 0x24D JUMPI PUSH1 0x20 DUP1 PUSH1 0x3 NOT CALLDATASIZE ADD SLT PUSH2 0x24D JUMPI PUSH1 0x4 CALLDATALOAD SWAP1 DUP2 PUSH1 0x0 MSTORE PUSH1 0xB DUP2 MSTORE PUSH1 0x40 PUSH1 0x0 KECCAK256 SWAP2 PUSH1 0xB DUP4 ADD SWAP1 DUP2 SLOAD SWAP2 PUSH1 0xFF DUP4 AND PUSH1 0x9 DUP2 LT ISZERO PUSH2 0x486 JUMPI PUSH1 0x3 SUB PUSH2 0x2F1D JUMPI PUSH2 0x2CD7 PUSH2 0x2CCF PUSH1 0x4 DUP8 ADD SLOAD PUSH1 0x5 DUP9 ADD SLOAD SWAP1 PUSH2 0x4435 JUMP JUMPDEST TIMESTAMP LT ISZERO PUSH2 0x44C0 JUMP JUMPDEST PUSH1 0x6 PUSH1 0xFF NOT DUP1 SWAP5 AND OR SWAP1 SSTORE PUSH1 0x1 SWAP3 DUP4 DUP6 ADD SWAP5 PUSH1 0x1 DUP1 PUSH1 0xA0 SHL SUB DUP7 PUSH2 0x2D27 DUP3 DUP1 SWAP10 SLOAD AND PUSH1 0x40 MLOAD SWAP1 PUSH2 0x2D06 DUP3 PUSH2 0x4153 JUMP JUMPDEST PUSH1 0x10 DUP3 MSTORE PUSH16 0x1DDBDC9AD95C97D858985B991BDB9959 PUSH1 0x82 SHL DUP8 DUP4 ADD MSTORE PUSH2 0x50B0 JUMP JUMPDEST SLOAD AND SWAP4 PUSH2 0x2D32 PUSH2 0x47DF JUMP JUMPDEST SWAP1 DUP6 PUSH1 0x0 MSTORE PUSH1 0x8 DUP5 MSTORE PUSH1 0x40 PUSH1 0x0 KECCAK256 PUSH1 0x40 MLOAD SWAP1 PUSH2 0x2D4D DUP3 PUSH2 0x4102 JUMP JUMPDEST PUSH1 0x0 DUP3 MSTORE DUP6 DUP3 ADD DUP8 DUP2 MSTORE PUSH1 0x40 DUP4 ADD SWAP2 TIMESTAMP DUP4 MSTORE PUSH1 0x60 DUP5 ADD SWAP6 DUP7 MSTORE DUP1 SLOAD PUSH1 0x1 PUSH1 0x40 SHL DUP2 LT ISZERO PUSH2 0x3FE JUMPI PUSH2 0x2D82 SWAP2 DUP13 DUP3 ADD DUP2 SSTORE PUSH2 0x4393 JUMP JUMPDEST SWAP4 SWAP1 SWAP4 PUSH2 0xE07 JUMPI MLOAD PUSH1 0xD DUP2 LT ISZERO PUSH2 0x486 JUMPI PUSH1 0xFF PUSH1 0x3 SWAP6 DUP6 SLOAD AND SWAP2 AND OR DUP4 SSTORE MLOAD DUP10 DUP4 ADD SSTORE MLOAD PUSH1 0x2 DUP3 ADD SSTORE ADD SWAP1 MLOAD DUP1 MLOAD SWAP1 PUSH1 0x1 DUP1 PUSH1 0x40 SHL SUB DUP3 GT PUSH2 0x3FE JUMPI DUP2 SWAP1 PUSH2 0x2DCA DUP5 SLOAD PUSH2 0x40C8 JUMP JUMPDEST PUSH1 0x1F DUP2 GT PUSH2 0x2ECA JUMPI JUMPDEST POP DUP6 SWAP1 PUSH1 0x1F DUP4 GT PUSH1 0x1 EQ PUSH2 0x2E67 JUMPI PUSH1 0x0 SWAP3 PUSH2 0x2E5C JUMPI JUMPDEST POP POP PUSH1 0x0 NOT PUSH1 0x3 DUP4 SWAP1 SHL SHR NOT AND SWAP1 DUP8 SHL OR SWAP1 SSTORE JUMPDEST DUP4 PUSH1 0x0 MSTORE PUSH1 0x9 DUP3 MSTORE PUSH1 0x40 PUSH1 0x0 KECCAK256 PUSH1 0x0 DUP1 MSTORE DUP3 MSTORE PUSH1 0x40 PUSH1 0x0 KECCAK256 SWAP3 DUP4 SLOAD SWAP6 DUP7 ADD DUP1 SWAP7 GT PUSH2 0xD30 JUMPI PUSH1 0x0 DUP1 DUP1 SWAP4 PUSH1 0x2 DUP11 DUP4 DUP11 PUSH1 0x0 DUP1 MLOAD PUSH1 0x20 PUSH2 0x522B DUP4 CODECOPY DUP2 MLOAD SWAP2 MSTORE PUSH2 0x10FE SWAP11 DUP4 SWAP10 DUP16 DUP15 SSTORE PUSH1 0x40 MLOAD SWAP1 DUP2 MSTORE LOG3 DUP3 SLOAD AND SWAP2 ADD SLOAD SWAP1 GAS CALL PUSH2 0xB8A PUSH2 0x44F8 JUMP JUMPDEST ADD MLOAD SWAP1 POP DUP10 DUP1 PUSH2 0x2DE9 JUMP JUMPDEST SWAP1 DUP10 SWAP4 POP PUSH1 0x1F NOT DUP4 AND SWAP2 DUP6 PUSH1 0x0 MSTORE DUP8 PUSH1 0x0 KECCAK256 SWAP3 PUSH1 0x0 JUMPDEST DUP10 DUP3 DUP3 LT PUSH2 0x2EB4 JUMPI POP POP DUP5 GT PUSH2 0x2E9B JUMPI JUMPDEST POP POP POP DUP2 SHL ADD SWAP1 SSTORE PUSH2 0x2DFD JUMP JUMPDEST ADD MLOAD PUSH1 0x0 NOT PUSH1 0xF8 DUP5 PUSH1 0x3 SHL AND SHR NOT AND SWAP1 SSTORE DUP10 DUP1 DUP1 PUSH2 0x2E8E JUMP JUMPDEST DUP4 DUP6 ADD MLOAD DUP7 SSTORE DUP14 SWAP8 SWAP1 SWAP6 ADD SWAP5 SWAP4 DUP5 ADD SWAP4 ADD PUSH2 0x2E7D JUMP JUMPDEST SWAP1 SWAP2 POP DUP4 PUSH1 0x0 MSTORE DUP6 PUSH1 0x0 KECCAK256 PUSH1 0x1F DUP5 ADD PUSH1 0x5 SHR DUP2 ADD SWAP2 DUP8 DUP6 LT PUSH2 0x2F13 JUMPI JUMPDEST DUP5 SWAP4 SWAP3 SWAP2 PUSH1 0x1F DUP13 SWAP3 ADD PUSH1 0x5 SHR ADD SWAP2 JUMPDEST DUP3 DUP2 LT PUSH2 0x2F04 JUMPI POP POP PUSH2 0x2DD3 JUMP JUMPDEST PUSH1 0x0 DUP2 SSTORE DUP6 SWAP5 POP DUP12 SWAP2 ADD PUSH2 0x2EF6 JUMP JUMPDEST SWAP1 SWAP2 POP DUP2 SWAP1 PUSH2 0x2EE7 JUMP JUMPDEST PUSH1 0x40 MLOAD PUSH3 0x461BCD PUSH1 0xE5 SHL DUP2 MSTORE PUSH1 0x4 DUP2 ADD DUP6 SWAP1 MSTORE PUSH1 0xF PUSH1 0x24 DUP3 ADD MSTORE PUSH15 0x4E6F7420696E2070726F6772657373 PUSH1 0x88 SHL PUSH1 0x44 DUP3 ADD MSTORE PUSH1 0x64 SWAP1 REVERT JUMPDEST CALLVALUE PUSH2 0x24D JUMPI PUSH1 0x20 DUP1 PUSH1 0x3 NOT CALLDATASIZE ADD SLT PUSH2 0x24D JUMPI PUSH1 0x4 CALLDATALOAD PUSH1 0x0 MSTORE PUSH1 0xB DUP2 MSTORE PUSH1 0x40 PUSH1 0x0 KECCAK256 CALLER PUSH1 0x0 MSTORE PUSH1 0x4 DUP3 MSTORE PUSH1 0xFF PUSH1 0x40 PUSH1 0x0 KECCAK256 SLOAD AND PUSH1 0x3 DUP2 LT ISZERO PUSH2 0x486 JUMPI PUSH1 0x2 PUSH2 0x2F9B SWAP2 EQ PUSH2 0x43FC JUMP JUMPDEST PUSH1 0xB DUP2 ADD SWAP1 DUP2 SLOAD SWAP1 PUSH1 0xFF DUP3 AND PUSH1 0x9 DUP2 LT ISZERO PUSH2 0x486 JUMPI PUSH1 0x1 SUB PUSH2 0x308A JUMPI DUP1 SLOAD PUSH1 0x1 PUSH1 0x1 PUSH1 0xA0 SHL SUB SWAP1 DUP2 AND CALLER EQ PUSH2 0x304F JUMPI PUSH1 0x1 DUP3 ADD SWAP1 DUP2 SLOAD SWAP1 DUP2 AND PUSH2 0x301A JUMPI PUSH1 0x2 SWAP5 SWAP6 POP PUSH2 0x2FFB PUSH2 0x2FF3 PUSH1 0x3 DUP6 ADD SLOAD PUSH1 0x5 DUP7 ADD SLOAD SWAP1 PUSH2 0x4435 JUMP JUMPDEST TIMESTAMP GT ISZERO PUSH2 0x4442 JUMP JUMPDEST PUSH1 0x1 PUSH1 0x1 PUSH1 0xA0 SHL SUB NOT AND CALLER OR SWAP1 SSTORE TIMESTAMP PUSH1 0x9 SWAP2 SWAP1 SWAP2 ADD SSTORE PUSH1 0xFF NOT AND OR SWAP1 SSTORE STOP JUMPDEST PUSH1 0x40 MLOAD PUSH3 0x461BCD PUSH1 0xE5 SHL DUP2 MSTORE PUSH1 0x4 DUP2 ADD DUP8 SWAP1 MSTORE PUSH1 0xD PUSH1 0x24 DUP3 ADD MSTORE PUSH13 0x20B63932B0B23C903A30B5B2B7 PUSH1 0x99 SHL PUSH1 0x44 DUP3 ADD MSTORE PUSH1 0x64 SWAP1 REVERT JUMPDEST PUSH1 0x40 MLOAD PUSH3 0x461BCD PUSH1 0xE5 SHL DUP2 MSTORE PUSH1 0x4 DUP2 ADD DUP7 SWAP1 MSTORE PUSH1 0x13 PUSH1 0x24 DUP3 ADD MSTORE PUSH19 0x21B0B73737BA103A30B5B29037BBB7103537B1 PUSH1 0x69 SHL PUSH1 0x44 DUP3 ADD MSTORE PUSH1 0x64 SWAP1 REVERT JUMPDEST PUSH1 0x40 MLOAD PUSH3 0x461BCD PUSH1 0xE5 SHL DUP2 MSTORE PUSH1 0x4 DUP2 ADD DUP6 SWAP1 MSTORE PUSH1 0xA PUSH1 0x24 DUP3 ADD MSTORE PUSH10 0x139BDD08199D5B991959 PUSH1 0xB2 SHL PUSH1 0x44 DUP3 ADD MSTORE PUSH1 0x64 SWAP1 REVERT JUMPDEST CALLVALUE PUSH2 0x24D JUMPI PUSH2 0x30CA CALLDATASIZE PUSH2 0x42B5 JUMP JUMPDEST PUSH1 0x0 DUP3 DUP2 MSTORE PUSH1 0xB PUSH1 0x20 MSTORE PUSH1 0x40 SWAP1 KECCAK256 DUP1 SLOAD PUSH1 0x1 PUSH1 0x1 PUSH1 0xA0 SHL SUB AND SWAP1 CALLER DUP3 EQ DUP1 ISZERO PUSH2 0x356B JUMPI JUMPDEST PUSH2 0x30F7 SWAP1 PUSH2 0x4CFB JUMP JUMPDEST PUSH1 0xB DUP2 ADD DUP1 SLOAD PUSH1 0xFF DUP2 AND PUSH1 0x9 DUP2 LT ISZERO PUSH2 0x486 JUMPI PUSH1 0x4 DUP2 EQ SWAP1 DUP2 ISZERO PUSH2 0x3560 JUMPI JUMPDEST POP ISZERO PUSH2 0x351F JUMPI PUSH1 0x7 SWAP1 PUSH1 0xFF NOT AND OR SWAP1 SSTORE PUSH1 0x1 DUP1 DUP1 PUSH1 0xA0 SHL SUB SWAP2 ADD SLOAD AND DUP4 PUSH1 0x0 MSTORE PUSH1 0x5 PUSH1 0x20 MSTORE PUSH1 0x40 PUSH1 0x0 KECCAK256 SWAP3 PUSH2 0x3152 PUSH1 0xFF PUSH1 0xB DUP7 ADD SLOAD AND ISZERO PUSH2 0x4D36 JUMP JUMPDEST PUSH1 0xA DUP5 ADD SLOAD PUSH2 0x34E1 JUMPI DUP5 DUP5 SSTORE PUSH1 0x1 DUP5 ADD DUP1 SLOAD PUSH1 0x1 PUSH1 0x1 PUSH1 0xA0 SHL SUB NOT AND CALLER OR SWAP1 SSTORE DUP1 MLOAD SWAP1 PUSH1 0x1 PUSH1 0x1 PUSH1 0x40 SHL SUB DUP3 GT PUSH2 0x3FE JUMPI DUP2 SWAP1 PUSH2 0x3192 PUSH1 0x2 DUP8 ADD SLOAD PUSH2 0x40C8 JUMP JUMPDEST PUSH1 0x1F DUP2 GT PUSH2 0x348E JUMPI JUMPDEST POP PUSH1 0x20 SWAP1 PUSH1 0x1F DUP4 GT PUSH1 0x1 EQ PUSH2 0x3421 JUMPI PUSH1 0x0 SWAP3 PUSH2 0x3416 JUMPI JUMPDEST POP POP DUP2 PUSH1 0x1 SHL SWAP2 PUSH1 0x0 NOT SWAP1 PUSH1 0x3 SHL SHR NOT AND OR PUSH1 0x2 DUP5 ADD SSTORE JUMPDEST PUSH2 0x12C TIMESTAMP ADD DUP1 TIMESTAMP GT PUSH2 0xD30 JUMPI PUSH1 0xA DUP5 ADD SSTORE PUSH1 0x40 MLOAD PUSH1 0x20 DUP2 ADD SWAP1 TIMESTAMP DUP3 MSTORE PREVRANDAO PUSH1 0x40 DUP3 ADD MSTORE DUP6 PUSH1 0x60 DUP3 ADD MSTORE PUSH1 0x60 DUP2 MSTORE PUSH2 0x31FF DUP2 PUSH2 0x4102 JUMP JUMPDEST MLOAD SWAP1 KECCAK256 SWAP2 PUSH1 0x2 SLOAD PUSH2 0x320F DUP2 PUSH2 0x4352 JUMP JUMPDEST SWAP2 PUSH1 0x0 SWAP4 PUSH1 0x0 JUMPDEST DUP4 DUP2 LT PUSH2 0x33A4 JUMPI POP POP POP POP PUSH1 0x5 DUP3 LT PUSH1 0x0 EQ PUSH2 0x339C JUMPI PUSH1 0xFF DUP3 AND SWAP2 JUMPDEST PUSH1 0xFF DUP4 AND DUP1 ISZERO DUP1 ISZERO DUP6 DUP2 PUSH2 0x3390 JUMPI JUMPDEST POP PUSH2 0x337C JUMPI JUMPDEST POP POP PUSH2 0x3258 PUSH1 0xFF DUP5 SWAP8 SWAP7 SWAP8 AND PUSH2 0x4352 JUMP JUMPDEST SWAP4 PUSH2 0x3262 DUP3 PUSH2 0x4352 JUMP JUMPDEST SWAP3 PUSH1 0x0 JUMPDEST DUP4 DUP2 LT PUSH2 0x335B JUMPI POP POP PUSH1 0x0 JUMPDEST PUSH1 0xFF DUP6 AND DUP2 LT PUSH2 0x3324 JUMPI DUP8 DUP8 DUP8 PUSH1 0xFF DUP2 MLOAD AND PUSH1 0x9 DUP5 ADD SWAP1 PUSH1 0xFF NOT DUP3 SLOAD AND OR SWAP1 SSTORE PUSH1 0x4 PUSH1 0x0 SWAP4 ADD SWAP3 JUMPDEST DUP2 MLOAD PUSH1 0xFF DUP3 AND SWAP1 DUP2 LT ISZERO PUSH2 0x32D5 JUMPI PUSH2 0x32D0 SWAP2 SWAP1 PUSH2 0x1431 SWAP1 PUSH1 0x1 PUSH1 0x1 PUSH1 0xA0 SHL SUB SWAP1 PUSH2 0x32C4 SWAP1 DUP7 PUSH2 0x43AF JUMP JUMPDEST MLOAD AND PUSH2 0x1CDD DUP4 DUP9 PUSH2 0x4D86 JUMP JUMPDEST PUSH2 0x329A JUMP JUMPDEST DUP4 PUSH1 0x0 DUP1 MLOAD PUSH1 0x20 PUSH2 0x520B DUP4 CODECOPY DUP2 MLOAD SWAP2 MSTORE PUSH2 0x1DEF DUP6 PUSH1 0x40 MLOAD SWAP2 DUP3 SWAP2 CALLER DUP7 PUSH32 0x84A477DF8A28A4276CA6DEE4458A06C3015F30C477D9C949EDE4E13FF8A552B4 PUSH1 0x0 DUP1 LOG3 PUSH1 0x20 DUP4 MSTORE PUSH1 0x20 DUP4 ADD SWAP1 PUSH2 0x4D96 JUMP JUMPDEST PUSH2 0x3351 PUSH1 0xFF SWAP2 PUSH2 0x1E37 PUSH2 0x1E31 PUSH1 0x40 SWAP12 SWAP11 SWAP12 MLOAD PUSH1 0x20 DUP2 ADD SWAP1 DUP8 DUP3 MSTORE DUP5 PUSH1 0x40 DUP3 ADD MSTORE PUSH1 0x40 DUP2 MSTORE PUSH2 0x1E1E DUP2 PUSH2 0x4138 JUMP JUMPDEST SWAP1 POP SWAP7 SWAP6 SWAP7 PUSH2 0x3272 JUMP JUMPDEST SWAP7 SWAP8 SWAP7 PUSH2 0x3374 SWAP1 PUSH1 0x1 PUSH1 0x1 PUSH1 0xA0 SHL SUB PUSH2 0x1EB6 DUP3 DUP6 PUSH2 0x43AF JUMP JUMPDEST SWAP8 SWAP7 SWAP8 PUSH2 0x3266 JUMP JUMPDEST SWAP1 SWAP2 SWAP4 POP PUSH2 0xD30 JUMPI PUSH1 0x0 NOT ADD SWAP2 DUP7 DUP1 PUSH2 0x3247 JUMP JUMPDEST PUSH1 0x1 SWAP2 POP AND ISZERO DUP10 PUSH2 0x3241 JUMP JUMPDEST PUSH1 0x5 SWAP2 PUSH2 0x3232 JUMP JUMPDEST PUSH2 0x33AD DUP2 PUSH2 0x515D JUMP JUMPDEST SWAP1 SLOAD PUSH1 0x3 SWAP2 SWAP1 SWAP2 SHL SHR PUSH1 0x1 PUSH1 0x1 PUSH1 0xA0 SHL SUB AND DUP4 DUP2 EQ ISZERO DUP1 PUSH2 0x340C JUMPI JUMPDEST DUP1 PUSH2 0x33FD JUMPI JUMPDEST PUSH2 0x33E3 JUMPI JUMPDEST POP PUSH2 0x33DE SWAP1 PUSH2 0x4384 JUMP JUMPDEST PUSH2 0x3216 JUMP JUMPDEST DUP7 PUSH2 0x33F6 SWAP2 PUSH2 0x1E93 PUSH2 0x33DE SWAP5 SWAP10 DUP10 PUSH2 0x43AF JUMP JUMPDEST SWAP6 SWAP1 PUSH2 0x33D4 JUMP JUMPDEST POP PUSH2 0x3407 DUP2 PUSH2 0x513D JUMP JUMPDEST PUSH2 0x33CF JUMP JUMPDEST POP DUP3 DUP2 EQ ISZERO PUSH2 0x33C9 JUMP JUMPDEST ADD MLOAD SWAP1 POP DUP7 DUP1 PUSH2 0x31B2 JUMP JUMPDEST PUSH1 0x2 DUP8 ADD PUSH1 0x0 SWAP1 DUP2 MSTORE PUSH1 0x20 DUP2 KECCAK256 SWAP4 POP PUSH1 0x1F NOT DUP6 AND SWAP1 JUMPDEST DUP2 DUP2 LT PUSH2 0x3476 JUMPI POP SWAP1 DUP5 PUSH1 0x1 SWAP6 SWAP5 SWAP4 SWAP3 LT PUSH2 0x345D JUMPI JUMPDEST POP POP POP DUP2 SHL ADD PUSH1 0x2 DUP5 ADD SSTORE PUSH2 0x31CA JUMP JUMPDEST ADD MLOAD PUSH1 0x0 NOT PUSH1 0xF8 DUP5 PUSH1 0x3 SHL AND SHR NOT AND SWAP1 SSTORE DUP7 DUP1 DUP1 PUSH2 0x344D JUMP JUMPDEST SWAP3 SWAP4 PUSH1 0x20 PUSH1 0x1 DUP2 SWAP3 DUP8 DUP7 ADD MLOAD DUP2 SSTORE ADD SWAP6 ADD SWAP4 ADD PUSH2 0x3437 JUMP JUMPDEST SWAP1 SWAP2 POP PUSH1 0x2 DUP7 ADD PUSH1 0x0 MSTORE PUSH1 0x20 PUSH1 0x0 KECCAK256 PUSH1 0x1F DUP5 ADD PUSH1 0x5 SHR DUP2 ADD PUSH1 0x20 DUP6 LT PUSH2 0x34DA JUMPI JUMPDEST SWAP1 DUP5 SWAP4 SWAP3 SWAP2 JUMPDEST PUSH1 0x1F DUP4 ADD PUSH1 0x5 SHR DUP3 ADD DUP2 LT PUSH2 0x34CB JUMPI POP POP PUSH2 0x319B JUMP JUMPDEST PUSH1 0x0 DUP2 SSTORE DUP6 SWAP5 POP PUSH1 0x1 ADD PUSH2 0x34B5 JUMP JUMPDEST POP DUP1 PUSH2 0x34AF JUMP JUMPDEST PUSH1 0x40 MLOAD PUSH3 0x461BCD PUSH1 0xE5 SHL DUP2 MSTORE PUSH1 0x20 PUSH1 0x4 DUP3 ADD MSTORE PUSH1 0x16 PUSH1 0x24 DUP3 ADD MSTORE PUSH22 0x111A5CDC1D5D1948185B1C9958591E481C985A5CD959 PUSH1 0x52 SHL PUSH1 0x44 DUP3 ADD MSTORE PUSH1 0x64 SWAP1 REVERT JUMPDEST PUSH1 0x40 MLOAD PUSH3 0x461BCD PUSH1 0xE5 SHL DUP2 MSTORE PUSH1 0x20 PUSH1 0x4 DUP3 ADD MSTORE PUSH1 0x19 PUSH1 0x24 DUP3 ADD MSTORE PUSH25 0x496E76616C696420737461746520666F722064697370757465 PUSH1 0x38 SHL PUSH1 0x44 DUP3 ADD MSTORE PUSH1 0x64 SWAP1 REVERT JUMPDEST PUSH1 0x3 SWAP2 POP EQ DUP8 PUSH2 0x3116 JUMP JUMPDEST POP PUSH1 0x1 DUP2 ADD SLOAD PUSH1 0x1 PUSH1 0x1 PUSH1 0xA0 SHL SUB AND CALLER EQ PUSH2 0x30EE JUMP JUMPDEST CALLVALUE PUSH2 0x24D JUMPI PUSH1 0x20 CALLDATASIZE PUSH1 0x3 NOT ADD SLT PUSH2 0x24D JUMPI PUSH1 0x4 CALLDATALOAD PUSH1 0x0 SWAP1 DUP2 MSTORE PUSH1 0x5 PUSH1 0x20 MSTORE PUSH1 0x40 SWAP1 KECCAK256 DUP1 SLOAD PUSH1 0x1 DUP3 ADD SLOAD PUSH1 0x1 PUSH1 0x1 PUSH1 0xA0 SHL SUB AND SWAP2 PUSH1 0xFF PUSH2 0x35C2 PUSH1 0x2 DUP4 ADD PUSH2 0x4191 JUMP JUMPDEST PUSH2 0x35CE PUSH1 0x3 DUP5 ADD PUSH2 0x4191 JUMP JUMPDEST SWAP3 DUP3 PUSH2 0x3613 PUSH1 0x9 DUP4 ADD SLOAD SWAP6 PUSH2 0x3605 PUSH1 0xB PUSH1 0xA DUP7 ADD SLOAD SWAP6 ADD SLOAD SWAP6 PUSH1 0x40 MLOAD SWAP11 DUP12 SWAP11 DUP12 MSTORE PUSH1 0x20 DUP12 ADD MSTORE PUSH2 0x140 DUP1 PUSH1 0x40 DUP13 ADD MSTORE DUP11 ADD SWAP1 PUSH2 0x4088 JUMP JUMPDEST SWAP1 DUP9 DUP3 SUB PUSH1 0x60 DUP11 ADD MSTORE PUSH2 0x4088 JUMP JUMPDEST SWAP5 DUP2 DUP2 AND PUSH1 0x80 DUP9 ADD MSTORE DUP2 DUP2 PUSH1 0x8 SHR AND PUSH1 0xA0 DUP9 ADD MSTORE PUSH1 0x10 SHR AND PUSH1 0xC0 DUP7 ADD MSTORE PUSH1 0xE0 DUP6 ADD MSTORE DUP2 DUP2 AND ISZERO ISZERO PUSH2 0x100 DUP6 ADD MSTORE PUSH1 0x8 SHR AND ISZERO ISZERO PUSH2 0x120 DUP4 ADD MSTORE SUB SWAP1 RETURN JUMPDEST CALLVALUE PUSH2 0x24D JUMPI PUSH1 0x20 CALLDATASIZE PUSH1 0x3 NOT ADD SLT PUSH2 0x24D JUMPI PUSH1 0x1 PUSH1 0x1 PUSH1 0xA0 SHL SUB PUSH2 0x3671 PUSH2 0x4028 JUMP JUMPDEST AND PUSH1 0x0 MSTORE PUSH1 0x0 PUSH1 0x20 MSTORE PUSH1 0x20 PUSH1 0xFF PUSH1 0x40 PUSH1 0x0 KECCAK256 SLOAD AND PUSH1 0x40 MLOAD SWAP1 DUP2 MSTORE RETURN JUMPDEST CALLVALUE PUSH2 0x24D JUMPI PUSH1 0x0 CALLDATASIZE PUSH1 0x3 NOT ADD SLT PUSH2 0x24D JUMPI PUSH1 0x20 PUSH1 0x40 MLOAD PUSH1 0x78 DUP2 MSTORE RETURN JUMPDEST CALLVALUE PUSH2 0x24D JUMPI PUSH1 0x0 CALLDATASIZE PUSH1 0x3 NOT ADD SLT PUSH2 0x24D JUMPI PUSH1 0x20 PUSH1 0xA SLOAD PUSH1 0x40 MLOAD SWAP1 DUP2 MSTORE RETURN JUMPDEST CALLVALUE PUSH2 0x24D JUMPI PUSH1 0x20 CALLDATASIZE PUSH1 0x3 NOT ADD SLT PUSH2 0x24D JUMPI PUSH1 0x1 PUSH1 0x1 PUSH1 0xA0 SHL SUB PUSH2 0x36E8 PUSH2 0x4028 JUMP JUMPDEST AND PUSH1 0x0 MSTORE PUSH1 0xD PUSH1 0x20 MSTORE PUSH1 0x20 PUSH1 0x40 PUSH1 0x0 KECCAK256 SLOAD PUSH1 0x40 MLOAD SWAP1 DUP2 MSTORE RETURN JUMPDEST CALLVALUE PUSH2 0x24D JUMPI PUSH1 0x0 CALLDATASIZE PUSH1 0x3 NOT ADD SLT PUSH2 0x24D JUMPI PUSH1 0x20 PUSH1 0x40 MLOAD PUSH2 0x12C DUP2 MSTORE RETURN JUMPDEST CALLVALUE PUSH2 0x24D JUMPI PUSH1 0x40 CALLDATASIZE PUSH1 0x3 NOT ADD SLT PUSH2 0x24D JUMPI PUSH2 0x3737 PUSH2 0x403E JUMP JUMPDEST PUSH1 0x4 CALLDATALOAD PUSH1 0x0 MSTORE PUSH1 0x6 PUSH1 0x20 MSTORE PUSH1 0x40 PUSH1 0x0 KECCAK256 SWAP1 PUSH1 0x1 DUP1 PUSH1 0xA0 SHL SUB AND PUSH1 0x0 MSTORE PUSH1 0x20 MSTORE PUSH1 0x20 PUSH1 0xFF PUSH1 0x40 PUSH1 0x0 KECCAK256 SLOAD AND PUSH1 0x40 MLOAD SWAP1 ISZERO ISZERO DUP2 MSTORE RETURN JUMPDEST CALLVALUE PUSH2 0x24D JUMPI PUSH1 0x20 CALLDATASIZE PUSH1 0x3 NOT ADD SLT PUSH2 0x24D JUMPI PUSH1 0x20 PUSH2 0x378E PUSH2 0x3789 PUSH2 0x4028 JUMP JUMPDEST PUSH2 0x513D JUMP JUMPDEST PUSH1 0x40 MLOAD SWAP1 ISZERO ISZERO DUP2 MSTORE RETURN JUMPDEST CALLVALUE PUSH2 0x24D JUMPI PUSH1 0x0 CALLDATASIZE PUSH1 0x3 NOT ADD SLT PUSH2 0x24D JUMPI PUSH1 0x20 PUSH1 0x40 MLOAD PUSH1 0x0 DUP2 MSTORE RETURN JUMPDEST CALLVALUE PUSH2 0x24D JUMPI PUSH1 0x40 CALLDATASIZE PUSH1 0x3 NOT ADD SLT PUSH2 0x24D JUMPI PUSH1 0x1 PUSH1 0x1 PUSH1 0xA0 SHL SUB PUSH2 0x37D5 PUSH2 0x4028 JUMP JUMPDEST AND PUSH1 0x0 MSTORE PUSH1 0x9 PUSH1 0x20 MSTORE PUSH1 0x40 PUSH1 0x0 KECCAK256 PUSH1 0x24 CALLDATALOAD PUSH1 0x0 MSTORE PUSH1 0x20 MSTORE PUSH1 0x20 PUSH1 0x40 PUSH1 0x0 KECCAK256 SLOAD PUSH1 0x40 MLOAD SWAP1 DUP2 MSTORE RETURN JUMPDEST CALLVALUE PUSH2 0x24D JUMPI PUSH1 0x20 CALLDATASIZE PUSH1 0x3 NOT ADD SLT PUSH2 0x24D JUMPI PUSH1 0x4 CALLDATALOAD PUSH1 0x0 MSTORE PUSH1 0xC PUSH1 0x20 MSTORE PUSH1 0x40 PUSH1 0x0 KECCAK256 PUSH1 0x1 DUP1 PUSH1 0xA0 SHL SUB SWAP1 PUSH2 0x2107 DUP3 DUP3 SLOAD AND SWAP2 PUSH1 0xFF PUSH2 0x3840 PUSH1 0x2 PUSH1 0x1 DUP5 ADD SLOAD SWAP4 ADD PUSH2 0x4191 JUMP JUMPDEST SWAP2 PUSH1 0x40 MLOAD SWAP6 DUP7 SWAP6 DUP7 MSTORE DUP2 AND PUSH1 0x20 DUP7 ADD MSTORE PUSH1 0xA0 SHR AND PUSH1 0x40 DUP5 ADD MSTORE PUSH1 0x80 PUSH1 0x60 DUP5 ADD MSTORE PUSH1 0x80 DUP4 ADD SWAP1 PUSH2 0x4088 JUMP JUMPDEST CALLVALUE PUSH2 0x24D JUMPI PUSH1 0x0 CALLDATASIZE PUSH1 0x3 NOT ADD SLT PUSH2 0x24D JUMPI PUSH1 0x20 PUSH1 0x40 MLOAD PUSH1 0x5 DUP2 MSTORE RETURN JUMPDEST CALLVALUE PUSH2 0x24D JUMPI PUSH1 0x20 CALLDATASIZE PUSH1 0x3 NOT ADD SLT PUSH2 0x24D JUMPI PUSH1 0x1 PUSH1 0x1 PUSH1 0xA0 SHL SUB PUSH2 0x38A7 PUSH2 0x4028 JUMP JUMPDEST AND PUSH1 0x0 MSTORE PUSH1 0xE PUSH1 0x20 MSTORE PUSH1 0x20 PUSH1 0x40 PUSH1 0x0 KECCAK256 SLOAD PUSH1 0x40 MLOAD SWAP1 DUP2 MSTORE RETURN JUMPDEST CALLVALUE PUSH2 0x24D JUMPI PUSH1 0x0 CALLDATASIZE PUSH1 0x3 NOT ADD SLT PUSH2 0x24D JUMPI CALLER PUSH1 0x0 MSTORE PUSH1 0x4 PUSH1 0x20 MSTORE PUSH1 0xFF PUSH1 0x40 PUSH1 0x0 KECCAK256 SLOAD AND PUSH1 0x3 DUP2 LT ISZERO PUSH2 0x486 JUMPI PUSH2 0x38F6 SWAP1 ISZERO PUSH2 0x42FA JUMP JUMPDEST CALLER PUSH1 0x0 MSTORE PUSH1 0x4 PUSH1 0x20 MSTORE PUSH1 0x40 PUSH1 0x0 KECCAK256 PUSH1 0x2 PUSH1 0xFF NOT DUP3 SLOAD AND OR SWAP1 SSTORE PUSH2 0x2C27 CALLER PUSH2 0x4EA7 JUMP JUMPDEST CALLVALUE PUSH2 0x24D JUMPI PUSH1 0x20 CALLDATASIZE PUSH1 0x3 NOT ADD SLT PUSH2 0x24D JUMPI PUSH2 0x10FE PUSH1 0x4 CALLDATALOAD PUSH2 0x48C9 JUMP JUMPDEST CALLVALUE PUSH2 0x24D JUMPI PUSH1 0x20 CALLDATASIZE PUSH1 0x3 NOT ADD SLT PUSH2 0x24D JUMPI PUSH1 0x4 CALLDATALOAD PUSH1 0x0 MSTORE PUSH1 0xB PUSH1 0x20 MSTORE PUSH1 0x40 PUSH1 0x0 KECCAK256 PUSH1 0x1 DUP1 PUSH1 0xA0 SHL SUB SWAP1 DUP2 DUP2 SLOAD AND SWAP2 PUSH1 0x1 DUP3 ADD SLOAD AND SWAP1 PUSH1 0x2 DUP2 ADD SLOAD SWAP1 PUSH1 0x3 DUP2 ADD SLOAD SWAP2 PUSH2 0x39F8 PUSH1 0x4 DUP4 ADD SLOAD PUSH2 0x39EA PUSH1 0x5 DUP6 ADD SLOAD PUSH2 0x3991 PUSH1 0x6 DUP8 ADD PUSH2 0x4191 JUMP JUMPDEST SWAP1 PUSH2 0x399E PUSH1 0x7 DUP9 ADD PUSH2 0x4191 JUMP JUMPDEST SWAP4 PUSH1 0x8 DUP9 ADD SLOAD SWAP9 PUSH1 0x9 DUP10 ADD SLOAD SWAP8 PUSH1 0xFF PUSH1 0xB PUSH1 0xA DUP13 ADD SLOAD SWAP12 ADD SLOAD AND SWAP12 PUSH1 0x20 PUSH1 0x40 MLOAD SWAP15 DUP16 SWAP1 DUP2 MSTORE ADD MSTORE PUSH1 0x40 DUP14 ADD MSTORE PUSH1 0x60 DUP13 ADD MSTORE PUSH1 0x80 DUP12 ADD MSTORE PUSH1 0xA0 DUP11 ADD MSTORE PUSH2 0x180 DUP1 PUSH1 0xC0 DUP12 ADD MSTORE DUP10 ADD SWAP1 PUSH2 0x4088 JUMP JUMPDEST SWAP1 DUP8 DUP3 SUB PUSH1 0xE0 DUP10 ADD MSTORE PUSH2 0x4088 JUMP JUMPDEST SWAP3 PUSH2 0x100 DUP7 ADD MSTORE PUSH2 0x120 DUP6 ADD MSTORE PUSH2 0x140 DUP5 ADD MSTORE PUSH1 0x9 DUP3 LT ISZERO PUSH2 0x486 JUMPI DUP3 SWAP2 PUSH2 0x160 DUP4 ADD MSTORE SUB SWAP1 RETURN JUMPDEST CALLVALUE PUSH2 0x24D JUMPI PUSH1 0x20 DUP1 PUSH1 0x3 NOT CALLDATASIZE ADD SLT PUSH2 0x24D JUMPI PUSH1 0xA0 PUSH1 0x40 MLOAD PUSH2 0x3A40 DUP2 PUSH2 0x411D JUMP JUMPDEST CALLDATASIZE SWAP1 CALLDATACOPY PUSH1 0x4 CALLDATALOAD PUSH1 0x0 MSTORE PUSH1 0x5 DUP1 DUP3 MSTORE PUSH1 0x4 PUSH1 0x40 PUSH1 0x0 KECCAK256 ADD SWAP2 PUSH1 0x40 MLOAD SWAP3 DUP4 DUP3 PUSH1 0x0 SWAP2 JUMPDEST DUP6 DUP4 LT PUSH2 0x3AA9 JUMPI POP POP POP POP PUSH2 0x3A75 DUP4 PUSH2 0x411D JUMP JUMPDEST PUSH1 0x40 MLOAD SWAP3 PUSH1 0x0 SWAP1 DUP5 JUMPDEST DUP5 DUP4 LT PUSH2 0x3A8A JUMPI PUSH1 0xA0 DUP7 RETURN JUMPDEST DUP2 MLOAD PUSH1 0x1 PUSH1 0x1 PUSH1 0xA0 SHL SUB AND DUP2 MSTORE PUSH1 0x1 SWAP3 SWAP1 SWAP3 ADD SWAP2 SWAP1 DUP4 ADD SWAP1 DUP4 ADD PUSH2 0x3A7E JUMP JUMPDEST DUP4 SLOAD PUSH1 0x1 PUSH1 0x1 PUSH1 0xA0 SHL SUB AND DUP2 MSTORE PUSH1 0x1 SWAP4 DUP5 ADD SWAP4 SWAP3 SWAP1 SWAP3 ADD SWAP2 DUP5 SWAP2 ADD PUSH2 0x3A61 JUMP JUMPDEST CALLVALUE PUSH2 0x24D JUMPI PUSH1 0x40 CALLDATASIZE PUSH1 0x3 NOT ADD SLT PUSH2 0x24D JUMPI PUSH1 0x24 DUP1 CALLDATALOAD DUP1 ISZERO ISZERO SWAP1 PUSH1 0x4 CALLDATALOAD SWAP1 DUP3 DUP2 SUB PUSH2 0x24D JUMPI DUP2 PUSH1 0x0 MSTORE PUSH1 0x20 SWAP1 PUSH1 0xB DUP3 MSTORE PUSH1 0xFF DUP1 PUSH1 0xB PUSH1 0x40 PUSH1 0x0 KECCAK256 ADD SLOAD AND PUSH1 0x9 DUP2 LT ISZERO PUSH2 0x3D73 JUMPI PUSH1 0x7 PUSH2 0x3B1A SWAP2 EQ PUSH2 0x4DD3 JUMP JUMPDEST DUP4 PUSH1 0x0 MSTORE PUSH1 0x5 DUP4 MSTORE PUSH1 0x40 PUSH1 0x0 KECCAK256 SWAP2 PUSH1 0xA DUP4 ADD SLOAD DUP1 ISZERO PUSH2 0x3D3B JUMPI PUSH2 0x3B43 DUP4 PUSH1 0xB DUP7 ADD SLOAD AND ISZERO PUSH2 0x4D36 JUMP JUMPDEST TIMESTAMP LT ISZERO PUSH2 0x3D01 JUMPI DUP5 PUSH1 0x0 MSTORE PUSH1 0x6 DUP5 MSTORE PUSH1 0x40 PUSH1 0x0 KECCAK256 CALLER PUSH1 0x0 MSTORE DUP5 MSTORE DUP2 PUSH1 0x40 PUSH1 0x0 KECCAK256 SLOAD AND PUSH2 0x3CCD JUMPI PUSH1 0x0 DUP1 SWAP4 PUSH1 0x9 DUP2 ADD SWAP5 PUSH1 0x4 DUP6 DUP8 SLOAD AND SWAP3 ADD SWAP1 JUMPDEST DUP3 DUP7 DUP3 AND LT PUSH2 0x3C8F JUMPI JUMPDEST POP POP POP ISZERO PUSH2 0x3C54 JUMPI DUP5 PUSH32 0xF2913DBE661EE2ACC4A046D8FBCDC792373BDA34C41C6086484B5345E5785E5F SWAP6 SWAP7 SWAP8 POP PUSH1 0x0 MSTORE PUSH1 0x6 DUP5 MSTORE PUSH1 0x40 PUSH1 0x0 KECCAK256 CALLER PUSH1 0x0 MSTORE DUP5 MSTORE PUSH1 0x40 PUSH1 0x0 KECCAK256 PUSH1 0xFF NOT SWAP1 PUSH1 0x1 DUP3 DUP3 SLOAD AND OR SWAP1 SSTORE DUP7 PUSH1 0x0 MSTORE PUSH1 0x7 DUP6 MSTORE PUSH1 0x40 PUSH1 0x0 KECCAK256 CALLER PUSH1 0x0 MSTORE DUP6 MSTORE PUSH1 0x40 PUSH1 0x0 KECCAK256 SWAP1 DUP2 SLOAD AND DUP4 DUP10 AND OR SWAP1 SSTORE PUSH1 0x0 EQ PUSH2 0x3C2D JUMPI PUSH2 0xFF00 PUSH2 0x3C14 DUP4 SLOAD SWAP3 DUP4 PUSH1 0x8 SHR AND PUSH2 0x4D75 JUMP JUMPDEST PUSH1 0x8 SHL AND SWAP1 PUSH2 0xFF00 NOT AND OR SWAP1 SSTORE JUMPDEST PUSH1 0x40 MLOAD SWAP4 DUP5 MSTORE CALLER SWAP4 LOG3 STOP JUMPDEST PUSH3 0xFF0000 PUSH2 0x3C41 DUP4 SLOAD SWAP3 DUP4 PUSH1 0x10 SHR AND PUSH2 0x4D75 JUMP JUMPDEST PUSH1 0x10 SHL AND SWAP1 PUSH3 0xFF0000 NOT AND OR SWAP1 SSTORE PUSH2 0x3C22 JUMP JUMPDEST PUSH1 0x40 MLOAD PUSH3 0x461BCD PUSH1 0xE5 SHL DUP2 MSTORE PUSH1 0x4 DUP2 ADD DUP6 SWAP1 MSTORE PUSH1 0x14 DUP2 DUP10 ADD MSTORE PUSH20 0x2737BA10309039B2B632B1BA32B2103B37BA32B9 PUSH1 0x61 SHL PUSH1 0x44 DUP3 ADD MSTORE PUSH1 0x64 SWAP1 REVERT JUMPDEST PUSH2 0x3C99 DUP2 DUP4 PUSH2 0x4D86 JUMP JUMPDEST SWAP1 SLOAD PUSH1 0x3 SWAP2 SWAP1 SWAP2 SHL SHR PUSH1 0x1 PUSH1 0x1 PUSH1 0xA0 SHL SUB AND CALLER EQ PUSH2 0x3CBF JUMPI PUSH2 0x3CBA SWAP1 PUSH2 0x4D75 JUMP JUMPDEST PUSH2 0x3B7C JUMP JUMPDEST POP POP POP POP PUSH1 0x1 DUP9 DUP1 DUP1 PUSH2 0x3B86 JUMP JUMPDEST PUSH1 0x40 MLOAD PUSH3 0x461BCD PUSH1 0xE5 SHL DUP2 MSTORE PUSH1 0x4 DUP2 ADD DUP6 SWAP1 MSTORE PUSH1 0xD DUP2 DUP10 ADD MSTORE PUSH13 0x105B1C9958591E481D9BDD1959 PUSH1 0x9A SHL PUSH1 0x44 DUP3 ADD MSTORE PUSH1 0x64 SWAP1 REVERT JUMPDEST PUSH1 0x40 MLOAD PUSH3 0x461BCD PUSH1 0xE5 SHL DUP2 MSTORE PUSH1 0x4 DUP2 ADD DUP6 SWAP1 MSTORE PUSH1 0x13 DUP2 DUP10 ADD MSTORE PUSH19 0x159BDD1A5B99C81C195C9A5BD908195B991959 PUSH1 0x6A SHL PUSH1 0x44 DUP3 ADD MSTORE PUSH1 0x64 SWAP1 REVERT JUMPDEST PUSH1 0x40 MLOAD PUSH3 0x461BCD PUSH1 0xE5 SHL DUP2 MSTORE PUSH1 0x4 DUP2 ADD DUP7 SWAP1 MSTORE PUSH1 0x11 DUP2 DUP11 ADD MSTORE PUSH17 0x4E6F206469737075746520657869737473 PUSH1 0x78 SHL PUSH1 0x44 DUP3 ADD MSTORE PUSH1 0x64 SWAP1 REVERT JUMPDEST DUP7 PUSH4 0x4E487B71 PUSH1 0xE0 SHL PUSH1 0x0 MSTORE PUSH1 0x21 PUSH1 0x4 MSTORE PUSH1 0x0 REVERT JUMPDEST CALLVALUE PUSH2 0x24D JUMPI PUSH1 0x20 CALLDATASIZE PUSH1 0x3 NOT ADD SLT PUSH2 0x24D JUMPI PUSH1 0x4 CALLDATALOAD PUSH1 0x0 MSTORE PUSH1 0xB PUSH1 0x20 MSTORE PUSH1 0x40 PUSH1 0x0 KECCAK256 PUSH2 0x3DC0 PUSH1 0x1 DUP1 PUSH1 0xA0 SHL SUB PUSH1 0x1 DUP4 ADD SLOAD AND CALLER EQ PUSH2 0x43FC JUMP JUMPDEST PUSH1 0xB DUP2 ADD SWAP1 DUP2 SLOAD PUSH1 0xFF DUP2 AND SWAP2 PUSH1 0x9 DUP4 LT ISZERO PUSH2 0x486 JUMPI PUSH2 0x2FF3 PUSH2 0x3DF9 SWAP2 PUSH2 0x3DEA PUSH1 0x2 PUSH1 0x3 SWAP7 EQ PUSH2 0x4485 JUMP JUMPDEST PUSH1 0x5 DUP6 DUP3 ADD SLOAD SWAP2 ADD SLOAD SWAP1 PUSH2 0x4435 JUMP JUMPDEST PUSH1 0xFF NOT AND OR SWAP1 SSTORE STOP JUMPDEST CALLVALUE PUSH2 0x24D JUMPI PUSH1 0x20 DUP1 PUSH1 0x3 NOT CALLDATASIZE ADD SLT PUSH2 0x24D JUMPI PUSH1 0x1 PUSH1 0x1 PUSH1 0xA0 SHL SUB PUSH2 0x3E24 PUSH2 0x4028 JUMP JUMPDEST AND PUSH1 0x0 MSTORE PUSH1 0x8 DUP2 MSTORE PUSH1 0x40 PUSH1 0x0 KECCAK256 DUP1 SLOAD SWAP1 PUSH2 0x3E3D DUP3 PUSH2 0x433B JUMP JUMPDEST SWAP2 PUSH2 0x3E4B PUSH1 0x40 MLOAD SWAP4 DUP5 PUSH2 0x416E JUMP JUMPDEST DUP1 DUP4 MSTORE PUSH2 0x3E57 DUP2 PUSH2 0x433B JUMP JUMPDEST SWAP1 DUP5 DUP5 ADD PUSH1 0x1F NOT DUP1 SWAP4 ADD CALLDATASIZE DUP3 CALLDATACOPY PUSH2 0x3E6D DUP3 PUSH2 0x4352 JUMP JUMPDEST PUSH2 0x3E76 DUP4 PUSH2 0x4352 JUMP JUMPDEST SWAP3 PUSH2 0x3E80 DUP2 PUSH2 0x433B JUMP JUMPDEST SWAP6 PUSH2 0x3E8E PUSH1 0x40 MLOAD SWAP8 DUP9 PUSH2 0x416E JUMP JUMPDEST DUP2 DUP8 MSTORE DUP6 PUSH2 0x3E9B DUP4 PUSH2 0x433B JUMP JUMPDEST ADD PUSH1 0x0 JUMPDEST DUP2 DUP2 LT PUSH2 0x4019 JUMPI POP POP PUSH1 0x0 JUMPDEST DUP3 DUP2 LT PUSH2 0x3F80 JUMPI POP POP POP PUSH1 0x40 MLOAD SWAP6 PUSH1 0x80 DUP8 ADD SWAP1 PUSH1 0x80 DUP9 MSTORE MLOAD DUP1 SWAP2 MSTORE PUSH1 0xA0 DUP8 ADD SWAP3 SWAP1 PUSH1 0x0 JUMPDEST DUP2 DUP2 LT PUSH2 0x3F59 JUMPI POP POP POP DUP2 PUSH2 0x3EEE SWAP2 DUP8 PUSH2 0x3EFC SWAP6 SWAP5 SUB DUP10 DUP10 ADD MSTORE PUSH2 0x4054 JUMP JUMPDEST SWAP1 DUP6 DUP3 SUB PUSH1 0x40 DUP8 ADD MSTORE PUSH2 0x4054 JUMP JUMPDEST SWAP4 DUP4 DUP6 SUB PUSH1 0x60 DUP6 ADD MSTORE DUP3 MLOAD SWAP1 DUP2 DUP7 MSTORE DUP1 DUP7 ADD DUP2 DUP1 DUP5 PUSH1 0x5 SHL DUP10 ADD ADD SWAP6 ADD SWAP4 PUSH1 0x0 SWAP8 JUMPDEST DUP5 DUP10 LT PUSH2 0x3F2B JUMPI DUP8 DUP8 SUB DUP9 RETURN JUMPDEST SWAP1 SWAP2 SWAP3 SWAP4 SWAP5 SWAP6 DUP5 DUP1 PUSH2 0x3F47 DUP4 DUP7 DUP7 PUSH1 0x1 SWAP7 SUB ADD DUP9 MSTORE DUP11 MLOAD PUSH2 0x4088 JUMP JUMPDEST SWAP9 ADD SWAP5 ADD SWAP9 ADD SWAP8 SWAP2 SWAP1 SWAP5 SWAP4 SWAP3 SWAP5 PUSH2 0x3F1E JUMP JUMPDEST SWAP1 SWAP2 SWAP4 DUP5 SWAP10 SWAP7 SWAP10 MLOAD SWAP1 PUSH1 0xD DUP3 LT ISZERO PUSH2 0x486 JUMPI SWAP1 DUP2 MSTORE SWAP6 SWAP9 SWAP6 DUP10 ADD SWAP4 DUP10 ADD SWAP2 SWAP1 PUSH1 0x1 ADD PUSH2 0x3ECF JUMP JUMPDEST PUSH1 0xFF PUSH2 0x3F8F DUP3 DUP5 SWAP13 SWAP10 SWAP13 PUSH2 0x4393 JUMP JUMPDEST POP SLOAD AND SWAP1 PUSH2 0x3F9D DUP2 DUP12 PUSH2 0x43AF JUMP JUMPDEST SWAP2 PUSH1 0xD DUP2 LT ISZERO PUSH2 0x486 JUMPI PUSH2 0x4011 SWAP3 MSTORE PUSH1 0x1 PUSH2 0x3FB8 DUP3 DUP6 PUSH2 0x4393 JUMP JUMPDEST POP ADD SLOAD PUSH2 0x3FC5 DUP3 DUP8 PUSH2 0x43AF JUMP JUMPDEST MSTORE PUSH1 0x2 PUSH2 0x3FD2 DUP3 DUP6 PUSH2 0x4393 JUMP JUMPDEST POP ADD SLOAD PUSH2 0x3FDF DUP3 DUP10 PUSH2 0x43AF JUMP JUMPDEST MSTORE PUSH2 0x3FF6 PUSH1 0x3 PUSH2 0x3FEF DUP4 DUP7 PUSH2 0x4393 JUMP JUMPDEST POP ADD PUSH2 0x4191 JUMP JUMPDEST PUSH2 0x4000 DUP3 DUP12 PUSH2 0x43AF JUMP JUMPDEST MSTORE PUSH2 0x400B DUP2 DUP11 PUSH2 0x43AF JUMP JUMPDEST POP PUSH2 0x4384 JUMP JUMPDEST SWAP9 SWAP6 SWAP9 PUSH2 0x3EAB JUMP JUMPDEST PUSH1 0x60 DUP10 DUP3 ADD DUP13 ADD MSTORE DUP11 ADD PUSH2 0x3E9F JUMP JUMPDEST PUSH1 0x4 CALLDATALOAD SWAP1 PUSH1 0x1 PUSH1 0x1 PUSH1 0xA0 SHL SUB DUP3 AND DUP3 SUB PUSH2 0x24D JUMPI JUMP JUMPDEST PUSH1 0x24 CALLDATALOAD SWAP1 PUSH1 0x1 PUSH1 0x1 PUSH1 0xA0 SHL SUB DUP3 AND DUP3 SUB PUSH2 0x24D JUMPI JUMP JUMPDEST SWAP1 DUP2 MLOAD DUP1 DUP3 MSTORE PUSH1 0x20 DUP1 DUP1 SWAP4 ADD SWAP4 ADD SWAP2 PUSH1 0x0 JUMPDEST DUP3 DUP2 LT PUSH2 0x4074 JUMPI POP POP POP POP SWAP1 JUMP JUMPDEST DUP4 MLOAD DUP6 MSTORE SWAP4 DUP2 ADD SWAP4 SWAP3 DUP2 ADD SWAP3 PUSH1 0x1 ADD PUSH2 0x4066 JUMP JUMPDEST SWAP2 SWAP1 DUP3 MLOAD SWAP3 DUP4 DUP3 MSTORE PUSH1 0x0 JUMPDEST DUP5 DUP2 LT PUSH2 0x40B4 JUMPI POP POP DUP3 PUSH1 0x0 PUSH1 0x20 DUP1 SWAP5 SWAP6 DUP5 ADD ADD MSTORE PUSH1 0x1F DUP1 NOT SWAP2 ADD AND ADD ADD SWAP1 JUMP JUMPDEST PUSH1 0x20 DUP2 DUP4 ADD DUP2 ADD MLOAD DUP5 DUP4 ADD DUP3 ADD MSTORE ADD PUSH2 0x4093 JUMP JUMPDEST SWAP1 PUSH1 0x1 DUP3 DUP2 SHR SWAP3 AND DUP1 ISZERO PUSH2 0x40F8 JUMPI JUMPDEST PUSH1 0x20 DUP4 LT EQ PUSH2 0x40E2 JUMPI JUMP JUMPDEST PUSH4 0x4E487B71 PUSH1 0xE0 SHL PUSH1 0x0 MSTORE PUSH1 0x22 PUSH1 0x4 MSTORE PUSH1 0x24 PUSH1 0x0 REVERT JUMPDEST SWAP2 PUSH1 0x7F AND SWAP2 PUSH2 0x40D7 JUMP JUMPDEST PUSH1 0x80 DUP2 ADD SWAP1 DUP2 LT PUSH1 0x1 PUSH1 0x1 PUSH1 0x40 SHL SUB DUP3 GT OR PUSH2 0x3FE JUMPI PUSH1 0x40 MSTORE JUMP JUMPDEST PUSH1 0xA0 DUP2 ADD SWAP1 DUP2 LT PUSH1 0x1 PUSH1 0x1 PUSH1 0x40 SHL SUB DUP3 GT OR PUSH2 0x3FE JUMPI PUSH1 0x40 MSTORE JUMP JUMPDEST PUSH1 0x60 DUP2 ADD SWAP1 DUP2 LT PUSH1 0x1 PUSH1 0x1 PUSH1 0x40 SHL SUB DUP3 GT OR PUSH2 0x3FE JUMPI PUSH1 0x40 MSTORE JUMP JUMPDEST PUSH1 0x40 DUP2 ADD SWAP1 DUP2 LT PUSH1 0x1 PUSH1 0x1 PUSH1 0x40 SHL SUB DUP3 GT OR PUSH2 0x3FE JUMPI PUSH1 0x40 MSTORE JUMP JUMPDEST PUSH1 0x1F SWAP1 SWAP2 ADD PUSH1 0x1F NOT AND DUP2 ADD SWAP1 PUSH1 0x1 PUSH1 0x1 PUSH1 0x40 SHL SUB DUP3 GT SWAP1 DUP3 LT OR PUSH2 0x3FE JUMPI PUSH1 0x40 MSTORE JUMP JUMPDEST SWAP1 PUSH1 0x40 MLOAD SWAP2 DUP3 PUSH1 0x0 DUP3 SLOAD SWAP3 PUSH2 0x41A5 DUP5 PUSH2 0x40C8 JUMP JUMPDEST SWAP1 DUP2 DUP5 MSTORE PUSH1 0x1 SWAP5 DUP6 DUP2 AND SWAP1 DUP2 PUSH1 0x0 EQ PUSH2 0x4214 JUMPI POP PUSH1 0x1 EQ PUSH2 0x41D1 JUMPI JUMPDEST POP POP PUSH2 0x41CF SWAP3 POP SUB DUP4 PUSH2 0x416E JUMP JUMPDEST JUMP JUMPDEST SWAP1 SWAP4 SWAP2 POP PUSH1 0x0 MSTORE PUSH1 0x20 SWAP1 DUP2 PUSH1 0x0 KECCAK256 SWAP4 PUSH1 0x0 SWAP2 JUMPDEST DUP2 DUP4 LT PUSH2 0x41FC JUMPI POP POP PUSH2 0x41CF SWAP4 POP DUP3 ADD ADD CODESIZE DUP1 PUSH2 0x41C1 JUMP JUMPDEST DUP6 SLOAD DUP9 DUP5 ADD DUP6 ADD MSTORE SWAP5 DUP6 ADD SWAP5 DUP8 SWAP5 POP SWAP2 DUP4 ADD SWAP2 PUSH2 0x41E4 JUMP JUMPDEST SWAP2 POP POP PUSH2 0x41CF SWAP5 POP PUSH1 0x20 SWAP3 POP PUSH1 0xFF NOT AND DUP3 DUP5 ADD MSTORE ISZERO ISZERO PUSH1 0x5 SHL DUP3 ADD ADD CODESIZE DUP1 PUSH2 0x41C1 JUMP JUMPDEST CALLVALUE PUSH2 0x24D JUMPI PUSH1 0x0 CALLDATASIZE PUSH1 0x3 NOT ADD SLT PUSH2 0x24D JUMPI PUSH1 0x20 PUSH1 0x40 MLOAD PUSH1 0x64 DUP2 MSTORE RETURN JUMPDEST PUSH1 0x1 PUSH1 0x1 PUSH1 0x40 SHL SUB DUP2 GT PUSH2 0x3FE JUMPI PUSH1 0x1F ADD PUSH1 0x1F NOT AND PUSH1 0x20 ADD SWAP1 JUMP JUMPDEST DUP2 PUSH1 0x1F DUP3 ADD SLT ISZERO PUSH2 0x24D JUMPI DUP1 CALLDATALOAD SWAP1 PUSH2 0x4285 DUP3 PUSH2 0x4253 JUMP JUMPDEST SWAP3 PUSH2 0x4293 PUSH1 0x40 MLOAD SWAP5 DUP6 PUSH2 0x416E JUMP JUMPDEST DUP3 DUP5 MSTORE PUSH1 0x20 DUP4 DUP4 ADD ADD GT PUSH2 0x24D JUMPI DUP2 PUSH1 0x0 SWAP3 PUSH1 0x20 DUP1 SWAP4 ADD DUP4 DUP7 ADD CALLDATACOPY DUP4 ADD ADD MSTORE SWAP1 JUMP JUMPDEST SWAP1 PUSH1 0x40 PUSH1 0x3 NOT DUP4 ADD SLT PUSH2 0x24D JUMPI PUSH1 0x4 CALLDATALOAD SWAP2 PUSH1 0x24 CALLDATALOAD SWAP1 PUSH1 0x1 PUSH1 0x1 PUSH1 0x40 SHL SUB DUP3 GT PUSH2 0x24D JUMPI PUSH2 0x42E4 SWAP2 PUSH1 0x4 ADD PUSH2 0x426E JUMP JUMPDEST SWAP1 JUMP JUMPDEST SWAP2 SWAP1 PUSH1 0x20 DUP4 ADD SWAP3 PUSH1 0x3 DUP3 LT ISZERO PUSH2 0x486 JUMPI MSTORE JUMP JUMPDEST ISZERO PUSH2 0x4301 JUMPI JUMP JUMPDEST PUSH1 0x40 MLOAD PUSH3 0x461BCD PUSH1 0xE5 SHL DUP2 MSTORE PUSH1 0x20 PUSH1 0x4 DUP3 ADD MSTORE PUSH1 0x12 PUSH1 0x24 DUP3 ADD MSTORE PUSH18 0x105B1C9958591E481C9959DA5CDD195C9959 PUSH1 0x72 SHL PUSH1 0x44 DUP3 ADD MSTORE PUSH1 0x64 SWAP1 REVERT JUMPDEST PUSH1 0x1 PUSH1 0x1 PUSH1 0x40 SHL SUB DUP2 GT PUSH2 0x3FE JUMPI PUSH1 0x5 SHL PUSH1 0x20 ADD SWAP1 JUMP JUMPDEST SWAP1 PUSH2 0x435C DUP3 PUSH2 0x433B JUMP JUMPDEST PUSH2 0x4369 PUSH1 0x40 MLOAD SWAP2 DUP3 PUSH2 0x416E JUMP JUMPDEST DUP3 DUP2 MSTORE DUP1 SWAP3 PUSH2 0x437A PUSH1 0x1F NOT SWAP2 PUSH2 0x433B JUMP JUMPDEST ADD SWAP1 PUSH1 0x20 CALLDATASIZE SWAP2 ADD CALLDATACOPY JUMP JUMPDEST PUSH1 0x0 NOT DUP2 EQ PUSH2 0xD30 JUMPI PUSH1 0x1 ADD SWAP1 JUMP JUMPDEST DUP1 SLOAD DUP3 LT ISZERO PUSH2 0x1FC6 JUMPI PUSH1 0x0 MSTORE PUSH1 0x20 PUSH1 0x0 KECCAK256 SWAP1 PUSH1 0x2 SHL ADD SWAP1 PUSH1 0x0 SWAP1 JUMP JUMPDEST DUP1 MLOAD DUP3 LT ISZERO PUSH2 0x1FC6 JUMPI PUSH1 0x20 SWAP2 PUSH1 0x5 SHL ADD ADD SWAP1 JUMP JUMPDEST ISZERO PUSH2 0x43CA JUMPI JUMP JUMPDEST PUSH1 0x40 MLOAD PUSH3 0x461BCD PUSH1 0xE5 SHL DUP2 MSTORE PUSH1 0x20 PUSH1 0x4 DUP3 ADD MSTORE PUSH1 0xA PUSH1 0x24 DUP3 ADD MSTORE PUSH10 0x139BDD0818DB1A595B9D PUSH1 0xB2 SHL PUSH1 0x44 DUP3 ADD MSTORE PUSH1 0x64 SWAP1 REVERT JUMPDEST ISZERO PUSH2 0x4403 JUMPI JUMP JUMPDEST PUSH1 0x40 MLOAD PUSH3 0x461BCD PUSH1 0xE5 SHL DUP2 MSTORE PUSH1 0x20 PUSH1 0x4 DUP3 ADD MSTORE PUSH1 0xA PUSH1 0x24 DUP3 ADD MSTORE PUSH10 0x2737BA103BB7B935B2B9 PUSH1 0xB1 SHL PUSH1 0x44 DUP3 ADD MSTORE PUSH1 0x64 SWAP1 REVERT JUMPDEST SWAP2 SWAP1 DUP3 ADD DUP1 SWAP3 GT PUSH2 0xD30 JUMPI JUMP JUMPDEST ISZERO PUSH2 0x4449 JUMPI JUMP JUMPDEST PUSH1 0x40 MLOAD PUSH3 0x461BCD PUSH1 0xE5 SHL DUP2 MSTORE PUSH1 0x20 PUSH1 0x4 DUP3 ADD MSTORE PUSH1 0x14 PUSH1 0x24 DUP3 ADD MSTORE PUSH20 0x14DD185C9D081DDA5B991BDDC8195E1C1A5C9959 PUSH1 0x62 SHL PUSH1 0x44 DUP3 ADD MSTORE PUSH1 0x64 SWAP1 REVERT JUMPDEST ISZERO PUSH2 0x448C JUMPI JUMP JUMPDEST PUSH1 0x40 MLOAD PUSH3 0x461BCD PUSH1 0xE5 SHL DUP2 MSTORE PUSH1 0x20 PUSH1 0x4 DUP3 ADD MSTORE PUSH1 0xC PUSH1 0x24 DUP3 ADD MSTORE PUSH12 0x139BDD081858D8D95C1D1959 PUSH1 0xA2 SHL PUSH1 0x44 DUP3 ADD MSTORE PUSH1 0x64 SWAP1 REVERT JUMPDEST ISZERO PUSH2 0x44C7 JUMPI JUMP JUMPDEST PUSH1 0x40 MLOAD PUSH3 0x461BCD PUSH1 0xE5 SHL DUP2 MSTORE PUSH1 0x20 PUSH1 0x4 DUP3 ADD MSTORE PUSH1 0x9 PUSH1 0x24 DUP3 ADD MSTORE PUSH9 0x546F6F206561726C79 PUSH1 0xB8 SHL PUSH1 0x44 DUP3 ADD MSTORE PUSH1 0x64 SWAP1 REVERT JUMPDEST RETURNDATASIZE ISZERO PUSH2 0x4523 JUMPI RETURNDATASIZE SWAP1 PUSH2 0x4509 DUP3 PUSH2 0x4253 JUMP JUMPDEST SWAP2 PUSH2 0x4517 PUSH1 0x40 MLOAD SWAP4 DUP5 PUSH2 0x416E JUMP JUMPDEST DUP3 MSTORE RETURNDATASIZE PUSH1 0x0 PUSH1 0x20 DUP5 ADD RETURNDATACOPY JUMP JUMPDEST PUSH1 0x60 SWAP1 JUMP JUMPDEST ISZERO PUSH2 0x452F JUMPI JUMP JUMPDEST PUSH1 0x40 MLOAD PUSH3 0x461BCD PUSH1 0xE5 SHL DUP2 MSTORE PUSH1 0x20 PUSH1 0x4 DUP3 ADD MSTORE PUSH1 0xD PUSH1 0x24 DUP3 ADD MSTORE PUSH13 0x1499599D5B990819985A5B1959 PUSH1 0x9A SHL PUSH1 0x44 DUP3 ADD MSTORE PUSH1 0x64 SWAP1 REVERT JUMPDEST PUSH1 0x40 SWAP2 DUP3 MLOAD SWAP3 PUSH2 0x4573 DUP5 PUSH2 0x4138 JUMP JUMPDEST PUSH1 0x23 DUP5 MSTORE PUSH1 0x20 SWAP3 PUSH32 0x43616E63656C6C6564206A6F6220616674657220776F726B6572206163636570 DUP5 DUP7 ADD MSTORE PUSH3 0x1D1959 PUSH1 0xEA SHL DUP3 DUP7 ADD MSTORE PUSH1 0x1 DUP1 PUSH1 0xA0 SHL SUB AND SWAP4 PUSH1 0x0 DUP6 DUP2 MSTORE PUSH1 0x8 DUP6 MSTORE DUP3 DUP2 KECCAK256 SWAP2 DUP4 MLOAD PUSH2 0x45CB DUP2 PUSH2 0x4102 JUMP JUMPDEST PUSH1 0x8 DUP2 MSTORE DUP7 DUP2 ADD DUP7 DUP2 MSTORE DUP6 DUP3 ADD SWAP1 TIMESTAMP DUP3 MSTORE PUSH1 0x60 DUP4 ADD SWAP4 DUP5 MSTORE DUP6 SLOAD PUSH1 0x1 PUSH1 0x40 SHL DUP2 LT ISZERO PUSH2 0x47CB JUMPI PUSH2 0x4602 SWAP1 PUSH1 0x1 SWAP8 DUP9 DUP3 ADD DUP2 SSTORE PUSH2 0x4393 JUMP JUMPDEST SWAP4 SWAP1 SWAP4 PUSH2 0x47B7 JUMPI MLOAD PUSH1 0xD DUP2 LT ISZERO PUSH2 0x47A3 JUMPI DUP4 SLOAD PUSH1 0xFF NOT AND PUSH1 0xFF SWAP2 SWAP1 SWAP2 AND OR DUP4 SSTORE MLOAD DUP6 DUP4 ADD SSTORE MLOAD PUSH1 0x2 DUP3 ADD SSTORE SWAP1 MLOAD DUP1 MLOAD PUSH1 0x3 SWAP1 SWAP3 ADD SWAP2 SWAP1 PUSH1 0x1 PUSH1 0x1 PUSH1 0x40 SHL SUB DUP3 GT PUSH2 0x478F JUMPI DUP2 SWAP1 PUSH2 0x4652 DUP5 SLOAD PUSH2 0x40C8 JUMP JUMPDEST PUSH1 0x1F DUP2 GT PUSH2 0x473F JUMPI JUMPDEST POP DUP9 SWAP1 PUSH1 0x1F DUP4 GT PUSH1 0x1 EQ PUSH2 0x46E0 JUMPI DUP6 SWAP3 PUSH2 0x46D5 JUMPI JUMPDEST POP POP PUSH1 0x0 NOT PUSH1 0x3 DUP4 SWAP1 SHL SHR NOT AND SWAP1 DUP5 SHL OR SWAP1 SSTORE JUMPDEST DUP6 DUP2 MSTORE PUSH1 0x9 DUP6 MSTORE DUP3 DUP2 KECCAK256 PUSH1 0x8 DUP3 MSTORE DUP6 MSTORE DUP3 DUP2 KECCAK256 SWAP1 DUP2 SLOAD SWAP3 DUP4 ADD DUP1 SWAP4 GT PUSH2 0x46C1 JUMPI POP SSTORE MLOAD SWAP1 DUP2 MSTORE PUSH1 0x8 SWAP3 SWAP2 PUSH1 0x0 DUP1 MLOAD PUSH1 0x20 PUSH2 0x522B DUP4 CODECOPY DUP2 MLOAD SWAP2 MSTORE SWAP2 LOG3 JUMP JUMPDEST PUSH4 0x4E487B71 PUSH1 0xE0 SHL DUP2 MSTORE PUSH1 0x11 PUSH1 0x4 MSTORE PUSH1 0x24 SWAP1 REVERT JUMPDEST ADD MLOAD SWAP1 POP CODESIZE DUP1 PUSH2 0x4670 JUMP JUMPDEST DUP5 DUP7 MSTORE DUP10 DUP7 KECCAK256 DUP8 SWAP5 POP SWAP2 SWAP1 PUSH1 0x1F NOT DUP5 AND DUP8 JUMPDEST DUP13 DUP3 DUP3 LT PUSH2 0x4729 JUMPI POP POP DUP5 GT PUSH2 0x4710 JUMPI JUMPDEST POP POP POP DUP2 SHL ADD SWAP1 SSTORE PUSH2 0x4684 JUMP JUMPDEST ADD MLOAD PUSH1 0x0 NOT PUSH1 0xF8 DUP5 PUSH1 0x3 SHL AND SHR NOT AND SWAP1 SSTORE CODESIZE DUP1 DUP1 PUSH2 0x4703 JUMP JUMPDEST DUP4 DUP6 ADD MLOAD DUP7 SSTORE DUP11 SWAP8 SWAP1 SWAP6 ADD SWAP5 SWAP4 DUP5 ADD SWAP4 ADD PUSH2 0x46F2 JUMP JUMPDEST SWAP1 SWAP2 POP DUP4 DUP6 MSTORE DUP9 DUP6 KECCAK256 PUSH1 0x1F DUP5 ADD PUSH1 0x5 SHR DUP2 ADD SWAP2 DUP11 DUP6 LT PUSH2 0x4785 JUMPI JUMPDEST DUP5 SWAP4 SWAP3 SWAP2 PUSH1 0x1F DUP10 SWAP3 ADD PUSH1 0x5 SHR ADD SWAP2 JUMPDEST DUP3 DUP2 LT PUSH2 0x4777 JUMPI POP POP PUSH2 0x465B JUMP JUMPDEST DUP8 DUP2 SSTORE DUP6 SWAP5 POP DUP9 SWAP2 ADD PUSH2 0x4769 JUMP JUMPDEST SWAP1 SWAP2 POP DUP2 SWAP1 PUSH2 0x475A JUMP JUMPDEST PUSH4 0x4E487B71 PUSH1 0xE0 SHL DUP5 MSTORE PUSH1 0x41 PUSH1 0x4 MSTORE PUSH1 0x24 DUP5 REVERT JUMPDEST PUSH4 0x4E487B71 PUSH1 0xE0 SHL DUP7 MSTORE PUSH1 0x21 PUSH1 0x4 MSTORE PUSH1 0x24 DUP7 REVERT JUMPDEST PUSH4 0x4E487B71 PUSH1 0xE0 SHL DUP7 MSTORE PUSH1 0x4 DUP7 SWAP1 MSTORE PUSH1 0x24 DUP7 REVERT JUMPDEST PUSH4 0x4E487B71 PUSH1 0xE0 SHL DUP7 MSTORE PUSH1 0x41 PUSH1 0x4 MSTORE PUSH1 0x24 DUP7 REVERT JUMPDEST PUSH1 0x40 MLOAD PUSH2 0x47EB DUP2 PUSH2 0x4138 JUMP JUMPDEST PUSH1 0x25 DUP2 MSTORE PUSH32 0x4163636570746564206F7220696E2D70726F6772657373206A6F62206162616E PUSH1 0x20 DUP3 ADD MSTORE PUSH5 0x191BDB9959 PUSH1 0xDA SHL PUSH1 0x40 DUP3 ADD MSTORE SWAP1 JUMP JUMPDEST ISZERO PUSH2 0x482D JUMPI JUMP JUMPDEST PUSH1 0x40 MLOAD PUSH3 0x461BCD PUSH1 0xE5 SHL DUP2 MSTORE PUSH1 0x20 PUSH1 0x4 DUP3 ADD MSTORE PUSH1 0xD PUSH1 0x24 DUP3 ADD MSTORE PUSH13 0x139BDD081CDD589B5A5D1D1959 PUSH1 0x9A SHL PUSH1 0x44 DUP3 ADD MSTORE PUSH1 0x64 SWAP1 REVERT JUMPDEST PUSH1 0x40 MLOAD SWAP1 PUSH2 0x486F DUP3 PUSH2 0x4153 JUMP JUMPDEST PUSH1 0xD DUP3 MSTORE PUSH13 0x1A9BD897D8DBDB5C1B195D1959 PUSH1 0x9A SHL PUSH1 0x20 DUP4 ADD MSTORE JUMP JUMPDEST ISZERO PUSH2 0x4892 JUMPI JUMP JUMPDEST PUSH1 0x40 MLOAD PUSH3 0x461BCD PUSH1 0xE5 SHL DUP2 MSTORE PUSH1 0x20 PUSH1 0x4 DUP3 ADD MSTORE PUSH1 0xF PUSH1 0x24 DUP3 ADD MSTORE PUSH15 0x151C985B9CD9995C8819985A5B1959 PUSH1 0x8A SHL PUSH1 0x44 DUP3 ADD MSTORE PUSH1 0x64 SWAP1 REVERT JUMPDEST SWAP1 PUSH1 0x0 SWAP2 DUP1 DUP4 MSTORE PUSH1 0x20 SWAP2 PUSH1 0xB DUP4 MSTORE PUSH1 0x40 SWAP2 DUP3 DUP6 KECCAK256 PUSH1 0x1 DUP1 PUSH1 0xA0 SHL SUB SWAP1 DUP2 DUP2 SLOAD AND PUSH2 0x48F4 DUP2 CALLER EQ PUSH2 0x43C3 JUMP JUMPDEST PUSH1 0xB DUP3 ADD DUP1 SLOAD PUSH1 0x9 SWAP3 PUSH1 0xFF DUP3 AND SWAP2 DUP5 DUP4 LT ISZERO PUSH2 0x4C67 JUMPI PUSH1 0x1 DUP1 SWAP4 EQ PUSH2 0x4C7B JUMPI POP POP DUP2 SLOAD SWAP2 PUSH1 0xFF DUP4 AND DUP5 DUP2 LT ISZERO PUSH2 0x4C67 JUMPI PUSH1 0x2 EQ PUSH2 0x496D JUMPI DUP9 MLOAD PUSH3 0x461BCD PUSH1 0xE5 SHL DUP2 MSTORE PUSH1 0x4 DUP2 ADD DUP12 SWAP1 MSTORE PUSH1 0x1B PUSH1 0x24 DUP3 ADD MSTORE PUSH27 0x43616E6E6F742063616E63656C2061742074686973207374616765 PUSH1 0x28 SHL PUSH1 0x44 DUP3 ADD MSTORE PUSH1 0x64 SWAP1 REVERT JUMPDEST PUSH1 0x6 PUSH1 0xFF SWAP11 SWAP5 SWAP7 SWAP9 SWAP11 SWAP10 SWAP4 SWAP6 SWAP8 SWAP10 NOT DUP1 SWAP7 AND OR SWAP1 SSTORE DUP7 DUP7 SLOAD AND SWAP4 PUSH2 0x4991 DUP10 DUP7 PUSH2 0x4564 JUMP JUMPDEST DUP5 DUP12 MSTORE DUP6 DUP5 MSTORE DUP3 DUP12 KECCAK256 PUSH1 0x8 DUP13 MSTORE DUP5 MSTORE PUSH1 0x5 DUP4 DUP13 KECCAK256 SLOAD LT ISZERO PUSH2 0x49D9 JUMPI JUMPDEST POP POP POP POP POP POP PUSH2 0x49D2 DUP6 DUP1 DUP1 PUSH2 0x41CF SWAP8 SWAP9 DUP7 DUP7 SLOAD AND PUSH1 0x2 DUP8 ADD SLOAD SWAP1 GAS CALL PUSH2 0x10F8 PUSH2 0x44F8 JUMP JUMPDEST SLOAD AND PUSH2 0x4564 JUMP JUMPDEST DUP5 DUP12 MSTORE DUP6 DUP5 MSTORE DUP3 DUP12 KECCAK256 DUP7 DUP13 MSTORE DUP5 MSTORE DUP3 DUP12 KECCAK256 SLOAD PUSH2 0x49AD JUMPI DUP3 MLOAD SWAP1 PUSH2 0x49FB DUP3 PUSH2 0x4153 JUMP JUMPDEST PUSH1 0x1C DUP3 MSTORE PUSH28 0x233630B3B3B2B21030B9903837BA32B73A34B0B61039B1B0B6B6B2B9 PUSH1 0x21 SHL DUP6 DUP4 ADD MSTORE DUP6 DUP13 MSTORE PUSH1 0x8 DUP6 MSTORE DUP4 DUP13 KECCAK256 DUP13 DUP6 MLOAD SWAP3 PUSH2 0x4A3A DUP5 PUSH2 0x4102 JUMP JUMPDEST DUP10 DUP5 MSTORE DUP8 DUP5 ADD SWAP2 DUP3 MSTORE TIMESTAMP DUP8 DUP6 ADD SWAP1 DUP2 MSTORE PUSH1 0x60 DUP6 ADD SWAP6 DUP7 MSTORE DUP4 SLOAD SWAP1 SWAP4 PUSH1 0x1 PUSH1 0x40 SHL DUP3 LT ISZERO PUSH2 0x4C51 JUMPI SWAP1 PUSH2 0x4A70 SWAP2 DUP9 DUP3 ADD DUP2 SSTORE PUSH2 0x4393 JUMP JUMPDEST SWAP5 SWAP1 SWAP5 PUSH2 0x4C3C JUMPI MLOAD SWAP1 PUSH1 0xD DUP3 LT ISZERO PUSH2 0x4C27 JUMPI DUP5 SLOAD PUSH1 0xFF SWAP1 SWAP3 AND SWAP2 AND OR DUP4 SSTORE MLOAD DUP5 DUP4 ADD SSTORE MLOAD PUSH1 0x2 DUP3 ADD SSTORE SWAP1 MLOAD DUP1 MLOAD PUSH1 0x3 SWAP1 SWAP3 ADD SWAP2 SWAP1 PUSH1 0x1 PUSH1 0x1 PUSH1 0x40 SHL SUB DUP3 GT PUSH2 0x4C13 JUMPI DUP13 DUP3 SWAP2 PUSH2 0x4ABF DUP6 SLOAD PUSH2 0x40C8 JUMP JUMPDEST DUP9 PUSH1 0x1F DUP3 GT PUSH2 0x4BBB JUMPI JUMPDEST POP POP DUP8 SWAP2 PUSH1 0x1F DUP5 GT PUSH1 0x1 EQ PUSH2 0x4B5C JUMPI SWAP3 PUSH2 0x4B51 JUMPI JUMPDEST POP POP PUSH1 0x0 NOT PUSH1 0x3 DUP4 SWAP1 SHL SHR NOT AND SWAP1 DUP4 SHL OR SWAP1 SSTORE JUMPDEST DUP4 DUP11 MSTORE DUP5 DUP4 MSTORE DUP2 DUP11 KECCAK256 DUP6 DUP12 MSTORE DUP4 MSTORE DUP2 DUP11 KECCAK256 DUP1 SLOAD SWAP2 DUP3 ADD DUP1 SWAP3 GT PUSH2 0x4B3D JUMPI SWAP3 PUSH2 0x41CF SWAP10 SWAP11 SWAP5 SWAP3 PUSH1 0x0 DUP1 MLOAD PUSH1 0x20 PUSH2 0x522B DUP4 CODECOPY DUP2 MLOAD SWAP2 MSTORE SWAP3 PUSH2 0x49D2 SWAP8 SWAP6 SSTORE MLOAD DUP6 DUP2 MSTORE LOG3 SWAP6 SWAP5 CODESIZE DUP1 DUP1 DUP1 PUSH2 0x49AD JUMP JUMPDEST PUSH4 0x4E487B71 PUSH1 0xE0 SHL DUP12 MSTORE PUSH1 0x11 PUSH1 0x4 MSTORE PUSH1 0x24 DUP12 REVERT JUMPDEST ADD MLOAD SWAP1 POP CODESIZE DUP1 PUSH2 0x4ADE JUMP JUMPDEST SWAP2 SWAP1 DUP7 SWAP5 POP PUSH1 0x1F NOT DUP5 AND DUP7 DUP5 MSTORE DUP10 DUP5 KECCAK256 SWAP4 JUMPDEST DUP11 DUP3 DUP3 LT PUSH2 0x4BA5 JUMPI POP POP DUP5 GT PUSH2 0x4B8C JUMPI JUMPDEST POP POP POP DUP2 SHL ADD SWAP1 SSTORE PUSH2 0x4AF2 JUMP JUMPDEST ADD MLOAD PUSH1 0x0 NOT PUSH1 0xF8 DUP5 PUSH1 0x3 SHL AND SHR NOT AND SWAP1 SSTORE CODESIZE DUP1 DUP1 PUSH2 0x4B7F JUMP JUMPDEST DUP4 DUP6 ADD MLOAD DUP7 SSTORE DUP10 SWAP8 SWAP1 SWAP6 ADD SWAP5 SWAP4 DUP5 ADD SWAP4 ADD PUSH2 0x4B6E JUMP JUMPDEST SWAP2 SWAP4 POP SWAP2 DUP6 DUP2 MSTORE KECCAK256 PUSH1 0x1F DUP5 ADD PUSH1 0x5 SHR DUP2 ADD SWAP2 DUP9 DUP6 LT PUSH2 0x4C09 JUMPI JUMPDEST SWAP2 DUP16 SWAP3 DUP6 SWAP5 SWAP3 PUSH1 0x1F DUP10 SWAP3 ADD PUSH1 0x5 SHR ADD SWAP2 JUMPDEST DUP3 DUP2 LT PUSH2 0x4BF5 JUMPI POP POP DUP9 PUSH2 0x4AC9 JUMP JUMPDEST DUP1 SWAP3 SWAP5 SWAP2 SWAP4 SWAP6 POP SSTORE ADD SWAP2 DUP15 SWAP2 DUP7 DUP6 SWAP5 PUSH2 0x4BE6 JUMP JUMPDEST SWAP1 SWAP2 POP DUP2 SWAP1 PUSH2 0x4BD5 JUMP JUMPDEST PUSH4 0x4E487B71 PUSH1 0xE0 SHL DUP14 MSTORE PUSH1 0x41 PUSH1 0x4 MSTORE PUSH1 0x24 DUP14 REVERT JUMPDEST POP PUSH4 0x4E487B71 PUSH1 0xE0 SHL DUP16 MSTORE PUSH1 0x21 PUSH1 0x4 MSTORE PUSH1 0x24 DUP16 REVERT JUMPDEST POP PUSH4 0x4E487B71 PUSH1 0xE0 SHL DUP16 MSTORE PUSH1 0x4 DUP16 SWAP1 MSTORE PUSH1 0x24 DUP16 REVERT JUMPDEST POP POP PUSH4 0x4E487B71 PUSH1 0xE0 SHL DUP16 MSTORE PUSH1 0x41 PUSH1 0x4 MSTORE PUSH1 0x24 DUP16 REVERT JUMPDEST PUSH4 0x4E487B71 PUSH1 0xE0 SHL DUP13 MSTORE PUSH1 0x21 PUSH1 0x4 MSTORE PUSH1 0x24 DUP13 REVERT JUMPDEST PUSH2 0x41CF SWAP11 POP DUP12 SWAP10 POP DUP10 SWAP9 SWAP12 SWAP8 POP DUP8 SWAP7 POP PUSH1 0x2 SWAP5 POP PUSH1 0x6 SWAP2 SWAP6 SWAP4 SWAP3 POP PUSH1 0xFF NOT AND OR SWAP1 SSTORE ADD SLOAD SWAP1 GAS CALL PUSH2 0x10F8 PUSH2 0x44F8 JUMP JUMPDEST PUSH1 0x1 PUSH1 0x1 PUSH1 0xA0 SHL SUB AND PUSH1 0x0 SWAP1 DUP2 MSTORE PUSH1 0xE PUSH1 0x20 MSTORE PUSH1 0x40 DUP2 KECCAK256 SLOAD ISZERO PUSH2 0x42E4 JUMPI PUSH1 0xD PUSH1 0x20 MSTORE PUSH1 0x40 DUP2 KECCAK256 SLOAD PUSH1 0xE PUSH1 0x20 MSTORE PUSH1 0x40 DUP3 KECCAK256 SLOAD SWAP2 DUP3 ISZERO PUSH2 0x4CE7 JUMPI POP DIV SWAP1 JUMP JUMPDEST PUSH4 0x4E487B71 PUSH1 0xE0 SHL DUP2 MSTORE PUSH1 0x12 PUSH1 0x4 MSTORE PUSH1 0x24 SWAP1 REVERT JUMPDEST ISZERO PUSH2 0x4D02 JUMPI JUMP JUMPDEST PUSH1 0x40 MLOAD PUSH3 0x461BCD PUSH1 0xE5 SHL DUP2 MSTORE PUSH1 0x20 PUSH1 0x4 DUP3 ADD MSTORE PUSH1 0xC PUSH1 0x24 DUP3 ADD MSTORE PUSH12 0x139BDD081A5B9D9BDB1D9959 PUSH1 0xA2 SHL PUSH1 0x44 DUP3 ADD MSTORE PUSH1 0x64 SWAP1 REVERT JUMPDEST ISZERO PUSH2 0x4D3D JUMPI JUMP JUMPDEST PUSH1 0x40 MLOAD PUSH3 0x461BCD PUSH1 0xE5 SHL DUP2 MSTORE PUSH1 0x20 PUSH1 0x4 DUP3 ADD MSTORE PUSH1 0x10 PUSH1 0x24 DUP3 ADD MSTORE PUSH16 0x105B1C9958591E481C995CDBDB1D9959 PUSH1 0x82 SHL PUSH1 0x44 DUP3 ADD MSTORE PUSH1 0x64 SWAP1 REVERT JUMPDEST PUSH1 0xFF AND PUSH1 0xFF DUP2 EQ PUSH2 0xD30 JUMPI PUSH1 0x1 ADD SWAP1 JUMP JUMPDEST PUSH1 0x5 DUP3 LT ISZERO PUSH2 0x1FC6 JUMPI ADD SWAP1 PUSH1 0x0 SWAP1 JUMP JUMPDEST SWAP1 DUP2 MLOAD DUP1 DUP3 MSTORE PUSH1 0x20 DUP1 DUP1 SWAP4 ADD SWAP4 ADD SWAP2 PUSH1 0x0 JUMPDEST DUP3 DUP2 LT PUSH2 0x4DB6 JUMPI POP POP POP POP SWAP1 JUMP JUMPDEST DUP4 MLOAD PUSH1 0x1 PUSH1 0x1 PUSH1 0xA0 SHL SUB AND DUP6 MSTORE SWAP4 DUP2 ADD SWAP4 SWAP3 DUP2 ADD SWAP3 PUSH1 0x1 ADD PUSH2 0x4DA8 JUMP JUMPDEST ISZERO PUSH2 0x4DDA JUMPI JUMP JUMPDEST PUSH1 0x40 MLOAD PUSH3 0x461BCD PUSH1 0xE5 SHL DUP2 MSTORE PUSH1 0x20 PUSH1 0x4 DUP3 ADD MSTORE PUSH1 0xC PUSH1 0x24 DUP3 ADD MSTORE PUSH12 0x139BDD08191A5CDC1D5D1959 PUSH1 0xA2 SHL PUSH1 0x44 DUP3 ADD MSTORE PUSH1 0x64 SWAP1 REVERT JUMPDEST ISZERO PUSH2 0x4E15 JUMPI JUMP JUMPDEST PUSH1 0x40 MLOAD PUSH3 0x461BCD PUSH1 0xE5 SHL DUP2 MSTORE PUSH1 0x20 PUSH1 0x4 DUP3 ADD MSTORE PUSH1 0xA PUSH1 0x24 DUP3 ADD MSTORE PUSH10 0x4E6F2064697370757465 PUSH1 0xB0 SHL PUSH1 0x44 DUP3 ADD MSTORE PUSH1 0x64 SWAP1 REVERT JUMPDEST PUSH1 0xFF AND PUSH1 0x2 ADD SWAP1 PUSH1 0xFF DUP3 GT PUSH2 0xD30 JUMPI JUMP JUMPDEST PUSH1 0x40 MLOAD SWAP1 PUSH2 0x4E65 DUP3 PUSH2 0x4153 JUMP JUMPDEST PUSH1 0xC DUP3 MSTORE PUSH12 0x6C6F73745F64697370757465 PUSH1 0xA0 SHL PUSH1 0x20 DUP4 ADD MSTORE JUMP JUMPDEST PUSH1 0x40 MLOAD SWAP1 PUSH2 0x4E8D DUP3 PUSH2 0x4153 JUMP JUMPDEST PUSH1 0xB DUP3 MSTORE PUSH11 0x776F6E5F64697370757465 PUSH1 0xA8 SHL PUSH1 0x20 DUP4 ADD MSTORE JUMP JUMPDEST PUSH1 0x1 PUSH1 0x1 PUSH1 0xA0 SHL SUB AND PUSH1 0x0 DUP2 DUP2 MSTORE PUSH1 0x1 PUSH1 0x20 MSTORE PUSH1 0x40 DUP2 KECCAK256 SLOAD PUSH1 0xFF AND PUSH2 0x4F16 JUMPI DUP1 DUP3 PUSH32 0x5D95448EDAE7BCC3F04CEED898BF2926C2E56C8DE7C6A57D3B90539B1FF037A6 SWAP3 MSTORE DUP1 PUSH1 0x20 MSTORE PUSH1 0x40 DUP2 KECCAK256 PUSH1 0xFF NOT SWAP1 PUSH1 0x64 DUP3 DUP3 SLOAD AND OR SWAP1 SSTORE PUSH1 0x1 PUSH1 0x20 MSTORE PUSH1 0x1 PUSH1 0x40 DUP4 KECCAK256 SWAP2 DUP3 SLOAD AND OR SWAP1 SSTORE DUP1 LOG2 JUMP JUMPDEST PUSH1 0x40 MLOAD PUSH3 0x461BCD PUSH1 0xE5 SHL DUP2 MSTORE PUSH1 0x20 PUSH1 0x4 DUP3 ADD MSTORE PUSH1 0x13 PUSH1 0x24 DUP3 ADD MSTORE PUSH19 0x105B1C9958591E481A5B9A5D1A585B1A5E9959 PUSH1 0x6A SHL PUSH1 0x44 DUP3 ADD MSTORE PUSH1 0x64 SWAP1 REVERT JUMPDEST PUSH1 0xFF PUSH2 0x42E4 SWAP5 SWAP4 DUP2 PUSH1 0x60 SWAP5 AND DUP4 MSTORE AND PUSH1 0x20 DUP3 ADD MSTORE DUP2 PUSH1 0x40 DUP3 ADD MSTORE ADD SWAP1 PUSH2 0x4088 JUMP JUMPDEST PUSH1 0x1 PUSH1 0x1 PUSH1 0xA0 SHL SUB AND PUSH1 0x0 DUP2 DUP2 MSTORE PUSH1 0x20 DUP2 SWAP1 MSTORE PUSH1 0x40 DUP2 KECCAK256 SLOAD SWAP2 SWAP3 SWAP1 SWAP2 PUSH1 0xFF AND SWAP1 PUSH1 0x5 DUP3 ADD PUSH2 0xFFFF DUP1 DUP3 GT PUSH2 0x5027 JUMPI PUSH1 0x64 SWAP1 DUP3 AND GT ISZERO PUSH2 0x4FED JUMPI POP SWAP1 PUSH2 0x4FE8 PUSH1 0x0 DUP1 MLOAD PUSH1 0x20 PUSH2 0x524B DUP4 CODECOPY DUP2 MLOAD SWAP2 MSTORE SWAP4 SWAP3 PUSH1 0x40 PUSH1 0x64 SWAP5 JUMPDEST DUP8 DUP2 MSTORE DUP1 PUSH1 0x20 MSTORE KECCAK256 PUSH1 0xFF DUP6 AND PUSH1 0xFF NOT DUP3 SLOAD AND OR SWAP1 SSTORE PUSH1 0x40 MLOAD SWAP4 DUP5 SWAP4 DUP5 PUSH2 0x4F51 JUMP JUMPDEST SUB SWAP1 LOG2 JUMP JUMPDEST PUSH1 0xFF DUP2 GT PUSH2 0x5013 JUMPI PUSH1 0x0 DUP1 MLOAD PUSH1 0x20 PUSH2 0x524B DUP4 CODECOPY DUP2 MLOAD SWAP2 MSTORE SWAP4 SWAP3 SWAP2 PUSH1 0x40 PUSH2 0x4FE8 SWAP3 SWAP5 PUSH2 0x4FC7 JUMP JUMPDEST PUSH4 0x4E487B71 PUSH1 0xE0 SHL DUP5 MSTORE PUSH1 0x11 PUSH1 0x4 MSTORE PUSH1 0x24 DUP5 REVERT JUMPDEST PUSH4 0x4E487B71 PUSH1 0xE0 SHL DUP6 MSTORE PUSH1 0x11 PUSH1 0x4 MSTORE PUSH1 0x24 DUP6 REVERT JUMPDEST PUSH1 0x1 PUSH1 0x1 PUSH1 0xA0 SHL SUB AND PUSH1 0x0 DUP2 DUP2 MSTORE PUSH1 0x20 DUP2 SWAP1 MSTORE PUSH1 0x40 DUP2 KECCAK256 SLOAD SWAP2 SWAP3 SWAP1 SWAP2 PUSH1 0xFF AND SWAP1 PUSH1 0xA DUP3 ADD PUSH2 0xFFFF DUP1 DUP3 GT PUSH2 0x5027 JUMPI PUSH1 0x64 SWAP1 DUP3 AND GT ISZERO PUSH2 0x4FED JUMPI POP SWAP1 PUSH2 0x4FE8 PUSH1 0x0 DUP1 MLOAD PUSH1 0x20 PUSH2 0x524B DUP4 CODECOPY DUP2 MLOAD SWAP2 MSTORE SWAP4 SWAP3 PUSH1 0x40 PUSH1 0x64 SWAP5 DUP8 DUP2 MSTORE DUP1 PUSH1 0x20 MSTORE KECCAK256 PUSH1 0xFF DUP6 AND PUSH1 0xFF NOT DUP3 SLOAD AND OR SWAP1 SSTORE PUSH1 0x40 MLOAD SWAP4 DUP5 SWAP4 DUP5 PUSH2 0x4F51 JUMP JUMPDEST PUSH1 0x1 PUSH1 0x1 PUSH1 0xA0 SHL SUB AND PUSH1 0x0 DUP2 DUP2 MSTORE PUSH1 0x20 DUP2 SWAP1 MSTORE PUSH1 0x40 DUP2 KECCAK256 SLOAD SWAP2 SWAP3 SWAP1 SWAP2 PUSH1 0xFF AND SWAP1 PUSH1 0xA DUP3 GT PUSH2 0x5112 JUMPI SWAP1 PUSH2 0x4FE8 DUP4 SWAP3 PUSH1 0x40 PUSH1 0x0 DUP1 MLOAD PUSH1 0x20 PUSH2 0x524B DUP4 CODECOPY DUP2 MLOAD SWAP2 MSTORE SWAP6 SWAP5 DUP8 DUP2 MSTORE DUP1 PUSH1 0x20 MSTORE KECCAK256 PUSH1 0xFF DUP6 AND PUSH1 0xFF NOT DUP3 SLOAD AND OR SWAP1 SSTORE PUSH1 0x40 MLOAD SWAP4 DUP5 SWAP4 DUP5 PUSH2 0x4F51 JUMP JUMPDEST PUSH1 0x9 NOT DUP3 ADD PUSH1 0xFF DUP2 GT PUSH2 0x5013 JUMPI PUSH1 0x0 DUP1 MLOAD PUSH1 0x20 PUSH2 0x524B DUP4 CODECOPY DUP2 MLOAD SWAP2 MSTORE SWAP4 SWAP3 SWAP2 PUSH1 0x40 PUSH2 0x4FE8 SWAP3 SWAP5 PUSH2 0x4FC7 JUMP JUMPDEST PUSH1 0x1 DUP1 PUSH1 0xA0 SHL SUB AND PUSH1 0x0 MSTORE PUSH1 0x0 PUSH1 0x20 MSTORE PUSH1 0x64 PUSH1 0xFF PUSH1 0x40 PUSH1 0x0 KECCAK256 SLOAD AND LT ISZERO SWAP1 JUMP JUMPDEST PUSH1 0x2 SLOAD DUP2 LT ISZERO PUSH2 0x1FC6 JUMPI PUSH1 0x2 PUSH1 0x0 MSTORE PUSH1 0x20 PUSH1 0x0 KECCAK256 ADD SWAP1 PUSH1 0x0 SWAP1 JUMP JUMPDEST PUSH1 0x1 PUSH1 0x1 PUSH1 0xA0 SHL SUB DUP2 AND PUSH1 0x0 DUP2 DUP2 MSTORE PUSH1 0x3 PUSH1 0x20 MSTORE PUSH1 0x40 DUP2 KECCAK256 SLOAD SWAP1 SWAP3 SWAP1 PUSH1 0xFF AND ISZERO PUSH2 0x51A1 JUMPI POP POP POP JUMP JUMPDEST PUSH1 0x2 SLOAD PUSH1 0x1 PUSH1 0x40 SHL DUP2 LT ISZERO PUSH2 0x478F JUMPI PUSH1 0x40 SWAP4 SWAP3 SWAP2 PUSH2 0x1CDD DUP3 PUSH1 0x1 PUSH2 0x51C8 SWAP5 ADD PUSH1 0x2 SSTORE PUSH2 0x515D JUMP JUMPDEST DUP2 MSTORE PUSH1 0x3 PUSH1 0x20 MSTORE KECCAK256 DUP1 SLOAD PUSH1 0xFF NOT AND PUSH1 0x1 OR SWAP1 SSTORE JUMP JUMPDEST SWAP2 SWAP1 DUP3 SUB SWAP2 DUP3 GT PUSH2 0xD30 JUMPI JUMP JUMPDEST DUP2 ISZERO PUSH2 0x51F4 JUMPI MOD SWAP1 JUMP JUMPDEST PUSH4 0x4E487B71 PUSH1 0xE0 SHL PUSH1 0x0 MSTORE PUSH1 0x12 PUSH1 0x4 MSTORE PUSH1 0x24 PUSH1 0x0 REVERT INVALID 0xAA DELEGATECALL SWAP13 EXTCODESIZE SWAP4 0xC6 RETURN 0xA6 PUSH12 0x3AD89750CFDBB3FE0BE78655 SWAP15 CALL 0x29 DUP16 PUSH15 0x6CB977566337D4DF0CB969B99D25F1 0x21 LOG3 0xE9 0xC7 RETURN 0x2D DUP16 0xCC GAS 0xD PUSH25 0x2408695F68DE9493DB8CC177BBF5EE5EEE34326C6C2D38C9B7 0xCE 0xEB PUSH27 0x8E3EE460657A93DD17FAC3E82B141D57A264697066735822122057 PUSH14 0x6790A801CBB9A86413998C960D1C 0xC 0xCF SHR 0x26 0xC5 PUSH26 0xABDF85653433AEFC034A64736F6C634300081400330000000000 "},"methodIdentifiers":{"APPROVE_TIMEOUT()":"4f0db622","INIT_SCORE()":"247bc4a7","MAX_SCORE()":"27ff6223","MIN_SCORE()":"40b89270","SCAM_THRESHOLD()":"2488b2ee","SERIAL_CANCEL_THRESHOLD()":"e72f73a8","VOTER_THRESHOLD()":"9ec0164a","VOTE_DURATION()":"4654ff05","acceptJob(uint256)":"63b2f3c9","approveJob(uint256,uint8,string)":"771dd581","autoReleaseIfNotApproved(uint256)":"c5f8e299","badgeCount(address,uint256)":"2d592865","cancelIfNotStarted(uint256)":"ca62fafd","cancelIfNotSubmitted(uint256)":"66c910c8","cancelJob(uint256)":"1dffa3dc","castVote(uint256,bool)":"15373e3d","createJob(string,uint256,uint256,uint256,uint256)":"cbf78ee6","disputes(uint256)":"564a565d","feedbacks(uint256)":"2bb8b0dc","fundJob(uint256)":"8d22b863","getBadgeCount(address,uint8)":"8721ba3f","getBadges(address)":"03828e45","getDisputeVoters(uint256)":"1732d652","getMyRole()":"6e3b47fc","getRating(address)":"80fc9c0e","getVoteCount(uint256)":"b2c2f2e8","hasVoted(uint256,address)":"43859632","isEligibleVoter(address)":"4225e7f4","isScammer(address)":"69c04c44","jobCount()":"4c5d8a0f","jobs(uint256)":"180aedf3","raiseDispute(uint256,string)":"5aef573c","ratingCount(address)":"2404165e","registerClient()":"6d9fb287","registerWorker()":"208082bf","replaceInactiveVoters(uint256)":"adcd5843","reputationScore(address)":"50d061cb","resolveDispute(uint256)":"c2b7b868","roles(address)":"99374642","startWork(uint256)":"03a250f9","submitCounterEvidence(uint256,string)":"d0d24142","submitWork(uint256,string)":"da8accf9","totalRating(address)":"4807632f","voteChoice(uint256,address)":"fb468855"}}}}}