{"contracts/DisputeManager.sol":{"DisputeManager":{"abi":[{"anonymous":false,"inputs":[{"indexed":true,"internalType":"uint256","name":"jobId","type":"uint256"},{"indexed":true,"internalType":"address","name":"responder","type":"address"}],"name":"CounterEvidenceSubmitted","type":"event"},{"anonymous":false,"inputs":[{"indexed":true,"internalType":"uint256","name":"jobId","type":"uint256"},{"indexed":true,"internalType":"address","name":"initiator","type":"address"}],"name":"DisputeRaised","type":"event"},{"anonymous":false,"inputs":[{"indexed":true,"internalType":"uint256","name":"jobId","type":"uint256"},{"indexed":false,"internalType":"enum DisputeOutcome","name":"outcome","type":"uint8"}],"name":"DisputeResolved","type":"event"},{"anonymous":false,"inputs":[{"indexed":true,"internalType":"address","name":"user","type":"address"},{"indexed":false,"internalType":"uint8","name":"oldScore","type":"uint8"},{"indexed":false,"internalType":"uint8","name":"newScore","type":"uint8"},{"indexed":false,"internalType":"string","name":"reason","type":"string"}],"name":"ScoreChanged","type":"event"},{"anonymous":false,"inputs":[{"indexed":true,"internalType":"address","name":"user","type":"address"}],"name":"ScoreInitialized","type":"event"},{"anonymous":false,"inputs":[{"indexed":true,"internalType":"uint256","name":"jobId","type":"uint256"},{"indexed":true,"internalType":"address","name":"voter","type":"address"},{"indexed":false,"internalType":"bool","name":"voteForWorker","type":"bool"}],"name":"Voted","type":"event"},{"anonymous":false,"inputs":[{"indexed":true,"internalType":"uint256","name":"jobId","type":"uint256"},{"indexed":false,"internalType":"address[]","name":"voters","type":"address[]"}],"name":"VoterSelected","type":"event"},{"anonymous":false,"inputs":[{"indexed":true,"internalType":"uint256","name":"jobId","type":"uint256"},{"indexed":false,"internalType":"address[]","name":"newVoters","type":"address[]"},{"indexed":false,"internalType":"uint256","name":"newDeadline","type":"uint256"}],"name":"VotersReplaced","type":"event"},{"inputs":[],"name":"INIT_SCORE","outputs":[{"internalType":"uint8","name":"","type":"uint8"}],"stateMutability":"view","type":"function"},{"inputs":[],"name":"MAX_SCORE","outputs":[{"internalType":"uint8","name":"","type":"uint8"}],"stateMutability":"view","type":"function"},{"inputs":[],"name":"MIN_SCORE","outputs":[{"internalType":"uint8","name":"","type":"uint8"}],"stateMutability":"view","type":"function"},{"inputs":[],"name":"VOTER_THRESHOLD","outputs":[{"internalType":"uint8","name":"","type":"uint8"}],"stateMutability":"view","type":"function"},{"inputs":[],"name":"VOTE_DURATION","outputs":[{"internalType":"uint256","name":"","type":"uint256"}],"stateMutability":"view","type":"function"},{"inputs":[{"internalType":"uint256","name":"","type":"uint256"}],"name":"disputes","outputs":[{"internalType":"uint256","name":"jobId","type":"uint256"},{"internalType":"address","name":"initiator","type":"address"},{"internalType":"string","name":"evidenceHash","type":"string"},{"internalType":"string","name":"counterHash","type":"string"},{"internalType":"uint8","name":"voterCount","type":"uint8"},{"internalType":"uint8","name":"votesForWorker","type":"uint8"},{"internalType":"uint8","name":"votesForClient","type":"uint8"},{"internalType":"uint256","name":"deadline","type":"uint256"},{"internalType":"bool","name":"resolved","type":"bool"},{"internalType":"enum DisputeOutcome","name":"outcome","type":"uint8"}],"stateMutability":"view","type":"function"},{"inputs":[{"internalType":"uint256","name":"jobId","type":"uint256"}],"name":"getDisputeVoters","outputs":[{"internalType":"address[5]","name":"","type":"address[5]"}],"stateMutability":"view","type":"function"},{"inputs":[{"internalType":"uint256","name":"jobId","type":"uint256"}],"name":"getVoteCount","outputs":[{"internalType":"uint8","name":"forWorker","type":"uint8"},{"internalType":"uint8","name":"forClient","type":"uint8"}],"stateMutability":"view","type":"function"},{"inputs":[{"internalType":"uint256","name":"","type":"uint256"},{"internalType":"address","name":"","type":"address"}],"name":"hasVoted","outputs":[{"internalType":"bool","name":"","type":"bool"}],"stateMutability":"view","type":"function"},{"inputs":[{"internalType":"address","name":"user","type":"address"}],"name":"isEligibleVoter","outputs":[{"internalType":"bool","name":"","type":"bool"}],"stateMutability":"view","type":"function"},{"inputs":[{"internalType":"address","name":"","type":"address"}],"name":"reputationScore","outputs":[{"internalType":"uint8","name":"","type":"uint8"}],"stateMutability":"view","type":"function"},{"inputs":[{"internalType":"uint256","name":"","type":"uint256"},{"internalType":"address","name":"","type":"address"}],"name":"voteChoice","outputs":[{"internalType":"bool","name":"","type":"bool"}],"stateMutability":"view","type":"function"}],"evm":{"bytecode":{"linkReferences":{},"object":"608080604052346100165761058a908161001c8239f35b600080fdfe6080604081815260048036101561001557600080fd5b600092833560e01c9081631732d6521461031657508063247bc4a71461012f57806327ff62231461012f57806340b89270146102fb5780634225e7f4146102bb57806343859632146102755780634654ff051461025857806350d061cb1461021d578063564a565d146101345780639ec0164a1461012f578063b2c2f2e8146100f05763fb468855146100a757600080fd5b346100ec57816003193601126100ec578160209360ff926100c66103f3565b90358252600686528282206001600160a01b039091168252855220549151911615158152f35b8280fd5b5082903461012b57602036600319011261012b5760099181849235825260205220015460ff825191818160081c16835260101c166020820152f35b5080fd5b6103bc565b5091903461012b57602036600319011261012b5782358252826020528082209081549260ff60018060a01b03600185015416926101736002860161043a565b94826101c96101846003840161043a565b6101bb600985015499600b600a87015496015496858860081c169a602082519e8f90815201528c61014091829101528c0190610514565b908a820360608c0152610514565b9681811660808a0152818160081c1660a08a015260101c1660c088015260e08701521615156101008501528482101561020a57508293506101208301520390f35b634e487b7160e01b815260218552602490fd5b50503461012b57602036600319011261012b5760209160ff9082906001600160a01b036102486103dd565b1681528085522054169051908152f35b50503461012b578160031936011261012b576020905161012c8152f35b50346100ec57816003193601126100ec578160209360ff926102956103f3565b90358252600586528282206001600160a01b039091168252855220549151911615158152f35b50503461012b57602036600319011261012b5760209160649060ff9083906001600160a01b036102e96103dd565b16815280865220541610159051908152f35b50503461012b578160031936011261012b5751908152602090f35b919050346103b857602091826003193601126103b4578061033b60a092969596610409565b36903780358352808252838320845194910183855b600582106103955750505061036484610409565b519291835b600582106103765760a085f35b83516001600160a01b0316815292820192600191909101908201610369565b82546001600160a01b0316815260019283019291909101908401610350565b8480fd5b8380fd5b346103d85760003660031901126103d857602060405160648152f35b600080fd5b600435906001600160a01b03821682036103d857565b602435906001600160a01b03821682036103d857565b60a081019081106001600160401b0382111761042457604052565b634e487b7160e01b600052604160045260246000fd5b9060405191600090805490600182811c9181841693841561050a575b60209485851081146104f6578489529081156104d8575060011461049c575b50505050829003601f01601f191682016001600160401b0381118382101761042457604052565b909293506000528260002091836000935b8385106104c4575050505083010138808080610475565b8054888601830152930192849082016104ad565b60ff191688860152505050151560051b840101905038808080610475565b634e487b7160e01b87526022600452602487fd5b92607f1692610456565b919082519283825260005b848110610540575050826000602080949584010152601f8019910116010190565b60208183018101518483018201520161051f56fea264697066735822122010c9711d1314c4fc27ed78b764af02a9d62d9fee4197afd5e6bb211343180f5c64736f6c63430008140033","opcodes":"PUSH1 0x80 DUP1 PUSH1 0x40 MSTORE CALLVALUE PUSH2 0x16 JUMPI PUSH2 0x58A SWAP1 DUP2 PUSH2 0x1C DUP3 CODECOPY RETURN JUMPDEST PUSH1 0x0 DUP1 REVERT INVALID PUSH1 0x80 PUSH1 0x40 DUP2 DUP2 MSTORE PUSH1 0x4 DUP1 CALLDATASIZE LT ISZERO PUSH2 0x15 JUMPI PUSH1 0x0 DUP1 REVERT JUMPDEST PUSH1 0x0 SWAP3 DUP4 CALLDATALOAD PUSH1 0xE0 SHR SWAP1 DUP2 PUSH4 0x1732D652 EQ PUSH2 0x316 JUMPI POP DUP1 PUSH4 0x247BC4A7 EQ PUSH2 0x12F JUMPI DUP1 PUSH4 0x27FF6223 EQ PUSH2 0x12F JUMPI DUP1 PUSH4 0x40B89270 EQ PUSH2 0x2FB JUMPI DUP1 PUSH4 0x4225E7F4 EQ PUSH2 0x2BB JUMPI DUP1 PUSH4 0x43859632 EQ PUSH2 0x275 JUMPI DUP1 PUSH4 0x4654FF05 EQ PUSH2 0x258 JUMPI DUP1 PUSH4 0x50D061CB EQ PUSH2 0x21D JUMPI DUP1 PUSH4 0x564A565D EQ PUSH2 0x134 JUMPI DUP1 PUSH4 0x9EC0164A EQ PUSH2 0x12F JUMPI DUP1 PUSH4 0xB2C2F2E8 EQ PUSH2 0xF0 JUMPI PUSH4 0xFB468855 EQ PUSH2 0xA7 JUMPI PUSH1 0x0 DUP1 REVERT JUMPDEST CALLVALUE PUSH2 0xEC JUMPI DUP2 PUSH1 0x3 NOT CALLDATASIZE ADD SLT PUSH2 0xEC JUMPI DUP2 PUSH1 0x20 SWAP4 PUSH1 0xFF SWAP3 PUSH2 0xC6 PUSH2 0x3F3 JUMP JUMPDEST SWAP1 CALLDATALOAD DUP3 MSTORE PUSH1 0x6 DUP7 MSTORE DUP3 DUP3 KECCAK256 PUSH1 0x1 PUSH1 0x1 PUSH1 0xA0 SHL SUB SWAP1 SWAP2 AND DUP3 MSTORE DUP6 MSTORE KECCAK256 SLOAD SWAP2 MLOAD SWAP2 AND ISZERO ISZERO DUP2 MSTORE RETURN JUMPDEST DUP3 DUP1 REVERT JUMPDEST POP DUP3 SWAP1 CALLVALUE PUSH2 0x12B JUMPI PUSH1 0x20 CALLDATASIZE PUSH1 0x3 NOT ADD SLT PUSH2 0x12B JUMPI PUSH1 0x9 SWAP2 DUP2 DUP5 SWAP3 CALLDATALOAD DUP3 MSTORE PUSH1 0x20 MSTORE KECCAK256 ADD SLOAD PUSH1 0xFF DUP3 MLOAD SWAP2 DUP2 DUP2 PUSH1 0x8 SHR AND DUP4 MSTORE PUSH1 0x10 SHR AND PUSH1 0x20 DUP3 ADD MSTORE RETURN JUMPDEST POP DUP1 REVERT JUMPDEST PUSH2 0x3BC JUMP JUMPDEST POP SWAP2 SWAP1 CALLVALUE PUSH2 0x12B JUMPI PUSH1 0x20 CALLDATASIZE PUSH1 0x3 NOT ADD SLT PUSH2 0x12B JUMPI DUP3 CALLDATALOAD DUP3 MSTORE DUP3 PUSH1 0x20 MSTORE DUP1 DUP3 KECCAK256 SWAP1 DUP2 SLOAD SWAP3 PUSH1 0xFF PUSH1 0x1 DUP1 PUSH1 0xA0 SHL SUB PUSH1 0x1 DUP6 ADD SLOAD AND SWAP3 PUSH2 0x173 PUSH1 0x2 DUP7 ADD PUSH2 0x43A JUMP JUMPDEST SWAP5 DUP3 PUSH2 0x1C9 PUSH2 0x184 PUSH1 0x3 DUP5 ADD PUSH2 0x43A JUMP JUMPDEST PUSH2 0x1BB PUSH1 0x9 DUP6 ADD SLOAD SWAP10 PUSH1 0xB PUSH1 0xA DUP8 ADD SLOAD SWAP7 ADD SLOAD SWAP7 DUP6 DUP9 PUSH1 0x8 SHR AND SWAP11 PUSH1 0x20 DUP3 MLOAD SWAP15 DUP16 SWAP1 DUP2 MSTORE ADD MSTORE DUP13 PUSH2 0x140 SWAP2 DUP3 SWAP2 ADD MSTORE DUP13 ADD SWAP1 PUSH2 0x514 JUMP JUMPDEST SWAP1 DUP11 DUP3 SUB PUSH1 0x60 DUP13 ADD MSTORE PUSH2 0x514 JUMP JUMPDEST SWAP7 DUP2 DUP2 AND PUSH1 0x80 DUP11 ADD MSTORE DUP2 DUP2 PUSH1 0x8 SHR AND PUSH1 0xA0 DUP11 ADD MSTORE PUSH1 0x10 SHR AND PUSH1 0xC0 DUP9 ADD MSTORE PUSH1 0xE0 DUP8 ADD MSTORE AND ISZERO ISZERO PUSH2 0x100 DUP6 ADD MSTORE DUP5 DUP3 LT ISZERO PUSH2 0x20A JUMPI POP DUP3 SWAP4 POP PUSH2 0x120 DUP4 ADD MSTORE SUB SWAP1 RETURN JUMPDEST PUSH4 0x4E487B71 PUSH1 0xE0 SHL DUP2 MSTORE PUSH1 0x21 DUP6 MSTORE PUSH1 0x24 SWAP1 REVERT JUMPDEST POP POP CALLVALUE PUSH2 0x12B JUMPI PUSH1 0x20 CALLDATASIZE PUSH1 0x3 NOT ADD SLT PUSH2 0x12B JUMPI PUSH1 0x20 SWAP2 PUSH1 0xFF SWAP1 DUP3 SWAP1 PUSH1 0x1 PUSH1 0x1 PUSH1 0xA0 SHL SUB PUSH2 0x248 PUSH2 0x3DD JUMP JUMPDEST AND DUP2 MSTORE DUP1 DUP6 MSTORE KECCAK256 SLOAD AND SWAP1 MLOAD SWAP1 DUP2 MSTORE RETURN JUMPDEST POP POP CALLVALUE PUSH2 0x12B JUMPI DUP2 PUSH1 0x3 NOT CALLDATASIZE ADD SLT PUSH2 0x12B JUMPI PUSH1 0x20 SWAP1 MLOAD PUSH2 0x12C DUP2 MSTORE RETURN JUMPDEST POP CALLVALUE PUSH2 0xEC JUMPI DUP2 PUSH1 0x3 NOT CALLDATASIZE ADD SLT PUSH2 0xEC JUMPI DUP2 PUSH1 0x20 SWAP4 PUSH1 0xFF SWAP3 PUSH2 0x295 PUSH2 0x3F3 JUMP JUMPDEST SWAP1 CALLDATALOAD DUP3 MSTORE PUSH1 0x5 DUP7 MSTORE DUP3 DUP3 KECCAK256 PUSH1 0x1 PUSH1 0x1 PUSH1 0xA0 SHL SUB SWAP1 SWAP2 AND DUP3 MSTORE DUP6 MSTORE KECCAK256 SLOAD SWAP2 MLOAD SWAP2 AND ISZERO ISZERO DUP2 MSTORE RETURN JUMPDEST POP POP CALLVALUE PUSH2 0x12B JUMPI PUSH1 0x20 CALLDATASIZE PUSH1 0x3 NOT ADD SLT PUSH2 0x12B JUMPI PUSH1 0x20 SWAP2 PUSH1 0x64 SWAP1 PUSH1 0xFF SWAP1 DUP4 SWAP1 PUSH1 0x1 PUSH1 0x1 PUSH1 0xA0 SHL SUB PUSH2 0x2E9 PUSH2 0x3DD JUMP JUMPDEST AND DUP2 MSTORE DUP1 DUP7 MSTORE KECCAK256 SLOAD AND LT ISZERO SWAP1 MLOAD SWAP1 DUP2 MSTORE RETURN JUMPDEST POP POP CALLVALUE PUSH2 0x12B JUMPI DUP2 PUSH1 0x3 NOT CALLDATASIZE ADD SLT PUSH2 0x12B JUMPI MLOAD SWAP1 DUP2 MSTORE PUSH1 0x20 SWAP1 RETURN JUMPDEST SWAP2 SWAP1 POP CALLVALUE PUSH2 0x3B8 JUMPI PUSH1 0x20 SWAP2 DUP3 PUSH1 0x3 NOT CALLDATASIZE ADD SLT PUSH2 0x3B4 JUMPI DUP1 PUSH2 0x33B PUSH1 0xA0 SWAP3 SWAP7 SWAP6 SWAP7 PUSH2 0x409 JUMP JUMPDEST CALLDATASIZE SWAP1 CALLDATACOPY DUP1 CALLDATALOAD DUP4 MSTORE DUP1 DUP3 MSTORE DUP4 DUP4 KECCAK256 DUP5 MLOAD SWAP5 SWAP2 ADD DUP4 DUP6 JUMPDEST PUSH1 0x5 DUP3 LT PUSH2 0x395 JUMPI POP POP POP PUSH2 0x364 DUP5 PUSH2 0x409 JUMP JUMPDEST MLOAD SWAP3 SWAP2 DUP4 JUMPDEST PUSH1 0x5 DUP3 LT PUSH2 0x376 JUMPI PUSH1 0xA0 DUP6 RETURN JUMPDEST DUP4 MLOAD PUSH1 0x1 PUSH1 0x1 PUSH1 0xA0 SHL SUB AND DUP2 MSTORE SWAP3 DUP3 ADD SWAP3 PUSH1 0x1 SWAP2 SWAP1 SWAP2 ADD SWAP1 DUP3 ADD PUSH2 0x369 JUMP JUMPDEST DUP3 SLOAD PUSH1 0x1 PUSH1 0x1 PUSH1 0xA0 SHL SUB AND DUP2 MSTORE PUSH1 0x1 SWAP3 DUP4 ADD SWAP3 SWAP2 SWAP1 SWAP2 ADD SWAP1 DUP5 ADD PUSH2 0x350 JUMP JUMPDEST DUP5 DUP1 REVERT JUMPDEST DUP4 DUP1 REVERT JUMPDEST CALLVALUE PUSH2 0x3D8 JUMPI PUSH1 0x0 CALLDATASIZE PUSH1 0x3 NOT ADD SLT PUSH2 0x3D8 JUMPI PUSH1 0x20 PUSH1 0x40 MLOAD PUSH1 0x64 DUP2 MSTORE RETURN JUMPDEST PUSH1 0x0 DUP1 REVERT JUMPDEST PUSH1 0x4 CALLDATALOAD SWAP1 PUSH1 0x1 PUSH1 0x1 PUSH1 0xA0 SHL SUB DUP3 AND DUP3 SUB PUSH2 0x3D8 JUMPI JUMP JUMPDEST PUSH1 0x24 CALLDATALOAD SWAP1 PUSH1 0x1 PUSH1 0x1 PUSH1 0xA0 SHL SUB DUP3 AND DUP3 SUB PUSH2 0x3D8 JUMPI JUMP JUMPDEST PUSH1 0xA0 DUP2 ADD SWAP1 DUP2 LT PUSH1 0x1 PUSH1 0x1 PUSH1 0x40 SHL SUB DUP3 GT OR PUSH2 0x424 JUMPI PUSH1 0x40 MSTORE JUMP JUMPDEST PUSH4 0x4E487B71 PUSH1 0xE0 SHL PUSH1 0x0 MSTORE PUSH1 0x41 PUSH1 0x4 MSTORE PUSH1 0x24 PUSH1 0x0 REVERT JUMPDEST SWAP1 PUSH1 0x40 MLOAD SWAP2 PUSH1 0x0 SWAP1 DUP1 SLOAD SWAP1 PUSH1 0x1 DUP3 DUP2 SHR SWAP2 DUP2 DUP5 AND SWAP4 DUP5 ISZERO PUSH2 0x50A JUMPI JUMPDEST PUSH1 0x20 SWAP5 DUP6 DUP6 LT DUP2 EQ PUSH2 0x4F6 JUMPI DUP5 DUP10 MSTORE SWAP1 DUP2 ISZERO PUSH2 0x4D8 JUMPI POP PUSH1 0x1 EQ PUSH2 0x49C JUMPI JUMPDEST POP POP POP POP DUP3 SWAP1 SUB PUSH1 0x1F ADD PUSH1 0x1F NOT AND DUP3 ADD PUSH1 0x1 PUSH1 0x1 PUSH1 0x40 SHL SUB DUP2 GT DUP4 DUP3 LT OR PUSH2 0x424 JUMPI PUSH1 0x40 MSTORE JUMP JUMPDEST SWAP1 SWAP3 SWAP4 POP PUSH1 0x0 MSTORE DUP3 PUSH1 0x0 KECCAK256 SWAP2 DUP4 PUSH1 0x0 SWAP4 JUMPDEST DUP4 DUP6 LT PUSH2 0x4C4 JUMPI POP POP POP POP DUP4 ADD ADD CODESIZE DUP1 DUP1 DUP1 PUSH2 0x475 JUMP JUMPDEST DUP1 SLOAD DUP9 DUP7 ADD DUP4 ADD MSTORE SWAP4 ADD SWAP3 DUP5 SWAP1 DUP3 ADD PUSH2 0x4AD JUMP JUMPDEST PUSH1 0xFF NOT AND DUP9 DUP7 ADD MSTORE POP POP POP ISZERO ISZERO PUSH1 0x5 SHL DUP5 ADD ADD SWAP1 POP CODESIZE DUP1 DUP1 DUP1 PUSH2 0x475 JUMP JUMPDEST PUSH4 0x4E487B71 PUSH1 0xE0 SHL DUP8 MSTORE PUSH1 0x22 PUSH1 0x4 MSTORE PUSH1 0x24 DUP8 REVERT JUMPDEST SWAP3 PUSH1 0x7F AND SWAP3 PUSH2 0x456 JUMP JUMPDEST SWAP2 SWAP1 DUP3 MLOAD SWAP3 DUP4 DUP3 MSTORE PUSH1 0x0 JUMPDEST DUP5 DUP2 LT PUSH2 0x540 JUMPI POP POP DUP3 PUSH1 0x0 PUSH1 0x20 DUP1 SWAP5 SWAP6 DUP5 ADD ADD MSTORE PUSH1 0x1F DUP1 NOT SWAP2 ADD AND ADD ADD SWAP1 JUMP JUMPDEST PUSH1 0x20 DUP2 DUP4 ADD DUP2 ADD MLOAD DUP5 DUP4 ADD DUP3 ADD MSTORE ADD PUSH2 0x51F JUMP INVALID LOG2 PUSH5 0x6970667358 0x22 SLT KECCAK256 LT 0xC9 PUSH18 0x1D1314C4FC27ED78B764AF02A9D62D9FEE41 SWAP8 0xAF 0xD5 0xE6 0xBB 0x21 SGT NUMBER XOR 0xF 0x5C PUSH5 0x736F6C6343 STOP ADDMOD EQ STOP CALLER "},"methodIdentifiers":{"INIT_SCORE()":"247bc4a7","MAX_SCORE()":"27ff6223","MIN_SCORE()":"40b89270","VOTER_THRESHOLD()":"9ec0164a","VOTE_DURATION()":"4654ff05","disputes(uint256)":"564a565d","getDisputeVoters(uint256)":"1732d652","getVoteCount(uint256)":"b2c2f2e8","hasVoted(uint256,address)":"43859632","isEligibleVoter(address)":"4225e7f4","reputationScore(address)":"50d061cb","voteChoice(uint256,address)":"fb468855"}}}}}