{"contracts/GigStamp.sol":{"GigStamp":{"abi":[{"anonymous":false,"inputs":[{"indexed":true,"internalType":"address","name":"user","type":"address"},{"indexed":true,"internalType":"enum BadgeManager.BadgeType","name":"badgeType","type":"uint8"},{"indexed":false,"internalType":"uint256","name":"jobId","type":"uint256"}],"name":"BadgeAwarded","type":"event"},{"anonymous":false,"inputs":[{"indexed":true,"internalType":"uint256","name":"jobId","type":"uint256"},{"indexed":true,"internalType":"address","name":"responder","type":"address"}],"name":"CounterEvidenceSubmitted","type":"event"},{"anonymous":false,"inputs":[{"indexed":true,"internalType":"uint256","name":"jobId","type":"uint256"},{"indexed":true,"internalType":"address","name":"initiator","type":"address"}],"name":"DisputeRaised","type":"event"},{"anonymous":false,"inputs":[{"indexed":true,"internalType":"uint256","name":"jobId","type":"uint256"},{"indexed":false,"internalType":"enum DisputeOutcome","name":"outcome","type":"uint8"}],"name":"DisputeResolved","type":"event"},{"anonymous":false,"inputs":[{"indexed":true,"internalType":"address","name":"user","type":"address"},{"indexed":false,"internalType":"uint8","name":"oldScore","type":"uint8"},{"indexed":false,"internalType":"uint8","name":"newScore","type":"uint8"},{"indexed":false,"internalType":"string","name":"reason","type":"string"}],"name":"ScoreChanged","type":"event"},{"anonymous":false,"inputs":[{"indexed":true,"internalType":"address","name":"user","type":"address"}],"name":"ScoreInitialized","type":"event"},{"anonymous":false,"inputs":[{"indexed":true,"internalType":"uint256","name":"jobId","type":"uint256"},{"indexed":true,"internalType":"address","name":"voter","type":"address"},{"indexed":false,"internalType":"bool","name":"voteForWorker","type":"bool"}],"name":"Voted","type":"event"},{"anonymous":false,"inputs":[{"indexed":true,"internalType":"uint256","name":"jobId","type":"uint256"},{"indexed":false,"internalType":"address[]","name":"voters","type":"address[]"}],"name":"VoterSelected","type":"event"},{"anonymous":false,"inputs":[{"indexed":true,"internalType":"uint256","name":"jobId","type":"uint256"},{"indexed":false,"internalType":"address[]","name":"newVoters","type":"address[]"},{"indexed":false,"internalType":"uint256","name":"newDeadline","type":"uint256"}],"name":"VotersReplaced","type":"event"},{"inputs":[],"name":"APPROVE_TIMEOUT","outputs":[{"internalType":"uint256","name":"","type":"uint256"}],"stateMutability":"view","type":"function"},{"inputs":[],"name":"INIT_SCORE","outputs":[{"internalType":"uint8","name":"","type":"uint8"}],"stateMutability":"view","type":"function"},{"inputs":[],"name":"MAX_SCORE","outputs":[{"internalType":"uint8","name":"","type":"uint8"}],"stateMutability":"view","type":"function"},{"inputs":[],"name":"MIN_SCORE","outputs":[{"internalType":"uint8","name":"","type":"uint8"}],"stateMutability":"view","type":"function"},{"inputs":[],"name":"SCAM_THRESHOLD","outputs":[{"internalType":"uint256","name":"","type":"uint256"}],"stateMutability":"view","type":"function"},{"inputs":[],"name":"SERIAL_CANCEL_THRESHOLD","outputs":[{"internalType":"uint256","name":"","type":"uint256"}],"stateMutability":"view","type":"function"},{"inputs":[],"name":"VOTER_THRESHOLD","outputs":[{"internalType":"uint8","name":"","type":"uint8"}],"stateMutability":"view","type":"function"},{"inputs":[],"name":"VOTE_DURATION","outputs":[{"internalType":"uint256","name":"","type":"uint256"}],"stateMutability":"view","type":"function"},{"inputs":[{"internalType":"uint256","name":"jobId","type":"uint256"}],"name":"acceptJob","outputs":[],"stateMutability":"nonpayable","type":"function"},{"inputs":[{"internalType":"uint256","name":"jobId","type":"uint256"},{"internalType":"uint8","name":"_rating","type":"uint8"},{"internalType":"string","name":"_comment","type":"string"}],"name":"approveJob","outputs":[],"stateMutability":"nonpayable","type":"function"},{"inputs":[{"internalType":"uint256","name":"jobId","type":"uint256"}],"name":"autoReleaseIfNotApproved","outputs":[],"stateMutability":"nonpayable","type":"function"},{"inputs":[{"internalType":"address","name":"","type":"address"},{"internalType":"uint256","name":"","type":"uint256"}],"name":"badgeCount","outputs":[{"internalType":"uint256","name":"","type":"uint256"}],"stateMutability":"view","type":"function"},{"inputs":[{"internalType":"uint256","name":"jobId","type":"uint256"}],"name":"cancelIfNotStarted","outputs":[],"stateMutability":"nonpayable","type":"function"},{"inputs":[{"internalType":"uint256","name":"jobId","type":"uint256"}],"name":"cancelIfNotSubmitted","outputs":[],"stateMutability":"nonpayable","type":"function"},{"inputs":[{"internalType":"uint256","name":"jobId","type":"uint256"}],"name":"cancelJob","outputs":[],"stateMutability":"nonpayable","type":"function"},{"inputs":[{"internalType":"uint256","name":"jobId","type":"uint256"},{"internalType":"bool","name":"voteForWorker","type":"bool"}],"name":"castVote","outputs":[],"stateMutability":"nonpayable","type":"function"},{"inputs":[{"internalType":"string","name":"_jobHash","type":"string"},{"internalType":"uint256","name":"_pay","type":"uint256"},{"internalType":"uint256","name":"_startTime","type":"uint256"},{"internalType":"uint256","name":"_endTime","type":"uint256"},{"internalType":"uint256","name":"_tolerance","type":"uint256"}],"name":"createJob","outputs":[],"stateMutability":"nonpayable","type":"function"},{"inputs":[{"internalType":"uint256","name":"","type":"uint256"}],"name":"disputes","outputs":[{"internalType":"uint256","name":"jobId","type":"uint256"},{"internalType":"address","name":"initiator","type":"address"},{"internalType":"string","name":"evidenceHash","type":"string"},{"internalType":"string","name":"counterHash","type":"string"},{"internalType":"uint8","name":"voterCount","type":"uint8"},{"internalType":"uint8","name":"votesForWorker","type":"uint8"},{"internalType":"uint8","name":"votesForClient","type":"uint8"},{"internalType":"uint256","name":"deadline","type":"uint256"},{"internalType":"bool","name":"resolved","type":"bool"},{"internalType":"enum DisputeOutcome","name":"outcome","type":"uint8"}],"stateMutability":"view","type":"function"},{"inputs":[{"internalType":"uint256","name":"","type":"uint256"}],"name":"feedbacks","outputs":[{"internalType":"address","name":"client","type":"address"},{"internalType":"address","name":"worker","type":"address"},{"internalType":"uint8","name":"rating","type":"uint8"},{"internalType":"string","name":"comment","type":"string"}],"stateMutability":"view","type":"function"},{"inputs":[{"internalType":"uint256","name":"jobId","type":"uint256"}],"name":"fundJob","outputs":[],"stateMutability":"payable","type":"function"},{"inputs":[{"internalType":"address","name":"user","type":"address"},{"internalType":"enum BadgeManager.BadgeType","name":"badgeType","type":"uint8"}],"name":"getBadgeCount","outputs":[{"internalType":"uint256","name":"","type":"uint256"}],"stateMutability":"view","type":"function"},{"inputs":[{"internalType":"address","name":"user","type":"address"}],"name":"getBadges","outputs":[{"internalType":"enum BadgeManager.BadgeType[]","name":"types","type":"uint8[]"},{"internalType":"uint256[]","name":"jobIds","type":"uint256[]"},{"internalType":"uint256[]","name":"timestamps","type":"uint256[]"},{"internalType":"string[]","name":"notes","type":"string[]"}],"stateMutability":"view","type":"function"},{"inputs":[{"internalType":"uint256","name":"jobId","type":"uint256"}],"name":"getDisputeVoters","outputs":[{"internalType":"address[5]","name":"","type":"address[5]"}],"stateMutability":"view","type":"function"},{"inputs":[],"name":"getMyRole","outputs":[{"internalType":"enum Auth.Role","name":"","type":"uint8"}],"stateMutability":"view","type":"function"},{"inputs":[{"internalType":"address","name":"worker","type":"address"}],"name":"getRating","outputs":[{"internalType":"uint256","name":"","type":"uint256"}],"stateMutability":"view","type":"function"},{"inputs":[{"internalType":"uint256","name":"jobId","type":"uint256"}],"name":"getVoteCount","outputs":[{"internalType":"uint8","name":"forWorker","type":"uint8"},{"internalType":"uint8","name":"forClient","type":"uint8"}],"stateMutability":"view","type":"function"},{"inputs":[{"internalType":"uint256","name":"","type":"uint256"},{"internalType":"address","name":"","type":"address"}],"name":"hasVoted","outputs":[{"internalType":"bool","name":"","type":"bool"}],"stateMutability":"view","type":"function"},{"inputs":[{"internalType":"address","name":"user","type":"address"}],"name":"isEligibleVoter","outputs":[{"internalType":"bool","name":"","type":"bool"}],"stateMutability":"view","type":"function"},{"inputs":[{"internalType":"address","name":"user","type":"address"}],"name":"isScammer","outputs":[{"internalType":"bool","name":"","type":"bool"}],"stateMutability":"view","type":"function"},{"inputs":[],"name":"jobCount","outputs":[{"internalType":"uint256","name":"","type":"uint256"}],"stateMutability":"view","type":"function"},{"inputs":[{"internalType":"uint256","name":"","type":"uint256"}],"name":"jobs","outputs":[{"internalType":"address","name":"client","type":"address"},{"internalType":"address","name":"worker","type":"address"},{"internalType":"uint256","name":"pay","type":"uint256"},{"internalType":"uint256","name":"startTime","type":"uint256"},{"internalType":"uint256","name":"endTime","type":"uint256"},{"internalType":"uint256","name":"tolerance","type":"uint256"},{"internalType":"string","name":"jobHash","type":"string"},{"internalType":"string","name":"resultHash","type":"string"},{"internalType":"uint256","name":"fundedAt","type":"uint256"},{"internalType":"uint256","name":"acceptedAt","type":"uint256"},{"internalType":"uint256","name":"submittedAt","type":"uint256"},{"internalType":"enum JobStatus","name":"status","type":"uint8"}],"stateMutability":"view","type":"function"},{"inputs":[{"internalType":"uint256","name":"jobId","type":"uint256"},{"internalType":"string","name":"evidenceHash","type":"string"}],"name":"raiseDispute","outputs":[],"stateMutability":"nonpayable","type":"function"},{"inputs":[{"internalType":"address","name":"","type":"address"}],"name":"ratingCount","outputs":[{"internalType":"uint256","name":"","type":"uint256"}],"stateMutability":"view","type":"function"},{"inputs":[],"name":"registerClient","outputs":[],"stateMutability":"nonpayable","type":"function"},{"inputs":[],"name":"registerWorker","outputs":[],"stateMutability":"nonpayable","type":"function"},{"inputs":[{"internalType":"uint256","name":"jobId","type":"uint256"}],"name":"replaceInactiveVoters","outputs":[],"stateMutability":"nonpayable","type":"function"},{"inputs":[{"internalType":"address","name":"","type":"address"}],"name":"reputationScore","outputs":[{"internalType":"uint8","name":"","type":"uint8"}],"stateMutability":"view","type":"function"},{"inputs":[{"internalType":"uint256","name":"jobId","type":"uint256"}],"name":"resolveDispute","outputs":[],"stateMutability":"nonpayable","type":"function"},{"inputs":[{"internalType":"address","name":"","type":"address"}],"name":"roles","outputs":[{"internalType":"enum Auth.Role","name":"","type":"uint8"}],"stateMutability":"view","type":"function"},{"inputs":[{"internalType":"uint256","name":"jobId","type":"uint256"}],"name":"startWork","outputs":[],"stateMutability":"nonpayable","type":"function"},{"inputs":[{"internalType":"uint256","name":"jobId","type":"uint256"},{"internalType":"string","name":"counterHash","type":"string"}],"name":"submitCounterEvidence","outputs":[],"stateMutability":"nonpayable","type":"function"},{"inputs":[{"internalType":"uint256","name":"jobId","type":"uint256"},{"internalType":"string","name":"_resultHash","type":"string"}],"name":"submitWork","outputs":[],"stateMutability":"nonpayable","type":"function"},{"inputs":[{"internalType":"address","name":"","type":"address"}],"name":"totalRating","outputs":[{"internalType":"uint256","name":"","type":"uint256"}],"stateMutability":"view","type":"function"},{"inputs":[{"internalType":"uint256","name":"","type":"uint256"},{"internalType":"address","name":"","type":"address"}],"name":"voteChoice","outputs":[{"internalType":"bool","name":"","type":"bool"}],"stateMutability":"view","type":"function"}],"evm":{"bytecode":{"linkReferences":{},"object":"60808060405234610016576153c4908161001c8239f35b600080fdfe6080604052600436101561001257600080fd5b60003560e01c806303828e4514613eed57806303a250f914613e7357806315373e3d14613bb45780631732d65214613b0b578063180aedf314613a1f5780631dffa3dc14613a03578063208082bf146139ab5780632404165e14613971578063247bc4a7146121af5780632488b2ee1461395557806327ff6223146121af5780632bb8b0dc146138e75780632d5928651461389f57806340b89270146138835780634225e7f41461385657806343859632146138095780634654ff05146137ec5780634807632f146137b25780634c5d8a0f146137945780634f0db6221461377857806350d061cb1461373b578063564a565d146136685780635aef573c146131a357806363b2f3c91461303b57806366c910c814612d6057806369c04c4414612d175780636d9fb28714612cb65780636e3b47fc14612c84578063771dd5811461239857806380fc9c0e1461236d5780638721ba3f1461231b5780638d22b863146121fa57806399374642146121b45780639ec0164a146121af578063adcd584314611ba9578063b2c2f2e814611b6b578063c2b7b868146111e6578063c5f8e29914610e48578063ca62fafd14610af0578063cbf78ee61461070a578063d0d241421461049c578063da8accf91461026e578063e72f73a8146102525763fb4688551461020057600080fd5b3461024d57604036600319011261024d57610219614129565b600435600052600760205260406000209060018060a01b0316600052602052602060ff604060002054166040519015158152f35b600080fd5b3461024d57600036600319011261024d57602060405160038152f35b3461024d5761027c366143ad565b906000526020600b815260406000209060016102a460018060a01b03828501541633146144f4565b600b83019360ff855416600981101561048657600303610451576102d1600485015460058601549061452d565b4211610414578051600785019390916001600160401b0383116103fe576102f885546141b3565b601f81116103b5575b5081601f841160011461034f5750928293918392600094610344575b50501b916000199060031b1c19161790555b42600a9190910155805460ff19166004179055005b01519250878061031d565b919083601f1981168760005284600020946000905b8883831061039b5750505010610382575b505050811b01905561032f565b015160001960f88460031b161c19169055858080610375565b858701518855909601959485019487935090810190610364565b8560005282600020601f850160051c8101918486106103f4575b601f0160051c019085905b8281106103e8575050610301565b600081550185906103da565b90915081906103cf565b634e487b7160e01b600052604160045260246000fd5b60405162461bcd60e51b815260048101849052601560248201527414dd589b5a5d081dda5b991bddc8195e1c1a5c9959605a1b6044820152606490fd5b60405162461bcd60e51b815260048101849052600d60248201526c496e76616c696420737461746560981b6044820152606490fd5b634e487b7160e01b600052602160045260246000fd5b3461024d576104aa366143ad565b81600052602090600b825260406000209060ff600b60018060a01b039384815416331480156106fb575b6104dd90614e1f565b01541660098110156104865760076104f59114614ef7565b836000526005835260406000206001928382015416610519600a8301541515614f32565b61052a60ff600b8401541615614e5a565b33146106b95760030192835491610540836141b3565b610678578051926001600160401b0384116103fe5761055e906141b3565b601f811161062f575b5081601f84116001146105c957509282939183926000946105be575b50501b916000199060031b1c19161790555b33907f7878f55c48613e960719430c5332344cefc8c552f6afc747476ff85169f618fe600080a3005b015192508680610583565b919083601f1981168760005284600020946000905b8883831061061557505050106105fc575b505050811b019055610595565b015160001960f88460031b161c191690558480806105ef565b8587015188559096019594850194879350908101906105de565b8560005282600020601f850160051c81019184861061066e575b601f0160051c019085905b828110610662575050610567565b60008155018590610654565b9091508190610649565b60405162461bcd60e51b815260048101839052601960248201527810dbdd5b9d195c88185b1c9958591e481cdd589b5a5d1d1959603a1b6044820152606490fd5b60405162461bcd60e51b815260048101859052601a60248201527943616e6e6f7420636f756e746572206f776e206469737075746560301b6044820152606490fd5b506001810154851633146104d4565b3461024d5760a036600319011261024d576004356001600160401b03811161024d5761073a903690600401614366565b33600052600460205260ff60406000205416600381101561048657600161076191146144bb565b6040519061018082016001600160401b038111838210176103fe576040523382526000602083015260243560408301526044356060830152606435608083015260843560a083015260c08201526040516020810181811060018060401b038211176103fe576040526000815260e08201526000610100820152600061012082015260006101408201526000610160820152600a54600052600b60205260406000209060018060a01b038082511660018060a01b0319908185541617845560018401916020840151169082541617905560408101516002830155606081015160038301556080810151600483015560a0810151600583015560c081015191825160018060401b0381116103fe5761087a60068301546141b3565b601f8111610aa9575b506020601f8211600114610a3b5781929394600092610a30575b50508160011b916000199060031b1c19161760068201555b60e08201518051906001600160401b0382116103fe576108d860078401546141b3565b601f81116109e5575b50602090601f831160011461096f5791806101609492600b94600092610964575b50508160011b916000199060031b1c19161760078201555b61010084015160088201556101208401516009820155610140840151600a8201550191015160098110156104865760ff8019835416911617905561095f600a5461447c565b600a55005b015190508680610902565b906007840160005260206000209160005b601f19851681106109cd5750926101609492600192600b9583601f198116106109b4575b505050811b01600782015561091a565b015160001960f88460031b161c191690558680806109a4565b91926020600181928685015181550194019201610980565b600784016000526020600020601f840160051c81019160208510610a26575b601f0160051c01905b818110610a1a57506108e1565b60008155600101610a0d565b9091508190610a04565b01519050848061089d565b6006830160005260206000209060005b601f1984168110610a915750600193949583601f19811610610a78575b505050811b0160068201556108b5565b015160001960f88460031b161c19169055848080610a68565b9091602060018192858a015181550193019101610a4b565b600683016000526020600020601f830160051c810160208410610ae9575b601f830160051c82018110610add575050610883565b60008155600101610ac7565b5080610ac7565b3461024d5760208060031936011261024d576004359081600052600b8152604060002091600b83019182549260ff84166009811015610486576002610b35911461457d565b610b52610b4b600387015460058801549061452d565b42116145b8565b600660ff1980951617905560018060a01b0392610b90600080808060019960028a8c830154169a825416910154905af1610b8a6145f0565b50614620565b83604051610b9d8161423e565b601b81527a1ddbdc9ad95c97d858d8d95c1d195917db9bdd17dcdd185c9d1959602a1b848201526000828152808552604090205460ff1660058111610e1d579060008051602061536f83398151915291610c186000925b8560005260008852604060002060ff85168882541617905560405193849384615082565b0390a2610c236148d7565b908460005260088352604060002060405190610c3e826141ed565b600082528482018681526040830191428352606084019586528054600160401b8110156103fe57610c73918b8201815561448b565b939093610e075751600d8110156104865760ff6003958554169116178355518883015551600282015501905180519060018060401b0382116103fe578190610cbb84546141b3565b601f8111610db4575b508490601f8311600114610d5157600092610d46575b5050600019600383901b1c191690861b1790555b826000526009815260406000206000805281526040600020918254948501809511610d305760009460008051602061534f8339815191529355604051908152a3005b634e487b7160e01b600052601160045260246000fd5b015190508780610cda565b90889350601f1983169185600052866000209260005b88828210610d9e5750508411610d85575b505050811b019055610cee565b015160001960f88460031b161c19169055878080610d78565b8385015186558c97909501949384019301610d67565b9091508360005284600020601f840160051c810191868510610dfd575b84939291601f8b920160051c01915b828110610dee575050610cc4565b600081558594508a9101610de0565b9091508190610dd1565b634e487b7160e01b600052600060045260246000fd5b915060041982019060ff8211610d30578692610c1860008051602061536f8339815191529392610bf4565b3461024d5760208060031936011261024d576004359081600052600b81526040600020600b81019081549260ff84166009811015610486576004610e8c911461491e565b600a82015460788101809111610d3057610ea8904210156145b8565b600560ff19948516811790935581546040516001600160a01b039391841690610ed08161423e565b601981527831b634b2b73a2fb4b3b737b932b22fb9bab136b4b9b9b4b7b760391b848201526000828152808552604090205460ff1690600882116111bf5760008051602061536f83398151915291610f496000925b8560005260008852604060002060ff85168c82541617905560405193849384615082565b0390a28281541692604051610f5d81614223565b602681527f446964206e6f7420726573706f6e6420616674657220776f726b65722073756284820152651b5a5d1d195960d21b60408201528460005260088452604060002096604051610faf816141ed565b8781528581018a81526040820190428252606083019485528a54600160401b8110156103fe57610fe69060019c8d8201815561448b565b939093610e075751600d8110156104865760ff6003958554169116178355518a83015551600282015501905180519060018060401b0382116103fe57819061102e84546141b3565b601f811161116e575b508690601f831160011461110b57600092611100575b5050600019600383901b1c191690881b1790555b83600052600983526040600020856000528352604060002090815493878501809511610d30576110e86000988998899860008051602061534f833981519152856110fe9e8c9b60029a55604051908152a385019183835416716a6f625f636f6d706c657465645f6175746f60701b604051926110dc8461423e565b6012845283015261516c565b5416910154905af16110f86145f0565b50614983565b005b015190508a8061104d565b908a9350601f1983169185600052886000209260005b8a828210611158575050841161113f575b505050811b019055611061565b015160001960f88460031b161c191690558a8080611132565b8385015186558e97909501949384019301611121565b9091508360005286600020601f84018a1c8101918885106111b5575b84939291601f8d92018c1c01915b8281106111a6575050611037565b600081558594508c9101611198565b909150819061118a565b60071982019160ff8311610d3057610f4960008051602061536f8339815191529392610f25565b3461024d57602036600319011261024d57600435600052600b602052604060002060ff600b8201541660098110156104865760076112249114614ef7565b60043560005260056020526040600020600a810154611244811515614f32565b600b820180549161125860ff841615614e5a565b4210801590611b40575b15611b0857600983015460ff808260081c169160101c1690818114600014611af25750506003915b60048310156104865761ffff1916600883901b61ff00161760011790556040516112b4818361433e565b7f2ffcfee146bc0d5ff304c6b65111a0d485af9456dc64eee7d66ebdcc90b223ea602060043592a2600091600382036118cf575b5060ff1991600883600b8601541617600b850155610486576002810361158c57508154909190611329906001600160a01b0316611323614f89565b906151e1565b60018060a01b03815416916040516113408161423e565b6018815277131bdcdd081848191a5cdc1d5d1948185cc818db1a595b9d60421b6020820152836000526008602052604060002060405192611380846141ed565b60078452602084019060043582526040850192428452606086019485528054600160401b8110156103fe576113ba9160018201815561448b565b959095610e07575190600d8210156104865785541660ff91909116178455516001840155516002830155518051906001600160401b0382116103fe5761140360038401546141b3565b601f8111611545575b50602090601f83116001146114d85760039291600091836114cd575b50508160011b9160001990841b1c1916179101555b81600052600960205260406000206007600052602052604060002080549260018401809411610d30576000809360078294936110fe9784955560008051602061534f83398151915260206040516004358152a3600181018054600291906114b5906001600160a01b03166114af614fb1565b9061516c565b54910154906001600160a01b03165af16110f86145f0565b015190508680611428565b90601f198316916003850160005260206000209260005b81811061152d57509160019391856003969410611515575b505050811b0191015561143d565b015160001983861b60f8161c19169055868080611507565b929360206001819287860151815501950193016114ef565b600384016000526020600020601f840160051c810160208510611585575b601f830160051c8201811061157957505061140c565b60008155600101611563565b5080611563565b600181036117ec57506001820180546001600160a01b039182916115b4908316611323614f89565b541691604051906115c48261423e565b600e82526d4c6f73742061206469737075746560901b60208301528360005260086020526040600020604051906115fa826141ed565b600282526020820160043581526040830191428352606084019586528054600160401b8110156103fe576116339160018201815561448b565b939093610e075751600d8110156104865760ff600395855416911617835551600183015551600282015501905180519060018060401b0382116103fe57819061167c84546141b3565b601f8111611799575b50602090601f831160011461173357600092611728575b50508160011b916000199060031b1c19161790555b81600052600960205260406000206002600052602052604060002080549260018401809411610d30576110fe946002600095948187969487969587965560008051602061534f83398151915260206040516004358152a3611717818454166114af614fb1565b825416910154905af16110f86145f0565b01519050868061169c565b6000858152602081209350601f198516905b8181106117815750908460019594939210611768575b505050811b0190556116b1565b015160001960f88460031b161c1916905586808061175b565b92936020600181928786015181550195019301611745565b909150836000526020600020601f840160051c810191602085106117e2575b90601f859493920160051c01905b8181106117d35750611685565b600081558493506001016117c6565b90915081906117b8565b60039150146117f757005b6002810190815460011c60018060a01b03600080808085858854165af161181c6145f0565b501561188f5760009361183c859493859493600186950154169254614f7c565b905af16118476145f0565b501561184f57005b60405162461bcd60e51b81526020600482015260186024820152775472616e73666572206661696c65642028776f726b65722960401b6044820152606490fd5b60405162461bcd60e51b81526020600482015260186024820152775472616e73666572206661696c65642028636c69656e742960401b6044820152606490fd5b909260009250825b60ff60098401541660ff82161015611ae8576118f68160048501614eaa565b60018060a01b0391549060031b1c1690600435600052600660205260406000208260005260205260ff6040600020541615611ade5760043560005260076020526040600020826000526020526002861460ff60406000205416151514600014611a2f57604051916119668361423e565b600f83526e766f7465645f636f72726563746c7960881b602084015280600052600060205260ff6040600020541661ffff6003820111610d305760648061ffff600384011611600014611a02579360008051602061536f833981519152916119f46119fd96925b856000526000602052604060002060ff851660ff1982541617905560405193849384615082565b0390a25b614e99565b6118d7565b5060ff6003820111610d30576119fd93816119f4600360008051602061536f8339815191529401926119cd565b60405191611a3c8361423e565b600d83526c766f7465645f77726f6e676c7960981b602084015280600052600060205260ff604060002054168060031015600014611ab057600082815260208190526040808220805460ff19169055516119fd9560008051602061536f83398151915293919283926119f492919084615082565b60ff600219820111610d30576119fd9360008051602061536f833981519152916119f46002198201926119cd565b6119fd9150614e99565b50929050836112e8565b1115611b005760029161128a565b60019161128a565b60405162461bcd60e51b815260206004820152601060248201526f159bdd1a5b99c81b9bdd08195b99195960821b6044820152606490fd5b50600983015460ff8160101c1660ff8260081c16019060ff8211610d305760ff809116911614611262565b3461024d57602036600319011261024d5760043560005260056020526040600981600020015460ff825191818160081c16835260101c166020820152f35b3461024d57602036600319011261024d57600435600052600b602052604060002060ff600b820154166009811015610486576007611be79114614ef7565b80546001909101546004356000908152600560205260409020600a81015490926001600160a01b03908116921690611c20811515614f32565b611c3160ff600b8601541615614e5a565b42106121745760009060009060ff600986015416915b8260ff821610612110575060ff8316156120cb57611c6f60ff611c6984614f6b565b1661444a565b938451156120b55760208501528351600110156120b557604084015260005b8160ff821610612078575050906040516020810190428252600435604082015260ff60f81b8460f81b16606082015260418152611cca816141ed565b5190209160025490611cdb8261444a565b916000936000915b808310611fbc5750505060ff8116831015611fb6575060ff8216915b611d0b60ff841661444a565b93611d158261444a565b9260005b838110611f8f57505060005b60ff85168110611ee35786600087815b60ff60098501541660ff82161015611e005760043560005260066020526040600020611d648260048701614eaa565b60018060a01b0391549060031b1c1660005260205260ff604060002054161580611df3575b611d9c575b611d9790614e99565b611d35565b91611d9790611deb906119f86001600160a01b03611dbd60ff8416876144a7565b5116611dcc8760048a01614eaa565b90919082549060031b9160018060a01b03809116831b921b1916179055565b929050611d8e565b50815160ff841610611d89565b838261012c420190814211610d30577f3a17c250c2edd7885bc2d2c7e6a85ef460b5a11cdfcdef622788b6584ad9d6339082600a850155611e4c60405191604083526040830190614eba565b92602082015280600435930390a260ff60098201541690611e6c8261444a565b9160005b60ff81169082821015611eb557611eb091611eaa611e918360048801614eaa565b905460039190911b1c6001600160a01b031691876144a7565b52614e99565b611e70565b8460008051602061532f8339815191526040516020815280611ede600435946020830190614eba565b0390a2005b611f8860ff91611f26611f20604051602081019087825284604082015260408152611f0d81614223565b519020611f1a8489614f7c565b9061530e565b8261452d565b611f636001600160a01b03611f3b848a6144a7565b5116916001600160a01b03611f50828b6144a7565b5116611f5c858b6144a7565b52886144a7565b526001600160a01b03611f7682886144a7565b5116611f82828a6144a7565b5261447c565b9050611d25565b611fb1906001600160a01b03611fa582856144a7565b5116611f8282886144a7565b611d19565b91611cff565b9091959296611fcd8796959661528e565b905460009960039290921b1c6001600160a01b03169490895b855181101561206a576001600160a01b0361200182886144a7565b51168714612017576120129061447c565b611fe6565b5094909791985060019695965b158061205b575b612041575b5061203a9061447c565b9190611ce3565b8661205491611f8261203a9499896144a7565b9590612030565b506120658161526e565b61202b565b509490979198969596612024565b806120896120b09260048801614eaa565b905460039190911b1c6001600160a01b0316611eaa60ff6120a984614f6b565b16876144a7565b611c8e565b634e487b7160e01b600052603260045260246000fd5b60405162461bcd60e51b815260206004820152601e60248201527f416c6c2073656c656374656420766f74657273206861766520766f74656400006044820152606490fd5b6004356000526006602052604060002061212d8260048901614eaa565b60018060a01b0391549060031b1c1660005260205260ff604060002054161561215f575b61215a90614e99565b611c47565b9261216c61215a91614e99565b939050612151565b60405162461bcd60e51b8152602060048201526013602482015272111958591b1a5b99481b9bdd081c185cdcd959606a1b6044820152606490fd5b614322565b3461024d57602036600319011261024d576001600160a01b036121d5614113565b1660005260046020526121f660ff60406000205416604051918291826143df565b0390f35b60208060031936011261024d57600435600052600b81526040600020336000526004825260ff60406000205416600381101561048657600161223c91146144bb565b80546001600160a01b031633036122ea57600b81019081549060ff82166009811015610486576122b75760028101543403612283574260089091015560ff19166001179055005b60405162461bcd60e51b815260048101859052600c60248201526b15dc9bdb99c8185b5bdd5b9d60a21b6044820152606490fd5b60405162461bcd60e51b815260048101859052600b60248201526a139bdd0810dc99585d195960aa1b6044820152606490fd5b60405162461bcd60e51b81526004810183905260096024820152682737ba1037bbb732b960b91b6044820152606490fd5b3461024d57604036600319011261024d57612334614113565b60243590600d82101561024d5760018060a01b031660005260096020526040600020906000526020526020604060002054604051908152f35b3461024d57602036600319011261024d57602061239061238b614113565b614dce565b604051908152f35b3461024d57606036600319011261024d5760243560ff8116810361024d576044356001600160401b03811161024d576123d5903690600401614366565b90600435600052600b60205260406000209160018060a01b038354166123fc8133146144bb565b600b8401805460ff8116600981101561048657600461241b911461491e565b600160ff8616101580612c76575b15612c405760ff1916600517905560405161244381614223565b602281527f52656c6961626c6520636c69656e74207769746820636c65616e20686973746f602082015261727960f01b6040820152816000526008602052604060002060405191612493836141ed565b600b8352600435602084015242604084015260608301528054600160401b8110156103fe576124c79160018201815561448b565b919091610e0757805190600d8210156104865760609160ff801985541691161783556020810151600184015560408101516002840155015180519060018060401b0382116103fe5761251c60038401546141b3565b601f8111612bf9575b50602090601f8311600114612b8a576003929160009183612b7f575b50508160011b9160001990841b1c1916179101555b8060005260096020526040600020600b600052602052604060002090815491600183018311610d30576001600b9301905560008051602061534f83398151915260206040516004358152a36125d66040516125b08161423e565b601381527231b634b2b73a2fb0b8383937bb32b22fb537b160691b6020820152336150a3565b600460ff83161061285a576001830180546126359190612601906001600160a01b03166114af61495a565b54604051906001600160a01b03166126188261423e565b600b82526a676f6f645f726174696e6760a81b60208301526150a3565b600183015460405191906001600160a01b0316612651836141ed565b338352602080840191825260ff85166040808601918252606086019485526004356000908152600c909352909120935184546001600160a01b0319166001600160a01b03918216178555915160018501805492516001600160a81b0319909316919093161760a09190911b60ff60a01b16179055518051906001600160401b0382116103fe576126e460028401546141b3565b601f8111612813575b50602090601f83116001146127a557600292916000918361279a575b50508160011b916000199060031b1c1916179101555b60018060a01b03600183015416600052600d60205261274760ff60406000209216825461452d565b905560018060a01b03600182015416600052600e602052604060002080549160018301809311610d3057600080808093866110fe9655600260018060a01b03600183015416910154905af16110f86145f0565b015190508680612709565b90601f198316916002850160005260206000209260005b8181106127fb575091600193918560029694106127e2575b505050811b0191015561271f565b015160001960f88460031b161c191690558680806127d4565b929360206001819287860151815501950193016127bc565b600284016000526020600020601f840160051c810160208510612853575b601f830160051c820181106128475750506126ed565b60008155600101612831565b5080612831565b600260ff831611612b6057600183015461287f906001600160a01b03166114af61495a565b60018060a01b036001840154166040516128988161423e565b600a8152696261645f726174696e6760b01b602082015281600052600060205260ff60406000205416908160071015600014612b3657600083815260208190526040808220805460ff191690555160008051602061536f83398151915293909283926129049284615082565b0390a260018060a01b036001840154166040516129208161423e565b601b81527a52656365697665642031206f722032207374617220726174696e6760281b6020820152816000526008602052604060002060405191612963836141ed565b60018352600435602084015242604084015260608301528054600160401b8110156103fe576129979160018201815561448b565b919091610e0757805190600d8210156104865760609160ff801985541691161783556020810151600184015560408101516002840155015180519060018060401b0382116103fe576129ec60038401546141b3565b601f8111612aef575b50602090601f8311600114612a80576003929160009183612a75575b50508160011b9160001990841b1c1916179101555b80600052600960205260406000206001600052602052604060002090815491600183018311610d30576001809301905560008051602061534f83398151915260206040516004358152a3612635565b015190508880612a11565b906003840160005260206000209160005b601f1985168110612ad75750918391600193600395601f19811610612abf575b505050811b01910155612a26565b015160001983861b60f8161c19169055888080612ab1565b91926020600181928685015181550194019201612a91565b600384016000526020600020601f840160051c810160208510612b2f575b601f830160051c82018110612b235750506129f5565b60008155600101612b0d565b5080612b0d565b60ff600619830111610d305760008051602061536f833981519152916129046006198201926119cd565b6001830154612b7a906001600160a01b03166114af61495a565b612635565b015190508880612541565b906003840160005260206000209160005b601f1985168110612be15750918391600193600395601f19811610612bc9575b505050811b01910155612556565b015160001983861b60f8161c19169055888080612bbb565b91926020600181928685015181550194019201612b9b565b600384016000526020600020601f840160051c810160208510612c39575b601f830160051c82018110612c2d575050612525565b60008155600101612c17565b5080612c17565b60405162461bcd60e51b815260206004820152600e60248201526d496e76616c696420726174696e6760901b6044820152606490fd5b50600560ff86161115612429565b3461024d57600036600319011261024d573360005260046020526121f660ff60406000205416604051918291826143df565b3461024d57600036600319011261024d5733600052600460205260ff60406000205416600381101561048657612cec90156143f2565b3360005260046020526040600020600160ff19825416179055612d0e33614fd8565b6110fe336152a9565b3461024d57602036600319011261024d576001600160a01b03612d38614113565b1660005260096020526040600020600960005260205260206040600020541515604051908152f35b3461024d5760208060031936011261024d576004359081600052600b8152604060002091600b83019081549160ff831660098110156104865760030361300457612dbe612db6600487015460058801549061452d565b4210156145b8565b600660ff198094161790556001928385019460018060a01b0386612e0e828099541660405190612ded8261423e565b601082526f1ddbdc9ad95c97d858985b991bdb995960821b878301526151e1565b541693612e196148d7565b908560005260088452604060002060405190612e34826141ed565b600082528582018781526040830191428352606084019586528054600160401b8110156103fe57612e69918c8201815561448b565b939093610e075751600d8110156104865760ff6003958554169116178355518983015551600282015501905180519060018060401b0382116103fe578190612eb184546141b3565b601f8111612fb1575b508590601f8311600114612f4e57600092612f43575b5050600019600383901b1c191690871b1790555b836000526009825260406000206000805282526040600020928354958601809611610d3057600080809360028a838a60008051602061534f8339815191526110fe9a83998f8e55604051908152a3825416910154905af1610b8a6145f0565b015190508980612ed0565b90899350601f1983169185600052876000209260005b89828210612f9b5750508411612f82575b505050811b019055612ee4565b015160001960f88460031b161c19169055898080612f75565b8385015186558d97909501949384019301612f64565b9091508360005285600020601f840160051c810191878510612ffa575b84939291601f8c920160051c01915b828110612feb575050612eba565b600081558594508b9101612fdd565b9091508190612fce565b60405162461bcd60e51b815260048101859052600f60248201526e4e6f7420696e2070726f677265737360881b6044820152606490fd5b3461024d5760208060031936011261024d57600435600052600b81526040600020336000526004825260ff60406000205416600381101561048657600261308291146144f4565b600b81019081549060ff82166009811015610486576001036131715780546001600160a01b03908116331461313657600182019081549081166131015760029495506130e26130da600385015460058601549061452d565b42111561453a565b6001600160a01b03191633179055426009919091015560ff1916179055005b60405162461bcd60e51b815260048101879052600d60248201526c20b63932b0b23c903a30b5b2b760991b6044820152606490fd5b60405162461bcd60e51b815260048101869052601360248201527221b0b73737ba103a30b5b29037bbb7103537b160691b6044820152606490fd5b60405162461bcd60e51b815260048101859052600a602482015269139bdd08199d5b99195960b21b6044820152606490fd5b3461024d576131b1366143ad565b6000828152600b6020526040902080546001600160a01b0316903382148015613652575b6131de90614e1f565b600b8101805460ff811660098110156104865760048114908115613647575b50156136065760079060ff19161790556001808060a01b039101541683600052600560205260406000209261323960ff600b8601541615614e5a565b600a8401546135c8578484556001840180546001600160a01b031916331790558051906001600160401b0382116103fe57819061327960028701546141b3565b601f8111613575575b50602090601f8311600114613508576000926134fd575b50508160011b916000199060031b1c19161760028401555b61012c4201804211610d3057600a8401556040516020810190428252446040820152856060820152606081526132e6816141ed565b519020916002546132f68161444a565b9160009360005b83811061348b5750505050600582106000146134835760ff8216915b60ff8316801580158581613477575b50613463575b505061333f60ff849796971661444a565b936133498261444a565b9260005b83811061344257505060005b60ff8516811061340b5787878760ff815116600984019060ff19825416179055600460009301925b815160ff8216908110156133bc576133b791906119f8906001600160a01b03906133ab90866144a7565b5116611dcc8388614eaa565b613381565b8360008051602061532f833981519152611ede8560405191829133867f84a477df8a28a4276ca6dee4458a06c3015f30c477d9c949ede4e13ff8a552b4600080a3602083526020830190614eba565b61343860ff91611f26611f2060409b9a9b51602081019087825284604082015260408152611f0d81614223565b9050969596613359565b96979661345b906001600160a01b03611fa582856144a7565b97969761334d565b90919350610d30576000190191868061332e565b60019150161589613328565b600591613319565b6134948161528e565b905460039190911b1c6001600160a01b031683811415806134f3575b806134e4575b6134ca575b506134c59061447c565b6132fd565b866134dd91611f826134c59499896144a7565b95906134bb565b506134ee8161526e565b6134b6565b50828114156134b0565b015190508680613299565b600287016000908152602081209350601f198516905b81811061355d5750908460019594939210613544575b505050811b0160028401556132b1565b015160001960f88460031b161c19169055868080613534565b9293602060018192878601518155019501930161351e565b909150600286016000526020600020601f840160051c8101602085106135c1575b90849392915b601f830160051c820181106135b2575050613282565b6000815585945060010161359c565b5080613596565b60405162461bcd60e51b8152602060048201526016602482015275111a5cdc1d5d1948185b1c9958591e481c985a5cd95960521b6044820152606490fd5b60405162461bcd60e51b8152602060048201526019602482015278496e76616c696420737461746520666f72206469737075746560381b6044820152606490fd5b6003915014876131fd565b5060018101546001600160a01b031633146131d5565b3461024d57602036600319011261024d576004356000908152600560205260409020805460018201546001600160a01b0316916121f66136aa6002830161427c565b6136b66003840161427c565b9260ff6136fc6009830154956136ee600b600a860154950154956040519a8b9a8b5260208b01526101408060408c01528a0190614173565b9088820360608a0152614173565b948181166080880152818160081c1660a088015260101c1660c086015260e085015260ff8116151561010085015260ff61012085019160081c1661433e565b3461024d57602036600319011261024d576001600160a01b0361375c614113565b166000526000602052602060ff60406000205416604051908152f35b3461024d57600036600319011261024d57602060405160788152f35b3461024d57600036600319011261024d576020600a54604051908152f35b3461024d57602036600319011261024d576001600160a01b036137d3614113565b16600052600d6020526020604060002054604051908152f35b3461024d57600036600319011261024d57602060405161012c8152f35b3461024d57604036600319011261024d57613822614129565b600435600052600660205260406000209060018060a01b0316600052602052602060ff604060002054166040519015158152f35b3461024d57602036600319011261024d576020613879613874614113565b61526e565b6040519015158152f35b3461024d57600036600319011261024d57602060405160008152f35b3461024d57604036600319011261024d576001600160a01b036138c0614113565b16600052600960205260406000206024356000526020526020604060002054604051908152f35b3461024d57602036600319011261024d57600435600052600c602052604060002060018060a01b03906121f6828254169160ff61392b60026001840154930161427c565b9160405195869586528116602086015260a01c166040840152608060608401526080830190614173565b3461024d57600036600319011261024d57602060405160058152f35b3461024d57602036600319011261024d576001600160a01b03613992614113565b16600052600e6020526020604060002054604051908152f35b3461024d57600036600319011261024d5733600052600460205260ff604060002054166003811015610486576139e190156143f2565b3360005260046020526040600020600260ff19825416179055612d0e33614fd8565b3461024d57602036600319011261024d576110fe6004356149c1565b3461024d57602036600319011261024d57600435600052600b602052604060002060018060a01b0390818154169160018201541690600281015490600381015491613ae36004830154613ad56005850154613a7c6006870161427c565b90613a896007880161427c565b9360088801549860098901549760ff600b600a8c01549b0154169b60206040519e8f908152015260408d015260608c015260808b015260a08a01526101808060c08b0152890190614173565b9087820360e0890152614173565b9261010086015261012085015261014084015260098210156104865782916101608301520390f35b3461024d5760208060031936011261024d5760a0604051613b2b81614208565b36903760043560005260058082526004604060002001916040519283826000915b858310613b945750505050613b6083614208565b60405192600090845b848310613b755760a086f35b81516001600160a01b0316815260019290920191908301908301613b69565b83546001600160a01b031681526001938401939290920191849101613b4c565b3461024d57604036600319011261024d5760248035801515906004359082810361024d5781600052602090600b825260ff80600b60406000200154166009811015613e5e576007613c059114614ef7565b8360005260058352604060002091600a8301548015613e2657613c2e83600b8601541615614e5a565b421015613dec57846000526006845260406000203360005284528160406000205416613db8576000809360098101946004858754169201905b8286821610613d7a575b50505015613d3f57847ff2913dbe661ee2acc4a046d8fbcdc792373bda34c41c6086484b5345e5785e5f95969750600052600684526040600020336000528452604060002060ff199060018282541617905586600052600785526040600020336000528552604060002090815416838916179055600014613d185761ff00613cff8354928360081c16614e99565b60081b169061ff0019161790555b6040519384523393a3005b62ff0000613d2c8354928360101c16614e99565b60101b169062ff00001916179055613d0d565b60405162461bcd60e51b815260048101859052601481890152732737ba10309039b2b632b1ba32b2103b37ba32b960611b6044820152606490fd5b613d848183614eaa565b905460039190911b1c6001600160a01b03163314613daa57613da590614e99565b613c67565b505050506001888080613c71565b60405162461bcd60e51b815260048101859052600d818901526c105b1c9958591e481d9bdd1959609a1b6044820152606490fd5b60405162461bcd60e51b81526004810185905260138189015272159bdd1a5b99c81c195c9a5bd908195b991959606a1b6044820152606490fd5b60405162461bcd60e51b8152600481018690526011818a0152704e6f20646973707574652065786973747360781b6044820152606490fd5b86634e487b7160e01b60005260216004526000fd5b3461024d57602036600319011261024d57600435600052600b6020526040600020613eab60018060a01b0360018301541633146144f4565b600b810190815460ff8116916009831015610486576130da613ee491613ed560026003961461457d565b6005858201549101549061452d565b60ff1916179055005b3461024d5760208060031936011261024d576001600160a01b03613f0f614113565b16600052600881526040600020805490613f2882614433565b91613f366040519384614259565b808352613f4281614433565b90848401601f19809301368237613f588261444a565b613f618361444a565b92613f6b81614433565b95613f796040519788614259565b81875285613f8683614433565b0160005b81811061410457505060005b82811061406b57505050604051956080870190608088525180915260a08701929060005b8181106140445750505081613fd99187613fe79594038989015261413f565b90858203604087015261413f565b93838503606085015282519081865280860181808460051b8901019501936000975b8489106140165787870388f35b9091929394958480614032838686600196030188528a51614173565b98019401980197919094939294614009565b909193849996995190600d8210156104865790815295989589019389019190600101613fba565b60ff61407a82849c999c61448b565b50541690614088818b6144a7565b91600d811015610486576140fc925260016140a3828561448b565b5001546140b082876144a7565b5260026140bd828561448b565b5001546140ca82896144a7565b526140e160036140da838661448b565b500161427c565b6140eb828b6144a7565b526140f6818a6144a7565b5061447c565b989598613f96565b60608982018c01528a01613f8a565b600435906001600160a01b038216820361024d57565b602435906001600160a01b038216820361024d57565b90815180825260208080930193019160005b82811061415f575050505090565b835185529381019392810192600101614151565b919082519283825260005b84811061419f575050826000602080949584010152601f8019910116010190565b60208183018101518483018201520161417e565b90600182811c921680156141e3575b60208310146141cd57565b634e487b7160e01b600052602260045260246000fd5b91607f16916141c2565b608081019081106001600160401b038211176103fe57604052565b60a081019081106001600160401b038211176103fe57604052565b606081019081106001600160401b038211176103fe57604052565b604081019081106001600160401b038211176103fe57604052565b601f909101601f19168101906001600160401b038211908210176103fe57604052565b9060405191826000825492614290846141b3565b9081845260019485811690816000146142ff57506001146142bc575b50506142ba92500383614259565b565b9093915060005260209081600020936000915b8183106142e75750506142ba935082010138806142ac565b855488840185015294850194879450918301916142cf565b9150506142ba94506020925060ff191682840152151560051b82010138806142ac565b3461024d57600036600319011261024d57602060405160648152f35b9060048210156104865752565b6001600160401b0381116103fe57601f01601f191660200190565b81601f8201121561024d5780359061437d8261434b565b9261438b6040519485614259565b8284526020838301011161024d57816000926020809301838601378301015290565b90604060031983011261024d5760043591602435906001600160401b03821161024d576143dc91600401614366565b90565b9190602083019260038210156104865752565b156143f957565b60405162461bcd60e51b8152602060048201526012602482015271105b1c9958591e481c9959da5cdd195c995960721b6044820152606490fd5b6001600160401b0381116103fe5760051b60200190565b9061445482614433565b6144616040519182614259565b8281528092614472601f1991614433565b0190602036910137565b6000198114610d305760010190565b80548210156120b55760005260206000209060021b0190600090565b80518210156120b55760209160051b010190565b156144c257565b60405162461bcd60e51b815260206004820152600a602482015269139bdd0818db1a595b9d60b21b6044820152606490fd5b156144fb57565b60405162461bcd60e51b815260206004820152600a6024820152692737ba103bb7b935b2b960b11b6044820152606490fd5b91908201809211610d3057565b1561454157565b60405162461bcd60e51b815260206004820152601460248201527314dd185c9d081dda5b991bddc8195e1c1a5c995960621b6044820152606490fd5b1561458457565b60405162461bcd60e51b815260206004820152600c60248201526b139bdd081858d8d95c1d195960a21b6044820152606490fd5b156145bf57565b60405162461bcd60e51b8152602060048201526009602482015268546f6f206561726c7960b81b6044820152606490fd5b3d1561461b573d906146018261434b565b9161460f6040519384614259565b82523d6000602084013e565b606090565b1561462757565b60405162461bcd60e51b815260206004820152600d60248201526c1499599d5b990819985a5b1959609a1b6044820152606490fd5b60409182519261466b84614223565b602384526020927f43616e63656c6c6564206a6f6220616674657220776f726b657220616363657084860152621d195960ea1b8286015260018060a01b0316936000858152600885528281209183516146c3816141ed565b6008815286810186815285820190428252606083019384528554600160401b8110156148c3576146fa90600197888201815561448b565b9390936148af5751600d81101561489b57835460ff191660ff91909116178355518583015551600282015590518051600390920191906001600160401b03821161488757819061474a84546141b3565b601f8111614837575b508890601f83116001146147d85785926147cd575b5050600019600383901b1c191690841b1790555b858152600985528281206008825285528281209081549283018093116147b9575055519081526008929160008051602061534f83398151915291a3565b634e487b7160e01b81526011600452602490fd5b015190503880614768565b8486528986208794509190601f198416875b8c8282106148215750508411614808575b505050811b01905561477c565b015160001960f88460031b161c191690553880806147fb565b8385015186558a979095019493840193016147ea565b909150838552888520601f840160051c8101918a851061487d575b84939291601f89920160051c01915b82811061486f575050614753565b878155859450889101614861565b9091508190614852565b634e487b7160e01b84526041600452602484fd5b634e487b7160e01b86526021600452602486fd5b634e487b7160e01b86526004869052602486fd5b634e487b7160e01b86526041600452602486fd5b6040516148e381614223565b602581527f4163636570746564206f7220696e2d70726f6772657373206a6f62206162616e602082015264191bdb995960da1b604082015290565b1561492557565b60405162461bcd60e51b815260206004820152600d60248201526c139bdd081cdd589b5a5d1d1959609a1b6044820152606490fd5b604051906149678261423e565b600d82526c1a9bd897d8dbdb5c1b195d1959609a1b6020830152565b1561498a57565b60405162461bcd60e51b815260206004820152600f60248201526e151c985b9cd9995c8819985a5b1959608a1b6044820152606490fd5b90600091808352602091600b835260409182852060018060a01b0390818154166149ec8133146144bb565b600b820180546009929060ff811684811015614d755715614db8575081549060ff82169184831015614d75576001809314614d8957505081549160ff831684811015614d7557600214614a7b57885162461bcd60e51b8152600481018b9052601b60248201527a43616e6e6f742063616e63656c206174207468697320737461676560281b6044820152606490fd5b600660ff9a9496989a9993959799198096161790558686541693614a9f898661465c565b848b52858452828b2060088c5284526005838c20541015614ae7575b505050505050614ae08580806142ba9798868654166002870154905af16110f86145f0565b541661465c565b848b52858452828b20868c528452828b2054614abb57825190614b098261423e565b601c82527b233630b3b3b2b21030b9903837ba32b73a34b0b61039b1b0b6b6b2b960211b85830152858c5260088552838c208c855192614b48846141ed565b898452878401918252428785019081526060850195865283549093600160401b821015614d5f5790614b7e91888201815561448b565b949094614d4a575190600d821015614d3557845460ff9092169116178355518483015551600282015590518051600390920191906001600160401b038211614d21578c8291614bcd85546141b3565b88601f8211614cc9575b50508791601f8411600114614c6a5792614c5f575b5050600019600383901b1c191690831b1790555b838a52848352818a20858b528352818a208054918201809211614c4b57926142ba999a949260008051602061534f83398151915292614ae097955551858152a3959438808080614abb565b634e487b7160e01b8b52601160045260248bfd5b015190503880614bec565b9190869450601f198416868452898420935b8a828210614cb35750508411614c9a575b505050811b019055614c00565b015160001960f88460031b161c19169055388080614c8d565b8385015186558997909501949384019301614c7c565b9193509185815220601f840160051c810191888510614d17575b918f92859492601f89920160051c01915b828110614d0357505088614bd7565b809294919395505501918e91868594614cf4565b9091508190614ce3565b634e487b7160e01b8d52604160045260248dfd5b50634e487b7160e01b8f52602160045260248ffd5b50634e487b7160e01b8f5260048f905260248ffd5b5050634e487b7160e01b8f52604160045260248ffd5b634e487b7160e01b8c52602160045260248cfd5b6142ba9a508b995089989b9750879650600294506006919593925060ff19161790550154905af16110f86145f0565b60ff191660061790915550939650505050505050565b6001600160a01b03166000908152600e6020526040812054156143dc57600d6020526040812054600e6020526040822054918215614e0b57500490565b634e487b7160e01b81526012600452602490fd5b15614e2657565b60405162461bcd60e51b815260206004820152600c60248201526b139bdd081a5b9d9bdb1d995960a21b6044820152606490fd5b15614e6157565b60405162461bcd60e51b815260206004820152601060248201526f105b1c9958591e481c995cdbdb1d995960821b6044820152606490fd5b60ff1660ff8114610d305760010190565b60058210156120b5570190600090565b90815180825260208080930193019160005b828110614eda575050505090565b83516001600160a01b031685529381019392810192600101614ecc565b15614efe57565b60405162461bcd60e51b815260206004820152600c60248201526b139bdd08191a5cdc1d5d195960a21b6044820152606490fd5b15614f3957565b60405162461bcd60e51b815260206004820152600a6024820152694e6f206469737075746560b01b6044820152606490fd5b60ff166002019060ff8211610d3057565b91908203918211610d3057565b60405190614f968261423e565b600c82526b6c6f73745f6469737075746560a01b6020830152565b60405190614fbe8261423e565b600b82526a776f6e5f6469737075746560a81b6020830152565b6001600160a01b031660008181526001602052604081205460ff166150475780827f5d95448edae7bcc3f04ceed898bf2926c2e56c8de7c6a57d3b90539b1ff037a69252806020526040812060ff199060648282541617905560016020526001604083209182541617905580a2565b60405162461bcd60e51b8152602060048201526013602482015272105b1c9958591e481a5b9a5d1a585b1a5e9959606a1b6044820152606490fd5b60ff6143dc9493816060941683521660208201528160408201520190614173565b6001600160a01b03166000818152602081905260408120549192909160ff16906005820161ffff808211615158576064908216111561511e57509061511960008051602061536f833981519152939260406064945b878152806020522060ff851660ff1982541617905560405193849384615082565b0390a2565b60ff81116151445760008051602061536f833981519152939291604061511992946150f8565b634e487b7160e01b84526011600452602484fd5b634e487b7160e01b85526011600452602485fd5b6001600160a01b03166000818152602081905260408120549192909160ff1690600a820161ffff808211615158576064908216111561511e57509061511960008051602061536f83398151915293926040606494878152806020522060ff851660ff1982541617905560405193849384615082565b6001600160a01b03166000818152602081905260408120549192909160ff1690600a821161524357906151198392604060008051602061536f8339815191529594878152806020522060ff851660ff1982541617905560405193849384615082565b600919820160ff81116151445760008051602061536f833981519152939291604061511992946150f8565b60018060a01b03166000526000602052606460ff60406000205416101590565b6002548110156120b557600260005260206000200190600090565b6001600160a01b03811660008181526003602052604081205490929060ff16156152d257505050565b600254600160401b811015614887576040939291611dcc8260016152f9940160025561528e565b8152600360205220805460ff19166001179055565b8115615318570690565b634e487b7160e01b600052601260045260246000fdfeaaf49c3b93c6f3a66b3ad89750cfdbb3fe0be786559ef1298f6e6cb977566337d4df0cb969b99d25f121a3e9c7f32d8fcc5a0d782408695f68de9493db8cc177bbf5ee5eee34326c6c2d38c9b7ceeb7a8e3ee460657a93dd17fac3e82b141d57a26469706673582212208edb6488a3a9193fd296d40e65637f87bdb2ee772109ae47b1f4ab1bbf6a6a9964736f6c63430008140033","opcodes":"PUSH1 0x80 DUP1 PUSH1 0x40 MSTORE CALLVALUE PUSH2 0x16 JUMPI PUSH2 0x53C4 SWAP1 DUP2 PUSH2 0x1C DUP3 CODECOPY RETURN JUMPDEST PUSH1 0x0 DUP1 REVERT INVALID PUSH1 0x80 PUSH1 0x40 MSTORE PUSH1 0x4 CALLDATASIZE LT ISZERO PUSH2 0x12 JUMPI PUSH1 0x0 DUP1 REVERT JUMPDEST PUSH1 0x0 CALLDATALOAD PUSH1 0xE0 SHR DUP1 PUSH4 0x3828E45 EQ PUSH2 0x3EED JUMPI DUP1 PUSH4 0x3A250F9 EQ PUSH2 0x3E73 JUMPI DUP1 PUSH4 0x15373E3D EQ PUSH2 0x3BB4 JUMPI DUP1 PUSH4 0x1732D652 EQ PUSH2 0x3B0B JUMPI DUP1 PUSH4 0x180AEDF3 EQ PUSH2 0x3A1F JUMPI DUP1 PUSH4 0x1DFFA3DC EQ PUSH2 0x3A03 JUMPI DUP1 PUSH4 0x208082BF EQ PUSH2 0x39AB JUMPI DUP1 PUSH4 0x2404165E EQ PUSH2 0x3971 JUMPI DUP1 PUSH4 0x247BC4A7 EQ PUSH2 0x21AF JUMPI DUP1 PUSH4 0x2488B2EE EQ PUSH2 0x3955 JUMPI DUP1 PUSH4 0x27FF6223 EQ PUSH2 0x21AF JUMPI DUP1 PUSH4 0x2BB8B0DC EQ PUSH2 0x38E7 JUMPI DUP1 PUSH4 0x2D592865 EQ PUSH2 0x389F JUMPI DUP1 PUSH4 0x40B89270 EQ PUSH2 0x3883 JUMPI DUP1 PUSH4 0x4225E7F4 EQ PUSH2 0x3856 JUMPI DUP1 PUSH4 0x43859632 EQ PUSH2 0x3809 JUMPI DUP1 PUSH4 0x4654FF05 EQ PUSH2 0x37EC JUMPI DUP1 PUSH4 0x4807632F EQ PUSH2 0x37B2 JUMPI DUP1 PUSH4 0x4C5D8A0F EQ PUSH2 0x3794 JUMPI DUP1 PUSH4 0x4F0DB622 EQ PUSH2 0x3778 JUMPI DUP1 PUSH4 0x50D061CB EQ PUSH2 0x373B JUMPI DUP1 PUSH4 0x564A565D EQ PUSH2 0x3668 JUMPI DUP1 PUSH4 0x5AEF573C EQ PUSH2 0x31A3 JUMPI DUP1 PUSH4 0x63B2F3C9 EQ PUSH2 0x303B JUMPI DUP1 PUSH4 0x66C910C8 EQ PUSH2 0x2D60 JUMPI DUP1 PUSH4 0x69C04C44 EQ PUSH2 0x2D17 JUMPI DUP1 PUSH4 0x6D9FB287 EQ PUSH2 0x2CB6 JUMPI DUP1 PUSH4 0x6E3B47FC EQ PUSH2 0x2C84 JUMPI DUP1 PUSH4 0x771DD581 EQ PUSH2 0x2398 JUMPI DUP1 PUSH4 0x80FC9C0E EQ PUSH2 0x236D JUMPI DUP1 PUSH4 0x8721BA3F EQ PUSH2 0x231B JUMPI DUP1 PUSH4 0x8D22B863 EQ PUSH2 0x21FA JUMPI DUP1 PUSH4 0x99374642 EQ PUSH2 0x21B4 JUMPI DUP1 PUSH4 0x9EC0164A EQ PUSH2 0x21AF JUMPI DUP1 PUSH4 0xADCD5843 EQ PUSH2 0x1BA9 JUMPI DUP1 PUSH4 0xB2C2F2E8 EQ PUSH2 0x1B6B JUMPI DUP1 PUSH4 0xC2B7B868 EQ PUSH2 0x11E6 JUMPI DUP1 PUSH4 0xC5F8E299 EQ PUSH2 0xE48 JUMPI DUP1 PUSH4 0xCA62FAFD EQ PUSH2 0xAF0 JUMPI DUP1 PUSH4 0xCBF78EE6 EQ PUSH2 0x70A JUMPI DUP1 PUSH4 0xD0D24142 EQ PUSH2 0x49C JUMPI DUP1 PUSH4 0xDA8ACCF9 EQ PUSH2 0x26E JUMPI DUP1 PUSH4 0xE72F73A8 EQ PUSH2 0x252 JUMPI PUSH4 0xFB468855 EQ PUSH2 0x200 JUMPI PUSH1 0x0 DUP1 REVERT JUMPDEST CALLVALUE PUSH2 0x24D JUMPI PUSH1 0x40 CALLDATASIZE PUSH1 0x3 NOT ADD SLT PUSH2 0x24D JUMPI PUSH2 0x219 PUSH2 0x4129 JUMP JUMPDEST PUSH1 0x4 CALLDATALOAD PUSH1 0x0 MSTORE PUSH1 0x7 PUSH1 0x20 MSTORE PUSH1 0x40 PUSH1 0x0 KECCAK256 SWAP1 PUSH1 0x1 DUP1 PUSH1 0xA0 SHL SUB AND PUSH1 0x0 MSTORE PUSH1 0x20 MSTORE PUSH1 0x20 PUSH1 0xFF PUSH1 0x40 PUSH1 0x0 KECCAK256 SLOAD AND PUSH1 0x40 MLOAD SWAP1 ISZERO ISZERO DUP2 MSTORE RETURN JUMPDEST PUSH1 0x0 DUP1 REVERT JUMPDEST CALLVALUE PUSH2 0x24D JUMPI PUSH1 0x0 CALLDATASIZE PUSH1 0x3 NOT ADD SLT PUSH2 0x24D JUMPI PUSH1 0x20 PUSH1 0x40 MLOAD PUSH1 0x3 DUP2 MSTORE RETURN JUMPDEST CALLVALUE PUSH2 0x24D JUMPI PUSH2 0x27C CALLDATASIZE PUSH2 0x43AD JUMP JUMPDEST SWAP1 PUSH1 0x0 MSTORE PUSH1 0x20 PUSH1 0xB DUP2 MSTORE PUSH1 0x40 PUSH1 0x0 KECCAK256 SWAP1 PUSH1 0x1 PUSH2 0x2A4 PUSH1 0x1 DUP1 PUSH1 0xA0 SHL SUB DUP3 DUP6 ADD SLOAD AND CALLER EQ PUSH2 0x44F4 JUMP JUMPDEST PUSH1 0xB DUP4 ADD SWAP4 PUSH1 0xFF DUP6 SLOAD AND PUSH1 0x9 DUP2 LT ISZERO PUSH2 0x486 JUMPI PUSH1 0x3 SUB PUSH2 0x451 JUMPI PUSH2 0x2D1 PUSH1 0x4 DUP6 ADD SLOAD PUSH1 0x5 DUP7 ADD SLOAD SWAP1 PUSH2 0x452D JUMP JUMPDEST TIMESTAMP GT PUSH2 0x414 JUMPI DUP1 MLOAD PUSH1 0x7 DUP6 ADD SWAP4 SWAP1 SWAP2 PUSH1 0x1 PUSH1 0x1 PUSH1 0x40 SHL SUB DUP4 GT PUSH2 0x3FE JUMPI PUSH2 0x2F8 DUP6 SLOAD PUSH2 0x41B3 JUMP JUMPDEST PUSH1 0x1F DUP2 GT PUSH2 0x3B5 JUMPI JUMPDEST POP DUP2 PUSH1 0x1F DUP5 GT PUSH1 0x1 EQ PUSH2 0x34F JUMPI POP SWAP3 DUP3 SWAP4 SWAP2 DUP4 SWAP3 PUSH1 0x0 SWAP5 PUSH2 0x344 JUMPI JUMPDEST POP POP SHL SWAP2 PUSH1 0x0 NOT SWAP1 PUSH1 0x3 SHL SHR NOT AND OR SWAP1 SSTORE JUMPDEST TIMESTAMP PUSH1 0xA SWAP2 SWAP1 SWAP2 ADD SSTORE DUP1 SLOAD PUSH1 0xFF NOT AND PUSH1 0x4 OR SWAP1 SSTORE STOP JUMPDEST ADD MLOAD SWAP3 POP DUP8 DUP1 PUSH2 0x31D JUMP JUMPDEST SWAP2 SWAP1 DUP4 PUSH1 0x1F NOT DUP2 AND DUP8 PUSH1 0x0 MSTORE DUP5 PUSH1 0x0 KECCAK256 SWAP5 PUSH1 0x0 SWAP1 JUMPDEST DUP9 DUP4 DUP4 LT PUSH2 0x39B JUMPI POP POP POP LT PUSH2 0x382 JUMPI JUMPDEST POP POP POP DUP2 SHL ADD SWAP1 SSTORE PUSH2 0x32F JUMP JUMPDEST ADD MLOAD PUSH1 0x0 NOT PUSH1 0xF8 DUP5 PUSH1 0x3 SHL AND SHR NOT AND SWAP1 SSTORE DUP6 DUP1 DUP1 PUSH2 0x375 JUMP JUMPDEST DUP6 DUP8 ADD MLOAD DUP9 SSTORE SWAP1 SWAP7 ADD SWAP6 SWAP5 DUP6 ADD SWAP5 DUP8 SWAP4 POP SWAP1 DUP2 ADD SWAP1 PUSH2 0x364 JUMP JUMPDEST DUP6 PUSH1 0x0 MSTORE DUP3 PUSH1 0x0 KECCAK256 PUSH1 0x1F DUP6 ADD PUSH1 0x5 SHR DUP2 ADD SWAP2 DUP5 DUP7 LT PUSH2 0x3F4 JUMPI JUMPDEST PUSH1 0x1F ADD PUSH1 0x5 SHR ADD SWAP1 DUP6 SWAP1 JUMPDEST DUP3 DUP2 LT PUSH2 0x3E8 JUMPI POP POP PUSH2 0x301 JUMP JUMPDEST PUSH1 0x0 DUP2 SSTORE ADD DUP6 SWAP1 PUSH2 0x3DA JUMP JUMPDEST SWAP1 SWAP2 POP DUP2 SWAP1 PUSH2 0x3CF JUMP JUMPDEST PUSH4 0x4E487B71 PUSH1 0xE0 SHL PUSH1 0x0 MSTORE PUSH1 0x41 PUSH1 0x4 MSTORE PUSH1 0x24 PUSH1 0x0 REVERT JUMPDEST PUSH1 0x40 MLOAD PUSH3 0x461BCD PUSH1 0xE5 SHL DUP2 MSTORE PUSH1 0x4 DUP2 ADD DUP5 SWAP1 MSTORE PUSH1 0x15 PUSH1 0x24 DUP3 ADD MSTORE PUSH21 0x14DD589B5A5D081DDA5B991BDDC8195E1C1A5C9959 PUSH1 0x5A SHL PUSH1 0x44 DUP3 ADD MSTORE PUSH1 0x64 SWAP1 REVERT JUMPDEST PUSH1 0x40 MLOAD PUSH3 0x461BCD PUSH1 0xE5 SHL DUP2 MSTORE PUSH1 0x4 DUP2 ADD DUP5 SWAP1 MSTORE PUSH1 0xD PUSH1 0x24 DUP3 ADD MSTORE PUSH13 0x496E76616C6964207374617465 PUSH1 0x98 SHL PUSH1 0x44 DUP3 ADD MSTORE PUSH1 0x64 SWAP1 REVERT JUMPDEST PUSH4 0x4E487B71 PUSH1 0xE0 SHL PUSH1 0x0 MSTORE PUSH1 0x21 PUSH1 0x4 MSTORE PUSH1 0x24 PUSH1 0x0 REVERT JUMPDEST CALLVALUE PUSH2 0x24D JUMPI PUSH2 0x4AA CALLDATASIZE PUSH2 0x43AD JUMP JUMPDEST DUP2 PUSH1 0x0 MSTORE PUSH1 0x20 SWAP1 PUSH1 0xB DUP3 MSTORE PUSH1 0x40 PUSH1 0x0 KECCAK256 SWAP1 PUSH1 0xFF PUSH1 0xB PUSH1 0x1 DUP1 PUSH1 0xA0 SHL SUB SWAP4 DUP5 DUP2 SLOAD AND CALLER EQ DUP1 ISZERO PUSH2 0x6FB JUMPI JUMPDEST PUSH2 0x4DD SWAP1 PUSH2 0x4E1F JUMP JUMPDEST ADD SLOAD AND PUSH1 0x9 DUP2 LT ISZERO PUSH2 0x486 JUMPI PUSH1 0x7 PUSH2 0x4F5 SWAP2 EQ PUSH2 0x4EF7 JUMP JUMPDEST DUP4 PUSH1 0x0 MSTORE PUSH1 0x5 DUP4 MSTORE PUSH1 0x40 PUSH1 0x0 KECCAK256 PUSH1 0x1 SWAP3 DUP4 DUP3 ADD SLOAD AND PUSH2 0x519 PUSH1 0xA DUP4 ADD SLOAD ISZERO ISZERO PUSH2 0x4F32 JUMP JUMPDEST PUSH2 0x52A PUSH1 0xFF PUSH1 0xB DUP5 ADD SLOAD AND ISZERO PUSH2 0x4E5A JUMP JUMPDEST CALLER EQ PUSH2 0x6B9 JUMPI PUSH1 0x3 ADD SWAP3 DUP4 SLOAD SWAP2 PUSH2 0x540 DUP4 PUSH2 0x41B3 JUMP JUMPDEST PUSH2 0x678 JUMPI DUP1 MLOAD SWAP3 PUSH1 0x1 PUSH1 0x1 PUSH1 0x40 SHL SUB DUP5 GT PUSH2 0x3FE JUMPI PUSH2 0x55E SWAP1 PUSH2 0x41B3 JUMP JUMPDEST PUSH1 0x1F DUP2 GT PUSH2 0x62F JUMPI JUMPDEST POP DUP2 PUSH1 0x1F DUP5 GT PUSH1 0x1 EQ PUSH2 0x5C9 JUMPI POP SWAP3 DUP3 SWAP4 SWAP2 DUP4 SWAP3 PUSH1 0x0 SWAP5 PUSH2 0x5BE JUMPI JUMPDEST POP POP SHL SWAP2 PUSH1 0x0 NOT SWAP1 PUSH1 0x3 SHL SHR NOT AND OR SWAP1 SSTORE JUMPDEST CALLER SWAP1 PUSH32 0x7878F55C48613E960719430C5332344CEFC8C552F6AFC747476FF85169F618FE PUSH1 0x0 DUP1 LOG3 STOP JUMPDEST ADD MLOAD SWAP3 POP DUP7 DUP1 PUSH2 0x583 JUMP JUMPDEST SWAP2 SWAP1 DUP4 PUSH1 0x1F NOT DUP2 AND DUP8 PUSH1 0x0 MSTORE DUP5 PUSH1 0x0 KECCAK256 SWAP5 PUSH1 0x0 SWAP1 JUMPDEST DUP9 DUP4 DUP4 LT PUSH2 0x615 JUMPI POP POP POP LT PUSH2 0x5FC JUMPI JUMPDEST POP POP POP DUP2 SHL ADD SWAP1 SSTORE PUSH2 0x595 JUMP JUMPDEST ADD MLOAD PUSH1 0x0 NOT PUSH1 0xF8 DUP5 PUSH1 0x3 SHL AND SHR NOT AND SWAP1 SSTORE DUP5 DUP1 DUP1 PUSH2 0x5EF JUMP JUMPDEST DUP6 DUP8 ADD MLOAD DUP9 SSTORE SWAP1 SWAP7 ADD SWAP6 SWAP5 DUP6 ADD SWAP5 DUP8 SWAP4 POP SWAP1 DUP2 ADD SWAP1 PUSH2 0x5DE JUMP JUMPDEST DUP6 PUSH1 0x0 MSTORE DUP3 PUSH1 0x0 KECCAK256 PUSH1 0x1F DUP6 ADD PUSH1 0x5 SHR DUP2 ADD SWAP2 DUP5 DUP7 LT PUSH2 0x66E JUMPI JUMPDEST PUSH1 0x1F ADD PUSH1 0x5 SHR ADD SWAP1 DUP6 SWAP1 JUMPDEST DUP3 DUP2 LT PUSH2 0x662 JUMPI POP POP PUSH2 0x567 JUMP JUMPDEST PUSH1 0x0 DUP2 SSTORE ADD DUP6 SWAP1 PUSH2 0x654 JUMP JUMPDEST SWAP1 SWAP2 POP DUP2 SWAP1 PUSH2 0x649 JUMP JUMPDEST PUSH1 0x40 MLOAD PUSH3 0x461BCD PUSH1 0xE5 SHL DUP2 MSTORE PUSH1 0x4 DUP2 ADD DUP4 SWAP1 MSTORE PUSH1 0x19 PUSH1 0x24 DUP3 ADD MSTORE PUSH25 0x10DBDD5B9D195C88185B1C9958591E481CDD589B5A5D1D1959 PUSH1 0x3A SHL PUSH1 0x44 DUP3 ADD MSTORE PUSH1 0x64 SWAP1 REVERT JUMPDEST PUSH1 0x40 MLOAD PUSH3 0x461BCD PUSH1 0xE5 SHL DUP2 MSTORE PUSH1 0x4 DUP2 ADD DUP6 SWAP1 MSTORE PUSH1 0x1A PUSH1 0x24 DUP3 ADD MSTORE PUSH26 0x43616E6E6F7420636F756E746572206F776E2064697370757465 PUSH1 0x30 SHL PUSH1 0x44 DUP3 ADD MSTORE PUSH1 0x64 SWAP1 REVERT JUMPDEST POP PUSH1 0x1 DUP2 ADD SLOAD DUP6 AND CALLER EQ PUSH2 0x4D4 JUMP JUMPDEST CALLVALUE PUSH2 0x24D JUMPI PUSH1 0xA0 CALLDATASIZE PUSH1 0x3 NOT ADD SLT PUSH2 0x24D JUMPI PUSH1 0x4 CALLDATALOAD PUSH1 0x1 PUSH1 0x1 PUSH1 0x40 SHL SUB DUP2 GT PUSH2 0x24D JUMPI PUSH2 0x73A SWAP1 CALLDATASIZE SWAP1 PUSH1 0x4 ADD PUSH2 0x4366 JUMP JUMPDEST CALLER PUSH1 0x0 MSTORE PUSH1 0x4 PUSH1 0x20 MSTORE PUSH1 0xFF PUSH1 0x40 PUSH1 0x0 KECCAK256 SLOAD AND PUSH1 0x3 DUP2 LT ISZERO PUSH2 0x486 JUMPI PUSH1 0x1 PUSH2 0x761 SWAP2 EQ PUSH2 0x44BB JUMP JUMPDEST PUSH1 0x40 MLOAD SWAP1 PUSH2 0x180 DUP3 ADD PUSH1 0x1 PUSH1 0x1 PUSH1 0x40 SHL SUB DUP2 GT DUP4 DUP3 LT OR PUSH2 0x3FE JUMPI PUSH1 0x40 MSTORE CALLER DUP3 MSTORE PUSH1 0x0 PUSH1 0x20 DUP4 ADD MSTORE PUSH1 0x24 CALLDATALOAD PUSH1 0x40 DUP4 ADD MSTORE PUSH1 0x44 CALLDATALOAD PUSH1 0x60 DUP4 ADD MSTORE PUSH1 0x64 CALLDATALOAD PUSH1 0x80 DUP4 ADD MSTORE PUSH1 0x84 CALLDATALOAD PUSH1 0xA0 DUP4 ADD MSTORE PUSH1 0xC0 DUP3 ADD MSTORE PUSH1 0x40 MLOAD PUSH1 0x20 DUP2 ADD DUP2 DUP2 LT PUSH1 0x1 DUP1 PUSH1 0x40 SHL SUB DUP3 GT OR PUSH2 0x3FE JUMPI PUSH1 0x40 MSTORE PUSH1 0x0 DUP2 MSTORE PUSH1 0xE0 DUP3 ADD MSTORE PUSH1 0x0 PUSH2 0x100 DUP3 ADD MSTORE PUSH1 0x0 PUSH2 0x120 DUP3 ADD MSTORE PUSH1 0x0 PUSH2 0x140 DUP3 ADD MSTORE PUSH1 0x0 PUSH2 0x160 DUP3 ADD MSTORE PUSH1 0xA SLOAD PUSH1 0x0 MSTORE PUSH1 0xB PUSH1 0x20 MSTORE PUSH1 0x40 PUSH1 0x0 KECCAK256 SWAP1 PUSH1 0x1 DUP1 PUSH1 0xA0 SHL SUB DUP1 DUP3 MLOAD AND PUSH1 0x1 DUP1 PUSH1 0xA0 SHL SUB NOT SWAP1 DUP2 DUP6 SLOAD AND OR DUP5 SSTORE PUSH1 0x1 DUP5 ADD SWAP2 PUSH1 0x20 DUP5 ADD MLOAD AND SWAP1 DUP3 SLOAD AND OR SWAP1 SSTORE PUSH1 0x40 DUP2 ADD MLOAD PUSH1 0x2 DUP4 ADD SSTORE PUSH1 0x60 DUP2 ADD MLOAD PUSH1 0x3 DUP4 ADD SSTORE PUSH1 0x80 DUP2 ADD MLOAD PUSH1 0x4 DUP4 ADD SSTORE PUSH1 0xA0 DUP2 ADD MLOAD PUSH1 0x5 DUP4 ADD SSTORE PUSH1 0xC0 DUP2 ADD MLOAD SWAP2 DUP3 MLOAD PUSH1 0x1 DUP1 PUSH1 0x40 SHL SUB DUP2 GT PUSH2 0x3FE JUMPI PUSH2 0x87A PUSH1 0x6 DUP4 ADD SLOAD PUSH2 0x41B3 JUMP JUMPDEST PUSH1 0x1F DUP2 GT PUSH2 0xAA9 JUMPI JUMPDEST POP PUSH1 0x20 PUSH1 0x1F DUP3 GT PUSH1 0x1 EQ PUSH2 0xA3B JUMPI DUP2 SWAP3 SWAP4 SWAP5 PUSH1 0x0 SWAP3 PUSH2 0xA30 JUMPI JUMPDEST POP POP DUP2 PUSH1 0x1 SHL SWAP2 PUSH1 0x0 NOT SWAP1 PUSH1 0x3 SHL SHR NOT AND OR PUSH1 0x6 DUP3 ADD SSTORE JUMPDEST PUSH1 0xE0 DUP3 ADD MLOAD DUP1 MLOAD SWAP1 PUSH1 0x1 PUSH1 0x1 PUSH1 0x40 SHL SUB DUP3 GT PUSH2 0x3FE JUMPI PUSH2 0x8D8 PUSH1 0x7 DUP5 ADD SLOAD PUSH2 0x41B3 JUMP JUMPDEST PUSH1 0x1F DUP2 GT PUSH2 0x9E5 JUMPI JUMPDEST POP PUSH1 0x20 SWAP1 PUSH1 0x1F DUP4 GT PUSH1 0x1 EQ PUSH2 0x96F JUMPI SWAP2 DUP1 PUSH2 0x160 SWAP5 SWAP3 PUSH1 0xB SWAP5 PUSH1 0x0 SWAP3 PUSH2 0x964 JUMPI JUMPDEST POP POP DUP2 PUSH1 0x1 SHL SWAP2 PUSH1 0x0 NOT SWAP1 PUSH1 0x3 SHL SHR NOT AND OR PUSH1 0x7 DUP3 ADD SSTORE JUMPDEST PUSH2 0x100 DUP5 ADD MLOAD PUSH1 0x8 DUP3 ADD SSTORE PUSH2 0x120 DUP5 ADD MLOAD PUSH1 0x9 DUP3 ADD SSTORE PUSH2 0x140 DUP5 ADD MLOAD PUSH1 0xA DUP3 ADD SSTORE ADD SWAP2 ADD MLOAD PUSH1 0x9 DUP2 LT ISZERO PUSH2 0x486 JUMPI PUSH1 0xFF DUP1 NOT DUP4 SLOAD AND SWAP2 AND OR SWAP1 SSTORE PUSH2 0x95F PUSH1 0xA SLOAD PUSH2 0x447C JUMP JUMPDEST PUSH1 0xA SSTORE STOP JUMPDEST ADD MLOAD SWAP1 POP DUP7 DUP1 PUSH2 0x902 JUMP JUMPDEST SWAP1 PUSH1 0x7 DUP5 ADD PUSH1 0x0 MSTORE PUSH1 0x20 PUSH1 0x0 KECCAK256 SWAP2 PUSH1 0x0 JUMPDEST PUSH1 0x1F NOT DUP6 AND DUP2 LT PUSH2 0x9CD JUMPI POP SWAP3 PUSH2 0x160 SWAP5 SWAP3 PUSH1 0x1 SWAP3 PUSH1 0xB SWAP6 DUP4 PUSH1 0x1F NOT DUP2 AND LT PUSH2 0x9B4 JUMPI JUMPDEST POP POP POP DUP2 SHL ADD PUSH1 0x7 DUP3 ADD SSTORE PUSH2 0x91A JUMP JUMPDEST ADD MLOAD PUSH1 0x0 NOT PUSH1 0xF8 DUP5 PUSH1 0x3 SHL AND SHR NOT AND SWAP1 SSTORE DUP7 DUP1 DUP1 PUSH2 0x9A4 JUMP JUMPDEST SWAP2 SWAP3 PUSH1 0x20 PUSH1 0x1 DUP2 SWAP3 DUP7 DUP6 ADD MLOAD DUP2 SSTORE ADD SWAP5 ADD SWAP3 ADD PUSH2 0x980 JUMP JUMPDEST PUSH1 0x7 DUP5 ADD PUSH1 0x0 MSTORE PUSH1 0x20 PUSH1 0x0 KECCAK256 PUSH1 0x1F DUP5 ADD PUSH1 0x5 SHR DUP2 ADD SWAP2 PUSH1 0x20 DUP6 LT PUSH2 0xA26 JUMPI JUMPDEST PUSH1 0x1F ADD PUSH1 0x5 SHR ADD SWAP1 JUMPDEST DUP2 DUP2 LT PUSH2 0xA1A JUMPI POP PUSH2 0x8E1 JUMP JUMPDEST PUSH1 0x0 DUP2 SSTORE PUSH1 0x1 ADD PUSH2 0xA0D JUMP JUMPDEST SWAP1 SWAP2 POP DUP2 SWAP1 PUSH2 0xA04 JUMP JUMPDEST ADD MLOAD SWAP1 POP DUP5 DUP1 PUSH2 0x89D JUMP JUMPDEST PUSH1 0x6 DUP4 ADD PUSH1 0x0 MSTORE PUSH1 0x20 PUSH1 0x0 KECCAK256 SWAP1 PUSH1 0x0 JUMPDEST PUSH1 0x1F NOT DUP5 AND DUP2 LT PUSH2 0xA91 JUMPI POP PUSH1 0x1 SWAP4 SWAP5 SWAP6 DUP4 PUSH1 0x1F NOT DUP2 AND LT PUSH2 0xA78 JUMPI JUMPDEST POP POP POP DUP2 SHL ADD PUSH1 0x6 DUP3 ADD SSTORE PUSH2 0x8B5 JUMP JUMPDEST ADD MLOAD PUSH1 0x0 NOT PUSH1 0xF8 DUP5 PUSH1 0x3 SHL AND SHR NOT AND SWAP1 SSTORE DUP5 DUP1 DUP1 PUSH2 0xA68 JUMP JUMPDEST SWAP1 SWAP2 PUSH1 0x20 PUSH1 0x1 DUP2 SWAP3 DUP6 DUP11 ADD MLOAD DUP2 SSTORE ADD SWAP4 ADD SWAP2 ADD PUSH2 0xA4B JUMP JUMPDEST PUSH1 0x6 DUP4 ADD PUSH1 0x0 MSTORE PUSH1 0x20 PUSH1 0x0 KECCAK256 PUSH1 0x1F DUP4 ADD PUSH1 0x5 SHR DUP2 ADD PUSH1 0x20 DUP5 LT PUSH2 0xAE9 JUMPI JUMPDEST PUSH1 0x1F DUP4 ADD PUSH1 0x5 SHR DUP3 ADD DUP2 LT PUSH2 0xADD JUMPI POP POP PUSH2 0x883 JUMP JUMPDEST PUSH1 0x0 DUP2 SSTORE PUSH1 0x1 ADD PUSH2 0xAC7 JUMP JUMPDEST POP DUP1 PUSH2 0xAC7 JUMP JUMPDEST CALLVALUE PUSH2 0x24D JUMPI PUSH1 0x20 DUP1 PUSH1 0x3 NOT CALLDATASIZE ADD SLT PUSH2 0x24D JUMPI PUSH1 0x4 CALLDATALOAD SWAP1 DUP2 PUSH1 0x0 MSTORE PUSH1 0xB DUP2 MSTORE PUSH1 0x40 PUSH1 0x0 KECCAK256 SWAP2 PUSH1 0xB DUP4 ADD SWAP2 DUP3 SLOAD SWAP3 PUSH1 0xFF DUP5 AND PUSH1 0x9 DUP2 LT ISZERO PUSH2 0x486 JUMPI PUSH1 0x2 PUSH2 0xB35 SWAP2 EQ PUSH2 0x457D JUMP JUMPDEST PUSH2 0xB52 PUSH2 0xB4B PUSH1 0x3 DUP8 ADD SLOAD PUSH1 0x5 DUP9 ADD SLOAD SWAP1 PUSH2 0x452D JUMP JUMPDEST TIMESTAMP GT PUSH2 0x45B8 JUMP JUMPDEST PUSH1 0x6 PUSH1 0xFF NOT DUP1 SWAP6 AND OR SWAP1 SSTORE PUSH1 0x1 DUP1 PUSH1 0xA0 SHL SUB SWAP3 PUSH2 0xB90 PUSH1 0x0 DUP1 DUP1 DUP1 PUSH1 0x1 SWAP10 PUSH1 0x2 DUP11 DUP13 DUP4 ADD SLOAD AND SWAP11 DUP3 SLOAD AND SWAP2 ADD SLOAD SWAP1 GAS CALL PUSH2 0xB8A PUSH2 0x45F0 JUMP JUMPDEST POP PUSH2 0x4620 JUMP JUMPDEST DUP4 PUSH1 0x40 MLOAD PUSH2 0xB9D DUP2 PUSH2 0x423E JUMP JUMPDEST PUSH1 0x1B DUP2 MSTORE PUSH27 0x1DDBDC9AD95C97D858D8D95C1D195917DB9BDD17DCDD185C9D1959 PUSH1 0x2A SHL DUP5 DUP3 ADD MSTORE PUSH1 0x0 DUP3 DUP2 MSTORE DUP1 DUP6 MSTORE PUSH1 0x40 SWAP1 KECCAK256 SLOAD PUSH1 0xFF AND PUSH1 0x5 DUP2 GT PUSH2 0xE1D JUMPI SWAP1 PUSH1 0x0 DUP1 MLOAD PUSH1 0x20 PUSH2 0x536F DUP4 CODECOPY DUP2 MLOAD SWAP2 MSTORE SWAP2 PUSH2 0xC18 PUSH1 0x0 SWAP3 JUMPDEST DUP6 PUSH1 0x0 MSTORE PUSH1 0x0 DUP9 MSTORE PUSH1 0x40 PUSH1 0x0 KECCAK256 PUSH1 0xFF DUP6 AND DUP9 DUP3 SLOAD AND OR SWAP1 SSTORE PUSH1 0x40 MLOAD SWAP4 DUP5 SWAP4 DUP5 PUSH2 0x5082 JUMP JUMPDEST SUB SWAP1 LOG2 PUSH2 0xC23 PUSH2 0x48D7 JUMP JUMPDEST SWAP1 DUP5 PUSH1 0x0 MSTORE PUSH1 0x8 DUP4 MSTORE PUSH1 0x40 PUSH1 0x0 KECCAK256 PUSH1 0x40 MLOAD SWAP1 PUSH2 0xC3E DUP3 PUSH2 0x41ED JUMP JUMPDEST PUSH1 0x0 DUP3 MSTORE DUP5 DUP3 ADD DUP7 DUP2 MSTORE PUSH1 0x40 DUP4 ADD SWAP2 TIMESTAMP DUP4 MSTORE PUSH1 0x60 DUP5 ADD SWAP6 DUP7 MSTORE DUP1 SLOAD PUSH1 0x1 PUSH1 0x40 SHL DUP2 LT ISZERO PUSH2 0x3FE JUMPI PUSH2 0xC73 SWAP2 DUP12 DUP3 ADD DUP2 SSTORE PUSH2 0x448B JUMP JUMPDEST SWAP4 SWAP1 SWAP4 PUSH2 0xE07 JUMPI MLOAD PUSH1 0xD DUP2 LT ISZERO PUSH2 0x486 JUMPI PUSH1 0xFF PUSH1 0x3 SWAP6 DUP6 SLOAD AND SWAP2 AND OR DUP4 SSTORE MLOAD DUP9 DUP4 ADD SSTORE MLOAD PUSH1 0x2 DUP3 ADD SSTORE ADD SWAP1 MLOAD DUP1 MLOAD SWAP1 PUSH1 0x1 DUP1 PUSH1 0x40 SHL SUB DUP3 GT PUSH2 0x3FE JUMPI DUP2 SWAP1 PUSH2 0xCBB DUP5 SLOAD PUSH2 0x41B3 JUMP JUMPDEST PUSH1 0x1F DUP2 GT PUSH2 0xDB4 JUMPI JUMPDEST POP DUP5 SWAP1 PUSH1 0x1F DUP4 GT PUSH1 0x1 EQ PUSH2 0xD51 JUMPI PUSH1 0x0 SWAP3 PUSH2 0xD46 JUMPI JUMPDEST POP POP PUSH1 0x0 NOT PUSH1 0x3 DUP4 SWAP1 SHL SHR NOT AND SWAP1 DUP7 SHL OR SWAP1 SSTORE JUMPDEST DUP3 PUSH1 0x0 MSTORE PUSH1 0x9 DUP2 MSTORE PUSH1 0x40 PUSH1 0x0 KECCAK256 PUSH1 0x0 DUP1 MSTORE DUP2 MSTORE PUSH1 0x40 PUSH1 0x0 KECCAK256 SWAP2 DUP3 SLOAD SWAP5 DUP6 ADD DUP1 SWAP6 GT PUSH2 0xD30 JUMPI PUSH1 0x0 SWAP5 PUSH1 0x0 DUP1 MLOAD PUSH1 0x20 PUSH2 0x534F DUP4 CODECOPY DUP2 MLOAD SWAP2 MSTORE SWAP4 SSTORE PUSH1 0x40 MLOAD SWAP1 DUP2 MSTORE LOG3 STOP JUMPDEST PUSH4 0x4E487B71 PUSH1 0xE0 SHL PUSH1 0x0 MSTORE PUSH1 0x11 PUSH1 0x4 MSTORE PUSH1 0x24 PUSH1 0x0 REVERT JUMPDEST ADD MLOAD SWAP1 POP DUP8 DUP1 PUSH2 0xCDA JUMP JUMPDEST SWAP1 DUP9 SWAP4 POP PUSH1 0x1F NOT DUP4 AND SWAP2 DUP6 PUSH1 0x0 MSTORE DUP7 PUSH1 0x0 KECCAK256 SWAP3 PUSH1 0x0 JUMPDEST DUP9 DUP3 DUP3 LT PUSH2 0xD9E JUMPI POP POP DUP5 GT PUSH2 0xD85 JUMPI JUMPDEST POP POP POP DUP2 SHL ADD SWAP1 SSTORE PUSH2 0xCEE JUMP JUMPDEST ADD MLOAD PUSH1 0x0 NOT PUSH1 0xF8 DUP5 PUSH1 0x3 SHL AND SHR NOT AND SWAP1 SSTORE DUP8 DUP1 DUP1 PUSH2 0xD78 JUMP JUMPDEST DUP4 DUP6 ADD MLOAD DUP7 SSTORE DUP13 SWAP8 SWAP1 SWAP6 ADD SWAP5 SWAP4 DUP5 ADD SWAP4 ADD PUSH2 0xD67 JUMP JUMPDEST SWAP1 SWAP2 POP DUP4 PUSH1 0x0 MSTORE DUP5 PUSH1 0x0 KECCAK256 PUSH1 0x1F DUP5 ADD PUSH1 0x5 SHR DUP2 ADD SWAP2 DUP7 DUP6 LT PUSH2 0xDFD JUMPI JUMPDEST DUP5 SWAP4 SWAP3 SWAP2 PUSH1 0x1F DUP12 SWAP3 ADD PUSH1 0x5 SHR ADD SWAP2 JUMPDEST DUP3 DUP2 LT PUSH2 0xDEE JUMPI POP POP PUSH2 0xCC4 JUMP JUMPDEST PUSH1 0x0 DUP2 SSTORE DUP6 SWAP5 POP DUP11 SWAP2 ADD PUSH2 0xDE0 JUMP JUMPDEST SWAP1 SWAP2 POP DUP2 SWAP1 PUSH2 0xDD1 JUMP JUMPDEST PUSH4 0x4E487B71 PUSH1 0xE0 SHL PUSH1 0x0 MSTORE PUSH1 0x0 PUSH1 0x4 MSTORE PUSH1 0x24 PUSH1 0x0 REVERT JUMPDEST SWAP2 POP PUSH1 0x4 NOT DUP3 ADD SWAP1 PUSH1 0xFF DUP3 GT PUSH2 0xD30 JUMPI DUP7 SWAP3 PUSH2 0xC18 PUSH1 0x0 DUP1 MLOAD PUSH1 0x20 PUSH2 0x536F DUP4 CODECOPY DUP2 MLOAD SWAP2 MSTORE SWAP4 SWAP3 PUSH2 0xBF4 JUMP JUMPDEST CALLVALUE PUSH2 0x24D JUMPI PUSH1 0x20 DUP1 PUSH1 0x3 NOT CALLDATASIZE ADD SLT PUSH2 0x24D JUMPI PUSH1 0x4 CALLDATALOAD SWAP1 DUP2 PUSH1 0x0 MSTORE PUSH1 0xB DUP2 MSTORE PUSH1 0x40 PUSH1 0x0 KECCAK256 PUSH1 0xB DUP2 ADD SWAP1 DUP2 SLOAD SWAP3 PUSH1 0xFF DUP5 AND PUSH1 0x9 DUP2 LT ISZERO PUSH2 0x486 JUMPI PUSH1 0x4 PUSH2 0xE8C SWAP2 EQ PUSH2 0x491E JUMP JUMPDEST PUSH1 0xA DUP3 ADD SLOAD PUSH1 0x78 DUP2 ADD DUP1 SWAP2 GT PUSH2 0xD30 JUMPI PUSH2 0xEA8 SWAP1 TIMESTAMP LT ISZERO PUSH2 0x45B8 JUMP JUMPDEST PUSH1 0x5 PUSH1 0xFF NOT SWAP5 DUP6 AND DUP2 OR SWAP1 SWAP4 SSTORE DUP2 SLOAD PUSH1 0x40 MLOAD PUSH1 0x1 PUSH1 0x1 PUSH1 0xA0 SHL SUB SWAP4 SWAP2 DUP5 AND SWAP1 PUSH2 0xED0 DUP2 PUSH2 0x423E JUMP JUMPDEST PUSH1 0x19 DUP2 MSTORE PUSH25 0x31B634B2B73A2FB4B3B737B932B22FB9BAB136B4B9B9B4B7B7 PUSH1 0x39 SHL DUP5 DUP3 ADD MSTORE PUSH1 0x0 DUP3 DUP2 MSTORE DUP1 DUP6 MSTORE PUSH1 0x40 SWAP1 KECCAK256 SLOAD PUSH1 0xFF AND SWAP1 PUSH1 0x8 DUP3 GT PUSH2 0x11BF JUMPI PUSH1 0x0 DUP1 MLOAD PUSH1 0x20 PUSH2 0x536F DUP4 CODECOPY DUP2 MLOAD SWAP2 MSTORE SWAP2 PUSH2 0xF49 PUSH1 0x0 SWAP3 JUMPDEST DUP6 PUSH1 0x0 MSTORE PUSH1 0x0 DUP9 MSTORE PUSH1 0x40 PUSH1 0x0 KECCAK256 PUSH1 0xFF DUP6 AND DUP13 DUP3 SLOAD AND OR SWAP1 SSTORE PUSH1 0x40 MLOAD SWAP4 DUP5 SWAP4 DUP5 PUSH2 0x5082 JUMP JUMPDEST SUB SWAP1 LOG2 DUP3 DUP2 SLOAD AND SWAP3 PUSH1 0x40 MLOAD PUSH2 0xF5D DUP2 PUSH2 0x4223 JUMP JUMPDEST PUSH1 0x26 DUP2 MSTORE PUSH32 0x446964206E6F7420726573706F6E6420616674657220776F726B657220737562 DUP5 DUP3 ADD MSTORE PUSH6 0x1B5A5D1D1959 PUSH1 0xD2 SHL PUSH1 0x40 DUP3 ADD MSTORE DUP5 PUSH1 0x0 MSTORE PUSH1 0x8 DUP5 MSTORE PUSH1 0x40 PUSH1 0x0 KECCAK256 SWAP7 PUSH1 0x40 MLOAD PUSH2 0xFAF DUP2 PUSH2 0x41ED JUMP JUMPDEST DUP8 DUP2 MSTORE DUP6 DUP2 ADD DUP11 DUP2 MSTORE PUSH1 0x40 DUP3 ADD SWAP1 TIMESTAMP DUP3 MSTORE PUSH1 0x60 DUP4 ADD SWAP5 DUP6 MSTORE DUP11 SLOAD PUSH1 0x1 PUSH1 0x40 SHL DUP2 LT ISZERO PUSH2 0x3FE JUMPI PUSH2 0xFE6 SWAP1 PUSH1 0x1 SWAP13 DUP14 DUP3 ADD DUP2 SSTORE PUSH2 0x448B JUMP JUMPDEST SWAP4 SWAP1 SWAP4 PUSH2 0xE07 JUMPI MLOAD PUSH1 0xD DUP2 LT ISZERO PUSH2 0x486 JUMPI PUSH1 0xFF PUSH1 0x3 SWAP6 DUP6 SLOAD AND SWAP2 AND OR DUP4 SSTORE MLOAD DUP11 DUP4 ADD SSTORE MLOAD PUSH1 0x2 DUP3 ADD SSTORE ADD SWAP1 MLOAD DUP1 MLOAD SWAP1 PUSH1 0x1 DUP1 PUSH1 0x40 SHL SUB DUP3 GT PUSH2 0x3FE JUMPI DUP2 SWAP1 PUSH2 0x102E DUP5 SLOAD PUSH2 0x41B3 JUMP JUMPDEST PUSH1 0x1F DUP2 GT PUSH2 0x116E JUMPI JUMPDEST POP DUP7 SWAP1 PUSH1 0x1F DUP4 GT PUSH1 0x1 EQ PUSH2 0x110B JUMPI PUSH1 0x0 SWAP3 PUSH2 0x1100 JUMPI JUMPDEST POP POP PUSH1 0x0 NOT PUSH1 0x3 DUP4 SWAP1 SHL SHR NOT AND SWAP1 DUP9 SHL OR SWAP1 SSTORE JUMPDEST DUP4 PUSH1 0x0 MSTORE PUSH1 0x9 DUP4 MSTORE PUSH1 0x40 PUSH1 0x0 KECCAK256 DUP6 PUSH1 0x0 MSTORE DUP4 MSTORE PUSH1 0x40 PUSH1 0x0 KECCAK256 SWAP1 DUP2 SLOAD SWAP4 DUP8 DUP6 ADD DUP1 SWAP6 GT PUSH2 0xD30 JUMPI PUSH2 0x10E8 PUSH1 0x0 SWAP9 DUP10 SWAP9 DUP10 SWAP9 PUSH1 0x0 DUP1 MLOAD PUSH1 0x20 PUSH2 0x534F DUP4 CODECOPY DUP2 MLOAD SWAP2 MSTORE DUP6 PUSH2 0x10FE SWAP15 DUP13 SWAP12 PUSH1 0x2 SWAP11 SSTORE PUSH1 0x40 MLOAD SWAP1 DUP2 MSTORE LOG3 DUP6 ADD SWAP2 DUP4 DUP4 SLOAD AND PUSH18 0x6A6F625F636F6D706C657465645F6175746F PUSH1 0x70 SHL PUSH1 0x40 MLOAD SWAP3 PUSH2 0x10DC DUP5 PUSH2 0x423E JUMP JUMPDEST PUSH1 0x12 DUP5 MSTORE DUP4 ADD MSTORE PUSH2 0x516C JUMP JUMPDEST SLOAD AND SWAP2 ADD SLOAD SWAP1 GAS CALL PUSH2 0x10F8 PUSH2 0x45F0 JUMP JUMPDEST POP PUSH2 0x4983 JUMP JUMPDEST STOP JUMPDEST ADD MLOAD SWAP1 POP DUP11 DUP1 PUSH2 0x104D JUMP JUMPDEST SWAP1 DUP11 SWAP4 POP PUSH1 0x1F NOT DUP4 AND SWAP2 DUP6 PUSH1 0x0 MSTORE DUP9 PUSH1 0x0 KECCAK256 SWAP3 PUSH1 0x0 JUMPDEST DUP11 DUP3 DUP3 LT PUSH2 0x1158 JUMPI POP POP DUP5 GT PUSH2 0x113F JUMPI JUMPDEST POP POP POP DUP2 SHL ADD SWAP1 SSTORE PUSH2 0x1061 JUMP JUMPDEST ADD MLOAD PUSH1 0x0 NOT PUSH1 0xF8 DUP5 PUSH1 0x3 SHL AND SHR NOT AND SWAP1 SSTORE DUP11 DUP1 DUP1 PUSH2 0x1132 JUMP JUMPDEST DUP4 DUP6 ADD MLOAD DUP7 SSTORE DUP15 SWAP8 SWAP1 SWAP6 ADD SWAP5 SWAP4 DUP5 ADD SWAP4 ADD PUSH2 0x1121 JUMP JUMPDEST SWAP1 SWAP2 POP DUP4 PUSH1 0x0 MSTORE DUP7 PUSH1 0x0 KECCAK256 PUSH1 0x1F DUP5 ADD DUP11 SHR DUP2 ADD SWAP2 DUP9 DUP6 LT PUSH2 0x11B5 JUMPI JUMPDEST DUP5 SWAP4 SWAP3 SWAP2 PUSH1 0x1F DUP14 SWAP3 ADD DUP13 SHR ADD SWAP2 JUMPDEST DUP3 DUP2 LT PUSH2 0x11A6 JUMPI POP POP PUSH2 0x1037 JUMP JUMPDEST PUSH1 0x0 DUP2 SSTORE DUP6 SWAP5 POP DUP13 SWAP2 ADD PUSH2 0x1198 JUMP JUMPDEST SWAP1 SWAP2 POP DUP2 SWAP1 PUSH2 0x118A JUMP JUMPDEST PUSH1 0x7 NOT DUP3 ADD SWAP2 PUSH1 0xFF DUP4 GT PUSH2 0xD30 JUMPI PUSH2 0xF49 PUSH1 0x0 DUP1 MLOAD PUSH1 0x20 PUSH2 0x536F DUP4 CODECOPY DUP2 MLOAD SWAP2 MSTORE SWAP4 SWAP3 PUSH2 0xF25 JUMP JUMPDEST CALLVALUE PUSH2 0x24D JUMPI PUSH1 0x20 CALLDATASIZE PUSH1 0x3 NOT ADD SLT PUSH2 0x24D JUMPI PUSH1 0x4 CALLDATALOAD PUSH1 0x0 MSTORE PUSH1 0xB PUSH1 0x20 MSTORE PUSH1 0x40 PUSH1 0x0 KECCAK256 PUSH1 0xFF PUSH1 0xB DUP3 ADD SLOAD AND PUSH1 0x9 DUP2 LT ISZERO PUSH2 0x486 JUMPI PUSH1 0x7 PUSH2 0x1224 SWAP2 EQ PUSH2 0x4EF7 JUMP JUMPDEST PUSH1 0x4 CALLDATALOAD PUSH1 0x0 MSTORE PUSH1 0x5 PUSH1 0x20 MSTORE PUSH1 0x40 PUSH1 0x0 KECCAK256 PUSH1 0xA DUP2 ADD SLOAD PUSH2 0x1244 DUP2 ISZERO ISZERO PUSH2 0x4F32 JUMP JUMPDEST PUSH1 0xB DUP3 ADD DUP1 SLOAD SWAP2 PUSH2 0x1258 PUSH1 0xFF DUP5 AND ISZERO PUSH2 0x4E5A JUMP JUMPDEST TIMESTAMP LT DUP1 ISZERO SWAP1 PUSH2 0x1B40 JUMPI JUMPDEST ISZERO PUSH2 0x1B08 JUMPI PUSH1 0x9 DUP4 ADD SLOAD PUSH1 0xFF DUP1 DUP3 PUSH1 0x8 SHR AND SWAP2 PUSH1 0x10 SHR AND SWAP1 DUP2 DUP2 EQ PUSH1 0x0 EQ PUSH2 0x1AF2 JUMPI POP POP PUSH1 0x3 SWAP2 JUMPDEST PUSH1 0x4 DUP4 LT ISZERO PUSH2 0x486 JUMPI PUSH2 0xFFFF NOT AND PUSH1 0x8 DUP4 SWAP1 SHL PUSH2 0xFF00 AND OR PUSH1 0x1 OR SWAP1 SSTORE PUSH1 0x40 MLOAD PUSH2 0x12B4 DUP2 DUP4 PUSH2 0x433E JUMP JUMPDEST PUSH32 0x2FFCFEE146BC0D5FF304C6B65111A0D485AF9456DC64EEE7D66EBDCC90B223EA PUSH1 0x20 PUSH1 0x4 CALLDATALOAD SWAP3 LOG2 PUSH1 0x0 SWAP2 PUSH1 0x3 DUP3 SUB PUSH2 0x18CF JUMPI JUMPDEST POP PUSH1 0xFF NOT SWAP2 PUSH1 0x8 DUP4 PUSH1 0xB DUP7 ADD SLOAD AND OR PUSH1 0xB DUP6 ADD SSTORE PUSH2 0x486 JUMPI PUSH1 0x2 DUP2 SUB PUSH2 0x158C JUMPI POP DUP2 SLOAD SWAP1 SWAP2 SWAP1 PUSH2 0x1329 SWAP1 PUSH1 0x1 PUSH1 0x1 PUSH1 0xA0 SHL SUB AND PUSH2 0x1323 PUSH2 0x4F89 JUMP JUMPDEST SWAP1 PUSH2 0x51E1 JUMP JUMPDEST PUSH1 0x1 DUP1 PUSH1 0xA0 SHL SUB DUP2 SLOAD AND SWAP2 PUSH1 0x40 MLOAD PUSH2 0x1340 DUP2 PUSH2 0x423E JUMP JUMPDEST PUSH1 0x18 DUP2 MSTORE PUSH24 0x131BDCDD081848191A5CDC1D5D1948185CC818DB1A595B9D PUSH1 0x42 SHL PUSH1 0x20 DUP3 ADD MSTORE DUP4 PUSH1 0x0 MSTORE PUSH1 0x8 PUSH1 0x20 MSTORE PUSH1 0x40 PUSH1 0x0 KECCAK256 PUSH1 0x40 MLOAD SWAP3 PUSH2 0x1380 DUP5 PUSH2 0x41ED JUMP JUMPDEST PUSH1 0x7 DUP5 MSTORE PUSH1 0x20 DUP5 ADD SWAP1 PUSH1 0x4 CALLDATALOAD DUP3 MSTORE PUSH1 0x40 DUP6 ADD SWAP3 TIMESTAMP DUP5 MSTORE PUSH1 0x60 DUP7 ADD SWAP5 DUP6 MSTORE DUP1 SLOAD PUSH1 0x1 PUSH1 0x40 SHL DUP2 LT ISZERO PUSH2 0x3FE JUMPI PUSH2 0x13BA SWAP2 PUSH1 0x1 DUP3 ADD DUP2 SSTORE PUSH2 0x448B JUMP JUMPDEST SWAP6 SWAP1 SWAP6 PUSH2 0xE07 JUMPI MLOAD SWAP1 PUSH1 0xD DUP3 LT ISZERO PUSH2 0x486 JUMPI DUP6 SLOAD AND PUSH1 0xFF SWAP2 SWAP1 SWAP2 AND OR DUP5 SSTORE MLOAD PUSH1 0x1 DUP5 ADD SSTORE MLOAD PUSH1 0x2 DUP4 ADD SSTORE MLOAD DUP1 MLOAD SWAP1 PUSH1 0x1 PUSH1 0x1 PUSH1 0x40 SHL SUB DUP3 GT PUSH2 0x3FE JUMPI PUSH2 0x1403 PUSH1 0x3 DUP5 ADD SLOAD PUSH2 0x41B3 JUMP JUMPDEST PUSH1 0x1F DUP2 GT PUSH2 0x1545 JUMPI JUMPDEST POP PUSH1 0x20 SWAP1 PUSH1 0x1F DUP4 GT PUSH1 0x1 EQ PUSH2 0x14D8 JUMPI PUSH1 0x3 SWAP3 SWAP2 PUSH1 0x0 SWAP2 DUP4 PUSH2 0x14CD JUMPI JUMPDEST POP POP DUP2 PUSH1 0x1 SHL SWAP2 PUSH1 0x0 NOT SWAP1 DUP5 SHL SHR NOT AND OR SWAP2 ADD SSTORE JUMPDEST DUP2 PUSH1 0x0 MSTORE PUSH1 0x9 PUSH1 0x20 MSTORE PUSH1 0x40 PUSH1 0x0 KECCAK256 PUSH1 0x7 PUSH1 0x0 MSTORE PUSH1 0x20 MSTORE PUSH1 0x40 PUSH1 0x0 KECCAK256 DUP1 SLOAD SWAP3 PUSH1 0x1 DUP5 ADD DUP1 SWAP5 GT PUSH2 0xD30 JUMPI PUSH1 0x0 DUP1 SWAP4 PUSH1 0x7 DUP3 SWAP5 SWAP4 PUSH2 0x10FE SWAP8 DUP5 SWAP6 SSTORE PUSH1 0x0 DUP1 MLOAD PUSH1 0x20 PUSH2 0x534F DUP4 CODECOPY DUP2 MLOAD SWAP2 MSTORE PUSH1 0x20 PUSH1 0x40 MLOAD PUSH1 0x4 CALLDATALOAD DUP2 MSTORE LOG3 PUSH1 0x1 DUP2 ADD DUP1 SLOAD PUSH1 0x2 SWAP2 SWAP1 PUSH2 0x14B5 SWAP1 PUSH1 0x1 PUSH1 0x1 PUSH1 0xA0 SHL SUB AND PUSH2 0x14AF PUSH2 0x4FB1 JUMP JUMPDEST SWAP1 PUSH2 0x516C JUMP JUMPDEST SLOAD SWAP2 ADD SLOAD SWAP1 PUSH1 0x1 PUSH1 0x1 PUSH1 0xA0 SHL SUB AND GAS CALL PUSH2 0x10F8 PUSH2 0x45F0 JUMP JUMPDEST ADD MLOAD SWAP1 POP DUP7 DUP1 PUSH2 0x1428 JUMP JUMPDEST SWAP1 PUSH1 0x1F NOT DUP4 AND SWAP2 PUSH1 0x3 DUP6 ADD PUSH1 0x0 MSTORE PUSH1 0x20 PUSH1 0x0 KECCAK256 SWAP3 PUSH1 0x0 JUMPDEST DUP2 DUP2 LT PUSH2 0x152D JUMPI POP SWAP2 PUSH1 0x1 SWAP4 SWAP2 DUP6 PUSH1 0x3 SWAP7 SWAP5 LT PUSH2 0x1515 JUMPI JUMPDEST POP POP POP DUP2 SHL ADD SWAP2 ADD SSTORE PUSH2 0x143D JUMP JUMPDEST ADD MLOAD PUSH1 0x0 NOT DUP4 DUP7 SHL PUSH1 0xF8 AND SHR NOT AND SWAP1 SSTORE DUP7 DUP1 DUP1 PUSH2 0x1507 JUMP JUMPDEST SWAP3 SWAP4 PUSH1 0x20 PUSH1 0x1 DUP2 SWAP3 DUP8 DUP7 ADD MLOAD DUP2 SSTORE ADD SWAP6 ADD SWAP4 ADD PUSH2 0x14EF JUMP JUMPDEST PUSH1 0x3 DUP5 ADD PUSH1 0x0 MSTORE PUSH1 0x20 PUSH1 0x0 KECCAK256 PUSH1 0x1F DUP5 ADD PUSH1 0x5 SHR DUP2 ADD PUSH1 0x20 DUP6 LT PUSH2 0x1585 JUMPI JUMPDEST PUSH1 0x1F DUP4 ADD PUSH1 0x5 SHR DUP3 ADD DUP2 LT PUSH2 0x1579 JUMPI POP POP PUSH2 0x140C JUMP JUMPDEST PUSH1 0x0 DUP2 SSTORE PUSH1 0x1 ADD PUSH2 0x1563 JUMP JUMPDEST POP DUP1 PUSH2 0x1563 JUMP JUMPDEST PUSH1 0x1 DUP2 SUB PUSH2 0x17EC JUMPI POP PUSH1 0x1 DUP3 ADD DUP1 SLOAD PUSH1 0x1 PUSH1 0x1 PUSH1 0xA0 SHL SUB SWAP2 DUP3 SWAP2 PUSH2 0x15B4 SWAP1 DUP4 AND PUSH2 0x1323 PUSH2 0x4F89 JUMP JUMPDEST SLOAD AND SWAP2 PUSH1 0x40 MLOAD SWAP1 PUSH2 0x15C4 DUP3 PUSH2 0x423E JUMP JUMPDEST PUSH1 0xE DUP3 MSTORE PUSH14 0x4C6F737420612064697370757465 PUSH1 0x90 SHL PUSH1 0x20 DUP4 ADD MSTORE DUP4 PUSH1 0x0 MSTORE PUSH1 0x8 PUSH1 0x20 MSTORE PUSH1 0x40 PUSH1 0x0 KECCAK256 PUSH1 0x40 MLOAD SWAP1 PUSH2 0x15FA DUP3 PUSH2 0x41ED JUMP JUMPDEST PUSH1 0x2 DUP3 MSTORE PUSH1 0x20 DUP3 ADD PUSH1 0x4 CALLDATALOAD DUP2 MSTORE PUSH1 0x40 DUP4 ADD SWAP2 TIMESTAMP DUP4 MSTORE PUSH1 0x60 DUP5 ADD SWAP6 DUP7 MSTORE DUP1 SLOAD PUSH1 0x1 PUSH1 0x40 SHL DUP2 LT ISZERO PUSH2 0x3FE JUMPI PUSH2 0x1633 SWAP2 PUSH1 0x1 DUP3 ADD DUP2 SSTORE PUSH2 0x448B JUMP JUMPDEST SWAP4 SWAP1 SWAP4 PUSH2 0xE07 JUMPI MLOAD PUSH1 0xD DUP2 LT ISZERO PUSH2 0x486 JUMPI PUSH1 0xFF PUSH1 0x3 SWAP6 DUP6 SLOAD AND SWAP2 AND OR DUP4 SSTORE MLOAD PUSH1 0x1 DUP4 ADD SSTORE MLOAD PUSH1 0x2 DUP3 ADD SSTORE ADD SWAP1 MLOAD DUP1 MLOAD SWAP1 PUSH1 0x1 DUP1 PUSH1 0x40 SHL SUB DUP3 GT PUSH2 0x3FE JUMPI DUP2 SWAP1 PUSH2 0x167C DUP5 SLOAD PUSH2 0x41B3 JUMP JUMPDEST PUSH1 0x1F DUP2 GT PUSH2 0x1799 JUMPI JUMPDEST POP PUSH1 0x20 SWAP1 PUSH1 0x1F DUP4 GT PUSH1 0x1 EQ PUSH2 0x1733 JUMPI PUSH1 0x0 SWAP3 PUSH2 0x1728 JUMPI JUMPDEST POP POP DUP2 PUSH1 0x1 SHL SWAP2 PUSH1 0x0 NOT SWAP1 PUSH1 0x3 SHL SHR NOT AND OR SWAP1 SSTORE JUMPDEST DUP2 PUSH1 0x0 MSTORE PUSH1 0x9 PUSH1 0x20 MSTORE PUSH1 0x40 PUSH1 0x0 KECCAK256 PUSH1 0x2 PUSH1 0x0 MSTORE PUSH1 0x20 MSTORE PUSH1 0x40 PUSH1 0x0 KECCAK256 DUP1 SLOAD SWAP3 PUSH1 0x1 DUP5 ADD DUP1 SWAP5 GT PUSH2 0xD30 JUMPI PUSH2 0x10FE SWAP5 PUSH1 0x2 PUSH1 0x0 SWAP6 SWAP5 DUP2 DUP8 SWAP7 SWAP5 DUP8 SWAP7 SWAP6 DUP8 SWAP7 SSTORE PUSH1 0x0 DUP1 MLOAD PUSH1 0x20 PUSH2 0x534F DUP4 CODECOPY DUP2 MLOAD SWAP2 MSTORE PUSH1 0x20 PUSH1 0x40 MLOAD PUSH1 0x4 CALLDATALOAD DUP2 MSTORE LOG3 PUSH2 0x1717 DUP2 DUP5 SLOAD AND PUSH2 0x14AF PUSH2 0x4FB1 JUMP JUMPDEST DUP3 SLOAD AND SWAP2 ADD SLOAD SWAP1 GAS CALL PUSH2 0x10F8 PUSH2 0x45F0 JUMP JUMPDEST ADD MLOAD SWAP1 POP DUP7 DUP1 PUSH2 0x169C JUMP JUMPDEST PUSH1 0x0 DUP6 DUP2 MSTORE PUSH1 0x20 DUP2 KECCAK256 SWAP4 POP PUSH1 0x1F NOT DUP6 AND SWAP1 JUMPDEST DUP2 DUP2 LT PUSH2 0x1781 JUMPI POP SWAP1 DUP5 PUSH1 0x1 SWAP6 SWAP5 SWAP4 SWAP3 LT PUSH2 0x1768 JUMPI JUMPDEST POP POP POP DUP2 SHL ADD SWAP1 SSTORE PUSH2 0x16B1 JUMP JUMPDEST ADD MLOAD PUSH1 0x0 NOT PUSH1 0xF8 DUP5 PUSH1 0x3 SHL AND SHR NOT AND SWAP1 SSTORE DUP7 DUP1 DUP1 PUSH2 0x175B JUMP JUMPDEST SWAP3 SWAP4 PUSH1 0x20 PUSH1 0x1 DUP2 SWAP3 DUP8 DUP7 ADD MLOAD DUP2 SSTORE ADD SWAP6 ADD SWAP4 ADD PUSH2 0x1745 JUMP JUMPDEST SWAP1 SWAP2 POP DUP4 PUSH1 0x0 MSTORE PUSH1 0x20 PUSH1 0x0 KECCAK256 PUSH1 0x1F DUP5 ADD PUSH1 0x5 SHR DUP2 ADD SWAP2 PUSH1 0x20 DUP6 LT PUSH2 0x17E2 JUMPI JUMPDEST SWAP1 PUSH1 0x1F DUP6 SWAP5 SWAP4 SWAP3 ADD PUSH1 0x5 SHR ADD SWAP1 JUMPDEST DUP2 DUP2 LT PUSH2 0x17D3 JUMPI POP PUSH2 0x1685 JUMP JUMPDEST PUSH1 0x0 DUP2 SSTORE DUP5 SWAP4 POP PUSH1 0x1 ADD PUSH2 0x17C6 JUMP JUMPDEST SWAP1 SWAP2 POP DUP2 SWAP1 PUSH2 0x17B8 JUMP JUMPDEST PUSH1 0x3 SWAP2 POP EQ PUSH2 0x17F7 JUMPI STOP JUMPDEST PUSH1 0x2 DUP2 ADD SWAP1 DUP2 SLOAD PUSH1 0x1 SHR PUSH1 0x1 DUP1 PUSH1 0xA0 SHL SUB PUSH1 0x0 DUP1 DUP1 DUP1 DUP6 DUP6 DUP9 SLOAD AND GAS CALL PUSH2 0x181C PUSH2 0x45F0 JUMP JUMPDEST POP ISZERO PUSH2 0x188F JUMPI PUSH1 0x0 SWAP4 PUSH2 0x183C DUP6 SWAP5 SWAP4 DUP6 SWAP5 SWAP4 PUSH1 0x1 DUP7 SWAP6 ADD SLOAD AND SWAP3 SLOAD PUSH2 0x4F7C JUMP JUMPDEST SWAP1 GAS CALL PUSH2 0x1847 PUSH2 0x45F0 JUMP JUMPDEST POP ISZERO PUSH2 0x184F JUMPI STOP JUMPDEST PUSH1 0x40 MLOAD PUSH3 0x461BCD PUSH1 0xE5 SHL DUP2 MSTORE PUSH1 0x20 PUSH1 0x4 DUP3 ADD MSTORE PUSH1 0x18 PUSH1 0x24 DUP3 ADD MSTORE PUSH24 0x5472616E73666572206661696C65642028776F726B657229 PUSH1 0x40 SHL PUSH1 0x44 DUP3 ADD MSTORE PUSH1 0x64 SWAP1 REVERT JUMPDEST PUSH1 0x40 MLOAD PUSH3 0x461BCD PUSH1 0xE5 SHL DUP2 MSTORE PUSH1 0x20 PUSH1 0x4 DUP3 ADD MSTORE PUSH1 0x18 PUSH1 0x24 DUP3 ADD MSTORE PUSH24 0x5472616E73666572206661696C65642028636C69656E7429 PUSH1 0x40 SHL PUSH1 0x44 DUP3 ADD MSTORE PUSH1 0x64 SWAP1 REVERT JUMPDEST SWAP1 SWAP3 PUSH1 0x0 SWAP3 POP DUP3 JUMPDEST PUSH1 0xFF PUSH1 0x9 DUP5 ADD SLOAD AND PUSH1 0xFF DUP3 AND LT ISZERO PUSH2 0x1AE8 JUMPI PUSH2 0x18F6 DUP2 PUSH1 0x4 DUP6 ADD PUSH2 0x4EAA JUMP JUMPDEST PUSH1 0x1 DUP1 PUSH1 0xA0 SHL SUB SWAP2 SLOAD SWAP1 PUSH1 0x3 SHL SHR AND SWAP1 PUSH1 0x4 CALLDATALOAD PUSH1 0x0 MSTORE PUSH1 0x6 PUSH1 0x20 MSTORE PUSH1 0x40 PUSH1 0x0 KECCAK256 DUP3 PUSH1 0x0 MSTORE PUSH1 0x20 MSTORE PUSH1 0xFF PUSH1 0x40 PUSH1 0x0 KECCAK256 SLOAD AND ISZERO PUSH2 0x1ADE JUMPI PUSH1 0x4 CALLDATALOAD PUSH1 0x0 MSTORE PUSH1 0x7 PUSH1 0x20 MSTORE PUSH1 0x40 PUSH1 0x0 KECCAK256 DUP3 PUSH1 0x0 MSTORE PUSH1 0x20 MSTORE PUSH1 0x2 DUP7 EQ PUSH1 0xFF PUSH1 0x40 PUSH1 0x0 KECCAK256 SLOAD AND ISZERO ISZERO EQ PUSH1 0x0 EQ PUSH2 0x1A2F JUMPI PUSH1 0x40 MLOAD SWAP2 PUSH2 0x1966 DUP4 PUSH2 0x423E JUMP JUMPDEST PUSH1 0xF DUP4 MSTORE PUSH15 0x766F7465645F636F72726563746C79 PUSH1 0x88 SHL PUSH1 0x20 DUP5 ADD MSTORE DUP1 PUSH1 0x0 MSTORE PUSH1 0x0 PUSH1 0x20 MSTORE PUSH1 0xFF PUSH1 0x40 PUSH1 0x0 KECCAK256 SLOAD AND PUSH2 0xFFFF PUSH1 0x3 DUP3 ADD GT PUSH2 0xD30 JUMPI PUSH1 0x64 DUP1 PUSH2 0xFFFF PUSH1 0x3 DUP5 ADD AND GT PUSH1 0x0 EQ PUSH2 0x1A02 JUMPI SWAP4 PUSH1 0x0 DUP1 MLOAD PUSH1 0x20 PUSH2 0x536F DUP4 CODECOPY DUP2 MLOAD SWAP2 MSTORE SWAP2 PUSH2 0x19F4 PUSH2 0x19FD SWAP7 SWAP3 JUMPDEST DUP6 PUSH1 0x0 MSTORE PUSH1 0x0 PUSH1 0x20 MSTORE PUSH1 0x40 PUSH1 0x0 KECCAK256 PUSH1 0xFF DUP6 AND PUSH1 0xFF NOT DUP3 SLOAD AND OR SWAP1 SSTORE PUSH1 0x40 MLOAD SWAP4 DUP5 SWAP4 DUP5 PUSH2 0x5082 JUMP JUMPDEST SUB SWAP1 LOG2 JUMPDEST PUSH2 0x4E99 JUMP JUMPDEST PUSH2 0x18D7 JUMP JUMPDEST POP PUSH1 0xFF PUSH1 0x3 DUP3 ADD GT PUSH2 0xD30 JUMPI PUSH2 0x19FD SWAP4 DUP2 PUSH2 0x19F4 PUSH1 0x3 PUSH1 0x0 DUP1 MLOAD PUSH1 0x20 PUSH2 0x536F DUP4 CODECOPY DUP2 MLOAD SWAP2 MSTORE SWAP5 ADD SWAP3 PUSH2 0x19CD JUMP JUMPDEST PUSH1 0x40 MLOAD SWAP2 PUSH2 0x1A3C DUP4 PUSH2 0x423E JUMP JUMPDEST PUSH1 0xD DUP4 MSTORE PUSH13 0x766F7465645F77726F6E676C79 PUSH1 0x98 SHL PUSH1 0x20 DUP5 ADD MSTORE DUP1 PUSH1 0x0 MSTORE PUSH1 0x0 PUSH1 0x20 MSTORE PUSH1 0xFF PUSH1 0x40 PUSH1 0x0 KECCAK256 SLOAD AND DUP1 PUSH1 0x3 LT ISZERO PUSH1 0x0 EQ PUSH2 0x1AB0 JUMPI PUSH1 0x0 DUP3 DUP2 MSTORE PUSH1 0x20 DUP2 SWAP1 MSTORE PUSH1 0x40 DUP1 DUP3 KECCAK256 DUP1 SLOAD PUSH1 0xFF NOT AND SWAP1 SSTORE MLOAD PUSH2 0x19FD SWAP6 PUSH1 0x0 DUP1 MLOAD PUSH1 0x20 PUSH2 0x536F DUP4 CODECOPY DUP2 MLOAD SWAP2 MSTORE SWAP4 SWAP2 SWAP3 DUP4 SWAP3 PUSH2 0x19F4 SWAP3 SWAP2 SWAP1 DUP5 PUSH2 0x5082 JUMP JUMPDEST PUSH1 0xFF PUSH1 0x2 NOT DUP3 ADD GT PUSH2 0xD30 JUMPI PUSH2 0x19FD SWAP4 PUSH1 0x0 DUP1 MLOAD PUSH1 0x20 PUSH2 0x536F DUP4 CODECOPY DUP2 MLOAD SWAP2 MSTORE SWAP2 PUSH2 0x19F4 PUSH1 0x2 NOT DUP3 ADD SWAP3 PUSH2 0x19CD JUMP JUMPDEST PUSH2 0x19FD SWAP2 POP PUSH2 0x4E99 JUMP JUMPDEST POP SWAP3 SWAP1 POP DUP4 PUSH2 0x12E8 JUMP JUMPDEST GT ISZERO PUSH2 0x1B00 JUMPI PUSH1 0x2 SWAP2 PUSH2 0x128A JUMP JUMPDEST PUSH1 0x1 SWAP2 PUSH2 0x128A JUMP JUMPDEST PUSH1 0x40 MLOAD PUSH3 0x461BCD PUSH1 0xE5 SHL DUP2 MSTORE PUSH1 0x20 PUSH1 0x4 DUP3 ADD MSTORE PUSH1 0x10 PUSH1 0x24 DUP3 ADD MSTORE PUSH16 0x159BDD1A5B99C81B9BDD08195B991959 PUSH1 0x82 SHL PUSH1 0x44 DUP3 ADD MSTORE PUSH1 0x64 SWAP1 REVERT JUMPDEST POP PUSH1 0x9 DUP4 ADD SLOAD PUSH1 0xFF DUP2 PUSH1 0x10 SHR AND PUSH1 0xFF DUP3 PUSH1 0x8 SHR AND ADD SWAP1 PUSH1 0xFF DUP3 GT PUSH2 0xD30 JUMPI PUSH1 0xFF DUP1 SWAP2 AND SWAP2 AND EQ PUSH2 0x1262 JUMP JUMPDEST CALLVALUE PUSH2 0x24D JUMPI PUSH1 0x20 CALLDATASIZE PUSH1 0x3 NOT ADD SLT PUSH2 0x24D JUMPI PUSH1 0x4 CALLDATALOAD PUSH1 0x0 MSTORE PUSH1 0x5 PUSH1 0x20 MSTORE PUSH1 0x40 PUSH1 0x9 DUP2 PUSH1 0x0 KECCAK256 ADD SLOAD PUSH1 0xFF DUP3 MLOAD SWAP2 DUP2 DUP2 PUSH1 0x8 SHR AND DUP4 MSTORE PUSH1 0x10 SHR AND PUSH1 0x20 DUP3 ADD MSTORE RETURN JUMPDEST CALLVALUE PUSH2 0x24D JUMPI PUSH1 0x20 CALLDATASIZE PUSH1 0x3 NOT ADD SLT PUSH2 0x24D JUMPI PUSH1 0x4 CALLDATALOAD PUSH1 0x0 MSTORE PUSH1 0xB PUSH1 0x20 MSTORE PUSH1 0x40 PUSH1 0x0 KECCAK256 PUSH1 0xFF PUSH1 0xB DUP3 ADD SLOAD AND PUSH1 0x9 DUP2 LT ISZERO PUSH2 0x486 JUMPI PUSH1 0x7 PUSH2 0x1BE7 SWAP2 EQ PUSH2 0x4EF7 JUMP JUMPDEST DUP1 SLOAD PUSH1 0x1 SWAP1 SWAP2 ADD SLOAD PUSH1 0x4 CALLDATALOAD PUSH1 0x0 SWAP1 DUP2 MSTORE PUSH1 0x5 PUSH1 0x20 MSTORE PUSH1 0x40 SWAP1 KECCAK256 PUSH1 0xA DUP2 ADD SLOAD SWAP1 SWAP3 PUSH1 0x1 PUSH1 0x1 PUSH1 0xA0 SHL SUB SWAP1 DUP2 AND SWAP3 AND SWAP1 PUSH2 0x1C20 DUP2 ISZERO ISZERO PUSH2 0x4F32 JUMP JUMPDEST PUSH2 0x1C31 PUSH1 0xFF PUSH1 0xB DUP7 ADD SLOAD AND ISZERO PUSH2 0x4E5A JUMP JUMPDEST TIMESTAMP LT PUSH2 0x2174 JUMPI PUSH1 0x0 SWAP1 PUSH1 0x0 SWAP1 PUSH1 0xFF PUSH1 0x9 DUP7 ADD SLOAD AND SWAP2 JUMPDEST DUP3 PUSH1 0xFF DUP3 AND LT PUSH2 0x2110 JUMPI POP PUSH1 0xFF DUP4 AND ISZERO PUSH2 0x20CB JUMPI PUSH2 0x1C6F PUSH1 0xFF PUSH2 0x1C69 DUP5 PUSH2 0x4F6B JUMP JUMPDEST AND PUSH2 0x444A JUMP JUMPDEST SWAP4 DUP5 MLOAD ISZERO PUSH2 0x20B5 JUMPI PUSH1 0x20 DUP6 ADD MSTORE DUP4 MLOAD PUSH1 0x1 LT ISZERO PUSH2 0x20B5 JUMPI PUSH1 0x40 DUP5 ADD MSTORE PUSH1 0x0 JUMPDEST DUP2 PUSH1 0xFF DUP3 AND LT PUSH2 0x2078 JUMPI POP POP SWAP1 PUSH1 0x40 MLOAD PUSH1 0x20 DUP2 ADD SWAP1 TIMESTAMP DUP3 MSTORE PUSH1 0x4 CALLDATALOAD PUSH1 0x40 DUP3 ADD MSTORE PUSH1 0xFF PUSH1 0xF8 SHL DUP5 PUSH1 0xF8 SHL AND PUSH1 0x60 DUP3 ADD MSTORE PUSH1 0x41 DUP2 MSTORE PUSH2 0x1CCA DUP2 PUSH2 0x41ED JUMP JUMPDEST MLOAD SWAP1 KECCAK256 SWAP2 PUSH1 0x2 SLOAD SWAP1 PUSH2 0x1CDB DUP3 PUSH2 0x444A JUMP JUMPDEST SWAP2 PUSH1 0x0 SWAP4 PUSH1 0x0 SWAP2 JUMPDEST DUP1 DUP4 LT PUSH2 0x1FBC JUMPI POP POP POP PUSH1 0xFF DUP2 AND DUP4 LT ISZERO PUSH2 0x1FB6 JUMPI POP PUSH1 0xFF DUP3 AND SWAP2 JUMPDEST PUSH2 0x1D0B PUSH1 0xFF DUP5 AND PUSH2 0x444A JUMP JUMPDEST SWAP4 PUSH2 0x1D15 DUP3 PUSH2 0x444A JUMP JUMPDEST SWAP3 PUSH1 0x0 JUMPDEST DUP4 DUP2 LT PUSH2 0x1F8F JUMPI POP POP PUSH1 0x0 JUMPDEST PUSH1 0xFF DUP6 AND DUP2 LT PUSH2 0x1EE3 JUMPI DUP7 PUSH1 0x0 DUP8 DUP2 JUMPDEST PUSH1 0xFF PUSH1 0x9 DUP6 ADD SLOAD AND PUSH1 0xFF DUP3 AND LT ISZERO PUSH2 0x1E00 JUMPI PUSH1 0x4 CALLDATALOAD PUSH1 0x0 MSTORE PUSH1 0x6 PUSH1 0x20 MSTORE PUSH1 0x40 PUSH1 0x0 KECCAK256 PUSH2 0x1D64 DUP3 PUSH1 0x4 DUP8 ADD PUSH2 0x4EAA JUMP JUMPDEST PUSH1 0x1 DUP1 PUSH1 0xA0 SHL SUB SWAP2 SLOAD SWAP1 PUSH1 0x3 SHL SHR AND PUSH1 0x0 MSTORE PUSH1 0x20 MSTORE PUSH1 0xFF PUSH1 0x40 PUSH1 0x0 KECCAK256 SLOAD AND ISZERO DUP1 PUSH2 0x1DF3 JUMPI JUMPDEST PUSH2 0x1D9C JUMPI JUMPDEST PUSH2 0x1D97 SWAP1 PUSH2 0x4E99 JUMP JUMPDEST PUSH2 0x1D35 JUMP JUMPDEST SWAP2 PUSH2 0x1D97 SWAP1 PUSH2 0x1DEB SWAP1 PUSH2 0x19F8 PUSH1 0x1 PUSH1 0x1 PUSH1 0xA0 SHL SUB PUSH2 0x1DBD PUSH1 0xFF DUP5 AND DUP8 PUSH2 0x44A7 JUMP JUMPDEST MLOAD AND PUSH2 0x1DCC DUP8 PUSH1 0x4 DUP11 ADD PUSH2 0x4EAA JUMP JUMPDEST SWAP1 SWAP2 SWAP1 DUP3 SLOAD SWAP1 PUSH1 0x3 SHL SWAP2 PUSH1 0x1 DUP1 PUSH1 0xA0 SHL SUB DUP1 SWAP2 AND DUP4 SHL SWAP3 SHL NOT AND OR SWAP1 SSTORE JUMP JUMPDEST SWAP3 SWAP1 POP PUSH2 0x1D8E JUMP JUMPDEST POP DUP2 MLOAD PUSH1 0xFF DUP5 AND LT PUSH2 0x1D89 JUMP JUMPDEST DUP4 DUP3 PUSH2 0x12C TIMESTAMP ADD SWAP1 DUP2 TIMESTAMP GT PUSH2 0xD30 JUMPI PUSH32 0x3A17C250C2EDD7885BC2D2C7E6A85EF460B5A11CDFCDEF622788B6584AD9D633 SWAP1 DUP3 PUSH1 0xA DUP6 ADD SSTORE PUSH2 0x1E4C PUSH1 0x40 MLOAD SWAP2 PUSH1 0x40 DUP4 MSTORE PUSH1 0x40 DUP4 ADD SWAP1 PUSH2 0x4EBA JUMP JUMPDEST SWAP3 PUSH1 0x20 DUP3 ADD MSTORE DUP1 PUSH1 0x4 CALLDATALOAD SWAP4 SUB SWAP1 LOG2 PUSH1 0xFF PUSH1 0x9 DUP3 ADD SLOAD AND SWAP1 PUSH2 0x1E6C DUP3 PUSH2 0x444A JUMP JUMPDEST SWAP2 PUSH1 0x0 JUMPDEST PUSH1 0xFF DUP2 AND SWAP1 DUP3 DUP3 LT ISZERO PUSH2 0x1EB5 JUMPI PUSH2 0x1EB0 SWAP2 PUSH2 0x1EAA PUSH2 0x1E91 DUP4 PUSH1 0x4 DUP9 ADD PUSH2 0x4EAA JUMP JUMPDEST SWAP1 SLOAD PUSH1 0x3 SWAP2 SWAP1 SWAP2 SHL SHR PUSH1 0x1 PUSH1 0x1 PUSH1 0xA0 SHL SUB AND SWAP2 DUP8 PUSH2 0x44A7 JUMP JUMPDEST MSTORE PUSH2 0x4E99 JUMP JUMPDEST PUSH2 0x1E70 JUMP JUMPDEST DUP5 PUSH1 0x0 DUP1 MLOAD PUSH1 0x20 PUSH2 0x532F DUP4 CODECOPY DUP2 MLOAD SWAP2 MSTORE PUSH1 0x40 MLOAD PUSH1 0x20 DUP2 MSTORE DUP1 PUSH2 0x1EDE PUSH1 0x4 CALLDATALOAD SWAP5 PUSH1 0x20 DUP4 ADD SWAP1 PUSH2 0x4EBA JUMP JUMPDEST SUB SWAP1 LOG2 STOP JUMPDEST PUSH2 0x1F88 PUSH1 0xFF SWAP2 PUSH2 0x1F26 PUSH2 0x1F20 PUSH1 0x40 MLOAD PUSH1 0x20 DUP2 ADD SWAP1 DUP8 DUP3 MSTORE DUP5 PUSH1 0x40 DUP3 ADD MSTORE PUSH1 0x40 DUP2 MSTORE PUSH2 0x1F0D DUP2 PUSH2 0x4223 JUMP JUMPDEST MLOAD SWAP1 KECCAK256 PUSH2 0x1F1A DUP5 DUP10 PUSH2 0x4F7C JUMP JUMPDEST SWAP1 PUSH2 0x530E JUMP JUMPDEST DUP3 PUSH2 0x452D JUMP JUMPDEST PUSH2 0x1F63 PUSH1 0x1 PUSH1 0x1 PUSH1 0xA0 SHL SUB PUSH2 0x1F3B DUP5 DUP11 PUSH2 0x44A7 JUMP JUMPDEST MLOAD AND SWAP2 PUSH1 0x1 PUSH1 0x1 PUSH1 0xA0 SHL SUB PUSH2 0x1F50 DUP3 DUP12 PUSH2 0x44A7 JUMP JUMPDEST MLOAD AND PUSH2 0x1F5C DUP6 DUP12 PUSH2 0x44A7 JUMP JUMPDEST MSTORE DUP9 PUSH2 0x44A7 JUMP JUMPDEST MSTORE PUSH1 0x1 PUSH1 0x1 PUSH1 0xA0 SHL SUB PUSH2 0x1F76 DUP3 DUP9 PUSH2 0x44A7 JUMP JUMPDEST MLOAD AND PUSH2 0x1F82 DUP3 DUP11 PUSH2 0x44A7 JUMP JUMPDEST MSTORE PUSH2 0x447C JUMP JUMPDEST SWAP1 POP PUSH2 0x1D25 JUMP JUMPDEST PUSH2 0x1FB1 SWAP1 PUSH1 0x1 PUSH1 0x1 PUSH1 0xA0 SHL SUB PUSH2 0x1FA5 DUP3 DUP6 PUSH2 0x44A7 JUMP JUMPDEST MLOAD AND PUSH2 0x1F82 DUP3 DUP9 PUSH2 0x44A7 JUMP JUMPDEST PUSH2 0x1D19 JUMP JUMPDEST SWAP2 PUSH2 0x1CFF JUMP JUMPDEST SWAP1 SWAP2 SWAP6 SWAP3 SWAP7 PUSH2 0x1FCD DUP8 SWAP7 SWAP6 SWAP7 PUSH2 0x528E JUMP JUMPDEST SWAP1 SLOAD PUSH1 0x0 SWAP10 PUSH1 0x3 SWAP3 SWAP1 SWAP3 SHL SHR PUSH1 0x1 PUSH1 0x1 PUSH1 0xA0 SHL SUB AND SWAP5 SWAP1 DUP10 JUMPDEST DUP6 MLOAD DUP2 LT ISZERO PUSH2 0x206A JUMPI PUSH1 0x1 PUSH1 0x1 PUSH1 0xA0 SHL SUB PUSH2 0x2001 DUP3 DUP9 PUSH2 0x44A7 JUMP JUMPDEST MLOAD AND DUP8 EQ PUSH2 0x2017 JUMPI PUSH2 0x2012 SWAP1 PUSH2 0x447C JUMP JUMPDEST PUSH2 0x1FE6 JUMP JUMPDEST POP SWAP5 SWAP1 SWAP8 SWAP2 SWAP9 POP PUSH1 0x1 SWAP7 SWAP6 SWAP7 JUMPDEST ISZERO DUP1 PUSH2 0x205B JUMPI JUMPDEST PUSH2 0x2041 JUMPI JUMPDEST POP PUSH2 0x203A SWAP1 PUSH2 0x447C JUMP JUMPDEST SWAP2 SWAP1 PUSH2 0x1CE3 JUMP JUMPDEST DUP7 PUSH2 0x2054 SWAP2 PUSH2 0x1F82 PUSH2 0x203A SWAP5 SWAP10 DUP10 PUSH2 0x44A7 JUMP JUMPDEST SWAP6 SWAP1 PUSH2 0x2030 JUMP JUMPDEST POP PUSH2 0x2065 DUP2 PUSH2 0x526E JUMP JUMPDEST PUSH2 0x202B JUMP JUMPDEST POP SWAP5 SWAP1 SWAP8 SWAP2 SWAP9 SWAP7 SWAP6 SWAP7 PUSH2 0x2024 JUMP JUMPDEST DUP1 PUSH2 0x2089 PUSH2 0x20B0 SWAP3 PUSH1 0x4 DUP9 ADD PUSH2 0x4EAA JUMP JUMPDEST SWAP1 SLOAD PUSH1 0x3 SWAP2 SWAP1 SWAP2 SHL SHR PUSH1 0x1 PUSH1 0x1 PUSH1 0xA0 SHL SUB AND PUSH2 0x1EAA PUSH1 0xFF PUSH2 0x20A9 DUP5 PUSH2 0x4F6B JUMP JUMPDEST AND DUP8 PUSH2 0x44A7 JUMP JUMPDEST PUSH2 0x1C8E JUMP JUMPDEST PUSH4 0x4E487B71 PUSH1 0xE0 SHL PUSH1 0x0 MSTORE PUSH1 0x32 PUSH1 0x4 MSTORE PUSH1 0x24 PUSH1 0x0 REVERT JUMPDEST PUSH1 0x40 MLOAD PUSH3 0x461BCD PUSH1 0xE5 SHL DUP2 MSTORE PUSH1 0x20 PUSH1 0x4 DUP3 ADD MSTORE PUSH1 0x1E PUSH1 0x24 DUP3 ADD MSTORE PUSH32 0x416C6C2073656C656374656420766F74657273206861766520766F7465640000 PUSH1 0x44 DUP3 ADD MSTORE PUSH1 0x64 SWAP1 REVERT JUMPDEST PUSH1 0x4 CALLDATALOAD PUSH1 0x0 MSTORE PUSH1 0x6 PUSH1 0x20 MSTORE PUSH1 0x40 PUSH1 0x0 KECCAK256 PUSH2 0x212D DUP3 PUSH1 0x4 DUP10 ADD PUSH2 0x4EAA JUMP JUMPDEST PUSH1 0x1 DUP1 PUSH1 0xA0 SHL SUB SWAP2 SLOAD SWAP1 PUSH1 0x3 SHL SHR AND PUSH1 0x0 MSTORE PUSH1 0x20 MSTORE PUSH1 0xFF PUSH1 0x40 PUSH1 0x0 KECCAK256 SLOAD AND ISZERO PUSH2 0x215F JUMPI JUMPDEST PUSH2 0x215A SWAP1 PUSH2 0x4E99 JUMP JUMPDEST PUSH2 0x1C47 JUMP JUMPDEST SWAP3 PUSH2 0x216C PUSH2 0x215A SWAP2 PUSH2 0x4E99 JUMP JUMPDEST SWAP4 SWAP1 POP PUSH2 0x2151 JUMP JUMPDEST PUSH1 0x40 MLOAD PUSH3 0x461BCD PUSH1 0xE5 SHL DUP2 MSTORE PUSH1 0x20 PUSH1 0x4 DUP3 ADD MSTORE PUSH1 0x13 PUSH1 0x24 DUP3 ADD MSTORE PUSH19 0x111958591B1A5B99481B9BDD081C185CDCD959 PUSH1 0x6A SHL PUSH1 0x44 DUP3 ADD MSTORE PUSH1 0x64 SWAP1 REVERT JUMPDEST PUSH2 0x4322 JUMP JUMPDEST CALLVALUE PUSH2 0x24D JUMPI PUSH1 0x20 CALLDATASIZE PUSH1 0x3 NOT ADD SLT PUSH2 0x24D JUMPI PUSH1 0x1 PUSH1 0x1 PUSH1 0xA0 SHL SUB PUSH2 0x21D5 PUSH2 0x4113 JUMP JUMPDEST AND PUSH1 0x0 MSTORE PUSH1 0x4 PUSH1 0x20 MSTORE PUSH2 0x21F6 PUSH1 0xFF PUSH1 0x40 PUSH1 0x0 KECCAK256 SLOAD AND PUSH1 0x40 MLOAD SWAP2 DUP3 SWAP2 DUP3 PUSH2 0x43DF JUMP JUMPDEST SUB SWAP1 RETURN JUMPDEST PUSH1 0x20 DUP1 PUSH1 0x3 NOT CALLDATASIZE ADD SLT PUSH2 0x24D JUMPI PUSH1 0x4 CALLDATALOAD PUSH1 0x0 MSTORE PUSH1 0xB DUP2 MSTORE PUSH1 0x40 PUSH1 0x0 KECCAK256 CALLER PUSH1 0x0 MSTORE PUSH1 0x4 DUP3 MSTORE PUSH1 0xFF PUSH1 0x40 PUSH1 0x0 KECCAK256 SLOAD AND PUSH1 0x3 DUP2 LT ISZERO PUSH2 0x486 JUMPI PUSH1 0x1 PUSH2 0x223C SWAP2 EQ PUSH2 0x44BB JUMP JUMPDEST DUP1 SLOAD PUSH1 0x1 PUSH1 0x1 PUSH1 0xA0 SHL SUB AND CALLER SUB PUSH2 0x22EA JUMPI PUSH1 0xB DUP2 ADD SWAP1 DUP2 SLOAD SWAP1 PUSH1 0xFF DUP3 AND PUSH1 0x9 DUP2 LT ISZERO PUSH2 0x486 JUMPI PUSH2 0x22B7 JUMPI PUSH1 0x2 DUP2 ADD SLOAD CALLVALUE SUB PUSH2 0x2283 JUMPI TIMESTAMP PUSH1 0x8 SWAP1 SWAP2 ADD SSTORE PUSH1 0xFF NOT AND PUSH1 0x1 OR SWAP1 SSTORE STOP JUMPDEST PUSH1 0x40 MLOAD PUSH3 0x461BCD PUSH1 0xE5 SHL DUP2 MSTORE PUSH1 0x4 DUP2 ADD DUP6 SWAP1 MSTORE PUSH1 0xC PUSH1 0x24 DUP3 ADD MSTORE PUSH12 0x15DC9BDB99C8185B5BDD5B9D PUSH1 0xA2 SHL PUSH1 0x44 DUP3 ADD MSTORE PUSH1 0x64 SWAP1 REVERT JUMPDEST PUSH1 0x40 MLOAD PUSH3 0x461BCD PUSH1 0xE5 SHL DUP2 MSTORE PUSH1 0x4 DUP2 ADD DUP6 SWAP1 MSTORE PUSH1 0xB PUSH1 0x24 DUP3 ADD MSTORE PUSH11 0x139BDD0810DC99585D1959 PUSH1 0xAA SHL PUSH1 0x44 DUP3 ADD MSTORE PUSH1 0x64 SWAP1 REVERT JUMPDEST PUSH1 0x40 MLOAD PUSH3 0x461BCD PUSH1 0xE5 SHL DUP2 MSTORE PUSH1 0x4 DUP2 ADD DUP4 SWAP1 MSTORE PUSH1 0x9 PUSH1 0x24 DUP3 ADD MSTORE PUSH9 0x2737BA1037BBB732B9 PUSH1 0xB9 SHL PUSH1 0x44 DUP3 ADD MSTORE PUSH1 0x64 SWAP1 REVERT JUMPDEST CALLVALUE PUSH2 0x24D JUMPI PUSH1 0x40 CALLDATASIZE PUSH1 0x3 NOT ADD SLT PUSH2 0x24D JUMPI PUSH2 0x2334 PUSH2 0x4113 JUMP JUMPDEST PUSH1 0x24 CALLDATALOAD SWAP1 PUSH1 0xD DUP3 LT ISZERO PUSH2 0x24D JUMPI PUSH1 0x1 DUP1 PUSH1 0xA0 SHL SUB AND PUSH1 0x0 MSTORE PUSH1 0x9 PUSH1 0x20 MSTORE PUSH1 0x40 PUSH1 0x0 KECCAK256 SWAP1 PUSH1 0x0 MSTORE PUSH1 0x20 MSTORE PUSH1 0x20 PUSH1 0x40 PUSH1 0x0 KECCAK256 SLOAD PUSH1 0x40 MLOAD SWAP1 DUP2 MSTORE RETURN JUMPDEST CALLVALUE PUSH2 0x24D JUMPI PUSH1 0x20 CALLDATASIZE PUSH1 0x3 NOT ADD SLT PUSH2 0x24D JUMPI PUSH1 0x20 PUSH2 0x2390 PUSH2 0x238B PUSH2 0x4113 JUMP JUMPDEST PUSH2 0x4DCE JUMP JUMPDEST PUSH1 0x40 MLOAD SWAP1 DUP2 MSTORE RETURN JUMPDEST CALLVALUE PUSH2 0x24D JUMPI PUSH1 0x60 CALLDATASIZE PUSH1 0x3 NOT ADD SLT PUSH2 0x24D JUMPI PUSH1 0x24 CALLDATALOAD PUSH1 0xFF DUP2 AND DUP2 SUB PUSH2 0x24D JUMPI PUSH1 0x44 CALLDATALOAD PUSH1 0x1 PUSH1 0x1 PUSH1 0x40 SHL SUB DUP2 GT PUSH2 0x24D JUMPI PUSH2 0x23D5 SWAP1 CALLDATASIZE SWAP1 PUSH1 0x4 ADD PUSH2 0x4366 JUMP JUMPDEST SWAP1 PUSH1 0x4 CALLDATALOAD PUSH1 0x0 MSTORE PUSH1 0xB PUSH1 0x20 MSTORE PUSH1 0x40 PUSH1 0x0 KECCAK256 SWAP2 PUSH1 0x1 DUP1 PUSH1 0xA0 SHL SUB DUP4 SLOAD AND PUSH2 0x23FC DUP2 CALLER EQ PUSH2 0x44BB JUMP JUMPDEST PUSH1 0xB DUP5 ADD DUP1 SLOAD PUSH1 0xFF DUP2 AND PUSH1 0x9 DUP2 LT ISZERO PUSH2 0x486 JUMPI PUSH1 0x4 PUSH2 0x241B SWAP2 EQ PUSH2 0x491E JUMP JUMPDEST PUSH1 0x1 PUSH1 0xFF DUP7 AND LT ISZERO DUP1 PUSH2 0x2C76 JUMPI JUMPDEST ISZERO PUSH2 0x2C40 JUMPI PUSH1 0xFF NOT AND PUSH1 0x5 OR SWAP1 SSTORE PUSH1 0x40 MLOAD PUSH2 0x2443 DUP2 PUSH2 0x4223 JUMP JUMPDEST PUSH1 0x22 DUP2 MSTORE PUSH32 0x52656C6961626C6520636C69656E74207769746820636C65616E20686973746F PUSH1 0x20 DUP3 ADD MSTORE PUSH2 0x7279 PUSH1 0xF0 SHL PUSH1 0x40 DUP3 ADD MSTORE DUP2 PUSH1 0x0 MSTORE PUSH1 0x8 PUSH1 0x20 MSTORE PUSH1 0x40 PUSH1 0x0 KECCAK256 PUSH1 0x40 MLOAD SWAP2 PUSH2 0x2493 DUP4 PUSH2 0x41ED JUMP JUMPDEST PUSH1 0xB DUP4 MSTORE PUSH1 0x4 CALLDATALOAD PUSH1 0x20 DUP5 ADD MSTORE TIMESTAMP PUSH1 0x40 DUP5 ADD MSTORE PUSH1 0x60 DUP4 ADD MSTORE DUP1 SLOAD PUSH1 0x1 PUSH1 0x40 SHL DUP2 LT ISZERO PUSH2 0x3FE JUMPI PUSH2 0x24C7 SWAP2 PUSH1 0x1 DUP3 ADD DUP2 SSTORE PUSH2 0x448B JUMP JUMPDEST SWAP2 SWAP1 SWAP2 PUSH2 0xE07 JUMPI DUP1 MLOAD SWAP1 PUSH1 0xD DUP3 LT ISZERO PUSH2 0x486 JUMPI PUSH1 0x60 SWAP2 PUSH1 0xFF DUP1 NOT DUP6 SLOAD AND SWAP2 AND OR DUP4 SSTORE PUSH1 0x20 DUP2 ADD MLOAD PUSH1 0x1 DUP5 ADD SSTORE PUSH1 0x40 DUP2 ADD MLOAD PUSH1 0x2 DUP5 ADD SSTORE ADD MLOAD DUP1 MLOAD SWAP1 PUSH1 0x1 DUP1 PUSH1 0x40 SHL SUB DUP3 GT PUSH2 0x3FE JUMPI PUSH2 0x251C PUSH1 0x3 DUP5 ADD SLOAD PUSH2 0x41B3 JUMP JUMPDEST PUSH1 0x1F DUP2 GT PUSH2 0x2BF9 JUMPI JUMPDEST POP PUSH1 0x20 SWAP1 PUSH1 0x1F DUP4 GT PUSH1 0x1 EQ PUSH2 0x2B8A JUMPI PUSH1 0x3 SWAP3 SWAP2 PUSH1 0x0 SWAP2 DUP4 PUSH2 0x2B7F JUMPI JUMPDEST POP POP DUP2 PUSH1 0x1 SHL SWAP2 PUSH1 0x0 NOT SWAP1 DUP5 SHL SHR NOT AND OR SWAP2 ADD SSTORE JUMPDEST DUP1 PUSH1 0x0 MSTORE PUSH1 0x9 PUSH1 0x20 MSTORE PUSH1 0x40 PUSH1 0x0 KECCAK256 PUSH1 0xB PUSH1 0x0 MSTORE PUSH1 0x20 MSTORE PUSH1 0x40 PUSH1 0x0 KECCAK256 SWAP1 DUP2 SLOAD SWAP2 PUSH1 0x1 DUP4 ADD DUP4 GT PUSH2 0xD30 JUMPI PUSH1 0x1 PUSH1 0xB SWAP4 ADD SWAP1 SSTORE PUSH1 0x0 DUP1 MLOAD PUSH1 0x20 PUSH2 0x534F DUP4 CODECOPY DUP2 MLOAD SWAP2 MSTORE PUSH1 0x20 PUSH1 0x40 MLOAD PUSH1 0x4 CALLDATALOAD DUP2 MSTORE LOG3 PUSH2 0x25D6 PUSH1 0x40 MLOAD PUSH2 0x25B0 DUP2 PUSH2 0x423E JUMP JUMPDEST PUSH1 0x13 DUP2 MSTORE PUSH19 0x31B634B2B73A2FB0B8383937BB32B22FB537B1 PUSH1 0x69 SHL PUSH1 0x20 DUP3 ADD MSTORE CALLER PUSH2 0x50A3 JUMP JUMPDEST PUSH1 0x4 PUSH1 0xFF DUP4 AND LT PUSH2 0x285A JUMPI PUSH1 0x1 DUP4 ADD DUP1 SLOAD PUSH2 0x2635 SWAP2 SWAP1 PUSH2 0x2601 SWAP1 PUSH1 0x1 PUSH1 0x1 PUSH1 0xA0 SHL SUB AND PUSH2 0x14AF PUSH2 0x495A JUMP JUMPDEST SLOAD PUSH1 0x40 MLOAD SWAP1 PUSH1 0x1 PUSH1 0x1 PUSH1 0xA0 SHL SUB AND PUSH2 0x2618 DUP3 PUSH2 0x423E JUMP JUMPDEST PUSH1 0xB DUP3 MSTORE PUSH11 0x676F6F645F726174696E67 PUSH1 0xA8 SHL PUSH1 0x20 DUP4 ADD MSTORE PUSH2 0x50A3 JUMP JUMPDEST PUSH1 0x1 DUP4 ADD SLOAD PUSH1 0x40 MLOAD SWAP2 SWAP1 PUSH1 0x1 PUSH1 0x1 PUSH1 0xA0 SHL SUB AND PUSH2 0x2651 DUP4 PUSH2 0x41ED JUMP JUMPDEST CALLER DUP4 MSTORE PUSH1 0x20 DUP1 DUP5 ADD SWAP2 DUP3 MSTORE PUSH1 0xFF DUP6 AND PUSH1 0x40 DUP1 DUP7 ADD SWAP2 DUP3 MSTORE PUSH1 0x60 DUP7 ADD SWAP5 DUP6 MSTORE PUSH1 0x4 CALLDATALOAD PUSH1 0x0 SWAP1 DUP2 MSTORE PUSH1 0xC SWAP1 SWAP4 MSTORE SWAP1 SWAP2 KECCAK256 SWAP4 MLOAD DUP5 SLOAD PUSH1 0x1 PUSH1 0x1 PUSH1 0xA0 SHL SUB NOT AND PUSH1 0x1 PUSH1 0x1 PUSH1 0xA0 SHL SUB SWAP2 DUP3 AND OR DUP6 SSTORE SWAP2 MLOAD PUSH1 0x1 DUP6 ADD DUP1 SLOAD SWAP3 MLOAD PUSH1 0x1 PUSH1 0x1 PUSH1 0xA8 SHL SUB NOT SWAP1 SWAP4 AND SWAP2 SWAP1 SWAP4 AND OR PUSH1 0xA0 SWAP2 SWAP1 SWAP2 SHL PUSH1 0xFF PUSH1 0xA0 SHL AND OR SWAP1 SSTORE MLOAD DUP1 MLOAD SWAP1 PUSH1 0x1 PUSH1 0x1 PUSH1 0x40 SHL SUB DUP3 GT PUSH2 0x3FE JUMPI PUSH2 0x26E4 PUSH1 0x2 DUP5 ADD SLOAD PUSH2 0x41B3 JUMP JUMPDEST PUSH1 0x1F DUP2 GT PUSH2 0x2813 JUMPI JUMPDEST POP PUSH1 0x20 SWAP1 PUSH1 0x1F DUP4 GT PUSH1 0x1 EQ PUSH2 0x27A5 JUMPI PUSH1 0x2 SWAP3 SWAP2 PUSH1 0x0 SWAP2 DUP4 PUSH2 0x279A JUMPI JUMPDEST POP POP DUP2 PUSH1 0x1 SHL SWAP2 PUSH1 0x0 NOT SWAP1 PUSH1 0x3 SHL SHR NOT AND OR SWAP2 ADD SSTORE JUMPDEST PUSH1 0x1 DUP1 PUSH1 0xA0 SHL SUB PUSH1 0x1 DUP4 ADD SLOAD AND PUSH1 0x0 MSTORE PUSH1 0xD PUSH1 0x20 MSTORE PUSH2 0x2747 PUSH1 0xFF PUSH1 0x40 PUSH1 0x0 KECCAK256 SWAP3 AND DUP3 SLOAD PUSH2 0x452D JUMP JUMPDEST SWAP1 SSTORE PUSH1 0x1 DUP1 PUSH1 0xA0 SHL SUB PUSH1 0x1 DUP3 ADD SLOAD AND PUSH1 0x0 MSTORE PUSH1 0xE PUSH1 0x20 MSTORE PUSH1 0x40 PUSH1 0x0 KECCAK256 DUP1 SLOAD SWAP2 PUSH1 0x1 DUP4 ADD DUP1 SWAP4 GT PUSH2 0xD30 JUMPI PUSH1 0x0 DUP1 DUP1 DUP1 SWAP4 DUP7 PUSH2 0x10FE SWAP7 SSTORE PUSH1 0x2 PUSH1 0x1 DUP1 PUSH1 0xA0 SHL SUB PUSH1 0x1 DUP4 ADD SLOAD AND SWAP2 ADD SLOAD SWAP1 GAS CALL PUSH2 0x10F8 PUSH2 0x45F0 JUMP JUMPDEST ADD MLOAD SWAP1 POP DUP7 DUP1 PUSH2 0x2709 JUMP JUMPDEST SWAP1 PUSH1 0x1F NOT DUP4 AND SWAP2 PUSH1 0x2 DUP6 ADD PUSH1 0x0 MSTORE PUSH1 0x20 PUSH1 0x0 KECCAK256 SWAP3 PUSH1 0x0 JUMPDEST DUP2 DUP2 LT PUSH2 0x27FB JUMPI POP SWAP2 PUSH1 0x1 SWAP4 SWAP2 DUP6 PUSH1 0x2 SWAP7 SWAP5 LT PUSH2 0x27E2 JUMPI JUMPDEST POP POP POP DUP2 SHL ADD SWAP2 ADD SSTORE PUSH2 0x271F JUMP JUMPDEST ADD MLOAD PUSH1 0x0 NOT PUSH1 0xF8 DUP5 PUSH1 0x3 SHL AND SHR NOT AND SWAP1 SSTORE DUP7 DUP1 DUP1 PUSH2 0x27D4 JUMP JUMPDEST SWAP3 SWAP4 PUSH1 0x20 PUSH1 0x1 DUP2 SWAP3 DUP8 DUP7 ADD MLOAD DUP2 SSTORE ADD SWAP6 ADD SWAP4 ADD PUSH2 0x27BC JUMP JUMPDEST PUSH1 0x2 DUP5 ADD PUSH1 0x0 MSTORE PUSH1 0x20 PUSH1 0x0 KECCAK256 PUSH1 0x1F DUP5 ADD PUSH1 0x5 SHR DUP2 ADD PUSH1 0x20 DUP6 LT PUSH2 0x2853 JUMPI JUMPDEST PUSH1 0x1F DUP4 ADD PUSH1 0x5 SHR DUP3 ADD DUP2 LT PUSH2 0x2847 JUMPI POP POP PUSH2 0x26ED JUMP JUMPDEST PUSH1 0x0 DUP2 SSTORE PUSH1 0x1 ADD PUSH2 0x2831 JUMP JUMPDEST POP DUP1 PUSH2 0x2831 JUMP JUMPDEST PUSH1 0x2 PUSH1 0xFF DUP4 AND GT PUSH2 0x2B60 JUMPI PUSH1 0x1 DUP4 ADD SLOAD PUSH2 0x287F SWAP1 PUSH1 0x1 PUSH1 0x1 PUSH1 0xA0 SHL SUB AND PUSH2 0x14AF PUSH2 0x495A JUMP JUMPDEST PUSH1 0x1 DUP1 PUSH1 0xA0 SHL SUB PUSH1 0x1 DUP5 ADD SLOAD AND PUSH1 0x40 MLOAD PUSH2 0x2898 DUP2 PUSH2 0x423E JUMP JUMPDEST PUSH1 0xA DUP2 MSTORE PUSH10 0x6261645F726174696E67 PUSH1 0xB0 SHL PUSH1 0x20 DUP3 ADD MSTORE DUP2 PUSH1 0x0 MSTORE PUSH1 0x0 PUSH1 0x20 MSTORE PUSH1 0xFF PUSH1 0x40 PUSH1 0x0 KECCAK256 SLOAD AND SWAP1 DUP2 PUSH1 0x7 LT ISZERO PUSH1 0x0 EQ PUSH2 0x2B36 JUMPI PUSH1 0x0 DUP4 DUP2 MSTORE PUSH1 0x20 DUP2 SWAP1 MSTORE PUSH1 0x40 DUP1 DUP3 KECCAK256 DUP1 SLOAD PUSH1 0xFF NOT AND SWAP1 SSTORE MLOAD PUSH1 0x0 DUP1 MLOAD PUSH1 0x20 PUSH2 0x536F DUP4 CODECOPY DUP2 MLOAD SWAP2 MSTORE SWAP4 SWAP1 SWAP3 DUP4 SWAP3 PUSH2 0x2904 SWAP3 DUP5 PUSH2 0x5082 JUMP JUMPDEST SUB SWAP1 LOG2 PUSH1 0x1 DUP1 PUSH1 0xA0 SHL SUB PUSH1 0x1 DUP5 ADD SLOAD AND PUSH1 0x40 MLOAD PUSH2 0x2920 DUP2 PUSH2 0x423E JUMP JUMPDEST PUSH1 0x1B DUP2 MSTORE PUSH27 0x52656365697665642031206F722032207374617220726174696E67 PUSH1 0x28 SHL PUSH1 0x20 DUP3 ADD MSTORE DUP2 PUSH1 0x0 MSTORE PUSH1 0x8 PUSH1 0x20 MSTORE PUSH1 0x40 PUSH1 0x0 KECCAK256 PUSH1 0x40 MLOAD SWAP2 PUSH2 0x2963 DUP4 PUSH2 0x41ED JUMP JUMPDEST PUSH1 0x1 DUP4 MSTORE PUSH1 0x4 CALLDATALOAD PUSH1 0x20 DUP5 ADD MSTORE TIMESTAMP PUSH1 0x40 DUP5 ADD MSTORE PUSH1 0x60 DUP4 ADD MSTORE DUP1 SLOAD PUSH1 0x1 PUSH1 0x40 SHL DUP2 LT ISZERO PUSH2 0x3FE JUMPI PUSH2 0x2997 SWAP2 PUSH1 0x1 DUP3 ADD DUP2 SSTORE PUSH2 0x448B JUMP JUMPDEST SWAP2 SWAP1 SWAP2 PUSH2 0xE07 JUMPI DUP1 MLOAD SWAP1 PUSH1 0xD DUP3 LT ISZERO PUSH2 0x486 JUMPI PUSH1 0x60 SWAP2 PUSH1 0xFF DUP1 NOT DUP6 SLOAD AND SWAP2 AND OR DUP4 SSTORE PUSH1 0x20 DUP2 ADD MLOAD PUSH1 0x1 DUP5 ADD SSTORE PUSH1 0x40 DUP2 ADD MLOAD PUSH1 0x2 DUP5 ADD SSTORE ADD MLOAD DUP1 MLOAD SWAP1 PUSH1 0x1 DUP1 PUSH1 0x40 SHL SUB DUP3 GT PUSH2 0x3FE JUMPI PUSH2 0x29EC PUSH1 0x3 DUP5 ADD SLOAD PUSH2 0x41B3 JUMP JUMPDEST PUSH1 0x1F DUP2 GT PUSH2 0x2AEF JUMPI JUMPDEST POP PUSH1 0x20 SWAP1 PUSH1 0x1F DUP4 GT PUSH1 0x1 EQ PUSH2 0x2A80 JUMPI PUSH1 0x3 SWAP3 SWAP2 PUSH1 0x0 SWAP2 DUP4 PUSH2 0x2A75 JUMPI JUMPDEST POP POP DUP2 PUSH1 0x1 SHL SWAP2 PUSH1 0x0 NOT SWAP1 DUP5 SHL SHR NOT AND OR SWAP2 ADD SSTORE JUMPDEST DUP1 PUSH1 0x0 MSTORE PUSH1 0x9 PUSH1 0x20 MSTORE PUSH1 0x40 PUSH1 0x0 KECCAK256 PUSH1 0x1 PUSH1 0x0 MSTORE PUSH1 0x20 MSTORE PUSH1 0x40 PUSH1 0x0 KECCAK256 SWAP1 DUP2 SLOAD SWAP2 PUSH1 0x1 DUP4 ADD DUP4 GT PUSH2 0xD30 JUMPI PUSH1 0x1 DUP1 SWAP4 ADD SWAP1 SSTORE PUSH1 0x0 DUP1 MLOAD PUSH1 0x20 PUSH2 0x534F DUP4 CODECOPY DUP2 MLOAD SWAP2 MSTORE PUSH1 0x20 PUSH1 0x40 MLOAD PUSH1 0x4 CALLDATALOAD DUP2 MSTORE LOG3 PUSH2 0x2635 JUMP JUMPDEST ADD MLOAD SWAP1 POP DUP9 DUP1 PUSH2 0x2A11 JUMP JUMPDEST SWAP1 PUSH1 0x3 DUP5 ADD PUSH1 0x0 MSTORE PUSH1 0x20 PUSH1 0x0 KECCAK256 SWAP2 PUSH1 0x0 JUMPDEST PUSH1 0x1F NOT DUP6 AND DUP2 LT PUSH2 0x2AD7 JUMPI POP SWAP2 DUP4 SWAP2 PUSH1 0x1 SWAP4 PUSH1 0x3 SWAP6 PUSH1 0x1F NOT DUP2 AND LT PUSH2 0x2ABF JUMPI JUMPDEST POP POP POP DUP2 SHL ADD SWAP2 ADD SSTORE PUSH2 0x2A26 JUMP JUMPDEST ADD MLOAD PUSH1 0x0 NOT DUP4 DUP7 SHL PUSH1 0xF8 AND SHR NOT AND SWAP1 SSTORE DUP9 DUP1 DUP1 PUSH2 0x2AB1 JUMP JUMPDEST SWAP2 SWAP3 PUSH1 0x20 PUSH1 0x1 DUP2 SWAP3 DUP7 DUP6 ADD MLOAD DUP2 SSTORE ADD SWAP5 ADD SWAP3 ADD PUSH2 0x2A91 JUMP JUMPDEST PUSH1 0x3 DUP5 ADD PUSH1 0x0 MSTORE PUSH1 0x20 PUSH1 0x0 KECCAK256 PUSH1 0x1F DUP5 ADD PUSH1 0x5 SHR DUP2 ADD PUSH1 0x20 DUP6 LT PUSH2 0x2B2F JUMPI JUMPDEST PUSH1 0x1F DUP4 ADD PUSH1 0x5 SHR DUP3 ADD DUP2 LT PUSH2 0x2B23 JUMPI POP POP PUSH2 0x29F5 JUMP JUMPDEST PUSH1 0x0 DUP2 SSTORE PUSH1 0x1 ADD PUSH2 0x2B0D JUMP JUMPDEST POP DUP1 PUSH2 0x2B0D JUMP JUMPDEST PUSH1 0xFF PUSH1 0x6 NOT DUP4 ADD GT PUSH2 0xD30 JUMPI PUSH1 0x0 DUP1 MLOAD PUSH1 0x20 PUSH2 0x536F DUP4 CODECOPY DUP2 MLOAD SWAP2 MSTORE SWAP2 PUSH2 0x2904 PUSH1 0x6 NOT DUP3 ADD SWAP3 PUSH2 0x19CD JUMP JUMPDEST PUSH1 0x1 DUP4 ADD SLOAD PUSH2 0x2B7A SWAP1 PUSH1 0x1 PUSH1 0x1 PUSH1 0xA0 SHL SUB AND PUSH2 0x14AF PUSH2 0x495A JUMP JUMPDEST PUSH2 0x2635 JUMP JUMPDEST ADD MLOAD SWAP1 POP DUP9 DUP1 PUSH2 0x2541 JUMP JUMPDEST SWAP1 PUSH1 0x3 DUP5 ADD PUSH1 0x0 MSTORE PUSH1 0x20 PUSH1 0x0 KECCAK256 SWAP2 PUSH1 0x0 JUMPDEST PUSH1 0x1F NOT DUP6 AND DUP2 LT PUSH2 0x2BE1 JUMPI POP SWAP2 DUP4 SWAP2 PUSH1 0x1 SWAP4 PUSH1 0x3 SWAP6 PUSH1 0x1F NOT DUP2 AND LT PUSH2 0x2BC9 JUMPI JUMPDEST POP POP POP DUP2 SHL ADD SWAP2 ADD SSTORE PUSH2 0x2556 JUMP JUMPDEST ADD MLOAD PUSH1 0x0 NOT DUP4 DUP7 SHL PUSH1 0xF8 AND SHR NOT AND SWAP1 SSTORE DUP9 DUP1 DUP1 PUSH2 0x2BBB JUMP JUMPDEST SWAP2 SWAP3 PUSH1 0x20 PUSH1 0x1 DUP2 SWAP3 DUP7 DUP6 ADD MLOAD DUP2 SSTORE ADD SWAP5 ADD SWAP3 ADD PUSH2 0x2B9B JUMP JUMPDEST PUSH1 0x3 DUP5 ADD PUSH1 0x0 MSTORE PUSH1 0x20 PUSH1 0x0 KECCAK256 PUSH1 0x1F DUP5 ADD PUSH1 0x5 SHR DUP2 ADD PUSH1 0x20 DUP6 LT PUSH2 0x2C39 JUMPI JUMPDEST PUSH1 0x1F DUP4 ADD PUSH1 0x5 SHR DUP3 ADD DUP2 LT PUSH2 0x2C2D JUMPI POP POP PUSH2 0x2525 JUMP JUMPDEST PUSH1 0x0 DUP2 SSTORE PUSH1 0x1 ADD PUSH2 0x2C17 JUMP JUMPDEST POP DUP1 PUSH2 0x2C17 JUMP JUMPDEST PUSH1 0x40 MLOAD PUSH3 0x461BCD PUSH1 0xE5 SHL DUP2 MSTORE PUSH1 0x20 PUSH1 0x4 DUP3 ADD MSTORE PUSH1 0xE PUSH1 0x24 DUP3 ADD MSTORE PUSH14 0x496E76616C696420726174696E67 PUSH1 0x90 SHL PUSH1 0x44 DUP3 ADD MSTORE PUSH1 0x64 SWAP1 REVERT JUMPDEST POP PUSH1 0x5 PUSH1 0xFF DUP7 AND GT ISZERO PUSH2 0x2429 JUMP JUMPDEST CALLVALUE PUSH2 0x24D JUMPI PUSH1 0x0 CALLDATASIZE PUSH1 0x3 NOT ADD SLT PUSH2 0x24D JUMPI CALLER PUSH1 0x0 MSTORE PUSH1 0x4 PUSH1 0x20 MSTORE PUSH2 0x21F6 PUSH1 0xFF PUSH1 0x40 PUSH1 0x0 KECCAK256 SLOAD AND PUSH1 0x40 MLOAD SWAP2 DUP3 SWAP2 DUP3 PUSH2 0x43DF JUMP JUMPDEST CALLVALUE PUSH2 0x24D JUMPI PUSH1 0x0 CALLDATASIZE PUSH1 0x3 NOT ADD SLT PUSH2 0x24D JUMPI CALLER PUSH1 0x0 MSTORE PUSH1 0x4 PUSH1 0x20 MSTORE PUSH1 0xFF PUSH1 0x40 PUSH1 0x0 KECCAK256 SLOAD AND PUSH1 0x3 DUP2 LT ISZERO PUSH2 0x486 JUMPI PUSH2 0x2CEC SWAP1 ISZERO PUSH2 0x43F2 JUMP JUMPDEST CALLER PUSH1 0x0 MSTORE PUSH1 0x4 PUSH1 0x20 MSTORE PUSH1 0x40 PUSH1 0x0 KECCAK256 PUSH1 0x1 PUSH1 0xFF NOT DUP3 SLOAD AND OR SWAP1 SSTORE PUSH2 0x2D0E CALLER PUSH2 0x4FD8 JUMP JUMPDEST PUSH2 0x10FE CALLER PUSH2 0x52A9 JUMP JUMPDEST CALLVALUE PUSH2 0x24D JUMPI PUSH1 0x20 CALLDATASIZE PUSH1 0x3 NOT ADD SLT PUSH2 0x24D JUMPI PUSH1 0x1 PUSH1 0x1 PUSH1 0xA0 SHL SUB PUSH2 0x2D38 PUSH2 0x4113 JUMP JUMPDEST AND PUSH1 0x0 MSTORE PUSH1 0x9 PUSH1 0x20 MSTORE PUSH1 0x40 PUSH1 0x0 KECCAK256 PUSH1 0x9 PUSH1 0x0 MSTORE PUSH1 0x20 MSTORE PUSH1 0x20 PUSH1 0x40 PUSH1 0x0 KECCAK256 SLOAD ISZERO ISZERO PUSH1 0x40 MLOAD SWAP1 DUP2 MSTORE RETURN JUMPDEST CALLVALUE PUSH2 0x24D JUMPI PUSH1 0x20 DUP1 PUSH1 0x3 NOT CALLDATASIZE ADD SLT PUSH2 0x24D JUMPI PUSH1 0x4 CALLDATALOAD SWAP1 DUP2 PUSH1 0x0 MSTORE PUSH1 0xB DUP2 MSTORE PUSH1 0x40 PUSH1 0x0 KECCAK256 SWAP2 PUSH1 0xB DUP4 ADD SWAP1 DUP2 SLOAD SWAP2 PUSH1 0xFF DUP4 AND PUSH1 0x9 DUP2 LT ISZERO PUSH2 0x486 JUMPI PUSH1 0x3 SUB PUSH2 0x3004 JUMPI PUSH2 0x2DBE PUSH2 0x2DB6 PUSH1 0x4 DUP8 ADD SLOAD PUSH1 0x5 DUP9 ADD SLOAD SWAP1 PUSH2 0x452D JUMP JUMPDEST TIMESTAMP LT ISZERO PUSH2 0x45B8 JUMP JUMPDEST PUSH1 0x6 PUSH1 0xFF NOT DUP1 SWAP5 AND OR SWAP1 SSTORE PUSH1 0x1 SWAP3 DUP4 DUP6 ADD SWAP5 PUSH1 0x1 DUP1 PUSH1 0xA0 SHL SUB DUP7 PUSH2 0x2E0E DUP3 DUP1 SWAP10 SLOAD AND PUSH1 0x40 MLOAD SWAP1 PUSH2 0x2DED DUP3 PUSH2 0x423E JUMP JUMPDEST PUSH1 0x10 DUP3 MSTORE PUSH16 0x1DDBDC9AD95C97D858985B991BDB9959 PUSH1 0x82 SHL DUP8 DUP4 ADD MSTORE PUSH2 0x51E1 JUMP JUMPDEST SLOAD AND SWAP4 PUSH2 0x2E19 PUSH2 0x48D7 JUMP JUMPDEST SWAP1 DUP6 PUSH1 0x0 MSTORE PUSH1 0x8 DUP5 MSTORE PUSH1 0x40 PUSH1 0x0 KECCAK256 PUSH1 0x40 MLOAD SWAP1 PUSH2 0x2E34 DUP3 PUSH2 0x41ED JUMP JUMPDEST PUSH1 0x0 DUP3 MSTORE DUP6 DUP3 ADD DUP8 DUP2 MSTORE PUSH1 0x40 DUP4 ADD SWAP2 TIMESTAMP DUP4 MSTORE PUSH1 0x60 DUP5 ADD SWAP6 DUP7 MSTORE DUP1 SLOAD PUSH1 0x1 PUSH1 0x40 SHL DUP2 LT ISZERO PUSH2 0x3FE JUMPI PUSH2 0x2E69 SWAP2 DUP13 DUP3 ADD DUP2 SSTORE PUSH2 0x448B JUMP JUMPDEST SWAP4 SWAP1 SWAP4 PUSH2 0xE07 JUMPI MLOAD PUSH1 0xD DUP2 LT ISZERO PUSH2 0x486 JUMPI PUSH1 0xFF PUSH1 0x3 SWAP6 DUP6 SLOAD AND SWAP2 AND OR DUP4 SSTORE MLOAD DUP10 DUP4 ADD SSTORE MLOAD PUSH1 0x2 DUP3 ADD SSTORE ADD SWAP1 MLOAD DUP1 MLOAD SWAP1 PUSH1 0x1 DUP1 PUSH1 0x40 SHL SUB DUP3 GT PUSH2 0x3FE JUMPI DUP2 SWAP1 PUSH2 0x2EB1 DUP5 SLOAD PUSH2 0x41B3 JUMP JUMPDEST PUSH1 0x1F DUP2 GT PUSH2 0x2FB1 JUMPI JUMPDEST POP DUP6 SWAP1 PUSH1 0x1F DUP4 GT PUSH1 0x1 EQ PUSH2 0x2F4E JUMPI PUSH1 0x0 SWAP3 PUSH2 0x2F43 JUMPI JUMPDEST POP POP PUSH1 0x0 NOT PUSH1 0x3 DUP4 SWAP1 SHL SHR NOT AND SWAP1 DUP8 SHL OR SWAP1 SSTORE JUMPDEST DUP4 PUSH1 0x0 MSTORE PUSH1 0x9 DUP3 MSTORE PUSH1 0x40 PUSH1 0x0 KECCAK256 PUSH1 0x0 DUP1 MSTORE DUP3 MSTORE PUSH1 0x40 PUSH1 0x0 KECCAK256 SWAP3 DUP4 SLOAD SWAP6 DUP7 ADD DUP1 SWAP7 GT PUSH2 0xD30 JUMPI PUSH1 0x0 DUP1 DUP1 SWAP4 PUSH1 0x2 DUP11 DUP4 DUP11 PUSH1 0x0 DUP1 MLOAD PUSH1 0x20 PUSH2 0x534F DUP4 CODECOPY DUP2 MLOAD SWAP2 MSTORE PUSH2 0x10FE SWAP11 DUP4 SWAP10 DUP16 DUP15 SSTORE PUSH1 0x40 MLOAD SWAP1 DUP2 MSTORE LOG3 DUP3 SLOAD AND SWAP2 ADD SLOAD SWAP1 GAS CALL PUSH2 0xB8A PUSH2 0x45F0 JUMP JUMPDEST ADD MLOAD SWAP1 POP DUP10 DUP1 PUSH2 0x2ED0 JUMP JUMPDEST SWAP1 DUP10 SWAP4 POP PUSH1 0x1F NOT DUP4 AND SWAP2 DUP6 PUSH1 0x0 MSTORE DUP8 PUSH1 0x0 KECCAK256 SWAP3 PUSH1 0x0 JUMPDEST DUP10 DUP3 DUP3 LT PUSH2 0x2F9B JUMPI POP POP DUP5 GT PUSH2 0x2F82 JUMPI JUMPDEST POP POP POP DUP2 SHL ADD SWAP1 SSTORE PUSH2 0x2EE4 JUMP JUMPDEST ADD MLOAD PUSH1 0x0 NOT PUSH1 0xF8 DUP5 PUSH1 0x3 SHL AND SHR NOT AND SWAP1 SSTORE DUP10 DUP1 DUP1 PUSH2 0x2F75 JUMP JUMPDEST DUP4 DUP6 ADD MLOAD DUP7 SSTORE DUP14 SWAP8 SWAP1 SWAP6 ADD SWAP5 SWAP4 DUP5 ADD SWAP4 ADD PUSH2 0x2F64 JUMP JUMPDEST SWAP1 SWAP2 POP DUP4 PUSH1 0x0 MSTORE DUP6 PUSH1 0x0 KECCAK256 PUSH1 0x1F DUP5 ADD PUSH1 0x5 SHR DUP2 ADD SWAP2 DUP8 DUP6 LT PUSH2 0x2FFA JUMPI JUMPDEST DUP5 SWAP4 SWAP3 SWAP2 PUSH1 0x1F DUP13 SWAP3 ADD PUSH1 0x5 SHR ADD SWAP2 JUMPDEST DUP3 DUP2 LT PUSH2 0x2FEB JUMPI POP POP PUSH2 0x2EBA JUMP JUMPDEST PUSH1 0x0 DUP2 SSTORE DUP6 SWAP5 POP DUP12 SWAP2 ADD PUSH2 0x2FDD JUMP JUMPDEST SWAP1 SWAP2 POP DUP2 SWAP1 PUSH2 0x2FCE JUMP JUMPDEST PUSH1 0x40 MLOAD PUSH3 0x461BCD PUSH1 0xE5 SHL DUP2 MSTORE PUSH1 0x4 DUP2 ADD DUP6 SWAP1 MSTORE PUSH1 0xF PUSH1 0x24 DUP3 ADD MSTORE PUSH15 0x4E6F7420696E2070726F6772657373 PUSH1 0x88 SHL PUSH1 0x44 DUP3 ADD MSTORE PUSH1 0x64 SWAP1 REVERT JUMPDEST CALLVALUE PUSH2 0x24D JUMPI PUSH1 0x20 DUP1 PUSH1 0x3 NOT CALLDATASIZE ADD SLT PUSH2 0x24D JUMPI PUSH1 0x4 CALLDATALOAD PUSH1 0x0 MSTORE PUSH1 0xB DUP2 MSTORE PUSH1 0x40 PUSH1 0x0 KECCAK256 CALLER PUSH1 0x0 MSTORE PUSH1 0x4 DUP3 MSTORE PUSH1 0xFF PUSH1 0x40 PUSH1 0x0 KECCAK256 SLOAD AND PUSH1 0x3 DUP2 LT ISZERO PUSH2 0x486 JUMPI PUSH1 0x2 PUSH2 0x3082 SWAP2 EQ PUSH2 0x44F4 JUMP JUMPDEST PUSH1 0xB DUP2 ADD SWAP1 DUP2 SLOAD SWAP1 PUSH1 0xFF DUP3 AND PUSH1 0x9 DUP2 LT ISZERO PUSH2 0x486 JUMPI PUSH1 0x1 SUB PUSH2 0x3171 JUMPI DUP1 SLOAD PUSH1 0x1 PUSH1 0x1 PUSH1 0xA0 SHL SUB SWAP1 DUP2 AND CALLER EQ PUSH2 0x3136 JUMPI PUSH1 0x1 DUP3 ADD SWAP1 DUP2 SLOAD SWAP1 DUP2 AND PUSH2 0x3101 JUMPI PUSH1 0x2 SWAP5 SWAP6 POP PUSH2 0x30E2 PUSH2 0x30DA PUSH1 0x3 DUP6 ADD SLOAD PUSH1 0x5 DUP7 ADD SLOAD SWAP1 PUSH2 0x452D JUMP JUMPDEST TIMESTAMP GT ISZERO PUSH2 0x453A JUMP JUMPDEST PUSH1 0x1 PUSH1 0x1 PUSH1 0xA0 SHL SUB NOT AND CALLER OR SWAP1 SSTORE TIMESTAMP PUSH1 0x9 SWAP2 SWAP1 SWAP2 ADD SSTORE PUSH1 0xFF NOT AND OR SWAP1 SSTORE STOP JUMPDEST PUSH1 0x40 MLOAD PUSH3 0x461BCD PUSH1 0xE5 SHL DUP2 MSTORE PUSH1 0x4 DUP2 ADD DUP8 SWAP1 MSTORE PUSH1 0xD PUSH1 0x24 DUP3 ADD MSTORE PUSH13 0x20B63932B0B23C903A30B5B2B7 PUSH1 0x99 SHL PUSH1 0x44 DUP3 ADD MSTORE PUSH1 0x64 SWAP1 REVERT JUMPDEST PUSH1 0x40 MLOAD PUSH3 0x461BCD PUSH1 0xE5 SHL DUP2 MSTORE PUSH1 0x4 DUP2 ADD DUP7 SWAP1 MSTORE PUSH1 0x13 PUSH1 0x24 DUP3 ADD MSTORE PUSH19 0x21B0B73737BA103A30B5B29037BBB7103537B1 PUSH1 0x69 SHL PUSH1 0x44 DUP3 ADD MSTORE PUSH1 0x64 SWAP1 REVERT JUMPDEST PUSH1 0x40 MLOAD PUSH3 0x461BCD PUSH1 0xE5 SHL DUP2 MSTORE PUSH1 0x4 DUP2 ADD DUP6 SWAP1 MSTORE PUSH1 0xA PUSH1 0x24 DUP3 ADD MSTORE PUSH10 0x139BDD08199D5B991959 PUSH1 0xB2 SHL PUSH1 0x44 DUP3 ADD MSTORE PUSH1 0x64 SWAP1 REVERT JUMPDEST CALLVALUE PUSH2 0x24D JUMPI PUSH2 0x31B1 CALLDATASIZE PUSH2 0x43AD JUMP JUMPDEST PUSH1 0x0 DUP3 DUP2 MSTORE PUSH1 0xB PUSH1 0x20 MSTORE PUSH1 0x40 SWAP1 KECCAK256 DUP1 SLOAD PUSH1 0x1 PUSH1 0x1 PUSH1 0xA0 SHL SUB AND SWAP1 CALLER DUP3 EQ DUP1 ISZERO PUSH2 0x3652 JUMPI JUMPDEST PUSH2 0x31DE SWAP1 PUSH2 0x4E1F JUMP JUMPDEST PUSH1 0xB DUP2 ADD DUP1 SLOAD PUSH1 0xFF DUP2 AND PUSH1 0x9 DUP2 LT ISZERO PUSH2 0x486 JUMPI PUSH1 0x4 DUP2 EQ SWAP1 DUP2 ISZERO PUSH2 0x3647 JUMPI JUMPDEST POP ISZERO PUSH2 0x3606 JUMPI PUSH1 0x7 SWAP1 PUSH1 0xFF NOT AND OR SWAP1 SSTORE PUSH1 0x1 DUP1 DUP1 PUSH1 0xA0 SHL SUB SWAP2 ADD SLOAD AND DUP4 PUSH1 0x0 MSTORE PUSH1 0x5 PUSH1 0x20 MSTORE PUSH1 0x40 PUSH1 0x0 KECCAK256 SWAP3 PUSH2 0x3239 PUSH1 0xFF PUSH1 0xB DUP7 ADD SLOAD AND ISZERO PUSH2 0x4E5A JUMP JUMPDEST PUSH1 0xA DUP5 ADD SLOAD PUSH2 0x35C8 JUMPI DUP5 DUP5 SSTORE PUSH1 0x1 DUP5 ADD DUP1 SLOAD PUSH1 0x1 PUSH1 0x1 PUSH1 0xA0 SHL SUB NOT AND CALLER OR SWAP1 SSTORE DUP1 MLOAD SWAP1 PUSH1 0x1 PUSH1 0x1 PUSH1 0x40 SHL SUB DUP3 GT PUSH2 0x3FE JUMPI DUP2 SWAP1 PUSH2 0x3279 PUSH1 0x2 DUP8 ADD SLOAD PUSH2 0x41B3 JUMP JUMPDEST PUSH1 0x1F DUP2 GT PUSH2 0x3575 JUMPI JUMPDEST POP PUSH1 0x20 SWAP1 PUSH1 0x1F DUP4 GT PUSH1 0x1 EQ PUSH2 0x3508 JUMPI PUSH1 0x0 SWAP3 PUSH2 0x34FD JUMPI JUMPDEST POP POP DUP2 PUSH1 0x1 SHL SWAP2 PUSH1 0x0 NOT SWAP1 PUSH1 0x3 SHL SHR NOT AND OR PUSH1 0x2 DUP5 ADD SSTORE JUMPDEST PUSH2 0x12C TIMESTAMP ADD DUP1 TIMESTAMP GT PUSH2 0xD30 JUMPI PUSH1 0xA DUP5 ADD SSTORE PUSH1 0x40 MLOAD PUSH1 0x20 DUP2 ADD SWAP1 TIMESTAMP DUP3 MSTORE PREVRANDAO PUSH1 0x40 DUP3 ADD MSTORE DUP6 PUSH1 0x60 DUP3 ADD MSTORE PUSH1 0x60 DUP2 MSTORE PUSH2 0x32E6 DUP2 PUSH2 0x41ED JUMP JUMPDEST MLOAD SWAP1 KECCAK256 SWAP2 PUSH1 0x2 SLOAD PUSH2 0x32F6 DUP2 PUSH2 0x444A JUMP JUMPDEST SWAP2 PUSH1 0x0 SWAP4 PUSH1 0x0 JUMPDEST DUP4 DUP2 LT PUSH2 0x348B JUMPI POP POP POP POP PUSH1 0x5 DUP3 LT PUSH1 0x0 EQ PUSH2 0x3483 JUMPI PUSH1 0xFF DUP3 AND SWAP2 JUMPDEST PUSH1 0xFF DUP4 AND DUP1 ISZERO DUP1 ISZERO DUP6 DUP2 PUSH2 0x3477 JUMPI JUMPDEST POP PUSH2 0x3463 JUMPI JUMPDEST POP POP PUSH2 0x333F PUSH1 0xFF DUP5 SWAP8 SWAP7 SWAP8 AND PUSH2 0x444A JUMP JUMPDEST SWAP4 PUSH2 0x3349 DUP3 PUSH2 0x444A JUMP JUMPDEST SWAP3 PUSH1 0x0 JUMPDEST DUP4 DUP2 LT PUSH2 0x3442 JUMPI POP POP PUSH1 0x0 JUMPDEST PUSH1 0xFF DUP6 AND DUP2 LT PUSH2 0x340B JUMPI DUP8 DUP8 DUP8 PUSH1 0xFF DUP2 MLOAD AND PUSH1 0x9 DUP5 ADD SWAP1 PUSH1 0xFF NOT DUP3 SLOAD AND OR SWAP1 SSTORE PUSH1 0x4 PUSH1 0x0 SWAP4 ADD SWAP3 JUMPDEST DUP2 MLOAD PUSH1 0xFF DUP3 AND SWAP1 DUP2 LT ISZERO PUSH2 0x33BC JUMPI PUSH2 0x33B7 SWAP2 SWAP1 PUSH2 0x19F8 SWAP1 PUSH1 0x1 PUSH1 0x1 PUSH1 0xA0 SHL SUB SWAP1 PUSH2 0x33AB SWAP1 DUP7 PUSH2 0x44A7 JUMP JUMPDEST MLOAD AND PUSH2 0x1DCC DUP4 DUP9 PUSH2 0x4EAA JUMP JUMPDEST PUSH2 0x3381 JUMP JUMPDEST DUP4 PUSH1 0x0 DUP1 MLOAD PUSH1 0x20 PUSH2 0x532F DUP4 CODECOPY DUP2 MLOAD SWAP2 MSTORE PUSH2 0x1EDE DUP6 PUSH1 0x40 MLOAD SWAP2 DUP3 SWAP2 CALLER DUP7 PUSH32 0x84A477DF8A28A4276CA6DEE4458A06C3015F30C477D9C949EDE4E13FF8A552B4 PUSH1 0x0 DUP1 LOG3 PUSH1 0x20 DUP4 MSTORE PUSH1 0x20 DUP4 ADD SWAP1 PUSH2 0x4EBA JUMP JUMPDEST PUSH2 0x3438 PUSH1 0xFF SWAP2 PUSH2 0x1F26 PUSH2 0x1F20 PUSH1 0x40 SWAP12 SWAP11 SWAP12 MLOAD PUSH1 0x20 DUP2 ADD SWAP1 DUP8 DUP3 MSTORE DUP5 PUSH1 0x40 DUP3 ADD MSTORE PUSH1 0x40 DUP2 MSTORE PUSH2 0x1F0D DUP2 PUSH2 0x4223 JUMP JUMPDEST SWAP1 POP SWAP7 SWAP6 SWAP7 PUSH2 0x3359 JUMP JUMPDEST SWAP7 SWAP8 SWAP7 PUSH2 0x345B SWAP1 PUSH1 0x1 PUSH1 0x1 PUSH1 0xA0 SHL SUB PUSH2 0x1FA5 DUP3 DUP6 PUSH2 0x44A7 JUMP JUMPDEST SWAP8 SWAP7 SWAP8 PUSH2 0x334D JUMP JUMPDEST SWAP1 SWAP2 SWAP4 POP PUSH2 0xD30 JUMPI PUSH1 0x0 NOT ADD SWAP2 DUP7 DUP1 PUSH2 0x332E JUMP JUMPDEST PUSH1 0x1 SWAP2 POP AND ISZERO DUP10 PUSH2 0x3328 JUMP JUMPDEST PUSH1 0x5 SWAP2 PUSH2 0x3319 JUMP JUMPDEST PUSH2 0x3494 DUP2 PUSH2 0x528E JUMP JUMPDEST SWAP1 SLOAD PUSH1 0x3 SWAP2 SWAP1 SWAP2 SHL SHR PUSH1 0x1 PUSH1 0x1 PUSH1 0xA0 SHL SUB AND DUP4 DUP2 EQ ISZERO DUP1 PUSH2 0x34F3 JUMPI JUMPDEST DUP1 PUSH2 0x34E4 JUMPI JUMPDEST PUSH2 0x34CA JUMPI JUMPDEST POP PUSH2 0x34C5 SWAP1 PUSH2 0x447C JUMP JUMPDEST PUSH2 0x32FD JUMP JUMPDEST DUP7 PUSH2 0x34DD SWAP2 PUSH2 0x1F82 PUSH2 0x34C5 SWAP5 SWAP10 DUP10 PUSH2 0x44A7 JUMP JUMPDEST SWAP6 SWAP1 PUSH2 0x34BB JUMP JUMPDEST POP PUSH2 0x34EE DUP2 PUSH2 0x526E JUMP JUMPDEST PUSH2 0x34B6 JUMP JUMPDEST POP DUP3 DUP2 EQ ISZERO PUSH2 0x34B0 JUMP JUMPDEST ADD MLOAD SWAP1 POP DUP7 DUP1 PUSH2 0x3299 JUMP JUMPDEST PUSH1 0x2 DUP8 ADD PUSH1 0x0 SWAP1 DUP2 MSTORE PUSH1 0x20 DUP2 KECCAK256 SWAP4 POP PUSH1 0x1F NOT DUP6 AND SWAP1 JUMPDEST DUP2 DUP2 LT PUSH2 0x355D JUMPI POP SWAP1 DUP5 PUSH1 0x1 SWAP6 SWAP5 SWAP4 SWAP3 LT PUSH2 0x3544 JUMPI JUMPDEST POP POP POP DUP2 SHL ADD PUSH1 0x2 DUP5 ADD SSTORE PUSH2 0x32B1 JUMP JUMPDEST ADD MLOAD PUSH1 0x0 NOT PUSH1 0xF8 DUP5 PUSH1 0x3 SHL AND SHR NOT AND SWAP1 SSTORE DUP7 DUP1 DUP1 PUSH2 0x3534 JUMP JUMPDEST SWAP3 SWAP4 PUSH1 0x20 PUSH1 0x1 DUP2 SWAP3 DUP8 DUP7 ADD MLOAD DUP2 SSTORE ADD SWAP6 ADD SWAP4 ADD PUSH2 0x351E JUMP JUMPDEST SWAP1 SWAP2 POP PUSH1 0x2 DUP7 ADD PUSH1 0x0 MSTORE PUSH1 0x20 PUSH1 0x0 KECCAK256 PUSH1 0x1F DUP5 ADD PUSH1 0x5 SHR DUP2 ADD PUSH1 0x20 DUP6 LT PUSH2 0x35C1 JUMPI JUMPDEST SWAP1 DUP5 SWAP4 SWAP3 SWAP2 JUMPDEST PUSH1 0x1F DUP4 ADD PUSH1 0x5 SHR DUP3 ADD DUP2 LT PUSH2 0x35B2 JUMPI POP POP PUSH2 0x3282 JUMP JUMPDEST PUSH1 0x0 DUP2 SSTORE DUP6 SWAP5 POP PUSH1 0x1 ADD PUSH2 0x359C JUMP JUMPDEST POP DUP1 PUSH2 0x3596 JUMP JUMPDEST PUSH1 0x40 MLOAD PUSH3 0x461BCD PUSH1 0xE5 SHL DUP2 MSTORE PUSH1 0x20 PUSH1 0x4 DUP3 ADD MSTORE PUSH1 0x16 PUSH1 0x24 DUP3 ADD MSTORE PUSH22 0x111A5CDC1D5D1948185B1C9958591E481C985A5CD959 PUSH1 0x52 SHL PUSH1 0x44 DUP3 ADD MSTORE PUSH1 0x64 SWAP1 REVERT JUMPDEST PUSH1 0x40 MLOAD PUSH3 0x461BCD PUSH1 0xE5 SHL DUP2 MSTORE PUSH1 0x20 PUSH1 0x4 DUP3 ADD MSTORE PUSH1 0x19 PUSH1 0x24 DUP3 ADD MSTORE PUSH25 0x496E76616C696420737461746520666F722064697370757465 PUSH1 0x38 SHL PUSH1 0x44 DUP3 ADD MSTORE PUSH1 0x64 SWAP1 REVERT JUMPDEST PUSH1 0x3 SWAP2 POP EQ DUP8 PUSH2 0x31FD JUMP JUMPDEST POP PUSH1 0x1 DUP2 ADD SLOAD PUSH1 0x1 PUSH1 0x1 PUSH1 0xA0 SHL SUB AND CALLER EQ PUSH2 0x31D5 JUMP JUMPDEST CALLVALUE PUSH2 0x24D JUMPI PUSH1 0x20 CALLDATASIZE PUSH1 0x3 NOT ADD SLT PUSH2 0x24D JUMPI PUSH1 0x4 CALLDATALOAD PUSH1 0x0 SWAP1 DUP2 MSTORE PUSH1 0x5 PUSH1 0x20 MSTORE PUSH1 0x40 SWAP1 KECCAK256 DUP1 SLOAD PUSH1 0x1 DUP3 ADD SLOAD PUSH1 0x1 PUSH1 0x1 PUSH1 0xA0 SHL SUB AND SWAP2 PUSH2 0x21F6 PUSH2 0x36AA PUSH1 0x2 DUP4 ADD PUSH2 0x427C JUMP JUMPDEST PUSH2 0x36B6 PUSH1 0x3 DUP5 ADD PUSH2 0x427C JUMP JUMPDEST SWAP3 PUSH1 0xFF PUSH2 0x36FC PUSH1 0x9 DUP4 ADD SLOAD SWAP6 PUSH2 0x36EE PUSH1 0xB PUSH1 0xA DUP7 ADD SLOAD SWAP6 ADD SLOAD SWAP6 PUSH1 0x40 MLOAD SWAP11 DUP12 SWAP11 DUP12 MSTORE PUSH1 0x20 DUP12 ADD MSTORE PUSH2 0x140 DUP1 PUSH1 0x40 DUP13 ADD MSTORE DUP11 ADD SWAP1 PUSH2 0x4173 JUMP JUMPDEST SWAP1 DUP9 DUP3 SUB PUSH1 0x60 DUP11 ADD MSTORE PUSH2 0x4173 JUMP JUMPDEST SWAP5 DUP2 DUP2 AND PUSH1 0x80 DUP9 ADD MSTORE DUP2 DUP2 PUSH1 0x8 SHR AND PUSH1 0xA0 DUP9 ADD MSTORE PUSH1 0x10 SHR AND PUSH1 0xC0 DUP7 ADD MSTORE PUSH1 0xE0 DUP6 ADD MSTORE PUSH1 0xFF DUP2 AND ISZERO ISZERO PUSH2 0x100 DUP6 ADD MSTORE PUSH1 0xFF PUSH2 0x120 DUP6 ADD SWAP2 PUSH1 0x8 SHR AND PUSH2 0x433E JUMP JUMPDEST CALLVALUE PUSH2 0x24D JUMPI PUSH1 0x20 CALLDATASIZE PUSH1 0x3 NOT ADD SLT PUSH2 0x24D JUMPI PUSH1 0x1 PUSH1 0x1 PUSH1 0xA0 SHL SUB PUSH2 0x375C PUSH2 0x4113 JUMP JUMPDEST AND PUSH1 0x0 MSTORE PUSH1 0x0 PUSH1 0x20 MSTORE PUSH1 0x20 PUSH1 0xFF PUSH1 0x40 PUSH1 0x0 KECCAK256 SLOAD AND PUSH1 0x40 MLOAD SWAP1 DUP2 MSTORE RETURN JUMPDEST CALLVALUE PUSH2 0x24D JUMPI PUSH1 0x0 CALLDATASIZE PUSH1 0x3 NOT ADD SLT PUSH2 0x24D JUMPI PUSH1 0x20 PUSH1 0x40 MLOAD PUSH1 0x78 DUP2 MSTORE RETURN JUMPDEST CALLVALUE PUSH2 0x24D JUMPI PUSH1 0x0 CALLDATASIZE PUSH1 0x3 NOT ADD SLT PUSH2 0x24D JUMPI PUSH1 0x20 PUSH1 0xA SLOAD PUSH1 0x40 MLOAD SWAP1 DUP2 MSTORE RETURN JUMPDEST CALLVALUE PUSH2 0x24D JUMPI PUSH1 0x20 CALLDATASIZE PUSH1 0x3 NOT ADD SLT PUSH2 0x24D JUMPI PUSH1 0x1 PUSH1 0x1 PUSH1 0xA0 SHL SUB PUSH2 0x37D3 PUSH2 0x4113 JUMP JUMPDEST AND PUSH1 0x0 MSTORE PUSH1 0xD PUSH1 0x20 MSTORE PUSH1 0x20 PUSH1 0x40 PUSH1 0x0 KECCAK256 SLOAD PUSH1 0x40 MLOAD SWAP1 DUP2 MSTORE RETURN JUMPDEST CALLVALUE PUSH2 0x24D JUMPI PUSH1 0x0 CALLDATASIZE PUSH1 0x3 NOT ADD SLT PUSH2 0x24D JUMPI PUSH1 0x20 PUSH1 0x40 MLOAD PUSH2 0x12C DUP2 MSTORE RETURN JUMPDEST CALLVALUE PUSH2 0x24D JUMPI PUSH1 0x40 CALLDATASIZE PUSH1 0x3 NOT ADD SLT PUSH2 0x24D JUMPI PUSH2 0x3822 PUSH2 0x4129 JUMP JUMPDEST PUSH1 0x4 CALLDATALOAD PUSH1 0x0 MSTORE PUSH1 0x6 PUSH1 0x20 MSTORE PUSH1 0x40 PUSH1 0x0 KECCAK256 SWAP1 PUSH1 0x1 DUP1 PUSH1 0xA0 SHL SUB AND PUSH1 0x0 MSTORE PUSH1 0x20 MSTORE PUSH1 0x20 PUSH1 0xFF PUSH1 0x40 PUSH1 0x0 KECCAK256 SLOAD AND PUSH1 0x40 MLOAD SWAP1 ISZERO ISZERO DUP2 MSTORE RETURN JUMPDEST CALLVALUE PUSH2 0x24D JUMPI PUSH1 0x20 CALLDATASIZE PUSH1 0x3 NOT ADD SLT PUSH2 0x24D JUMPI PUSH1 0x20 PUSH2 0x3879 PUSH2 0x3874 PUSH2 0x4113 JUMP JUMPDEST PUSH2 0x526E JUMP JUMPDEST PUSH1 0x40 MLOAD SWAP1 ISZERO ISZERO DUP2 MSTORE RETURN JUMPDEST CALLVALUE PUSH2 0x24D JUMPI PUSH1 0x0 CALLDATASIZE PUSH1 0x3 NOT ADD SLT PUSH2 0x24D JUMPI PUSH1 0x20 PUSH1 0x40 MLOAD PUSH1 0x0 DUP2 MSTORE RETURN JUMPDEST CALLVALUE PUSH2 0x24D JUMPI PUSH1 0x40 CALLDATASIZE PUSH1 0x3 NOT ADD SLT PUSH2 0x24D JUMPI PUSH1 0x1 PUSH1 0x1 PUSH1 0xA0 SHL SUB PUSH2 0x38C0 PUSH2 0x4113 JUMP JUMPDEST AND PUSH1 0x0 MSTORE PUSH1 0x9 PUSH1 0x20 MSTORE PUSH1 0x40 PUSH1 0x0 KECCAK256 PUSH1 0x24 CALLDATALOAD PUSH1 0x0 MSTORE PUSH1 0x20 MSTORE PUSH1 0x20 PUSH1 0x40 PUSH1 0x0 KECCAK256 SLOAD PUSH1 0x40 MLOAD SWAP1 DUP2 MSTORE RETURN JUMPDEST CALLVALUE PUSH2 0x24D JUMPI PUSH1 0x20 CALLDATASIZE PUSH1 0x3 NOT ADD SLT PUSH2 0x24D JUMPI PUSH1 0x4 CALLDATALOAD PUSH1 0x0 MSTORE PUSH1 0xC PUSH1 0x20 MSTORE PUSH1 0x40 PUSH1 0x0 KECCAK256 PUSH1 0x1 DUP1 PUSH1 0xA0 SHL SUB SWAP1 PUSH2 0x21F6 DUP3 DUP3 SLOAD AND SWAP2 PUSH1 0xFF PUSH2 0x392B PUSH1 0x2 PUSH1 0x1 DUP5 ADD SLOAD SWAP4 ADD PUSH2 0x427C JUMP JUMPDEST SWAP2 PUSH1 0x40 MLOAD SWAP6 DUP7 SWAP6 DUP7 MSTORE DUP2 AND PUSH1 0x20 DUP7 ADD MSTORE PUSH1 0xA0 SHR AND PUSH1 0x40 DUP5 ADD MSTORE PUSH1 0x80 PUSH1 0x60 DUP5 ADD MSTORE PUSH1 0x80 DUP4 ADD SWAP1 PUSH2 0x4173 JUMP JUMPDEST CALLVALUE PUSH2 0x24D JUMPI PUSH1 0x0 CALLDATASIZE PUSH1 0x3 NOT ADD SLT PUSH2 0x24D JUMPI PUSH1 0x20 PUSH1 0x40 MLOAD PUSH1 0x5 DUP2 MSTORE RETURN JUMPDEST CALLVALUE PUSH2 0x24D JUMPI PUSH1 0x20 CALLDATASIZE PUSH1 0x3 NOT ADD SLT PUSH2 0x24D JUMPI PUSH1 0x1 PUSH1 0x1 PUSH1 0xA0 SHL SUB PUSH2 0x3992 PUSH2 0x4113 JUMP JUMPDEST AND PUSH1 0x0 MSTORE PUSH1 0xE PUSH1 0x20 MSTORE PUSH1 0x20 PUSH1 0x40 PUSH1 0x0 KECCAK256 SLOAD PUSH1 0x40 MLOAD SWAP1 DUP2 MSTORE RETURN JUMPDEST CALLVALUE PUSH2 0x24D JUMPI PUSH1 0x0 CALLDATASIZE PUSH1 0x3 NOT ADD SLT PUSH2 0x24D JUMPI CALLER PUSH1 0x0 MSTORE PUSH1 0x4 PUSH1 0x20 MSTORE PUSH1 0xFF PUSH1 0x40 PUSH1 0x0 KECCAK256 SLOAD AND PUSH1 0x3 DUP2 LT ISZERO PUSH2 0x486 JUMPI PUSH2 0x39E1 SWAP1 ISZERO PUSH2 0x43F2 JUMP JUMPDEST CALLER PUSH1 0x0 MSTORE PUSH1 0x4 PUSH1 0x20 MSTORE PUSH1 0x40 PUSH1 0x0 KECCAK256 PUSH1 0x2 PUSH1 0xFF NOT DUP3 SLOAD AND OR SWAP1 SSTORE PUSH2 0x2D0E CALLER PUSH2 0x4FD8 JUMP JUMPDEST CALLVALUE PUSH2 0x24D JUMPI PUSH1 0x20 CALLDATASIZE PUSH1 0x3 NOT ADD SLT PUSH2 0x24D JUMPI PUSH2 0x10FE PUSH1 0x4 CALLDATALOAD PUSH2 0x49C1 JUMP JUMPDEST CALLVALUE PUSH2 0x24D JUMPI PUSH1 0x20 CALLDATASIZE PUSH1 0x3 NOT ADD SLT PUSH2 0x24D JUMPI PUSH1 0x4 CALLDATALOAD PUSH1 0x0 MSTORE PUSH1 0xB PUSH1 0x20 MSTORE PUSH1 0x40 PUSH1 0x0 KECCAK256 PUSH1 0x1 DUP1 PUSH1 0xA0 SHL SUB SWAP1 DUP2 DUP2 SLOAD AND SWAP2 PUSH1 0x1 DUP3 ADD SLOAD AND SWAP1 PUSH1 0x2 DUP2 ADD SLOAD SWAP1 PUSH1 0x3 DUP2 ADD SLOAD SWAP2 PUSH2 0x3AE3 PUSH1 0x4 DUP4 ADD SLOAD PUSH2 0x3AD5 PUSH1 0x5 DUP6 ADD SLOAD PUSH2 0x3A7C PUSH1 0x6 DUP8 ADD PUSH2 0x427C JUMP JUMPDEST SWAP1 PUSH2 0x3A89 PUSH1 0x7 DUP9 ADD PUSH2 0x427C JUMP JUMPDEST SWAP4 PUSH1 0x8 DUP9 ADD SLOAD SWAP9 PUSH1 0x9 DUP10 ADD SLOAD SWAP8 PUSH1 0xFF PUSH1 0xB PUSH1 0xA DUP13 ADD SLOAD SWAP12 ADD SLOAD AND SWAP12 PUSH1 0x20 PUSH1 0x40 MLOAD SWAP15 DUP16 SWAP1 DUP2 MSTORE ADD MSTORE PUSH1 0x40 DUP14 ADD MSTORE PUSH1 0x60 DUP13 ADD MSTORE PUSH1 0x80 DUP12 ADD MSTORE PUSH1 0xA0 DUP11 ADD MSTORE PUSH2 0x180 DUP1 PUSH1 0xC0 DUP12 ADD MSTORE DUP10 ADD SWAP1 PUSH2 0x4173 JUMP JUMPDEST SWAP1 DUP8 DUP3 SUB PUSH1 0xE0 DUP10 ADD MSTORE PUSH2 0x4173 JUMP JUMPDEST SWAP3 PUSH2 0x100 DUP7 ADD MSTORE PUSH2 0x120 DUP6 ADD MSTORE PUSH2 0x140 DUP5 ADD MSTORE PUSH1 0x9 DUP3 LT ISZERO PUSH2 0x486 JUMPI DUP3 SWAP2 PUSH2 0x160 DUP4 ADD MSTORE SUB SWAP1 RETURN JUMPDEST CALLVALUE PUSH2 0x24D JUMPI PUSH1 0x20 DUP1 PUSH1 0x3 NOT CALLDATASIZE ADD SLT PUSH2 0x24D JUMPI PUSH1 0xA0 PUSH1 0x40 MLOAD PUSH2 0x3B2B DUP2 PUSH2 0x4208 JUMP JUMPDEST CALLDATASIZE SWAP1 CALLDATACOPY PUSH1 0x4 CALLDATALOAD PUSH1 0x0 MSTORE PUSH1 0x5 DUP1 DUP3 MSTORE PUSH1 0x4 PUSH1 0x40 PUSH1 0x0 KECCAK256 ADD SWAP2 PUSH1 0x40 MLOAD SWAP3 DUP4 DUP3 PUSH1 0x0 SWAP2 JUMPDEST DUP6 DUP4 LT PUSH2 0x3B94 JUMPI POP POP POP POP PUSH2 0x3B60 DUP4 PUSH2 0x4208 JUMP JUMPDEST PUSH1 0x40 MLOAD SWAP3 PUSH1 0x0 SWAP1 DUP5 JUMPDEST DUP5 DUP4 LT PUSH2 0x3B75 JUMPI PUSH1 0xA0 DUP7 RETURN JUMPDEST DUP2 MLOAD PUSH1 0x1 PUSH1 0x1 PUSH1 0xA0 SHL SUB AND DUP2 MSTORE PUSH1 0x1 SWAP3 SWAP1 SWAP3 ADD SWAP2 SWAP1 DUP4 ADD SWAP1 DUP4 ADD PUSH2 0x3B69 JUMP JUMPDEST DUP4 SLOAD PUSH1 0x1 PUSH1 0x1 PUSH1 0xA0 SHL SUB AND DUP2 MSTORE PUSH1 0x1 SWAP4 DUP5 ADD SWAP4 SWAP3 SWAP1 SWAP3 ADD SWAP2 DUP5 SWAP2 ADD PUSH2 0x3B4C JUMP JUMPDEST CALLVALUE PUSH2 0x24D JUMPI PUSH1 0x40 CALLDATASIZE PUSH1 0x3 NOT ADD SLT PUSH2 0x24D JUMPI PUSH1 0x24 DUP1 CALLDATALOAD DUP1 ISZERO ISZERO SWAP1 PUSH1 0x4 CALLDATALOAD SWAP1 DUP3 DUP2 SUB PUSH2 0x24D JUMPI DUP2 PUSH1 0x0 MSTORE PUSH1 0x20 SWAP1 PUSH1 0xB DUP3 MSTORE PUSH1 0xFF DUP1 PUSH1 0xB PUSH1 0x40 PUSH1 0x0 KECCAK256 ADD SLOAD AND PUSH1 0x9 DUP2 LT ISZERO PUSH2 0x3E5E JUMPI PUSH1 0x7 PUSH2 0x3C05 SWAP2 EQ PUSH2 0x4EF7 JUMP JUMPDEST DUP4 PUSH1 0x0 MSTORE PUSH1 0x5 DUP4 MSTORE PUSH1 0x40 PUSH1 0x0 KECCAK256 SWAP2 PUSH1 0xA DUP4 ADD SLOAD DUP1 ISZERO PUSH2 0x3E26 JUMPI PUSH2 0x3C2E DUP4 PUSH1 0xB DUP7 ADD SLOAD AND ISZERO PUSH2 0x4E5A JUMP JUMPDEST TIMESTAMP LT ISZERO PUSH2 0x3DEC JUMPI DUP5 PUSH1 0x0 MSTORE PUSH1 0x6 DUP5 MSTORE PUSH1 0x40 PUSH1 0x0 KECCAK256 CALLER PUSH1 0x0 MSTORE DUP5 MSTORE DUP2 PUSH1 0x40 PUSH1 0x0 KECCAK256 SLOAD AND PUSH2 0x3DB8 JUMPI PUSH1 0x0 DUP1 SWAP4 PUSH1 0x9 DUP2 ADD SWAP5 PUSH1 0x4 DUP6 DUP8 SLOAD AND SWAP3 ADD SWAP1 JUMPDEST DUP3 DUP7 DUP3 AND LT PUSH2 0x3D7A JUMPI JUMPDEST POP POP POP ISZERO PUSH2 0x3D3F JUMPI DUP5 PUSH32 0xF2913DBE661EE2ACC4A046D8FBCDC792373BDA34C41C6086484B5345E5785E5F SWAP6 SWAP7 SWAP8 POP PUSH1 0x0 MSTORE PUSH1 0x6 DUP5 MSTORE PUSH1 0x40 PUSH1 0x0 KECCAK256 CALLER PUSH1 0x0 MSTORE DUP5 MSTORE PUSH1 0x40 PUSH1 0x0 KECCAK256 PUSH1 0xFF NOT SWAP1 PUSH1 0x1 DUP3 DUP3 SLOAD AND OR SWAP1 SSTORE DUP7 PUSH1 0x0 MSTORE PUSH1 0x7 DUP6 MSTORE PUSH1 0x40 PUSH1 0x0 KECCAK256 CALLER PUSH1 0x0 MSTORE DUP6 MSTORE PUSH1 0x40 PUSH1 0x0 KECCAK256 SWAP1 DUP2 SLOAD AND DUP4 DUP10 AND OR SWAP1 SSTORE PUSH1 0x0 EQ PUSH2 0x3D18 JUMPI PUSH2 0xFF00 PUSH2 0x3CFF DUP4 SLOAD SWAP3 DUP4 PUSH1 0x8 SHR AND PUSH2 0x4E99 JUMP JUMPDEST PUSH1 0x8 SHL AND SWAP1 PUSH2 0xFF00 NOT AND OR SWAP1 SSTORE JUMPDEST PUSH1 0x40 MLOAD SWAP4 DUP5 MSTORE CALLER SWAP4 LOG3 STOP JUMPDEST PUSH3 0xFF0000 PUSH2 0x3D2C DUP4 SLOAD SWAP3 DUP4 PUSH1 0x10 SHR AND PUSH2 0x4E99 JUMP JUMPDEST PUSH1 0x10 SHL AND SWAP1 PUSH3 0xFF0000 NOT AND OR SWAP1 SSTORE PUSH2 0x3D0D JUMP JUMPDEST PUSH1 0x40 MLOAD PUSH3 0x461BCD PUSH1 0xE5 SHL DUP2 MSTORE PUSH1 0x4 DUP2 ADD DUP6 SWAP1 MSTORE PUSH1 0x14 DUP2 DUP10 ADD MSTORE PUSH20 0x2737BA10309039B2B632B1BA32B2103B37BA32B9 PUSH1 0x61 SHL PUSH1 0x44 DUP3 ADD MSTORE PUSH1 0x64 SWAP1 REVERT JUMPDEST PUSH2 0x3D84 DUP2 DUP4 PUSH2 0x4EAA JUMP JUMPDEST SWAP1 SLOAD PUSH1 0x3 SWAP2 SWAP1 SWAP2 SHL SHR PUSH1 0x1 PUSH1 0x1 PUSH1 0xA0 SHL SUB AND CALLER EQ PUSH2 0x3DAA JUMPI PUSH2 0x3DA5 SWAP1 PUSH2 0x4E99 JUMP JUMPDEST PUSH2 0x3C67 JUMP JUMPDEST POP POP POP POP PUSH1 0x1 DUP9 DUP1 DUP1 PUSH2 0x3C71 JUMP JUMPDEST PUSH1 0x40 MLOAD PUSH3 0x461BCD PUSH1 0xE5 SHL DUP2 MSTORE PUSH1 0x4 DUP2 ADD DUP6 SWAP1 MSTORE PUSH1 0xD DUP2 DUP10 ADD MSTORE PUSH13 0x105B1C9958591E481D9BDD1959 PUSH1 0x9A SHL PUSH1 0x44 DUP3 ADD MSTORE PUSH1 0x64 SWAP1 REVERT JUMPDEST PUSH1 0x40 MLOAD PUSH3 0x461BCD PUSH1 0xE5 SHL DUP2 MSTORE PUSH1 0x4 DUP2 ADD DUP6 SWAP1 MSTORE PUSH1 0x13 DUP2 DUP10 ADD MSTORE PUSH19 0x159BDD1A5B99C81C195C9A5BD908195B991959 PUSH1 0x6A SHL PUSH1 0x44 DUP3 ADD MSTORE PUSH1 0x64 SWAP1 REVERT JUMPDEST PUSH1 0x40 MLOAD PUSH3 0x461BCD PUSH1 0xE5 SHL DUP2 MSTORE PUSH1 0x4 DUP2 ADD DUP7 SWAP1 MSTORE PUSH1 0x11 DUP2 DUP11 ADD MSTORE PUSH17 0x4E6F206469737075746520657869737473 PUSH1 0x78 SHL PUSH1 0x44 DUP3 ADD MSTORE PUSH1 0x64 SWAP1 REVERT JUMPDEST DUP7 PUSH4 0x4E487B71 PUSH1 0xE0 SHL PUSH1 0x0 MSTORE PUSH1 0x21 PUSH1 0x4 MSTORE PUSH1 0x0 REVERT JUMPDEST CALLVALUE PUSH2 0x24D JUMPI PUSH1 0x20 CALLDATASIZE PUSH1 0x3 NOT ADD SLT PUSH2 0x24D JUMPI PUSH1 0x4 CALLDATALOAD PUSH1 0x0 MSTORE PUSH1 0xB PUSH1 0x20 MSTORE PUSH1 0x40 PUSH1 0x0 KECCAK256 PUSH2 0x3EAB PUSH1 0x1 DUP1 PUSH1 0xA0 SHL SUB PUSH1 0x1 DUP4 ADD SLOAD AND CALLER EQ PUSH2 0x44F4 JUMP JUMPDEST PUSH1 0xB DUP2 ADD SWAP1 DUP2 SLOAD PUSH1 0xFF DUP2 AND SWAP2 PUSH1 0x9 DUP4 LT ISZERO PUSH2 0x486 JUMPI PUSH2 0x30DA PUSH2 0x3EE4 SWAP2 PUSH2 0x3ED5 PUSH1 0x2 PUSH1 0x3 SWAP7 EQ PUSH2 0x457D JUMP JUMPDEST PUSH1 0x5 DUP6 DUP3 ADD SLOAD SWAP2 ADD SLOAD SWAP1 PUSH2 0x452D JUMP JUMPDEST PUSH1 0xFF NOT AND OR SWAP1 SSTORE STOP JUMPDEST CALLVALUE PUSH2 0x24D JUMPI PUSH1 0x20 DUP1 PUSH1 0x3 NOT CALLDATASIZE ADD SLT PUSH2 0x24D JUMPI PUSH1 0x1 PUSH1 0x1 PUSH1 0xA0 SHL SUB PUSH2 0x3F0F PUSH2 0x4113 JUMP JUMPDEST AND PUSH1 0x0 MSTORE PUSH1 0x8 DUP2 MSTORE PUSH1 0x40 PUSH1 0x0 KECCAK256 DUP1 SLOAD SWAP1 PUSH2 0x3F28 DUP3 PUSH2 0x4433 JUMP JUMPDEST SWAP2 PUSH2 0x3F36 PUSH1 0x40 MLOAD SWAP4 DUP5 PUSH2 0x4259 JUMP JUMPDEST DUP1 DUP4 MSTORE PUSH2 0x3F42 DUP2 PUSH2 0x4433 JUMP JUMPDEST SWAP1 DUP5 DUP5 ADD PUSH1 0x1F NOT DUP1 SWAP4 ADD CALLDATASIZE DUP3 CALLDATACOPY PUSH2 0x3F58 DUP3 PUSH2 0x444A JUMP JUMPDEST PUSH2 0x3F61 DUP4 PUSH2 0x444A JUMP JUMPDEST SWAP3 PUSH2 0x3F6B DUP2 PUSH2 0x4433 JUMP JUMPDEST SWAP6 PUSH2 0x3F79 PUSH1 0x40 MLOAD SWAP8 DUP9 PUSH2 0x4259 JUMP JUMPDEST DUP2 DUP8 MSTORE DUP6 PUSH2 0x3F86 DUP4 PUSH2 0x4433 JUMP JUMPDEST ADD PUSH1 0x0 JUMPDEST DUP2 DUP2 LT PUSH2 0x4104 JUMPI POP POP PUSH1 0x0 JUMPDEST DUP3 DUP2 LT PUSH2 0x406B JUMPI POP POP POP PUSH1 0x40 MLOAD SWAP6 PUSH1 0x80 DUP8 ADD SWAP1 PUSH1 0x80 DUP9 MSTORE MLOAD DUP1 SWAP2 MSTORE PUSH1 0xA0 DUP8 ADD SWAP3 SWAP1 PUSH1 0x0 JUMPDEST DUP2 DUP2 LT PUSH2 0x4044 JUMPI POP POP POP DUP2 PUSH2 0x3FD9 SWAP2 DUP8 PUSH2 0x3FE7 SWAP6 SWAP5 SUB DUP10 DUP10 ADD MSTORE PUSH2 0x413F JUMP JUMPDEST SWAP1 DUP6 DUP3 SUB PUSH1 0x40 DUP8 ADD MSTORE PUSH2 0x413F JUMP JUMPDEST SWAP4 DUP4 DUP6 SUB PUSH1 0x60 DUP6 ADD MSTORE DUP3 MLOAD SWAP1 DUP2 DUP7 MSTORE DUP1 DUP7 ADD DUP2 DUP1 DUP5 PUSH1 0x5 SHL DUP10 ADD ADD SWAP6 ADD SWAP4 PUSH1 0x0 SWAP8 JUMPDEST DUP5 DUP10 LT PUSH2 0x4016 JUMPI DUP8 DUP8 SUB DUP9 RETURN JUMPDEST SWAP1 SWAP2 SWAP3 SWAP4 SWAP5 SWAP6 DUP5 DUP1 PUSH2 0x4032 DUP4 DUP7 DUP7 PUSH1 0x1 SWAP7 SUB ADD DUP9 MSTORE DUP11 MLOAD PUSH2 0x4173 JUMP JUMPDEST SWAP9 ADD SWAP5 ADD SWAP9 ADD SWAP8 SWAP2 SWAP1 SWAP5 SWAP4 SWAP3 SWAP5 PUSH2 0x4009 JUMP JUMPDEST SWAP1 SWAP2 SWAP4 DUP5 SWAP10 SWAP7 SWAP10 MLOAD SWAP1 PUSH1 0xD DUP3 LT ISZERO PUSH2 0x486 JUMPI SWAP1 DUP2 MSTORE SWAP6 SWAP9 SWAP6 DUP10 ADD SWAP4 DUP10 ADD SWAP2 SWAP1 PUSH1 0x1 ADD PUSH2 0x3FBA JUMP JUMPDEST PUSH1 0xFF PUSH2 0x407A DUP3 DUP5 SWAP13 SWAP10 SWAP13 PUSH2 0x448B JUMP JUMPDEST POP SLOAD AND SWAP1 PUSH2 0x4088 DUP2 DUP12 PUSH2 0x44A7 JUMP JUMPDEST SWAP2 PUSH1 0xD DUP2 LT ISZERO PUSH2 0x486 JUMPI PUSH2 0x40FC SWAP3 MSTORE PUSH1 0x1 PUSH2 0x40A3 DUP3 DUP6 PUSH2 0x448B JUMP JUMPDEST POP ADD SLOAD PUSH2 0x40B0 DUP3 DUP8 PUSH2 0x44A7 JUMP JUMPDEST MSTORE PUSH1 0x2 PUSH2 0x40BD DUP3 DUP6 PUSH2 0x448B JUMP JUMPDEST POP ADD SLOAD PUSH2 0x40CA DUP3 DUP10 PUSH2 0x44A7 JUMP JUMPDEST MSTORE PUSH2 0x40E1 PUSH1 0x3 PUSH2 0x40DA DUP4 DUP7 PUSH2 0x448B JUMP JUMPDEST POP ADD PUSH2 0x427C JUMP JUMPDEST PUSH2 0x40EB DUP3 DUP12 PUSH2 0x44A7 JUMP JUMPDEST MSTORE PUSH2 0x40F6 DUP2 DUP11 PUSH2 0x44A7 JUMP JUMPDEST POP PUSH2 0x447C JUMP JUMPDEST SWAP9 SWAP6 SWAP9 PUSH2 0x3F96 JUMP JUMPDEST PUSH1 0x60 DUP10 DUP3 ADD DUP13 ADD MSTORE DUP11 ADD PUSH2 0x3F8A JUMP JUMPDEST PUSH1 0x4 CALLDATALOAD SWAP1 PUSH1 0x1 PUSH1 0x1 PUSH1 0xA0 SHL SUB DUP3 AND DUP3 SUB PUSH2 0x24D JUMPI JUMP JUMPDEST PUSH1 0x24 CALLDATALOAD SWAP1 PUSH1 0x1 PUSH1 0x1 PUSH1 0xA0 SHL SUB DUP3 AND DUP3 SUB PUSH2 0x24D JUMPI JUMP JUMPDEST SWAP1 DUP2 MLOAD DUP1 DUP3 MSTORE PUSH1 0x20 DUP1 DUP1 SWAP4 ADD SWAP4 ADD SWAP2 PUSH1 0x0 JUMPDEST DUP3 DUP2 LT PUSH2 0x415F JUMPI POP POP POP POP SWAP1 JUMP JUMPDEST DUP4 MLOAD DUP6 MSTORE SWAP4 DUP2 ADD SWAP4 SWAP3 DUP2 ADD SWAP3 PUSH1 0x1 ADD PUSH2 0x4151 JUMP JUMPDEST SWAP2 SWAP1 DUP3 MLOAD SWAP3 DUP4 DUP3 MSTORE PUSH1 0x0 JUMPDEST DUP5 DUP2 LT PUSH2 0x419F JUMPI POP POP DUP3 PUSH1 0x0 PUSH1 0x20 DUP1 SWAP5 SWAP6 DUP5 ADD ADD MSTORE PUSH1 0x1F DUP1 NOT SWAP2 ADD AND ADD ADD SWAP1 JUMP JUMPDEST PUSH1 0x20 DUP2 DUP4 ADD DUP2 ADD MLOAD DUP5 DUP4 ADD DUP3 ADD MSTORE ADD PUSH2 0x417E JUMP JUMPDEST SWAP1 PUSH1 0x1 DUP3 DUP2 SHR SWAP3 AND DUP1 ISZERO PUSH2 0x41E3 JUMPI JUMPDEST PUSH1 0x20 DUP4 LT EQ PUSH2 0x41CD JUMPI JUMP JUMPDEST PUSH4 0x4E487B71 PUSH1 0xE0 SHL PUSH1 0x0 MSTORE PUSH1 0x22 PUSH1 0x4 MSTORE PUSH1 0x24 PUSH1 0x0 REVERT JUMPDEST SWAP2 PUSH1 0x7F AND SWAP2 PUSH2 0x41C2 JUMP JUMPDEST PUSH1 0x80 DUP2 ADD SWAP1 DUP2 LT PUSH1 0x1 PUSH1 0x1 PUSH1 0x40 SHL SUB DUP3 GT OR PUSH2 0x3FE JUMPI PUSH1 0x40 MSTORE JUMP JUMPDEST PUSH1 0xA0 DUP2 ADD SWAP1 DUP2 LT PUSH1 0x1 PUSH1 0x1 PUSH1 0x40 SHL SUB DUP3 GT OR PUSH2 0x3FE JUMPI PUSH1 0x40 MSTORE JUMP JUMPDEST PUSH1 0x60 DUP2 ADD SWAP1 DUP2 LT PUSH1 0x1 PUSH1 0x1 PUSH1 0x40 SHL SUB DUP3 GT OR PUSH2 0x3FE JUMPI PUSH1 0x40 MSTORE JUMP JUMPDEST PUSH1 0x40 DUP2 ADD SWAP1 DUP2 LT PUSH1 0x1 PUSH1 0x1 PUSH1 0x40 SHL SUB DUP3 GT OR PUSH2 0x3FE JUMPI PUSH1 0x40 MSTORE JUMP JUMPDEST PUSH1 0x1F SWAP1 SWAP2 ADD PUSH1 0x1F NOT AND DUP2 ADD SWAP1 PUSH1 0x1 PUSH1 0x1 PUSH1 0x40 SHL SUB DUP3 GT SWAP1 DUP3 LT OR PUSH2 0x3FE JUMPI PUSH1 0x40 MSTORE JUMP JUMPDEST SWAP1 PUSH1 0x40 MLOAD SWAP2 DUP3 PUSH1 0x0 DUP3 SLOAD SWAP3 PUSH2 0x4290 DUP5 PUSH2 0x41B3 JUMP JUMPDEST SWAP1 DUP2 DUP5 MSTORE PUSH1 0x1 SWAP5 DUP6 DUP2 AND SWAP1 DUP2 PUSH1 0x0 EQ PUSH2 0x42FF JUMPI POP PUSH1 0x1 EQ PUSH2 0x42BC JUMPI JUMPDEST POP POP PUSH2 0x42BA SWAP3 POP SUB DUP4 PUSH2 0x4259 JUMP JUMPDEST JUMP JUMPDEST SWAP1 SWAP4 SWAP2 POP PUSH1 0x0 MSTORE PUSH1 0x20 SWAP1 DUP2 PUSH1 0x0 KECCAK256 SWAP4 PUSH1 0x0 SWAP2 JUMPDEST DUP2 DUP4 LT PUSH2 0x42E7 JUMPI POP POP PUSH2 0x42BA SWAP4 POP DUP3 ADD ADD CODESIZE DUP1 PUSH2 0x42AC JUMP JUMPDEST DUP6 SLOAD DUP9 DUP5 ADD DUP6 ADD MSTORE SWAP5 DUP6 ADD SWAP5 DUP8 SWAP5 POP SWAP2 DUP4 ADD SWAP2 PUSH2 0x42CF JUMP JUMPDEST SWAP2 POP POP PUSH2 0x42BA SWAP5 POP PUSH1 0x20 SWAP3 POP PUSH1 0xFF NOT AND DUP3 DUP5 ADD MSTORE ISZERO ISZERO PUSH1 0x5 SHL DUP3 ADD ADD CODESIZE DUP1 PUSH2 0x42AC JUMP JUMPDEST CALLVALUE PUSH2 0x24D JUMPI PUSH1 0x0 CALLDATASIZE PUSH1 0x3 NOT ADD SLT PUSH2 0x24D JUMPI PUSH1 0x20 PUSH1 0x40 MLOAD PUSH1 0x64 DUP2 MSTORE RETURN JUMPDEST SWAP1 PUSH1 0x4 DUP3 LT ISZERO PUSH2 0x486 JUMPI MSTORE JUMP JUMPDEST PUSH1 0x1 PUSH1 0x1 PUSH1 0x40 SHL SUB DUP2 GT PUSH2 0x3FE JUMPI PUSH1 0x1F ADD PUSH1 0x1F NOT AND PUSH1 0x20 ADD SWAP1 JUMP JUMPDEST DUP2 PUSH1 0x1F DUP3 ADD SLT ISZERO PUSH2 0x24D JUMPI DUP1 CALLDATALOAD SWAP1 PUSH2 0x437D DUP3 PUSH2 0x434B JUMP JUMPDEST SWAP3 PUSH2 0x438B PUSH1 0x40 MLOAD SWAP5 DUP6 PUSH2 0x4259 JUMP JUMPDEST DUP3 DUP5 MSTORE PUSH1 0x20 DUP4 DUP4 ADD ADD GT PUSH2 0x24D JUMPI DUP2 PUSH1 0x0 SWAP3 PUSH1 0x20 DUP1 SWAP4 ADD DUP4 DUP7 ADD CALLDATACOPY DUP4 ADD ADD MSTORE SWAP1 JUMP JUMPDEST SWAP1 PUSH1 0x40 PUSH1 0x3 NOT DUP4 ADD SLT PUSH2 0x24D JUMPI PUSH1 0x4 CALLDATALOAD SWAP2 PUSH1 0x24 CALLDATALOAD SWAP1 PUSH1 0x1 PUSH1 0x1 PUSH1 0x40 SHL SUB DUP3 GT PUSH2 0x24D JUMPI PUSH2 0x43DC SWAP2 PUSH1 0x4 ADD PUSH2 0x4366 JUMP JUMPDEST SWAP1 JUMP JUMPDEST SWAP2 SWAP1 PUSH1 0x20 DUP4 ADD SWAP3 PUSH1 0x3 DUP3 LT ISZERO PUSH2 0x486 JUMPI MSTORE JUMP JUMPDEST ISZERO PUSH2 0x43F9 JUMPI JUMP JUMPDEST PUSH1 0x40 MLOAD PUSH3 0x461BCD PUSH1 0xE5 SHL DUP2 MSTORE PUSH1 0x20 PUSH1 0x4 DUP3 ADD MSTORE PUSH1 0x12 PUSH1 0x24 DUP3 ADD MSTORE PUSH18 0x105B1C9958591E481C9959DA5CDD195C9959 PUSH1 0x72 SHL PUSH1 0x44 DUP3 ADD MSTORE PUSH1 0x64 SWAP1 REVERT JUMPDEST PUSH1 0x1 PUSH1 0x1 PUSH1 0x40 SHL SUB DUP2 GT PUSH2 0x3FE JUMPI PUSH1 0x5 SHL PUSH1 0x20 ADD SWAP1 JUMP JUMPDEST SWAP1 PUSH2 0x4454 DUP3 PUSH2 0x4433 JUMP JUMPDEST PUSH2 0x4461 PUSH1 0x40 MLOAD SWAP2 DUP3 PUSH2 0x4259 JUMP JUMPDEST DUP3 DUP2 MSTORE DUP1 SWAP3 PUSH2 0x4472 PUSH1 0x1F NOT SWAP2 PUSH2 0x4433 JUMP JUMPDEST ADD SWAP1 PUSH1 0x20 CALLDATASIZE SWAP2 ADD CALLDATACOPY JUMP JUMPDEST PUSH1 0x0 NOT DUP2 EQ PUSH2 0xD30 JUMPI PUSH1 0x1 ADD SWAP1 JUMP JUMPDEST DUP1 SLOAD DUP3 LT ISZERO PUSH2 0x20B5 JUMPI PUSH1 0x0 MSTORE PUSH1 0x20 PUSH1 0x0 KECCAK256 SWAP1 PUSH1 0x2 SHL ADD SWAP1 PUSH1 0x0 SWAP1 JUMP JUMPDEST DUP1 MLOAD DUP3 LT ISZERO PUSH2 0x20B5 JUMPI PUSH1 0x20 SWAP2 PUSH1 0x5 SHL ADD ADD SWAP1 JUMP JUMPDEST ISZERO PUSH2 0x44C2 JUMPI JUMP JUMPDEST PUSH1 0x40 MLOAD PUSH3 0x461BCD PUSH1 0xE5 SHL DUP2 MSTORE PUSH1 0x20 PUSH1 0x4 DUP3 ADD MSTORE PUSH1 0xA PUSH1 0x24 DUP3 ADD MSTORE PUSH10 0x139BDD0818DB1A595B9D PUSH1 0xB2 SHL PUSH1 0x44 DUP3 ADD MSTORE PUSH1 0x64 SWAP1 REVERT JUMPDEST ISZERO PUSH2 0x44FB JUMPI JUMP JUMPDEST PUSH1 0x40 MLOAD PUSH3 0x461BCD PUSH1 0xE5 SHL DUP2 MSTORE PUSH1 0x20 PUSH1 0x4 DUP3 ADD MSTORE PUSH1 0xA PUSH1 0x24 DUP3 ADD MSTORE PUSH10 0x2737BA103BB7B935B2B9 PUSH1 0xB1 SHL PUSH1 0x44 DUP3 ADD MSTORE PUSH1 0x64 SWAP1 REVERT JUMPDEST SWAP2 SWAP1 DUP3 ADD DUP1 SWAP3 GT PUSH2 0xD30 JUMPI JUMP JUMPDEST ISZERO PUSH2 0x4541 JUMPI JUMP JUMPDEST PUSH1 0x40 MLOAD PUSH3 0x461BCD PUSH1 0xE5 SHL DUP2 MSTORE PUSH1 0x20 PUSH1 0x4 DUP3 ADD MSTORE PUSH1 0x14 PUSH1 0x24 DUP3 ADD MSTORE PUSH20 0x14DD185C9D081DDA5B991BDDC8195E1C1A5C9959 PUSH1 0x62 SHL PUSH1 0x44 DUP3 ADD MSTORE PUSH1 0x64 SWAP1 REVERT JUMPDEST ISZERO PUSH2 0x4584 JUMPI JUMP JUMPDEST PUSH1 0x40 MLOAD PUSH3 0x461BCD PUSH1 0xE5 SHL DUP2 MSTORE PUSH1 0x20 PUSH1 0x4 DUP3 ADD MSTORE PUSH1 0xC PUSH1 0x24 DUP3 ADD MSTORE PUSH12 0x139BDD081858D8D95C1D1959 PUSH1 0xA2 SHL PUSH1 0x44 DUP3 ADD MSTORE PUSH1 0x64 SWAP1 REVERT JUMPDEST ISZERO PUSH2 0x45BF JUMPI JUMP JUMPDEST PUSH1 0x40 MLOAD PUSH3 0x461BCD PUSH1 0xE5 SHL DUP2 MSTORE PUSH1 0x20 PUSH1 0x4 DUP3 ADD MSTORE PUSH1 0x9 PUSH1 0x24 DUP3 ADD MSTORE PUSH9 0x546F6F206561726C79 PUSH1 0xB8 SHL PUSH1 0x44 DUP3 ADD MSTORE PUSH1 0x64 SWAP1 REVERT JUMPDEST RETURNDATASIZE ISZERO PUSH2 0x461B JUMPI RETURNDATASIZE SWAP1 PUSH2 0x4601 DUP3 PUSH2 0x434B JUMP JUMPDEST SWAP2 PUSH2 0x460F PUSH1 0x40 MLOAD SWAP4 DUP5 PUSH2 0x4259 JUMP JUMPDEST DUP3 MSTORE RETURNDATASIZE PUSH1 0x0 PUSH1 0x20 DUP5 ADD RETURNDATACOPY JUMP JUMPDEST PUSH1 0x60 SWAP1 JUMP JUMPDEST ISZERO PUSH2 0x4627 JUMPI JUMP JUMPDEST PUSH1 0x40 MLOAD PUSH3 0x461BCD PUSH1 0xE5 SHL DUP2 MSTORE PUSH1 0x20 PUSH1 0x4 DUP3 ADD MSTORE PUSH1 0xD PUSH1 0x24 DUP3 ADD MSTORE PUSH13 0x1499599D5B990819985A5B1959 PUSH1 0x9A SHL PUSH1 0x44 DUP3 ADD MSTORE PUSH1 0x64 SWAP1 REVERT JUMPDEST PUSH1 0x40 SWAP2 DUP3 MLOAD SWAP3 PUSH2 0x466B DUP5 PUSH2 0x4223 JUMP JUMPDEST PUSH1 0x23 DUP5 MSTORE PUSH1 0x20 SWAP3 PUSH32 0x43616E63656C6C6564206A6F6220616674657220776F726B6572206163636570 DUP5 DUP7 ADD MSTORE PUSH3 0x1D1959 PUSH1 0xEA SHL DUP3 DUP7 ADD MSTORE PUSH1 0x1 DUP1 PUSH1 0xA0 SHL SUB AND SWAP4 PUSH1 0x0 DUP6 DUP2 MSTORE PUSH1 0x8 DUP6 MSTORE DUP3 DUP2 KECCAK256 SWAP2 DUP4 MLOAD PUSH2 0x46C3 DUP2 PUSH2 0x41ED JUMP JUMPDEST PUSH1 0x8 DUP2 MSTORE DUP7 DUP2 ADD DUP7 DUP2 MSTORE DUP6 DUP3 ADD SWAP1 TIMESTAMP DUP3 MSTORE PUSH1 0x60 DUP4 ADD SWAP4 DUP5 MSTORE DUP6 SLOAD PUSH1 0x1 PUSH1 0x40 SHL DUP2 LT ISZERO PUSH2 0x48C3 JUMPI PUSH2 0x46FA SWAP1 PUSH1 0x1 SWAP8 DUP9 DUP3 ADD DUP2 SSTORE PUSH2 0x448B JUMP JUMPDEST SWAP4 SWAP1 SWAP4 PUSH2 0x48AF JUMPI MLOAD PUSH1 0xD DUP2 LT ISZERO PUSH2 0x489B JUMPI DUP4 SLOAD PUSH1 0xFF NOT AND PUSH1 0xFF SWAP2 SWAP1 SWAP2 AND OR DUP4 SSTORE MLOAD DUP6 DUP4 ADD SSTORE MLOAD PUSH1 0x2 DUP3 ADD SSTORE SWAP1 MLOAD DUP1 MLOAD PUSH1 0x3 SWAP1 SWAP3 ADD SWAP2 SWAP1 PUSH1 0x1 PUSH1 0x1 PUSH1 0x40 SHL SUB DUP3 GT PUSH2 0x4887 JUMPI DUP2 SWAP1 PUSH2 0x474A DUP5 SLOAD PUSH2 0x41B3 JUMP JUMPDEST PUSH1 0x1F DUP2 GT PUSH2 0x4837 JUMPI JUMPDEST POP DUP9 SWAP1 PUSH1 0x1F DUP4 GT PUSH1 0x1 EQ PUSH2 0x47D8 JUMPI DUP6 SWAP3 PUSH2 0x47CD JUMPI JUMPDEST POP POP PUSH1 0x0 NOT PUSH1 0x3 DUP4 SWAP1 SHL SHR NOT AND SWAP1 DUP5 SHL OR SWAP1 SSTORE JUMPDEST DUP6 DUP2 MSTORE PUSH1 0x9 DUP6 MSTORE DUP3 DUP2 KECCAK256 PUSH1 0x8 DUP3 MSTORE DUP6 MSTORE DUP3 DUP2 KECCAK256 SWAP1 DUP2 SLOAD SWAP3 DUP4 ADD DUP1 SWAP4 GT PUSH2 0x47B9 JUMPI POP SSTORE MLOAD SWAP1 DUP2 MSTORE PUSH1 0x8 SWAP3 SWAP2 PUSH1 0x0 DUP1 MLOAD PUSH1 0x20 PUSH2 0x534F DUP4 CODECOPY DUP2 MLOAD SWAP2 MSTORE SWAP2 LOG3 JUMP JUMPDEST PUSH4 0x4E487B71 PUSH1 0xE0 SHL DUP2 MSTORE PUSH1 0x11 PUSH1 0x4 MSTORE PUSH1 0x24 SWAP1 REVERT JUMPDEST ADD MLOAD SWAP1 POP CODESIZE DUP1 PUSH2 0x4768 JUMP JUMPDEST DUP5 DUP7 MSTORE DUP10 DUP7 KECCAK256 DUP8 SWAP5 POP SWAP2 SWAP1 PUSH1 0x1F NOT DUP5 AND DUP8 JUMPDEST DUP13 DUP3 DUP3 LT PUSH2 0x4821 JUMPI POP POP DUP5 GT PUSH2 0x4808 JUMPI JUMPDEST POP POP POP DUP2 SHL ADD SWAP1 SSTORE PUSH2 0x477C JUMP JUMPDEST ADD MLOAD PUSH1 0x0 NOT PUSH1 0xF8 DUP5 PUSH1 0x3 SHL AND SHR NOT AND SWAP1 SSTORE CODESIZE DUP1 DUP1 PUSH2 0x47FB JUMP JUMPDEST DUP4 DUP6 ADD MLOAD DUP7 SSTORE DUP11 SWAP8 SWAP1 SWAP6 ADD SWAP5 SWAP4 DUP5 ADD SWAP4 ADD PUSH2 0x47EA JUMP JUMPDEST SWAP1 SWAP2 POP DUP4 DUP6 MSTORE DUP9 DUP6 KECCAK256 PUSH1 0x1F DUP5 ADD PUSH1 0x5 SHR DUP2 ADD SWAP2 DUP11 DUP6 LT PUSH2 0x487D JUMPI JUMPDEST DUP5 SWAP4 SWAP3 SWAP2 PUSH1 0x1F DUP10 SWAP3 ADD PUSH1 0x5 SHR ADD SWAP2 JUMPDEST DUP3 DUP2 LT PUSH2 0x486F JUMPI POP POP PUSH2 0x4753 JUMP JUMPDEST DUP8 DUP2 SSTORE DUP6 SWAP5 POP DUP9 SWAP2 ADD PUSH2 0x4861 JUMP JUMPDEST SWAP1 SWAP2 POP DUP2 SWAP1 PUSH2 0x4852 JUMP JUMPDEST PUSH4 0x4E487B71 PUSH1 0xE0 SHL DUP5 MSTORE PUSH1 0x41 PUSH1 0x4 MSTORE PUSH1 0x24 DUP5 REVERT JUMPDEST PUSH4 0x4E487B71 PUSH1 0xE0 SHL DUP7 MSTORE PUSH1 0x21 PUSH1 0x4 MSTORE PUSH1 0x24 DUP7 REVERT JUMPDEST PUSH4 0x4E487B71 PUSH1 0xE0 SHL DUP7 MSTORE PUSH1 0x4 DUP7 SWAP1 MSTORE PUSH1 0x24 DUP7 REVERT JUMPDEST PUSH4 0x4E487B71 PUSH1 0xE0 SHL DUP7 MSTORE PUSH1 0x41 PUSH1 0x4 MSTORE PUSH1 0x24 DUP7 REVERT JUMPDEST PUSH1 0x40 MLOAD PUSH2 0x48E3 DUP2 PUSH2 0x4223 JUMP JUMPDEST PUSH1 0x25 DUP2 MSTORE PUSH32 0x4163636570746564206F7220696E2D70726F6772657373206A6F62206162616E PUSH1 0x20 DUP3 ADD MSTORE PUSH5 0x191BDB9959 PUSH1 0xDA SHL PUSH1 0x40 DUP3 ADD MSTORE SWAP1 JUMP JUMPDEST ISZERO PUSH2 0x4925 JUMPI JUMP JUMPDEST PUSH1 0x40 MLOAD PUSH3 0x461BCD PUSH1 0xE5 SHL DUP2 MSTORE PUSH1 0x20 PUSH1 0x4 DUP3 ADD MSTORE PUSH1 0xD PUSH1 0x24 DUP3 ADD MSTORE PUSH13 0x139BDD081CDD589B5A5D1D1959 PUSH1 0x9A SHL PUSH1 0x44 DUP3 ADD MSTORE PUSH1 0x64 SWAP1 REVERT JUMPDEST PUSH1 0x40 MLOAD SWAP1 PUSH2 0x4967 DUP3 PUSH2 0x423E JUMP JUMPDEST PUSH1 0xD DUP3 MSTORE PUSH13 0x1A9BD897D8DBDB5C1B195D1959 PUSH1 0x9A SHL PUSH1 0x20 DUP4 ADD MSTORE JUMP JUMPDEST ISZERO PUSH2 0x498A JUMPI JUMP JUMPDEST PUSH1 0x40 MLOAD PUSH3 0x461BCD PUSH1 0xE5 SHL DUP2 MSTORE PUSH1 0x20 PUSH1 0x4 DUP3 ADD MSTORE PUSH1 0xF PUSH1 0x24 DUP3 ADD MSTORE PUSH15 0x151C985B9CD9995C8819985A5B1959 PUSH1 0x8A SHL PUSH1 0x44 DUP3 ADD MSTORE PUSH1 0x64 SWAP1 REVERT JUMPDEST SWAP1 PUSH1 0x0 SWAP2 DUP1 DUP4 MSTORE PUSH1 0x20 SWAP2 PUSH1 0xB DUP4 MSTORE PUSH1 0x40 SWAP2 DUP3 DUP6 KECCAK256 PUSH1 0x1 DUP1 PUSH1 0xA0 SHL SUB SWAP1 DUP2 DUP2 SLOAD AND PUSH2 0x49EC DUP2 CALLER EQ PUSH2 0x44BB JUMP JUMPDEST PUSH1 0xB DUP3 ADD DUP1 SLOAD PUSH1 0x9 SWAP3 SWAP1 PUSH1 0xFF DUP2 AND DUP5 DUP2 LT ISZERO PUSH2 0x4D75 JUMPI ISZERO PUSH2 0x4DB8 JUMPI POP DUP2 SLOAD SWAP1 PUSH1 0xFF DUP3 AND SWAP2 DUP5 DUP4 LT ISZERO PUSH2 0x4D75 JUMPI PUSH1 0x1 DUP1 SWAP4 EQ PUSH2 0x4D89 JUMPI POP POP DUP2 SLOAD SWAP2 PUSH1 0xFF DUP4 AND DUP5 DUP2 LT ISZERO PUSH2 0x4D75 JUMPI PUSH1 0x2 EQ PUSH2 0x4A7B JUMPI DUP9 MLOAD PUSH3 0x461BCD PUSH1 0xE5 SHL DUP2 MSTORE PUSH1 0x4 DUP2 ADD DUP12 SWAP1 MSTORE PUSH1 0x1B PUSH1 0x24 DUP3 ADD MSTORE PUSH27 0x43616E6E6F742063616E63656C2061742074686973207374616765 PUSH1 0x28 SHL PUSH1 0x44 DUP3 ADD MSTORE PUSH1 0x64 SWAP1 REVERT JUMPDEST PUSH1 0x6 PUSH1 0xFF SWAP11 SWAP5 SWAP7 SWAP9 SWAP11 SWAP10 SWAP4 SWAP6 SWAP8 SWAP10 NOT DUP1 SWAP7 AND OR SWAP1 SSTORE DUP7 DUP7 SLOAD AND SWAP4 PUSH2 0x4A9F DUP10 DUP7 PUSH2 0x465C JUMP JUMPDEST DUP5 DUP12 MSTORE DUP6 DUP5 MSTORE DUP3 DUP12 KECCAK256 PUSH1 0x8 DUP13 MSTORE DUP5 MSTORE PUSH1 0x5 DUP4 DUP13 KECCAK256 SLOAD LT ISZERO PUSH2 0x4AE7 JUMPI JUMPDEST POP POP POP POP POP POP PUSH2 0x4AE0 DUP6 DUP1 DUP1 PUSH2 0x42BA SWAP8 SWAP9 DUP7 DUP7 SLOAD AND PUSH1 0x2 DUP8 ADD SLOAD SWAP1 GAS CALL PUSH2 0x10F8 PUSH2 0x45F0 JUMP JUMPDEST SLOAD AND PUSH2 0x465C JUMP JUMPDEST DUP5 DUP12 MSTORE DUP6 DUP5 MSTORE DUP3 DUP12 KECCAK256 DUP7 DUP13 MSTORE DUP5 MSTORE DUP3 DUP12 KECCAK256 SLOAD PUSH2 0x4ABB JUMPI DUP3 MLOAD SWAP1 PUSH2 0x4B09 DUP3 PUSH2 0x423E JUMP JUMPDEST PUSH1 0x1C DUP3 MSTORE PUSH28 0x233630B3B3B2B21030B9903837BA32B73A34B0B61039B1B0B6B6B2B9 PUSH1 0x21 SHL DUP6 DUP4 ADD MSTORE DUP6 DUP13 MSTORE PUSH1 0x8 DUP6 MSTORE DUP4 DUP13 KECCAK256 DUP13 DUP6 MLOAD SWAP3 PUSH2 0x4B48 DUP5 PUSH2 0x41ED JUMP JUMPDEST DUP10 DUP5 MSTORE DUP8 DUP5 ADD SWAP2 DUP3 MSTORE TIMESTAMP DUP8 DUP6 ADD SWAP1 DUP2 MSTORE PUSH1 0x60 DUP6 ADD SWAP6 DUP7 MSTORE DUP4 SLOAD SWAP1 SWAP4 PUSH1 0x1 PUSH1 0x40 SHL DUP3 LT ISZERO PUSH2 0x4D5F JUMPI SWAP1 PUSH2 0x4B7E SWAP2 DUP9 DUP3 ADD DUP2 SSTORE PUSH2 0x448B JUMP JUMPDEST SWAP5 SWAP1 SWAP5 PUSH2 0x4D4A JUMPI MLOAD SWAP1 PUSH1 0xD DUP3 LT ISZERO PUSH2 0x4D35 JUMPI DUP5 SLOAD PUSH1 0xFF SWAP1 SWAP3 AND SWAP2 AND OR DUP4 SSTORE MLOAD DUP5 DUP4 ADD SSTORE MLOAD PUSH1 0x2 DUP3 ADD SSTORE SWAP1 MLOAD DUP1 MLOAD PUSH1 0x3 SWAP1 SWAP3 ADD SWAP2 SWAP1 PUSH1 0x1 PUSH1 0x1 PUSH1 0x40 SHL SUB DUP3 GT PUSH2 0x4D21 JUMPI DUP13 DUP3 SWAP2 PUSH2 0x4BCD DUP6 SLOAD PUSH2 0x41B3 JUMP JUMPDEST DUP9 PUSH1 0x1F DUP3 GT PUSH2 0x4CC9 JUMPI JUMPDEST POP POP DUP8 SWAP2 PUSH1 0x1F DUP5 GT PUSH1 0x1 EQ PUSH2 0x4C6A JUMPI SWAP3 PUSH2 0x4C5F JUMPI JUMPDEST POP POP PUSH1 0x0 NOT PUSH1 0x3 DUP4 SWAP1 SHL SHR NOT AND SWAP1 DUP4 SHL OR SWAP1 SSTORE JUMPDEST DUP4 DUP11 MSTORE DUP5 DUP4 MSTORE DUP2 DUP11 KECCAK256 DUP6 DUP12 MSTORE DUP4 MSTORE DUP2 DUP11 KECCAK256 DUP1 SLOAD SWAP2 DUP3 ADD DUP1 SWAP3 GT PUSH2 0x4C4B JUMPI SWAP3 PUSH2 0x42BA SWAP10 SWAP11 SWAP5 SWAP3 PUSH1 0x0 DUP1 MLOAD PUSH1 0x20 PUSH2 0x534F DUP4 CODECOPY DUP2 MLOAD SWAP2 MSTORE SWAP3 PUSH2 0x4AE0 SWAP8 SWAP6 SSTORE MLOAD DUP6 DUP2 MSTORE LOG3 SWAP6 SWAP5 CODESIZE DUP1 DUP1 DUP1 PUSH2 0x4ABB JUMP JUMPDEST PUSH4 0x4E487B71 PUSH1 0xE0 SHL DUP12 MSTORE PUSH1 0x11 PUSH1 0x4 MSTORE PUSH1 0x24 DUP12 REVERT JUMPDEST ADD MLOAD SWAP1 POP CODESIZE DUP1 PUSH2 0x4BEC JUMP JUMPDEST SWAP2 SWAP1 DUP7 SWAP5 POP PUSH1 0x1F NOT DUP5 AND DUP7 DUP5 MSTORE DUP10 DUP5 KECCAK256 SWAP4 JUMPDEST DUP11 DUP3 DUP3 LT PUSH2 0x4CB3 JUMPI POP POP DUP5 GT PUSH2 0x4C9A JUMPI JUMPDEST POP POP POP DUP2 SHL ADD SWAP1 SSTORE PUSH2 0x4C00 JUMP JUMPDEST ADD MLOAD PUSH1 0x0 NOT PUSH1 0xF8 DUP5 PUSH1 0x3 SHL AND SHR NOT AND SWAP1 SSTORE CODESIZE DUP1 DUP1 PUSH2 0x4C8D JUMP JUMPDEST DUP4 DUP6 ADD MLOAD DUP7 SSTORE DUP10 SWAP8 SWAP1 SWAP6 ADD SWAP5 SWAP4 DUP5 ADD SWAP4 ADD PUSH2 0x4C7C JUMP JUMPDEST SWAP2 SWAP4 POP SWAP2 DUP6 DUP2 MSTORE KECCAK256 PUSH1 0x1F DUP5 ADD PUSH1 0x5 SHR DUP2 ADD SWAP2 DUP9 DUP6 LT PUSH2 0x4D17 JUMPI JUMPDEST SWAP2 DUP16 SWAP3 DUP6 SWAP5 SWAP3 PUSH1 0x1F DUP10 SWAP3 ADD PUSH1 0x5 SHR ADD SWAP2 JUMPDEST DUP3 DUP2 LT PUSH2 0x4D03 JUMPI POP POP DUP9 PUSH2 0x4BD7 JUMP JUMPDEST DUP1 SWAP3 SWAP5 SWAP2 SWAP4 SWAP6 POP SSTORE ADD SWAP2 DUP15 SWAP2 DUP7 DUP6 SWAP5 PUSH2 0x4CF4 JUMP JUMPDEST SWAP1 SWAP2 POP DUP2 SWAP1 PUSH2 0x4CE3 JUMP JUMPDEST PUSH4 0x4E487B71 PUSH1 0xE0 SHL DUP14 MSTORE PUSH1 0x41 PUSH1 0x4 MSTORE PUSH1 0x24 DUP14 REVERT JUMPDEST POP PUSH4 0x4E487B71 PUSH1 0xE0 SHL DUP16 MSTORE PUSH1 0x21 PUSH1 0x4 MSTORE PUSH1 0x24 DUP16 REVERT JUMPDEST POP PUSH4 0x4E487B71 PUSH1 0xE0 SHL DUP16 MSTORE PUSH1 0x4 DUP16 SWAP1 MSTORE PUSH1 0x24 DUP16 REVERT JUMPDEST POP POP PUSH4 0x4E487B71 PUSH1 0xE0 SHL DUP16 MSTORE PUSH1 0x41 PUSH1 0x4 MSTORE PUSH1 0x24 DUP16 REVERT JUMPDEST PUSH4 0x4E487B71 PUSH1 0xE0 SHL DUP13 MSTORE PUSH1 0x21 PUSH1 0x4 MSTORE PUSH1 0x24 DUP13 REVERT JUMPDEST PUSH2 0x42BA SWAP11 POP DUP12 SWAP10 POP DUP10 SWAP9 SWAP12 SWAP8 POP DUP8 SWAP7 POP PUSH1 0x2 SWAP5 POP PUSH1 0x6 SWAP2 SWAP6 SWAP4 SWAP3 POP PUSH1 0xFF NOT AND OR SWAP1 SSTORE ADD SLOAD SWAP1 GAS CALL PUSH2 0x10F8 PUSH2 0x45F0 JUMP JUMPDEST PUSH1 0xFF NOT AND PUSH1 0x6 OR SWAP1 SWAP2 SSTORE POP SWAP4 SWAP7 POP POP POP POP POP POP POP JUMP JUMPDEST PUSH1 0x1 PUSH1 0x1 PUSH1 0xA0 SHL SUB AND PUSH1 0x0 SWAP1 DUP2 MSTORE PUSH1 0xE PUSH1 0x20 MSTORE PUSH1 0x40 DUP2 KECCAK256 SLOAD ISZERO PUSH2 0x43DC JUMPI PUSH1 0xD PUSH1 0x20 MSTORE PUSH1 0x40 DUP2 KECCAK256 SLOAD PUSH1 0xE PUSH1 0x20 MSTORE PUSH1 0x40 DUP3 KECCAK256 SLOAD SWAP2 DUP3 ISZERO PUSH2 0x4E0B JUMPI POP DIV SWAP1 JUMP JUMPDEST PUSH4 0x4E487B71 PUSH1 0xE0 SHL DUP2 MSTORE PUSH1 0x12 PUSH1 0x4 MSTORE PUSH1 0x24 SWAP1 REVERT JUMPDEST ISZERO PUSH2 0x4E26 JUMPI JUMP JUMPDEST PUSH1 0x40 MLOAD PUSH3 0x461BCD PUSH1 0xE5 SHL DUP2 MSTORE PUSH1 0x20 PUSH1 0x4 DUP3 ADD MSTORE PUSH1 0xC PUSH1 0x24 DUP3 ADD MSTORE PUSH12 0x139BDD081A5B9D9BDB1D9959 PUSH1 0xA2 SHL PUSH1 0x44 DUP3 ADD MSTORE PUSH1 0x64 SWAP1 REVERT JUMPDEST ISZERO PUSH2 0x4E61 JUMPI JUMP JUMPDEST PUSH1 0x40 MLOAD PUSH3 0x461BCD PUSH1 0xE5 SHL DUP2 MSTORE PUSH1 0x20 PUSH1 0x4 DUP3 ADD MSTORE PUSH1 0x10 PUSH1 0x24 DUP3 ADD MSTORE PUSH16 0x105B1C9958591E481C995CDBDB1D9959 PUSH1 0x82 SHL PUSH1 0x44 DUP3 ADD MSTORE PUSH1 0x64 SWAP1 REVERT JUMPDEST PUSH1 0xFF AND PUSH1 0xFF DUP2 EQ PUSH2 0xD30 JUMPI PUSH1 0x1 ADD SWAP1 JUMP JUMPDEST PUSH1 0x5 DUP3 LT ISZERO PUSH2 0x20B5 JUMPI ADD SWAP1 PUSH1 0x0 SWAP1 JUMP JUMPDEST SWAP1 DUP2 MLOAD DUP1 DUP3 MSTORE PUSH1 0x20 DUP1 DUP1 SWAP4 ADD SWAP4 ADD SWAP2 PUSH1 0x0 JUMPDEST DUP3 DUP2 LT PUSH2 0x4EDA JUMPI POP POP POP POP SWAP1 JUMP JUMPDEST DUP4 MLOAD PUSH1 0x1 PUSH1 0x1 PUSH1 0xA0 SHL SUB AND DUP6 MSTORE SWAP4 DUP2 ADD SWAP4 SWAP3 DUP2 ADD SWAP3 PUSH1 0x1 ADD PUSH2 0x4ECC JUMP JUMPDEST ISZERO PUSH2 0x4EFE JUMPI JUMP JUMPDEST PUSH1 0x40 MLOAD PUSH3 0x461BCD PUSH1 0xE5 SHL DUP2 MSTORE PUSH1 0x20 PUSH1 0x4 DUP3 ADD MSTORE PUSH1 0xC PUSH1 0x24 DUP3 ADD MSTORE PUSH12 0x139BDD08191A5CDC1D5D1959 PUSH1 0xA2 SHL PUSH1 0x44 DUP3 ADD MSTORE PUSH1 0x64 SWAP1 REVERT JUMPDEST ISZERO PUSH2 0x4F39 JUMPI JUMP JUMPDEST PUSH1 0x40 MLOAD PUSH3 0x461BCD PUSH1 0xE5 SHL DUP2 MSTORE PUSH1 0x20 PUSH1 0x4 DUP3 ADD MSTORE PUSH1 0xA PUSH1 0x24 DUP3 ADD MSTORE PUSH10 0x4E6F2064697370757465 PUSH1 0xB0 SHL PUSH1 0x44 DUP3 ADD MSTORE PUSH1 0x64 SWAP1 REVERT JUMPDEST PUSH1 0xFF AND PUSH1 0x2 ADD SWAP1 PUSH1 0xFF DUP3 GT PUSH2 0xD30 JUMPI JUMP JUMPDEST SWAP2 SWAP1 DUP3 SUB SWAP2 DUP3 GT PUSH2 0xD30 JUMPI JUMP JUMPDEST PUSH1 0x40 MLOAD SWAP1 PUSH2 0x4F96 DUP3 PUSH2 0x423E JUMP JUMPDEST PUSH1 0xC DUP3 MSTORE PUSH12 0x6C6F73745F64697370757465 PUSH1 0xA0 SHL PUSH1 0x20 DUP4 ADD MSTORE JUMP JUMPDEST PUSH1 0x40 MLOAD SWAP1 PUSH2 0x4FBE DUP3 PUSH2 0x423E JUMP JUMPDEST PUSH1 0xB DUP3 MSTORE PUSH11 0x776F6E5F64697370757465 PUSH1 0xA8 SHL PUSH1 0x20 DUP4 ADD MSTORE JUMP JUMPDEST PUSH1 0x1 PUSH1 0x1 PUSH1 0xA0 SHL SUB AND PUSH1 0x0 DUP2 DUP2 MSTORE PUSH1 0x1 PUSH1 0x20 MSTORE PUSH1 0x40 DUP2 KECCAK256 SLOAD PUSH1 0xFF AND PUSH2 0x5047 JUMPI DUP1 DUP3 PUSH32 0x5D95448EDAE7BCC3F04CEED898BF2926C2E56C8DE7C6A57D3B90539B1FF037A6 SWAP3 MSTORE DUP1 PUSH1 0x20 MSTORE PUSH1 0x40 DUP2 KECCAK256 PUSH1 0xFF NOT SWAP1 PUSH1 0x64 DUP3 DUP3 SLOAD AND OR SWAP1 SSTORE PUSH1 0x1 PUSH1 0x20 MSTORE PUSH1 0x1 PUSH1 0x40 DUP4 KECCAK256 SWAP2 DUP3 SLOAD AND OR SWAP1 SSTORE DUP1 LOG2 JUMP JUMPDEST PUSH1 0x40 MLOAD PUSH3 0x461BCD PUSH1 0xE5 SHL DUP2 MSTORE PUSH1 0x20 PUSH1 0x4 DUP3 ADD MSTORE PUSH1 0x13 PUSH1 0x24 DUP3 ADD MSTORE PUSH19 0x105B1C9958591E481A5B9A5D1A585B1A5E9959 PUSH1 0x6A SHL PUSH1 0x44 DUP3 ADD MSTORE PUSH1 0x64 SWAP1 REVERT JUMPDEST PUSH1 0xFF PUSH2 0x43DC SWAP5 SWAP4 DUP2 PUSH1 0x60 SWAP5 AND DUP4 MSTORE AND PUSH1 0x20 DUP3 ADD MSTORE DUP2 PUSH1 0x40 DUP3 ADD MSTORE ADD SWAP1 PUSH2 0x4173 JUMP JUMPDEST PUSH1 0x1 PUSH1 0x1 PUSH1 0xA0 SHL SUB AND PUSH1 0x0 DUP2 DUP2 MSTORE PUSH1 0x20 DUP2 SWAP1 MSTORE PUSH1 0x40 DUP2 KECCAK256 SLOAD SWAP2 SWAP3 SWAP1 SWAP2 PUSH1 0xFF AND SWAP1 PUSH1 0x5 DUP3 ADD PUSH2 0xFFFF DUP1 DUP3 GT PUSH2 0x5158 JUMPI PUSH1 0x64 SWAP1 DUP3 AND GT ISZERO PUSH2 0x511E JUMPI POP SWAP1 PUSH2 0x5119 PUSH1 0x0 DUP1 MLOAD PUSH1 0x20 PUSH2 0x536F DUP4 CODECOPY DUP2 MLOAD SWAP2 MSTORE SWAP4 SWAP3 PUSH1 0x40 PUSH1 0x64 SWAP5 JUMPDEST DUP8 DUP2 MSTORE DUP1 PUSH1 0x20 MSTORE KECCAK256 PUSH1 0xFF DUP6 AND PUSH1 0xFF NOT DUP3 SLOAD AND OR SWAP1 SSTORE PUSH1 0x40 MLOAD SWAP4 DUP5 SWAP4 DUP5 PUSH2 0x5082 JUMP JUMPDEST SUB SWAP1 LOG2 JUMP JUMPDEST PUSH1 0xFF DUP2 GT PUSH2 0x5144 JUMPI PUSH1 0x0 DUP1 MLOAD PUSH1 0x20 PUSH2 0x536F DUP4 CODECOPY DUP2 MLOAD SWAP2 MSTORE SWAP4 SWAP3 SWAP2 PUSH1 0x40 PUSH2 0x5119 SWAP3 SWAP5 PUSH2 0x50F8 JUMP JUMPDEST PUSH4 0x4E487B71 PUSH1 0xE0 SHL DUP5 MSTORE PUSH1 0x11 PUSH1 0x4 MSTORE PUSH1 0x24 DUP5 REVERT JUMPDEST PUSH4 0x4E487B71 PUSH1 0xE0 SHL DUP6 MSTORE PUSH1 0x11 PUSH1 0x4 MSTORE PUSH1 0x24 DUP6 REVERT JUMPDEST PUSH1 0x1 PUSH1 0x1 PUSH1 0xA0 SHL SUB AND PUSH1 0x0 DUP2 DUP2 MSTORE PUSH1 0x20 DUP2 SWAP1 MSTORE PUSH1 0x40 DUP2 KECCAK256 SLOAD SWAP2 SWAP3 SWAP1 SWAP2 PUSH1 0xFF AND SWAP1 PUSH1 0xA DUP3 ADD PUSH2 0xFFFF DUP1 DUP3 GT PUSH2 0x5158 JUMPI PUSH1 0x64 SWAP1 DUP3 AND GT ISZERO PUSH2 0x511E JUMPI POP SWAP1 PUSH2 0x5119 PUSH1 0x0 DUP1 MLOAD PUSH1 0x20 PUSH2 0x536F DUP4 CODECOPY DUP2 MLOAD SWAP2 MSTORE SWAP4 SWAP3 PUSH1 0x40 PUSH1 0x64 SWAP5 DUP8 DUP2 MSTORE DUP1 PUSH1 0x20 MSTORE KECCAK256 PUSH1 0xFF DUP6 AND PUSH1 0xFF NOT DUP3 SLOAD AND OR SWAP1 SSTORE PUSH1 0x40 MLOAD SWAP4 DUP5 SWAP4 DUP5 PUSH2 0x5082 JUMP JUMPDEST PUSH1 0x1 PUSH1 0x1 PUSH1 0xA0 SHL SUB AND PUSH1 0x0 DUP2 DUP2 MSTORE PUSH1 0x20 DUP2 SWAP1 MSTORE PUSH1 0x40 DUP2 KECCAK256 SLOAD SWAP2 SWAP3 SWAP1 SWAP2 PUSH1 0xFF AND SWAP1 PUSH1 0xA DUP3 GT PUSH2 0x5243 JUMPI SWAP1 PUSH2 0x5119 DUP4 SWAP3 PUSH1 0x40 PUSH1 0x0 DUP1 MLOAD PUSH1 0x20 PUSH2 0x536F DUP4 CODECOPY DUP2 MLOAD SWAP2 MSTORE SWAP6 SWAP5 DUP8 DUP2 MSTORE DUP1 PUSH1 0x20 MSTORE KECCAK256 PUSH1 0xFF DUP6 AND PUSH1 0xFF NOT DUP3 SLOAD AND OR SWAP1 SSTORE PUSH1 0x40 MLOAD SWAP4 DUP5 SWAP4 DUP5 PUSH2 0x5082 JUMP JUMPDEST PUSH1 0x9 NOT DUP3 ADD PUSH1 0xFF DUP2 GT PUSH2 0x5144 JUMPI PUSH1 0x0 DUP1 MLOAD PUSH1 0x20 PUSH2 0x536F DUP4 CODECOPY DUP2 MLOAD SWAP2 MSTORE SWAP4 SWAP3 SWAP2 PUSH1 0x40 PUSH2 0x5119 SWAP3 SWAP5 PUSH2 0x50F8 JUMP JUMPDEST PUSH1 0x1 DUP1 PUSH1 0xA0 SHL SUB AND PUSH1 0x0 MSTORE PUSH1 0x0 PUSH1 0x20 MSTORE PUSH1 0x64 PUSH1 0xFF PUSH1 0x40 PUSH1 0x0 KECCAK256 SLOAD AND LT ISZERO SWAP1 JUMP JUMPDEST PUSH1 0x2 SLOAD DUP2 LT ISZERO PUSH2 0x20B5 JUMPI PUSH1 0x2 PUSH1 0x0 MSTORE PUSH1 0x20 PUSH1 0x0 KECCAK256 ADD SWAP1 PUSH1 0x0 SWAP1 JUMP JUMPDEST PUSH1 0x1 PUSH1 0x1 PUSH1 0xA0 SHL SUB DUP2 AND PUSH1 0x0 DUP2 DUP2 MSTORE PUSH1 0x3 PUSH1 0x20 MSTORE PUSH1 0x40 DUP2 KECCAK256 SLOAD SWAP1 SWAP3 SWAP1 PUSH1 0xFF AND ISZERO PUSH2 0x52D2 JUMPI POP POP POP JUMP JUMPDEST PUSH1 0x2 SLOAD PUSH1 0x1 PUSH1 0x40 SHL DUP2 LT ISZERO PUSH2 0x4887 JUMPI PUSH1 0x40 SWAP4 SWAP3 SWAP2 PUSH2 0x1DCC DUP3 PUSH1 0x1 PUSH2 0x52F9 SWAP5 ADD PUSH1 0x2 SSTORE PUSH2 0x528E JUMP JUMPDEST DUP2 MSTORE PUSH1 0x3 PUSH1 0x20 MSTORE KECCAK256 DUP1 SLOAD PUSH1 0xFF NOT AND PUSH1 0x1 OR SWAP1 SSTORE JUMP JUMPDEST DUP2 ISZERO PUSH2 0x5318 JUMPI MOD SWAP1 JUMP JUMPDEST PUSH4 0x4E487B71 PUSH1 0xE0 SHL PUSH1 0x0 MSTORE PUSH1 0x12 PUSH1 0x4 MSTORE PUSH1 0x24 PUSH1 0x0 REVERT INVALID 0xAA DELEGATECALL SWAP13 EXTCODESIZE SWAP4 0xC6 RETURN 0xA6 PUSH12 0x3AD89750CFDBB3FE0BE78655 SWAP15 CALL 0x29 DUP16 PUSH15 0x6CB977566337D4DF0CB969B99D25F1 0x21 LOG3 0xE9 0xC7 RETURN 0x2D DUP16 0xCC GAS 0xD PUSH25 0x2408695F68DE9493DB8CC177BBF5EE5EEE34326C6C2D38C9B7 0xCE 0xEB PUSH27 0x8E3EE460657A93DD17FAC3E82B141D57A26469706673582212208E 0xDB PUSH5 0x88A3A9193F 0xD2 SWAP7 0xD4 0xE PUSH6 0x637F87BDB2EE PUSH24 0x2109AE47B1F4AB1BBF6A6A9964736F6C6343000814003300 "},"methodIdentifiers":{"APPROVE_TIMEOUT()":"4f0db622","INIT_SCORE()":"247bc4a7","MAX_SCORE()":"27ff6223","MIN_SCORE()":"40b89270","SCAM_THRESHOLD()":"2488b2ee","SERIAL_CANCEL_THRESHOLD()":"e72f73a8","VOTER_THRESHOLD()":"9ec0164a","VOTE_DURATION()":"4654ff05","acceptJob(uint256)":"63b2f3c9","approveJob(uint256,uint8,string)":"771dd581","autoReleaseIfNotApproved(uint256)":"c5f8e299","badgeCount(address,uint256)":"2d592865","cancelIfNotStarted(uint256)":"ca62fafd","cancelIfNotSubmitted(uint256)":"66c910c8","cancelJob(uint256)":"1dffa3dc","castVote(uint256,bool)":"15373e3d","createJob(string,uint256,uint256,uint256,uint256)":"cbf78ee6","disputes(uint256)":"564a565d","feedbacks(uint256)":"2bb8b0dc","fundJob(uint256)":"8d22b863","getBadgeCount(address,uint8)":"8721ba3f","getBadges(address)":"03828e45","getDisputeVoters(uint256)":"1732d652","getMyRole()":"6e3b47fc","getRating(address)":"80fc9c0e","getVoteCount(uint256)":"b2c2f2e8","hasVoted(uint256,address)":"43859632","isEligibleVoter(address)":"4225e7f4","isScammer(address)":"69c04c44","jobCount()":"4c5d8a0f","jobs(uint256)":"180aedf3","raiseDispute(uint256,string)":"5aef573c","ratingCount(address)":"2404165e","registerClient()":"6d9fb287","registerWorker()":"208082bf","replaceInactiveVoters(uint256)":"adcd5843","reputationScore(address)":"50d061cb","resolveDispute(uint256)":"c2b7b868","roles(address)":"99374642","startWork(uint256)":"03a250f9","submitCounterEvidence(uint256,string)":"d0d24142","submitWork(uint256,string)":"da8accf9","totalRating(address)":"4807632f","voteChoice(uint256,address)":"fb468855"}}}}}