{"contracts/GigStamp.sol":{"GigStamp":{"abi":[{"anonymous":false,"inputs":[{"indexed":true,"internalType":"address","name":"user","type":"address"},{"indexed":true,"internalType":"enum BadgeManager.BadgeType","name":"badgeType","type":"uint8"},{"indexed":false,"internalType":"uint256","name":"jobId","type":"uint256"}],"name":"BadgeAwarded","type":"event"},{"anonymous":false,"inputs":[{"indexed":true,"internalType":"uint256","name":"jobId","type":"uint256"},{"indexed":true,"internalType":"address","name":"responder","type":"address"}],"name":"CounterEvidenceSubmitted","type":"event"},{"anonymous":false,"inputs":[{"indexed":true,"internalType":"uint256","name":"jobId","type":"uint256"},{"indexed":true,"internalType":"address","name":"initiator","type":"address"}],"name":"DisputeRaised","type":"event"},{"anonymous":false,"inputs":[{"indexed":true,"internalType":"uint256","name":"jobId","type":"uint256"},{"indexed":false,"internalType":"bool","name":"workerWon","type":"bool"}],"name":"DisputeResolved","type":"event"},{"anonymous":false,"inputs":[{"indexed":true,"internalType":"address","name":"user","type":"address"},{"indexed":false,"internalType":"uint8","name":"oldScore","type":"uint8"},{"indexed":false,"internalType":"uint8","name":"newScore","type":"uint8"},{"indexed":false,"internalType":"string","name":"reason","type":"string"}],"name":"ScoreChanged","type":"event"},{"anonymous":false,"inputs":[{"indexed":true,"internalType":"address","name":"user","type":"address"}],"name":"ScoreInitialized","type":"event"},{"anonymous":false,"inputs":[{"indexed":true,"internalType":"uint256","name":"jobId","type":"uint256"},{"indexed":true,"internalType":"address","name":"voter","type":"address"},{"indexed":false,"internalType":"bool","name":"voteForWorker","type":"bool"}],"name":"Voted","type":"event"},{"anonymous":false,"inputs":[{"indexed":true,"internalType":"uint256","name":"jobId","type":"uint256"},{"indexed":false,"internalType":"address[]","name":"voters","type":"address[]"}],"name":"VoterSelected","type":"event"},{"inputs":[],"name":"APPROVE_TIMEOUT","outputs":[{"internalType":"uint256","name":"","type":"uint256"}],"stateMutability":"view","type":"function"},{"inputs":[],"name":"INIT_SCORE","outputs":[{"internalType":"uint8","name":"","type":"uint8"}],"stateMutability":"view","type":"function"},{"inputs":[],"name":"MAX_SCORE","outputs":[{"internalType":"uint8","name":"","type":"uint8"}],"stateMutability":"view","type":"function"},{"inputs":[],"name":"MIN_SCORE","outputs":[{"internalType":"uint8","name":"","type":"uint8"}],"stateMutability":"view","type":"function"},{"inputs":[],"name":"SCAM_THRESHOLD","outputs":[{"internalType":"uint256","name":"","type":"uint256"}],"stateMutability":"view","type":"function"},{"inputs":[],"name":"SERIAL_CANCEL_THRESHOLD","outputs":[{"internalType":"uint256","name":"","type":"uint256"}],"stateMutability":"view","type":"function"},{"inputs":[],"name":"VOTER_THRESHOLD","outputs":[{"internalType":"uint8","name":"","type":"uint8"}],"stateMutability":"view","type":"function"},{"inputs":[],"name":"VOTE_DURATION","outputs":[{"internalType":"uint256","name":"","type":"uint256"}],"stateMutability":"view","type":"function"},{"inputs":[{"internalType":"uint256","name":"jobId","type":"uint256"}],"name":"acceptJob","outputs":[],"stateMutability":"nonpayable","type":"function"},{"inputs":[{"internalType":"uint256","name":"jobId","type":"uint256"},{"internalType":"uint8","name":"_rating","type":"uint8"},{"internalType":"string","name":"_comment","type":"string"}],"name":"approveJob","outputs":[],"stateMutability":"nonpayable","type":"function"},{"inputs":[{"internalType":"uint256","name":"jobId","type":"uint256"}],"name":"autoReleaseIfNotApproved","outputs":[],"stateMutability":"nonpayable","type":"function"},{"inputs":[{"internalType":"address","name":"","type":"address"},{"internalType":"uint256","name":"","type":"uint256"}],"name":"badgeCount","outputs":[{"internalType":"uint256","name":"","type":"uint256"}],"stateMutability":"view","type":"function"},{"inputs":[{"internalType":"uint256","name":"jobId","type":"uint256"}],"name":"cancelIfNotStarted","outputs":[],"stateMutability":"nonpayable","type":"function"},{"inputs":[{"internalType":"uint256","name":"jobId","type":"uint256"}],"name":"cancelIfNotSubmitted","outputs":[],"stateMutability":"nonpayable","type":"function"},{"inputs":[{"internalType":"uint256","name":"jobId","type":"uint256"}],"name":"cancelJob","outputs":[],"stateMutability":"nonpayable","type":"function"},{"inputs":[{"internalType":"uint256","name":"jobId","type":"uint256"},{"internalType":"bool","name":"voteForWorker","type":"bool"}],"name":"castVote","outputs":[],"stateMutability":"nonpayable","type":"function"},{"inputs":[{"internalType":"string","name":"_jobHash","type":"string"},{"internalType":"uint256","name":"_pay","type":"uint256"},{"internalType":"uint256","name":"_startTime","type":"uint256"},{"internalType":"uint256","name":"_endTime","type":"uint256"},{"internalType":"uint256","name":"_tolerance","type":"uint256"}],"name":"createJob","outputs":[],"stateMutability":"nonpayable","type":"function"},{"inputs":[{"internalType":"uint256","name":"","type":"uint256"}],"name":"disputes","outputs":[{"internalType":"uint256","name":"jobId","type":"uint256"},{"internalType":"address","name":"initiator","type":"address"},{"internalType":"string","name":"evidenceHash","type":"string"},{"internalType":"string","name":"counterHash","type":"string"},{"internalType":"uint8","name":"voterCount","type":"uint8"},{"internalType":"uint8","name":"votesForWorker","type":"uint8"},{"internalType":"uint8","name":"votesForClient","type":"uint8"},{"internalType":"uint256","name":"deadline","type":"uint256"},{"internalType":"bool","name":"resolved","type":"bool"},{"internalType":"bool","name":"workerWon","type":"bool"}],"stateMutability":"view","type":"function"},{"inputs":[{"internalType":"uint256","name":"","type":"uint256"}],"name":"feedbacks","outputs":[{"internalType":"address","name":"client","type":"address"},{"internalType":"address","name":"worker","type":"address"},{"internalType":"uint8","name":"rating","type":"uint8"},{"internalType":"string","name":"comment","type":"string"}],"stateMutability":"view","type":"function"},{"inputs":[{"internalType":"uint256","name":"jobId","type":"uint256"}],"name":"fundJob","outputs":[],"stateMutability":"payable","type":"function"},{"inputs":[{"internalType":"address","name":"user","type":"address"},{"internalType":"enum BadgeManager.BadgeType","name":"badgeType","type":"uint8"}],"name":"getBadgeCount","outputs":[{"internalType":"uint256","name":"","type":"uint256"}],"stateMutability":"view","type":"function"},{"inputs":[{"internalType":"address","name":"user","type":"address"}],"name":"getBadges","outputs":[{"internalType":"enum BadgeManager.BadgeType[]","name":"types","type":"uint8[]"},{"internalType":"uint256[]","name":"jobIds","type":"uint256[]"},{"internalType":"uint256[]","name":"timestamps","type":"uint256[]"},{"internalType":"string[]","name":"notes","type":"string[]"}],"stateMutability":"view","type":"function"},{"inputs":[{"internalType":"uint256","name":"jobId","type":"uint256"}],"name":"getDisputeVoters","outputs":[{"internalType":"address[5]","name":"","type":"address[5]"}],"stateMutability":"view","type":"function"},{"inputs":[],"name":"getMyRole","outputs":[{"internalType":"enum Auth.Role","name":"","type":"uint8"}],"stateMutability":"view","type":"function"},{"inputs":[{"internalType":"address","name":"worker","type":"address"}],"name":"getRating","outputs":[{"internalType":"uint256","name":"","type":"uint256"}],"stateMutability":"view","type":"function"},{"inputs":[{"internalType":"uint256","name":"jobId","type":"uint256"}],"name":"getVoteCount","outputs":[{"internalType":"uint8","name":"forWorker","type":"uint8"},{"internalType":"uint8","name":"forClient","type":"uint8"}],"stateMutability":"view","type":"function"},{"inputs":[{"internalType":"uint256","name":"","type":"uint256"},{"internalType":"address","name":"","type":"address"}],"name":"hasVoted","outputs":[{"internalType":"bool","name":"","type":"bool"}],"stateMutability":"view","type":"function"},{"inputs":[{"internalType":"address","name":"user","type":"address"}],"name":"isEligibleVoter","outputs":[{"internalType":"bool","name":"","type":"bool"}],"stateMutability":"view","type":"function"},{"inputs":[{"internalType":"address","name":"user","type":"address"}],"name":"isScammer","outputs":[{"internalType":"bool","name":"","type":"bool"}],"stateMutability":"view","type":"function"},{"inputs":[],"name":"jobCount","outputs":[{"internalType":"uint256","name":"","type":"uint256"}],"stateMutability":"view","type":"function"},{"inputs":[{"internalType":"uint256","name":"","type":"uint256"}],"name":"jobs","outputs":[{"internalType":"address","name":"client","type":"address"},{"internalType":"address","name":"worker","type":"address"},{"internalType":"uint256","name":"pay","type":"uint256"},{"internalType":"uint256","name":"startTime","type":"uint256"},{"internalType":"uint256","name":"endTime","type":"uint256"},{"internalType":"uint256","name":"tolerance","type":"uint256"},{"internalType":"string","name":"jobHash","type":"string"},{"internalType":"string","name":"resultHash","type":"string"},{"internalType":"uint256","name":"fundedAt","type":"uint256"},{"internalType":"uint256","name":"acceptedAt","type":"uint256"},{"internalType":"uint256","name":"submittedAt","type":"uint256"},{"internalType":"enum JobStatus","name":"status","type":"uint8"}],"stateMutability":"view","type":"function"},{"inputs":[{"internalType":"uint256","name":"jobId","type":"uint256"},{"internalType":"string","name":"evidenceHash","type":"string"}],"name":"raiseDispute","outputs":[],"stateMutability":"nonpayable","type":"function"},{"inputs":[{"internalType":"address","name":"","type":"address"}],"name":"ratingCount","outputs":[{"internalType":"uint256","name":"","type":"uint256"}],"stateMutability":"view","type":"function"},{"inputs":[],"name":"registerClient","outputs":[],"stateMutability":"nonpayable","type":"function"},{"inputs":[],"name":"registerWorker","outputs":[],"stateMutability":"nonpayable","type":"function"},{"inputs":[{"internalType":"address","name":"","type":"address"}],"name":"reputationScore","outputs":[{"internalType":"uint8","name":"","type":"uint8"}],"stateMutability":"view","type":"function"},{"inputs":[{"internalType":"uint256","name":"jobId","type":"uint256"}],"name":"resolveDispute","outputs":[],"stateMutability":"nonpayable","type":"function"},{"inputs":[{"internalType":"address","name":"","type":"address"}],"name":"roles","outputs":[{"internalType":"enum Auth.Role","name":"","type":"uint8"}],"stateMutability":"view","type":"function"},{"inputs":[{"internalType":"uint256","name":"jobId","type":"uint256"}],"name":"startWork","outputs":[],"stateMutability":"nonpayable","type":"function"},{"inputs":[{"internalType":"uint256","name":"jobId","type":"uint256"},{"internalType":"string","name":"counterHash","type":"string"}],"name":"submitCounterEvidence","outputs":[],"stateMutability":"nonpayable","type":"function"},{"inputs":[{"internalType":"uint256","name":"jobId","type":"uint256"},{"internalType":"string","name":"_resultHash","type":"string"}],"name":"submitWork","outputs":[],"stateMutability":"nonpayable","type":"function"},{"inputs":[{"internalType":"address","name":"","type":"address"}],"name":"totalRating","outputs":[{"internalType":"uint256","name":"","type":"uint256"}],"stateMutability":"view","type":"function"},{"inputs":[{"internalType":"uint256","name":"","type":"uint256"},{"internalType":"address","name":"","type":"address"}],"name":"voteChoice","outputs":[{"internalType":"bool","name":"","type":"bool"}],"stateMutability":"view","type":"function"}],"evm":{"bytecode":{"linkReferences":{},"object":"6080806040523461001657614cb7908161001c8239f35b600080fdfe6080604052600436101561001257600080fd5b60003560e01c806303828e451461356c57806303a250f9146134b257806315373e3d146131f35780631732d6521461314a578063180aedf31461305e5780631dffa3dc14613042578063208082bf14612fea5780632404165e14612fb0578063247bc4a7146118ec5780632488b2ee14612f9457806327ff622314612f785780632bb8b0dc14612f0a5780632d59286514612ec257806340b8927014612ea65780634225e7f414612e795780634385963214612e2c5780634654ff0514612e0f5780634807632f14612dd55780634c5d8a0f14612db75780634f0db62214612d9b57806350d061cb14612d5e578063564a565d14612c8f5780635aef573c146126f957806363b2f3c9146125b257806366c910c8146124a557806369c04c441461245c5780636d9fb287146123fb5780636e3b47fc146123c9578063771dd58114611ad557806380fc9c0e14611aaa5780638721ba3f14611a585780638d22b8631461193757806399374642146118f15780639ec0164a146118ec578063b2c2f2e8146118ae578063c2b7b86814611018578063c5f8e29914610c66578063ca62fafd14610ae5578063cbf78ee6146106ff578063d0d2414214610491578063da8accf914610263578063e72f73a8146102475763fb468855146101f557600080fd5b346102425760403660031901126102425761020e6137a8565b600435600052600760205260406000209060018060a01b0316600052602052602060ff604060002054166040519015158152f35b600080fd5b3461024257600036600319011261024257602060405160038152f35b346102425761027136613a1f565b906000526020600b8152604060002090600161029960018060a01b0382850154163314613b7c565b600b83019360ff855416600981101561047b57600303610446576102c66004850154600586015490613bf0565b4211610409578051600785019390916001600160401b0383116103f3576102ed8554613832565b601f81116103aa575b5081601f84116001146103445750928293918392600094610339575b50501b916000199060031b1c19161790555b42600a9190910155805460ff19166004179055005b015192508780610312565b919083601f1981168760005284600020946000905b888383106103905750505010610377575b505050811b019055610324565b015160001960f88460031b161c1916905585808061036a565b858701518855909601959485019487935090810190610359565b8560005282600020601f850160051c8101918486106103e9575b601f0160051c019085905b8281106103dd5750506102f6565b600081550185906103cf565b90915081906103c4565b634e487b7160e01b600052604160045260246000fd5b60405162461bcd60e51b815260048101849052601560248201527414dd589b5a5d081dda5b991bddc8195e1c1a5c9959605a1b6044820152606490fd5b60405162461bcd60e51b815260048101849052600d60248201526c496e76616c696420737461746560981b6044820152606490fd5b634e487b7160e01b600052602160045260246000fd5b346102425761049f36613a1f565b81600052602090600b825260406000209060ff600b60018060a01b039384815416331480156106f0575b6104d290614799565b015416600981101561047b5760076104ea9114614834565b83600052600583526040600020600192838201541661050e600a830154151561486f565b61051f60ff600b84015416156147d4565b33146106ae576003019283549161053583613832565b61066d578051926001600160401b0384116103f35761055390613832565b601f8111610624575b5081601f84116001146105be57509282939183926000946105b3575b50501b916000199060031b1c19161790555b33907f7878f55c48613e960719430c5332344cefc8c552f6afc747476ff85169f618fe600080a3005b015192508680610578565b919083601f1981168760005284600020946000905b8883831061060a57505050106105f1575b505050811b01905561058a565b015160001960f88460031b161c191690558480806105e4565b8587015188559096019594850194879350908101906105d3565b8560005282600020601f850160051c810191848610610663575b601f0160051c019085905b82811061065757505061055c565b60008155018590610649565b909150819061063e565b60405162461bcd60e51b815260048101839052601960248201527810dbdd5b9d195c88185b1c9958591e481cdd589b5a5d1d1959603a1b6044820152606490fd5b60405162461bcd60e51b815260048101859052601a60248201527943616e6e6f7420636f756e746572206f776e206469737075746560301b6044820152606490fd5b506001810154851633146104c9565b346102425760a0366003190112610242576004356001600160401b0381116102425761072f9036906004016139d8565b33600052600460205260ff60406000205416600381101561047b5760016107569114613b43565b6040519061018082016001600160401b038111838210176103f3576040523382526000602083015260243560408301526044356060830152606435608083015260843560a083015260c08201526040516020810181811060018060401b038211176103f3576040526000815260e08201526000610100820152600061012082015260006101408201526000610160820152600a54600052600b60205260406000209060018060a01b038082511660018060a01b0319908185541617845560018401916020840151169082541617905560408101516002830155606081015160038301556080810151600483015560a0810151600583015560c081015191825160018060401b0381116103f35761086f6006830154613832565b601f8111610a9e575b506020601f8211600114610a305781929394600092610a25575b50508160011b916000199060031b1c19161760068201555b60e08201518051906001600160401b0382116103f3576108cd6007840154613832565b601f81116109da575b50602090601f83116001146109645791806101609492600b94600092610959575b50508160011b916000199060031b1c19161760078201555b61010084015160088201556101208401516009820155610140840151600a82015501910151600981101561047b5760ff80198354169116179055610954600a54613aee565b600a55005b0151905086806108f7565b906007840160005260206000209160005b601f19851681106109c25750926101609492600192600b9583601f198116106109a9575b505050811b01600782015561090f565b015160001960f88460031b161c19169055868080610999565b91926020600181928685015181550194019201610975565b600784016000526020600020601f840160051c81019160208510610a1b575b601f0160051c01905b818110610a0f57506108d6565b60008155600101610a02565b90915081906109f9565b015190508480610892565b6006830160005260206000209060005b601f1984168110610a865750600193949583601f19811610610a6d575b505050811b0160068201556108aa565b015160001960f88460031b161c19169055848080610a5d565b9091602060018192858a015181550193019101610a40565b600683016000526020600020601f830160051c810160208410610ade575b601f830160051c82018110610ad2575050610878565b60008155600101610abc565b5080610abc565b346102425760203660031901126102425760043580600052600b602052604060002090600b82019182549260ff8416600981101561047b576002610b299114613bb5565b610b46610b3f6003840154600585015490613bf0565b4211613bfd565b600660ff19809516179055610b82600080808060018060a01b039560028760018301541697825416910154905af1610b7c613c35565b50613c65565b60405192610b8f846138bd565b601b84527a1ddbdc9ad95c97d858d8d95c1d195917db9bdd17dcdd185c9d1959602a1b602085015281600052600060205260ff60406000205416938460051015600014610c23578291610c2195610c19600080516020614c62833981519152936000935b86600052600060205260406000209060ff861690825416179055604051938493846149a1565b0390a2613ca1565b005b60041985019160ff8311610c5057610c2195610c19600080516020614c6283398151915293869593610bf3565b634e487b7160e01b600052601160045260246000fd5b3461024257602080600319360112610242576004359081600052600b81526040600020600b81019081549260ff8416600981101561047b576004610caa9114613f5d565b600a82015460788101809111610c5057610cc690421015613bfd565b600560ff19948516811790935581546040516001600160a01b039391841690610cee816138bd565b601981527831b634b2b73a2fb4b3b737b932b22fb9bab136b4b9b9b4b7b760391b848201526000828152808552604090205460ff169060088211610ff157600080516020614c6283398151915291610d676000925b8560005260008852604060002060ff85168c825416179055604051938493846149a1565b0390a28281541692604051610d7b816138a2565b602681527f446964206e6f7420726573706f6e6420616674657220776f726b65722073756284820152651b5a5d1d195960d21b60408201528460005260088452604060002096604051610dcd8161386c565b8781528581018a81526040820190428252606083019485528a54600160401b8110156103f357610e049060019c8d82018155613afd565b939093610fdb5751600d81101561047b5760ff6003958554169116178355518a83015551600282015501905180519060018060401b0382116103f3578190610e4c8454613832565b601f8111610f8a575b508690601f8311600114610f2757600092610f1c575b5050600019600383901b1c191690881b1790555b83600052600983526040600020856000528352604060002090815493878501809511610c5057610f0660009889988998600080516020614c4283398151915285610c219e8c9b60029a55604051908152a385019183835416716a6f625f636f6d706c657465645f6175746f60701b60405192610efa846138bd565b60128452830152614a8b565b5416910154905af1610f16613c35565b50613fc2565b015190508a80610e6b565b908a9350601f1983169185600052886000209260005b8a828210610f745750508411610f5b575b505050811b019055610e7f565b015160001960f88460031b161c191690558a8080610f4e565b8385015186558e97909501949384019301610f3d565b9091508360005286600020601f84018a1c810191888510610fd1575b84939291601f8d92018c1c01915b828110610fc2575050610e55565b600081558594508c9101610fb4565b9091508190610fa6565b634e487b7160e01b600052600060045260246000fd5b60071982019160ff8311610c5057610d67600080516020614c628339815191529392610d43565b3461024257602036600319011261024257600435600052600b6020526040600020600b810160ff815416600981101561047b5760076110579114614834565b60043560005260056020526040600020600a8101549261107884151561486f565b600b8201549361108b60ff8616156147d4565b4210801590611883575b1561184b57600160098301549461ff0060ff8760101c1660ff8860081c161160081b169061ffff19161717600b83015560405160ff8560101c1660ff8660081c161181527f5a87909bff68caaaaf0b3fd9c74eeccc928832f879315e5c6fb7a73612f26c0c602060043592a260005b60ff60098401541660ff82161015611372576111238160048501614824565b91905491600435600052600660205260406000209260039360018060a01b038284871b1c1660005260205260ff6040600020541615611366576004356000526007602052604060002060018060a01b038284871b1c1660005260205260ff8860101c1660ff8960081c161160ff6040600020541615151460001461129a57604051916111ae836138bd565b600f83526e766f7465645f636f72726563746c7960881b602084015260018060a01b038282871b1c16600052600060205260ff604060002054169261ffff86850111610c505760648061ffff888701161160001461126d57600080516020614c628339815191529392916112689761125f92905b9390931b9390931c6001600160a01b031660008181526020819052604090819020805460ff191660ff8616179055519095909384939091846149a1565b0390a25b614813565b611104565b50919060ff86850111610c505761125f600080516020614c62833981519152938761126898870190611222565b604051916112a7836138bd565b600d83526c766f7465645f77726f6e676c7960981b602084015260018060a01b038282871b1c16600052600060205260ff60406000205416928386101560001461133657941b1c6001600160a01b0316600081815260208190526040808220805460ff1916905551611268959293600080516020614c62833981519152939192839261125f92909190846149a1565b919060ff600219850111610c505761125f600080516020614c628339815191529361126897600219870190611222565b50506112689150614813565b50828460ff199160088382541617905560ff808260101c169160081c16116000146115f45781546001600160a01b03906113b69082166113b06148a8565b90614b00565b8083541691604051906113c8826138bd565b6018825277131bdcdd081848191a5cdc1d5d1948185cc818db1a595b9d60421b60208301528360005260086020526040600020604051906114088261386c565b600782526020820160043581526040830191428352606084019586528054600160401b8110156103f35761144191600182018155613afd565b939093610fdb5751600d81101561047b5760ff600395855416911617835551600183015551600282015501905180519060018060401b0382116103f357819061148a8454613832565b601f81116115a1575b50602090601f831160011461153b57600092611530575b50508160011b916000199060031b1c19161790555b81600052600960205260406000206007600052602052604060002080549260018401809411610c5057610c21946002600095946007879694879695879655600080516020614c4283398151915260206040516004358152a360018301610f068282541661152a6148d0565b90614a8b565b0151905086806114aa565b6000858152602081209350601f198516905b8181106115895750908460019594939210611570575b505050811b0190556114bf565b015160001960f88460031b161c19169055868080611563565b9293602060018192878601518155019501930161154d565b909150836000526020600020601f840160051c810191602085106115ea575b90601f859493920160051c01905b8181106115db5750611493565b600081558493506001016115ce565b90915081906115c0565b6001820180546001600160a01b039182916116139083166113b06148a8565b54169160405190611623826138bd565b600e82526d4c6f73742061206469737075746560901b60208301528360005260086020526040600020604051906116598261386c565b600282526020820160043581526040830191428352606084019586528054600160401b8110156103f35761169291600182018155613afd565b939093610fdb5751600d81101561047b5760ff600395855416911617835551600183015551600282015501905180519060018060401b0382116103f35781906116db8454613832565b601f81116117f8575b50602090601f831160011461179257600092611787575b50508160011b916000199060031b1c19161790555b81600052600960205260406000206002600052602052604060002080549260018401809411610c5057610c219460026000959481879694879695879655600080516020614c4283398151915260206040516004358152a36117768184541661152a6148d0565b825416910154905af1610f16613c35565b0151905086806116fb565b6000858152602081209350601f198516905b8181106117e057509084600195949392106117c7575b505050811b019055611710565b015160001960f88460031b161c191690558680806117ba565b929360206001819287860151815501950193016117a4565b909150836000526020600020601f840160051c81019160208510611841575b90601f859493920160051c01905b81811061183257506116e4565b60008155849350600101611825565b9091508190611817565b60405162461bcd60e51b815260206004820152601060248201526f159bdd1a5b99c81b9bdd08195b99195960821b6044820152606490fd5b50600982015460ff8160101c1660ff8260081c16019060ff8211610c505760ff809116911614611095565b346102425760203660031901126102425760043560005260056020526040600981600020015460ff825191818160081c16835260101c166020820152f35b6139a1565b34610242576020366003190112610242576001600160a01b03611912613792565b16600052600460205261193360ff6040600020541660405191829182613a51565b0390f35b60208060031936011261024257600435600052600b81526040600020336000526004825260ff60406000205416600381101561047b5760016119799114613b43565b80546001600160a01b03163303611a2757600b81019081549060ff8216600981101561047b576119f457600281015434036119c0574260089091015560ff19166001179055005b60405162461bcd60e51b815260048101859052600c60248201526b15dc9bdb99c8185b5bdd5b9d60a21b6044820152606490fd5b60405162461bcd60e51b815260048101859052600b60248201526a139bdd0810dc99585d195960aa1b6044820152606490fd5b60405162461bcd60e51b81526004810183905260096024820152682737ba1037bbb732b960b91b6044820152606490fd5b3461024257604036600319011261024257611a71613792565b60243590600d8210156102425760018060a01b031660005260096020526040600020906000526020526020604060002054604051908152f35b34610242576020366003190112610242576020611acd611ac8613792565b614748565b604051908152f35b346102425760603660031901126102425760243560ff81168103610242576044356001600160401b03811161024257611b129036906004016139d8565b90600435600052600b60205260406000209160018060a01b03835416611b39813314613b43565b600b8401805460ff8116600981101561047b576004611b589114613f5d565b600160ff86161015806123bb575b156123855760ff19166005179055604051611b80816138a2565b602281527f52656c6961626c6520636c69656e74207769746820636c65616e20686973746f602082015261727960f01b6040820152816000526008602052604060002060405191611bd08361386c565b600b8352600435602084015242604084015260608301528054600160401b8110156103f357611c0491600182018155613afd565b919091610fdb57805190600d82101561047b5760609160ff801985541691161783556020810151600184015560408101516002840155015180519060018060401b0382116103f357611c596003840154613832565b601f811161233e575b50602090601f83116001146122cf5760039291600091836122c4575b50508160011b9160001990841b1c1916179101555b8060005260096020526040600020600b600052602052604060002090815491600183018311610c50576001600b93019055600080516020614c4283398151915260206040516004358152a3611d13604051611ced816138bd565b601381527231b634b2b73a2fb0b8383937bb32b22fb537b160691b6020820152336149c2565b600460ff831610611f9757600183018054611d729190611d3e906001600160a01b031661152a613f99565b54604051906001600160a01b0316611d55826138bd565b600b82526a676f6f645f726174696e6760a81b60208301526149c2565b600183015460405191906001600160a01b0316611d8e8361386c565b338352602080840191825260ff85166040808601918252606086019485526004356000908152600c909352909120935184546001600160a01b0319166001600160a01b03918216178555915160018501805492516001600160a81b0319909316919093161760a09190911b60ff60a01b16179055518051906001600160401b0382116103f357611e216002840154613832565b601f8111611f50575b50602090601f8311600114611ee2576002929160009183611ed7575b50508160011b916000199060031b1c1916179101555b60018060a01b03600183015416600052600d602052611e8460ff604060002092168254613bf0565b905560018060a01b03600182015416600052600e602052604060002080549160018301809311610c505760008080809386610c219655600260018060a01b03600183015416910154905af1610f16613c35565b015190508680611e46565b90601f198316916002850160005260206000209260005b818110611f3857509160019391856002969410611f1f575b505050811b01910155611e5c565b015160001960f88460031b161c19169055868080611f11565b92936020600181928786015181550195019301611ef9565b600284016000526020600020601f840160051c810160208510611f90575b601f830160051c82018110611f84575050611e2a565b60008155600101611f6e565b5080611f6e565b600260ff8316116122a5576001830154611fbc906001600160a01b031661152a613f99565b60018060a01b03600184015416604051611fd5816138bd565b600a8152696261645f726174696e6760b01b602082015281600052600060205260ff6040600020541690816007101560001461227b57600080516020614c62833981519152916120496000925b856000526000602052604060002060ff851660ff19825416179055604051938493846149a1565b0390a260018060a01b03600184015416604051612065816138bd565b601b81527a52656365697665642031206f722032207374617220726174696e6760281b60208201528160005260086020526040600020604051916120a88361386c565b60018352600435602084015242604084015260608301528054600160401b8110156103f3576120dc91600182018155613afd565b919091610fdb57805190600d82101561047b5760609160ff801985541691161783556020810151600184015560408101516002840155015180519060018060401b0382116103f3576121316003840154613832565b601f8111612234575b50602090601f83116001146121c55760039291600091836121ba575b50508160011b9160001990841b1c1916179101555b80600052600960205260406000206001600052602052604060002090815491600183018311610c505760018093019055600080516020614c4283398151915260206040516004358152a3611d72565b015190508880612156565b906003840160005260206000209160005b601f198516811061221c5750918391600193600395601f19811610612204575b505050811b0191015561216b565b015160001983861b60f8161c191690558880806121f6565b919260206001819286850151815501940192016121d6565b600384016000526020600020601f840160051c810160208510612274575b601f830160051c8201811061226857505061213a565b60008155600101612252565b5080612252565b60ff600619830111610c5057600080516020614c6283398151915291612049600619820192612022565b60018301546122bf906001600160a01b031661152a613f99565b611d72565b015190508880611c7e565b906003840160005260206000209160005b601f19851681106123265750918391600193600395601f1981161061230e575b505050811b01910155611c93565b015160001983861b60f8161c19169055888080612300565b919260206001819286850151815501940192016122e0565b600384016000526020600020601f840160051c81016020851061237e575b601f830160051c82018110612372575050611c62565b6000815560010161235c565b508061235c565b60405162461bcd60e51b815260206004820152600e60248201526d496e76616c696420726174696e6760901b6044820152606490fd5b50600560ff86161115611b66565b346102425760003660031901126102425733600052600460205261193360ff6040600020541660405191829182613a51565b346102425760003660031901126102425733600052600460205260ff60406000205416600381101561047b576124319015613a64565b3360005260046020526040600020600160ff19825416179055612453336148f7565b610c2133614bc8565b34610242576020366003190112610242576001600160a01b0361247d613792565b1660005260096020526040600020600960005260205260206040600020541515604051908152f35b346102425760203660031901126102425760043580600052600b6020526040600020600b81019182549060ff8216600981101561047b5760030361257b57600080808560028295896006610c21996125116125096004880154600589015490613bf0565b421015613bfd565b60ff19161790556001830180546040516001600160a01b039361256a9390928592612563918416612541826138bd565b601082526f1ddbdc9ad95c97d858985b991bdb995960821b6020830152614b00565b5416613ca1565b825416910154905af1610b7c613c35565b60405162461bcd60e51b815260206004820152600f60248201526e4e6f7420696e2070726f677265737360881b6044820152606490fd5b346102425760208060031936011261024257600435600052600b81526040600020336000526004825260ff60406000205416600381101561047b5760026125f99114613b7c565b600b81019081549060ff8216600981101561047b576001036126c75780546001600160a01b03908116331461268c5760018201908154908116612657576001600160a01b03191633179055426009919091015560ff19166002179055005b60405162461bcd60e51b815260048101879052600d60248201526c20b63932b0b23c903a30b5b2b760991b6044820152606490fd5b60405162461bcd60e51b815260048101869052601360248201527221b0b73737ba103a30b5b29037bbb7103537b160691b6044820152606490fd5b60405162461bcd60e51b815260048101859052600a602482015269139bdd08199d5b99195960b21b6044820152606490fd5b346102425761270736613a1f565b6000828152600b6020526040902080546001600160a01b0316903382148015612c79575b61273490614799565b600b8101805460ff8116600981101561047b5760048114908115612c6e575b5015612c2d5760079060ff19161790556001808060a01b03910154169083600052600560205260406000209261279060ff600b86015416156147d4565b600a840154612bef578484556001840180546001600160a01b031916331790558051906001600160401b0382116103f35781906127d06002870154613832565b601f8111612b9c575b50602090601f8311600114612b2f57600092612b24575b50508160011b916000199060031b1c19161760028401555b61012c4201804211610c5057600a84015560405160208101904282524460408201528560608201526060815261283d8161386c565b5190209160025461284d81613abc565b9260009260005b838110612ab2575050505060058110600014612aa75760ff8116909493945b61287f60ff8316613abc565b9361288982613abc565b9360005b838110612a7a57505060005b60ff841681106129b05787878760ff815116600984019060ff19825416179055600460009301925b815160ff82169081101561291b576129169190611263906001600160a01b03906128eb9086613b2f565b51166128f78388614824565b90919082549060031b9160018060a01b03809116831b921b1916179055565b6128c1565b50506040519033837f84a477df8a28a4276ca6dee4458a06c3015f30c477d9c949ede4e13ff8a552b4600080a36020820160208352815180915260206040840192019060005b81811061299157857faaf49c3b93c6f3a66b3ad89750cfdbb3fe0be786559ef1298f6e6cb97756633786860387a2005b82516001600160a01b0316845260209384019390920191600101612961565b6040979697516020810190838252826040820152604081526129d1816138a2565b5190209080840390848211610c5057808514612a64576129f8612a5a9260ff940682613bf0565b612a356001600160a01b03612a0d848b613b2f565b5116916001600160a01b03612a22828c613b2f565b5116612a2e858c613b2f565b5289613b2f565b526001600160a01b03612a488289613b2f565b5116612a54828a613b2f565b52613aee565b9050969596612899565b634e487b7160e01b600052601260045260246000fd5b969796612a9f906001600160a01b03612a938285613b2f565b5116612a548289613b2f565b97969761288d565b600590949394612873565b612abb81614bad565b905460039190911b1c6001600160a01b03168381141580612b1a575b80612b0b575b612af1575b50612aec90613aee565b612854565b85612b0491612a54612aec94988a613b2f565b9490612ae2565b50612b1581614b8d565b612add565b5082811415612ad7565b0151905086806127f0565b600287016000908152602081209350601f198516905b818110612b845750908460019594939210612b6b575b505050811b016002840155612808565b015160001960f88460031b161c19169055868080612b5b565b92936020600181928786015181550195019301612b45565b909150600286016000526020600020601f840160051c810160208510612be8575b90849392915b601f830160051c82018110612bd95750506127d9565b60008155859450600101612bc3565b5080612bbd565b60405162461bcd60e51b8152602060048201526016602482015275111a5cdc1d5d1948185b1c9958591e481c985a5cd95960521b6044820152606490fd5b60405162461bcd60e51b8152602060048201526019602482015278496e76616c696420737461746520666f72206469737075746560381b6044820152606490fd5b600391501487612753565b5060018101546001600160a01b0316331461272b565b34610242576020366003190112610242576004356000908152600560205260409020805460018201546001600160a01b03169160ff612cd0600283016138fb565b612cdc600384016138fb565b9282612d21600983015495612d13600b600a860154950154956040519a8b9a8b5260208b01526101408060408c01528a01906137f2565b9088820360608a01526137f2565b948181166080880152818160081c1660a088015260101c1660c086015260e0850152818116151561010085015260081c1615156101208301520390f35b34610242576020366003190112610242576001600160a01b03612d7f613792565b166000526000602052602060ff60406000205416604051908152f35b3461024257600036600319011261024257602060405160788152f35b34610242576000366003190112610242576020600a54604051908152f35b34610242576020366003190112610242576001600160a01b03612df6613792565b16600052600d6020526020604060002054604051908152f35b3461024257600036600319011261024257602060405161012c8152f35b3461024257604036600319011261024257612e456137a8565b600435600052600660205260406000209060018060a01b0316600052602052602060ff604060002054166040519015158152f35b34610242576020366003190112610242576020612e9c612e97613792565b614b8d565b6040519015158152f35b3461024257600036600319011261024257602060405160008152f35b34610242576040366003190112610242576001600160a01b03612ee3613792565b16600052600960205260406000206024356000526020526020604060002054604051908152f35b3461024257602036600319011261024257600435600052600c602052604060002060018060a01b0390611933828254169160ff612f4e6002600184015493016138fb565b9160405195869586528116602086015260a01c1660408401526080606084015260808301906137f2565b3461024257600036600319011261024257602060405160648152f35b3461024257600036600319011261024257602060405160058152f35b34610242576020366003190112610242576001600160a01b03612fd1613792565b16600052600e6020526020604060002054604051908152f35b346102425760003660031901126102425733600052600460205260ff60406000205416600381101561047b576130209015613a64565b3360005260046020526040600020600260ff19825416179055612453336148f7565b3461024257602036600319011261024257610c21600435614000565b3461024257602036600319011261024257600435600052600b602052604060002060018060a01b0390818154169160018201541690600281015490600381015491613122600483015461311460058501546130bb600687016138fb565b906130c8600788016138fb565b9360088801549860098901549760ff600b600a8c01549b0154169b60206040519e8f908152015260408d015260608c015260808b015260a08a01526101808060c08b01528901906137f2565b9087820360e08901526137f2565b92610100860152610120850152610140840152600982101561047b5782916101608301520390f35b34610242576020806003193601126102425760a060405161316a81613887565b36903760043560005260058082526004604060002001916040519283826000915b8583106131d3575050505061319f83613887565b60405192600090845b8483106131b45760a086f35b81516001600160a01b03168152600192909201919083019083016131a8565b83546001600160a01b03168152600193840193929092019184910161318b565b34610242576040366003190112610242576024803580151590600435908281036102425781600052602090600b825260ff80600b6040600020015416600981101561349d5760076132449114614834565b8360005260058352604060002091600a83015480156134655761326d83600b86015416156147d4565b42101561342b578460005260068452604060002033600052845281604060002054166133f7576000809360098101946004858754169201905b82868216106133b9575b5050501561337e57847ff2913dbe661ee2acc4a046d8fbcdc792373bda34c41c6086484b5345e5785e5f95969750600052600684526040600020336000528452604060002060ff1990600182825416179055866000526007855260406000203360005285526040600020908154168389161790556000146133575761ff0061333e8354928360081c16614813565b60081b169061ff0019161790555b6040519384523393a3005b62ff000061336b8354928360101c16614813565b60101b169062ff0000191617905561334c565b60405162461bcd60e51b815260048101859052601481890152732737ba10309039b2b632b1ba32b2103b37ba32b960611b6044820152606490fd5b6133c38183614824565b905460039190911b1c6001600160a01b031633146133e9576133e490614813565b6132a6565b5050505060018880806132b0565b60405162461bcd60e51b815260048101859052600d818901526c105b1c9958591e481d9bdd1959609a1b6044820152606490fd5b60405162461bcd60e51b81526004810185905260138189015272159bdd1a5b99c81c195c9a5bd908195b991959606a1b6044820152606490fd5b60405162461bcd60e51b8152600481018690526011818a0152704e6f20646973707574652065786973747360781b6044820152606490fd5b86634e487b7160e01b60005260216004526000fd5b3461024257602036600319011261024257600435600052600b60205260406000206134ea60018060a01b036001830154163314613b7c565b600b81019081549060ff821690600982101561047b5761350f600261351f9314613bb5565b6005600382015491015490613bf0565b42116135305760ff19166003179055005b60405162461bcd60e51b815260206004820152601460248201527314dd185c9d081dda5b991bddc8195e1c1a5c995960621b6044820152606490fd5b3461024257602080600319360112610242576001600160a01b0361358e613792565b166000526008815260406000208054906135a782613aa5565b916135b560405193846138d8565b8083526135c181613aa5565b90848401601f198093013682376135d782613abc565b6135e083613abc565b926135ea81613aa5565b956135f860405197886138d8565b8187528561360583613aa5565b0160005b81811061378357505060005b8281106136ea57505050604051956080870190608088525180915260a08701929060005b8181106136c357505050816136589187613666959403898901526137be565b9085820360408701526137be565b93838503606085015282519081865280860181808460051b8901019501936000975b8489106136955787870388f35b90919293949584806136b1838686600196030188528a516137f2565b98019401980197919094939294613688565b909193849996995190600d82101561047b5790815295989589019389019190600101613639565b60ff6136f982849c999c613afd565b50541690613707818b613b2f565b91600d81101561047b5761377b925260016137228285613afd565b50015461372f8287613b2f565b52600261373c8285613afd565b5001546137498289613b2f565b5261376060036137598386613afd565b50016138fb565b61376a828b613b2f565b52613775818a613b2f565b50613aee565b989598613615565b60608982018c01528a01613609565b600435906001600160a01b038216820361024257565b602435906001600160a01b038216820361024257565b90815180825260208080930193019160005b8281106137de575050505090565b8351855293810193928101926001016137d0565b919082519283825260005b84811061381e575050826000602080949584010152601f8019910116010190565b6020818301810151848301820152016137fd565b90600182811c92168015613862575b602083101461384c57565b634e487b7160e01b600052602260045260246000fd5b91607f1691613841565b608081019081106001600160401b038211176103f357604052565b60a081019081106001600160401b038211176103f357604052565b606081019081106001600160401b038211176103f357604052565b604081019081106001600160401b038211176103f357604052565b601f909101601f19168101906001600160401b038211908210176103f357604052565b906040519182600082549261390f84613832565b90818452600194858116908160001461397e575060011461393b575b5050613939925003836138d8565b565b9093915060005260209081600020936000915b8183106139665750506139399350820101388061392b565b8554888401850152948501948794509183019161394e565b91505061393994506020925060ff191682840152151560051b820101388061392b565b3461024257600036600319011261024257602060405160508152f35b6001600160401b0381116103f357601f01601f191660200190565b81601f82011215610242578035906139ef826139bd565b926139fd60405194856138d8565b8284526020838301011161024257816000926020809301838601378301015290565b9060406003198301126102425760043591602435906001600160401b03821161024257613a4e916004016139d8565b90565b91906020830192600382101561047b5752565b15613a6b57565b60405162461bcd60e51b8152602060048201526012602482015271105b1c9958591e481c9959da5cdd195c995960721b6044820152606490fd5b6001600160401b0381116103f35760051b60200190565b90613ac682613aa5565b613ad360405191826138d8565b8281528092613ae4601f1991613aa5565b0190602036910137565b6000198114610c505760010190565b8054821015613b195760005260206000209060021b0190600090565b634e487b7160e01b600052603260045260246000fd5b8051821015613b195760209160051b010190565b15613b4a57565b60405162461bcd60e51b815260206004820152600a602482015269139bdd0818db1a595b9d60b21b6044820152606490fd5b15613b8357565b60405162461bcd60e51b815260206004820152600a6024820152692737ba103bb7b935b2b960b11b6044820152606490fd5b15613bbc57565b60405162461bcd60e51b815260206004820152600c60248201526b139bdd081858d8d95c1d195960a21b6044820152606490fd5b91908201809211610c5057565b15613c0457565b60405162461bcd60e51b8152602060048201526009602482015268546f6f206561726c7960b81b6044820152606490fd5b3d15613c60573d90613c46826139bd565b91613c5460405193846138d8565b82523d6000602084013e565b606090565b15613c6c57565b60405162461bcd60e51b815260206004820152600d60248201526c1499599d5b990819985a5b1959609a1b6044820152606490fd5b604090815192613cb0846138a2565b602584526020917f4163636570746564206f7220696e2d70726f6772657373206a6f62206162616e8386015264191bdb995960da1b8486015260018060a01b03169260009484865260088452818620908251613d0b8161386c565b87815285810185815284820190428252606083019384528454600160401b811015613f0457613d41906001968782018155613afd565b939093613ef05751600d811015613edc57835460ff191660ff91909116178355518483015551600282015590518051600390920191906001600160401b038211613ec8578190613d918454613832565b601f8111613e78575b508790601f8311600114613e19578a92613e0e575b5050600019600383901b1c191690831b1790555b8486526009845281862086805284528186208054918201809211613dfa575551908152600080516020614c428339815191529190a3565b634e487b7160e01b87526011600452602487fd5b015190503880613daf565b848b52888b208694509190601f1984168c5b8b828210613e625750508411613e49575b505050811b019055613dc3565b015160001960f88460031b161c19169055388080613e3c565b8385015186558997909501949384019301613e2b565b909150838a52878a20601f840160051c810191898510613ebe575b84939291601f88920160051c01915b828110613eb0575050613d9a565b8c8155859450879101613ea2565b9091508190613e93565b634e487b7160e01b89526041600452602489fd5b634e487b7160e01b8b52602160045260248bfd5b634e487b7160e01b8b5260048b905260248bfd5b634e487b7160e01b8b52604160045260248bfd5b604051613f24816138a2565b602381527f43616e63656c6c6564206a6f6220616674657220776f726b65722061636365706020820152621d195960ea1b604082015290565b15613f6457565b60405162461bcd60e51b815260206004820152600d60248201526c139bdd081cdd589b5a5d1d1959609a1b6044820152606490fd5b60405190613fa6826138bd565b600d82526c1a9bd897d8dbdb5c1b195d1959609a1b6020830152565b15613fc957565b60405162461bcd60e51b815260206004820152600f60248201526e151c985b9cd9995c8819985a5b1959608a1b6044820152606490fd5b6000818152600b6020526040902080546001600160a01b0316614024338214613b43565b600b820190815460ff8116600981101561047b57600114614720575050805460ff8116600981101561047b5760021461409a5760405162461bcd60e51b815260206004820152601b60248201527a43616e6e6f742063616e63656c206174207468697320737461676560281b6044820152606490fd5b60ff19166006179055600181015481546001600160a01b039182169291166140c0613f18565b816000526008602052604060002090604051916140dc8361386c565b60088352602083018781526040840191428352606085019384528054600160401b8110156103f35761411391600182018155613afd565b949094610fdb5751600d81101561047b5760ff801986541691161784555160018401555160028301555180519060018060401b0382116103f35761415a6003840154613832565b601f81116146d9575b50602090601f831160011461466a57600392916000918361465f575b50508160011b9160001990841b1c1916179101555b8060005260096020526040600020600860005260205260406000208054600181018111610c50576001019055600881600080516020614c428339815191526020604051888152a3806000526009602052604060002060086000526020526005604060002054101561440c575b50600080808061422494600260018060a01b03825416910154905af1610f16613c35565b61422c613f18565b81600052600860205260406000206040516142468161386c565b6008815260208101918583526040820190428252606083019485528054600160401b8110156103f35761427e91600182018155613afd565b929092610fdb575192600d84101561047b5760039360ff8019855416911617835551600183015551600282015501905180519060018060401b0382116103f35781906142ca8454613832565b601f81116143b9575b50602090601f831160011461435357600092614348575b50508160011b916000199060031b1c19161790555b80600052600960205260406000206008600052602052604060002080549060018201809211610c5057600893600080516020614c428339815191529260209255604051908152a3565b0151905038806142ea565b6000858152602081209350601f198516905b8181106143a15750908460019594939210614388575b505050811b0190556142ff565b015160001960f88460031b161c1916905538808061437b565b92936020600181928786015181550195019301614365565b909150836000526020600020601f840160051c81019160208510614402575b90601f859493920160051c01905b8181106143f357506142d3565b600081558493506001016143e6565b90915081906143d8565b806000526009602052604060002060096000526020526040600020546142005790604051614439816138bd565b601c81527b233630b3b3b2b21030b9903837ba32b73a34b0b61039b1b0b6b6b2b960211b602082015282600052600860205260406000206040519161447d8361386c565b600983526000602084015242604084015260608301528054600160401b8110156103f3576144b091600182018155613afd565b919091610fdb57805190600d82101561047b5760609160ff801985541691161783556020810151600184015560408101516002840155015180519060018060401b0382116103f3576145056003840154613832565b601f8111614618575b50602090601f83116001146145a957600392916000918361459e575b50508160011b9160001990841b1c1916179101555b81600052600960205260406000206009600052602052604060002091825490600182018211610c50576000809360098294936142249760018596019055600080516020614c428339815191526020604051868152a39450505050614200565b01519050388061452a565b906003840160005260206000209160005b601f19851681106146005750918391600193600395601f198116106145e8575b505050811b0191015561453f565b015160001983861b60f8161c191690553880806145da565b919260206001819286850151815501940192016145ba565b600384016000526020600020601f840160051c810160208510614658575b601f830160051c8201811061464c57505061450e565b60008155600101614636565b5080614636565b01519050388061417f565b906003840160005260206000209160005b601f19851681106146c15750918391600193600395601f198116106146a9575b505050811b01910155614194565b015160001983861b60f8161c1916905538808061469b565b9192602060018192868501518155019401920161467b565b600384016000526020600020601f840160051c810160208510614719575b601f830160051c8201811061470d575050614163565b600081556001016146f7565b50806146f7565b613939945060009391600285949385946006869560ff19161790550154905af1610f16613c35565b6001600160a01b03166000908152600e602052604081205415613a4e57600d6020526040812054600e602052604082205491821561478557500490565b634e487b7160e01b81526012600452602490fd5b156147a057565b60405162461bcd60e51b815260206004820152600c60248201526b139bdd081a5b9d9bdb1d995960a21b6044820152606490fd5b156147db57565b60405162461bcd60e51b815260206004820152601060248201526f105b1c9958591e481c995cdbdb1d995960821b6044820152606490fd5b60ff1660ff8114610c505760010190565b6005821015613b19570190600090565b1561483b57565b60405162461bcd60e51b815260206004820152600c60248201526b139bdd08191a5cdc1d5d195960a21b6044820152606490fd5b1561487657565b60405162461bcd60e51b815260206004820152600a6024820152694e6f206469737075746560b01b6044820152606490fd5b604051906148b5826138bd565b600c82526b6c6f73745f6469737075746560a01b6020830152565b604051906148dd826138bd565b600b82526a776f6e5f6469737075746560a81b6020830152565b6001600160a01b031660008181526001602052604081205460ff166149665780827f5d95448edae7bcc3f04ceed898bf2926c2e56c8de7c6a57d3b90539b1ff037a69252806020526040812060ff199060508282541617905560016020526001604083209182541617905580a2565b60405162461bcd60e51b8152602060048201526013602482015272105b1c9958591e481a5b9a5d1a585b1a5e9959606a1b6044820152606490fd5b60ff613a4e94938160609416835216602082015281604082015201906137f2565b6001600160a01b03166000818152602081905260408120549192909160ff16906005820161ffff808211614a775760649082161115614a3d575090614a38600080516020614c62833981519152939260406064945b878152806020522060ff851660ff19825416179055604051938493846149a1565b0390a2565b60ff8111614a6357600080516020614c628339815191529392916040614a389294614a17565b634e487b7160e01b84526011600452602484fd5b634e487b7160e01b85526011600452602485fd5b6001600160a01b03166000818152602081905260408120549192909160ff1690600a820161ffff808211614a775760649082161115614a3d575090614a38600080516020614c6283398151915293926040606494878152806020522060ff851660ff19825416179055604051938493846149a1565b6001600160a01b03166000818152602081905260408120549192909160ff1690600a8211614b625790614a3883926040600080516020614c628339815191529594878152806020522060ff851660ff19825416179055604051938493846149a1565b600919820160ff8111614a6357600080516020614c628339815191529392916040614a389294614a17565b60018060a01b03166000526000602052605060ff60406000205416101590565b600254811015613b1957600260005260206000200190600090565b6001600160a01b03811660008181526003602052604081205490929060ff1615614bf157505050565b600254600160401b811015614c2d5760409392916128f7826001614c189401600255614bad565b8152600360205220805460ff19166001179055565b634e487b7160e01b84526041600452602484fdfed4df0cb969b99d25f121a3e9c7f32d8fcc5a0d782408695f68de9493db8cc177bbf5ee5eee34326c6c2d38c9b7ceeb7a8e3ee460657a93dd17fac3e82b141d57a2646970667358221220ed291a01a526e824fa52c1b48d232c2fef9c7804dd50c3788ab18d12e7ac363964736f6c63430008140033","opcodes":"PUSH1 0x80 DUP1 PUSH1 0x40 MSTORE CALLVALUE PUSH2 0x16 JUMPI PUSH2 0x4CB7 SWAP1 DUP2 PUSH2 0x1C DUP3 CODECOPY RETURN JUMPDEST PUSH1 0x0 DUP1 REVERT INVALID PUSH1 0x80 PUSH1 0x40 MSTORE PUSH1 0x4 CALLDATASIZE LT ISZERO PUSH2 0x12 JUMPI PUSH1 0x0 DUP1 REVERT JUMPDEST PUSH1 0x0 CALLDATALOAD PUSH1 0xE0 SHR DUP1 PUSH4 0x3828E45 EQ PUSH2 0x356C JUMPI DUP1 PUSH4 0x3A250F9 EQ PUSH2 0x34B2 JUMPI DUP1 PUSH4 0x15373E3D EQ PUSH2 0x31F3 JUMPI DUP1 PUSH4 0x1732D652 EQ PUSH2 0x314A JUMPI DUP1 PUSH4 0x180AEDF3 EQ PUSH2 0x305E JUMPI DUP1 PUSH4 0x1DFFA3DC EQ PUSH2 0x3042 JUMPI DUP1 PUSH4 0x208082BF EQ PUSH2 0x2FEA JUMPI DUP1 PUSH4 0x2404165E EQ PUSH2 0x2FB0 JUMPI DUP1 PUSH4 0x247BC4A7 EQ PUSH2 0x18EC JUMPI DUP1 PUSH4 0x2488B2EE EQ PUSH2 0x2F94 JUMPI DUP1 PUSH4 0x27FF6223 EQ PUSH2 0x2F78 JUMPI DUP1 PUSH4 0x2BB8B0DC EQ PUSH2 0x2F0A JUMPI DUP1 PUSH4 0x2D592865 EQ PUSH2 0x2EC2 JUMPI DUP1 PUSH4 0x40B89270 EQ PUSH2 0x2EA6 JUMPI DUP1 PUSH4 0x4225E7F4 EQ PUSH2 0x2E79 JUMPI DUP1 PUSH4 0x43859632 EQ PUSH2 0x2E2C JUMPI DUP1 PUSH4 0x4654FF05 EQ PUSH2 0x2E0F JUMPI DUP1 PUSH4 0x4807632F EQ PUSH2 0x2DD5 JUMPI DUP1 PUSH4 0x4C5D8A0F EQ PUSH2 0x2DB7 JUMPI DUP1 PUSH4 0x4F0DB622 EQ PUSH2 0x2D9B JUMPI DUP1 PUSH4 0x50D061CB EQ PUSH2 0x2D5E JUMPI DUP1 PUSH4 0x564A565D EQ PUSH2 0x2C8F JUMPI DUP1 PUSH4 0x5AEF573C EQ PUSH2 0x26F9 JUMPI DUP1 PUSH4 0x63B2F3C9 EQ PUSH2 0x25B2 JUMPI DUP1 PUSH4 0x66C910C8 EQ PUSH2 0x24A5 JUMPI DUP1 PUSH4 0x69C04C44 EQ PUSH2 0x245C JUMPI DUP1 PUSH4 0x6D9FB287 EQ PUSH2 0x23FB JUMPI DUP1 PUSH4 0x6E3B47FC EQ PUSH2 0x23C9 JUMPI DUP1 PUSH4 0x771DD581 EQ PUSH2 0x1AD5 JUMPI DUP1 PUSH4 0x80FC9C0E EQ PUSH2 0x1AAA JUMPI DUP1 PUSH4 0x8721BA3F EQ PUSH2 0x1A58 JUMPI DUP1 PUSH4 0x8D22B863 EQ PUSH2 0x1937 JUMPI DUP1 PUSH4 0x99374642 EQ PUSH2 0x18F1 JUMPI DUP1 PUSH4 0x9EC0164A EQ PUSH2 0x18EC JUMPI DUP1 PUSH4 0xB2C2F2E8 EQ PUSH2 0x18AE JUMPI DUP1 PUSH4 0xC2B7B868 EQ PUSH2 0x1018 JUMPI DUP1 PUSH4 0xC5F8E299 EQ PUSH2 0xC66 JUMPI DUP1 PUSH4 0xCA62FAFD EQ PUSH2 0xAE5 JUMPI DUP1 PUSH4 0xCBF78EE6 EQ PUSH2 0x6FF JUMPI DUP1 PUSH4 0xD0D24142 EQ PUSH2 0x491 JUMPI DUP1 PUSH4 0xDA8ACCF9 EQ PUSH2 0x263 JUMPI DUP1 PUSH4 0xE72F73A8 EQ PUSH2 0x247 JUMPI PUSH4 0xFB468855 EQ PUSH2 0x1F5 JUMPI PUSH1 0x0 DUP1 REVERT JUMPDEST CALLVALUE PUSH2 0x242 JUMPI PUSH1 0x40 CALLDATASIZE PUSH1 0x3 NOT ADD SLT PUSH2 0x242 JUMPI PUSH2 0x20E PUSH2 0x37A8 JUMP JUMPDEST PUSH1 0x4 CALLDATALOAD PUSH1 0x0 MSTORE PUSH1 0x7 PUSH1 0x20 MSTORE PUSH1 0x40 PUSH1 0x0 KECCAK256 SWAP1 PUSH1 0x1 DUP1 PUSH1 0xA0 SHL SUB AND PUSH1 0x0 MSTORE PUSH1 0x20 MSTORE PUSH1 0x20 PUSH1 0xFF PUSH1 0x40 PUSH1 0x0 KECCAK256 SLOAD AND PUSH1 0x40 MLOAD SWAP1 ISZERO ISZERO DUP2 MSTORE RETURN JUMPDEST PUSH1 0x0 DUP1 REVERT JUMPDEST CALLVALUE PUSH2 0x242 JUMPI PUSH1 0x0 CALLDATASIZE PUSH1 0x3 NOT ADD SLT PUSH2 0x242 JUMPI PUSH1 0x20 PUSH1 0x40 MLOAD PUSH1 0x3 DUP2 MSTORE RETURN JUMPDEST CALLVALUE PUSH2 0x242 JUMPI PUSH2 0x271 CALLDATASIZE PUSH2 0x3A1F JUMP JUMPDEST SWAP1 PUSH1 0x0 MSTORE PUSH1 0x20 PUSH1 0xB DUP2 MSTORE PUSH1 0x40 PUSH1 0x0 KECCAK256 SWAP1 PUSH1 0x1 PUSH2 0x299 PUSH1 0x1 DUP1 PUSH1 0xA0 SHL SUB DUP3 DUP6 ADD SLOAD AND CALLER EQ PUSH2 0x3B7C JUMP JUMPDEST PUSH1 0xB DUP4 ADD SWAP4 PUSH1 0xFF DUP6 SLOAD AND PUSH1 0x9 DUP2 LT ISZERO PUSH2 0x47B JUMPI PUSH1 0x3 SUB PUSH2 0x446 JUMPI PUSH2 0x2C6 PUSH1 0x4 DUP6 ADD SLOAD PUSH1 0x5 DUP7 ADD SLOAD SWAP1 PUSH2 0x3BF0 JUMP JUMPDEST TIMESTAMP GT PUSH2 0x409 JUMPI DUP1 MLOAD PUSH1 0x7 DUP6 ADD SWAP4 SWAP1 SWAP2 PUSH1 0x1 PUSH1 0x1 PUSH1 0x40 SHL SUB DUP4 GT PUSH2 0x3F3 JUMPI PUSH2 0x2ED DUP6 SLOAD PUSH2 0x3832 JUMP JUMPDEST PUSH1 0x1F DUP2 GT PUSH2 0x3AA JUMPI JUMPDEST POP DUP2 PUSH1 0x1F DUP5 GT PUSH1 0x1 EQ PUSH2 0x344 JUMPI POP SWAP3 DUP3 SWAP4 SWAP2 DUP4 SWAP3 PUSH1 0x0 SWAP5 PUSH2 0x339 JUMPI JUMPDEST POP POP SHL SWAP2 PUSH1 0x0 NOT SWAP1 PUSH1 0x3 SHL SHR NOT AND OR SWAP1 SSTORE JUMPDEST TIMESTAMP PUSH1 0xA SWAP2 SWAP1 SWAP2 ADD SSTORE DUP1 SLOAD PUSH1 0xFF NOT AND PUSH1 0x4 OR SWAP1 SSTORE STOP JUMPDEST ADD MLOAD SWAP3 POP DUP8 DUP1 PUSH2 0x312 JUMP JUMPDEST SWAP2 SWAP1 DUP4 PUSH1 0x1F NOT DUP2 AND DUP8 PUSH1 0x0 MSTORE DUP5 PUSH1 0x0 KECCAK256 SWAP5 PUSH1 0x0 SWAP1 JUMPDEST DUP9 DUP4 DUP4 LT PUSH2 0x390 JUMPI POP POP POP LT PUSH2 0x377 JUMPI JUMPDEST POP POP POP DUP2 SHL ADD SWAP1 SSTORE PUSH2 0x324 JUMP JUMPDEST ADD MLOAD PUSH1 0x0 NOT PUSH1 0xF8 DUP5 PUSH1 0x3 SHL AND SHR NOT AND SWAP1 SSTORE DUP6 DUP1 DUP1 PUSH2 0x36A JUMP JUMPDEST DUP6 DUP8 ADD MLOAD DUP9 SSTORE SWAP1 SWAP7 ADD SWAP6 SWAP5 DUP6 ADD SWAP5 DUP8 SWAP4 POP SWAP1 DUP2 ADD SWAP1 PUSH2 0x359 JUMP JUMPDEST DUP6 PUSH1 0x0 MSTORE DUP3 PUSH1 0x0 KECCAK256 PUSH1 0x1F DUP6 ADD PUSH1 0x5 SHR DUP2 ADD SWAP2 DUP5 DUP7 LT PUSH2 0x3E9 JUMPI JUMPDEST PUSH1 0x1F ADD PUSH1 0x5 SHR ADD SWAP1 DUP6 SWAP1 JUMPDEST DUP3 DUP2 LT PUSH2 0x3DD JUMPI POP POP PUSH2 0x2F6 JUMP JUMPDEST PUSH1 0x0 DUP2 SSTORE ADD DUP6 SWAP1 PUSH2 0x3CF JUMP JUMPDEST SWAP1 SWAP2 POP DUP2 SWAP1 PUSH2 0x3C4 JUMP JUMPDEST PUSH4 0x4E487B71 PUSH1 0xE0 SHL PUSH1 0x0 MSTORE PUSH1 0x41 PUSH1 0x4 MSTORE PUSH1 0x24 PUSH1 0x0 REVERT JUMPDEST PUSH1 0x40 MLOAD PUSH3 0x461BCD PUSH1 0xE5 SHL DUP2 MSTORE PUSH1 0x4 DUP2 ADD DUP5 SWAP1 MSTORE PUSH1 0x15 PUSH1 0x24 DUP3 ADD MSTORE PUSH21 0x14DD589B5A5D081DDA5B991BDDC8195E1C1A5C9959 PUSH1 0x5A SHL PUSH1 0x44 DUP3 ADD MSTORE PUSH1 0x64 SWAP1 REVERT JUMPDEST PUSH1 0x40 MLOAD PUSH3 0x461BCD PUSH1 0xE5 SHL DUP2 MSTORE PUSH1 0x4 DUP2 ADD DUP5 SWAP1 MSTORE PUSH1 0xD PUSH1 0x24 DUP3 ADD MSTORE PUSH13 0x496E76616C6964207374617465 PUSH1 0x98 SHL PUSH1 0x44 DUP3 ADD MSTORE PUSH1 0x64 SWAP1 REVERT JUMPDEST PUSH4 0x4E487B71 PUSH1 0xE0 SHL PUSH1 0x0 MSTORE PUSH1 0x21 PUSH1 0x4 MSTORE PUSH1 0x24 PUSH1 0x0 REVERT JUMPDEST CALLVALUE PUSH2 0x242 JUMPI PUSH2 0x49F CALLDATASIZE PUSH2 0x3A1F JUMP JUMPDEST DUP2 PUSH1 0x0 MSTORE PUSH1 0x20 SWAP1 PUSH1 0xB DUP3 MSTORE PUSH1 0x40 PUSH1 0x0 KECCAK256 SWAP1 PUSH1 0xFF PUSH1 0xB PUSH1 0x1 DUP1 PUSH1 0xA0 SHL SUB SWAP4 DUP5 DUP2 SLOAD AND CALLER EQ DUP1 ISZERO PUSH2 0x6F0 JUMPI JUMPDEST PUSH2 0x4D2 SWAP1 PUSH2 0x4799 JUMP JUMPDEST ADD SLOAD AND PUSH1 0x9 DUP2 LT ISZERO PUSH2 0x47B JUMPI PUSH1 0x7 PUSH2 0x4EA SWAP2 EQ PUSH2 0x4834 JUMP JUMPDEST DUP4 PUSH1 0x0 MSTORE PUSH1 0x5 DUP4 MSTORE PUSH1 0x40 PUSH1 0x0 KECCAK256 PUSH1 0x1 SWAP3 DUP4 DUP3 ADD SLOAD AND PUSH2 0x50E PUSH1 0xA DUP4 ADD SLOAD ISZERO ISZERO PUSH2 0x486F JUMP JUMPDEST PUSH2 0x51F PUSH1 0xFF PUSH1 0xB DUP5 ADD SLOAD AND ISZERO PUSH2 0x47D4 JUMP JUMPDEST CALLER EQ PUSH2 0x6AE JUMPI PUSH1 0x3 ADD SWAP3 DUP4 SLOAD SWAP2 PUSH2 0x535 DUP4 PUSH2 0x3832 JUMP JUMPDEST PUSH2 0x66D JUMPI DUP1 MLOAD SWAP3 PUSH1 0x1 PUSH1 0x1 PUSH1 0x40 SHL SUB DUP5 GT PUSH2 0x3F3 JUMPI PUSH2 0x553 SWAP1 PUSH2 0x3832 JUMP JUMPDEST PUSH1 0x1F DUP2 GT PUSH2 0x624 JUMPI JUMPDEST POP DUP2 PUSH1 0x1F DUP5 GT PUSH1 0x1 EQ PUSH2 0x5BE JUMPI POP SWAP3 DUP3 SWAP4 SWAP2 DUP4 SWAP3 PUSH1 0x0 SWAP5 PUSH2 0x5B3 JUMPI JUMPDEST POP POP SHL SWAP2 PUSH1 0x0 NOT SWAP1 PUSH1 0x3 SHL SHR NOT AND OR SWAP1 SSTORE JUMPDEST CALLER SWAP1 PUSH32 0x7878F55C48613E960719430C5332344CEFC8C552F6AFC747476FF85169F618FE PUSH1 0x0 DUP1 LOG3 STOP JUMPDEST ADD MLOAD SWAP3 POP DUP7 DUP1 PUSH2 0x578 JUMP JUMPDEST SWAP2 SWAP1 DUP4 PUSH1 0x1F NOT DUP2 AND DUP8 PUSH1 0x0 MSTORE DUP5 PUSH1 0x0 KECCAK256 SWAP5 PUSH1 0x0 SWAP1 JUMPDEST DUP9 DUP4 DUP4 LT PUSH2 0x60A JUMPI POP POP POP LT PUSH2 0x5F1 JUMPI JUMPDEST POP POP POP DUP2 SHL ADD SWAP1 SSTORE PUSH2 0x58A JUMP JUMPDEST ADD MLOAD PUSH1 0x0 NOT PUSH1 0xF8 DUP5 PUSH1 0x3 SHL AND SHR NOT AND SWAP1 SSTORE DUP5 DUP1 DUP1 PUSH2 0x5E4 JUMP JUMPDEST DUP6 DUP8 ADD MLOAD DUP9 SSTORE SWAP1 SWAP7 ADD SWAP6 SWAP5 DUP6 ADD SWAP5 DUP8 SWAP4 POP SWAP1 DUP2 ADD SWAP1 PUSH2 0x5D3 JUMP JUMPDEST DUP6 PUSH1 0x0 MSTORE DUP3 PUSH1 0x0 KECCAK256 PUSH1 0x1F DUP6 ADD PUSH1 0x5 SHR DUP2 ADD SWAP2 DUP5 DUP7 LT PUSH2 0x663 JUMPI JUMPDEST PUSH1 0x1F ADD PUSH1 0x5 SHR ADD SWAP1 DUP6 SWAP1 JUMPDEST DUP3 DUP2 LT PUSH2 0x657 JUMPI POP POP PUSH2 0x55C JUMP JUMPDEST PUSH1 0x0 DUP2 SSTORE ADD DUP6 SWAP1 PUSH2 0x649 JUMP JUMPDEST SWAP1 SWAP2 POP DUP2 SWAP1 PUSH2 0x63E JUMP JUMPDEST PUSH1 0x40 MLOAD PUSH3 0x461BCD PUSH1 0xE5 SHL DUP2 MSTORE PUSH1 0x4 DUP2 ADD DUP4 SWAP1 MSTORE PUSH1 0x19 PUSH1 0x24 DUP3 ADD MSTORE PUSH25 0x10DBDD5B9D195C88185B1C9958591E481CDD589B5A5D1D1959 PUSH1 0x3A SHL PUSH1 0x44 DUP3 ADD MSTORE PUSH1 0x64 SWAP1 REVERT JUMPDEST PUSH1 0x40 MLOAD PUSH3 0x461BCD PUSH1 0xE5 SHL DUP2 MSTORE PUSH1 0x4 DUP2 ADD DUP6 SWAP1 MSTORE PUSH1 0x1A PUSH1 0x24 DUP3 ADD MSTORE PUSH26 0x43616E6E6F7420636F756E746572206F776E2064697370757465 PUSH1 0x30 SHL PUSH1 0x44 DUP3 ADD MSTORE PUSH1 0x64 SWAP1 REVERT JUMPDEST POP PUSH1 0x1 DUP2 ADD SLOAD DUP6 AND CALLER EQ PUSH2 0x4C9 JUMP JUMPDEST CALLVALUE PUSH2 0x242 JUMPI PUSH1 0xA0 CALLDATASIZE PUSH1 0x3 NOT ADD SLT PUSH2 0x242 JUMPI PUSH1 0x4 CALLDATALOAD PUSH1 0x1 PUSH1 0x1 PUSH1 0x40 SHL SUB DUP2 GT PUSH2 0x242 JUMPI PUSH2 0x72F SWAP1 CALLDATASIZE SWAP1 PUSH1 0x4 ADD PUSH2 0x39D8 JUMP JUMPDEST CALLER PUSH1 0x0 MSTORE PUSH1 0x4 PUSH1 0x20 MSTORE PUSH1 0xFF PUSH1 0x40 PUSH1 0x0 KECCAK256 SLOAD AND PUSH1 0x3 DUP2 LT ISZERO PUSH2 0x47B JUMPI PUSH1 0x1 PUSH2 0x756 SWAP2 EQ PUSH2 0x3B43 JUMP JUMPDEST PUSH1 0x40 MLOAD SWAP1 PUSH2 0x180 DUP3 ADD PUSH1 0x1 PUSH1 0x1 PUSH1 0x40 SHL SUB DUP2 GT DUP4 DUP3 LT OR PUSH2 0x3F3 JUMPI PUSH1 0x40 MSTORE CALLER DUP3 MSTORE PUSH1 0x0 PUSH1 0x20 DUP4 ADD MSTORE PUSH1 0x24 CALLDATALOAD PUSH1 0x40 DUP4 ADD MSTORE PUSH1 0x44 CALLDATALOAD PUSH1 0x60 DUP4 ADD MSTORE PUSH1 0x64 CALLDATALOAD PUSH1 0x80 DUP4 ADD MSTORE PUSH1 0x84 CALLDATALOAD PUSH1 0xA0 DUP4 ADD MSTORE PUSH1 0xC0 DUP3 ADD MSTORE PUSH1 0x40 MLOAD PUSH1 0x20 DUP2 ADD DUP2 DUP2 LT PUSH1 0x1 DUP1 PUSH1 0x40 SHL SUB DUP3 GT OR PUSH2 0x3F3 JUMPI PUSH1 0x40 MSTORE PUSH1 0x0 DUP2 MSTORE PUSH1 0xE0 DUP3 ADD MSTORE PUSH1 0x0 PUSH2 0x100 DUP3 ADD MSTORE PUSH1 0x0 PUSH2 0x120 DUP3 ADD MSTORE PUSH1 0x0 PUSH2 0x140 DUP3 ADD MSTORE PUSH1 0x0 PUSH2 0x160 DUP3 ADD MSTORE PUSH1 0xA SLOAD PUSH1 0x0 MSTORE PUSH1 0xB PUSH1 0x20 MSTORE PUSH1 0x40 PUSH1 0x0 KECCAK256 SWAP1 PUSH1 0x1 DUP1 PUSH1 0xA0 SHL SUB DUP1 DUP3 MLOAD AND PUSH1 0x1 DUP1 PUSH1 0xA0 SHL SUB NOT SWAP1 DUP2 DUP6 SLOAD AND OR DUP5 SSTORE PUSH1 0x1 DUP5 ADD SWAP2 PUSH1 0x20 DUP5 ADD MLOAD AND SWAP1 DUP3 SLOAD AND OR SWAP1 SSTORE PUSH1 0x40 DUP2 ADD MLOAD PUSH1 0x2 DUP4 ADD SSTORE PUSH1 0x60 DUP2 ADD MLOAD PUSH1 0x3 DUP4 ADD SSTORE PUSH1 0x80 DUP2 ADD MLOAD PUSH1 0x4 DUP4 ADD SSTORE PUSH1 0xA0 DUP2 ADD MLOAD PUSH1 0x5 DUP4 ADD SSTORE PUSH1 0xC0 DUP2 ADD MLOAD SWAP2 DUP3 MLOAD PUSH1 0x1 DUP1 PUSH1 0x40 SHL SUB DUP2 GT PUSH2 0x3F3 JUMPI PUSH2 0x86F PUSH1 0x6 DUP4 ADD SLOAD PUSH2 0x3832 JUMP JUMPDEST PUSH1 0x1F DUP2 GT PUSH2 0xA9E JUMPI JUMPDEST POP PUSH1 0x20 PUSH1 0x1F DUP3 GT PUSH1 0x1 EQ PUSH2 0xA30 JUMPI DUP2 SWAP3 SWAP4 SWAP5 PUSH1 0x0 SWAP3 PUSH2 0xA25 JUMPI JUMPDEST POP POP DUP2 PUSH1 0x1 SHL SWAP2 PUSH1 0x0 NOT SWAP1 PUSH1 0x3 SHL SHR NOT AND OR PUSH1 0x6 DUP3 ADD SSTORE JUMPDEST PUSH1 0xE0 DUP3 ADD MLOAD DUP1 MLOAD SWAP1 PUSH1 0x1 PUSH1 0x1 PUSH1 0x40 SHL SUB DUP3 GT PUSH2 0x3F3 JUMPI PUSH2 0x8CD PUSH1 0x7 DUP5 ADD SLOAD PUSH2 0x3832 JUMP JUMPDEST PUSH1 0x1F DUP2 GT PUSH2 0x9DA JUMPI JUMPDEST POP PUSH1 0x20 SWAP1 PUSH1 0x1F DUP4 GT PUSH1 0x1 EQ PUSH2 0x964 JUMPI SWAP2 DUP1 PUSH2 0x160 SWAP5 SWAP3 PUSH1 0xB SWAP5 PUSH1 0x0 SWAP3 PUSH2 0x959 JUMPI JUMPDEST POP POP DUP2 PUSH1 0x1 SHL SWAP2 PUSH1 0x0 NOT SWAP1 PUSH1 0x3 SHL SHR NOT AND OR PUSH1 0x7 DUP3 ADD SSTORE JUMPDEST PUSH2 0x100 DUP5 ADD MLOAD PUSH1 0x8 DUP3 ADD SSTORE PUSH2 0x120 DUP5 ADD MLOAD PUSH1 0x9 DUP3 ADD SSTORE PUSH2 0x140 DUP5 ADD MLOAD PUSH1 0xA DUP3 ADD SSTORE ADD SWAP2 ADD MLOAD PUSH1 0x9 DUP2 LT ISZERO PUSH2 0x47B JUMPI PUSH1 0xFF DUP1 NOT DUP4 SLOAD AND SWAP2 AND OR SWAP1 SSTORE PUSH2 0x954 PUSH1 0xA SLOAD PUSH2 0x3AEE JUMP JUMPDEST PUSH1 0xA SSTORE STOP JUMPDEST ADD MLOAD SWAP1 POP DUP7 DUP1 PUSH2 0x8F7 JUMP JUMPDEST SWAP1 PUSH1 0x7 DUP5 ADD PUSH1 0x0 MSTORE PUSH1 0x20 PUSH1 0x0 KECCAK256 SWAP2 PUSH1 0x0 JUMPDEST PUSH1 0x1F NOT DUP6 AND DUP2 LT PUSH2 0x9C2 JUMPI POP SWAP3 PUSH2 0x160 SWAP5 SWAP3 PUSH1 0x1 SWAP3 PUSH1 0xB SWAP6 DUP4 PUSH1 0x1F NOT DUP2 AND LT PUSH2 0x9A9 JUMPI JUMPDEST POP POP POP DUP2 SHL ADD PUSH1 0x7 DUP3 ADD SSTORE PUSH2 0x90F JUMP JUMPDEST ADD MLOAD PUSH1 0x0 NOT PUSH1 0xF8 DUP5 PUSH1 0x3 SHL AND SHR NOT AND SWAP1 SSTORE DUP7 DUP1 DUP1 PUSH2 0x999 JUMP JUMPDEST SWAP2 SWAP3 PUSH1 0x20 PUSH1 0x1 DUP2 SWAP3 DUP7 DUP6 ADD MLOAD DUP2 SSTORE ADD SWAP5 ADD SWAP3 ADD PUSH2 0x975 JUMP JUMPDEST PUSH1 0x7 DUP5 ADD PUSH1 0x0 MSTORE PUSH1 0x20 PUSH1 0x0 KECCAK256 PUSH1 0x1F DUP5 ADD PUSH1 0x5 SHR DUP2 ADD SWAP2 PUSH1 0x20 DUP6 LT PUSH2 0xA1B JUMPI JUMPDEST PUSH1 0x1F ADD PUSH1 0x5 SHR ADD SWAP1 JUMPDEST DUP2 DUP2 LT PUSH2 0xA0F JUMPI POP PUSH2 0x8D6 JUMP JUMPDEST PUSH1 0x0 DUP2 SSTORE PUSH1 0x1 ADD PUSH2 0xA02 JUMP JUMPDEST SWAP1 SWAP2 POP DUP2 SWAP1 PUSH2 0x9F9 JUMP JUMPDEST ADD MLOAD SWAP1 POP DUP5 DUP1 PUSH2 0x892 JUMP JUMPDEST PUSH1 0x6 DUP4 ADD PUSH1 0x0 MSTORE PUSH1 0x20 PUSH1 0x0 KECCAK256 SWAP1 PUSH1 0x0 JUMPDEST PUSH1 0x1F NOT DUP5 AND DUP2 LT PUSH2 0xA86 JUMPI POP PUSH1 0x1 SWAP4 SWAP5 SWAP6 DUP4 PUSH1 0x1F NOT DUP2 AND LT PUSH2 0xA6D JUMPI JUMPDEST POP POP POP DUP2 SHL ADD PUSH1 0x6 DUP3 ADD SSTORE PUSH2 0x8AA JUMP JUMPDEST ADD MLOAD PUSH1 0x0 NOT PUSH1 0xF8 DUP5 PUSH1 0x3 SHL AND SHR NOT AND SWAP1 SSTORE DUP5 DUP1 DUP1 PUSH2 0xA5D JUMP JUMPDEST SWAP1 SWAP2 PUSH1 0x20 PUSH1 0x1 DUP2 SWAP3 DUP6 DUP11 ADD MLOAD DUP2 SSTORE ADD SWAP4 ADD SWAP2 ADD PUSH2 0xA40 JUMP JUMPDEST PUSH1 0x6 DUP4 ADD PUSH1 0x0 MSTORE PUSH1 0x20 PUSH1 0x0 KECCAK256 PUSH1 0x1F DUP4 ADD PUSH1 0x5 SHR DUP2 ADD PUSH1 0x20 DUP5 LT PUSH2 0xADE JUMPI JUMPDEST PUSH1 0x1F DUP4 ADD PUSH1 0x5 SHR DUP3 ADD DUP2 LT PUSH2 0xAD2 JUMPI POP POP PUSH2 0x878 JUMP JUMPDEST PUSH1 0x0 DUP2 SSTORE PUSH1 0x1 ADD PUSH2 0xABC JUMP JUMPDEST POP DUP1 PUSH2 0xABC JUMP JUMPDEST CALLVALUE PUSH2 0x242 JUMPI PUSH1 0x20 CALLDATASIZE PUSH1 0x3 NOT ADD SLT PUSH2 0x242 JUMPI PUSH1 0x4 CALLDATALOAD DUP1 PUSH1 0x0 MSTORE PUSH1 0xB PUSH1 0x20 MSTORE PUSH1 0x40 PUSH1 0x0 KECCAK256 SWAP1 PUSH1 0xB DUP3 ADD SWAP2 DUP3 SLOAD SWAP3 PUSH1 0xFF DUP5 AND PUSH1 0x9 DUP2 LT ISZERO PUSH2 0x47B JUMPI PUSH1 0x2 PUSH2 0xB29 SWAP2 EQ PUSH2 0x3BB5 JUMP JUMPDEST PUSH2 0xB46 PUSH2 0xB3F PUSH1 0x3 DUP5 ADD SLOAD PUSH1 0x5 DUP6 ADD SLOAD SWAP1 PUSH2 0x3BF0 JUMP JUMPDEST TIMESTAMP GT PUSH2 0x3BFD JUMP JUMPDEST PUSH1 0x6 PUSH1 0xFF NOT DUP1 SWAP6 AND OR SWAP1 SSTORE PUSH2 0xB82 PUSH1 0x0 DUP1 DUP1 DUP1 PUSH1 0x1 DUP1 PUSH1 0xA0 SHL SUB SWAP6 PUSH1 0x2 DUP8 PUSH1 0x1 DUP4 ADD SLOAD AND SWAP8 DUP3 SLOAD AND SWAP2 ADD SLOAD SWAP1 GAS CALL PUSH2 0xB7C PUSH2 0x3C35 JUMP JUMPDEST POP PUSH2 0x3C65 JUMP JUMPDEST PUSH1 0x40 MLOAD SWAP3 PUSH2 0xB8F DUP5 PUSH2 0x38BD JUMP JUMPDEST PUSH1 0x1B DUP5 MSTORE PUSH27 0x1DDBDC9AD95C97D858D8D95C1D195917DB9BDD17DCDD185C9D1959 PUSH1 0x2A SHL PUSH1 0x20 DUP6 ADD MSTORE DUP2 PUSH1 0x0 MSTORE PUSH1 0x0 PUSH1 0x20 MSTORE PUSH1 0xFF PUSH1 0x40 PUSH1 0x0 KECCAK256 SLOAD AND SWAP4 DUP5 PUSH1 0x5 LT ISZERO PUSH1 0x0 EQ PUSH2 0xC23 JUMPI DUP3 SWAP2 PUSH2 0xC21 SWAP6 PUSH2 0xC19 PUSH1 0x0 DUP1 MLOAD PUSH1 0x20 PUSH2 0x4C62 DUP4 CODECOPY DUP2 MLOAD SWAP2 MSTORE SWAP4 PUSH1 0x0 SWAP4 JUMPDEST DUP7 PUSH1 0x0 MSTORE PUSH1 0x0 PUSH1 0x20 MSTORE PUSH1 0x40 PUSH1 0x0 KECCAK256 SWAP1 PUSH1 0xFF DUP7 AND SWAP1 DUP3 SLOAD AND OR SWAP1 SSTORE PUSH1 0x40 MLOAD SWAP4 DUP5 SWAP4 DUP5 PUSH2 0x49A1 JUMP JUMPDEST SUB SWAP1 LOG2 PUSH2 0x3CA1 JUMP JUMPDEST STOP JUMPDEST PUSH1 0x4 NOT DUP6 ADD SWAP2 PUSH1 0xFF DUP4 GT PUSH2 0xC50 JUMPI PUSH2 0xC21 SWAP6 PUSH2 0xC19 PUSH1 0x0 DUP1 MLOAD PUSH1 0x20 PUSH2 0x4C62 DUP4 CODECOPY DUP2 MLOAD SWAP2 MSTORE SWAP4 DUP7 SWAP6 SWAP4 PUSH2 0xBF3 JUMP JUMPDEST PUSH4 0x4E487B71 PUSH1 0xE0 SHL PUSH1 0x0 MSTORE PUSH1 0x11 PUSH1 0x4 MSTORE PUSH1 0x24 PUSH1 0x0 REVERT JUMPDEST CALLVALUE PUSH2 0x242 JUMPI PUSH1 0x20 DUP1 PUSH1 0x3 NOT CALLDATASIZE ADD SLT PUSH2 0x242 JUMPI PUSH1 0x4 CALLDATALOAD SWAP1 DUP2 PUSH1 0x0 MSTORE PUSH1 0xB DUP2 MSTORE PUSH1 0x40 PUSH1 0x0 KECCAK256 PUSH1 0xB DUP2 ADD SWAP1 DUP2 SLOAD SWAP3 PUSH1 0xFF DUP5 AND PUSH1 0x9 DUP2 LT ISZERO PUSH2 0x47B JUMPI PUSH1 0x4 PUSH2 0xCAA SWAP2 EQ PUSH2 0x3F5D JUMP JUMPDEST PUSH1 0xA DUP3 ADD SLOAD PUSH1 0x78 DUP2 ADD DUP1 SWAP2 GT PUSH2 0xC50 JUMPI PUSH2 0xCC6 SWAP1 TIMESTAMP LT ISZERO PUSH2 0x3BFD JUMP JUMPDEST PUSH1 0x5 PUSH1 0xFF NOT SWAP5 DUP6 AND DUP2 OR SWAP1 SWAP4 SSTORE DUP2 SLOAD PUSH1 0x40 MLOAD PUSH1 0x1 PUSH1 0x1 PUSH1 0xA0 SHL SUB SWAP4 SWAP2 DUP5 AND SWAP1 PUSH2 0xCEE DUP2 PUSH2 0x38BD JUMP JUMPDEST PUSH1 0x19 DUP2 MSTORE PUSH25 0x31B634B2B73A2FB4B3B737B932B22FB9BAB136B4B9B9B4B7B7 PUSH1 0x39 SHL DUP5 DUP3 ADD MSTORE PUSH1 0x0 DUP3 DUP2 MSTORE DUP1 DUP6 MSTORE PUSH1 0x40 SWAP1 KECCAK256 SLOAD PUSH1 0xFF AND SWAP1 PUSH1 0x8 DUP3 GT PUSH2 0xFF1 JUMPI PUSH1 0x0 DUP1 MLOAD PUSH1 0x20 PUSH2 0x4C62 DUP4 CODECOPY DUP2 MLOAD SWAP2 MSTORE SWAP2 PUSH2 0xD67 PUSH1 0x0 SWAP3 JUMPDEST DUP6 PUSH1 0x0 MSTORE PUSH1 0x0 DUP9 MSTORE PUSH1 0x40 PUSH1 0x0 KECCAK256 PUSH1 0xFF DUP6 AND DUP13 DUP3 SLOAD AND OR SWAP1 SSTORE PUSH1 0x40 MLOAD SWAP4 DUP5 SWAP4 DUP5 PUSH2 0x49A1 JUMP JUMPDEST SUB SWAP1 LOG2 DUP3 DUP2 SLOAD AND SWAP3 PUSH1 0x40 MLOAD PUSH2 0xD7B DUP2 PUSH2 0x38A2 JUMP JUMPDEST PUSH1 0x26 DUP2 MSTORE PUSH32 0x446964206E6F7420726573706F6E6420616674657220776F726B657220737562 DUP5 DUP3 ADD MSTORE PUSH6 0x1B5A5D1D1959 PUSH1 0xD2 SHL PUSH1 0x40 DUP3 ADD MSTORE DUP5 PUSH1 0x0 MSTORE PUSH1 0x8 DUP5 MSTORE PUSH1 0x40 PUSH1 0x0 KECCAK256 SWAP7 PUSH1 0x40 MLOAD PUSH2 0xDCD DUP2 PUSH2 0x386C JUMP JUMPDEST DUP8 DUP2 MSTORE DUP6 DUP2 ADD DUP11 DUP2 MSTORE PUSH1 0x40 DUP3 ADD SWAP1 TIMESTAMP DUP3 MSTORE PUSH1 0x60 DUP4 ADD SWAP5 DUP6 MSTORE DUP11 SLOAD PUSH1 0x1 PUSH1 0x40 SHL DUP2 LT ISZERO PUSH2 0x3F3 JUMPI PUSH2 0xE04 SWAP1 PUSH1 0x1 SWAP13 DUP14 DUP3 ADD DUP2 SSTORE PUSH2 0x3AFD JUMP JUMPDEST SWAP4 SWAP1 SWAP4 PUSH2 0xFDB JUMPI MLOAD PUSH1 0xD DUP2 LT ISZERO PUSH2 0x47B JUMPI PUSH1 0xFF PUSH1 0x3 SWAP6 DUP6 SLOAD AND SWAP2 AND OR DUP4 SSTORE MLOAD DUP11 DUP4 ADD SSTORE MLOAD PUSH1 0x2 DUP3 ADD SSTORE ADD SWAP1 MLOAD DUP1 MLOAD SWAP1 PUSH1 0x1 DUP1 PUSH1 0x40 SHL SUB DUP3 GT PUSH2 0x3F3 JUMPI DUP2 SWAP1 PUSH2 0xE4C DUP5 SLOAD PUSH2 0x3832 JUMP JUMPDEST PUSH1 0x1F DUP2 GT PUSH2 0xF8A JUMPI JUMPDEST POP DUP7 SWAP1 PUSH1 0x1F DUP4 GT PUSH1 0x1 EQ PUSH2 0xF27 JUMPI PUSH1 0x0 SWAP3 PUSH2 0xF1C JUMPI JUMPDEST POP POP PUSH1 0x0 NOT PUSH1 0x3 DUP4 SWAP1 SHL SHR NOT AND SWAP1 DUP9 SHL OR SWAP1 SSTORE JUMPDEST DUP4 PUSH1 0x0 MSTORE PUSH1 0x9 DUP4 MSTORE PUSH1 0x40 PUSH1 0x0 KECCAK256 DUP6 PUSH1 0x0 MSTORE DUP4 MSTORE PUSH1 0x40 PUSH1 0x0 KECCAK256 SWAP1 DUP2 SLOAD SWAP4 DUP8 DUP6 ADD DUP1 SWAP6 GT PUSH2 0xC50 JUMPI PUSH2 0xF06 PUSH1 0x0 SWAP9 DUP10 SWAP9 DUP10 SWAP9 PUSH1 0x0 DUP1 MLOAD PUSH1 0x20 PUSH2 0x4C42 DUP4 CODECOPY DUP2 MLOAD SWAP2 MSTORE DUP6 PUSH2 0xC21 SWAP15 DUP13 SWAP12 PUSH1 0x2 SWAP11 SSTORE PUSH1 0x40 MLOAD SWAP1 DUP2 MSTORE LOG3 DUP6 ADD SWAP2 DUP4 DUP4 SLOAD AND PUSH18 0x6A6F625F636F6D706C657465645F6175746F PUSH1 0x70 SHL PUSH1 0x40 MLOAD SWAP3 PUSH2 0xEFA DUP5 PUSH2 0x38BD JUMP JUMPDEST PUSH1 0x12 DUP5 MSTORE DUP4 ADD MSTORE PUSH2 0x4A8B JUMP JUMPDEST SLOAD AND SWAP2 ADD SLOAD SWAP1 GAS CALL PUSH2 0xF16 PUSH2 0x3C35 JUMP JUMPDEST POP PUSH2 0x3FC2 JUMP JUMPDEST ADD MLOAD SWAP1 POP DUP11 DUP1 PUSH2 0xE6B JUMP JUMPDEST SWAP1 DUP11 SWAP4 POP PUSH1 0x1F NOT DUP4 AND SWAP2 DUP6 PUSH1 0x0 MSTORE DUP9 PUSH1 0x0 KECCAK256 SWAP3 PUSH1 0x0 JUMPDEST DUP11 DUP3 DUP3 LT PUSH2 0xF74 JUMPI POP POP DUP5 GT PUSH2 0xF5B JUMPI JUMPDEST POP POP POP DUP2 SHL ADD SWAP1 SSTORE PUSH2 0xE7F JUMP JUMPDEST ADD MLOAD PUSH1 0x0 NOT PUSH1 0xF8 DUP5 PUSH1 0x3 SHL AND SHR NOT AND SWAP1 SSTORE DUP11 DUP1 DUP1 PUSH2 0xF4E JUMP JUMPDEST DUP4 DUP6 ADD MLOAD DUP7 SSTORE DUP15 SWAP8 SWAP1 SWAP6 ADD SWAP5 SWAP4 DUP5 ADD SWAP4 ADD PUSH2 0xF3D JUMP JUMPDEST SWAP1 SWAP2 POP DUP4 PUSH1 0x0 MSTORE DUP7 PUSH1 0x0 KECCAK256 PUSH1 0x1F DUP5 ADD DUP11 SHR DUP2 ADD SWAP2 DUP9 DUP6 LT PUSH2 0xFD1 JUMPI JUMPDEST DUP5 SWAP4 SWAP3 SWAP2 PUSH1 0x1F DUP14 SWAP3 ADD DUP13 SHR ADD SWAP2 JUMPDEST DUP3 DUP2 LT PUSH2 0xFC2 JUMPI POP POP PUSH2 0xE55 JUMP JUMPDEST PUSH1 0x0 DUP2 SSTORE DUP6 SWAP5 POP DUP13 SWAP2 ADD PUSH2 0xFB4 JUMP JUMPDEST SWAP1 SWAP2 POP DUP2 SWAP1 PUSH2 0xFA6 JUMP JUMPDEST PUSH4 0x4E487B71 PUSH1 0xE0 SHL PUSH1 0x0 MSTORE PUSH1 0x0 PUSH1 0x4 MSTORE PUSH1 0x24 PUSH1 0x0 REVERT JUMPDEST PUSH1 0x7 NOT DUP3 ADD SWAP2 PUSH1 0xFF DUP4 GT PUSH2 0xC50 JUMPI PUSH2 0xD67 PUSH1 0x0 DUP1 MLOAD PUSH1 0x20 PUSH2 0x4C62 DUP4 CODECOPY DUP2 MLOAD SWAP2 MSTORE SWAP4 SWAP3 PUSH2 0xD43 JUMP JUMPDEST CALLVALUE PUSH2 0x242 JUMPI PUSH1 0x20 CALLDATASIZE PUSH1 0x3 NOT ADD SLT PUSH2 0x242 JUMPI PUSH1 0x4 CALLDATALOAD PUSH1 0x0 MSTORE PUSH1 0xB PUSH1 0x20 MSTORE PUSH1 0x40 PUSH1 0x0 KECCAK256 PUSH1 0xB DUP2 ADD PUSH1 0xFF DUP2 SLOAD AND PUSH1 0x9 DUP2 LT ISZERO PUSH2 0x47B JUMPI PUSH1 0x7 PUSH2 0x1057 SWAP2 EQ PUSH2 0x4834 JUMP JUMPDEST PUSH1 0x4 CALLDATALOAD PUSH1 0x0 MSTORE PUSH1 0x5 PUSH1 0x20 MSTORE PUSH1 0x40 PUSH1 0x0 KECCAK256 PUSH1 0xA DUP2 ADD SLOAD SWAP3 PUSH2 0x1078 DUP5 ISZERO ISZERO PUSH2 0x486F JUMP JUMPDEST PUSH1 0xB DUP3 ADD SLOAD SWAP4 PUSH2 0x108B PUSH1 0xFF DUP7 AND ISZERO PUSH2 0x47D4 JUMP JUMPDEST TIMESTAMP LT DUP1 ISZERO SWAP1 PUSH2 0x1883 JUMPI JUMPDEST ISZERO PUSH2 0x184B JUMPI PUSH1 0x1 PUSH1 0x9 DUP4 ADD SLOAD SWAP5 PUSH2 0xFF00 PUSH1 0xFF DUP8 PUSH1 0x10 SHR AND PUSH1 0xFF DUP9 PUSH1 0x8 SHR AND GT PUSH1 0x8 SHL AND SWAP1 PUSH2 0xFFFF NOT AND OR OR PUSH1 0xB DUP4 ADD SSTORE PUSH1 0x40 MLOAD PUSH1 0xFF DUP6 PUSH1 0x10 SHR AND PUSH1 0xFF DUP7 PUSH1 0x8 SHR AND GT DUP2 MSTORE PUSH32 0x5A87909BFF68CAAAAF0B3FD9C74EECCC928832F879315E5C6FB7A73612F26C0C PUSH1 0x20 PUSH1 0x4 CALLDATALOAD SWAP3 LOG2 PUSH1 0x0 JUMPDEST PUSH1 0xFF PUSH1 0x9 DUP5 ADD SLOAD AND PUSH1 0xFF DUP3 AND LT ISZERO PUSH2 0x1372 JUMPI PUSH2 0x1123 DUP2 PUSH1 0x4 DUP6 ADD PUSH2 0x4824 JUMP JUMPDEST SWAP2 SWAP1 SLOAD SWAP2 PUSH1 0x4 CALLDATALOAD PUSH1 0x0 MSTORE PUSH1 0x6 PUSH1 0x20 MSTORE PUSH1 0x40 PUSH1 0x0 KECCAK256 SWAP3 PUSH1 0x3 SWAP4 PUSH1 0x1 DUP1 PUSH1 0xA0 SHL SUB DUP3 DUP5 DUP8 SHL SHR AND PUSH1 0x0 MSTORE PUSH1 0x20 MSTORE PUSH1 0xFF PUSH1 0x40 PUSH1 0x0 KECCAK256 SLOAD AND ISZERO PUSH2 0x1366 JUMPI PUSH1 0x4 CALLDATALOAD PUSH1 0x0 MSTORE PUSH1 0x7 PUSH1 0x20 MSTORE PUSH1 0x40 PUSH1 0x0 KECCAK256 PUSH1 0x1 DUP1 PUSH1 0xA0 SHL SUB DUP3 DUP5 DUP8 SHL SHR AND PUSH1 0x0 MSTORE PUSH1 0x20 MSTORE PUSH1 0xFF DUP9 PUSH1 0x10 SHR AND PUSH1 0xFF DUP10 PUSH1 0x8 SHR AND GT PUSH1 0xFF PUSH1 0x40 PUSH1 0x0 KECCAK256 SLOAD AND ISZERO ISZERO EQ PUSH1 0x0 EQ PUSH2 0x129A JUMPI PUSH1 0x40 MLOAD SWAP2 PUSH2 0x11AE DUP4 PUSH2 0x38BD JUMP JUMPDEST PUSH1 0xF DUP4 MSTORE PUSH15 0x766F7465645F636F72726563746C79 PUSH1 0x88 SHL PUSH1 0x20 DUP5 ADD MSTORE PUSH1 0x1 DUP1 PUSH1 0xA0 SHL SUB DUP3 DUP3 DUP8 SHL SHR AND PUSH1 0x0 MSTORE PUSH1 0x0 PUSH1 0x20 MSTORE PUSH1 0xFF PUSH1 0x40 PUSH1 0x0 KECCAK256 SLOAD AND SWAP3 PUSH2 0xFFFF DUP7 DUP6 ADD GT PUSH2 0xC50 JUMPI PUSH1 0x64 DUP1 PUSH2 0xFFFF DUP9 DUP8 ADD AND GT PUSH1 0x0 EQ PUSH2 0x126D JUMPI PUSH1 0x0 DUP1 MLOAD PUSH1 0x20 PUSH2 0x4C62 DUP4 CODECOPY DUP2 MLOAD SWAP2 MSTORE SWAP4 SWAP3 SWAP2 PUSH2 0x1268 SWAP8 PUSH2 0x125F SWAP3 SWAP1 JUMPDEST SWAP4 SWAP1 SWAP4 SHL SWAP4 SWAP1 SWAP4 SHR PUSH1 0x1 PUSH1 0x1 PUSH1 0xA0 SHL SUB AND PUSH1 0x0 DUP2 DUP2 MSTORE PUSH1 0x20 DUP2 SWAP1 MSTORE PUSH1 0x40 SWAP1 DUP2 SWAP1 KECCAK256 DUP1 SLOAD PUSH1 0xFF NOT AND PUSH1 0xFF DUP7 AND OR SWAP1 SSTORE MLOAD SWAP1 SWAP6 SWAP1 SWAP4 DUP5 SWAP4 SWAP1 SWAP2 DUP5 PUSH2 0x49A1 JUMP JUMPDEST SUB SWAP1 LOG2 JUMPDEST PUSH2 0x4813 JUMP JUMPDEST PUSH2 0x1104 JUMP JUMPDEST POP SWAP2 SWAP1 PUSH1 0xFF DUP7 DUP6 ADD GT PUSH2 0xC50 JUMPI PUSH2 0x125F PUSH1 0x0 DUP1 MLOAD PUSH1 0x20 PUSH2 0x4C62 DUP4 CODECOPY DUP2 MLOAD SWAP2 MSTORE SWAP4 DUP8 PUSH2 0x1268 SWAP9 DUP8 ADD SWAP1 PUSH2 0x1222 JUMP JUMPDEST PUSH1 0x40 MLOAD SWAP2 PUSH2 0x12A7 DUP4 PUSH2 0x38BD JUMP JUMPDEST PUSH1 0xD DUP4 MSTORE PUSH13 0x766F7465645F77726F6E676C79 PUSH1 0x98 SHL PUSH1 0x20 DUP5 ADD MSTORE PUSH1 0x1 DUP1 PUSH1 0xA0 SHL SUB DUP3 DUP3 DUP8 SHL SHR AND PUSH1 0x0 MSTORE PUSH1 0x0 PUSH1 0x20 MSTORE PUSH1 0xFF PUSH1 0x40 PUSH1 0x0 KECCAK256 SLOAD AND SWAP3 DUP4 DUP7 LT ISZERO PUSH1 0x0 EQ PUSH2 0x1336 JUMPI SWAP5 SHL SHR PUSH1 0x1 PUSH1 0x1 PUSH1 0xA0 SHL SUB AND PUSH1 0x0 DUP2 DUP2 MSTORE PUSH1 0x20 DUP2 SWAP1 MSTORE PUSH1 0x40 DUP1 DUP3 KECCAK256 DUP1 SLOAD PUSH1 0xFF NOT AND SWAP1 SSTORE MLOAD PUSH2 0x1268 SWAP6 SWAP3 SWAP4 PUSH1 0x0 DUP1 MLOAD PUSH1 0x20 PUSH2 0x4C62 DUP4 CODECOPY DUP2 MLOAD SWAP2 MSTORE SWAP4 SWAP2 SWAP3 DUP4 SWAP3 PUSH2 0x125F SWAP3 SWAP1 SWAP2 SWAP1 DUP5 PUSH2 0x49A1 JUMP JUMPDEST SWAP2 SWAP1 PUSH1 0xFF PUSH1 0x2 NOT DUP6 ADD GT PUSH2 0xC50 JUMPI PUSH2 0x125F PUSH1 0x0 DUP1 MLOAD PUSH1 0x20 PUSH2 0x4C62 DUP4 CODECOPY DUP2 MLOAD SWAP2 MSTORE SWAP4 PUSH2 0x1268 SWAP8 PUSH1 0x2 NOT DUP8 ADD SWAP1 PUSH2 0x1222 JUMP JUMPDEST POP POP PUSH2 0x1268 SWAP2 POP PUSH2 0x4813 JUMP JUMPDEST POP DUP3 DUP5 PUSH1 0xFF NOT SWAP2 PUSH1 0x8 DUP4 DUP3 SLOAD AND OR SWAP1 SSTORE PUSH1 0xFF DUP1 DUP3 PUSH1 0x10 SHR AND SWAP2 PUSH1 0x8 SHR AND GT PUSH1 0x0 EQ PUSH2 0x15F4 JUMPI DUP2 SLOAD PUSH1 0x1 PUSH1 0x1 PUSH1 0xA0 SHL SUB SWAP1 PUSH2 0x13B6 SWAP1 DUP3 AND PUSH2 0x13B0 PUSH2 0x48A8 JUMP JUMPDEST SWAP1 PUSH2 0x4B00 JUMP JUMPDEST DUP1 DUP4 SLOAD AND SWAP2 PUSH1 0x40 MLOAD SWAP1 PUSH2 0x13C8 DUP3 PUSH2 0x38BD JUMP JUMPDEST PUSH1 0x18 DUP3 MSTORE PUSH24 0x131BDCDD081848191A5CDC1D5D1948185CC818DB1A595B9D PUSH1 0x42 SHL PUSH1 0x20 DUP4 ADD MSTORE DUP4 PUSH1 0x0 MSTORE PUSH1 0x8 PUSH1 0x20 MSTORE PUSH1 0x40 PUSH1 0x0 KECCAK256 PUSH1 0x40 MLOAD SWAP1 PUSH2 0x1408 DUP3 PUSH2 0x386C JUMP JUMPDEST PUSH1 0x7 DUP3 MSTORE PUSH1 0x20 DUP3 ADD PUSH1 0x4 CALLDATALOAD DUP2 MSTORE PUSH1 0x40 DUP4 ADD SWAP2 TIMESTAMP DUP4 MSTORE PUSH1 0x60 DUP5 ADD SWAP6 DUP7 MSTORE DUP1 SLOAD PUSH1 0x1 PUSH1 0x40 SHL DUP2 LT ISZERO PUSH2 0x3F3 JUMPI PUSH2 0x1441 SWAP2 PUSH1 0x1 DUP3 ADD DUP2 SSTORE PUSH2 0x3AFD JUMP JUMPDEST SWAP4 SWAP1 SWAP4 PUSH2 0xFDB JUMPI MLOAD PUSH1 0xD DUP2 LT ISZERO PUSH2 0x47B JUMPI PUSH1 0xFF PUSH1 0x3 SWAP6 DUP6 SLOAD AND SWAP2 AND OR DUP4 SSTORE MLOAD PUSH1 0x1 DUP4 ADD SSTORE MLOAD PUSH1 0x2 DUP3 ADD SSTORE ADD SWAP1 MLOAD DUP1 MLOAD SWAP1 PUSH1 0x1 DUP1 PUSH1 0x40 SHL SUB DUP3 GT PUSH2 0x3F3 JUMPI DUP2 SWAP1 PUSH2 0x148A DUP5 SLOAD PUSH2 0x3832 JUMP JUMPDEST PUSH1 0x1F DUP2 GT PUSH2 0x15A1 JUMPI JUMPDEST POP PUSH1 0x20 SWAP1 PUSH1 0x1F DUP4 GT PUSH1 0x1 EQ PUSH2 0x153B JUMPI PUSH1 0x0 SWAP3 PUSH2 0x1530 JUMPI JUMPDEST POP POP DUP2 PUSH1 0x1 SHL SWAP2 PUSH1 0x0 NOT SWAP1 PUSH1 0x3 SHL SHR NOT AND OR SWAP1 SSTORE JUMPDEST DUP2 PUSH1 0x0 MSTORE PUSH1 0x9 PUSH1 0x20 MSTORE PUSH1 0x40 PUSH1 0x0 KECCAK256 PUSH1 0x7 PUSH1 0x0 MSTORE PUSH1 0x20 MSTORE PUSH1 0x40 PUSH1 0x0 KECCAK256 DUP1 SLOAD SWAP3 PUSH1 0x1 DUP5 ADD DUP1 SWAP5 GT PUSH2 0xC50 JUMPI PUSH2 0xC21 SWAP5 PUSH1 0x2 PUSH1 0x0 SWAP6 SWAP5 PUSH1 0x7 DUP8 SWAP7 SWAP5 DUP8 SWAP7 SWAP6 DUP8 SWAP7 SSTORE PUSH1 0x0 DUP1 MLOAD PUSH1 0x20 PUSH2 0x4C42 DUP4 CODECOPY DUP2 MLOAD SWAP2 MSTORE PUSH1 0x20 PUSH1 0x40 MLOAD PUSH1 0x4 CALLDATALOAD DUP2 MSTORE LOG3 PUSH1 0x1 DUP4 ADD PUSH2 0xF06 DUP3 DUP3 SLOAD AND PUSH2 0x152A PUSH2 0x48D0 JUMP JUMPDEST SWAP1 PUSH2 0x4A8B JUMP JUMPDEST ADD MLOAD SWAP1 POP DUP7 DUP1 PUSH2 0x14AA JUMP JUMPDEST PUSH1 0x0 DUP6 DUP2 MSTORE PUSH1 0x20 DUP2 KECCAK256 SWAP4 POP PUSH1 0x1F NOT DUP6 AND SWAP1 JUMPDEST DUP2 DUP2 LT PUSH2 0x1589 JUMPI POP SWAP1 DUP5 PUSH1 0x1 SWAP6 SWAP5 SWAP4 SWAP3 LT PUSH2 0x1570 JUMPI JUMPDEST POP POP POP DUP2 SHL ADD SWAP1 SSTORE PUSH2 0x14BF JUMP JUMPDEST ADD MLOAD PUSH1 0x0 NOT PUSH1 0xF8 DUP5 PUSH1 0x3 SHL AND SHR NOT AND SWAP1 SSTORE DUP7 DUP1 DUP1 PUSH2 0x1563 JUMP JUMPDEST SWAP3 SWAP4 PUSH1 0x20 PUSH1 0x1 DUP2 SWAP3 DUP8 DUP7 ADD MLOAD DUP2 SSTORE ADD SWAP6 ADD SWAP4 ADD PUSH2 0x154D JUMP JUMPDEST SWAP1 SWAP2 POP DUP4 PUSH1 0x0 MSTORE PUSH1 0x20 PUSH1 0x0 KECCAK256 PUSH1 0x1F DUP5 ADD PUSH1 0x5 SHR DUP2 ADD SWAP2 PUSH1 0x20 DUP6 LT PUSH2 0x15EA JUMPI JUMPDEST SWAP1 PUSH1 0x1F DUP6 SWAP5 SWAP4 SWAP3 ADD PUSH1 0x5 SHR ADD SWAP1 JUMPDEST DUP2 DUP2 LT PUSH2 0x15DB JUMPI POP PUSH2 0x1493 JUMP JUMPDEST PUSH1 0x0 DUP2 SSTORE DUP5 SWAP4 POP PUSH1 0x1 ADD PUSH2 0x15CE JUMP JUMPDEST SWAP1 SWAP2 POP DUP2 SWAP1 PUSH2 0x15C0 JUMP JUMPDEST PUSH1 0x1 DUP3 ADD DUP1 SLOAD PUSH1 0x1 PUSH1 0x1 PUSH1 0xA0 SHL SUB SWAP2 DUP3 SWAP2 PUSH2 0x1613 SWAP1 DUP4 AND PUSH2 0x13B0 PUSH2 0x48A8 JUMP JUMPDEST SLOAD AND SWAP2 PUSH1 0x40 MLOAD SWAP1 PUSH2 0x1623 DUP3 PUSH2 0x38BD JUMP JUMPDEST PUSH1 0xE DUP3 MSTORE PUSH14 0x4C6F737420612064697370757465 PUSH1 0x90 SHL PUSH1 0x20 DUP4 ADD MSTORE DUP4 PUSH1 0x0 MSTORE PUSH1 0x8 PUSH1 0x20 MSTORE PUSH1 0x40 PUSH1 0x0 KECCAK256 PUSH1 0x40 MLOAD SWAP1 PUSH2 0x1659 DUP3 PUSH2 0x386C JUMP JUMPDEST PUSH1 0x2 DUP3 MSTORE PUSH1 0x20 DUP3 ADD PUSH1 0x4 CALLDATALOAD DUP2 MSTORE PUSH1 0x40 DUP4 ADD SWAP2 TIMESTAMP DUP4 MSTORE PUSH1 0x60 DUP5 ADD SWAP6 DUP7 MSTORE DUP1 SLOAD PUSH1 0x1 PUSH1 0x40 SHL DUP2 LT ISZERO PUSH2 0x3F3 JUMPI PUSH2 0x1692 SWAP2 PUSH1 0x1 DUP3 ADD DUP2 SSTORE PUSH2 0x3AFD JUMP JUMPDEST SWAP4 SWAP1 SWAP4 PUSH2 0xFDB JUMPI MLOAD PUSH1 0xD DUP2 LT ISZERO PUSH2 0x47B JUMPI PUSH1 0xFF PUSH1 0x3 SWAP6 DUP6 SLOAD AND SWAP2 AND OR DUP4 SSTORE MLOAD PUSH1 0x1 DUP4 ADD SSTORE MLOAD PUSH1 0x2 DUP3 ADD SSTORE ADD SWAP1 MLOAD DUP1 MLOAD SWAP1 PUSH1 0x1 DUP1 PUSH1 0x40 SHL SUB DUP3 GT PUSH2 0x3F3 JUMPI DUP2 SWAP1 PUSH2 0x16DB DUP5 SLOAD PUSH2 0x3832 JUMP JUMPDEST PUSH1 0x1F DUP2 GT PUSH2 0x17F8 JUMPI JUMPDEST POP PUSH1 0x20 SWAP1 PUSH1 0x1F DUP4 GT PUSH1 0x1 EQ PUSH2 0x1792 JUMPI PUSH1 0x0 SWAP3 PUSH2 0x1787 JUMPI JUMPDEST POP POP DUP2 PUSH1 0x1 SHL SWAP2 PUSH1 0x0 NOT SWAP1 PUSH1 0x3 SHL SHR NOT AND OR SWAP1 SSTORE JUMPDEST DUP2 PUSH1 0x0 MSTORE PUSH1 0x9 PUSH1 0x20 MSTORE PUSH1 0x40 PUSH1 0x0 KECCAK256 PUSH1 0x2 PUSH1 0x0 MSTORE PUSH1 0x20 MSTORE PUSH1 0x40 PUSH1 0x0 KECCAK256 DUP1 SLOAD SWAP3 PUSH1 0x1 DUP5 ADD DUP1 SWAP5 GT PUSH2 0xC50 JUMPI PUSH2 0xC21 SWAP5 PUSH1 0x2 PUSH1 0x0 SWAP6 SWAP5 DUP2 DUP8 SWAP7 SWAP5 DUP8 SWAP7 SWAP6 DUP8 SWAP7 SSTORE PUSH1 0x0 DUP1 MLOAD PUSH1 0x20 PUSH2 0x4C42 DUP4 CODECOPY DUP2 MLOAD SWAP2 MSTORE PUSH1 0x20 PUSH1 0x40 MLOAD PUSH1 0x4 CALLDATALOAD DUP2 MSTORE LOG3 PUSH2 0x1776 DUP2 DUP5 SLOAD AND PUSH2 0x152A PUSH2 0x48D0 JUMP JUMPDEST DUP3 SLOAD AND SWAP2 ADD SLOAD SWAP1 GAS CALL PUSH2 0xF16 PUSH2 0x3C35 JUMP JUMPDEST ADD MLOAD SWAP1 POP DUP7 DUP1 PUSH2 0x16FB JUMP JUMPDEST PUSH1 0x0 DUP6 DUP2 MSTORE PUSH1 0x20 DUP2 KECCAK256 SWAP4 POP PUSH1 0x1F NOT DUP6 AND SWAP1 JUMPDEST DUP2 DUP2 LT PUSH2 0x17E0 JUMPI POP SWAP1 DUP5 PUSH1 0x1 SWAP6 SWAP5 SWAP4 SWAP3 LT PUSH2 0x17C7 JUMPI JUMPDEST POP POP POP DUP2 SHL ADD SWAP1 SSTORE PUSH2 0x1710 JUMP JUMPDEST ADD MLOAD PUSH1 0x0 NOT PUSH1 0xF8 DUP5 PUSH1 0x3 SHL AND SHR NOT AND SWAP1 SSTORE DUP7 DUP1 DUP1 PUSH2 0x17BA JUMP JUMPDEST SWAP3 SWAP4 PUSH1 0x20 PUSH1 0x1 DUP2 SWAP3 DUP8 DUP7 ADD MLOAD DUP2 SSTORE ADD SWAP6 ADD SWAP4 ADD PUSH2 0x17A4 JUMP JUMPDEST SWAP1 SWAP2 POP DUP4 PUSH1 0x0 MSTORE PUSH1 0x20 PUSH1 0x0 KECCAK256 PUSH1 0x1F DUP5 ADD PUSH1 0x5 SHR DUP2 ADD SWAP2 PUSH1 0x20 DUP6 LT PUSH2 0x1841 JUMPI JUMPDEST SWAP1 PUSH1 0x1F DUP6 SWAP5 SWAP4 SWAP3 ADD PUSH1 0x5 SHR ADD SWAP1 JUMPDEST DUP2 DUP2 LT PUSH2 0x1832 JUMPI POP PUSH2 0x16E4 JUMP JUMPDEST PUSH1 0x0 DUP2 SSTORE DUP5 SWAP4 POP PUSH1 0x1 ADD PUSH2 0x1825 JUMP JUMPDEST SWAP1 SWAP2 POP DUP2 SWAP1 PUSH2 0x1817 JUMP JUMPDEST PUSH1 0x40 MLOAD PUSH3 0x461BCD PUSH1 0xE5 SHL DUP2 MSTORE PUSH1 0x20 PUSH1 0x4 DUP3 ADD MSTORE PUSH1 0x10 PUSH1 0x24 DUP3 ADD MSTORE PUSH16 0x159BDD1A5B99C81B9BDD08195B991959 PUSH1 0x82 SHL PUSH1 0x44 DUP3 ADD MSTORE PUSH1 0x64 SWAP1 REVERT JUMPDEST POP PUSH1 0x9 DUP3 ADD SLOAD PUSH1 0xFF DUP2 PUSH1 0x10 SHR AND PUSH1 0xFF DUP3 PUSH1 0x8 SHR AND ADD SWAP1 PUSH1 0xFF DUP3 GT PUSH2 0xC50 JUMPI PUSH1 0xFF DUP1 SWAP2 AND SWAP2 AND EQ PUSH2 0x1095 JUMP JUMPDEST CALLVALUE PUSH2 0x242 JUMPI PUSH1 0x20 CALLDATASIZE PUSH1 0x3 NOT ADD SLT PUSH2 0x242 JUMPI PUSH1 0x4 CALLDATALOAD PUSH1 0x0 MSTORE PUSH1 0x5 PUSH1 0x20 MSTORE PUSH1 0x40 PUSH1 0x9 DUP2 PUSH1 0x0 KECCAK256 ADD SLOAD PUSH1 0xFF DUP3 MLOAD SWAP2 DUP2 DUP2 PUSH1 0x8 SHR AND DUP4 MSTORE PUSH1 0x10 SHR AND PUSH1 0x20 DUP3 ADD MSTORE RETURN JUMPDEST PUSH2 0x39A1 JUMP JUMPDEST CALLVALUE PUSH2 0x242 JUMPI PUSH1 0x20 CALLDATASIZE PUSH1 0x3 NOT ADD SLT PUSH2 0x242 JUMPI PUSH1 0x1 PUSH1 0x1 PUSH1 0xA0 SHL SUB PUSH2 0x1912 PUSH2 0x3792 JUMP JUMPDEST AND PUSH1 0x0 MSTORE PUSH1 0x4 PUSH1 0x20 MSTORE PUSH2 0x1933 PUSH1 0xFF PUSH1 0x40 PUSH1 0x0 KECCAK256 SLOAD AND PUSH1 0x40 MLOAD SWAP2 DUP3 SWAP2 DUP3 PUSH2 0x3A51 JUMP JUMPDEST SUB SWAP1 RETURN JUMPDEST PUSH1 0x20 DUP1 PUSH1 0x3 NOT CALLDATASIZE ADD SLT PUSH2 0x242 JUMPI PUSH1 0x4 CALLDATALOAD PUSH1 0x0 MSTORE PUSH1 0xB DUP2 MSTORE PUSH1 0x40 PUSH1 0x0 KECCAK256 CALLER PUSH1 0x0 MSTORE PUSH1 0x4 DUP3 MSTORE PUSH1 0xFF PUSH1 0x40 PUSH1 0x0 KECCAK256 SLOAD AND PUSH1 0x3 DUP2 LT ISZERO PUSH2 0x47B JUMPI PUSH1 0x1 PUSH2 0x1979 SWAP2 EQ PUSH2 0x3B43 JUMP JUMPDEST DUP1 SLOAD PUSH1 0x1 PUSH1 0x1 PUSH1 0xA0 SHL SUB AND CALLER SUB PUSH2 0x1A27 JUMPI PUSH1 0xB DUP2 ADD SWAP1 DUP2 SLOAD SWAP1 PUSH1 0xFF DUP3 AND PUSH1 0x9 DUP2 LT ISZERO PUSH2 0x47B JUMPI PUSH2 0x19F4 JUMPI PUSH1 0x2 DUP2 ADD SLOAD CALLVALUE SUB PUSH2 0x19C0 JUMPI TIMESTAMP PUSH1 0x8 SWAP1 SWAP2 ADD SSTORE PUSH1 0xFF NOT AND PUSH1 0x1 OR SWAP1 SSTORE STOP JUMPDEST PUSH1 0x40 MLOAD PUSH3 0x461BCD PUSH1 0xE5 SHL DUP2 MSTORE PUSH1 0x4 DUP2 ADD DUP6 SWAP1 MSTORE PUSH1 0xC PUSH1 0x24 DUP3 ADD MSTORE PUSH12 0x15DC9BDB99C8185B5BDD5B9D PUSH1 0xA2 SHL PUSH1 0x44 DUP3 ADD MSTORE PUSH1 0x64 SWAP1 REVERT JUMPDEST PUSH1 0x40 MLOAD PUSH3 0x461BCD PUSH1 0xE5 SHL DUP2 MSTORE PUSH1 0x4 DUP2 ADD DUP6 SWAP1 MSTORE PUSH1 0xB PUSH1 0x24 DUP3 ADD MSTORE PUSH11 0x139BDD0810DC99585D1959 PUSH1 0xAA SHL PUSH1 0x44 DUP3 ADD MSTORE PUSH1 0x64 SWAP1 REVERT JUMPDEST PUSH1 0x40 MLOAD PUSH3 0x461BCD PUSH1 0xE5 SHL DUP2 MSTORE PUSH1 0x4 DUP2 ADD DUP4 SWAP1 MSTORE PUSH1 0x9 PUSH1 0x24 DUP3 ADD MSTORE PUSH9 0x2737BA1037BBB732B9 PUSH1 0xB9 SHL PUSH1 0x44 DUP3 ADD MSTORE PUSH1 0x64 SWAP1 REVERT JUMPDEST CALLVALUE PUSH2 0x242 JUMPI PUSH1 0x40 CALLDATASIZE PUSH1 0x3 NOT ADD SLT PUSH2 0x242 JUMPI PUSH2 0x1A71 PUSH2 0x3792 JUMP JUMPDEST PUSH1 0x24 CALLDATALOAD SWAP1 PUSH1 0xD DUP3 LT ISZERO PUSH2 0x242 JUMPI PUSH1 0x1 DUP1 PUSH1 0xA0 SHL SUB AND PUSH1 0x0 MSTORE PUSH1 0x9 PUSH1 0x20 MSTORE PUSH1 0x40 PUSH1 0x0 KECCAK256 SWAP1 PUSH1 0x0 MSTORE PUSH1 0x20 MSTORE PUSH1 0x20 PUSH1 0x40 PUSH1 0x0 KECCAK256 SLOAD PUSH1 0x40 MLOAD SWAP1 DUP2 MSTORE RETURN JUMPDEST CALLVALUE PUSH2 0x242 JUMPI PUSH1 0x20 CALLDATASIZE PUSH1 0x3 NOT ADD SLT PUSH2 0x242 JUMPI PUSH1 0x20 PUSH2 0x1ACD PUSH2 0x1AC8 PUSH2 0x3792 JUMP JUMPDEST PUSH2 0x4748 JUMP JUMPDEST PUSH1 0x40 MLOAD SWAP1 DUP2 MSTORE RETURN JUMPDEST CALLVALUE PUSH2 0x242 JUMPI PUSH1 0x60 CALLDATASIZE PUSH1 0x3 NOT ADD SLT PUSH2 0x242 JUMPI PUSH1 0x24 CALLDATALOAD PUSH1 0xFF DUP2 AND DUP2 SUB PUSH2 0x242 JUMPI PUSH1 0x44 CALLDATALOAD PUSH1 0x1 PUSH1 0x1 PUSH1 0x40 SHL SUB DUP2 GT PUSH2 0x242 JUMPI PUSH2 0x1B12 SWAP1 CALLDATASIZE SWAP1 PUSH1 0x4 ADD PUSH2 0x39D8 JUMP JUMPDEST SWAP1 PUSH1 0x4 CALLDATALOAD PUSH1 0x0 MSTORE PUSH1 0xB PUSH1 0x20 MSTORE PUSH1 0x40 PUSH1 0x0 KECCAK256 SWAP2 PUSH1 0x1 DUP1 PUSH1 0xA0 SHL SUB DUP4 SLOAD AND PUSH2 0x1B39 DUP2 CALLER EQ PUSH2 0x3B43 JUMP JUMPDEST PUSH1 0xB DUP5 ADD DUP1 SLOAD PUSH1 0xFF DUP2 AND PUSH1 0x9 DUP2 LT ISZERO PUSH2 0x47B JUMPI PUSH1 0x4 PUSH2 0x1B58 SWAP2 EQ PUSH2 0x3F5D JUMP JUMPDEST PUSH1 0x1 PUSH1 0xFF DUP7 AND LT ISZERO DUP1 PUSH2 0x23BB JUMPI JUMPDEST ISZERO PUSH2 0x2385 JUMPI PUSH1 0xFF NOT AND PUSH1 0x5 OR SWAP1 SSTORE PUSH1 0x40 MLOAD PUSH2 0x1B80 DUP2 PUSH2 0x38A2 JUMP JUMPDEST PUSH1 0x22 DUP2 MSTORE PUSH32 0x52656C6961626C6520636C69656E74207769746820636C65616E20686973746F PUSH1 0x20 DUP3 ADD MSTORE PUSH2 0x7279 PUSH1 0xF0 SHL PUSH1 0x40 DUP3 ADD MSTORE DUP2 PUSH1 0x0 MSTORE PUSH1 0x8 PUSH1 0x20 MSTORE PUSH1 0x40 PUSH1 0x0 KECCAK256 PUSH1 0x40 MLOAD SWAP2 PUSH2 0x1BD0 DUP4 PUSH2 0x386C JUMP JUMPDEST PUSH1 0xB DUP4 MSTORE PUSH1 0x4 CALLDATALOAD PUSH1 0x20 DUP5 ADD MSTORE TIMESTAMP PUSH1 0x40 DUP5 ADD MSTORE PUSH1 0x60 DUP4 ADD MSTORE DUP1 SLOAD PUSH1 0x1 PUSH1 0x40 SHL DUP2 LT ISZERO PUSH2 0x3F3 JUMPI PUSH2 0x1C04 SWAP2 PUSH1 0x1 DUP3 ADD DUP2 SSTORE PUSH2 0x3AFD JUMP JUMPDEST SWAP2 SWAP1 SWAP2 PUSH2 0xFDB JUMPI DUP1 MLOAD SWAP1 PUSH1 0xD DUP3 LT ISZERO PUSH2 0x47B JUMPI PUSH1 0x60 SWAP2 PUSH1 0xFF DUP1 NOT DUP6 SLOAD AND SWAP2 AND OR DUP4 SSTORE PUSH1 0x20 DUP2 ADD MLOAD PUSH1 0x1 DUP5 ADD SSTORE PUSH1 0x40 DUP2 ADD MLOAD PUSH1 0x2 DUP5 ADD SSTORE ADD MLOAD DUP1 MLOAD SWAP1 PUSH1 0x1 DUP1 PUSH1 0x40 SHL SUB DUP3 GT PUSH2 0x3F3 JUMPI PUSH2 0x1C59 PUSH1 0x3 DUP5 ADD SLOAD PUSH2 0x3832 JUMP JUMPDEST PUSH1 0x1F DUP2 GT PUSH2 0x233E JUMPI JUMPDEST POP PUSH1 0x20 SWAP1 PUSH1 0x1F DUP4 GT PUSH1 0x1 EQ PUSH2 0x22CF JUMPI PUSH1 0x3 SWAP3 SWAP2 PUSH1 0x0 SWAP2 DUP4 PUSH2 0x22C4 JUMPI JUMPDEST POP POP DUP2 PUSH1 0x1 SHL SWAP2 PUSH1 0x0 NOT SWAP1 DUP5 SHL SHR NOT AND OR SWAP2 ADD SSTORE JUMPDEST DUP1 PUSH1 0x0 MSTORE PUSH1 0x9 PUSH1 0x20 MSTORE PUSH1 0x40 PUSH1 0x0 KECCAK256 PUSH1 0xB PUSH1 0x0 MSTORE PUSH1 0x20 MSTORE PUSH1 0x40 PUSH1 0x0 KECCAK256 SWAP1 DUP2 SLOAD SWAP2 PUSH1 0x1 DUP4 ADD DUP4 GT PUSH2 0xC50 JUMPI PUSH1 0x1 PUSH1 0xB SWAP4 ADD SWAP1 SSTORE PUSH1 0x0 DUP1 MLOAD PUSH1 0x20 PUSH2 0x4C42 DUP4 CODECOPY DUP2 MLOAD SWAP2 MSTORE PUSH1 0x20 PUSH1 0x40 MLOAD PUSH1 0x4 CALLDATALOAD DUP2 MSTORE LOG3 PUSH2 0x1D13 PUSH1 0x40 MLOAD PUSH2 0x1CED DUP2 PUSH2 0x38BD JUMP JUMPDEST PUSH1 0x13 DUP2 MSTORE PUSH19 0x31B634B2B73A2FB0B8383937BB32B22FB537B1 PUSH1 0x69 SHL PUSH1 0x20 DUP3 ADD MSTORE CALLER PUSH2 0x49C2 JUMP JUMPDEST PUSH1 0x4 PUSH1 0xFF DUP4 AND LT PUSH2 0x1F97 JUMPI PUSH1 0x1 DUP4 ADD DUP1 SLOAD PUSH2 0x1D72 SWAP2 SWAP1 PUSH2 0x1D3E SWAP1 PUSH1 0x1 PUSH1 0x1 PUSH1 0xA0 SHL SUB AND PUSH2 0x152A PUSH2 0x3F99 JUMP JUMPDEST SLOAD PUSH1 0x40 MLOAD SWAP1 PUSH1 0x1 PUSH1 0x1 PUSH1 0xA0 SHL SUB AND PUSH2 0x1D55 DUP3 PUSH2 0x38BD JUMP JUMPDEST PUSH1 0xB DUP3 MSTORE PUSH11 0x676F6F645F726174696E67 PUSH1 0xA8 SHL PUSH1 0x20 DUP4 ADD MSTORE PUSH2 0x49C2 JUMP JUMPDEST PUSH1 0x1 DUP4 ADD SLOAD PUSH1 0x40 MLOAD SWAP2 SWAP1 PUSH1 0x1 PUSH1 0x1 PUSH1 0xA0 SHL SUB AND PUSH2 0x1D8E DUP4 PUSH2 0x386C JUMP JUMPDEST CALLER DUP4 MSTORE PUSH1 0x20 DUP1 DUP5 ADD SWAP2 DUP3 MSTORE PUSH1 0xFF DUP6 AND PUSH1 0x40 DUP1 DUP7 ADD SWAP2 DUP3 MSTORE PUSH1 0x60 DUP7 ADD SWAP5 DUP6 MSTORE PUSH1 0x4 CALLDATALOAD PUSH1 0x0 SWAP1 DUP2 MSTORE PUSH1 0xC SWAP1 SWAP4 MSTORE SWAP1 SWAP2 KECCAK256 SWAP4 MLOAD DUP5 SLOAD PUSH1 0x1 PUSH1 0x1 PUSH1 0xA0 SHL SUB NOT AND PUSH1 0x1 PUSH1 0x1 PUSH1 0xA0 SHL SUB SWAP2 DUP3 AND OR DUP6 SSTORE SWAP2 MLOAD PUSH1 0x1 DUP6 ADD DUP1 SLOAD SWAP3 MLOAD PUSH1 0x1 PUSH1 0x1 PUSH1 0xA8 SHL SUB NOT SWAP1 SWAP4 AND SWAP2 SWAP1 SWAP4 AND OR PUSH1 0xA0 SWAP2 SWAP1 SWAP2 SHL PUSH1 0xFF PUSH1 0xA0 SHL AND OR SWAP1 SSTORE MLOAD DUP1 MLOAD SWAP1 PUSH1 0x1 PUSH1 0x1 PUSH1 0x40 SHL SUB DUP3 GT PUSH2 0x3F3 JUMPI PUSH2 0x1E21 PUSH1 0x2 DUP5 ADD SLOAD PUSH2 0x3832 JUMP JUMPDEST PUSH1 0x1F DUP2 GT PUSH2 0x1F50 JUMPI JUMPDEST POP PUSH1 0x20 SWAP1 PUSH1 0x1F DUP4 GT PUSH1 0x1 EQ PUSH2 0x1EE2 JUMPI PUSH1 0x2 SWAP3 SWAP2 PUSH1 0x0 SWAP2 DUP4 PUSH2 0x1ED7 JUMPI JUMPDEST POP POP DUP2 PUSH1 0x1 SHL SWAP2 PUSH1 0x0 NOT SWAP1 PUSH1 0x3 SHL SHR NOT AND OR SWAP2 ADD SSTORE JUMPDEST PUSH1 0x1 DUP1 PUSH1 0xA0 SHL SUB PUSH1 0x1 DUP4 ADD SLOAD AND PUSH1 0x0 MSTORE PUSH1 0xD PUSH1 0x20 MSTORE PUSH2 0x1E84 PUSH1 0xFF PUSH1 0x40 PUSH1 0x0 KECCAK256 SWAP3 AND DUP3 SLOAD PUSH2 0x3BF0 JUMP JUMPDEST SWAP1 SSTORE PUSH1 0x1 DUP1 PUSH1 0xA0 SHL SUB PUSH1 0x1 DUP3 ADD SLOAD AND PUSH1 0x0 MSTORE PUSH1 0xE PUSH1 0x20 MSTORE PUSH1 0x40 PUSH1 0x0 KECCAK256 DUP1 SLOAD SWAP2 PUSH1 0x1 DUP4 ADD DUP1 SWAP4 GT PUSH2 0xC50 JUMPI PUSH1 0x0 DUP1 DUP1 DUP1 SWAP4 DUP7 PUSH2 0xC21 SWAP7 SSTORE PUSH1 0x2 PUSH1 0x1 DUP1 PUSH1 0xA0 SHL SUB PUSH1 0x1 DUP4 ADD SLOAD AND SWAP2 ADD SLOAD SWAP1 GAS CALL PUSH2 0xF16 PUSH2 0x3C35 JUMP JUMPDEST ADD MLOAD SWAP1 POP DUP7 DUP1 PUSH2 0x1E46 JUMP JUMPDEST SWAP1 PUSH1 0x1F NOT DUP4 AND SWAP2 PUSH1 0x2 DUP6 ADD PUSH1 0x0 MSTORE PUSH1 0x20 PUSH1 0x0 KECCAK256 SWAP3 PUSH1 0x0 JUMPDEST DUP2 DUP2 LT PUSH2 0x1F38 JUMPI POP SWAP2 PUSH1 0x1 SWAP4 SWAP2 DUP6 PUSH1 0x2 SWAP7 SWAP5 LT PUSH2 0x1F1F JUMPI JUMPDEST POP POP POP DUP2 SHL ADD SWAP2 ADD SSTORE PUSH2 0x1E5C JUMP JUMPDEST ADD MLOAD PUSH1 0x0 NOT PUSH1 0xF8 DUP5 PUSH1 0x3 SHL AND SHR NOT AND SWAP1 SSTORE DUP7 DUP1 DUP1 PUSH2 0x1F11 JUMP JUMPDEST SWAP3 SWAP4 PUSH1 0x20 PUSH1 0x1 DUP2 SWAP3 DUP8 DUP7 ADD MLOAD DUP2 SSTORE ADD SWAP6 ADD SWAP4 ADD PUSH2 0x1EF9 JUMP JUMPDEST PUSH1 0x2 DUP5 ADD PUSH1 0x0 MSTORE PUSH1 0x20 PUSH1 0x0 KECCAK256 PUSH1 0x1F DUP5 ADD PUSH1 0x5 SHR DUP2 ADD PUSH1 0x20 DUP6 LT PUSH2 0x1F90 JUMPI JUMPDEST PUSH1 0x1F DUP4 ADD PUSH1 0x5 SHR DUP3 ADD DUP2 LT PUSH2 0x1F84 JUMPI POP POP PUSH2 0x1E2A JUMP JUMPDEST PUSH1 0x0 DUP2 SSTORE PUSH1 0x1 ADD PUSH2 0x1F6E JUMP JUMPDEST POP DUP1 PUSH2 0x1F6E JUMP JUMPDEST PUSH1 0x2 PUSH1 0xFF DUP4 AND GT PUSH2 0x22A5 JUMPI PUSH1 0x1 DUP4 ADD SLOAD PUSH2 0x1FBC SWAP1 PUSH1 0x1 PUSH1 0x1 PUSH1 0xA0 SHL SUB AND PUSH2 0x152A PUSH2 0x3F99 JUMP JUMPDEST PUSH1 0x1 DUP1 PUSH1 0xA0 SHL SUB PUSH1 0x1 DUP5 ADD SLOAD AND PUSH1 0x40 MLOAD PUSH2 0x1FD5 DUP2 PUSH2 0x38BD JUMP JUMPDEST PUSH1 0xA DUP2 MSTORE PUSH10 0x6261645F726174696E67 PUSH1 0xB0 SHL PUSH1 0x20 DUP3 ADD MSTORE DUP2 PUSH1 0x0 MSTORE PUSH1 0x0 PUSH1 0x20 MSTORE PUSH1 0xFF PUSH1 0x40 PUSH1 0x0 KECCAK256 SLOAD AND SWAP1 DUP2 PUSH1 0x7 LT ISZERO PUSH1 0x0 EQ PUSH2 0x227B JUMPI PUSH1 0x0 DUP1 MLOAD PUSH1 0x20 PUSH2 0x4C62 DUP4 CODECOPY DUP2 MLOAD SWAP2 MSTORE SWAP2 PUSH2 0x2049 PUSH1 0x0 SWAP3 JUMPDEST DUP6 PUSH1 0x0 MSTORE PUSH1 0x0 PUSH1 0x20 MSTORE PUSH1 0x40 PUSH1 0x0 KECCAK256 PUSH1 0xFF DUP6 AND PUSH1 0xFF NOT DUP3 SLOAD AND OR SWAP1 SSTORE PUSH1 0x40 MLOAD SWAP4 DUP5 SWAP4 DUP5 PUSH2 0x49A1 JUMP JUMPDEST SUB SWAP1 LOG2 PUSH1 0x1 DUP1 PUSH1 0xA0 SHL SUB PUSH1 0x1 DUP5 ADD SLOAD AND PUSH1 0x40 MLOAD PUSH2 0x2065 DUP2 PUSH2 0x38BD JUMP JUMPDEST PUSH1 0x1B DUP2 MSTORE PUSH27 0x52656365697665642031206F722032207374617220726174696E67 PUSH1 0x28 SHL PUSH1 0x20 DUP3 ADD MSTORE DUP2 PUSH1 0x0 MSTORE PUSH1 0x8 PUSH1 0x20 MSTORE PUSH1 0x40 PUSH1 0x0 KECCAK256 PUSH1 0x40 MLOAD SWAP2 PUSH2 0x20A8 DUP4 PUSH2 0x386C JUMP JUMPDEST PUSH1 0x1 DUP4 MSTORE PUSH1 0x4 CALLDATALOAD PUSH1 0x20 DUP5 ADD MSTORE TIMESTAMP PUSH1 0x40 DUP5 ADD MSTORE PUSH1 0x60 DUP4 ADD MSTORE DUP1 SLOAD PUSH1 0x1 PUSH1 0x40 SHL DUP2 LT ISZERO PUSH2 0x3F3 JUMPI PUSH2 0x20DC SWAP2 PUSH1 0x1 DUP3 ADD DUP2 SSTORE PUSH2 0x3AFD JUMP JUMPDEST SWAP2 SWAP1 SWAP2 PUSH2 0xFDB JUMPI DUP1 MLOAD SWAP1 PUSH1 0xD DUP3 LT ISZERO PUSH2 0x47B JUMPI PUSH1 0x60 SWAP2 PUSH1 0xFF DUP1 NOT DUP6 SLOAD AND SWAP2 AND OR DUP4 SSTORE PUSH1 0x20 DUP2 ADD MLOAD PUSH1 0x1 DUP5 ADD SSTORE PUSH1 0x40 DUP2 ADD MLOAD PUSH1 0x2 DUP5 ADD SSTORE ADD MLOAD DUP1 MLOAD SWAP1 PUSH1 0x1 DUP1 PUSH1 0x40 SHL SUB DUP3 GT PUSH2 0x3F3 JUMPI PUSH2 0x2131 PUSH1 0x3 DUP5 ADD SLOAD PUSH2 0x3832 JUMP JUMPDEST PUSH1 0x1F DUP2 GT PUSH2 0x2234 JUMPI JUMPDEST POP PUSH1 0x20 SWAP1 PUSH1 0x1F DUP4 GT PUSH1 0x1 EQ PUSH2 0x21C5 JUMPI PUSH1 0x3 SWAP3 SWAP2 PUSH1 0x0 SWAP2 DUP4 PUSH2 0x21BA JUMPI JUMPDEST POP POP DUP2 PUSH1 0x1 SHL SWAP2 PUSH1 0x0 NOT SWAP1 DUP5 SHL SHR NOT AND OR SWAP2 ADD SSTORE JUMPDEST DUP1 PUSH1 0x0 MSTORE PUSH1 0x9 PUSH1 0x20 MSTORE PUSH1 0x40 PUSH1 0x0 KECCAK256 PUSH1 0x1 PUSH1 0x0 MSTORE PUSH1 0x20 MSTORE PUSH1 0x40 PUSH1 0x0 KECCAK256 SWAP1 DUP2 SLOAD SWAP2 PUSH1 0x1 DUP4 ADD DUP4 GT PUSH2 0xC50 JUMPI PUSH1 0x1 DUP1 SWAP4 ADD SWAP1 SSTORE PUSH1 0x0 DUP1 MLOAD PUSH1 0x20 PUSH2 0x4C42 DUP4 CODECOPY DUP2 MLOAD SWAP2 MSTORE PUSH1 0x20 PUSH1 0x40 MLOAD PUSH1 0x4 CALLDATALOAD DUP2 MSTORE LOG3 PUSH2 0x1D72 JUMP JUMPDEST ADD MLOAD SWAP1 POP DUP9 DUP1 PUSH2 0x2156 JUMP JUMPDEST SWAP1 PUSH1 0x3 DUP5 ADD PUSH1 0x0 MSTORE PUSH1 0x20 PUSH1 0x0 KECCAK256 SWAP2 PUSH1 0x0 JUMPDEST PUSH1 0x1F NOT DUP6 AND DUP2 LT PUSH2 0x221C JUMPI POP SWAP2 DUP4 SWAP2 PUSH1 0x1 SWAP4 PUSH1 0x3 SWAP6 PUSH1 0x1F NOT DUP2 AND LT PUSH2 0x2204 JUMPI JUMPDEST POP POP POP DUP2 SHL ADD SWAP2 ADD SSTORE PUSH2 0x216B JUMP JUMPDEST ADD MLOAD PUSH1 0x0 NOT DUP4 DUP7 SHL PUSH1 0xF8 AND SHR NOT AND SWAP1 SSTORE DUP9 DUP1 DUP1 PUSH2 0x21F6 JUMP JUMPDEST SWAP2 SWAP3 PUSH1 0x20 PUSH1 0x1 DUP2 SWAP3 DUP7 DUP6 ADD MLOAD DUP2 SSTORE ADD SWAP5 ADD SWAP3 ADD PUSH2 0x21D6 JUMP JUMPDEST PUSH1 0x3 DUP5 ADD PUSH1 0x0 MSTORE PUSH1 0x20 PUSH1 0x0 KECCAK256 PUSH1 0x1F DUP5 ADD PUSH1 0x5 SHR DUP2 ADD PUSH1 0x20 DUP6 LT PUSH2 0x2274 JUMPI JUMPDEST PUSH1 0x1F DUP4 ADD PUSH1 0x5 SHR DUP3 ADD DUP2 LT PUSH2 0x2268 JUMPI POP POP PUSH2 0x213A JUMP JUMPDEST PUSH1 0x0 DUP2 SSTORE PUSH1 0x1 ADD PUSH2 0x2252 JUMP JUMPDEST POP DUP1 PUSH2 0x2252 JUMP JUMPDEST PUSH1 0xFF PUSH1 0x6 NOT DUP4 ADD GT PUSH2 0xC50 JUMPI PUSH1 0x0 DUP1 MLOAD PUSH1 0x20 PUSH2 0x4C62 DUP4 CODECOPY DUP2 MLOAD SWAP2 MSTORE SWAP2 PUSH2 0x2049 PUSH1 0x6 NOT DUP3 ADD SWAP3 PUSH2 0x2022 JUMP JUMPDEST PUSH1 0x1 DUP4 ADD SLOAD PUSH2 0x22BF SWAP1 PUSH1 0x1 PUSH1 0x1 PUSH1 0xA0 SHL SUB AND PUSH2 0x152A PUSH2 0x3F99 JUMP JUMPDEST PUSH2 0x1D72 JUMP JUMPDEST ADD MLOAD SWAP1 POP DUP9 DUP1 PUSH2 0x1C7E JUMP JUMPDEST SWAP1 PUSH1 0x3 DUP5 ADD PUSH1 0x0 MSTORE PUSH1 0x20 PUSH1 0x0 KECCAK256 SWAP2 PUSH1 0x0 JUMPDEST PUSH1 0x1F NOT DUP6 AND DUP2 LT PUSH2 0x2326 JUMPI POP SWAP2 DUP4 SWAP2 PUSH1 0x1 SWAP4 PUSH1 0x3 SWAP6 PUSH1 0x1F NOT DUP2 AND LT PUSH2 0x230E JUMPI JUMPDEST POP POP POP DUP2 SHL ADD SWAP2 ADD SSTORE PUSH2 0x1C93 JUMP JUMPDEST ADD MLOAD PUSH1 0x0 NOT DUP4 DUP7 SHL PUSH1 0xF8 AND SHR NOT AND SWAP1 SSTORE DUP9 DUP1 DUP1 PUSH2 0x2300 JUMP JUMPDEST SWAP2 SWAP3 PUSH1 0x20 PUSH1 0x1 DUP2 SWAP3 DUP7 DUP6 ADD MLOAD DUP2 SSTORE ADD SWAP5 ADD SWAP3 ADD PUSH2 0x22E0 JUMP JUMPDEST PUSH1 0x3 DUP5 ADD PUSH1 0x0 MSTORE PUSH1 0x20 PUSH1 0x0 KECCAK256 PUSH1 0x1F DUP5 ADD PUSH1 0x5 SHR DUP2 ADD PUSH1 0x20 DUP6 LT PUSH2 0x237E JUMPI JUMPDEST PUSH1 0x1F DUP4 ADD PUSH1 0x5 SHR DUP3 ADD DUP2 LT PUSH2 0x2372 JUMPI POP POP PUSH2 0x1C62 JUMP JUMPDEST PUSH1 0x0 DUP2 SSTORE PUSH1 0x1 ADD PUSH2 0x235C JUMP JUMPDEST POP DUP1 PUSH2 0x235C JUMP JUMPDEST PUSH1 0x40 MLOAD PUSH3 0x461BCD PUSH1 0xE5 SHL DUP2 MSTORE PUSH1 0x20 PUSH1 0x4 DUP3 ADD MSTORE PUSH1 0xE PUSH1 0x24 DUP3 ADD MSTORE PUSH14 0x496E76616C696420726174696E67 PUSH1 0x90 SHL PUSH1 0x44 DUP3 ADD MSTORE PUSH1 0x64 SWAP1 REVERT JUMPDEST POP PUSH1 0x5 PUSH1 0xFF DUP7 AND GT ISZERO PUSH2 0x1B66 JUMP JUMPDEST CALLVALUE PUSH2 0x242 JUMPI PUSH1 0x0 CALLDATASIZE PUSH1 0x3 NOT ADD SLT PUSH2 0x242 JUMPI CALLER PUSH1 0x0 MSTORE PUSH1 0x4 PUSH1 0x20 MSTORE PUSH2 0x1933 PUSH1 0xFF PUSH1 0x40 PUSH1 0x0 KECCAK256 SLOAD AND PUSH1 0x40 MLOAD SWAP2 DUP3 SWAP2 DUP3 PUSH2 0x3A51 JUMP JUMPDEST CALLVALUE PUSH2 0x242 JUMPI PUSH1 0x0 CALLDATASIZE PUSH1 0x3 NOT ADD SLT PUSH2 0x242 JUMPI CALLER PUSH1 0x0 MSTORE PUSH1 0x4 PUSH1 0x20 MSTORE PUSH1 0xFF PUSH1 0x40 PUSH1 0x0 KECCAK256 SLOAD AND PUSH1 0x3 DUP2 LT ISZERO PUSH2 0x47B JUMPI PUSH2 0x2431 SWAP1 ISZERO PUSH2 0x3A64 JUMP JUMPDEST CALLER PUSH1 0x0 MSTORE PUSH1 0x4 PUSH1 0x20 MSTORE PUSH1 0x40 PUSH1 0x0 KECCAK256 PUSH1 0x1 PUSH1 0xFF NOT DUP3 SLOAD AND OR SWAP1 SSTORE PUSH2 0x2453 CALLER PUSH2 0x48F7 JUMP JUMPDEST PUSH2 0xC21 CALLER PUSH2 0x4BC8 JUMP JUMPDEST CALLVALUE PUSH2 0x242 JUMPI PUSH1 0x20 CALLDATASIZE PUSH1 0x3 NOT ADD SLT PUSH2 0x242 JUMPI PUSH1 0x1 PUSH1 0x1 PUSH1 0xA0 SHL SUB PUSH2 0x247D PUSH2 0x3792 JUMP JUMPDEST AND PUSH1 0x0 MSTORE PUSH1 0x9 PUSH1 0x20 MSTORE PUSH1 0x40 PUSH1 0x0 KECCAK256 PUSH1 0x9 PUSH1 0x0 MSTORE PUSH1 0x20 MSTORE PUSH1 0x20 PUSH1 0x40 PUSH1 0x0 KECCAK256 SLOAD ISZERO ISZERO PUSH1 0x40 MLOAD SWAP1 DUP2 MSTORE RETURN JUMPDEST CALLVALUE PUSH2 0x242 JUMPI PUSH1 0x20 CALLDATASIZE PUSH1 0x3 NOT ADD SLT PUSH2 0x242 JUMPI PUSH1 0x4 CALLDATALOAD DUP1 PUSH1 0x0 MSTORE PUSH1 0xB PUSH1 0x20 MSTORE PUSH1 0x40 PUSH1 0x0 KECCAK256 PUSH1 0xB DUP2 ADD SWAP2 DUP3 SLOAD SWAP1 PUSH1 0xFF DUP3 AND PUSH1 0x9 DUP2 LT ISZERO PUSH2 0x47B JUMPI PUSH1 0x3 SUB PUSH2 0x257B JUMPI PUSH1 0x0 DUP1 DUP1 DUP6 PUSH1 0x2 DUP3 SWAP6 DUP10 PUSH1 0x6 PUSH2 0xC21 SWAP10 PUSH2 0x2511 PUSH2 0x2509 PUSH1 0x4 DUP9 ADD SLOAD PUSH1 0x5 DUP10 ADD SLOAD SWAP1 PUSH2 0x3BF0 JUMP JUMPDEST TIMESTAMP LT ISZERO PUSH2 0x3BFD JUMP JUMPDEST PUSH1 0xFF NOT AND OR SWAP1 SSTORE PUSH1 0x1 DUP4 ADD DUP1 SLOAD PUSH1 0x40 MLOAD PUSH1 0x1 PUSH1 0x1 PUSH1 0xA0 SHL SUB SWAP4 PUSH2 0x256A SWAP4 SWAP1 SWAP3 DUP6 SWAP3 PUSH2 0x2563 SWAP2 DUP5 AND PUSH2 0x2541 DUP3 PUSH2 0x38BD JUMP JUMPDEST PUSH1 0x10 DUP3 MSTORE PUSH16 0x1DDBDC9AD95C97D858985B991BDB9959 PUSH1 0x82 SHL PUSH1 0x20 DUP4 ADD MSTORE PUSH2 0x4B00 JUMP JUMPDEST SLOAD AND PUSH2 0x3CA1 JUMP JUMPDEST DUP3 SLOAD AND SWAP2 ADD SLOAD SWAP1 GAS CALL PUSH2 0xB7C PUSH2 0x3C35 JUMP JUMPDEST PUSH1 0x40 MLOAD PUSH3 0x461BCD PUSH1 0xE5 SHL DUP2 MSTORE PUSH1 0x20 PUSH1 0x4 DUP3 ADD MSTORE PUSH1 0xF PUSH1 0x24 DUP3 ADD MSTORE PUSH15 0x4E6F7420696E2070726F6772657373 PUSH1 0x88 SHL PUSH1 0x44 DUP3 ADD MSTORE PUSH1 0x64 SWAP1 REVERT JUMPDEST CALLVALUE PUSH2 0x242 JUMPI PUSH1 0x20 DUP1 PUSH1 0x3 NOT CALLDATASIZE ADD SLT PUSH2 0x242 JUMPI PUSH1 0x4 CALLDATALOAD PUSH1 0x0 MSTORE PUSH1 0xB DUP2 MSTORE PUSH1 0x40 PUSH1 0x0 KECCAK256 CALLER PUSH1 0x0 MSTORE PUSH1 0x4 DUP3 MSTORE PUSH1 0xFF PUSH1 0x40 PUSH1 0x0 KECCAK256 SLOAD AND PUSH1 0x3 DUP2 LT ISZERO PUSH2 0x47B JUMPI PUSH1 0x2 PUSH2 0x25F9 SWAP2 EQ PUSH2 0x3B7C JUMP JUMPDEST PUSH1 0xB DUP2 ADD SWAP1 DUP2 SLOAD SWAP1 PUSH1 0xFF DUP3 AND PUSH1 0x9 DUP2 LT ISZERO PUSH2 0x47B JUMPI PUSH1 0x1 SUB PUSH2 0x26C7 JUMPI DUP1 SLOAD PUSH1 0x1 PUSH1 0x1 PUSH1 0xA0 SHL SUB SWAP1 DUP2 AND CALLER EQ PUSH2 0x268C JUMPI PUSH1 0x1 DUP3 ADD SWAP1 DUP2 SLOAD SWAP1 DUP2 AND PUSH2 0x2657 JUMPI PUSH1 0x1 PUSH1 0x1 PUSH1 0xA0 SHL SUB NOT AND CALLER OR SWAP1 SSTORE TIMESTAMP PUSH1 0x9 SWAP2 SWAP1 SWAP2 ADD SSTORE PUSH1 0xFF NOT AND PUSH1 0x2 OR SWAP1 SSTORE STOP JUMPDEST PUSH1 0x40 MLOAD PUSH3 0x461BCD PUSH1 0xE5 SHL DUP2 MSTORE PUSH1 0x4 DUP2 ADD DUP8 SWAP1 MSTORE PUSH1 0xD PUSH1 0x24 DUP3 ADD MSTORE PUSH13 0x20B63932B0B23C903A30B5B2B7 PUSH1 0x99 SHL PUSH1 0x44 DUP3 ADD MSTORE PUSH1 0x64 SWAP1 REVERT JUMPDEST PUSH1 0x40 MLOAD PUSH3 0x461BCD PUSH1 0xE5 SHL DUP2 MSTORE PUSH1 0x4 DUP2 ADD DUP7 SWAP1 MSTORE PUSH1 0x13 PUSH1 0x24 DUP3 ADD MSTORE PUSH19 0x21B0B73737BA103A30B5B29037BBB7103537B1 PUSH1 0x69 SHL PUSH1 0x44 DUP3 ADD MSTORE PUSH1 0x64 SWAP1 REVERT JUMPDEST PUSH1 0x40 MLOAD PUSH3 0x461BCD PUSH1 0xE5 SHL DUP2 MSTORE PUSH1 0x4 DUP2 ADD DUP6 SWAP1 MSTORE PUSH1 0xA PUSH1 0x24 DUP3 ADD MSTORE PUSH10 0x139BDD08199D5B991959 PUSH1 0xB2 SHL PUSH1 0x44 DUP3 ADD MSTORE PUSH1 0x64 SWAP1 REVERT JUMPDEST CALLVALUE PUSH2 0x242 JUMPI PUSH2 0x2707 CALLDATASIZE PUSH2 0x3A1F JUMP JUMPDEST PUSH1 0x0 DUP3 DUP2 MSTORE PUSH1 0xB PUSH1 0x20 MSTORE PUSH1 0x40 SWAP1 KECCAK256 DUP1 SLOAD PUSH1 0x1 PUSH1 0x1 PUSH1 0xA0 SHL SUB AND SWAP1 CALLER DUP3 EQ DUP1 ISZERO PUSH2 0x2C79 JUMPI JUMPDEST PUSH2 0x2734 SWAP1 PUSH2 0x4799 JUMP JUMPDEST PUSH1 0xB DUP2 ADD DUP1 SLOAD PUSH1 0xFF DUP2 AND PUSH1 0x9 DUP2 LT ISZERO PUSH2 0x47B JUMPI PUSH1 0x4 DUP2 EQ SWAP1 DUP2 ISZERO PUSH2 0x2C6E JUMPI JUMPDEST POP ISZERO PUSH2 0x2C2D JUMPI PUSH1 0x7 SWAP1 PUSH1 0xFF NOT AND OR SWAP1 SSTORE PUSH1 0x1 DUP1 DUP1 PUSH1 0xA0 SHL SUB SWAP2 ADD SLOAD AND SWAP1 DUP4 PUSH1 0x0 MSTORE PUSH1 0x5 PUSH1 0x20 MSTORE PUSH1 0x40 PUSH1 0x0 KECCAK256 SWAP3 PUSH2 0x2790 PUSH1 0xFF PUSH1 0xB DUP7 ADD SLOAD AND ISZERO PUSH2 0x47D4 JUMP JUMPDEST PUSH1 0xA DUP5 ADD SLOAD PUSH2 0x2BEF JUMPI DUP5 DUP5 SSTORE PUSH1 0x1 DUP5 ADD DUP1 SLOAD PUSH1 0x1 PUSH1 0x1 PUSH1 0xA0 SHL SUB NOT AND CALLER OR SWAP1 SSTORE DUP1 MLOAD SWAP1 PUSH1 0x1 PUSH1 0x1 PUSH1 0x40 SHL SUB DUP3 GT PUSH2 0x3F3 JUMPI DUP2 SWAP1 PUSH2 0x27D0 PUSH1 0x2 DUP8 ADD SLOAD PUSH2 0x3832 JUMP JUMPDEST PUSH1 0x1F DUP2 GT PUSH2 0x2B9C JUMPI JUMPDEST POP PUSH1 0x20 SWAP1 PUSH1 0x1F DUP4 GT PUSH1 0x1 EQ PUSH2 0x2B2F JUMPI PUSH1 0x0 SWAP3 PUSH2 0x2B24 JUMPI JUMPDEST POP POP DUP2 PUSH1 0x1 SHL SWAP2 PUSH1 0x0 NOT SWAP1 PUSH1 0x3 SHL SHR NOT AND OR PUSH1 0x2 DUP5 ADD SSTORE JUMPDEST PUSH2 0x12C TIMESTAMP ADD DUP1 TIMESTAMP GT PUSH2 0xC50 JUMPI PUSH1 0xA DUP5 ADD SSTORE PUSH1 0x40 MLOAD PUSH1 0x20 DUP2 ADD SWAP1 TIMESTAMP DUP3 MSTORE PREVRANDAO PUSH1 0x40 DUP3 ADD MSTORE DUP6 PUSH1 0x60 DUP3 ADD MSTORE PUSH1 0x60 DUP2 MSTORE PUSH2 0x283D DUP2 PUSH2 0x386C JUMP JUMPDEST MLOAD SWAP1 KECCAK256 SWAP2 PUSH1 0x2 SLOAD PUSH2 0x284D DUP2 PUSH2 0x3ABC JUMP JUMPDEST SWAP3 PUSH1 0x0 SWAP3 PUSH1 0x0 JUMPDEST DUP4 DUP2 LT PUSH2 0x2AB2 JUMPI POP POP POP POP PUSH1 0x5 DUP2 LT PUSH1 0x0 EQ PUSH2 0x2AA7 JUMPI PUSH1 0xFF DUP2 AND SWAP1 SWAP5 SWAP4 SWAP5 JUMPDEST PUSH2 0x287F PUSH1 0xFF DUP4 AND PUSH2 0x3ABC JUMP JUMPDEST SWAP4 PUSH2 0x2889 DUP3 PUSH2 0x3ABC JUMP JUMPDEST SWAP4 PUSH1 0x0 JUMPDEST DUP4 DUP2 LT PUSH2 0x2A7A JUMPI POP POP PUSH1 0x0 JUMPDEST PUSH1 0xFF DUP5 AND DUP2 LT PUSH2 0x29B0 JUMPI DUP8 DUP8 DUP8 PUSH1 0xFF DUP2 MLOAD AND PUSH1 0x9 DUP5 ADD SWAP1 PUSH1 0xFF NOT DUP3 SLOAD AND OR SWAP1 SSTORE PUSH1 0x4 PUSH1 0x0 SWAP4 ADD SWAP3 JUMPDEST DUP2 MLOAD PUSH1 0xFF DUP3 AND SWAP1 DUP2 LT ISZERO PUSH2 0x291B JUMPI PUSH2 0x2916 SWAP2 SWAP1 PUSH2 0x1263 SWAP1 PUSH1 0x1 PUSH1 0x1 PUSH1 0xA0 SHL SUB SWAP1 PUSH2 0x28EB SWAP1 DUP7 PUSH2 0x3B2F JUMP JUMPDEST MLOAD AND PUSH2 0x28F7 DUP4 DUP9 PUSH2 0x4824 JUMP JUMPDEST SWAP1 SWAP2 SWAP1 DUP3 SLOAD SWAP1 PUSH1 0x3 SHL SWAP2 PUSH1 0x1 DUP1 PUSH1 0xA0 SHL SUB DUP1 SWAP2 AND DUP4 SHL SWAP3 SHL NOT AND OR SWAP1 SSTORE JUMP JUMPDEST PUSH2 0x28C1 JUMP JUMPDEST POP POP PUSH1 0x40 MLOAD SWAP1 CALLER DUP4 PUSH32 0x84A477DF8A28A4276CA6DEE4458A06C3015F30C477D9C949EDE4E13FF8A552B4 PUSH1 0x0 DUP1 LOG3 PUSH1 0x20 DUP3 ADD PUSH1 0x20 DUP4 MSTORE DUP2 MLOAD DUP1 SWAP2 MSTORE PUSH1 0x20 PUSH1 0x40 DUP5 ADD SWAP3 ADD SWAP1 PUSH1 0x0 JUMPDEST DUP2 DUP2 LT PUSH2 0x2991 JUMPI DUP6 PUSH32 0xAAF49C3B93C6F3A66B3AD89750CFDBB3FE0BE786559EF1298F6E6CB977566337 DUP7 DUP7 SUB DUP8 LOG2 STOP JUMPDEST DUP3 MLOAD PUSH1 0x1 PUSH1 0x1 PUSH1 0xA0 SHL SUB AND DUP5 MSTORE PUSH1 0x20 SWAP4 DUP5 ADD SWAP4 SWAP1 SWAP3 ADD SWAP2 PUSH1 0x1 ADD PUSH2 0x2961 JUMP JUMPDEST PUSH1 0x40 SWAP8 SWAP7 SWAP8 MLOAD PUSH1 0x20 DUP2 ADD SWAP1 DUP4 DUP3 MSTORE DUP3 PUSH1 0x40 DUP3 ADD MSTORE PUSH1 0x40 DUP2 MSTORE PUSH2 0x29D1 DUP2 PUSH2 0x38A2 JUMP JUMPDEST MLOAD SWAP1 KECCAK256 SWAP1 DUP1 DUP5 SUB SWAP1 DUP5 DUP3 GT PUSH2 0xC50 JUMPI DUP1 DUP6 EQ PUSH2 0x2A64 JUMPI PUSH2 0x29F8 PUSH2 0x2A5A SWAP3 PUSH1 0xFF SWAP5 MOD DUP3 PUSH2 0x3BF0 JUMP JUMPDEST PUSH2 0x2A35 PUSH1 0x1 PUSH1 0x1 PUSH1 0xA0 SHL SUB PUSH2 0x2A0D DUP5 DUP12 PUSH2 0x3B2F JUMP JUMPDEST MLOAD AND SWAP2 PUSH1 0x1 PUSH1 0x1 PUSH1 0xA0 SHL SUB PUSH2 0x2A22 DUP3 DUP13 PUSH2 0x3B2F JUMP JUMPDEST MLOAD AND PUSH2 0x2A2E DUP6 DUP13 PUSH2 0x3B2F JUMP JUMPDEST MSTORE DUP10 PUSH2 0x3B2F JUMP JUMPDEST MSTORE PUSH1 0x1 PUSH1 0x1 PUSH1 0xA0 SHL SUB PUSH2 0x2A48 DUP3 DUP10 PUSH2 0x3B2F JUMP JUMPDEST MLOAD AND PUSH2 0x2A54 DUP3 DUP11 PUSH2 0x3B2F JUMP JUMPDEST MSTORE PUSH2 0x3AEE JUMP JUMPDEST SWAP1 POP SWAP7 SWAP6 SWAP7 PUSH2 0x2899 JUMP JUMPDEST PUSH4 0x4E487B71 PUSH1 0xE0 SHL PUSH1 0x0 MSTORE PUSH1 0x12 PUSH1 0x4 MSTORE PUSH1 0x24 PUSH1 0x0 REVERT JUMPDEST SWAP7 SWAP8 SWAP7 PUSH2 0x2A9F SWAP1 PUSH1 0x1 PUSH1 0x1 PUSH1 0xA0 SHL SUB PUSH2 0x2A93 DUP3 DUP6 PUSH2 0x3B2F JUMP JUMPDEST MLOAD AND PUSH2 0x2A54 DUP3 DUP10 PUSH2 0x3B2F JUMP JUMPDEST SWAP8 SWAP7 SWAP8 PUSH2 0x288D JUMP JUMPDEST PUSH1 0x5 SWAP1 SWAP5 SWAP4 SWAP5 PUSH2 0x2873 JUMP JUMPDEST PUSH2 0x2ABB DUP2 PUSH2 0x4BAD JUMP JUMPDEST SWAP1 SLOAD PUSH1 0x3 SWAP2 SWAP1 SWAP2 SHL SHR PUSH1 0x1 PUSH1 0x1 PUSH1 0xA0 SHL SUB AND DUP4 DUP2 EQ ISZERO DUP1 PUSH2 0x2B1A JUMPI JUMPDEST DUP1 PUSH2 0x2B0B JUMPI JUMPDEST PUSH2 0x2AF1 JUMPI JUMPDEST POP PUSH2 0x2AEC SWAP1 PUSH2 0x3AEE JUMP JUMPDEST PUSH2 0x2854 JUMP JUMPDEST DUP6 PUSH2 0x2B04 SWAP2 PUSH2 0x2A54 PUSH2 0x2AEC SWAP5 SWAP9 DUP11 PUSH2 0x3B2F JUMP JUMPDEST SWAP5 SWAP1 PUSH2 0x2AE2 JUMP JUMPDEST POP PUSH2 0x2B15 DUP2 PUSH2 0x4B8D JUMP JUMPDEST PUSH2 0x2ADD JUMP JUMPDEST POP DUP3 DUP2 EQ ISZERO PUSH2 0x2AD7 JUMP JUMPDEST ADD MLOAD SWAP1 POP DUP7 DUP1 PUSH2 0x27F0 JUMP JUMPDEST PUSH1 0x2 DUP8 ADD PUSH1 0x0 SWAP1 DUP2 MSTORE PUSH1 0x20 DUP2 KECCAK256 SWAP4 POP PUSH1 0x1F NOT DUP6 AND SWAP1 JUMPDEST DUP2 DUP2 LT PUSH2 0x2B84 JUMPI POP SWAP1 DUP5 PUSH1 0x1 SWAP6 SWAP5 SWAP4 SWAP3 LT PUSH2 0x2B6B JUMPI JUMPDEST POP POP POP DUP2 SHL ADD PUSH1 0x2 DUP5 ADD SSTORE PUSH2 0x2808 JUMP JUMPDEST ADD MLOAD PUSH1 0x0 NOT PUSH1 0xF8 DUP5 PUSH1 0x3 SHL AND SHR NOT AND SWAP1 SSTORE DUP7 DUP1 DUP1 PUSH2 0x2B5B JUMP JUMPDEST SWAP3 SWAP4 PUSH1 0x20 PUSH1 0x1 DUP2 SWAP3 DUP8 DUP7 ADD MLOAD DUP2 SSTORE ADD SWAP6 ADD SWAP4 ADD PUSH2 0x2B45 JUMP JUMPDEST SWAP1 SWAP2 POP PUSH1 0x2 DUP7 ADD PUSH1 0x0 MSTORE PUSH1 0x20 PUSH1 0x0 KECCAK256 PUSH1 0x1F DUP5 ADD PUSH1 0x5 SHR DUP2 ADD PUSH1 0x20 DUP6 LT PUSH2 0x2BE8 JUMPI JUMPDEST SWAP1 DUP5 SWAP4 SWAP3 SWAP2 JUMPDEST PUSH1 0x1F DUP4 ADD PUSH1 0x5 SHR DUP3 ADD DUP2 LT PUSH2 0x2BD9 JUMPI POP POP PUSH2 0x27D9 JUMP JUMPDEST PUSH1 0x0 DUP2 SSTORE DUP6 SWAP5 POP PUSH1 0x1 ADD PUSH2 0x2BC3 JUMP JUMPDEST POP DUP1 PUSH2 0x2BBD JUMP JUMPDEST PUSH1 0x40 MLOAD PUSH3 0x461BCD PUSH1 0xE5 SHL DUP2 MSTORE PUSH1 0x20 PUSH1 0x4 DUP3 ADD MSTORE PUSH1 0x16 PUSH1 0x24 DUP3 ADD MSTORE PUSH22 0x111A5CDC1D5D1948185B1C9958591E481C985A5CD959 PUSH1 0x52 SHL PUSH1 0x44 DUP3 ADD MSTORE PUSH1 0x64 SWAP1 REVERT JUMPDEST PUSH1 0x40 MLOAD PUSH3 0x461BCD PUSH1 0xE5 SHL DUP2 MSTORE PUSH1 0x20 PUSH1 0x4 DUP3 ADD MSTORE PUSH1 0x19 PUSH1 0x24 DUP3 ADD MSTORE PUSH25 0x496E76616C696420737461746520666F722064697370757465 PUSH1 0x38 SHL PUSH1 0x44 DUP3 ADD MSTORE PUSH1 0x64 SWAP1 REVERT JUMPDEST PUSH1 0x3 SWAP2 POP EQ DUP8 PUSH2 0x2753 JUMP JUMPDEST POP PUSH1 0x1 DUP2 ADD SLOAD PUSH1 0x1 PUSH1 0x1 PUSH1 0xA0 SHL SUB AND CALLER EQ PUSH2 0x272B JUMP JUMPDEST CALLVALUE PUSH2 0x242 JUMPI PUSH1 0x20 CALLDATASIZE PUSH1 0x3 NOT ADD SLT PUSH2 0x242 JUMPI PUSH1 0x4 CALLDATALOAD PUSH1 0x0 SWAP1 DUP2 MSTORE PUSH1 0x5 PUSH1 0x20 MSTORE PUSH1 0x40 SWAP1 KECCAK256 DUP1 SLOAD PUSH1 0x1 DUP3 ADD SLOAD PUSH1 0x1 PUSH1 0x1 PUSH1 0xA0 SHL SUB AND SWAP2 PUSH1 0xFF PUSH2 0x2CD0 PUSH1 0x2 DUP4 ADD PUSH2 0x38FB JUMP JUMPDEST PUSH2 0x2CDC PUSH1 0x3 DUP5 ADD PUSH2 0x38FB JUMP JUMPDEST SWAP3 DUP3 PUSH2 0x2D21 PUSH1 0x9 DUP4 ADD SLOAD SWAP6 PUSH2 0x2D13 PUSH1 0xB PUSH1 0xA DUP7 ADD SLOAD SWAP6 ADD SLOAD SWAP6 PUSH1 0x40 MLOAD SWAP11 DUP12 SWAP11 DUP12 MSTORE PUSH1 0x20 DUP12 ADD MSTORE PUSH2 0x140 DUP1 PUSH1 0x40 DUP13 ADD MSTORE DUP11 ADD SWAP1 PUSH2 0x37F2 JUMP JUMPDEST SWAP1 DUP9 DUP3 SUB PUSH1 0x60 DUP11 ADD MSTORE PUSH2 0x37F2 JUMP JUMPDEST SWAP5 DUP2 DUP2 AND PUSH1 0x80 DUP9 ADD MSTORE DUP2 DUP2 PUSH1 0x8 SHR AND PUSH1 0xA0 DUP9 ADD MSTORE PUSH1 0x10 SHR AND PUSH1 0xC0 DUP7 ADD MSTORE PUSH1 0xE0 DUP6 ADD MSTORE DUP2 DUP2 AND ISZERO ISZERO PUSH2 0x100 DUP6 ADD MSTORE PUSH1 0x8 SHR AND ISZERO ISZERO PUSH2 0x120 DUP4 ADD MSTORE SUB SWAP1 RETURN JUMPDEST CALLVALUE PUSH2 0x242 JUMPI PUSH1 0x20 CALLDATASIZE PUSH1 0x3 NOT ADD SLT PUSH2 0x242 JUMPI PUSH1 0x1 PUSH1 0x1 PUSH1 0xA0 SHL SUB PUSH2 0x2D7F PUSH2 0x3792 JUMP JUMPDEST AND PUSH1 0x0 MSTORE PUSH1 0x0 PUSH1 0x20 MSTORE PUSH1 0x20 PUSH1 0xFF PUSH1 0x40 PUSH1 0x0 KECCAK256 SLOAD AND PUSH1 0x40 MLOAD SWAP1 DUP2 MSTORE RETURN JUMPDEST CALLVALUE PUSH2 0x242 JUMPI PUSH1 0x0 CALLDATASIZE PUSH1 0x3 NOT ADD SLT PUSH2 0x242 JUMPI PUSH1 0x20 PUSH1 0x40 MLOAD PUSH1 0x78 DUP2 MSTORE RETURN JUMPDEST CALLVALUE PUSH2 0x242 JUMPI PUSH1 0x0 CALLDATASIZE PUSH1 0x3 NOT ADD SLT PUSH2 0x242 JUMPI PUSH1 0x20 PUSH1 0xA SLOAD PUSH1 0x40 MLOAD SWAP1 DUP2 MSTORE RETURN JUMPDEST CALLVALUE PUSH2 0x242 JUMPI PUSH1 0x20 CALLDATASIZE PUSH1 0x3 NOT ADD SLT PUSH2 0x242 JUMPI PUSH1 0x1 PUSH1 0x1 PUSH1 0xA0 SHL SUB PUSH2 0x2DF6 PUSH2 0x3792 JUMP JUMPDEST AND PUSH1 0x0 MSTORE PUSH1 0xD PUSH1 0x20 MSTORE PUSH1 0x20 PUSH1 0x40 PUSH1 0x0 KECCAK256 SLOAD PUSH1 0x40 MLOAD SWAP1 DUP2 MSTORE RETURN JUMPDEST CALLVALUE PUSH2 0x242 JUMPI PUSH1 0x0 CALLDATASIZE PUSH1 0x3 NOT ADD SLT PUSH2 0x242 JUMPI PUSH1 0x20 PUSH1 0x40 MLOAD PUSH2 0x12C DUP2 MSTORE RETURN JUMPDEST CALLVALUE PUSH2 0x242 JUMPI PUSH1 0x40 CALLDATASIZE PUSH1 0x3 NOT ADD SLT PUSH2 0x242 JUMPI PUSH2 0x2E45 PUSH2 0x37A8 JUMP JUMPDEST PUSH1 0x4 CALLDATALOAD PUSH1 0x0 MSTORE PUSH1 0x6 PUSH1 0x20 MSTORE PUSH1 0x40 PUSH1 0x0 KECCAK256 SWAP1 PUSH1 0x1 DUP1 PUSH1 0xA0 SHL SUB AND PUSH1 0x0 MSTORE PUSH1 0x20 MSTORE PUSH1 0x20 PUSH1 0xFF PUSH1 0x40 PUSH1 0x0 KECCAK256 SLOAD AND PUSH1 0x40 MLOAD SWAP1 ISZERO ISZERO DUP2 MSTORE RETURN JUMPDEST CALLVALUE PUSH2 0x242 JUMPI PUSH1 0x20 CALLDATASIZE PUSH1 0x3 NOT ADD SLT PUSH2 0x242 JUMPI PUSH1 0x20 PUSH2 0x2E9C PUSH2 0x2E97 PUSH2 0x3792 JUMP JUMPDEST PUSH2 0x4B8D JUMP JUMPDEST PUSH1 0x40 MLOAD SWAP1 ISZERO ISZERO DUP2 MSTORE RETURN JUMPDEST CALLVALUE PUSH2 0x242 JUMPI PUSH1 0x0 CALLDATASIZE PUSH1 0x3 NOT ADD SLT PUSH2 0x242 JUMPI PUSH1 0x20 PUSH1 0x40 MLOAD PUSH1 0x0 DUP2 MSTORE RETURN JUMPDEST CALLVALUE PUSH2 0x242 JUMPI PUSH1 0x40 CALLDATASIZE PUSH1 0x3 NOT ADD SLT PUSH2 0x242 JUMPI PUSH1 0x1 PUSH1 0x1 PUSH1 0xA0 SHL SUB PUSH2 0x2EE3 PUSH2 0x3792 JUMP JUMPDEST AND PUSH1 0x0 MSTORE PUSH1 0x9 PUSH1 0x20 MSTORE PUSH1 0x40 PUSH1 0x0 KECCAK256 PUSH1 0x24 CALLDATALOAD PUSH1 0x0 MSTORE PUSH1 0x20 MSTORE PUSH1 0x20 PUSH1 0x40 PUSH1 0x0 KECCAK256 SLOAD PUSH1 0x40 MLOAD SWAP1 DUP2 MSTORE RETURN JUMPDEST CALLVALUE PUSH2 0x242 JUMPI PUSH1 0x20 CALLDATASIZE PUSH1 0x3 NOT ADD SLT PUSH2 0x242 JUMPI PUSH1 0x4 CALLDATALOAD PUSH1 0x0 MSTORE PUSH1 0xC PUSH1 0x20 MSTORE PUSH1 0x40 PUSH1 0x0 KECCAK256 PUSH1 0x1 DUP1 PUSH1 0xA0 SHL SUB SWAP1 PUSH2 0x1933 DUP3 DUP3 SLOAD AND SWAP2 PUSH1 0xFF PUSH2 0x2F4E PUSH1 0x2 PUSH1 0x1 DUP5 ADD SLOAD SWAP4 ADD PUSH2 0x38FB JUMP JUMPDEST SWAP2 PUSH1 0x40 MLOAD SWAP6 DUP7 SWAP6 DUP7 MSTORE DUP2 AND PUSH1 0x20 DUP7 ADD MSTORE PUSH1 0xA0 SHR AND PUSH1 0x40 DUP5 ADD MSTORE PUSH1 0x80 PUSH1 0x60 DUP5 ADD MSTORE PUSH1 0x80 DUP4 ADD SWAP1 PUSH2 0x37F2 JUMP JUMPDEST CALLVALUE PUSH2 0x242 JUMPI PUSH1 0x0 CALLDATASIZE PUSH1 0x3 NOT ADD SLT PUSH2 0x242 JUMPI PUSH1 0x20 PUSH1 0x40 MLOAD PUSH1 0x64 DUP2 MSTORE RETURN JUMPDEST CALLVALUE PUSH2 0x242 JUMPI PUSH1 0x0 CALLDATASIZE PUSH1 0x3 NOT ADD SLT PUSH2 0x242 JUMPI PUSH1 0x20 PUSH1 0x40 MLOAD PUSH1 0x5 DUP2 MSTORE RETURN JUMPDEST CALLVALUE PUSH2 0x242 JUMPI PUSH1 0x20 CALLDATASIZE PUSH1 0x3 NOT ADD SLT PUSH2 0x242 JUMPI PUSH1 0x1 PUSH1 0x1 PUSH1 0xA0 SHL SUB PUSH2 0x2FD1 PUSH2 0x3792 JUMP JUMPDEST AND PUSH1 0x0 MSTORE PUSH1 0xE PUSH1 0x20 MSTORE PUSH1 0x20 PUSH1 0x40 PUSH1 0x0 KECCAK256 SLOAD PUSH1 0x40 MLOAD SWAP1 DUP2 MSTORE RETURN JUMPDEST CALLVALUE PUSH2 0x242 JUMPI PUSH1 0x0 CALLDATASIZE PUSH1 0x3 NOT ADD SLT PUSH2 0x242 JUMPI CALLER PUSH1 0x0 MSTORE PUSH1 0x4 PUSH1 0x20 MSTORE PUSH1 0xFF PUSH1 0x40 PUSH1 0x0 KECCAK256 SLOAD AND PUSH1 0x3 DUP2 LT ISZERO PUSH2 0x47B JUMPI PUSH2 0x3020 SWAP1 ISZERO PUSH2 0x3A64 JUMP JUMPDEST CALLER PUSH1 0x0 MSTORE PUSH1 0x4 PUSH1 0x20 MSTORE PUSH1 0x40 PUSH1 0x0 KECCAK256 PUSH1 0x2 PUSH1 0xFF NOT DUP3 SLOAD AND OR SWAP1 SSTORE PUSH2 0x2453 CALLER PUSH2 0x48F7 JUMP JUMPDEST CALLVALUE PUSH2 0x242 JUMPI PUSH1 0x20 CALLDATASIZE PUSH1 0x3 NOT ADD SLT PUSH2 0x242 JUMPI PUSH2 0xC21 PUSH1 0x4 CALLDATALOAD PUSH2 0x4000 JUMP JUMPDEST CALLVALUE PUSH2 0x242 JUMPI PUSH1 0x20 CALLDATASIZE PUSH1 0x3 NOT ADD SLT PUSH2 0x242 JUMPI PUSH1 0x4 CALLDATALOAD PUSH1 0x0 MSTORE PUSH1 0xB PUSH1 0x20 MSTORE PUSH1 0x40 PUSH1 0x0 KECCAK256 PUSH1 0x1 DUP1 PUSH1 0xA0 SHL SUB SWAP1 DUP2 DUP2 SLOAD AND SWAP2 PUSH1 0x1 DUP3 ADD SLOAD AND SWAP1 PUSH1 0x2 DUP2 ADD SLOAD SWAP1 PUSH1 0x3 DUP2 ADD SLOAD SWAP2 PUSH2 0x3122 PUSH1 0x4 DUP4 ADD SLOAD PUSH2 0x3114 PUSH1 0x5 DUP6 ADD SLOAD PUSH2 0x30BB PUSH1 0x6 DUP8 ADD PUSH2 0x38FB JUMP JUMPDEST SWAP1 PUSH2 0x30C8 PUSH1 0x7 DUP9 ADD PUSH2 0x38FB JUMP JUMPDEST SWAP4 PUSH1 0x8 DUP9 ADD SLOAD SWAP9 PUSH1 0x9 DUP10 ADD SLOAD SWAP8 PUSH1 0xFF PUSH1 0xB PUSH1 0xA DUP13 ADD SLOAD SWAP12 ADD SLOAD AND SWAP12 PUSH1 0x20 PUSH1 0x40 MLOAD SWAP15 DUP16 SWAP1 DUP2 MSTORE ADD MSTORE PUSH1 0x40 DUP14 ADD MSTORE PUSH1 0x60 DUP13 ADD MSTORE PUSH1 0x80 DUP12 ADD MSTORE PUSH1 0xA0 DUP11 ADD MSTORE PUSH2 0x180 DUP1 PUSH1 0xC0 DUP12 ADD MSTORE DUP10 ADD SWAP1 PUSH2 0x37F2 JUMP JUMPDEST SWAP1 DUP8 DUP3 SUB PUSH1 0xE0 DUP10 ADD MSTORE PUSH2 0x37F2 JUMP JUMPDEST SWAP3 PUSH2 0x100 DUP7 ADD MSTORE PUSH2 0x120 DUP6 ADD MSTORE PUSH2 0x140 DUP5 ADD MSTORE PUSH1 0x9 DUP3 LT ISZERO PUSH2 0x47B JUMPI DUP3 SWAP2 PUSH2 0x160 DUP4 ADD MSTORE SUB SWAP1 RETURN JUMPDEST CALLVALUE PUSH2 0x242 JUMPI PUSH1 0x20 DUP1 PUSH1 0x3 NOT CALLDATASIZE ADD SLT PUSH2 0x242 JUMPI PUSH1 0xA0 PUSH1 0x40 MLOAD PUSH2 0x316A DUP2 PUSH2 0x3887 JUMP JUMPDEST CALLDATASIZE SWAP1 CALLDATACOPY PUSH1 0x4 CALLDATALOAD PUSH1 0x0 MSTORE PUSH1 0x5 DUP1 DUP3 MSTORE PUSH1 0x4 PUSH1 0x40 PUSH1 0x0 KECCAK256 ADD SWAP2 PUSH1 0x40 MLOAD SWAP3 DUP4 DUP3 PUSH1 0x0 SWAP2 JUMPDEST DUP6 DUP4 LT PUSH2 0x31D3 JUMPI POP POP POP POP PUSH2 0x319F DUP4 PUSH2 0x3887 JUMP JUMPDEST PUSH1 0x40 MLOAD SWAP3 PUSH1 0x0 SWAP1 DUP5 JUMPDEST DUP5 DUP4 LT PUSH2 0x31B4 JUMPI PUSH1 0xA0 DUP7 RETURN JUMPDEST DUP2 MLOAD PUSH1 0x1 PUSH1 0x1 PUSH1 0xA0 SHL SUB AND DUP2 MSTORE PUSH1 0x1 SWAP3 SWAP1 SWAP3 ADD SWAP2 SWAP1 DUP4 ADD SWAP1 DUP4 ADD PUSH2 0x31A8 JUMP JUMPDEST DUP4 SLOAD PUSH1 0x1 PUSH1 0x1 PUSH1 0xA0 SHL SUB AND DUP2 MSTORE PUSH1 0x1 SWAP4 DUP5 ADD SWAP4 SWAP3 SWAP1 SWAP3 ADD SWAP2 DUP5 SWAP2 ADD PUSH2 0x318B JUMP JUMPDEST CALLVALUE PUSH2 0x242 JUMPI PUSH1 0x40 CALLDATASIZE PUSH1 0x3 NOT ADD SLT PUSH2 0x242 JUMPI PUSH1 0x24 DUP1 CALLDATALOAD DUP1 ISZERO ISZERO SWAP1 PUSH1 0x4 CALLDATALOAD SWAP1 DUP3 DUP2 SUB PUSH2 0x242 JUMPI DUP2 PUSH1 0x0 MSTORE PUSH1 0x20 SWAP1 PUSH1 0xB DUP3 MSTORE PUSH1 0xFF DUP1 PUSH1 0xB PUSH1 0x40 PUSH1 0x0 KECCAK256 ADD SLOAD AND PUSH1 0x9 DUP2 LT ISZERO PUSH2 0x349D JUMPI PUSH1 0x7 PUSH2 0x3244 SWAP2 EQ PUSH2 0x4834 JUMP JUMPDEST DUP4 PUSH1 0x0 MSTORE PUSH1 0x5 DUP4 MSTORE PUSH1 0x40 PUSH1 0x0 KECCAK256 SWAP2 PUSH1 0xA DUP4 ADD SLOAD DUP1 ISZERO PUSH2 0x3465 JUMPI PUSH2 0x326D DUP4 PUSH1 0xB DUP7 ADD SLOAD AND ISZERO PUSH2 0x47D4 JUMP JUMPDEST TIMESTAMP LT ISZERO PUSH2 0x342B JUMPI DUP5 PUSH1 0x0 MSTORE PUSH1 0x6 DUP5 MSTORE PUSH1 0x40 PUSH1 0x0 KECCAK256 CALLER PUSH1 0x0 MSTORE DUP5 MSTORE DUP2 PUSH1 0x40 PUSH1 0x0 KECCAK256 SLOAD AND PUSH2 0x33F7 JUMPI PUSH1 0x0 DUP1 SWAP4 PUSH1 0x9 DUP2 ADD SWAP5 PUSH1 0x4 DUP6 DUP8 SLOAD AND SWAP3 ADD SWAP1 JUMPDEST DUP3 DUP7 DUP3 AND LT PUSH2 0x33B9 JUMPI JUMPDEST POP POP POP ISZERO PUSH2 0x337E JUMPI DUP5 PUSH32 0xF2913DBE661EE2ACC4A046D8FBCDC792373BDA34C41C6086484B5345E5785E5F SWAP6 SWAP7 SWAP8 POP PUSH1 0x0 MSTORE PUSH1 0x6 DUP5 MSTORE PUSH1 0x40 PUSH1 0x0 KECCAK256 CALLER PUSH1 0x0 MSTORE DUP5 MSTORE PUSH1 0x40 PUSH1 0x0 KECCAK256 PUSH1 0xFF NOT SWAP1 PUSH1 0x1 DUP3 DUP3 SLOAD AND OR SWAP1 SSTORE DUP7 PUSH1 0x0 MSTORE PUSH1 0x7 DUP6 MSTORE PUSH1 0x40 PUSH1 0x0 KECCAK256 CALLER PUSH1 0x0 MSTORE DUP6 MSTORE PUSH1 0x40 PUSH1 0x0 KECCAK256 SWAP1 DUP2 SLOAD AND DUP4 DUP10 AND OR SWAP1 SSTORE PUSH1 0x0 EQ PUSH2 0x3357 JUMPI PUSH2 0xFF00 PUSH2 0x333E DUP4 SLOAD SWAP3 DUP4 PUSH1 0x8 SHR AND PUSH2 0x4813 JUMP JUMPDEST PUSH1 0x8 SHL AND SWAP1 PUSH2 0xFF00 NOT AND OR SWAP1 SSTORE JUMPDEST PUSH1 0x40 MLOAD SWAP4 DUP5 MSTORE CALLER SWAP4 LOG3 STOP JUMPDEST PUSH3 0xFF0000 PUSH2 0x336B DUP4 SLOAD SWAP3 DUP4 PUSH1 0x10 SHR AND PUSH2 0x4813 JUMP JUMPDEST PUSH1 0x10 SHL AND SWAP1 PUSH3 0xFF0000 NOT AND OR SWAP1 SSTORE PUSH2 0x334C JUMP JUMPDEST PUSH1 0x40 MLOAD PUSH3 0x461BCD PUSH1 0xE5 SHL DUP2 MSTORE PUSH1 0x4 DUP2 ADD DUP6 SWAP1 MSTORE PUSH1 0x14 DUP2 DUP10 ADD MSTORE PUSH20 0x2737BA10309039B2B632B1BA32B2103B37BA32B9 PUSH1 0x61 SHL PUSH1 0x44 DUP3 ADD MSTORE PUSH1 0x64 SWAP1 REVERT JUMPDEST PUSH2 0x33C3 DUP2 DUP4 PUSH2 0x4824 JUMP JUMPDEST SWAP1 SLOAD PUSH1 0x3 SWAP2 SWAP1 SWAP2 SHL SHR PUSH1 0x1 PUSH1 0x1 PUSH1 0xA0 SHL SUB AND CALLER EQ PUSH2 0x33E9 JUMPI PUSH2 0x33E4 SWAP1 PUSH2 0x4813 JUMP JUMPDEST PUSH2 0x32A6 JUMP JUMPDEST POP POP POP POP PUSH1 0x1 DUP9 DUP1 DUP1 PUSH2 0x32B0 JUMP JUMPDEST PUSH1 0x40 MLOAD PUSH3 0x461BCD PUSH1 0xE5 SHL DUP2 MSTORE PUSH1 0x4 DUP2 ADD DUP6 SWAP1 MSTORE PUSH1 0xD DUP2 DUP10 ADD MSTORE PUSH13 0x105B1C9958591E481D9BDD1959 PUSH1 0x9A SHL PUSH1 0x44 DUP3 ADD MSTORE PUSH1 0x64 SWAP1 REVERT JUMPDEST PUSH1 0x40 MLOAD PUSH3 0x461BCD PUSH1 0xE5 SHL DUP2 MSTORE PUSH1 0x4 DUP2 ADD DUP6 SWAP1 MSTORE PUSH1 0x13 DUP2 DUP10 ADD MSTORE PUSH19 0x159BDD1A5B99C81C195C9A5BD908195B991959 PUSH1 0x6A SHL PUSH1 0x44 DUP3 ADD MSTORE PUSH1 0x64 SWAP1 REVERT JUMPDEST PUSH1 0x40 MLOAD PUSH3 0x461BCD PUSH1 0xE5 SHL DUP2 MSTORE PUSH1 0x4 DUP2 ADD DUP7 SWAP1 MSTORE PUSH1 0x11 DUP2 DUP11 ADD MSTORE PUSH17 0x4E6F206469737075746520657869737473 PUSH1 0x78 SHL PUSH1 0x44 DUP3 ADD MSTORE PUSH1 0x64 SWAP1 REVERT JUMPDEST DUP7 PUSH4 0x4E487B71 PUSH1 0xE0 SHL PUSH1 0x0 MSTORE PUSH1 0x21 PUSH1 0x4 MSTORE PUSH1 0x0 REVERT JUMPDEST CALLVALUE PUSH2 0x242 JUMPI PUSH1 0x20 CALLDATASIZE PUSH1 0x3 NOT ADD SLT PUSH2 0x242 JUMPI PUSH1 0x4 CALLDATALOAD PUSH1 0x0 MSTORE PUSH1 0xB PUSH1 0x20 MSTORE PUSH1 0x40 PUSH1 0x0 KECCAK256 PUSH2 0x34EA PUSH1 0x1 DUP1 PUSH1 0xA0 SHL SUB PUSH1 0x1 DUP4 ADD SLOAD AND CALLER EQ PUSH2 0x3B7C JUMP JUMPDEST PUSH1 0xB DUP2 ADD SWAP1 DUP2 SLOAD SWAP1 PUSH1 0xFF DUP3 AND SWAP1 PUSH1 0x9 DUP3 LT ISZERO PUSH2 0x47B JUMPI PUSH2 0x350F PUSH1 0x2 PUSH2 0x351F SWAP4 EQ PUSH2 0x3BB5 JUMP JUMPDEST PUSH1 0x5 PUSH1 0x3 DUP3 ADD SLOAD SWAP2 ADD SLOAD SWAP1 PUSH2 0x3BF0 JUMP JUMPDEST TIMESTAMP GT PUSH2 0x3530 JUMPI PUSH1 0xFF NOT AND PUSH1 0x3 OR SWAP1 SSTORE STOP JUMPDEST PUSH1 0x40 MLOAD PUSH3 0x461BCD PUSH1 0xE5 SHL DUP2 MSTORE PUSH1 0x20 PUSH1 0x4 DUP3 ADD MSTORE PUSH1 0x14 PUSH1 0x24 DUP3 ADD MSTORE PUSH20 0x14DD185C9D081DDA5B991BDDC8195E1C1A5C9959 PUSH1 0x62 SHL PUSH1 0x44 DUP3 ADD MSTORE PUSH1 0x64 SWAP1 REVERT JUMPDEST CALLVALUE PUSH2 0x242 JUMPI PUSH1 0x20 DUP1 PUSH1 0x3 NOT CALLDATASIZE ADD SLT PUSH2 0x242 JUMPI PUSH1 0x1 PUSH1 0x1 PUSH1 0xA0 SHL SUB PUSH2 0x358E PUSH2 0x3792 JUMP JUMPDEST AND PUSH1 0x0 MSTORE PUSH1 0x8 DUP2 MSTORE PUSH1 0x40 PUSH1 0x0 KECCAK256 DUP1 SLOAD SWAP1 PUSH2 0x35A7 DUP3 PUSH2 0x3AA5 JUMP JUMPDEST SWAP2 PUSH2 0x35B5 PUSH1 0x40 MLOAD SWAP4 DUP5 PUSH2 0x38D8 JUMP JUMPDEST DUP1 DUP4 MSTORE PUSH2 0x35C1 DUP2 PUSH2 0x3AA5 JUMP JUMPDEST SWAP1 DUP5 DUP5 ADD PUSH1 0x1F NOT DUP1 SWAP4 ADD CALLDATASIZE DUP3 CALLDATACOPY PUSH2 0x35D7 DUP3 PUSH2 0x3ABC JUMP JUMPDEST PUSH2 0x35E0 DUP4 PUSH2 0x3ABC JUMP JUMPDEST SWAP3 PUSH2 0x35EA DUP2 PUSH2 0x3AA5 JUMP JUMPDEST SWAP6 PUSH2 0x35F8 PUSH1 0x40 MLOAD SWAP8 DUP9 PUSH2 0x38D8 JUMP JUMPDEST DUP2 DUP8 MSTORE DUP6 PUSH2 0x3605 DUP4 PUSH2 0x3AA5 JUMP JUMPDEST ADD PUSH1 0x0 JUMPDEST DUP2 DUP2 LT PUSH2 0x3783 JUMPI POP POP PUSH1 0x0 JUMPDEST DUP3 DUP2 LT PUSH2 0x36EA JUMPI POP POP POP PUSH1 0x40 MLOAD SWAP6 PUSH1 0x80 DUP8 ADD SWAP1 PUSH1 0x80 DUP9 MSTORE MLOAD DUP1 SWAP2 MSTORE PUSH1 0xA0 DUP8 ADD SWAP3 SWAP1 PUSH1 0x0 JUMPDEST DUP2 DUP2 LT PUSH2 0x36C3 JUMPI POP POP POP DUP2 PUSH2 0x3658 SWAP2 DUP8 PUSH2 0x3666 SWAP6 SWAP5 SUB DUP10 DUP10 ADD MSTORE PUSH2 0x37BE JUMP JUMPDEST SWAP1 DUP6 DUP3 SUB PUSH1 0x40 DUP8 ADD MSTORE PUSH2 0x37BE JUMP JUMPDEST SWAP4 DUP4 DUP6 SUB PUSH1 0x60 DUP6 ADD MSTORE DUP3 MLOAD SWAP1 DUP2 DUP7 MSTORE DUP1 DUP7 ADD DUP2 DUP1 DUP5 PUSH1 0x5 SHL DUP10 ADD ADD SWAP6 ADD SWAP4 PUSH1 0x0 SWAP8 JUMPDEST DUP5 DUP10 LT PUSH2 0x3695 JUMPI DUP8 DUP8 SUB DUP9 RETURN JUMPDEST SWAP1 SWAP2 SWAP3 SWAP4 SWAP5 SWAP6 DUP5 DUP1 PUSH2 0x36B1 DUP4 DUP7 DUP7 PUSH1 0x1 SWAP7 SUB ADD DUP9 MSTORE DUP11 MLOAD PUSH2 0x37F2 JUMP JUMPDEST SWAP9 ADD SWAP5 ADD SWAP9 ADD SWAP8 SWAP2 SWAP1 SWAP5 SWAP4 SWAP3 SWAP5 PUSH2 0x3688 JUMP JUMPDEST SWAP1 SWAP2 SWAP4 DUP5 SWAP10 SWAP7 SWAP10 MLOAD SWAP1 PUSH1 0xD DUP3 LT ISZERO PUSH2 0x47B JUMPI SWAP1 DUP2 MSTORE SWAP6 SWAP9 SWAP6 DUP10 ADD SWAP4 DUP10 ADD SWAP2 SWAP1 PUSH1 0x1 ADD PUSH2 0x3639 JUMP JUMPDEST PUSH1 0xFF PUSH2 0x36F9 DUP3 DUP5 SWAP13 SWAP10 SWAP13 PUSH2 0x3AFD JUMP JUMPDEST POP SLOAD AND SWAP1 PUSH2 0x3707 DUP2 DUP12 PUSH2 0x3B2F JUMP JUMPDEST SWAP2 PUSH1 0xD DUP2 LT ISZERO PUSH2 0x47B JUMPI PUSH2 0x377B SWAP3 MSTORE PUSH1 0x1 PUSH2 0x3722 DUP3 DUP6 PUSH2 0x3AFD JUMP JUMPDEST POP ADD SLOAD PUSH2 0x372F DUP3 DUP8 PUSH2 0x3B2F JUMP JUMPDEST MSTORE PUSH1 0x2 PUSH2 0x373C DUP3 DUP6 PUSH2 0x3AFD JUMP JUMPDEST POP ADD SLOAD PUSH2 0x3749 DUP3 DUP10 PUSH2 0x3B2F JUMP JUMPDEST MSTORE PUSH2 0x3760 PUSH1 0x3 PUSH2 0x3759 DUP4 DUP7 PUSH2 0x3AFD JUMP JUMPDEST POP ADD PUSH2 0x38FB JUMP JUMPDEST PUSH2 0x376A DUP3 DUP12 PUSH2 0x3B2F JUMP JUMPDEST MSTORE PUSH2 0x3775 DUP2 DUP11 PUSH2 0x3B2F JUMP JUMPDEST POP PUSH2 0x3AEE JUMP JUMPDEST SWAP9 SWAP6 SWAP9 PUSH2 0x3615 JUMP JUMPDEST PUSH1 0x60 DUP10 DUP3 ADD DUP13 ADD MSTORE DUP11 ADD PUSH2 0x3609 JUMP JUMPDEST PUSH1 0x4 CALLDATALOAD SWAP1 PUSH1 0x1 PUSH1 0x1 PUSH1 0xA0 SHL SUB DUP3 AND DUP3 SUB PUSH2 0x242 JUMPI JUMP JUMPDEST PUSH1 0x24 CALLDATALOAD SWAP1 PUSH1 0x1 PUSH1 0x1 PUSH1 0xA0 SHL SUB DUP3 AND DUP3 SUB PUSH2 0x242 JUMPI JUMP JUMPDEST SWAP1 DUP2 MLOAD DUP1 DUP3 MSTORE PUSH1 0x20 DUP1 DUP1 SWAP4 ADD SWAP4 ADD SWAP2 PUSH1 0x0 JUMPDEST DUP3 DUP2 LT PUSH2 0x37DE JUMPI POP POP POP POP SWAP1 JUMP JUMPDEST DUP4 MLOAD DUP6 MSTORE SWAP4 DUP2 ADD SWAP4 SWAP3 DUP2 ADD SWAP3 PUSH1 0x1 ADD PUSH2 0x37D0 JUMP JUMPDEST SWAP2 SWAP1 DUP3 MLOAD SWAP3 DUP4 DUP3 MSTORE PUSH1 0x0 JUMPDEST DUP5 DUP2 LT PUSH2 0x381E JUMPI POP POP DUP3 PUSH1 0x0 PUSH1 0x20 DUP1 SWAP5 SWAP6 DUP5 ADD ADD MSTORE PUSH1 0x1F DUP1 NOT SWAP2 ADD AND ADD ADD SWAP1 JUMP JUMPDEST PUSH1 0x20 DUP2 DUP4 ADD DUP2 ADD MLOAD DUP5 DUP4 ADD DUP3 ADD MSTORE ADD PUSH2 0x37FD JUMP JUMPDEST SWAP1 PUSH1 0x1 DUP3 DUP2 SHR SWAP3 AND DUP1 ISZERO PUSH2 0x3862 JUMPI JUMPDEST PUSH1 0x20 DUP4 LT EQ PUSH2 0x384C JUMPI JUMP JUMPDEST PUSH4 0x4E487B71 PUSH1 0xE0 SHL PUSH1 0x0 MSTORE PUSH1 0x22 PUSH1 0x4 MSTORE PUSH1 0x24 PUSH1 0x0 REVERT JUMPDEST SWAP2 PUSH1 0x7F AND SWAP2 PUSH2 0x3841 JUMP JUMPDEST PUSH1 0x80 DUP2 ADD SWAP1 DUP2 LT PUSH1 0x1 PUSH1 0x1 PUSH1 0x40 SHL SUB DUP3 GT OR PUSH2 0x3F3 JUMPI PUSH1 0x40 MSTORE JUMP JUMPDEST PUSH1 0xA0 DUP2 ADD SWAP1 DUP2 LT PUSH1 0x1 PUSH1 0x1 PUSH1 0x40 SHL SUB DUP3 GT OR PUSH2 0x3F3 JUMPI PUSH1 0x40 MSTORE JUMP JUMPDEST PUSH1 0x60 DUP2 ADD SWAP1 DUP2 LT PUSH1 0x1 PUSH1 0x1 PUSH1 0x40 SHL SUB DUP3 GT OR PUSH2 0x3F3 JUMPI PUSH1 0x40 MSTORE JUMP JUMPDEST PUSH1 0x40 DUP2 ADD SWAP1 DUP2 LT PUSH1 0x1 PUSH1 0x1 PUSH1 0x40 SHL SUB DUP3 GT OR PUSH2 0x3F3 JUMPI PUSH1 0x40 MSTORE JUMP JUMPDEST PUSH1 0x1F SWAP1 SWAP2 ADD PUSH1 0x1F NOT AND DUP2 ADD SWAP1 PUSH1 0x1 PUSH1 0x1 PUSH1 0x40 SHL SUB DUP3 GT SWAP1 DUP3 LT OR PUSH2 0x3F3 JUMPI PUSH1 0x40 MSTORE JUMP JUMPDEST SWAP1 PUSH1 0x40 MLOAD SWAP2 DUP3 PUSH1 0x0 DUP3 SLOAD SWAP3 PUSH2 0x390F DUP5 PUSH2 0x3832 JUMP JUMPDEST SWAP1 DUP2 DUP5 MSTORE PUSH1 0x1 SWAP5 DUP6 DUP2 AND SWAP1 DUP2 PUSH1 0x0 EQ PUSH2 0x397E JUMPI POP PUSH1 0x1 EQ PUSH2 0x393B JUMPI JUMPDEST POP POP PUSH2 0x3939 SWAP3 POP SUB DUP4 PUSH2 0x38D8 JUMP JUMPDEST JUMP JUMPDEST SWAP1 SWAP4 SWAP2 POP PUSH1 0x0 MSTORE PUSH1 0x20 SWAP1 DUP2 PUSH1 0x0 KECCAK256 SWAP4 PUSH1 0x0 SWAP2 JUMPDEST DUP2 DUP4 LT PUSH2 0x3966 JUMPI POP POP PUSH2 0x3939 SWAP4 POP DUP3 ADD ADD CODESIZE DUP1 PUSH2 0x392B JUMP JUMPDEST DUP6 SLOAD DUP9 DUP5 ADD DUP6 ADD MSTORE SWAP5 DUP6 ADD SWAP5 DUP8 SWAP5 POP SWAP2 DUP4 ADD SWAP2 PUSH2 0x394E JUMP JUMPDEST SWAP2 POP POP PUSH2 0x3939 SWAP5 POP PUSH1 0x20 SWAP3 POP PUSH1 0xFF NOT AND DUP3 DUP5 ADD MSTORE ISZERO ISZERO PUSH1 0x5 SHL DUP3 ADD ADD CODESIZE DUP1 PUSH2 0x392B JUMP JUMPDEST CALLVALUE PUSH2 0x242 JUMPI PUSH1 0x0 CALLDATASIZE PUSH1 0x3 NOT ADD SLT PUSH2 0x242 JUMPI PUSH1 0x20 PUSH1 0x40 MLOAD PUSH1 0x50 DUP2 MSTORE RETURN JUMPDEST PUSH1 0x1 PUSH1 0x1 PUSH1 0x40 SHL SUB DUP2 GT PUSH2 0x3F3 JUMPI PUSH1 0x1F ADD PUSH1 0x1F NOT AND PUSH1 0x20 ADD SWAP1 JUMP JUMPDEST DUP2 PUSH1 0x1F DUP3 ADD SLT ISZERO PUSH2 0x242 JUMPI DUP1 CALLDATALOAD SWAP1 PUSH2 0x39EF DUP3 PUSH2 0x39BD JUMP JUMPDEST SWAP3 PUSH2 0x39FD PUSH1 0x40 MLOAD SWAP5 DUP6 PUSH2 0x38D8 JUMP JUMPDEST DUP3 DUP5 MSTORE PUSH1 0x20 DUP4 DUP4 ADD ADD GT PUSH2 0x242 JUMPI DUP2 PUSH1 0x0 SWAP3 PUSH1 0x20 DUP1 SWAP4 ADD DUP4 DUP7 ADD CALLDATACOPY DUP4 ADD ADD MSTORE SWAP1 JUMP JUMPDEST SWAP1 PUSH1 0x40 PUSH1 0x3 NOT DUP4 ADD SLT PUSH2 0x242 JUMPI PUSH1 0x4 CALLDATALOAD SWAP2 PUSH1 0x24 CALLDATALOAD SWAP1 PUSH1 0x1 PUSH1 0x1 PUSH1 0x40 SHL SUB DUP3 GT PUSH2 0x242 JUMPI PUSH2 0x3A4E SWAP2 PUSH1 0x4 ADD PUSH2 0x39D8 JUMP JUMPDEST SWAP1 JUMP JUMPDEST SWAP2 SWAP1 PUSH1 0x20 DUP4 ADD SWAP3 PUSH1 0x3 DUP3 LT ISZERO PUSH2 0x47B JUMPI MSTORE JUMP JUMPDEST ISZERO PUSH2 0x3A6B JUMPI JUMP JUMPDEST PUSH1 0x40 MLOAD PUSH3 0x461BCD PUSH1 0xE5 SHL DUP2 MSTORE PUSH1 0x20 PUSH1 0x4 DUP3 ADD MSTORE PUSH1 0x12 PUSH1 0x24 DUP3 ADD MSTORE PUSH18 0x105B1C9958591E481C9959DA5CDD195C9959 PUSH1 0x72 SHL PUSH1 0x44 DUP3 ADD MSTORE PUSH1 0x64 SWAP1 REVERT JUMPDEST PUSH1 0x1 PUSH1 0x1 PUSH1 0x40 SHL SUB DUP2 GT PUSH2 0x3F3 JUMPI PUSH1 0x5 SHL PUSH1 0x20 ADD SWAP1 JUMP JUMPDEST SWAP1 PUSH2 0x3AC6 DUP3 PUSH2 0x3AA5 JUMP JUMPDEST PUSH2 0x3AD3 PUSH1 0x40 MLOAD SWAP2 DUP3 PUSH2 0x38D8 JUMP JUMPDEST DUP3 DUP2 MSTORE DUP1 SWAP3 PUSH2 0x3AE4 PUSH1 0x1F NOT SWAP2 PUSH2 0x3AA5 JUMP JUMPDEST ADD SWAP1 PUSH1 0x20 CALLDATASIZE SWAP2 ADD CALLDATACOPY JUMP JUMPDEST PUSH1 0x0 NOT DUP2 EQ PUSH2 0xC50 JUMPI PUSH1 0x1 ADD SWAP1 JUMP JUMPDEST DUP1 SLOAD DUP3 LT ISZERO PUSH2 0x3B19 JUMPI PUSH1 0x0 MSTORE PUSH1 0x20 PUSH1 0x0 KECCAK256 SWAP1 PUSH1 0x2 SHL ADD SWAP1 PUSH1 0x0 SWAP1 JUMP JUMPDEST PUSH4 0x4E487B71 PUSH1 0xE0 SHL PUSH1 0x0 MSTORE PUSH1 0x32 PUSH1 0x4 MSTORE PUSH1 0x24 PUSH1 0x0 REVERT JUMPDEST DUP1 MLOAD DUP3 LT ISZERO PUSH2 0x3B19 JUMPI PUSH1 0x20 SWAP2 PUSH1 0x5 SHL ADD ADD SWAP1 JUMP JUMPDEST ISZERO PUSH2 0x3B4A JUMPI JUMP JUMPDEST PUSH1 0x40 MLOAD PUSH3 0x461BCD PUSH1 0xE5 SHL DUP2 MSTORE PUSH1 0x20 PUSH1 0x4 DUP3 ADD MSTORE PUSH1 0xA PUSH1 0x24 DUP3 ADD MSTORE PUSH10 0x139BDD0818DB1A595B9D PUSH1 0xB2 SHL PUSH1 0x44 DUP3 ADD MSTORE PUSH1 0x64 SWAP1 REVERT JUMPDEST ISZERO PUSH2 0x3B83 JUMPI JUMP JUMPDEST PUSH1 0x40 MLOAD PUSH3 0x461BCD PUSH1 0xE5 SHL DUP2 MSTORE PUSH1 0x20 PUSH1 0x4 DUP3 ADD MSTORE PUSH1 0xA PUSH1 0x24 DUP3 ADD MSTORE PUSH10 0x2737BA103BB7B935B2B9 PUSH1 0xB1 SHL PUSH1 0x44 DUP3 ADD MSTORE PUSH1 0x64 SWAP1 REVERT JUMPDEST ISZERO PUSH2 0x3BBC JUMPI JUMP JUMPDEST PUSH1 0x40 MLOAD PUSH3 0x461BCD PUSH1 0xE5 SHL DUP2 MSTORE PUSH1 0x20 PUSH1 0x4 DUP3 ADD MSTORE PUSH1 0xC PUSH1 0x24 DUP3 ADD MSTORE PUSH12 0x139BDD081858D8D95C1D1959 PUSH1 0xA2 SHL PUSH1 0x44 DUP3 ADD MSTORE PUSH1 0x64 SWAP1 REVERT JUMPDEST SWAP2 SWAP1 DUP3 ADD DUP1 SWAP3 GT PUSH2 0xC50 JUMPI JUMP JUMPDEST ISZERO PUSH2 0x3C04 JUMPI JUMP JUMPDEST PUSH1 0x40 MLOAD PUSH3 0x461BCD PUSH1 0xE5 SHL DUP2 MSTORE PUSH1 0x20 PUSH1 0x4 DUP3 ADD MSTORE PUSH1 0x9 PUSH1 0x24 DUP3 ADD MSTORE PUSH9 0x546F6F206561726C79 PUSH1 0xB8 SHL PUSH1 0x44 DUP3 ADD MSTORE PUSH1 0x64 SWAP1 REVERT JUMPDEST RETURNDATASIZE ISZERO PUSH2 0x3C60 JUMPI RETURNDATASIZE SWAP1 PUSH2 0x3C46 DUP3 PUSH2 0x39BD JUMP JUMPDEST SWAP2 PUSH2 0x3C54 PUSH1 0x40 MLOAD SWAP4 DUP5 PUSH2 0x38D8 JUMP JUMPDEST DUP3 MSTORE RETURNDATASIZE PUSH1 0x0 PUSH1 0x20 DUP5 ADD RETURNDATACOPY JUMP JUMPDEST PUSH1 0x60 SWAP1 JUMP JUMPDEST ISZERO PUSH2 0x3C6C JUMPI JUMP JUMPDEST PUSH1 0x40 MLOAD PUSH3 0x461BCD PUSH1 0xE5 SHL DUP2 MSTORE PUSH1 0x20 PUSH1 0x4 DUP3 ADD MSTORE PUSH1 0xD PUSH1 0x24 DUP3 ADD MSTORE PUSH13 0x1499599D5B990819985A5B1959 PUSH1 0x9A SHL PUSH1 0x44 DUP3 ADD MSTORE PUSH1 0x64 SWAP1 REVERT JUMPDEST PUSH1 0x40 SWAP1 DUP2 MLOAD SWAP3 PUSH2 0x3CB0 DUP5 PUSH2 0x38A2 JUMP JUMPDEST PUSH1 0x25 DUP5 MSTORE PUSH1 0x20 SWAP2 PUSH32 0x4163636570746564206F7220696E2D70726F6772657373206A6F62206162616E DUP4 DUP7 ADD MSTORE PUSH5 0x191BDB9959 PUSH1 0xDA SHL DUP5 DUP7 ADD MSTORE PUSH1 0x1 DUP1 PUSH1 0xA0 SHL SUB AND SWAP3 PUSH1 0x0 SWAP5 DUP5 DUP7 MSTORE PUSH1 0x8 DUP5 MSTORE DUP2 DUP7 KECCAK256 SWAP1 DUP3 MLOAD PUSH2 0x3D0B DUP2 PUSH2 0x386C JUMP JUMPDEST DUP8 DUP2 MSTORE DUP6 DUP2 ADD DUP6 DUP2 MSTORE DUP5 DUP3 ADD SWAP1 TIMESTAMP DUP3 MSTORE PUSH1 0x60 DUP4 ADD SWAP4 DUP5 MSTORE DUP5 SLOAD PUSH1 0x1 PUSH1 0x40 SHL DUP2 LT ISZERO PUSH2 0x3F04 JUMPI PUSH2 0x3D41 SWAP1 PUSH1 0x1 SWAP7 DUP8 DUP3 ADD DUP2 SSTORE PUSH2 0x3AFD JUMP JUMPDEST SWAP4 SWAP1 SWAP4 PUSH2 0x3EF0 JUMPI MLOAD PUSH1 0xD DUP2 LT ISZERO PUSH2 0x3EDC JUMPI DUP4 SLOAD PUSH1 0xFF NOT AND PUSH1 0xFF SWAP2 SWAP1 SWAP2 AND OR DUP4 SSTORE MLOAD DUP5 DUP4 ADD SSTORE MLOAD PUSH1 0x2 DUP3 ADD SSTORE SWAP1 MLOAD DUP1 MLOAD PUSH1 0x3 SWAP1 SWAP3 ADD SWAP2 SWAP1 PUSH1 0x1 PUSH1 0x1 PUSH1 0x40 SHL SUB DUP3 GT PUSH2 0x3EC8 JUMPI DUP2 SWAP1 PUSH2 0x3D91 DUP5 SLOAD PUSH2 0x3832 JUMP JUMPDEST PUSH1 0x1F DUP2 GT PUSH2 0x3E78 JUMPI JUMPDEST POP DUP8 SWAP1 PUSH1 0x1F DUP4 GT PUSH1 0x1 EQ PUSH2 0x3E19 JUMPI DUP11 SWAP3 PUSH2 0x3E0E JUMPI JUMPDEST POP POP PUSH1 0x0 NOT PUSH1 0x3 DUP4 SWAP1 SHL SHR NOT AND SWAP1 DUP4 SHL OR SWAP1 SSTORE JUMPDEST DUP5 DUP7 MSTORE PUSH1 0x9 DUP5 MSTORE DUP2 DUP7 KECCAK256 DUP7 DUP1 MSTORE DUP5 MSTORE DUP2 DUP7 KECCAK256 DUP1 SLOAD SWAP2 DUP3 ADD DUP1 SWAP3 GT PUSH2 0x3DFA JUMPI SSTORE MLOAD SWAP1 DUP2 MSTORE PUSH1 0x0 DUP1 MLOAD PUSH1 0x20 PUSH2 0x4C42 DUP4 CODECOPY DUP2 MLOAD SWAP2 MSTORE SWAP2 SWAP1 LOG3 JUMP JUMPDEST PUSH4 0x4E487B71 PUSH1 0xE0 SHL DUP8 MSTORE PUSH1 0x11 PUSH1 0x4 MSTORE PUSH1 0x24 DUP8 REVERT JUMPDEST ADD MLOAD SWAP1 POP CODESIZE DUP1 PUSH2 0x3DAF JUMP JUMPDEST DUP5 DUP12 MSTORE DUP9 DUP12 KECCAK256 DUP7 SWAP5 POP SWAP2 SWAP1 PUSH1 0x1F NOT DUP5 AND DUP13 JUMPDEST DUP12 DUP3 DUP3 LT PUSH2 0x3E62 JUMPI POP POP DUP5 GT PUSH2 0x3E49 JUMPI JUMPDEST POP POP POP DUP2 SHL ADD SWAP1 SSTORE PUSH2 0x3DC3 JUMP JUMPDEST ADD MLOAD PUSH1 0x0 NOT PUSH1 0xF8 DUP5 PUSH1 0x3 SHL AND SHR NOT AND SWAP1 SSTORE CODESIZE DUP1 DUP1 PUSH2 0x3E3C JUMP JUMPDEST DUP4 DUP6 ADD MLOAD DUP7 SSTORE DUP10 SWAP8 SWAP1 SWAP6 ADD SWAP5 SWAP4 DUP5 ADD SWAP4 ADD PUSH2 0x3E2B JUMP JUMPDEST SWAP1 SWAP2 POP DUP4 DUP11 MSTORE DUP8 DUP11 KECCAK256 PUSH1 0x1F DUP5 ADD PUSH1 0x5 SHR DUP2 ADD SWAP2 DUP10 DUP6 LT PUSH2 0x3EBE JUMPI JUMPDEST DUP5 SWAP4 SWAP3 SWAP2 PUSH1 0x1F DUP9 SWAP3 ADD PUSH1 0x5 SHR ADD SWAP2 JUMPDEST DUP3 DUP2 LT PUSH2 0x3EB0 JUMPI POP POP PUSH2 0x3D9A JUMP JUMPDEST DUP13 DUP2 SSTORE DUP6 SWAP5 POP DUP8 SWAP2 ADD PUSH2 0x3EA2 JUMP JUMPDEST SWAP1 SWAP2 POP DUP2 SWAP1 PUSH2 0x3E93 JUMP JUMPDEST PUSH4 0x4E487B71 PUSH1 0xE0 SHL DUP10 MSTORE PUSH1 0x41 PUSH1 0x4 MSTORE PUSH1 0x24 DUP10 REVERT JUMPDEST PUSH4 0x4E487B71 PUSH1 0xE0 SHL DUP12 MSTORE PUSH1 0x21 PUSH1 0x4 MSTORE PUSH1 0x24 DUP12 REVERT JUMPDEST PUSH4 0x4E487B71 PUSH1 0xE0 SHL DUP12 MSTORE PUSH1 0x4 DUP12 SWAP1 MSTORE PUSH1 0x24 DUP12 REVERT JUMPDEST PUSH4 0x4E487B71 PUSH1 0xE0 SHL DUP12 MSTORE PUSH1 0x41 PUSH1 0x4 MSTORE PUSH1 0x24 DUP12 REVERT JUMPDEST PUSH1 0x40 MLOAD PUSH2 0x3F24 DUP2 PUSH2 0x38A2 JUMP JUMPDEST PUSH1 0x23 DUP2 MSTORE PUSH32 0x43616E63656C6C6564206A6F6220616674657220776F726B6572206163636570 PUSH1 0x20 DUP3 ADD MSTORE PUSH3 0x1D1959 PUSH1 0xEA SHL PUSH1 0x40 DUP3 ADD MSTORE SWAP1 JUMP JUMPDEST ISZERO PUSH2 0x3F64 JUMPI JUMP JUMPDEST PUSH1 0x40 MLOAD PUSH3 0x461BCD PUSH1 0xE5 SHL DUP2 MSTORE PUSH1 0x20 PUSH1 0x4 DUP3 ADD MSTORE PUSH1 0xD PUSH1 0x24 DUP3 ADD MSTORE PUSH13 0x139BDD081CDD589B5A5D1D1959 PUSH1 0x9A SHL PUSH1 0x44 DUP3 ADD MSTORE PUSH1 0x64 SWAP1 REVERT JUMPDEST PUSH1 0x40 MLOAD SWAP1 PUSH2 0x3FA6 DUP3 PUSH2 0x38BD JUMP JUMPDEST PUSH1 0xD DUP3 MSTORE PUSH13 0x1A9BD897D8DBDB5C1B195D1959 PUSH1 0x9A SHL PUSH1 0x20 DUP4 ADD MSTORE JUMP JUMPDEST ISZERO PUSH2 0x3FC9 JUMPI JUMP JUMPDEST PUSH1 0x40 MLOAD PUSH3 0x461BCD PUSH1 0xE5 SHL DUP2 MSTORE PUSH1 0x20 PUSH1 0x4 DUP3 ADD MSTORE PUSH1 0xF PUSH1 0x24 DUP3 ADD MSTORE PUSH15 0x151C985B9CD9995C8819985A5B1959 PUSH1 0x8A SHL PUSH1 0x44 DUP3 ADD MSTORE PUSH1 0x64 SWAP1 REVERT JUMPDEST PUSH1 0x0 DUP2 DUP2 MSTORE PUSH1 0xB PUSH1 0x20 MSTORE PUSH1 0x40 SWAP1 KECCAK256 DUP1 SLOAD PUSH1 0x1 PUSH1 0x1 PUSH1 0xA0 SHL SUB AND PUSH2 0x4024 CALLER DUP3 EQ PUSH2 0x3B43 JUMP JUMPDEST PUSH1 0xB DUP3 ADD SWAP1 DUP2 SLOAD PUSH1 0xFF DUP2 AND PUSH1 0x9 DUP2 LT ISZERO PUSH2 0x47B JUMPI PUSH1 0x1 EQ PUSH2 0x4720 JUMPI POP POP DUP1 SLOAD PUSH1 0xFF DUP2 AND PUSH1 0x9 DUP2 LT ISZERO PUSH2 0x47B JUMPI PUSH1 0x2 EQ PUSH2 0x409A JUMPI PUSH1 0x40 MLOAD PUSH3 0x461BCD PUSH1 0xE5 SHL DUP2 MSTORE PUSH1 0x20 PUSH1 0x4 DUP3 ADD MSTORE PUSH1 0x1B PUSH1 0x24 DUP3 ADD MSTORE PUSH27 0x43616E6E6F742063616E63656C2061742074686973207374616765 PUSH1 0x28 SHL PUSH1 0x44 DUP3 ADD MSTORE PUSH1 0x64 SWAP1 REVERT JUMPDEST PUSH1 0xFF NOT AND PUSH1 0x6 OR SWAP1 SSTORE PUSH1 0x1 DUP2 ADD SLOAD DUP2 SLOAD PUSH1 0x1 PUSH1 0x1 PUSH1 0xA0 SHL SUB SWAP2 DUP3 AND SWAP3 SWAP2 AND PUSH2 0x40C0 PUSH2 0x3F18 JUMP JUMPDEST DUP2 PUSH1 0x0 MSTORE PUSH1 0x8 PUSH1 0x20 MSTORE PUSH1 0x40 PUSH1 0x0 KECCAK256 SWAP1 PUSH1 0x40 MLOAD SWAP2 PUSH2 0x40DC DUP4 PUSH2 0x386C JUMP JUMPDEST PUSH1 0x8 DUP4 MSTORE PUSH1 0x20 DUP4 ADD DUP8 DUP2 MSTORE PUSH1 0x40 DUP5 ADD SWAP2 TIMESTAMP DUP4 MSTORE PUSH1 0x60 DUP6 ADD SWAP4 DUP5 MSTORE DUP1 SLOAD PUSH1 0x1 PUSH1 0x40 SHL DUP2 LT ISZERO PUSH2 0x3F3 JUMPI PUSH2 0x4113 SWAP2 PUSH1 0x1 DUP3 ADD DUP2 SSTORE PUSH2 0x3AFD JUMP JUMPDEST SWAP5 SWAP1 SWAP5 PUSH2 0xFDB JUMPI MLOAD PUSH1 0xD DUP2 LT ISZERO PUSH2 0x47B JUMPI PUSH1 0xFF DUP1 NOT DUP7 SLOAD AND SWAP2 AND OR DUP5 SSTORE MLOAD PUSH1 0x1 DUP5 ADD SSTORE MLOAD PUSH1 0x2 DUP4 ADD SSTORE MLOAD DUP1 MLOAD SWAP1 PUSH1 0x1 DUP1 PUSH1 0x40 SHL SUB DUP3 GT PUSH2 0x3F3 JUMPI PUSH2 0x415A PUSH1 0x3 DUP5 ADD SLOAD PUSH2 0x3832 JUMP JUMPDEST PUSH1 0x1F DUP2 GT PUSH2 0x46D9 JUMPI JUMPDEST POP PUSH1 0x20 SWAP1 PUSH1 0x1F DUP4 GT PUSH1 0x1 EQ PUSH2 0x466A JUMPI PUSH1 0x3 SWAP3 SWAP2 PUSH1 0x0 SWAP2 DUP4 PUSH2 0x465F JUMPI JUMPDEST POP POP DUP2 PUSH1 0x1 SHL SWAP2 PUSH1 0x0 NOT SWAP1 DUP5 SHL SHR NOT AND OR SWAP2 ADD SSTORE JUMPDEST DUP1 PUSH1 0x0 MSTORE PUSH1 0x9 PUSH1 0x20 MSTORE PUSH1 0x40 PUSH1 0x0 KECCAK256 PUSH1 0x8 PUSH1 0x0 MSTORE PUSH1 0x20 MSTORE PUSH1 0x40 PUSH1 0x0 KECCAK256 DUP1 SLOAD PUSH1 0x1 DUP2 ADD DUP2 GT PUSH2 0xC50 JUMPI PUSH1 0x1 ADD SWAP1 SSTORE PUSH1 0x8 DUP2 PUSH1 0x0 DUP1 MLOAD PUSH1 0x20 PUSH2 0x4C42 DUP4 CODECOPY DUP2 MLOAD SWAP2 MSTORE PUSH1 0x20 PUSH1 0x40 MLOAD DUP9 DUP2 MSTORE LOG3 DUP1 PUSH1 0x0 MSTORE PUSH1 0x9 PUSH1 0x20 MSTORE PUSH1 0x40 PUSH1 0x0 KECCAK256 PUSH1 0x8 PUSH1 0x0 MSTORE PUSH1 0x20 MSTORE PUSH1 0x5 PUSH1 0x40 PUSH1 0x0 KECCAK256 SLOAD LT ISZERO PUSH2 0x440C JUMPI JUMPDEST POP PUSH1 0x0 DUP1 DUP1 DUP1 PUSH2 0x4224 SWAP5 PUSH1 0x2 PUSH1 0x1 DUP1 PUSH1 0xA0 SHL SUB DUP3 SLOAD AND SWAP2 ADD SLOAD SWAP1 GAS CALL PUSH2 0xF16 PUSH2 0x3C35 JUMP JUMPDEST PUSH2 0x422C PUSH2 0x3F18 JUMP JUMPDEST DUP2 PUSH1 0x0 MSTORE PUSH1 0x8 PUSH1 0x20 MSTORE PUSH1 0x40 PUSH1 0x0 KECCAK256 PUSH1 0x40 MLOAD PUSH2 0x4246 DUP2 PUSH2 0x386C JUMP JUMPDEST PUSH1 0x8 DUP2 MSTORE PUSH1 0x20 DUP2 ADD SWAP2 DUP6 DUP4 MSTORE PUSH1 0x40 DUP3 ADD SWAP1 TIMESTAMP DUP3 MSTORE PUSH1 0x60 DUP4 ADD SWAP5 DUP6 MSTORE DUP1 SLOAD PUSH1 0x1 PUSH1 0x40 SHL DUP2 LT ISZERO PUSH2 0x3F3 JUMPI PUSH2 0x427E SWAP2 PUSH1 0x1 DUP3 ADD DUP2 SSTORE PUSH2 0x3AFD JUMP JUMPDEST SWAP3 SWAP1 SWAP3 PUSH2 0xFDB JUMPI MLOAD SWAP3 PUSH1 0xD DUP5 LT ISZERO PUSH2 0x47B JUMPI PUSH1 0x3 SWAP4 PUSH1 0xFF DUP1 NOT DUP6 SLOAD AND SWAP2 AND OR DUP4 SSTORE MLOAD PUSH1 0x1 DUP4 ADD SSTORE MLOAD PUSH1 0x2 DUP3 ADD SSTORE ADD SWAP1 MLOAD DUP1 MLOAD SWAP1 PUSH1 0x1 DUP1 PUSH1 0x40 SHL SUB DUP3 GT PUSH2 0x3F3 JUMPI DUP2 SWAP1 PUSH2 0x42CA DUP5 SLOAD PUSH2 0x3832 JUMP JUMPDEST PUSH1 0x1F DUP2 GT PUSH2 0x43B9 JUMPI JUMPDEST POP PUSH1 0x20 SWAP1 PUSH1 0x1F DUP4 GT PUSH1 0x1 EQ PUSH2 0x4353 JUMPI PUSH1 0x0 SWAP3 PUSH2 0x4348 JUMPI JUMPDEST POP POP DUP2 PUSH1 0x1 SHL SWAP2 PUSH1 0x0 NOT SWAP1 PUSH1 0x3 SHL SHR NOT AND OR SWAP1 SSTORE JUMPDEST DUP1 PUSH1 0x0 MSTORE PUSH1 0x9 PUSH1 0x20 MSTORE PUSH1 0x40 PUSH1 0x0 KECCAK256 PUSH1 0x8 PUSH1 0x0 MSTORE PUSH1 0x20 MSTORE PUSH1 0x40 PUSH1 0x0 KECCAK256 DUP1 SLOAD SWAP1 PUSH1 0x1 DUP3 ADD DUP1 SWAP3 GT PUSH2 0xC50 JUMPI PUSH1 0x8 SWAP4 PUSH1 0x0 DUP1 MLOAD PUSH1 0x20 PUSH2 0x4C42 DUP4 CODECOPY DUP2 MLOAD SWAP2 MSTORE SWAP3 PUSH1 0x20 SWAP3 SSTORE PUSH1 0x40 MLOAD SWAP1 DUP2 MSTORE LOG3 JUMP JUMPDEST ADD MLOAD SWAP1 POP CODESIZE DUP1 PUSH2 0x42EA JUMP JUMPDEST PUSH1 0x0 DUP6 DUP2 MSTORE PUSH1 0x20 DUP2 KECCAK256 SWAP4 POP PUSH1 0x1F NOT DUP6 AND SWAP1 JUMPDEST DUP2 DUP2 LT PUSH2 0x43A1 JUMPI POP SWAP1 DUP5 PUSH1 0x1 SWAP6 SWAP5 SWAP4 SWAP3 LT PUSH2 0x4388 JUMPI JUMPDEST POP POP POP DUP2 SHL ADD SWAP1 SSTORE PUSH2 0x42FF JUMP JUMPDEST ADD MLOAD PUSH1 0x0 NOT PUSH1 0xF8 DUP5 PUSH1 0x3 SHL AND SHR NOT AND SWAP1 SSTORE CODESIZE DUP1 DUP1 PUSH2 0x437B JUMP JUMPDEST SWAP3 SWAP4 PUSH1 0x20 PUSH1 0x1 DUP2 SWAP3 DUP8 DUP7 ADD MLOAD DUP2 SSTORE ADD SWAP6 ADD SWAP4 ADD PUSH2 0x4365 JUMP JUMPDEST SWAP1 SWAP2 POP DUP4 PUSH1 0x0 MSTORE PUSH1 0x20 PUSH1 0x0 KECCAK256 PUSH1 0x1F DUP5 ADD PUSH1 0x5 SHR DUP2 ADD SWAP2 PUSH1 0x20 DUP6 LT PUSH2 0x4402 JUMPI JUMPDEST SWAP1 PUSH1 0x1F DUP6 SWAP5 SWAP4 SWAP3 ADD PUSH1 0x5 SHR ADD SWAP1 JUMPDEST DUP2 DUP2 LT PUSH2 0x43F3 JUMPI POP PUSH2 0x42D3 JUMP JUMPDEST PUSH1 0x0 DUP2 SSTORE DUP5 SWAP4 POP PUSH1 0x1 ADD PUSH2 0x43E6 JUMP JUMPDEST SWAP1 SWAP2 POP DUP2 SWAP1 PUSH2 0x43D8 JUMP JUMPDEST DUP1 PUSH1 0x0 MSTORE PUSH1 0x9 PUSH1 0x20 MSTORE PUSH1 0x40 PUSH1 0x0 KECCAK256 PUSH1 0x9 PUSH1 0x0 MSTORE PUSH1 0x20 MSTORE PUSH1 0x40 PUSH1 0x0 KECCAK256 SLOAD PUSH2 0x4200 JUMPI SWAP1 PUSH1 0x40 MLOAD PUSH2 0x4439 DUP2 PUSH2 0x38BD JUMP JUMPDEST PUSH1 0x1C DUP2 MSTORE PUSH28 0x233630B3B3B2B21030B9903837BA32B73A34B0B61039B1B0B6B6B2B9 PUSH1 0x21 SHL PUSH1 0x20 DUP3 ADD MSTORE DUP3 PUSH1 0x0 MSTORE PUSH1 0x8 PUSH1 0x20 MSTORE PUSH1 0x40 PUSH1 0x0 KECCAK256 PUSH1 0x40 MLOAD SWAP2 PUSH2 0x447D DUP4 PUSH2 0x386C JUMP JUMPDEST PUSH1 0x9 DUP4 MSTORE PUSH1 0x0 PUSH1 0x20 DUP5 ADD MSTORE TIMESTAMP PUSH1 0x40 DUP5 ADD MSTORE PUSH1 0x60 DUP4 ADD MSTORE DUP1 SLOAD PUSH1 0x1 PUSH1 0x40 SHL DUP2 LT ISZERO PUSH2 0x3F3 JUMPI PUSH2 0x44B0 SWAP2 PUSH1 0x1 DUP3 ADD DUP2 SSTORE PUSH2 0x3AFD JUMP JUMPDEST SWAP2 SWAP1 SWAP2 PUSH2 0xFDB JUMPI DUP1 MLOAD SWAP1 PUSH1 0xD DUP3 LT ISZERO PUSH2 0x47B JUMPI PUSH1 0x60 SWAP2 PUSH1 0xFF DUP1 NOT DUP6 SLOAD AND SWAP2 AND OR DUP4 SSTORE PUSH1 0x20 DUP2 ADD MLOAD PUSH1 0x1 DUP5 ADD SSTORE PUSH1 0x40 DUP2 ADD MLOAD PUSH1 0x2 DUP5 ADD SSTORE ADD MLOAD DUP1 MLOAD SWAP1 PUSH1 0x1 DUP1 PUSH1 0x40 SHL SUB DUP3 GT PUSH2 0x3F3 JUMPI PUSH2 0x4505 PUSH1 0x3 DUP5 ADD SLOAD PUSH2 0x3832 JUMP JUMPDEST PUSH1 0x1F DUP2 GT PUSH2 0x4618 JUMPI JUMPDEST POP PUSH1 0x20 SWAP1 PUSH1 0x1F DUP4 GT PUSH1 0x1 EQ PUSH2 0x45A9 JUMPI PUSH1 0x3 SWAP3 SWAP2 PUSH1 0x0 SWAP2 DUP4 PUSH2 0x459E JUMPI JUMPDEST POP POP DUP2 PUSH1 0x1 SHL SWAP2 PUSH1 0x0 NOT SWAP1 DUP5 SHL SHR NOT AND OR SWAP2 ADD SSTORE JUMPDEST DUP2 PUSH1 0x0 MSTORE PUSH1 0x9 PUSH1 0x20 MSTORE PUSH1 0x40 PUSH1 0x0 KECCAK256 PUSH1 0x9 PUSH1 0x0 MSTORE PUSH1 0x20 MSTORE PUSH1 0x40 PUSH1 0x0 KECCAK256 SWAP2 DUP3 SLOAD SWAP1 PUSH1 0x1 DUP3 ADD DUP3 GT PUSH2 0xC50 JUMPI PUSH1 0x0 DUP1 SWAP4 PUSH1 0x9 DUP3 SWAP5 SWAP4 PUSH2 0x4224 SWAP8 PUSH1 0x1 DUP6 SWAP7 ADD SWAP1 SSTORE PUSH1 0x0 DUP1 MLOAD PUSH1 0x20 PUSH2 0x4C42 DUP4 CODECOPY DUP2 MLOAD SWAP2 MSTORE PUSH1 0x20 PUSH1 0x40 MLOAD DUP7 DUP2 MSTORE LOG3 SWAP5 POP POP POP POP PUSH2 0x4200 JUMP JUMPDEST ADD MLOAD SWAP1 POP CODESIZE DUP1 PUSH2 0x452A JUMP JUMPDEST SWAP1 PUSH1 0x3 DUP5 ADD PUSH1 0x0 MSTORE PUSH1 0x20 PUSH1 0x0 KECCAK256 SWAP2 PUSH1 0x0 JUMPDEST PUSH1 0x1F NOT DUP6 AND DUP2 LT PUSH2 0x4600 JUMPI POP SWAP2 DUP4 SWAP2 PUSH1 0x1 SWAP4 PUSH1 0x3 SWAP6 PUSH1 0x1F NOT DUP2 AND LT PUSH2 0x45E8 JUMPI JUMPDEST POP POP POP DUP2 SHL ADD SWAP2 ADD SSTORE PUSH2 0x453F JUMP JUMPDEST ADD MLOAD PUSH1 0x0 NOT DUP4 DUP7 SHL PUSH1 0xF8 AND SHR NOT AND SWAP1 SSTORE CODESIZE DUP1 DUP1 PUSH2 0x45DA JUMP JUMPDEST SWAP2 SWAP3 PUSH1 0x20 PUSH1 0x1 DUP2 SWAP3 DUP7 DUP6 ADD MLOAD DUP2 SSTORE ADD SWAP5 ADD SWAP3 ADD PUSH2 0x45BA JUMP JUMPDEST PUSH1 0x3 DUP5 ADD PUSH1 0x0 MSTORE PUSH1 0x20 PUSH1 0x0 KECCAK256 PUSH1 0x1F DUP5 ADD PUSH1 0x5 SHR DUP2 ADD PUSH1 0x20 DUP6 LT PUSH2 0x4658 JUMPI JUMPDEST PUSH1 0x1F DUP4 ADD PUSH1 0x5 SHR DUP3 ADD DUP2 LT PUSH2 0x464C JUMPI POP POP PUSH2 0x450E JUMP JUMPDEST PUSH1 0x0 DUP2 SSTORE PUSH1 0x1 ADD PUSH2 0x4636 JUMP JUMPDEST POP DUP1 PUSH2 0x4636 JUMP JUMPDEST ADD MLOAD SWAP1 POP CODESIZE DUP1 PUSH2 0x417F JUMP JUMPDEST SWAP1 PUSH1 0x3 DUP5 ADD PUSH1 0x0 MSTORE PUSH1 0x20 PUSH1 0x0 KECCAK256 SWAP2 PUSH1 0x0 JUMPDEST PUSH1 0x1F NOT DUP6 AND DUP2 LT PUSH2 0x46C1 JUMPI POP SWAP2 DUP4 SWAP2 PUSH1 0x1 SWAP4 PUSH1 0x3 SWAP6 PUSH1 0x1F NOT DUP2 AND LT PUSH2 0x46A9 JUMPI JUMPDEST POP POP POP DUP2 SHL ADD SWAP2 ADD SSTORE PUSH2 0x4194 JUMP JUMPDEST ADD MLOAD PUSH1 0x0 NOT DUP4 DUP7 SHL PUSH1 0xF8 AND SHR NOT AND SWAP1 SSTORE CODESIZE DUP1 DUP1 PUSH2 0x469B JUMP JUMPDEST SWAP2 SWAP3 PUSH1 0x20 PUSH1 0x1 DUP2 SWAP3 DUP7 DUP6 ADD MLOAD DUP2 SSTORE ADD SWAP5 ADD SWAP3 ADD PUSH2 0x467B JUMP JUMPDEST PUSH1 0x3 DUP5 ADD PUSH1 0x0 MSTORE PUSH1 0x20 PUSH1 0x0 KECCAK256 PUSH1 0x1F DUP5 ADD PUSH1 0x5 SHR DUP2 ADD PUSH1 0x20 DUP6 LT PUSH2 0x4719 JUMPI JUMPDEST PUSH1 0x1F DUP4 ADD PUSH1 0x5 SHR DUP3 ADD DUP2 LT PUSH2 0x470D JUMPI POP POP PUSH2 0x4163 JUMP JUMPDEST PUSH1 0x0 DUP2 SSTORE PUSH1 0x1 ADD PUSH2 0x46F7 JUMP JUMPDEST POP DUP1 PUSH2 0x46F7 JUMP JUMPDEST PUSH2 0x3939 SWAP5 POP PUSH1 0x0 SWAP4 SWAP2 PUSH1 0x2 DUP6 SWAP5 SWAP4 DUP6 SWAP5 PUSH1 0x6 DUP7 SWAP6 PUSH1 0xFF NOT AND OR SWAP1 SSTORE ADD SLOAD SWAP1 GAS CALL PUSH2 0xF16 PUSH2 0x3C35 JUMP JUMPDEST PUSH1 0x1 PUSH1 0x1 PUSH1 0xA0 SHL SUB AND PUSH1 0x0 SWAP1 DUP2 MSTORE PUSH1 0xE PUSH1 0x20 MSTORE PUSH1 0x40 DUP2 KECCAK256 SLOAD ISZERO PUSH2 0x3A4E JUMPI PUSH1 0xD PUSH1 0x20 MSTORE PUSH1 0x40 DUP2 KECCAK256 SLOAD PUSH1 0xE PUSH1 0x20 MSTORE PUSH1 0x40 DUP3 KECCAK256 SLOAD SWAP2 DUP3 ISZERO PUSH2 0x4785 JUMPI POP DIV SWAP1 JUMP JUMPDEST PUSH4 0x4E487B71 PUSH1 0xE0 SHL DUP2 MSTORE PUSH1 0x12 PUSH1 0x4 MSTORE PUSH1 0x24 SWAP1 REVERT JUMPDEST ISZERO PUSH2 0x47A0 JUMPI JUMP JUMPDEST PUSH1 0x40 MLOAD PUSH3 0x461BCD PUSH1 0xE5 SHL DUP2 MSTORE PUSH1 0x20 PUSH1 0x4 DUP3 ADD MSTORE PUSH1 0xC PUSH1 0x24 DUP3 ADD MSTORE PUSH12 0x139BDD081A5B9D9BDB1D9959 PUSH1 0xA2 SHL PUSH1 0x44 DUP3 ADD MSTORE PUSH1 0x64 SWAP1 REVERT JUMPDEST ISZERO PUSH2 0x47DB JUMPI JUMP JUMPDEST PUSH1 0x40 MLOAD PUSH3 0x461BCD PUSH1 0xE5 SHL DUP2 MSTORE PUSH1 0x20 PUSH1 0x4 DUP3 ADD MSTORE PUSH1 0x10 PUSH1 0x24 DUP3 ADD MSTORE PUSH16 0x105B1C9958591E481C995CDBDB1D9959 PUSH1 0x82 SHL PUSH1 0x44 DUP3 ADD MSTORE PUSH1 0x64 SWAP1 REVERT JUMPDEST PUSH1 0xFF AND PUSH1 0xFF DUP2 EQ PUSH2 0xC50 JUMPI PUSH1 0x1 ADD SWAP1 JUMP JUMPDEST PUSH1 0x5 DUP3 LT ISZERO PUSH2 0x3B19 JUMPI ADD SWAP1 PUSH1 0x0 SWAP1 JUMP JUMPDEST ISZERO PUSH2 0x483B JUMPI JUMP JUMPDEST PUSH1 0x40 MLOAD PUSH3 0x461BCD PUSH1 0xE5 SHL DUP2 MSTORE PUSH1 0x20 PUSH1 0x4 DUP3 ADD MSTORE PUSH1 0xC PUSH1 0x24 DUP3 ADD MSTORE PUSH12 0x139BDD08191A5CDC1D5D1959 PUSH1 0xA2 SHL PUSH1 0x44 DUP3 ADD MSTORE PUSH1 0x64 SWAP1 REVERT JUMPDEST ISZERO PUSH2 0x4876 JUMPI JUMP JUMPDEST PUSH1 0x40 MLOAD PUSH3 0x461BCD PUSH1 0xE5 SHL DUP2 MSTORE PUSH1 0x20 PUSH1 0x4 DUP3 ADD MSTORE PUSH1 0xA PUSH1 0x24 DUP3 ADD MSTORE PUSH10 0x4E6F2064697370757465 PUSH1 0xB0 SHL PUSH1 0x44 DUP3 ADD MSTORE PUSH1 0x64 SWAP1 REVERT JUMPDEST PUSH1 0x40 MLOAD SWAP1 PUSH2 0x48B5 DUP3 PUSH2 0x38BD JUMP JUMPDEST PUSH1 0xC DUP3 MSTORE PUSH12 0x6C6F73745F64697370757465 PUSH1 0xA0 SHL PUSH1 0x20 DUP4 ADD MSTORE JUMP JUMPDEST PUSH1 0x40 MLOAD SWAP1 PUSH2 0x48DD DUP3 PUSH2 0x38BD JUMP JUMPDEST PUSH1 0xB DUP3 MSTORE PUSH11 0x776F6E5F64697370757465 PUSH1 0xA8 SHL PUSH1 0x20 DUP4 ADD MSTORE JUMP JUMPDEST PUSH1 0x1 PUSH1 0x1 PUSH1 0xA0 SHL SUB AND PUSH1 0x0 DUP2 DUP2 MSTORE PUSH1 0x1 PUSH1 0x20 MSTORE PUSH1 0x40 DUP2 KECCAK256 SLOAD PUSH1 0xFF AND PUSH2 0x4966 JUMPI DUP1 DUP3 PUSH32 0x5D95448EDAE7BCC3F04CEED898BF2926C2E56C8DE7C6A57D3B90539B1FF037A6 SWAP3 MSTORE DUP1 PUSH1 0x20 MSTORE PUSH1 0x40 DUP2 KECCAK256 PUSH1 0xFF NOT SWAP1 PUSH1 0x50 DUP3 DUP3 SLOAD AND OR SWAP1 SSTORE PUSH1 0x1 PUSH1 0x20 MSTORE PUSH1 0x1 PUSH1 0x40 DUP4 KECCAK256 SWAP2 DUP3 SLOAD AND OR SWAP1 SSTORE DUP1 LOG2 JUMP JUMPDEST PUSH1 0x40 MLOAD PUSH3 0x461BCD PUSH1 0xE5 SHL DUP2 MSTORE PUSH1 0x20 PUSH1 0x4 DUP3 ADD MSTORE PUSH1 0x13 PUSH1 0x24 DUP3 ADD MSTORE PUSH19 0x105B1C9958591E481A5B9A5D1A585B1A5E9959 PUSH1 0x6A SHL PUSH1 0x44 DUP3 ADD MSTORE PUSH1 0x64 SWAP1 REVERT JUMPDEST PUSH1 0xFF PUSH2 0x3A4E SWAP5 SWAP4 DUP2 PUSH1 0x60 SWAP5 AND DUP4 MSTORE AND PUSH1 0x20 DUP3 ADD MSTORE DUP2 PUSH1 0x40 DUP3 ADD MSTORE ADD SWAP1 PUSH2 0x37F2 JUMP JUMPDEST PUSH1 0x1 PUSH1 0x1 PUSH1 0xA0 SHL SUB AND PUSH1 0x0 DUP2 DUP2 MSTORE PUSH1 0x20 DUP2 SWAP1 MSTORE PUSH1 0x40 DUP2 KECCAK256 SLOAD SWAP2 SWAP3 SWAP1 SWAP2 PUSH1 0xFF AND SWAP1 PUSH1 0x5 DUP3 ADD PUSH2 0xFFFF DUP1 DUP3 GT PUSH2 0x4A77 JUMPI PUSH1 0x64 SWAP1 DUP3 AND GT ISZERO PUSH2 0x4A3D JUMPI POP SWAP1 PUSH2 0x4A38 PUSH1 0x0 DUP1 MLOAD PUSH1 0x20 PUSH2 0x4C62 DUP4 CODECOPY DUP2 MLOAD SWAP2 MSTORE SWAP4 SWAP3 PUSH1 0x40 PUSH1 0x64 SWAP5 JUMPDEST DUP8 DUP2 MSTORE DUP1 PUSH1 0x20 MSTORE KECCAK256 PUSH1 0xFF DUP6 AND PUSH1 0xFF NOT DUP3 SLOAD AND OR SWAP1 SSTORE PUSH1 0x40 MLOAD SWAP4 DUP5 SWAP4 DUP5 PUSH2 0x49A1 JUMP JUMPDEST SUB SWAP1 LOG2 JUMP JUMPDEST PUSH1 0xFF DUP2 GT PUSH2 0x4A63 JUMPI PUSH1 0x0 DUP1 MLOAD PUSH1 0x20 PUSH2 0x4C62 DUP4 CODECOPY DUP2 MLOAD SWAP2 MSTORE SWAP4 SWAP3 SWAP2 PUSH1 0x40 PUSH2 0x4A38 SWAP3 SWAP5 PUSH2 0x4A17 JUMP JUMPDEST PUSH4 0x4E487B71 PUSH1 0xE0 SHL DUP5 MSTORE PUSH1 0x11 PUSH1 0x4 MSTORE PUSH1 0x24 DUP5 REVERT JUMPDEST PUSH4 0x4E487B71 PUSH1 0xE0 SHL DUP6 MSTORE PUSH1 0x11 PUSH1 0x4 MSTORE PUSH1 0x24 DUP6 REVERT JUMPDEST PUSH1 0x1 PUSH1 0x1 PUSH1 0xA0 SHL SUB AND PUSH1 0x0 DUP2 DUP2 MSTORE PUSH1 0x20 DUP2 SWAP1 MSTORE PUSH1 0x40 DUP2 KECCAK256 SLOAD SWAP2 SWAP3 SWAP1 SWAP2 PUSH1 0xFF AND SWAP1 PUSH1 0xA DUP3 ADD PUSH2 0xFFFF DUP1 DUP3 GT PUSH2 0x4A77 JUMPI PUSH1 0x64 SWAP1 DUP3 AND GT ISZERO PUSH2 0x4A3D JUMPI POP SWAP1 PUSH2 0x4A38 PUSH1 0x0 DUP1 MLOAD PUSH1 0x20 PUSH2 0x4C62 DUP4 CODECOPY DUP2 MLOAD SWAP2 MSTORE SWAP4 SWAP3 PUSH1 0x40 PUSH1 0x64 SWAP5 DUP8 DUP2 MSTORE DUP1 PUSH1 0x20 MSTORE KECCAK256 PUSH1 0xFF DUP6 AND PUSH1 0xFF NOT DUP3 SLOAD AND OR SWAP1 SSTORE PUSH1 0x40 MLOAD SWAP4 DUP5 SWAP4 DUP5 PUSH2 0x49A1 JUMP JUMPDEST PUSH1 0x1 PUSH1 0x1 PUSH1 0xA0 SHL SUB AND PUSH1 0x0 DUP2 DUP2 MSTORE PUSH1 0x20 DUP2 SWAP1 MSTORE PUSH1 0x40 DUP2 KECCAK256 SLOAD SWAP2 SWAP3 SWAP1 SWAP2 PUSH1 0xFF AND SWAP1 PUSH1 0xA DUP3 GT PUSH2 0x4B62 JUMPI SWAP1 PUSH2 0x4A38 DUP4 SWAP3 PUSH1 0x40 PUSH1 0x0 DUP1 MLOAD PUSH1 0x20 PUSH2 0x4C62 DUP4 CODECOPY DUP2 MLOAD SWAP2 MSTORE SWAP6 SWAP5 DUP8 DUP2 MSTORE DUP1 PUSH1 0x20 MSTORE KECCAK256 PUSH1 0xFF DUP6 AND PUSH1 0xFF NOT DUP3 SLOAD AND OR SWAP1 SSTORE PUSH1 0x40 MLOAD SWAP4 DUP5 SWAP4 DUP5 PUSH2 0x49A1 JUMP JUMPDEST PUSH1 0x9 NOT DUP3 ADD PUSH1 0xFF DUP2 GT PUSH2 0x4A63 JUMPI PUSH1 0x0 DUP1 MLOAD PUSH1 0x20 PUSH2 0x4C62 DUP4 CODECOPY DUP2 MLOAD SWAP2 MSTORE SWAP4 SWAP3 SWAP2 PUSH1 0x40 PUSH2 0x4A38 SWAP3 SWAP5 PUSH2 0x4A17 JUMP JUMPDEST PUSH1 0x1 DUP1 PUSH1 0xA0 SHL SUB AND PUSH1 0x0 MSTORE PUSH1 0x0 PUSH1 0x20 MSTORE PUSH1 0x50 PUSH1 0xFF PUSH1 0x40 PUSH1 0x0 KECCAK256 SLOAD AND LT ISZERO SWAP1 JUMP JUMPDEST PUSH1 0x2 SLOAD DUP2 LT ISZERO PUSH2 0x3B19 JUMPI PUSH1 0x2 PUSH1 0x0 MSTORE PUSH1 0x20 PUSH1 0x0 KECCAK256 ADD SWAP1 PUSH1 0x0 SWAP1 JUMP JUMPDEST PUSH1 0x1 PUSH1 0x1 PUSH1 0xA0 SHL SUB DUP2 AND PUSH1 0x0 DUP2 DUP2 MSTORE PUSH1 0x3 PUSH1 0x20 MSTORE PUSH1 0x40 DUP2 KECCAK256 SLOAD SWAP1 SWAP3 SWAP1 PUSH1 0xFF AND ISZERO PUSH2 0x4BF1 JUMPI POP POP POP JUMP JUMPDEST PUSH1 0x2 SLOAD PUSH1 0x1 PUSH1 0x40 SHL DUP2 LT ISZERO PUSH2 0x4C2D JUMPI PUSH1 0x40 SWAP4 SWAP3 SWAP2 PUSH2 0x28F7 DUP3 PUSH1 0x1 PUSH2 0x4C18 SWAP5 ADD PUSH1 0x2 SSTORE PUSH2 0x4BAD JUMP JUMPDEST DUP2 MSTORE PUSH1 0x3 PUSH1 0x20 MSTORE KECCAK256 DUP1 SLOAD PUSH1 0xFF NOT AND PUSH1 0x1 OR SWAP1 SSTORE JUMP JUMPDEST PUSH4 0x4E487B71 PUSH1 0xE0 SHL DUP5 MSTORE PUSH1 0x41 PUSH1 0x4 MSTORE PUSH1 0x24 DUP5 REVERT INVALID 0xD4 0xDF 0xC 0xB9 PUSH10 0xB99D25F121A3E9C7F32D DUP16 0xCC GAS 0xD PUSH25 0x2408695F68DE9493DB8CC177BBF5EE5EEE34326C6C2D38C9B7 0xCE 0xEB PUSH27 0x8E3EE460657A93DD17FAC3E82B141D57A2646970667358221220ED 0x29 BYTE ADD 0xA5 0x26 0xE8 0x24 STATICCALL MSTORE 0xC1 0xB4 DUP14 0x23 0x2C 0x2F 0xEF SWAP13 PUSH25 0x4DD50C3788AB18D12E7AC363964736F6C6343000814003300 "},"methodIdentifiers":{"APPROVE_TIMEOUT()":"4f0db622","INIT_SCORE()":"247bc4a7","MAX_SCORE()":"27ff6223","MIN_SCORE()":"40b89270","SCAM_THRESHOLD()":"2488b2ee","SERIAL_CANCEL_THRESHOLD()":"e72f73a8","VOTER_THRESHOLD()":"9ec0164a","VOTE_DURATION()":"4654ff05","acceptJob(uint256)":"63b2f3c9","approveJob(uint256,uint8,string)":"771dd581","autoReleaseIfNotApproved(uint256)":"c5f8e299","badgeCount(address,uint256)":"2d592865","cancelIfNotStarted(uint256)":"ca62fafd","cancelIfNotSubmitted(uint256)":"66c910c8","cancelJob(uint256)":"1dffa3dc","castVote(uint256,bool)":"15373e3d","createJob(string,uint256,uint256,uint256,uint256)":"cbf78ee6","disputes(uint256)":"564a565d","feedbacks(uint256)":"2bb8b0dc","fundJob(uint256)":"8d22b863","getBadgeCount(address,uint8)":"8721ba3f","getBadges(address)":"03828e45","getDisputeVoters(uint256)":"1732d652","getMyRole()":"6e3b47fc","getRating(address)":"80fc9c0e","getVoteCount(uint256)":"b2c2f2e8","hasVoted(uint256,address)":"43859632","isEligibleVoter(address)":"4225e7f4","isScammer(address)":"69c04c44","jobCount()":"4c5d8a0f","jobs(uint256)":"180aedf3","raiseDispute(uint256,string)":"5aef573c","ratingCount(address)":"2404165e","registerClient()":"6d9fb287","registerWorker()":"208082bf","reputationScore(address)":"50d061cb","resolveDispute(uint256)":"c2b7b868","roles(address)":"99374642","startWork(uint256)":"03a250f9","submitCounterEvidence(uint256,string)":"d0d24142","submitWork(uint256,string)":"da8accf9","totalRating(address)":"4807632f","voteChoice(uint256,address)":"fb468855"}}}}}