{"contracts/VoterSelector.sol":{"VoterSelector":{"abi":[{"anonymous":false,"inputs":[{"indexed":true,"internalType":"address","name":"user","type":"address"},{"indexed":false,"internalType":"uint8","name":"oldScore","type":"uint8"},{"indexed":false,"internalType":"uint8","name":"newScore","type":"uint8"},{"indexed":false,"internalType":"string","name":"reason","type":"string"}],"name":"ScoreChanged","type":"event"},{"anonymous":false,"inputs":[{"indexed":true,"internalType":"address","name":"user","type":"address"}],"name":"ScoreInitialized","type":"event"},{"inputs":[],"name":"INIT_SCORE","outputs":[{"internalType":"uint8","name":"","type":"uint8"}],"stateMutability":"view","type":"function"},{"inputs":[],"name":"MAX_SCORE","outputs":[{"internalType":"uint8","name":"","type":"uint8"}],"stateMutability":"view","type":"function"},{"inputs":[],"name":"MIN_SCORE","outputs":[{"internalType":"uint8","name":"","type":"uint8"}],"stateMutability":"view","type":"function"},{"inputs":[],"name":"VOTER_THRESHOLD","outputs":[{"internalType":"uint8","name":"","type":"uint8"}],"stateMutability":"view","type":"function"},{"inputs":[{"internalType":"address","name":"user","type":"address"}],"name":"isEligibleVoter","outputs":[{"internalType":"bool","name":"","type":"bool"}],"stateMutability":"view","type":"function"},{"inputs":[{"internalType":"address","name":"","type":"address"}],"name":"reputationScore","outputs":[{"internalType":"uint8","name":"","type":"uint8"}],"stateMutability":"view","type":"function"}],"evm":{"bytecode":{"linkReferences":{},"object":"6080806040523461001657610176908161001c8239f35b600080fdfe604060808152600436101561001357600080fd5b6000803560e01c918263247bc4a71461011f57826327ff62231461010557826340b89270146100ec5782634225e7f4146100ac57826350d061cb14610068575050639ec0164a1461006357600080fd5b61011f565b346100a85760203660031901126100a8576004356001600160a01b038116908190036100a457818360ff92602095528085522054169051908152f35b8280fd5b5080fd5b346100a85760203660031901126100a8576004356001600160a01b038116908190036100a45760ff82846050936020965280865220541610159051908152f35b346100a857816003193601126100a85751908152602090f35b346100a857816003193601126100a8576020905160648152f35b3461013b57600036600319011261013b57602060405160508152f35b600080fdfea26469706673582212205618bfb10eaf1fd56e7fc359fa2ea52453190363ba2ebd3717758f701da3990664736f6c63430008140033","opcodes":"PUSH1 0x80 DUP1 PUSH1 0x40 MSTORE CALLVALUE PUSH2 0x16 JUMPI PUSH2 0x176 SWAP1 DUP2 PUSH2 0x1C DUP3 CODECOPY RETURN JUMPDEST PUSH1 0x0 DUP1 REVERT INVALID PUSH1 0x40 PUSH1 0x80 DUP2 MSTORE PUSH1 0x4 CALLDATASIZE LT ISZERO PUSH2 0x13 JUMPI PUSH1 0x0 DUP1 REVERT JUMPDEST PUSH1 0x0 DUP1 CALLDATALOAD PUSH1 0xE0 SHR SWAP2 DUP3 PUSH4 0x247BC4A7 EQ PUSH2 0x11F JUMPI DUP3 PUSH4 0x27FF6223 EQ PUSH2 0x105 JUMPI DUP3 PUSH4 0x40B89270 EQ PUSH2 0xEC JUMPI DUP3 PUSH4 0x4225E7F4 EQ PUSH2 0xAC JUMPI DUP3 PUSH4 0x50D061CB EQ PUSH2 0x68 JUMPI POP POP PUSH4 0x9EC0164A EQ PUSH2 0x63 JUMPI PUSH1 0x0 DUP1 REVERT JUMPDEST PUSH2 0x11F JUMP JUMPDEST CALLVALUE PUSH2 0xA8 JUMPI PUSH1 0x20 CALLDATASIZE PUSH1 0x3 NOT ADD SLT PUSH2 0xA8 JUMPI PUSH1 0x4 CALLDATALOAD PUSH1 0x1 PUSH1 0x1 PUSH1 0xA0 SHL SUB DUP2 AND SWAP1 DUP2 SWAP1 SUB PUSH2 0xA4 JUMPI DUP2 DUP4 PUSH1 0xFF SWAP3 PUSH1 0x20 SWAP6 MSTORE DUP1 DUP6 MSTORE KECCAK256 SLOAD AND SWAP1 MLOAD SWAP1 DUP2 MSTORE RETURN JUMPDEST DUP3 DUP1 REVERT JUMPDEST POP DUP1 REVERT JUMPDEST CALLVALUE PUSH2 0xA8 JUMPI PUSH1 0x20 CALLDATASIZE PUSH1 0x3 NOT ADD SLT PUSH2 0xA8 JUMPI PUSH1 0x4 CALLDATALOAD PUSH1 0x1 PUSH1 0x1 PUSH1 0xA0 SHL SUB DUP2 AND SWAP1 DUP2 SWAP1 SUB PUSH2 0xA4 JUMPI PUSH1 0xFF DUP3 DUP5 PUSH1 0x50 SWAP4 PUSH1 0x20 SWAP7 MSTORE DUP1 DUP7 MSTORE KECCAK256 SLOAD AND LT ISZERO SWAP1 MLOAD SWAP1 DUP2 MSTORE RETURN JUMPDEST CALLVALUE PUSH2 0xA8 JUMPI DUP2 PUSH1 0x3 NOT CALLDATASIZE ADD SLT PUSH2 0xA8 JUMPI MLOAD SWAP1 DUP2 MSTORE PUSH1 0x20 SWAP1 RETURN JUMPDEST CALLVALUE PUSH2 0xA8 JUMPI DUP2 PUSH1 0x3 NOT CALLDATASIZE ADD SLT PUSH2 0xA8 JUMPI PUSH1 0x20 SWAP1 MLOAD PUSH1 0x64 DUP2 MSTORE RETURN JUMPDEST CALLVALUE PUSH2 0x13B JUMPI PUSH1 0x0 CALLDATASIZE PUSH1 0x3 NOT ADD SLT PUSH2 0x13B JUMPI PUSH1 0x20 PUSH1 0x40 MLOAD PUSH1 0x50 DUP2 MSTORE RETURN JUMPDEST PUSH1 0x0 DUP1 REVERT INVALID LOG2 PUSH5 0x6970667358 0x22 SLT KECCAK256 JUMP XOR 0xBF 0xB1 0xE 0xAF 0x1F 0xD5 PUSH15 0x7FC359FA2EA52453190363BA2EBD37 OR PUSH22 0x8F701DA3990664736F6C634300081400330000000000 "},"methodIdentifiers":{"INIT_SCORE()":"247bc4a7","MAX_SCORE()":"27ff6223","MIN_SCORE()":"40b89270","VOTER_THRESHOLD()":"9ec0164a","isEligibleVoter(address)":"4225e7f4","reputationScore(address)":"50d061cb"}}}}}