{"contracts/GigStamp.sol":{"GigStamp":{"abi":[{"anonymous":false,"inputs":[{"indexed":true,"internalType":"address","name":"user","type":"address"},{"indexed":true,"internalType":"enum BadgeManager.BadgeType","name":"badgeType","type":"uint8"},{"indexed":false,"internalType":"uint256","name":"jobId","type":"uint256"}],"name":"BadgeAwarded","type":"event"},{"anonymous":false,"inputs":[{"indexed":true,"internalType":"uint256","name":"jobId","type":"uint256"},{"indexed":true,"internalType":"address","name":"responder","type":"address"}],"name":"CounterEvidenceSubmitted","type":"event"},{"anonymous":false,"inputs":[{"indexed":true,"internalType":"uint256","name":"jobId","type":"uint256"},{"indexed":true,"internalType":"address","name":"initiator","type":"address"}],"name":"DisputeRaised","type":"event"},{"anonymous":false,"inputs":[{"indexed":true,"internalType":"uint256","name":"jobId","type":"uint256"},{"indexed":false,"internalType":"bool","name":"workerWon","type":"bool"}],"name":"DisputeResolved","type":"event"},{"anonymous":false,"inputs":[{"indexed":true,"internalType":"address","name":"user","type":"address"},{"indexed":false,"internalType":"uint8","name":"oldScore","type":"uint8"},{"indexed":false,"internalType":"uint8","name":"newScore","type":"uint8"},{"indexed":false,"internalType":"string","name":"reason","type":"string"}],"name":"ScoreChanged","type":"event"},{"anonymous":false,"inputs":[{"indexed":true,"internalType":"address","name":"user","type":"address"}],"name":"ScoreInitialized","type":"event"},{"anonymous":false,"inputs":[{"indexed":true,"internalType":"uint256","name":"jobId","type":"uint256"},{"indexed":true,"internalType":"address","name":"voter","type":"address"},{"indexed":false,"internalType":"bool","name":"voteForWorker","type":"bool"}],"name":"Voted","type":"event"},{"anonymous":false,"inputs":[{"indexed":true,"internalType":"uint256","name":"jobId","type":"uint256"},{"indexed":false,"internalType":"address[]","name":"voters","type":"address[]"}],"name":"VoterSelected","type":"event"},{"inputs":[],"name":"APPROVE_TIMEOUT","outputs":[{"internalType":"uint256","name":"","type":"uint256"}],"stateMutability":"view","type":"function"},{"inputs":[],"name":"FUND_TIMEOUT","outputs":[{"internalType":"uint256","name":"","type":"uint256"}],"stateMutability":"view","type":"function"},{"inputs":[],"name":"INIT_SCORE","outputs":[{"internalType":"uint8","name":"","type":"uint8"}],"stateMutability":"view","type":"function"},{"inputs":[],"name":"MAX_SCORE","outputs":[{"internalType":"uint8","name":"","type":"uint8"}],"stateMutability":"view","type":"function"},{"inputs":[],"name":"MIN_SCORE","outputs":[{"internalType":"uint8","name":"","type":"uint8"}],"stateMutability":"view","type":"function"},{"inputs":[],"name":"SCAM_THRESHOLD","outputs":[{"internalType":"uint256","name":"","type":"uint256"}],"stateMutability":"view","type":"function"},{"inputs":[],"name":"SERIAL_CANCEL_THRESHOLD","outputs":[{"internalType":"uint256","name":"","type":"uint256"}],"stateMutability":"view","type":"function"},{"inputs":[],"name":"SUBMIT_TIMEOUT","outputs":[{"internalType":"uint256","name":"","type":"uint256"}],"stateMutability":"view","type":"function"},{"inputs":[],"name":"VOTER_THRESHOLD","outputs":[{"internalType":"uint8","name":"","type":"uint8"}],"stateMutability":"view","type":"function"},{"inputs":[],"name":"VOTE_DURATION","outputs":[{"internalType":"uint256","name":"","type":"uint256"}],"stateMutability":"view","type":"function"},{"inputs":[{"internalType":"uint256","name":"jobId","type":"uint256"}],"name":"acceptJob","outputs":[],"stateMutability":"nonpayable","type":"function"},{"inputs":[{"internalType":"uint256","name":"jobId","type":"uint256"},{"internalType":"uint8","name":"_rating","type":"uint8"},{"internalType":"string","name":"_comment","type":"string"}],"name":"approveJob","outputs":[],"stateMutability":"nonpayable","type":"function"},{"inputs":[{"internalType":"uint256","name":"jobId","type":"uint256"}],"name":"autoReleaseIfNotApproved","outputs":[],"stateMutability":"nonpayable","type":"function"},{"inputs":[{"internalType":"address","name":"","type":"address"},{"internalType":"uint256","name":"","type":"uint256"}],"name":"badgeCount","outputs":[{"internalType":"uint256","name":"","type":"uint256"}],"stateMutability":"view","type":"function"},{"inputs":[{"internalType":"uint256","name":"jobId","type":"uint256"}],"name":"cancelIfNotStarted","outputs":[],"stateMutability":"nonpayable","type":"function"},{"inputs":[{"internalType":"uint256","name":"jobId","type":"uint256"}],"name":"cancelIfNotSubmitted","outputs":[],"stateMutability":"nonpayable","type":"function"},{"inputs":[{"internalType":"uint256","name":"jobId","type":"uint256"}],"name":"cancelJob","outputs":[],"stateMutability":"nonpayable","type":"function"},{"inputs":[{"internalType":"uint256","name":"jobId","type":"uint256"},{"internalType":"bool","name":"voteForWorker","type":"bool"}],"name":"castVote","outputs":[],"stateMutability":"nonpayable","type":"function"},{"inputs":[{"internalType":"string","name":"_jobHash","type":"string"},{"internalType":"uint256","name":"_pay","type":"uint256"},{"internalType":"uint256","name":"_startTime","type":"uint256"},{"internalType":"uint256","name":"_endTime","type":"uint256"},{"internalType":"uint256","name":"_tolerance","type":"uint256"}],"name":"createJob","outputs":[],"stateMutability":"nonpayable","type":"function"},{"inputs":[{"internalType":"uint256","name":"","type":"uint256"}],"name":"disputes","outputs":[{"internalType":"uint256","name":"jobId","type":"uint256"},{"internalType":"address","name":"initiator","type":"address"},{"internalType":"string","name":"evidenceHash","type":"string"},{"internalType":"string","name":"counterHash","type":"string"},{"internalType":"uint8","name":"voterCount","type":"uint8"},{"internalType":"uint8","name":"votesForWorker","type":"uint8"},{"internalType":"uint8","name":"votesForClient","type":"uint8"},{"internalType":"uint256","name":"deadline","type":"uint256"},{"internalType":"bool","name":"resolved","type":"bool"},{"internalType":"bool","name":"workerWon","type":"bool"}],"stateMutability":"view","type":"function"},{"inputs":[{"internalType":"uint256","name":"","type":"uint256"}],"name":"feedbacks","outputs":[{"internalType":"address","name":"client","type":"address"},{"internalType":"address","name":"worker","type":"address"},{"internalType":"uint8","name":"rating","type":"uint8"},{"internalType":"string","name":"comment","type":"string"}],"stateMutability":"view","type":"function"},{"inputs":[{"internalType":"uint256","name":"jobId","type":"uint256"}],"name":"fundJob","outputs":[],"stateMutability":"payable","type":"function"},{"inputs":[{"internalType":"address","name":"user","type":"address"},{"internalType":"enum BadgeManager.BadgeType","name":"badgeType","type":"uint8"}],"name":"getBadgeCount","outputs":[{"internalType":"uint256","name":"","type":"uint256"}],"stateMutability":"view","type":"function"},{"inputs":[{"internalType":"address","name":"user","type":"address"}],"name":"getBadges","outputs":[{"internalType":"enum BadgeManager.BadgeType[]","name":"types","type":"uint8[]"},{"internalType":"uint256[]","name":"jobIds","type":"uint256[]"},{"internalType":"uint256[]","name":"timestamps","type":"uint256[]"},{"internalType":"string[]","name":"notes","type":"string[]"}],"stateMutability":"view","type":"function"},{"inputs":[{"internalType":"uint256","name":"jobId","type":"uint256"}],"name":"getDisputeVoters","outputs":[{"internalType":"address[5]","name":"","type":"address[5]"}],"stateMutability":"view","type":"function"},{"inputs":[],"name":"getMyRole","outputs":[{"internalType":"enum Auth.Role","name":"","type":"uint8"}],"stateMutability":"view","type":"function"},{"inputs":[{"internalType":"address","name":"worker","type":"address"}],"name":"getRating","outputs":[{"internalType":"uint256","name":"","type":"uint256"}],"stateMutability":"view","type":"function"},{"inputs":[{"internalType":"uint256","name":"jobId","type":"uint256"}],"name":"getVoteCount","outputs":[{"internalType":"uint8","name":"forWorker","type":"uint8"},{"internalType":"uint8","name":"forClient","type":"uint8"}],"stateMutability":"view","type":"function"},{"inputs":[{"internalType":"uint256","name":"","type":"uint256"},{"internalType":"address","name":"","type":"address"}],"name":"hasVoted","outputs":[{"internalType":"bool","name":"","type":"bool"}],"stateMutability":"view","type":"function"},{"inputs":[{"internalType":"address","name":"user","type":"address"}],"name":"isEligibleVoter","outputs":[{"internalType":"bool","name":"","type":"bool"}],"stateMutability":"view","type":"function"},{"inputs":[{"internalType":"address","name":"user","type":"address"}],"name":"isScammer","outputs":[{"internalType":"bool","name":"","type":"bool"}],"stateMutability":"view","type":"function"},{"inputs":[],"name":"jobCount","outputs":[{"internalType":"uint256","name":"","type":"uint256"}],"stateMutability":"view","type":"function"},{"inputs":[{"internalType":"uint256","name":"","type":"uint256"}],"name":"jobs","outputs":[{"internalType":"address","name":"client","type":"address"},{"internalType":"address","name":"worker","type":"address"},{"internalType":"uint256","name":"pay","type":"uint256"},{"internalType":"uint256","name":"startTime","type":"uint256"},{"internalType":"uint256","name":"endTime","type":"uint256"},{"internalType":"uint256","name":"tolerance","type":"uint256"},{"internalType":"string","name":"jobHash","type":"string"},{"internalType":"string","name":"resultHash","type":"string"},{"internalType":"uint256","name":"fundedAt","type":"uint256"},{"internalType":"uint256","name":"acceptedAt","type":"uint256"},{"internalType":"uint256","name":"submittedAt","type":"uint256"},{"internalType":"enum JobStatus","name":"status","type":"uint8"}],"stateMutability":"view","type":"function"},{"inputs":[{"internalType":"uint256","name":"jobId","type":"uint256"},{"internalType":"string","name":"evidenceHash","type":"string"}],"name":"raiseDispute","outputs":[],"stateMutability":"nonpayable","type":"function"},{"inputs":[{"internalType":"address","name":"","type":"address"}],"name":"ratingCount","outputs":[{"internalType":"uint256","name":"","type":"uint256"}],"stateMutability":"view","type":"function"},{"inputs":[],"name":"registerClient","outputs":[],"stateMutability":"nonpayable","type":"function"},{"inputs":[],"name":"registerWorker","outputs":[],"stateMutability":"nonpayable","type":"function"},{"inputs":[{"internalType":"address","name":"","type":"address"}],"name":"reputationScore","outputs":[{"internalType":"uint8","name":"","type":"uint8"}],"stateMutability":"view","type":"function"},{"inputs":[{"internalType":"uint256","name":"jobId","type":"uint256"}],"name":"resolveDispute","outputs":[],"stateMutability":"nonpayable","type":"function"},{"inputs":[{"internalType":"address","name":"","type":"address"}],"name":"roles","outputs":[{"internalType":"enum Auth.Role","name":"","type":"uint8"}],"stateMutability":"view","type":"function"},{"inputs":[{"internalType":"uint256","name":"jobId","type":"uint256"}],"name":"startWork","outputs":[],"stateMutability":"nonpayable","type":"function"},{"inputs":[{"internalType":"uint256","name":"jobId","type":"uint256"},{"internalType":"string","name":"counterHash","type":"string"}],"name":"submitCounterEvidence","outputs":[],"stateMutability":"nonpayable","type":"function"},{"inputs":[{"internalType":"uint256","name":"jobId","type":"uint256"},{"internalType":"string","name":"_resultHash","type":"string"}],"name":"submitWork","outputs":[],"stateMutability":"nonpayable","type":"function"},{"inputs":[{"internalType":"address","name":"","type":"address"}],"name":"totalRating","outputs":[{"internalType":"uint256","name":"","type":"uint256"}],"stateMutability":"view","type":"function"},{"inputs":[{"internalType":"uint256","name":"","type":"uint256"},{"internalType":"address","name":"","type":"address"}],"name":"voteChoice","outputs":[{"internalType":"bool","name":"","type":"bool"}],"stateMutability":"view","type":"function"}],"evm":{"bytecode":{"linkReferences":{},"object":"6080806040523461001657614e8e908161001c8239f35b600080fdfe6080604052600436101561001257600080fd5b60003560e01c806303828e451461397457806303a250f91461387a57806315373e3d146135bb5780631732d65214613512578063180aedf3146134265780631dffa3dc1461340a578063208082bf146133b25780632404165e14613378578063247bc4a714611aaa5780632488b2ee1461335c57806327ff6223146133405780632bb8b0dc146132d25780632d5928651461328a5780633dc9fe421461326e57806340b89270146132525780634225e7f41461322557806343859632146131d85780634654ff05146131bb5780634807632f146131815780634c5d8a0f146131635780634f0db62214612abc57806350d061cb14613126578063564a565d146130575780635aef573c14612ac15780635d5a373c14612abc57806363b2f3c91461297557806366c910c81461266357806369c04c441461261a5780636d9fb287146125b95780636e3b47fc14612587578063771dd58114611c9357806380fc9c0e14611c685780638721ba3f14611c165780638d22b86314611af55780639937464214611aaf5780639ec0164a14611aaa578063b2c2f2e814611a6c578063c2b7b868146111d6578063c5f8e29914610e38578063ca62fafd14610ae8578063cbf78ee6146106bf578063d0d2414214610451578063da8accf914610279578063e72f73a81461025d5763fb4688551461020b57600080fd5b3461025857604036600319011261025857610224613bb0565b600435600052600760205260406000209060018060a01b0316600052602052602060ff604060002054166040519015158152f35b600080fd5b3461025857600036600319011261025857602060405160038152f35b346102585761028736613e43565b906000526020600b815260406000209060016102af60018060a01b0382850154163314613fa0565b600b83019360ff855416600981101561043b57600303610406578051600785019390916001600160401b0383116103f0576102ea8554613c3a565b601f81116103a7575b5081601f84116001146103415750928293918392600094610336575b50501b916000199060031b1c19161790555b42600a9190910155805460ff19166004179055005b01519250878061030f565b919083601f1981168760005284600020946000905b8883831061038d5750505010610374575b505050811b019055610321565b015160001960f88460031b161c19169055858080610367565b858701518855909601959485019487935090810190610356565b8560005282600020601f850160051c8101918486106103e6575b601f0160051c019085905b8281106103da5750506102f3565b600081550185906103cc565b90915081906103c1565b634e487b7160e01b600052604160045260246000fd5b60405162461bcd60e51b815260048101849052600d60248201526c496e76616c696420737461746560981b6044820152606490fd5b634e487b7160e01b600052602160045260246000fd5b346102585761045f36613e43565b81600052602090600b825260406000209060ff600b60018060a01b039384815416331480156106b0575b61049290614970565b015416600981101561043b5760076104aa9114614a0b565b8360005260058352604060002060019283820154166104ce600a8301541515614a46565b6104df60ff600b84015416156149ab565b331461066e57600301928354916104f583613c3a565b61062d578051926001600160401b0384116103f05761051390613c3a565b601f81116105e4575b5081601f841160011461057e5750928293918392600094610573575b50501b916000199060031b1c19161790555b33907f7878f55c48613e960719430c5332344cefc8c552f6afc747476ff85169f618fe600080a3005b015192508680610538565b919083601f1981168760005284600020946000905b888383106105ca57505050106105b1575b505050811b01905561054a565b015160001960f88460031b161c191690558480806105a4565b858701518855909601959485019487935090810190610593565b8560005282600020601f850160051c810191848610610623575b601f0160051c019085905b82811061061757505061051c565b60008155018590610609565b90915081906105fe565b60405162461bcd60e51b815260048101839052601960248201527810dbdd5b9d195c88185b1c9958591e481cdd589b5a5d1d1959603a1b6044820152606490fd5b60405162461bcd60e51b815260048101859052601a60248201527943616e6e6f7420636f756e746572206f776e206469737075746560301b6044820152606490fd5b50600181015485163314610489565b346102585760a0366003190112610258576004356001600160401b038111610258576106ef903690600401613dfc565b6044359060643533600052600460205260ff60406000205416600381101561043b57600161071d9114613f67565b80831015610aae576040519261018084016001600160401b038111858210176103f0576040523384526000602085015260243560408501526060840152608083015260843560a083015260c08201526040516020810181811060018060401b038211176103f0576040526000815260e08201526000610100820152600061012082015260006101408201526000610160820152600a54600052600b60205260406000209060018060a01b038082511660018060a01b0319908185541617845560018401916020840151169082541617905560408101516002830155606081015160038301556080810151600483015560a0810151600583015560c081015191825160018060401b0381116103f0576108386006830154613c3a565b601f8111610a67575b506020601f82116001146109f957819293946000926109ee575b50508160011b916000199060031b1c19161760068201555b60e08201518051906001600160401b0382116103f0576108966007840154613c3a565b601f81116109a3575b50602090601f831160011461092d5791806101609492600b94600092610922575b50508160011b916000199060031b1c19161760078201555b61010084015160088201556101208401516009820155610140840151600a82015501910151600981101561043b5760ff8019835416911617905561091d600a54613f12565b600a55005b0151905086806108c0565b906007840160005260206000209160005b601f198516811061098b5750926101609492600192600b9583601f19811610610972575b505050811b0160078201556108d8565b015160001960f88460031b161c19169055868080610962565b9192602060018192868501518155019401920161093e565b600784016000526020600020601f840160051c810191602085106109e4575b601f0160051c01905b8181106109d8575061089f565b600081556001016109cb565b90915081906109c2565b01519050848061085b565b6006830160005260206000209060005b601f1984168110610a4f5750600193949583601f19811610610a36575b505050811b016006820155610873565b015160001960f88460031b161c19169055848080610a26565b9091602060018192858a015181550193019101610a09565b600683016000526020600020601f830160051c810160208410610aa7575b601f830160051c82018110610a9b575050610841565b60008155600101610a85565b5080610a85565b60405162461bcd60e51b8152602060048201526012602482015271496e76616c69642074696d652072616e676560701b6044820152606490fd5b34610258576020806003193601126102585760043580600052600b8252604060002090600b820192835460ff8116600981101561043b576002610b2b9114613fd9565b610b48610b416003860154600587015490614014565b4211614021565b600160ff19918216811790955583850180546001600160a01b0319811690915560006009909501949094556040516001600160a01b03909416938490610b8d81613cc5565b601b81527a1ddbdc9ad95c97d858d8d95c1d195917db9bdd17dcdd185c9d1959602a1b848201526000828152808552604090205460ff1660058111610e0d5790600080516020614e3983398151915291610c086000925b8560005260008852604060002060ff85168882541617905560405193849384614b78565b0390a2610c13614059565b908460005260088352604060002060405190610c2e82613c74565b600082528482018681526040830191428352606084019586528054600160401b8110156103f057610c63918b82018155613f21565b939093610df75751600d81101561043b5760ff6003958554169116178355518883015551600282015501905180519060018060401b0382116103f0578190610cab8454613c3a565b601f8111610da4575b508490601f8311600114610d4157600092610d36575b5050600019600383901b1c191690861b1790555b826000526009815260406000206000805281526040600020918254948501809511610d2057600094600080516020614e198339815191529355604051908152a3005b634e487b7160e01b600052601160045260246000fd5b015190508780610cca565b90889350601f1983169185600052866000209260005b88828210610d8e5750508411610d75575b505050811b019055610cde565b015160001960f88460031b161c19169055878080610d68565b8385015186558c97909501949384019301610d57565b9091508360005284600020601f840160051c810191868510610ded575b84939291601f8b920160051c01915b828110610dde575050610cb4565b600081558594508a9101610dd0565b9091508190610dc1565b634e487b7160e01b600052600060045260246000fd5b915060041982019060ff8211610d20578692610c08600080516020614e398339815191529392610be4565b3461025857602080600319360112610258576004359081600052600b81526040600020600b81019081549260ff8416600981101561043b576004610e7c91146140e5565b600a82015460788101809111610d2057610e9890421015614021565b600560ff19948516811790935581546040516001600160a01b039391841690610ec081613cc5565b601981527831b634b2b73a2fb4b3b737b932b22fb9bab136b4b9b9b4b7b760391b848201526000828152808552604090205460ff1690600882116111af57600080516020614e3983398151915291610f396000925b8560005260008852604060002060ff85168c82541617905560405193849384614b78565b0390a28281541692604051610f4d81613caa565b602681527f446964206e6f7420726573706f6e6420616674657220776f726b65722073756284820152651b5a5d1d195960d21b60408201528460005260088452604060002096604051610f9f81613c74565b8781528581018a81526040820190428252606083019485528a54600160401b8110156103f057610fd69060019c8d82018155613f21565b939093610df75751600d81101561043b5760ff6003958554169116178355518a83015551600282015501905180519060018060401b0382116103f057819061101e8454613c3a565b601f811161115e575b508690601f83116001146110fb576000926110f0575b5050600019600383901b1c191690881b1790555b83600052600983526040600020856000528352604060002090815493878501809511610d20576110d860009889988998600080516020614e19833981519152856110ee9e8c9b60029a55604051908152a385019183835416716a6f625f636f6d706c657465645f6175746f60701b604051926110cc84613cc5565b60128452830152614c62565b5416910154905af16110e861414a565b5061417a565b005b015190508a8061103d565b908a9350601f1983169185600052886000209260005b8a828210611148575050841161112f575b505050811b019055611051565b015160001960f88460031b161c191690558a8080611122565b8385015186558e97909501949384019301611111565b9091508360005286600020601f84018a1c8101918885106111a5575b84939291601f8d92018c1c01915b828110611196575050611027565b600081558594508c9101611188565b909150819061117a565b60071982019160ff8311610d2057610f39600080516020614e398339815191529392610f15565b3461025857602036600319011261025857600435600052600b6020526040600020600b810160ff815416600981101561043b5760076112159114614a0b565b60043560005260056020526040600020600a81015492611236841515614a46565b600b8201549361124960ff8616156149ab565b4210801590611a41575b15611a0957600160098301549461ff0060ff8760101c1660ff8860081c161160081b169061ffff19161717600b83015560405160ff8560101c1660ff8660081c161181527f5a87909bff68caaaaf0b3fd9c74eeccc928832f879315e5c6fb7a73612f26c0c602060043592a260005b60ff60098401541660ff82161015611530576112e181600485016149fb565b91905491600435600052600660205260406000209260039360018060a01b038284871b1c1660005260205260ff6040600020541615611524576004356000526007602052604060002060018060a01b038284871b1c1660005260205260ff8860101c1660ff8960081c161160ff60406000205416151514600014611458576040519161136c83613cc5565b600f83526e766f7465645f636f72726563746c7960881b602084015260018060a01b038282871b1c16600052600060205260ff604060002054169261ffff86850111610d205760648061ffff888701161160001461142b57600080516020614e398339815191529392916114269761141d92905b9390931b9390931c6001600160a01b031660008181526020819052604090819020805460ff191660ff861617905551909590938493909184614b78565b0390a25b6149ea565b6112c2565b50919060ff86850111610d205761141d600080516020614e398339815191529387611426988701906113e0565b6040519161146583613cc5565b600d83526c766f7465645f77726f6e676c7960981b602084015260018060a01b038282871b1c16600052600060205260ff6040600020541692838610156000146114f457941b1c6001600160a01b0316600081815260208190526040808220805460ff1916905551611426959293600080516020614e39833981519152939192839261141d9290919084614b78565b919060ff600219850111610d205761141d600080516020614e3983398151915293611426976002198701906113e0565b505061142691506149ea565b50828460ff199160088382541617905560ff808260101c169160081c16116000146117b25781546001600160a01b039061157490821661156e614a7f565b90614cd7565b80835416916040519061158682613cc5565b6018825277131bdcdd081848191a5cdc1d5d1948185cc818db1a595b9d60421b60208301528360005260086020526040600020604051906115c682613c74565b600782526020820160043581526040830191428352606084019586528054600160401b8110156103f0576115ff91600182018155613f21565b939093610df75751600d81101561043b5760ff600395855416911617835551600183015551600282015501905180519060018060401b0382116103f05781906116488454613c3a565b601f811161175f575b50602090601f83116001146116f9576000926116ee575b50508160011b916000199060031b1c19161790555b81600052600960205260406000206007600052602052604060002080549260018401809411610d20576110ee946002600095946007879694879695879655600080516020614e1983398151915260206040516004358152a3600183016110d8828254166116e8614aa7565b90614c62565b015190508680611668565b6000858152602081209350601f198516905b818110611747575090846001959493921061172e575b505050811b01905561167d565b015160001960f88460031b161c19169055868080611721565b9293602060018192878601518155019501930161170b565b909150836000526020600020601f840160051c810191602085106117a8575b90601f859493920160051c01905b8181106117995750611651565b6000815584935060010161178c565b909150819061177e565b6001820180546001600160a01b039182916117d190831661156e614a7f565b541691604051906117e182613cc5565b600e82526d4c6f73742061206469737075746560901b602083015283600052600860205260406000206040519061181782613c74565b600282526020820160043581526040830191428352606084019586528054600160401b8110156103f05761185091600182018155613f21565b939093610df75751600d81101561043b5760ff600395855416911617835551600183015551600282015501905180519060018060401b0382116103f05781906118998454613c3a565b601f81116119b6575b50602090601f831160011461195057600092611945575b50508160011b916000199060031b1c19161790555b81600052600960205260406000206002600052602052604060002080549260018401809411610d20576110ee9460026000959481879694879695879655600080516020614e1983398151915260206040516004358152a3611934818454166116e8614aa7565b825416910154905af16110e861414a565b0151905086806118b9565b6000858152602081209350601f198516905b81811061199e5750908460019594939210611985575b505050811b0190556118ce565b015160001960f88460031b161c19169055868080611978565b92936020600181928786015181550195019301611962565b909150836000526020600020601f840160051c810191602085106119ff575b90601f859493920160051c01905b8181106119f057506118a2565b600081558493506001016119e3565b90915081906119d5565b60405162461bcd60e51b815260206004820152601060248201526f159bdd1a5b99c81b9bdd08195b99195960821b6044820152606490fd5b50600982015460ff8160101c1660ff8260081c16019060ff8211610d205760ff809116911614611253565b346102585760203660031901126102585760043560005260056020526040600981600020015460ff825191818160081c16835260101c166020820152f35b613da9565b34610258576020366003190112610258576001600160a01b03611ad0613b9a565b166000526004602052611af160ff6040600020541660405191829182613e75565b0390f35b60208060031936011261025857600435600052600b81526040600020336000526004825260ff60406000205416600381101561043b576001611b379114613f67565b80546001600160a01b03163303611be557600b81019081549060ff8216600981101561043b57611bb25760028101543403611b7e574260089091015560ff19166001179055005b60405162461bcd60e51b815260048101859052600c60248201526b15dc9bdb99c8185b5bdd5b9d60a21b6044820152606490fd5b60405162461bcd60e51b815260048101859052600b60248201526a139bdd0810dc99585d195960aa1b6044820152606490fd5b60405162461bcd60e51b81526004810183905260096024820152682737ba1037bbb732b960b91b6044820152606490fd5b3461025857604036600319011261025857611c2f613b9a565b60243590600d8210156102585760018060a01b031660005260096020526040600020906000526020526020604060002054604051908152f35b34610258576020366003190112610258576020611c8b611c86613b9a565b61491f565b604051908152f35b346102585760603660031901126102585760243560ff81168103610258576044356001600160401b03811161025857611cd0903690600401613dfc565b90600435600052600b60205260406000209160018060a01b03835416611cf7813314613f67565b600b8401805460ff8116600981101561043b576004611d1691146140e5565b600160ff8616101580612579575b156125435760ff19166005179055604051611d3e81613caa565b602281527f52656c6961626c6520636c69656e74207769746820636c65616e20686973746f602082015261727960f01b6040820152816000526008602052604060002060405191611d8e83613c74565b600b8352600435602084015242604084015260608301528054600160401b8110156103f057611dc291600182018155613f21565b919091610df757805190600d82101561043b5760609160ff801985541691161783556020810151600184015560408101516002840155015180519060018060401b0382116103f057611e176003840154613c3a565b601f81116124fc575b50602090601f831160011461248d576003929160009183612482575b50508160011b9160001990841b1c1916179101555b8060005260096020526040600020600b600052602052604060002090815491600183018311610d20576001600b93019055600080516020614e1983398151915260206040516004358152a3611ed1604051611eab81613cc5565b601381527231b634b2b73a2fb0b8383937bb32b22fb537b160691b602082015233614b99565b600460ff83161061215557600183018054611f309190611efc906001600160a01b03166116e8614121565b54604051906001600160a01b0316611f1382613cc5565b600b82526a676f6f645f726174696e6760a81b6020830152614b99565b600183015460405191906001600160a01b0316611f4c83613c74565b338352602080840191825260ff85166040808601918252606086019485526004356000908152600c909352909120935184546001600160a01b0319166001600160a01b03918216178555915160018501805492516001600160a81b0319909316919093161760a09190911b60ff60a01b16179055518051906001600160401b0382116103f057611fdf6002840154613c3a565b601f811161210e575b50602090601f83116001146120a0576002929160009183612095575b50508160011b916000199060031b1c1916179101555b60018060a01b03600183015416600052600d60205261204260ff604060002092168254614014565b905560018060a01b03600182015416600052600e602052604060002080549160018301809311610d2057600080808093866110ee9655600260018060a01b03600183015416910154905af16110e861414a565b015190508680612004565b90601f198316916002850160005260206000209260005b8181106120f6575091600193918560029694106120dd575b505050811b0191015561201a565b015160001960f88460031b161c191690558680806120cf565b929360206001819287860151815501950193016120b7565b600284016000526020600020601f840160051c81016020851061214e575b601f830160051c82018110612142575050611fe8565b6000815560010161212c565b508061212c565b600260ff83161161246357600183015461217a906001600160a01b03166116e8614121565b60018060a01b0360018401541660405161219381613cc5565b600a8152696261645f726174696e6760b01b602082015281600052600060205260ff6040600020541690816007101560001461243957600080516020614e39833981519152916122076000925b856000526000602052604060002060ff851660ff1982541617905560405193849384614b78565b0390a260018060a01b0360018401541660405161222381613cc5565b601b81527a52656365697665642031206f722032207374617220726174696e6760281b602082015281600052600860205260406000206040519161226683613c74565b60018352600435602084015242604084015260608301528054600160401b8110156103f05761229a91600182018155613f21565b919091610df757805190600d82101561043b5760609160ff801985541691161783556020810151600184015560408101516002840155015180519060018060401b0382116103f0576122ef6003840154613c3a565b601f81116123f2575b50602090601f8311600114612383576003929160009183612378575b50508160011b9160001990841b1c1916179101555b80600052600960205260406000206001600052602052604060002090815491600183018311610d205760018093019055600080516020614e1983398151915260206040516004358152a3611f30565b015190508880612314565b906003840160005260206000209160005b601f19851681106123da5750918391600193600395601f198116106123c2575b505050811b01910155612329565b015160001983861b60f8161c191690558880806123b4565b91926020600181928685015181550194019201612394565b600384016000526020600020601f840160051c810160208510612432575b601f830160051c820181106124265750506122f8565b60008155600101612410565b5080612410565b60ff600619830111610d2057600080516020614e39833981519152916122076006198201926121e0565b600183015461247d906001600160a01b03166116e8614121565b611f30565b015190508880611e3c565b906003840160005260206000209160005b601f19851681106124e45750918391600193600395601f198116106124cc575b505050811b01910155611e51565b015160001983861b60f8161c191690558880806124be565b9192602060018192868501518155019401920161249e565b600384016000526020600020601f840160051c81016020851061253c575b601f830160051c82018110612530575050611e20565b6000815560010161251a565b508061251a565b60405162461bcd60e51b815260206004820152600e60248201526d496e76616c696420726174696e6760901b6044820152606490fd5b50600560ff86161115611d24565b3461025857600036600319011261025857336000526004602052611af160ff6040600020541660405191829182613e75565b346102585760003660031901126102585733600052600460205260ff60406000205416600381101561043b576125ef9015613e88565b3360005260046020526040600020600160ff1982541617905561261133614ace565b6110ee33614d9f565b34610258576020366003190112610258576001600160a01b0361263b613b9a565b1660005260096020526040600020600960005260205260206040600020541515604051908152f35b34610258576020806003193601126102585760043580600052600b8252604060002090600b820180549060ff8216600981101561043b5760030361293e57600984015460788101809111610d20576126bd90421015614021565b60ff199182166006179055600183810180546040516001600160a01b039692879290916127109184166126ef82613cc5565b601082526f1ddbdc9ad95c97d858985b991bdb995960821b8b830152614cd7565b54169261271b614059565b90846000526008885260406000206040519061273682613c74565b600082528982018881526040830191428352606084019586528054600160401b8110156103f05761276b918982018155613f21565b939093610df75751600d81101561043b5760ff6003958554169116178355518683015551600282015501905180519060018060401b0382116103f05781906127b38454613c3a565b601f81116128eb575b508990601f83116001146128885760009261287d575b5050600019600383901b1c191690841b1790555b8260005260098652604060002060008052865260406000208054928301809311610d205760009586809695600080516020614e198339815191528a8398849860029755604051908152a3825416910154905af161284161414a565b501561284957005b6064906040519062461bcd60e51b82526004820152600d60248201526c1499599d5b990819985a5b1959609a1b6044820152fd5b0151905089806127d2565b90869350601f19831691856000528b6000209260005b8d8282106128d557505084116128bc575b505050811b0190556127e6565b015160001960f88460031b161c191690558980806128af565b8385015186558a9790950194938401930161289e565b9091508360005289600020601f840160051c8101918b8510612934575b84939291601f89920160051c01915b8281106129255750506127bc565b60008155859450889101612917565b9091508190612908565b60405162461bcd60e51b815260048101869052600f60248201526e4e6f7420696e2070726f677265737360881b6044820152606490fd5b346102585760208060031936011261025857600435600052600b81526040600020336000526004825260ff60406000205416600381101561043b5760026129bc9114613fa0565b600b81019081549060ff8216600981101561043b57600103612a8a5780546001600160a01b039081163314612a4f5760018201908154908116612a1a576001600160a01b03191633179055426009919091015560ff19166002179055005b60405162461bcd60e51b815260048101879052600d60248201526c20b63932b0b23c903a30b5b2b760991b6044820152606490fd5b60405162461bcd60e51b815260048101869052601360248201527221b0b73737ba103a30b5b29037bbb7103537b160691b6044820152606490fd5b60405162461bcd60e51b815260048101859052600a602482015269139bdd08199d5b99195960b21b6044820152606490fd5b613dc5565b3461025857612acf36613e43565b6000828152600b6020526040902080546001600160a01b0316903382148015613041575b612afc90614970565b600b8101805460ff8116600981101561043b5760048114908115613036575b5015612ff55760079060ff19161790556001808060a01b039101541690836000526005602052604060002092612b5860ff600b86015416156149ab565b600a840154612fb7578484556001840180546001600160a01b031916331790558051906001600160401b0382116103f0578190612b986002870154613c3a565b601f8111612f64575b50602090601f8311600114612ef757600092612eec575b50508160011b916000199060031b1c19161760028401555b61012c4201804211610d2057600a840155604051602081019042825244604082015285606082015260608152612c0581613c74565b51902091600254612c1581613ee0565b9260009260005b838110612e7a575050505060058110600014612e6f5760ff8116909493945b612c4760ff8316613ee0565b93612c5182613ee0565b9360005b838110612e4257505060005b60ff84168110612d785787878760ff815116600984019060ff19825416179055600460009301925b815160ff821690811015612ce357612cde9190611421906001600160a01b0390612cb39086613f53565b5116612cbf83886149fb565b90919082549060031b9160018060a01b03809116831b921b1916179055565b612c89565b50506040519033837f84a477df8a28a4276ca6dee4458a06c3015f30c477d9c949ede4e13ff8a552b4600080a36020820160208352815180915260206040840192019060005b818110612d5957857faaf49c3b93c6f3a66b3ad89750cfdbb3fe0be786559ef1298f6e6cb97756633786860387a2005b82516001600160a01b0316845260209384019390920191600101612d29565b604097969751602081019083825282604082015260408152612d9981613caa565b5190209080840390848211610d2057808514612e2c57612dc0612e229260ff940682614014565b612dfd6001600160a01b03612dd5848b613f53565b5116916001600160a01b03612dea828c613f53565b5116612df6858c613f53565b5289613f53565b526001600160a01b03612e108289613f53565b5116612e1c828a613f53565b52613f12565b9050969596612c61565b634e487b7160e01b600052601260045260246000fd5b969796612e67906001600160a01b03612e5b8285613f53565b5116612e1c8289613f53565b979697612c55565b600590949394612c3b565b612e8381614d84565b905460039190911b1c6001600160a01b03168381141580612ee2575b80612ed3575b612eb9575b50612eb490613f12565b612c1c565b85612ecc91612e1c612eb494988a613f53565b9490612eaa565b50612edd81614d64565b612ea5565b5082811415612e9f565b015190508680612bb8565b600287016000908152602081209350601f198516905b818110612f4c5750908460019594939210612f33575b505050811b016002840155612bd0565b015160001960f88460031b161c19169055868080612f23565b92936020600181928786015181550195019301612f0d565b909150600286016000526020600020601f840160051c810160208510612fb0575b90849392915b601f830160051c82018110612fa1575050612ba1565b60008155859450600101612f8b565b5080612f85565b60405162461bcd60e51b8152602060048201526016602482015275111a5cdc1d5d1948185b1c9958591e481c985a5cd95960521b6044820152606490fd5b60405162461bcd60e51b8152602060048201526019602482015278496e76616c696420737461746520666f72206469737075746560381b6044820152606490fd5b600391501487612b1b565b5060018101546001600160a01b03163314612af3565b34610258576020366003190112610258576004356000908152600560205260409020805460018201546001600160a01b03169160ff61309860028301613d03565b6130a460038401613d03565b92826130e96009830154956130db600b600a860154950154956040519a8b9a8b5260208b01526101408060408c01528a0190613bfa565b9088820360608a0152613bfa565b948181166080880152818160081c1660a088015260101c1660c086015260e0850152818116151561010085015260081c1615156101208301520390f35b34610258576020366003190112610258576001600160a01b03613147613b9a565b166000526000602052602060ff60406000205416604051908152f35b34610258576000366003190112610258576020600a54604051908152f35b34610258576020366003190112610258576001600160a01b036131a2613b9a565b16600052600d6020526020604060002054604051908152f35b3461025857600036600319011261025857602060405161012c8152f35b34610258576040366003190112610258576131f1613bb0565b600435600052600660205260406000209060018060a01b0316600052602052602060ff604060002054166040519015158152f35b34610258576020366003190112610258576020613248613243613b9a565b614d64565b6040519015158152f35b3461025857600036600319011261025857602060405160008152f35b34610258576000366003190112610258576020604051603c8152f35b34610258576040366003190112610258576001600160a01b036132ab613b9a565b16600052600960205260406000206024356000526020526020604060002054604051908152f35b3461025857602036600319011261025857600435600052600c602052604060002060018060a01b0390611af1828254169160ff613316600260018401549301613d03565b9160405195869586528116602086015260a01c166040840152608060608401526080830190613bfa565b3461025857600036600319011261025857602060405160648152f35b3461025857600036600319011261025857602060405160058152f35b34610258576020366003190112610258576001600160a01b03613399613b9a565b16600052600e6020526020604060002054604051908152f35b346102585760003660031901126102585733600052600460205260ff60406000205416600381101561043b576133e89015613e88565b3360005260046020526040600020600260ff1982541617905561261133614ace565b34610258576020366003190112610258576110ee6004356141b8565b3461025857602036600319011261025857600435600052600b602052604060002060018060a01b03908181541691600182015416906002810154906003810154916134ea60048301546134dc600585015461348360068701613d03565b9061349060078801613d03565b9360088801549860098901549760ff600b600a8c01549b0154169b60206040519e8f908152015260408d015260608c015260808b015260a08a01526101808060c08b0152890190613bfa565b9087820360e0890152613bfa565b92610100860152610120850152610140840152600982101561043b5782916101608301520390f35b34610258576020806003193601126102585760a060405161353281613c8f565b36903760043560005260058082526004604060002001916040519283826000915b85831061359b575050505061356783613c8f565b60405192600090845b84831061357c5760a086f35b81516001600160a01b0316815260019290920191908301908301613570565b83546001600160a01b031681526001938401939290920191849101613553565b34610258576040366003190112610258576024803580151590600435908281036102585781600052602090600b825260ff80600b6040600020015416600981101561386557600761360c9114614a0b565b8360005260058352604060002091600a830154801561382d5761363583600b86015416156149ab565b4210156137f3578460005260068452604060002033600052845281604060002054166137bf576000809360098101946004858754169201905b8286821610613781575b5050501561374657847ff2913dbe661ee2acc4a046d8fbcdc792373bda34c41c6086484b5345e5785e5f95969750600052600684526040600020336000528452604060002060ff19906001828254161790558660005260078552604060002033600052855260406000209081541683891617905560001461371f5761ff006137068354928360081c166149ea565b60081b169061ff0019161790555b6040519384523393a3005b62ff00006137338354928360101c166149ea565b60101b169062ff00001916179055613714565b60405162461bcd60e51b815260048101859052601481890152732737ba10309039b2b632b1ba32b2103b37ba32b960611b6044820152606490fd5b61378b81836149fb565b905460039190911b1c6001600160a01b031633146137b1576137ac906149ea565b61366e565b505050506001888080613678565b60405162461bcd60e51b815260048101859052600d818901526c105b1c9958591e481d9bdd1959609a1b6044820152606490fd5b60405162461bcd60e51b81526004810185905260138189015272159bdd1a5b99c81c195c9a5bd908195b991959606a1b6044820152606490fd5b60405162461bcd60e51b8152600481018690526011818a0152704e6f20646973707574652065786973747360781b6044820152606490fd5b86634e487b7160e01b60005260216004526000fd5b3461025857602036600319011261025857600435600052600b60205260406000206138b260018060a01b036001830154163314613fa0565b600b81019081549060ff8216600981101561043b5760026138d39114613fd9565b600381015480421061393a5760056138ed92015490614014565b42116138fe5760ff19166003179055005b60405162461bcd60e51b815260206004820152601460248201527314dd185c9d081dda5b991bddc8195e1c1a5c995960621b6044820152606490fd5b60405162461bcd60e51b8152602060048201526012602482015271151bdbc819585c9b1e481d1bc81cdd185c9d60721b6044820152606490fd5b3461025857602080600319360112610258576001600160a01b03613996613b9a565b166000526008815260406000208054906139af82613ec9565b916139bd6040519384613ce0565b8083526139c981613ec9565b90848401601f198093013682376139df82613ee0565b6139e883613ee0565b926139f281613ec9565b95613a006040519788613ce0565b81875285613a0d83613ec9565b0160005b818110613b8b57505060005b828110613af257505050604051956080870190608088525180915260a08701929060005b818110613acb5750505081613a609187613a6e95940389890152613bc6565b908582036040870152613bc6565b93838503606085015282519081865280860181808460051b8901019501936000975b848910613a9d5787870388f35b9091929394958480613ab9838686600196030188528a51613bfa565b98019401980197919094939294613a90565b909193849996995190600d82101561043b5790815295989589019389019190600101613a41565b60ff613b0182849c999c613f21565b50541690613b0f818b613f53565b91600d81101561043b57613b8392526001613b2a8285613f21565b500154613b378287613f53565b526002613b448285613f21565b500154613b518289613f53565b52613b686003613b618386613f21565b5001613d03565b613b72828b613f53565b52613b7d818a613f53565b50613f12565b989598613a1d565b60608982018c01528a01613a11565b600435906001600160a01b038216820361025857565b602435906001600160a01b038216820361025857565b90815180825260208080930193019160005b828110613be6575050505090565b835185529381019392810192600101613bd8565b919082519283825260005b848110613c26575050826000602080949584010152601f8019910116010190565b602081830181015184830182015201613c05565b90600182811c92168015613c6a575b6020831014613c5457565b634e487b7160e01b600052602260045260246000fd5b91607f1691613c49565b608081019081106001600160401b038211176103f057604052565b60a081019081106001600160401b038211176103f057604052565b606081019081106001600160401b038211176103f057604052565b604081019081106001600160401b038211176103f057604052565b601f909101601f19168101906001600160401b038211908210176103f057604052565b9060405191826000825492613d1784613c3a565b908184526001948581169081600014613d865750600114613d43575b5050613d4192500383613ce0565b565b9093915060005260209081600020936000915b818310613d6e575050613d4193508201013880613d33565b85548884018501529485019487945091830191613d56565b915050613d4194506020925060ff191682840152151560051b8201013880613d33565b3461025857600036600319011261025857602060405160508152f35b3461025857600036600319011261025857602060405160788152f35b6001600160401b0381116103f057601f01601f191660200190565b81601f8201121561025857803590613e1382613de1565b92613e216040519485613ce0565b8284526020838301011161025857816000926020809301838601378301015290565b9060406003198301126102585760043591602435906001600160401b03821161025857613e7291600401613dfc565b90565b91906020830192600382101561043b5752565b15613e8f57565b60405162461bcd60e51b8152602060048201526012602482015271105b1c9958591e481c9959da5cdd195c995960721b6044820152606490fd5b6001600160401b0381116103f05760051b60200190565b90613eea82613ec9565b613ef76040519182613ce0565b8281528092613f08601f1991613ec9565b0190602036910137565b6000198114610d205760010190565b8054821015613f3d5760005260206000209060021b0190600090565b634e487b7160e01b600052603260045260246000fd5b8051821015613f3d5760209160051b010190565b15613f6e57565b60405162461bcd60e51b815260206004820152600a602482015269139bdd0818db1a595b9d60b21b6044820152606490fd5b15613fa757565b60405162461bcd60e51b815260206004820152600a6024820152692737ba103bb7b935b2b960b11b6044820152606490fd5b15613fe057565b60405162461bcd60e51b815260206004820152600c60248201526b139bdd081858d8d95c1d195960a21b6044820152606490fd5b91908201809211610d2057565b1561402857565b60405162461bcd60e51b8152602060048201526009602482015268546f6f206561726c7960b81b6044820152606490fd5b60405161406581613caa565b602581527f4163636570746564206f7220696e2d70726f6772657373206a6f62206162616e602082015264191bdb995960da1b604082015290565b6040516140ac81613caa565b602381527f43616e63656c6c6564206a6f6220616674657220776f726b65722061636365706020820152621d195960ea1b604082015290565b156140ec57565b60405162461bcd60e51b815260206004820152600d60248201526c139bdd081cdd589b5a5d1d1959609a1b6044820152606490fd5b6040519061412e82613cc5565b600d82526c1a9bd897d8dbdb5c1b195d1959609a1b6020830152565b3d15614175573d9061415b82613de1565b916141696040519384613ce0565b82523d6000602084013e565b606090565b1561418157565b60405162461bcd60e51b815260206004820152600f60248201526e151c985b9cd9995c8819985a5b1959608a1b6044820152606490fd5b6000818152600b6020526040902080546001600160a01b03166141dc338214613f67565b600b820190815460ff8116600981101561043b576001146148d8575050805460ff8116600981101561043b576002146142525760405162461bcd60e51b815260206004820152601b60248201527a43616e6e6f742063616e63656c206174207468697320737461676560281b6044820152606490fd5b60ff19166006179055600181015481546001600160a01b039182169291166142786140a0565b8160005260086020526040600020906040519161429483613c74565b60088352602083018781526040840191428352606085019384528054600160401b8110156103f0576142cb91600182018155613f21565b949094610df75751600d81101561043b5760ff801986541691161784555160018401555160028301555180519060018060401b0382116103f0576143126003840154613c3a565b601f8111614891575b50602090601f8311600114614822576003929160009183614817575b50508160011b9160001990841b1c1916179101555b8060005260096020526040600020600860005260205260406000208054600181018111610d20576001019055600881600080516020614e198339815191526020604051888152a380600052600960205260406000206008600052602052600560406000205410156145c4575b5060008080806143dc94600260018060a01b03825416910154905af16110e861414a565b6143e46140a0565b81600052600860205260406000206040516143fe81613c74565b6008815260208101918583526040820190428252606083019485528054600160401b8110156103f05761443691600182018155613f21565b929092610df7575192600d84101561043b5760039360ff8019855416911617835551600183015551600282015501905180519060018060401b0382116103f05781906144828454613c3a565b601f8111614571575b50602090601f831160011461450b57600092614500575b50508160011b916000199060031b1c19161790555b80600052600960205260406000206008600052602052604060002080549060018201809211610d2057600893600080516020614e198339815191529260209255604051908152a3565b0151905038806144a2565b6000858152602081209350601f198516905b8181106145595750908460019594939210614540575b505050811b0190556144b7565b015160001960f88460031b161c19169055388080614533565b9293602060018192878601518155019501930161451d565b909150836000526020600020601f840160051c810191602085106145ba575b90601f859493920160051c01905b8181106145ab575061448b565b6000815584935060010161459e565b9091508190614590565b806000526009602052604060002060096000526020526040600020546143b857906040516145f181613cc5565b601c81527b233630b3b3b2b21030b9903837ba32b73a34b0b61039b1b0b6b6b2b960211b602082015282600052600860205260406000206040519161463583613c74565b600983526000602084015242604084015260608301528054600160401b8110156103f05761466891600182018155613f21565b919091610df757805190600d82101561043b5760609160ff801985541691161783556020810151600184015560408101516002840155015180519060018060401b0382116103f0576146bd6003840154613c3a565b601f81116147d0575b50602090601f8311600114614761576003929160009183614756575b50508160011b9160001990841b1c1916179101555b81600052600960205260406000206009600052602052604060002091825490600182018211610d20576000809360098294936143dc9760018596019055600080516020614e198339815191526020604051868152a394505050506143b8565b0151905038806146e2565b906003840160005260206000209160005b601f19851681106147b85750918391600193600395601f198116106147a0575b505050811b019101556146f7565b015160001983861b60f8161c19169055388080614792565b91926020600181928685015181550194019201614772565b600384016000526020600020601f840160051c810160208510614810575b601f830160051c820181106148045750506146c6565b600081556001016147ee565b50806147ee565b015190503880614337565b906003840160005260206000209160005b601f19851681106148795750918391600193600395601f19811610614861575b505050811b0191015561434c565b015160001983861b60f8161c19169055388080614853565b91926020600181928685015181550194019201614833565b600384016000526020600020601f840160051c8101602085106148d1575b601f830160051c820181106148c557505061431b565b600081556001016148af565b50806148af565b92919093506008820154603c8101809111610d2057613d41946002600095948695946006879661490b8897421015614021565b60ff19161790550154905af16110e861414a565b6001600160a01b03166000908152600e602052604081205415613e7257600d6020526040812054600e602052604082205491821561495c57500490565b634e487b7160e01b81526012600452602490fd5b1561497757565b60405162461bcd60e51b815260206004820152600c60248201526b139bdd081a5b9d9bdb1d995960a21b6044820152606490fd5b156149b257565b60405162461bcd60e51b815260206004820152601060248201526f105b1c9958591e481c995cdbdb1d995960821b6044820152606490fd5b60ff1660ff8114610d205760010190565b6005821015613f3d570190600090565b15614a1257565b60405162461bcd60e51b815260206004820152600c60248201526b139bdd08191a5cdc1d5d195960a21b6044820152606490fd5b15614a4d57565b60405162461bcd60e51b815260206004820152600a6024820152694e6f206469737075746560b01b6044820152606490fd5b60405190614a8c82613cc5565b600c82526b6c6f73745f6469737075746560a01b6020830152565b60405190614ab482613cc5565b600b82526a776f6e5f6469737075746560a81b6020830152565b6001600160a01b031660008181526001602052604081205460ff16614b3d5780827f5d95448edae7bcc3f04ceed898bf2926c2e56c8de7c6a57d3b90539b1ff037a69252806020526040812060ff199060508282541617905560016020526001604083209182541617905580a2565b60405162461bcd60e51b8152602060048201526013602482015272105b1c9958591e481a5b9a5d1a585b1a5e9959606a1b6044820152606490fd5b60ff613e729493816060941683521660208201528160408201520190613bfa565b6001600160a01b03166000818152602081905260408120549192909160ff16906005820161ffff808211614c4e5760649082161115614c14575090614c0f600080516020614e39833981519152939260406064945b878152806020522060ff851660ff1982541617905560405193849384614b78565b0390a2565b60ff8111614c3a57600080516020614e398339815191529392916040614c0f9294614bee565b634e487b7160e01b84526011600452602484fd5b634e487b7160e01b85526011600452602485fd5b6001600160a01b03166000818152602081905260408120549192909160ff1690600a820161ffff808211614c4e5760649082161115614c14575090614c0f600080516020614e3983398151915293926040606494878152806020522060ff851660ff1982541617905560405193849384614b78565b6001600160a01b03166000818152602081905260408120549192909160ff1690600a8211614d395790614c0f83926040600080516020614e398339815191529594878152806020522060ff851660ff1982541617905560405193849384614b78565b600919820160ff8111614c3a57600080516020614e398339815191529392916040614c0f9294614bee565b60018060a01b03166000526000602052605060ff60406000205416101590565b600254811015613f3d57600260005260206000200190600090565b6001600160a01b03811660008181526003602052604081205490929060ff1615614dc857505050565b600254600160401b811015614e04576040939291612cbf826001614def9401600255614d84565b8152600360205220805460ff19166001179055565b634e487b7160e01b84526041600452602484fdfed4df0cb969b99d25f121a3e9c7f32d8fcc5a0d782408695f68de9493db8cc177bbf5ee5eee34326c6c2d38c9b7ceeb7a8e3ee460657a93dd17fac3e82b141d57a2646970667358221220161ac17f1628fc3b08861d51399b09dfb773c942b5210cf6c889d99e8e5e45b464736f6c63430008140033","opcodes":"PUSH1 0x80 DUP1 PUSH1 0x40 MSTORE CALLVALUE PUSH2 0x16 JUMPI PUSH2 0x4E8E SWAP1 DUP2 PUSH2 0x1C DUP3 CODECOPY RETURN JUMPDEST PUSH1 0x0 DUP1 REVERT INVALID PUSH1 0x80 PUSH1 0x40 MSTORE PUSH1 0x4 CALLDATASIZE LT ISZERO PUSH2 0x12 JUMPI PUSH1 0x0 DUP1 REVERT JUMPDEST PUSH1 0x0 CALLDATALOAD PUSH1 0xE0 SHR DUP1 PUSH4 0x3828E45 EQ PUSH2 0x3974 JUMPI DUP1 PUSH4 0x3A250F9 EQ PUSH2 0x387A JUMPI DUP1 PUSH4 0x15373E3D EQ PUSH2 0x35BB JUMPI DUP1 PUSH4 0x1732D652 EQ PUSH2 0x3512 JUMPI DUP1 PUSH4 0x180AEDF3 EQ PUSH2 0x3426 JUMPI DUP1 PUSH4 0x1DFFA3DC EQ PUSH2 0x340A JUMPI DUP1 PUSH4 0x208082BF EQ PUSH2 0x33B2 JUMPI DUP1 PUSH4 0x2404165E EQ PUSH2 0x3378 JUMPI DUP1 PUSH4 0x247BC4A7 EQ PUSH2 0x1AAA JUMPI DUP1 PUSH4 0x2488B2EE EQ PUSH2 0x335C JUMPI DUP1 PUSH4 0x27FF6223 EQ PUSH2 0x3340 JUMPI DUP1 PUSH4 0x2BB8B0DC EQ PUSH2 0x32D2 JUMPI DUP1 PUSH4 0x2D592865 EQ PUSH2 0x328A JUMPI DUP1 PUSH4 0x3DC9FE42 EQ PUSH2 0x326E JUMPI DUP1 PUSH4 0x40B89270 EQ PUSH2 0x3252 JUMPI DUP1 PUSH4 0x4225E7F4 EQ PUSH2 0x3225 JUMPI DUP1 PUSH4 0x43859632 EQ PUSH2 0x31D8 JUMPI DUP1 PUSH4 0x4654FF05 EQ PUSH2 0x31BB JUMPI DUP1 PUSH4 0x4807632F EQ PUSH2 0x3181 JUMPI DUP1 PUSH4 0x4C5D8A0F EQ PUSH2 0x3163 JUMPI DUP1 PUSH4 0x4F0DB622 EQ PUSH2 0x2ABC JUMPI DUP1 PUSH4 0x50D061CB EQ PUSH2 0x3126 JUMPI DUP1 PUSH4 0x564A565D EQ PUSH2 0x3057 JUMPI DUP1 PUSH4 0x5AEF573C EQ PUSH2 0x2AC1 JUMPI DUP1 PUSH4 0x5D5A373C EQ PUSH2 0x2ABC JUMPI DUP1 PUSH4 0x63B2F3C9 EQ PUSH2 0x2975 JUMPI DUP1 PUSH4 0x66C910C8 EQ PUSH2 0x2663 JUMPI DUP1 PUSH4 0x69C04C44 EQ PUSH2 0x261A JUMPI DUP1 PUSH4 0x6D9FB287 EQ PUSH2 0x25B9 JUMPI DUP1 PUSH4 0x6E3B47FC EQ PUSH2 0x2587 JUMPI DUP1 PUSH4 0x771DD581 EQ PUSH2 0x1C93 JUMPI DUP1 PUSH4 0x80FC9C0E EQ PUSH2 0x1C68 JUMPI DUP1 PUSH4 0x8721BA3F EQ PUSH2 0x1C16 JUMPI DUP1 PUSH4 0x8D22B863 EQ PUSH2 0x1AF5 JUMPI DUP1 PUSH4 0x99374642 EQ PUSH2 0x1AAF JUMPI DUP1 PUSH4 0x9EC0164A EQ PUSH2 0x1AAA JUMPI DUP1 PUSH4 0xB2C2F2E8 EQ PUSH2 0x1A6C JUMPI DUP1 PUSH4 0xC2B7B868 EQ PUSH2 0x11D6 JUMPI DUP1 PUSH4 0xC5F8E299 EQ PUSH2 0xE38 JUMPI DUP1 PUSH4 0xCA62FAFD EQ PUSH2 0xAE8 JUMPI DUP1 PUSH4 0xCBF78EE6 EQ PUSH2 0x6BF JUMPI DUP1 PUSH4 0xD0D24142 EQ PUSH2 0x451 JUMPI DUP1 PUSH4 0xDA8ACCF9 EQ PUSH2 0x279 JUMPI DUP1 PUSH4 0xE72F73A8 EQ PUSH2 0x25D JUMPI PUSH4 0xFB468855 EQ PUSH2 0x20B JUMPI PUSH1 0x0 DUP1 REVERT JUMPDEST CALLVALUE PUSH2 0x258 JUMPI PUSH1 0x40 CALLDATASIZE PUSH1 0x3 NOT ADD SLT PUSH2 0x258 JUMPI PUSH2 0x224 PUSH2 0x3BB0 JUMP JUMPDEST PUSH1 0x4 CALLDATALOAD PUSH1 0x0 MSTORE PUSH1 0x7 PUSH1 0x20 MSTORE PUSH1 0x40 PUSH1 0x0 KECCAK256 SWAP1 PUSH1 0x1 DUP1 PUSH1 0xA0 SHL SUB AND PUSH1 0x0 MSTORE PUSH1 0x20 MSTORE PUSH1 0x20 PUSH1 0xFF PUSH1 0x40 PUSH1 0x0 KECCAK256 SLOAD AND PUSH1 0x40 MLOAD SWAP1 ISZERO ISZERO DUP2 MSTORE RETURN JUMPDEST PUSH1 0x0 DUP1 REVERT JUMPDEST CALLVALUE PUSH2 0x258 JUMPI PUSH1 0x0 CALLDATASIZE PUSH1 0x3 NOT ADD SLT PUSH2 0x258 JUMPI PUSH1 0x20 PUSH1 0x40 MLOAD PUSH1 0x3 DUP2 MSTORE RETURN JUMPDEST CALLVALUE PUSH2 0x258 JUMPI PUSH2 0x287 CALLDATASIZE PUSH2 0x3E43 JUMP JUMPDEST SWAP1 PUSH1 0x0 MSTORE PUSH1 0x20 PUSH1 0xB DUP2 MSTORE PUSH1 0x40 PUSH1 0x0 KECCAK256 SWAP1 PUSH1 0x1 PUSH2 0x2AF PUSH1 0x1 DUP1 PUSH1 0xA0 SHL SUB DUP3 DUP6 ADD SLOAD AND CALLER EQ PUSH2 0x3FA0 JUMP JUMPDEST PUSH1 0xB DUP4 ADD SWAP4 PUSH1 0xFF DUP6 SLOAD AND PUSH1 0x9 DUP2 LT ISZERO PUSH2 0x43B JUMPI PUSH1 0x3 SUB PUSH2 0x406 JUMPI DUP1 MLOAD PUSH1 0x7 DUP6 ADD SWAP4 SWAP1 SWAP2 PUSH1 0x1 PUSH1 0x1 PUSH1 0x40 SHL SUB DUP4 GT PUSH2 0x3F0 JUMPI PUSH2 0x2EA DUP6 SLOAD PUSH2 0x3C3A JUMP JUMPDEST PUSH1 0x1F DUP2 GT PUSH2 0x3A7 JUMPI JUMPDEST POP DUP2 PUSH1 0x1F DUP5 GT PUSH1 0x1 EQ PUSH2 0x341 JUMPI POP SWAP3 DUP3 SWAP4 SWAP2 DUP4 SWAP3 PUSH1 0x0 SWAP5 PUSH2 0x336 JUMPI JUMPDEST POP POP SHL SWAP2 PUSH1 0x0 NOT SWAP1 PUSH1 0x3 SHL SHR NOT AND OR SWAP1 SSTORE JUMPDEST TIMESTAMP PUSH1 0xA SWAP2 SWAP1 SWAP2 ADD SSTORE DUP1 SLOAD PUSH1 0xFF NOT AND PUSH1 0x4 OR SWAP1 SSTORE STOP JUMPDEST ADD MLOAD SWAP3 POP DUP8 DUP1 PUSH2 0x30F JUMP JUMPDEST SWAP2 SWAP1 DUP4 PUSH1 0x1F NOT DUP2 AND DUP8 PUSH1 0x0 MSTORE DUP5 PUSH1 0x0 KECCAK256 SWAP5 PUSH1 0x0 SWAP1 JUMPDEST DUP9 DUP4 DUP4 LT PUSH2 0x38D JUMPI POP POP POP LT PUSH2 0x374 JUMPI JUMPDEST POP POP POP DUP2 SHL ADD SWAP1 SSTORE PUSH2 0x321 JUMP JUMPDEST ADD MLOAD PUSH1 0x0 NOT PUSH1 0xF8 DUP5 PUSH1 0x3 SHL AND SHR NOT AND SWAP1 SSTORE DUP6 DUP1 DUP1 PUSH2 0x367 JUMP JUMPDEST DUP6 DUP8 ADD MLOAD DUP9 SSTORE SWAP1 SWAP7 ADD SWAP6 SWAP5 DUP6 ADD SWAP5 DUP8 SWAP4 POP SWAP1 DUP2 ADD SWAP1 PUSH2 0x356 JUMP JUMPDEST DUP6 PUSH1 0x0 MSTORE DUP3 PUSH1 0x0 KECCAK256 PUSH1 0x1F DUP6 ADD PUSH1 0x5 SHR DUP2 ADD SWAP2 DUP5 DUP7 LT PUSH2 0x3E6 JUMPI JUMPDEST PUSH1 0x1F ADD PUSH1 0x5 SHR ADD SWAP1 DUP6 SWAP1 JUMPDEST DUP3 DUP2 LT PUSH2 0x3DA JUMPI POP POP PUSH2 0x2F3 JUMP JUMPDEST PUSH1 0x0 DUP2 SSTORE ADD DUP6 SWAP1 PUSH2 0x3CC JUMP JUMPDEST SWAP1 SWAP2 POP DUP2 SWAP1 PUSH2 0x3C1 JUMP JUMPDEST PUSH4 0x4E487B71 PUSH1 0xE0 SHL PUSH1 0x0 MSTORE PUSH1 0x41 PUSH1 0x4 MSTORE PUSH1 0x24 PUSH1 0x0 REVERT JUMPDEST PUSH1 0x40 MLOAD PUSH3 0x461BCD PUSH1 0xE5 SHL DUP2 MSTORE PUSH1 0x4 DUP2 ADD DUP5 SWAP1 MSTORE PUSH1 0xD PUSH1 0x24 DUP3 ADD MSTORE PUSH13 0x496E76616C6964207374617465 PUSH1 0x98 SHL PUSH1 0x44 DUP3 ADD MSTORE PUSH1 0x64 SWAP1 REVERT JUMPDEST PUSH4 0x4E487B71 PUSH1 0xE0 SHL PUSH1 0x0 MSTORE PUSH1 0x21 PUSH1 0x4 MSTORE PUSH1 0x24 PUSH1 0x0 REVERT JUMPDEST CALLVALUE PUSH2 0x258 JUMPI PUSH2 0x45F CALLDATASIZE PUSH2 0x3E43 JUMP JUMPDEST DUP2 PUSH1 0x0 MSTORE PUSH1 0x20 SWAP1 PUSH1 0xB DUP3 MSTORE PUSH1 0x40 PUSH1 0x0 KECCAK256 SWAP1 PUSH1 0xFF PUSH1 0xB PUSH1 0x1 DUP1 PUSH1 0xA0 SHL SUB SWAP4 DUP5 DUP2 SLOAD AND CALLER EQ DUP1 ISZERO PUSH2 0x6B0 JUMPI JUMPDEST PUSH2 0x492 SWAP1 PUSH2 0x4970 JUMP JUMPDEST ADD SLOAD AND PUSH1 0x9 DUP2 LT ISZERO PUSH2 0x43B JUMPI PUSH1 0x7 PUSH2 0x4AA SWAP2 EQ PUSH2 0x4A0B JUMP JUMPDEST DUP4 PUSH1 0x0 MSTORE PUSH1 0x5 DUP4 MSTORE PUSH1 0x40 PUSH1 0x0 KECCAK256 PUSH1 0x1 SWAP3 DUP4 DUP3 ADD SLOAD AND PUSH2 0x4CE PUSH1 0xA DUP4 ADD SLOAD ISZERO ISZERO PUSH2 0x4A46 JUMP JUMPDEST PUSH2 0x4DF PUSH1 0xFF PUSH1 0xB DUP5 ADD SLOAD AND ISZERO PUSH2 0x49AB JUMP JUMPDEST CALLER EQ PUSH2 0x66E JUMPI PUSH1 0x3 ADD SWAP3 DUP4 SLOAD SWAP2 PUSH2 0x4F5 DUP4 PUSH2 0x3C3A JUMP JUMPDEST PUSH2 0x62D JUMPI DUP1 MLOAD SWAP3 PUSH1 0x1 PUSH1 0x1 PUSH1 0x40 SHL SUB DUP5 GT PUSH2 0x3F0 JUMPI PUSH2 0x513 SWAP1 PUSH2 0x3C3A JUMP JUMPDEST PUSH1 0x1F DUP2 GT PUSH2 0x5E4 JUMPI JUMPDEST POP DUP2 PUSH1 0x1F DUP5 GT PUSH1 0x1 EQ PUSH2 0x57E JUMPI POP SWAP3 DUP3 SWAP4 SWAP2 DUP4 SWAP3 PUSH1 0x0 SWAP5 PUSH2 0x573 JUMPI JUMPDEST POP POP SHL SWAP2 PUSH1 0x0 NOT SWAP1 PUSH1 0x3 SHL SHR NOT AND OR SWAP1 SSTORE JUMPDEST CALLER SWAP1 PUSH32 0x7878F55C48613E960719430C5332344CEFC8C552F6AFC747476FF85169F618FE PUSH1 0x0 DUP1 LOG3 STOP JUMPDEST ADD MLOAD SWAP3 POP DUP7 DUP1 PUSH2 0x538 JUMP JUMPDEST SWAP2 SWAP1 DUP4 PUSH1 0x1F NOT DUP2 AND DUP8 PUSH1 0x0 MSTORE DUP5 PUSH1 0x0 KECCAK256 SWAP5 PUSH1 0x0 SWAP1 JUMPDEST DUP9 DUP4 DUP4 LT PUSH2 0x5CA JUMPI POP POP POP LT PUSH2 0x5B1 JUMPI JUMPDEST POP POP POP DUP2 SHL ADD SWAP1 SSTORE PUSH2 0x54A JUMP JUMPDEST ADD MLOAD PUSH1 0x0 NOT PUSH1 0xF8 DUP5 PUSH1 0x3 SHL AND SHR NOT AND SWAP1 SSTORE DUP5 DUP1 DUP1 PUSH2 0x5A4 JUMP JUMPDEST DUP6 DUP8 ADD MLOAD DUP9 SSTORE SWAP1 SWAP7 ADD SWAP6 SWAP5 DUP6 ADD SWAP5 DUP8 SWAP4 POP SWAP1 DUP2 ADD SWAP1 PUSH2 0x593 JUMP JUMPDEST DUP6 PUSH1 0x0 MSTORE DUP3 PUSH1 0x0 KECCAK256 PUSH1 0x1F DUP6 ADD PUSH1 0x5 SHR DUP2 ADD SWAP2 DUP5 DUP7 LT PUSH2 0x623 JUMPI JUMPDEST PUSH1 0x1F ADD PUSH1 0x5 SHR ADD SWAP1 DUP6 SWAP1 JUMPDEST DUP3 DUP2 LT PUSH2 0x617 JUMPI POP POP PUSH2 0x51C JUMP JUMPDEST PUSH1 0x0 DUP2 SSTORE ADD DUP6 SWAP1 PUSH2 0x609 JUMP JUMPDEST SWAP1 SWAP2 POP DUP2 SWAP1 PUSH2 0x5FE JUMP JUMPDEST PUSH1 0x40 MLOAD PUSH3 0x461BCD PUSH1 0xE5 SHL DUP2 MSTORE PUSH1 0x4 DUP2 ADD DUP4 SWAP1 MSTORE PUSH1 0x19 PUSH1 0x24 DUP3 ADD MSTORE PUSH25 0x10DBDD5B9D195C88185B1C9958591E481CDD589B5A5D1D1959 PUSH1 0x3A SHL PUSH1 0x44 DUP3 ADD MSTORE PUSH1 0x64 SWAP1 REVERT JUMPDEST PUSH1 0x40 MLOAD PUSH3 0x461BCD PUSH1 0xE5 SHL DUP2 MSTORE PUSH1 0x4 DUP2 ADD DUP6 SWAP1 MSTORE PUSH1 0x1A PUSH1 0x24 DUP3 ADD MSTORE PUSH26 0x43616E6E6F7420636F756E746572206F776E2064697370757465 PUSH1 0x30 SHL PUSH1 0x44 DUP3 ADD MSTORE PUSH1 0x64 SWAP1 REVERT JUMPDEST POP PUSH1 0x1 DUP2 ADD SLOAD DUP6 AND CALLER EQ PUSH2 0x489 JUMP JUMPDEST CALLVALUE PUSH2 0x258 JUMPI PUSH1 0xA0 CALLDATASIZE PUSH1 0x3 NOT ADD SLT PUSH2 0x258 JUMPI PUSH1 0x4 CALLDATALOAD PUSH1 0x1 PUSH1 0x1 PUSH1 0x40 SHL SUB DUP2 GT PUSH2 0x258 JUMPI PUSH2 0x6EF SWAP1 CALLDATASIZE SWAP1 PUSH1 0x4 ADD PUSH2 0x3DFC JUMP JUMPDEST PUSH1 0x44 CALLDATALOAD SWAP1 PUSH1 0x64 CALLDATALOAD CALLER PUSH1 0x0 MSTORE PUSH1 0x4 PUSH1 0x20 MSTORE PUSH1 0xFF PUSH1 0x40 PUSH1 0x0 KECCAK256 SLOAD AND PUSH1 0x3 DUP2 LT ISZERO PUSH2 0x43B JUMPI PUSH1 0x1 PUSH2 0x71D SWAP2 EQ PUSH2 0x3F67 JUMP JUMPDEST DUP1 DUP4 LT ISZERO PUSH2 0xAAE JUMPI PUSH1 0x40 MLOAD SWAP3 PUSH2 0x180 DUP5 ADD PUSH1 0x1 PUSH1 0x1 PUSH1 0x40 SHL SUB DUP2 GT DUP6 DUP3 LT OR PUSH2 0x3F0 JUMPI PUSH1 0x40 MSTORE CALLER DUP5 MSTORE PUSH1 0x0 PUSH1 0x20 DUP6 ADD MSTORE PUSH1 0x24 CALLDATALOAD PUSH1 0x40 DUP6 ADD MSTORE PUSH1 0x60 DUP5 ADD MSTORE PUSH1 0x80 DUP4 ADD MSTORE PUSH1 0x84 CALLDATALOAD PUSH1 0xA0 DUP4 ADD MSTORE PUSH1 0xC0 DUP3 ADD MSTORE PUSH1 0x40 MLOAD PUSH1 0x20 DUP2 ADD DUP2 DUP2 LT PUSH1 0x1 DUP1 PUSH1 0x40 SHL SUB DUP3 GT OR PUSH2 0x3F0 JUMPI PUSH1 0x40 MSTORE PUSH1 0x0 DUP2 MSTORE PUSH1 0xE0 DUP3 ADD MSTORE PUSH1 0x0 PUSH2 0x100 DUP3 ADD MSTORE PUSH1 0x0 PUSH2 0x120 DUP3 ADD MSTORE PUSH1 0x0 PUSH2 0x140 DUP3 ADD MSTORE PUSH1 0x0 PUSH2 0x160 DUP3 ADD MSTORE PUSH1 0xA SLOAD PUSH1 0x0 MSTORE PUSH1 0xB PUSH1 0x20 MSTORE PUSH1 0x40 PUSH1 0x0 KECCAK256 SWAP1 PUSH1 0x1 DUP1 PUSH1 0xA0 SHL SUB DUP1 DUP3 MLOAD AND PUSH1 0x1 DUP1 PUSH1 0xA0 SHL SUB NOT SWAP1 DUP2 DUP6 SLOAD AND OR DUP5 SSTORE PUSH1 0x1 DUP5 ADD SWAP2 PUSH1 0x20 DUP5 ADD MLOAD AND SWAP1 DUP3 SLOAD AND OR SWAP1 SSTORE PUSH1 0x40 DUP2 ADD MLOAD PUSH1 0x2 DUP4 ADD SSTORE PUSH1 0x60 DUP2 ADD MLOAD PUSH1 0x3 DUP4 ADD SSTORE PUSH1 0x80 DUP2 ADD MLOAD PUSH1 0x4 DUP4 ADD SSTORE PUSH1 0xA0 DUP2 ADD MLOAD PUSH1 0x5 DUP4 ADD SSTORE PUSH1 0xC0 DUP2 ADD MLOAD SWAP2 DUP3 MLOAD PUSH1 0x1 DUP1 PUSH1 0x40 SHL SUB DUP2 GT PUSH2 0x3F0 JUMPI PUSH2 0x838 PUSH1 0x6 DUP4 ADD SLOAD PUSH2 0x3C3A JUMP JUMPDEST PUSH1 0x1F DUP2 GT PUSH2 0xA67 JUMPI JUMPDEST POP PUSH1 0x20 PUSH1 0x1F DUP3 GT PUSH1 0x1 EQ PUSH2 0x9F9 JUMPI DUP2 SWAP3 SWAP4 SWAP5 PUSH1 0x0 SWAP3 PUSH2 0x9EE JUMPI JUMPDEST POP POP DUP2 PUSH1 0x1 SHL SWAP2 PUSH1 0x0 NOT SWAP1 PUSH1 0x3 SHL SHR NOT AND OR PUSH1 0x6 DUP3 ADD SSTORE JUMPDEST PUSH1 0xE0 DUP3 ADD MLOAD DUP1 MLOAD SWAP1 PUSH1 0x1 PUSH1 0x1 PUSH1 0x40 SHL SUB DUP3 GT PUSH2 0x3F0 JUMPI PUSH2 0x896 PUSH1 0x7 DUP5 ADD SLOAD PUSH2 0x3C3A JUMP JUMPDEST PUSH1 0x1F DUP2 GT PUSH2 0x9A3 JUMPI JUMPDEST POP PUSH1 0x20 SWAP1 PUSH1 0x1F DUP4 GT PUSH1 0x1 EQ PUSH2 0x92D JUMPI SWAP2 DUP1 PUSH2 0x160 SWAP5 SWAP3 PUSH1 0xB SWAP5 PUSH1 0x0 SWAP3 PUSH2 0x922 JUMPI JUMPDEST POP POP DUP2 PUSH1 0x1 SHL SWAP2 PUSH1 0x0 NOT SWAP1 PUSH1 0x3 SHL SHR NOT AND OR PUSH1 0x7 DUP3 ADD SSTORE JUMPDEST PUSH2 0x100 DUP5 ADD MLOAD PUSH1 0x8 DUP3 ADD SSTORE PUSH2 0x120 DUP5 ADD MLOAD PUSH1 0x9 DUP3 ADD SSTORE PUSH2 0x140 DUP5 ADD MLOAD PUSH1 0xA DUP3 ADD SSTORE ADD SWAP2 ADD MLOAD PUSH1 0x9 DUP2 LT ISZERO PUSH2 0x43B JUMPI PUSH1 0xFF DUP1 NOT DUP4 SLOAD AND SWAP2 AND OR SWAP1 SSTORE PUSH2 0x91D PUSH1 0xA SLOAD PUSH2 0x3F12 JUMP JUMPDEST PUSH1 0xA SSTORE STOP JUMPDEST ADD MLOAD SWAP1 POP DUP7 DUP1 PUSH2 0x8C0 JUMP JUMPDEST SWAP1 PUSH1 0x7 DUP5 ADD PUSH1 0x0 MSTORE PUSH1 0x20 PUSH1 0x0 KECCAK256 SWAP2 PUSH1 0x0 JUMPDEST PUSH1 0x1F NOT DUP6 AND DUP2 LT PUSH2 0x98B JUMPI POP SWAP3 PUSH2 0x160 SWAP5 SWAP3 PUSH1 0x1 SWAP3 PUSH1 0xB SWAP6 DUP4 PUSH1 0x1F NOT DUP2 AND LT PUSH2 0x972 JUMPI JUMPDEST POP POP POP DUP2 SHL ADD PUSH1 0x7 DUP3 ADD SSTORE PUSH2 0x8D8 JUMP JUMPDEST ADD MLOAD PUSH1 0x0 NOT PUSH1 0xF8 DUP5 PUSH1 0x3 SHL AND SHR NOT AND SWAP1 SSTORE DUP7 DUP1 DUP1 PUSH2 0x962 JUMP JUMPDEST SWAP2 SWAP3 PUSH1 0x20 PUSH1 0x1 DUP2 SWAP3 DUP7 DUP6 ADD MLOAD DUP2 SSTORE ADD SWAP5 ADD SWAP3 ADD PUSH2 0x93E JUMP JUMPDEST PUSH1 0x7 DUP5 ADD PUSH1 0x0 MSTORE PUSH1 0x20 PUSH1 0x0 KECCAK256 PUSH1 0x1F DUP5 ADD PUSH1 0x5 SHR DUP2 ADD SWAP2 PUSH1 0x20 DUP6 LT PUSH2 0x9E4 JUMPI JUMPDEST PUSH1 0x1F ADD PUSH1 0x5 SHR ADD SWAP1 JUMPDEST DUP2 DUP2 LT PUSH2 0x9D8 JUMPI POP PUSH2 0x89F JUMP JUMPDEST PUSH1 0x0 DUP2 SSTORE PUSH1 0x1 ADD PUSH2 0x9CB JUMP JUMPDEST SWAP1 SWAP2 POP DUP2 SWAP1 PUSH2 0x9C2 JUMP JUMPDEST ADD MLOAD SWAP1 POP DUP5 DUP1 PUSH2 0x85B JUMP JUMPDEST PUSH1 0x6 DUP4 ADD PUSH1 0x0 MSTORE PUSH1 0x20 PUSH1 0x0 KECCAK256 SWAP1 PUSH1 0x0 JUMPDEST PUSH1 0x1F NOT DUP5 AND DUP2 LT PUSH2 0xA4F JUMPI POP PUSH1 0x1 SWAP4 SWAP5 SWAP6 DUP4 PUSH1 0x1F NOT DUP2 AND LT PUSH2 0xA36 JUMPI JUMPDEST POP POP POP DUP2 SHL ADD PUSH1 0x6 DUP3 ADD SSTORE PUSH2 0x873 JUMP JUMPDEST ADD MLOAD PUSH1 0x0 NOT PUSH1 0xF8 DUP5 PUSH1 0x3 SHL AND SHR NOT AND SWAP1 SSTORE DUP5 DUP1 DUP1 PUSH2 0xA26 JUMP JUMPDEST SWAP1 SWAP2 PUSH1 0x20 PUSH1 0x1 DUP2 SWAP3 DUP6 DUP11 ADD MLOAD DUP2 SSTORE ADD SWAP4 ADD SWAP2 ADD PUSH2 0xA09 JUMP JUMPDEST PUSH1 0x6 DUP4 ADD PUSH1 0x0 MSTORE PUSH1 0x20 PUSH1 0x0 KECCAK256 PUSH1 0x1F DUP4 ADD PUSH1 0x5 SHR DUP2 ADD PUSH1 0x20 DUP5 LT PUSH2 0xAA7 JUMPI JUMPDEST PUSH1 0x1F DUP4 ADD PUSH1 0x5 SHR DUP3 ADD DUP2 LT PUSH2 0xA9B JUMPI POP POP PUSH2 0x841 JUMP JUMPDEST PUSH1 0x0 DUP2 SSTORE PUSH1 0x1 ADD PUSH2 0xA85 JUMP JUMPDEST POP DUP1 PUSH2 0xA85 JUMP JUMPDEST PUSH1 0x40 MLOAD PUSH3 0x461BCD PUSH1 0xE5 SHL DUP2 MSTORE PUSH1 0x20 PUSH1 0x4 DUP3 ADD MSTORE PUSH1 0x12 PUSH1 0x24 DUP3 ADD MSTORE PUSH18 0x496E76616C69642074696D652072616E6765 PUSH1 0x70 SHL PUSH1 0x44 DUP3 ADD MSTORE PUSH1 0x64 SWAP1 REVERT JUMPDEST CALLVALUE PUSH2 0x258 JUMPI PUSH1 0x20 DUP1 PUSH1 0x3 NOT CALLDATASIZE ADD SLT PUSH2 0x258 JUMPI PUSH1 0x4 CALLDATALOAD DUP1 PUSH1 0x0 MSTORE PUSH1 0xB DUP3 MSTORE PUSH1 0x40 PUSH1 0x0 KECCAK256 SWAP1 PUSH1 0xB DUP3 ADD SWAP3 DUP4 SLOAD PUSH1 0xFF DUP2 AND PUSH1 0x9 DUP2 LT ISZERO PUSH2 0x43B JUMPI PUSH1 0x2 PUSH2 0xB2B SWAP2 EQ PUSH2 0x3FD9 JUMP JUMPDEST PUSH2 0xB48 PUSH2 0xB41 PUSH1 0x3 DUP7 ADD SLOAD PUSH1 0x5 DUP8 ADD SLOAD SWAP1 PUSH2 0x4014 JUMP JUMPDEST TIMESTAMP GT PUSH2 0x4021 JUMP JUMPDEST PUSH1 0x1 PUSH1 0xFF NOT SWAP2 DUP3 AND DUP2 OR SWAP1 SWAP6 SSTORE DUP4 DUP6 ADD DUP1 SLOAD PUSH1 0x1 PUSH1 0x1 PUSH1 0xA0 SHL SUB NOT DUP2 AND SWAP1 SWAP2 SSTORE PUSH1 0x0 PUSH1 0x9 SWAP1 SWAP6 ADD SWAP5 SWAP1 SWAP5 SSTORE PUSH1 0x40 MLOAD PUSH1 0x1 PUSH1 0x1 PUSH1 0xA0 SHL SUB SWAP1 SWAP5 AND SWAP4 DUP5 SWAP1 PUSH2 0xB8D DUP2 PUSH2 0x3CC5 JUMP JUMPDEST PUSH1 0x1B DUP2 MSTORE PUSH27 0x1DDBDC9AD95C97D858D8D95C1D195917DB9BDD17DCDD185C9D1959 PUSH1 0x2A SHL DUP5 DUP3 ADD MSTORE PUSH1 0x0 DUP3 DUP2 MSTORE DUP1 DUP6 MSTORE PUSH1 0x40 SWAP1 KECCAK256 SLOAD PUSH1 0xFF AND PUSH1 0x5 DUP2 GT PUSH2 0xE0D JUMPI SWAP1 PUSH1 0x0 DUP1 MLOAD PUSH1 0x20 PUSH2 0x4E39 DUP4 CODECOPY DUP2 MLOAD SWAP2 MSTORE SWAP2 PUSH2 0xC08 PUSH1 0x0 SWAP3 JUMPDEST DUP6 PUSH1 0x0 MSTORE PUSH1 0x0 DUP9 MSTORE PUSH1 0x40 PUSH1 0x0 KECCAK256 PUSH1 0xFF DUP6 AND DUP9 DUP3 SLOAD AND OR SWAP1 SSTORE PUSH1 0x40 MLOAD SWAP4 DUP5 SWAP4 DUP5 PUSH2 0x4B78 JUMP JUMPDEST SUB SWAP1 LOG2 PUSH2 0xC13 PUSH2 0x4059 JUMP JUMPDEST SWAP1 DUP5 PUSH1 0x0 MSTORE PUSH1 0x8 DUP4 MSTORE PUSH1 0x40 PUSH1 0x0 KECCAK256 PUSH1 0x40 MLOAD SWAP1 PUSH2 0xC2E DUP3 PUSH2 0x3C74 JUMP JUMPDEST PUSH1 0x0 DUP3 MSTORE DUP5 DUP3 ADD DUP7 DUP2 MSTORE PUSH1 0x40 DUP4 ADD SWAP2 TIMESTAMP DUP4 MSTORE PUSH1 0x60 DUP5 ADD SWAP6 DUP7 MSTORE DUP1 SLOAD PUSH1 0x1 PUSH1 0x40 SHL DUP2 LT ISZERO PUSH2 0x3F0 JUMPI PUSH2 0xC63 SWAP2 DUP12 DUP3 ADD DUP2 SSTORE PUSH2 0x3F21 JUMP JUMPDEST SWAP4 SWAP1 SWAP4 PUSH2 0xDF7 JUMPI MLOAD PUSH1 0xD DUP2 LT ISZERO PUSH2 0x43B JUMPI PUSH1 0xFF PUSH1 0x3 SWAP6 DUP6 SLOAD AND SWAP2 AND OR DUP4 SSTORE MLOAD DUP9 DUP4 ADD SSTORE MLOAD PUSH1 0x2 DUP3 ADD SSTORE ADD SWAP1 MLOAD DUP1 MLOAD SWAP1 PUSH1 0x1 DUP1 PUSH1 0x40 SHL SUB DUP3 GT PUSH2 0x3F0 JUMPI DUP2 SWAP1 PUSH2 0xCAB DUP5 SLOAD PUSH2 0x3C3A JUMP JUMPDEST PUSH1 0x1F DUP2 GT PUSH2 0xDA4 JUMPI JUMPDEST POP DUP5 SWAP1 PUSH1 0x1F DUP4 GT PUSH1 0x1 EQ PUSH2 0xD41 JUMPI PUSH1 0x0 SWAP3 PUSH2 0xD36 JUMPI JUMPDEST POP POP PUSH1 0x0 NOT PUSH1 0x3 DUP4 SWAP1 SHL SHR NOT AND SWAP1 DUP7 SHL OR SWAP1 SSTORE JUMPDEST DUP3 PUSH1 0x0 MSTORE PUSH1 0x9 DUP2 MSTORE PUSH1 0x40 PUSH1 0x0 KECCAK256 PUSH1 0x0 DUP1 MSTORE DUP2 MSTORE PUSH1 0x40 PUSH1 0x0 KECCAK256 SWAP2 DUP3 SLOAD SWAP5 DUP6 ADD DUP1 SWAP6 GT PUSH2 0xD20 JUMPI PUSH1 0x0 SWAP5 PUSH1 0x0 DUP1 MLOAD PUSH1 0x20 PUSH2 0x4E19 DUP4 CODECOPY DUP2 MLOAD SWAP2 MSTORE SWAP4 SSTORE PUSH1 0x40 MLOAD SWAP1 DUP2 MSTORE LOG3 STOP JUMPDEST PUSH4 0x4E487B71 PUSH1 0xE0 SHL PUSH1 0x0 MSTORE PUSH1 0x11 PUSH1 0x4 MSTORE PUSH1 0x24 PUSH1 0x0 REVERT JUMPDEST ADD MLOAD SWAP1 POP DUP8 DUP1 PUSH2 0xCCA JUMP JUMPDEST SWAP1 DUP9 SWAP4 POP PUSH1 0x1F NOT DUP4 AND SWAP2 DUP6 PUSH1 0x0 MSTORE DUP7 PUSH1 0x0 KECCAK256 SWAP3 PUSH1 0x0 JUMPDEST DUP9 DUP3 DUP3 LT PUSH2 0xD8E JUMPI POP POP DUP5 GT PUSH2 0xD75 JUMPI JUMPDEST POP POP POP DUP2 SHL ADD SWAP1 SSTORE PUSH2 0xCDE JUMP JUMPDEST ADD MLOAD PUSH1 0x0 NOT PUSH1 0xF8 DUP5 PUSH1 0x3 SHL AND SHR NOT AND SWAP1 SSTORE DUP8 DUP1 DUP1 PUSH2 0xD68 JUMP JUMPDEST DUP4 DUP6 ADD MLOAD DUP7 SSTORE DUP13 SWAP8 SWAP1 SWAP6 ADD SWAP5 SWAP4 DUP5 ADD SWAP4 ADD PUSH2 0xD57 JUMP JUMPDEST SWAP1 SWAP2 POP DUP4 PUSH1 0x0 MSTORE DUP5 PUSH1 0x0 KECCAK256 PUSH1 0x1F DUP5 ADD PUSH1 0x5 SHR DUP2 ADD SWAP2 DUP7 DUP6 LT PUSH2 0xDED JUMPI JUMPDEST DUP5 SWAP4 SWAP3 SWAP2 PUSH1 0x1F DUP12 SWAP3 ADD PUSH1 0x5 SHR ADD SWAP2 JUMPDEST DUP3 DUP2 LT PUSH2 0xDDE JUMPI POP POP PUSH2 0xCB4 JUMP JUMPDEST PUSH1 0x0 DUP2 SSTORE DUP6 SWAP5 POP DUP11 SWAP2 ADD PUSH2 0xDD0 JUMP JUMPDEST SWAP1 SWAP2 POP DUP2 SWAP1 PUSH2 0xDC1 JUMP JUMPDEST PUSH4 0x4E487B71 PUSH1 0xE0 SHL PUSH1 0x0 MSTORE PUSH1 0x0 PUSH1 0x4 MSTORE PUSH1 0x24 PUSH1 0x0 REVERT JUMPDEST SWAP2 POP PUSH1 0x4 NOT DUP3 ADD SWAP1 PUSH1 0xFF DUP3 GT PUSH2 0xD20 JUMPI DUP7 SWAP3 PUSH2 0xC08 PUSH1 0x0 DUP1 MLOAD PUSH1 0x20 PUSH2 0x4E39 DUP4 CODECOPY DUP2 MLOAD SWAP2 MSTORE SWAP4 SWAP3 PUSH2 0xBE4 JUMP JUMPDEST CALLVALUE PUSH2 0x258 JUMPI PUSH1 0x20 DUP1 PUSH1 0x3 NOT CALLDATASIZE ADD SLT PUSH2 0x258 JUMPI PUSH1 0x4 CALLDATALOAD SWAP1 DUP2 PUSH1 0x0 MSTORE PUSH1 0xB DUP2 MSTORE PUSH1 0x40 PUSH1 0x0 KECCAK256 PUSH1 0xB DUP2 ADD SWAP1 DUP2 SLOAD SWAP3 PUSH1 0xFF DUP5 AND PUSH1 0x9 DUP2 LT ISZERO PUSH2 0x43B JUMPI PUSH1 0x4 PUSH2 0xE7C SWAP2 EQ PUSH2 0x40E5 JUMP JUMPDEST PUSH1 0xA DUP3 ADD SLOAD PUSH1 0x78 DUP2 ADD DUP1 SWAP2 GT PUSH2 0xD20 JUMPI PUSH2 0xE98 SWAP1 TIMESTAMP LT ISZERO PUSH2 0x4021 JUMP JUMPDEST PUSH1 0x5 PUSH1 0xFF NOT SWAP5 DUP6 AND DUP2 OR SWAP1 SWAP4 SSTORE DUP2 SLOAD PUSH1 0x40 MLOAD PUSH1 0x1 PUSH1 0x1 PUSH1 0xA0 SHL SUB SWAP4 SWAP2 DUP5 AND SWAP1 PUSH2 0xEC0 DUP2 PUSH2 0x3CC5 JUMP JUMPDEST PUSH1 0x19 DUP2 MSTORE PUSH25 0x31B634B2B73A2FB4B3B737B932B22FB9BAB136B4B9B9B4B7B7 PUSH1 0x39 SHL DUP5 DUP3 ADD MSTORE PUSH1 0x0 DUP3 DUP2 MSTORE DUP1 DUP6 MSTORE PUSH1 0x40 SWAP1 KECCAK256 SLOAD PUSH1 0xFF AND SWAP1 PUSH1 0x8 DUP3 GT PUSH2 0x11AF JUMPI PUSH1 0x0 DUP1 MLOAD PUSH1 0x20 PUSH2 0x4E39 DUP4 CODECOPY DUP2 MLOAD SWAP2 MSTORE SWAP2 PUSH2 0xF39 PUSH1 0x0 SWAP3 JUMPDEST DUP6 PUSH1 0x0 MSTORE PUSH1 0x0 DUP9 MSTORE PUSH1 0x40 PUSH1 0x0 KECCAK256 PUSH1 0xFF DUP6 AND DUP13 DUP3 SLOAD AND OR SWAP1 SSTORE PUSH1 0x40 MLOAD SWAP4 DUP5 SWAP4 DUP5 PUSH2 0x4B78 JUMP JUMPDEST SUB SWAP1 LOG2 DUP3 DUP2 SLOAD AND SWAP3 PUSH1 0x40 MLOAD PUSH2 0xF4D DUP2 PUSH2 0x3CAA JUMP JUMPDEST PUSH1 0x26 DUP2 MSTORE PUSH32 0x446964206E6F7420726573706F6E6420616674657220776F726B657220737562 DUP5 DUP3 ADD MSTORE PUSH6 0x1B5A5D1D1959 PUSH1 0xD2 SHL PUSH1 0x40 DUP3 ADD MSTORE DUP5 PUSH1 0x0 MSTORE PUSH1 0x8 DUP5 MSTORE PUSH1 0x40 PUSH1 0x0 KECCAK256 SWAP7 PUSH1 0x40 MLOAD PUSH2 0xF9F DUP2 PUSH2 0x3C74 JUMP JUMPDEST DUP8 DUP2 MSTORE DUP6 DUP2 ADD DUP11 DUP2 MSTORE PUSH1 0x40 DUP3 ADD SWAP1 TIMESTAMP DUP3 MSTORE PUSH1 0x60 DUP4 ADD SWAP5 DUP6 MSTORE DUP11 SLOAD PUSH1 0x1 PUSH1 0x40 SHL DUP2 LT ISZERO PUSH2 0x3F0 JUMPI PUSH2 0xFD6 SWAP1 PUSH1 0x1 SWAP13 DUP14 DUP3 ADD DUP2 SSTORE PUSH2 0x3F21 JUMP JUMPDEST SWAP4 SWAP1 SWAP4 PUSH2 0xDF7 JUMPI MLOAD PUSH1 0xD DUP2 LT ISZERO PUSH2 0x43B JUMPI PUSH1 0xFF PUSH1 0x3 SWAP6 DUP6 SLOAD AND SWAP2 AND OR DUP4 SSTORE MLOAD DUP11 DUP4 ADD SSTORE MLOAD PUSH1 0x2 DUP3 ADD SSTORE ADD SWAP1 MLOAD DUP1 MLOAD SWAP1 PUSH1 0x1 DUP1 PUSH1 0x40 SHL SUB DUP3 GT PUSH2 0x3F0 JUMPI DUP2 SWAP1 PUSH2 0x101E DUP5 SLOAD PUSH2 0x3C3A JUMP JUMPDEST PUSH1 0x1F DUP2 GT PUSH2 0x115E JUMPI JUMPDEST POP DUP7 SWAP1 PUSH1 0x1F DUP4 GT PUSH1 0x1 EQ PUSH2 0x10FB JUMPI PUSH1 0x0 SWAP3 PUSH2 0x10F0 JUMPI JUMPDEST POP POP PUSH1 0x0 NOT PUSH1 0x3 DUP4 SWAP1 SHL SHR NOT AND SWAP1 DUP9 SHL OR SWAP1 SSTORE JUMPDEST DUP4 PUSH1 0x0 MSTORE PUSH1 0x9 DUP4 MSTORE PUSH1 0x40 PUSH1 0x0 KECCAK256 DUP6 PUSH1 0x0 MSTORE DUP4 MSTORE PUSH1 0x40 PUSH1 0x0 KECCAK256 SWAP1 DUP2 SLOAD SWAP4 DUP8 DUP6 ADD DUP1 SWAP6 GT PUSH2 0xD20 JUMPI PUSH2 0x10D8 PUSH1 0x0 SWAP9 DUP10 SWAP9 DUP10 SWAP9 PUSH1 0x0 DUP1 MLOAD PUSH1 0x20 PUSH2 0x4E19 DUP4 CODECOPY DUP2 MLOAD SWAP2 MSTORE DUP6 PUSH2 0x10EE SWAP15 DUP13 SWAP12 PUSH1 0x2 SWAP11 SSTORE PUSH1 0x40 MLOAD SWAP1 DUP2 MSTORE LOG3 DUP6 ADD SWAP2 DUP4 DUP4 SLOAD AND PUSH18 0x6A6F625F636F6D706C657465645F6175746F PUSH1 0x70 SHL PUSH1 0x40 MLOAD SWAP3 PUSH2 0x10CC DUP5 PUSH2 0x3CC5 JUMP JUMPDEST PUSH1 0x12 DUP5 MSTORE DUP4 ADD MSTORE PUSH2 0x4C62 JUMP JUMPDEST SLOAD AND SWAP2 ADD SLOAD SWAP1 GAS CALL PUSH2 0x10E8 PUSH2 0x414A JUMP JUMPDEST POP PUSH2 0x417A JUMP JUMPDEST STOP JUMPDEST ADD MLOAD SWAP1 POP DUP11 DUP1 PUSH2 0x103D JUMP JUMPDEST SWAP1 DUP11 SWAP4 POP PUSH1 0x1F NOT DUP4 AND SWAP2 DUP6 PUSH1 0x0 MSTORE DUP9 PUSH1 0x0 KECCAK256 SWAP3 PUSH1 0x0 JUMPDEST DUP11 DUP3 DUP3 LT PUSH2 0x1148 JUMPI POP POP DUP5 GT PUSH2 0x112F JUMPI JUMPDEST POP POP POP DUP2 SHL ADD SWAP1 SSTORE PUSH2 0x1051 JUMP JUMPDEST ADD MLOAD PUSH1 0x0 NOT PUSH1 0xF8 DUP5 PUSH1 0x3 SHL AND SHR NOT AND SWAP1 SSTORE DUP11 DUP1 DUP1 PUSH2 0x1122 JUMP JUMPDEST DUP4 DUP6 ADD MLOAD DUP7 SSTORE DUP15 SWAP8 SWAP1 SWAP6 ADD SWAP5 SWAP4 DUP5 ADD SWAP4 ADD PUSH2 0x1111 JUMP JUMPDEST SWAP1 SWAP2 POP DUP4 PUSH1 0x0 MSTORE DUP7 PUSH1 0x0 KECCAK256 PUSH1 0x1F DUP5 ADD DUP11 SHR DUP2 ADD SWAP2 DUP9 DUP6 LT PUSH2 0x11A5 JUMPI JUMPDEST DUP5 SWAP4 SWAP3 SWAP2 PUSH1 0x1F DUP14 SWAP3 ADD DUP13 SHR ADD SWAP2 JUMPDEST DUP3 DUP2 LT PUSH2 0x1196 JUMPI POP POP PUSH2 0x1027 JUMP JUMPDEST PUSH1 0x0 DUP2 SSTORE DUP6 SWAP5 POP DUP13 SWAP2 ADD PUSH2 0x1188 JUMP JUMPDEST SWAP1 SWAP2 POP DUP2 SWAP1 PUSH2 0x117A JUMP JUMPDEST PUSH1 0x7 NOT DUP3 ADD SWAP2 PUSH1 0xFF DUP4 GT PUSH2 0xD20 JUMPI PUSH2 0xF39 PUSH1 0x0 DUP1 MLOAD PUSH1 0x20 PUSH2 0x4E39 DUP4 CODECOPY DUP2 MLOAD SWAP2 MSTORE SWAP4 SWAP3 PUSH2 0xF15 JUMP JUMPDEST CALLVALUE PUSH2 0x258 JUMPI PUSH1 0x20 CALLDATASIZE PUSH1 0x3 NOT ADD SLT PUSH2 0x258 JUMPI PUSH1 0x4 CALLDATALOAD PUSH1 0x0 MSTORE PUSH1 0xB PUSH1 0x20 MSTORE PUSH1 0x40 PUSH1 0x0 KECCAK256 PUSH1 0xB DUP2 ADD PUSH1 0xFF DUP2 SLOAD AND PUSH1 0x9 DUP2 LT ISZERO PUSH2 0x43B JUMPI PUSH1 0x7 PUSH2 0x1215 SWAP2 EQ PUSH2 0x4A0B JUMP JUMPDEST PUSH1 0x4 CALLDATALOAD PUSH1 0x0 MSTORE PUSH1 0x5 PUSH1 0x20 MSTORE PUSH1 0x40 PUSH1 0x0 KECCAK256 PUSH1 0xA DUP2 ADD SLOAD SWAP3 PUSH2 0x1236 DUP5 ISZERO ISZERO PUSH2 0x4A46 JUMP JUMPDEST PUSH1 0xB DUP3 ADD SLOAD SWAP4 PUSH2 0x1249 PUSH1 0xFF DUP7 AND ISZERO PUSH2 0x49AB JUMP JUMPDEST TIMESTAMP LT DUP1 ISZERO SWAP1 PUSH2 0x1A41 JUMPI JUMPDEST ISZERO PUSH2 0x1A09 JUMPI PUSH1 0x1 PUSH1 0x9 DUP4 ADD SLOAD SWAP5 PUSH2 0xFF00 PUSH1 0xFF DUP8 PUSH1 0x10 SHR AND PUSH1 0xFF DUP9 PUSH1 0x8 SHR AND GT PUSH1 0x8 SHL AND SWAP1 PUSH2 0xFFFF NOT AND OR OR PUSH1 0xB DUP4 ADD SSTORE PUSH1 0x40 MLOAD PUSH1 0xFF DUP6 PUSH1 0x10 SHR AND PUSH1 0xFF DUP7 PUSH1 0x8 SHR AND GT DUP2 MSTORE PUSH32 0x5A87909BFF68CAAAAF0B3FD9C74EECCC928832F879315E5C6FB7A73612F26C0C PUSH1 0x20 PUSH1 0x4 CALLDATALOAD SWAP3 LOG2 PUSH1 0x0 JUMPDEST PUSH1 0xFF PUSH1 0x9 DUP5 ADD SLOAD AND PUSH1 0xFF DUP3 AND LT ISZERO PUSH2 0x1530 JUMPI PUSH2 0x12E1 DUP2 PUSH1 0x4 DUP6 ADD PUSH2 0x49FB JUMP JUMPDEST SWAP2 SWAP1 SLOAD SWAP2 PUSH1 0x4 CALLDATALOAD PUSH1 0x0 MSTORE PUSH1 0x6 PUSH1 0x20 MSTORE PUSH1 0x40 PUSH1 0x0 KECCAK256 SWAP3 PUSH1 0x3 SWAP4 PUSH1 0x1 DUP1 PUSH1 0xA0 SHL SUB DUP3 DUP5 DUP8 SHL SHR AND PUSH1 0x0 MSTORE PUSH1 0x20 MSTORE PUSH1 0xFF PUSH1 0x40 PUSH1 0x0 KECCAK256 SLOAD AND ISZERO PUSH2 0x1524 JUMPI PUSH1 0x4 CALLDATALOAD PUSH1 0x0 MSTORE PUSH1 0x7 PUSH1 0x20 MSTORE PUSH1 0x40 PUSH1 0x0 KECCAK256 PUSH1 0x1 DUP1 PUSH1 0xA0 SHL SUB DUP3 DUP5 DUP8 SHL SHR AND PUSH1 0x0 MSTORE PUSH1 0x20 MSTORE PUSH1 0xFF DUP9 PUSH1 0x10 SHR AND PUSH1 0xFF DUP10 PUSH1 0x8 SHR AND GT PUSH1 0xFF PUSH1 0x40 PUSH1 0x0 KECCAK256 SLOAD AND ISZERO ISZERO EQ PUSH1 0x0 EQ PUSH2 0x1458 JUMPI PUSH1 0x40 MLOAD SWAP2 PUSH2 0x136C DUP4 PUSH2 0x3CC5 JUMP JUMPDEST PUSH1 0xF DUP4 MSTORE PUSH15 0x766F7465645F636F72726563746C79 PUSH1 0x88 SHL PUSH1 0x20 DUP5 ADD MSTORE PUSH1 0x1 DUP1 PUSH1 0xA0 SHL SUB DUP3 DUP3 DUP8 SHL SHR AND PUSH1 0x0 MSTORE PUSH1 0x0 PUSH1 0x20 MSTORE PUSH1 0xFF PUSH1 0x40 PUSH1 0x0 KECCAK256 SLOAD AND SWAP3 PUSH2 0xFFFF DUP7 DUP6 ADD GT PUSH2 0xD20 JUMPI PUSH1 0x64 DUP1 PUSH2 0xFFFF DUP9 DUP8 ADD AND GT PUSH1 0x0 EQ PUSH2 0x142B JUMPI PUSH1 0x0 DUP1 MLOAD PUSH1 0x20 PUSH2 0x4E39 DUP4 CODECOPY DUP2 MLOAD SWAP2 MSTORE SWAP4 SWAP3 SWAP2 PUSH2 0x1426 SWAP8 PUSH2 0x141D SWAP3 SWAP1 JUMPDEST SWAP4 SWAP1 SWAP4 SHL SWAP4 SWAP1 SWAP4 SHR PUSH1 0x1 PUSH1 0x1 PUSH1 0xA0 SHL SUB AND PUSH1 0x0 DUP2 DUP2 MSTORE PUSH1 0x20 DUP2 SWAP1 MSTORE PUSH1 0x40 SWAP1 DUP2 SWAP1 KECCAK256 DUP1 SLOAD PUSH1 0xFF NOT AND PUSH1 0xFF DUP7 AND OR SWAP1 SSTORE MLOAD SWAP1 SWAP6 SWAP1 SWAP4 DUP5 SWAP4 SWAP1 SWAP2 DUP5 PUSH2 0x4B78 JUMP JUMPDEST SUB SWAP1 LOG2 JUMPDEST PUSH2 0x49EA JUMP JUMPDEST PUSH2 0x12C2 JUMP JUMPDEST POP SWAP2 SWAP1 PUSH1 0xFF DUP7 DUP6 ADD GT PUSH2 0xD20 JUMPI PUSH2 0x141D PUSH1 0x0 DUP1 MLOAD PUSH1 0x20 PUSH2 0x4E39 DUP4 CODECOPY DUP2 MLOAD SWAP2 MSTORE SWAP4 DUP8 PUSH2 0x1426 SWAP9 DUP8 ADD SWAP1 PUSH2 0x13E0 JUMP JUMPDEST PUSH1 0x40 MLOAD SWAP2 PUSH2 0x1465 DUP4 PUSH2 0x3CC5 JUMP JUMPDEST PUSH1 0xD DUP4 MSTORE PUSH13 0x766F7465645F77726F6E676C79 PUSH1 0x98 SHL PUSH1 0x20 DUP5 ADD MSTORE PUSH1 0x1 DUP1 PUSH1 0xA0 SHL SUB DUP3 DUP3 DUP8 SHL SHR AND PUSH1 0x0 MSTORE PUSH1 0x0 PUSH1 0x20 MSTORE PUSH1 0xFF PUSH1 0x40 PUSH1 0x0 KECCAK256 SLOAD AND SWAP3 DUP4 DUP7 LT ISZERO PUSH1 0x0 EQ PUSH2 0x14F4 JUMPI SWAP5 SHL SHR PUSH1 0x1 PUSH1 0x1 PUSH1 0xA0 SHL SUB AND PUSH1 0x0 DUP2 DUP2 MSTORE PUSH1 0x20 DUP2 SWAP1 MSTORE PUSH1 0x40 DUP1 DUP3 KECCAK256 DUP1 SLOAD PUSH1 0xFF NOT AND SWAP1 SSTORE MLOAD PUSH2 0x1426 SWAP6 SWAP3 SWAP4 PUSH1 0x0 DUP1 MLOAD PUSH1 0x20 PUSH2 0x4E39 DUP4 CODECOPY DUP2 MLOAD SWAP2 MSTORE SWAP4 SWAP2 SWAP3 DUP4 SWAP3 PUSH2 0x141D SWAP3 SWAP1 SWAP2 SWAP1 DUP5 PUSH2 0x4B78 JUMP JUMPDEST SWAP2 SWAP1 PUSH1 0xFF PUSH1 0x2 NOT DUP6 ADD GT PUSH2 0xD20 JUMPI PUSH2 0x141D PUSH1 0x0 DUP1 MLOAD PUSH1 0x20 PUSH2 0x4E39 DUP4 CODECOPY DUP2 MLOAD SWAP2 MSTORE SWAP4 PUSH2 0x1426 SWAP8 PUSH1 0x2 NOT DUP8 ADD SWAP1 PUSH2 0x13E0 JUMP JUMPDEST POP POP PUSH2 0x1426 SWAP2 POP PUSH2 0x49EA JUMP JUMPDEST POP DUP3 DUP5 PUSH1 0xFF NOT SWAP2 PUSH1 0x8 DUP4 DUP3 SLOAD AND OR SWAP1 SSTORE PUSH1 0xFF DUP1 DUP3 PUSH1 0x10 SHR AND SWAP2 PUSH1 0x8 SHR AND GT PUSH1 0x0 EQ PUSH2 0x17B2 JUMPI DUP2 SLOAD PUSH1 0x1 PUSH1 0x1 PUSH1 0xA0 SHL SUB SWAP1 PUSH2 0x1574 SWAP1 DUP3 AND PUSH2 0x156E PUSH2 0x4A7F JUMP JUMPDEST SWAP1 PUSH2 0x4CD7 JUMP JUMPDEST DUP1 DUP4 SLOAD AND SWAP2 PUSH1 0x40 MLOAD SWAP1 PUSH2 0x1586 DUP3 PUSH2 0x3CC5 JUMP JUMPDEST PUSH1 0x18 DUP3 MSTORE PUSH24 0x131BDCDD081848191A5CDC1D5D1948185CC818DB1A595B9D PUSH1 0x42 SHL PUSH1 0x20 DUP4 ADD MSTORE DUP4 PUSH1 0x0 MSTORE PUSH1 0x8 PUSH1 0x20 MSTORE PUSH1 0x40 PUSH1 0x0 KECCAK256 PUSH1 0x40 MLOAD SWAP1 PUSH2 0x15C6 DUP3 PUSH2 0x3C74 JUMP JUMPDEST PUSH1 0x7 DUP3 MSTORE PUSH1 0x20 DUP3 ADD PUSH1 0x4 CALLDATALOAD DUP2 MSTORE PUSH1 0x40 DUP4 ADD SWAP2 TIMESTAMP DUP4 MSTORE PUSH1 0x60 DUP5 ADD SWAP6 DUP7 MSTORE DUP1 SLOAD PUSH1 0x1 PUSH1 0x40 SHL DUP2 LT ISZERO PUSH2 0x3F0 JUMPI PUSH2 0x15FF SWAP2 PUSH1 0x1 DUP3 ADD DUP2 SSTORE PUSH2 0x3F21 JUMP JUMPDEST SWAP4 SWAP1 SWAP4 PUSH2 0xDF7 JUMPI MLOAD PUSH1 0xD DUP2 LT ISZERO PUSH2 0x43B JUMPI PUSH1 0xFF PUSH1 0x3 SWAP6 DUP6 SLOAD AND SWAP2 AND OR DUP4 SSTORE MLOAD PUSH1 0x1 DUP4 ADD SSTORE MLOAD PUSH1 0x2 DUP3 ADD SSTORE ADD SWAP1 MLOAD DUP1 MLOAD SWAP1 PUSH1 0x1 DUP1 PUSH1 0x40 SHL SUB DUP3 GT PUSH2 0x3F0 JUMPI DUP2 SWAP1 PUSH2 0x1648 DUP5 SLOAD PUSH2 0x3C3A JUMP JUMPDEST PUSH1 0x1F DUP2 GT PUSH2 0x175F JUMPI JUMPDEST POP PUSH1 0x20 SWAP1 PUSH1 0x1F DUP4 GT PUSH1 0x1 EQ PUSH2 0x16F9 JUMPI PUSH1 0x0 SWAP3 PUSH2 0x16EE JUMPI JUMPDEST POP POP DUP2 PUSH1 0x1 SHL SWAP2 PUSH1 0x0 NOT SWAP1 PUSH1 0x3 SHL SHR NOT AND OR SWAP1 SSTORE JUMPDEST DUP2 PUSH1 0x0 MSTORE PUSH1 0x9 PUSH1 0x20 MSTORE PUSH1 0x40 PUSH1 0x0 KECCAK256 PUSH1 0x7 PUSH1 0x0 MSTORE PUSH1 0x20 MSTORE PUSH1 0x40 PUSH1 0x0 KECCAK256 DUP1 SLOAD SWAP3 PUSH1 0x1 DUP5 ADD DUP1 SWAP5 GT PUSH2 0xD20 JUMPI PUSH2 0x10EE SWAP5 PUSH1 0x2 PUSH1 0x0 SWAP6 SWAP5 PUSH1 0x7 DUP8 SWAP7 SWAP5 DUP8 SWAP7 SWAP6 DUP8 SWAP7 SSTORE PUSH1 0x0 DUP1 MLOAD PUSH1 0x20 PUSH2 0x4E19 DUP4 CODECOPY DUP2 MLOAD SWAP2 MSTORE PUSH1 0x20 PUSH1 0x40 MLOAD PUSH1 0x4 CALLDATALOAD DUP2 MSTORE LOG3 PUSH1 0x1 DUP4 ADD PUSH2 0x10D8 DUP3 DUP3 SLOAD AND PUSH2 0x16E8 PUSH2 0x4AA7 JUMP JUMPDEST SWAP1 PUSH2 0x4C62 JUMP JUMPDEST ADD MLOAD SWAP1 POP DUP7 DUP1 PUSH2 0x1668 JUMP JUMPDEST PUSH1 0x0 DUP6 DUP2 MSTORE PUSH1 0x20 DUP2 KECCAK256 SWAP4 POP PUSH1 0x1F NOT DUP6 AND SWAP1 JUMPDEST DUP2 DUP2 LT PUSH2 0x1747 JUMPI POP SWAP1 DUP5 PUSH1 0x1 SWAP6 SWAP5 SWAP4 SWAP3 LT PUSH2 0x172E JUMPI JUMPDEST POP POP POP DUP2 SHL ADD SWAP1 SSTORE PUSH2 0x167D JUMP JUMPDEST ADD MLOAD PUSH1 0x0 NOT PUSH1 0xF8 DUP5 PUSH1 0x3 SHL AND SHR NOT AND SWAP1 SSTORE DUP7 DUP1 DUP1 PUSH2 0x1721 JUMP JUMPDEST SWAP3 SWAP4 PUSH1 0x20 PUSH1 0x1 DUP2 SWAP3 DUP8 DUP7 ADD MLOAD DUP2 SSTORE ADD SWAP6 ADD SWAP4 ADD PUSH2 0x170B JUMP JUMPDEST SWAP1 SWAP2 POP DUP4 PUSH1 0x0 MSTORE PUSH1 0x20 PUSH1 0x0 KECCAK256 PUSH1 0x1F DUP5 ADD PUSH1 0x5 SHR DUP2 ADD SWAP2 PUSH1 0x20 DUP6 LT PUSH2 0x17A8 JUMPI JUMPDEST SWAP1 PUSH1 0x1F DUP6 SWAP5 SWAP4 SWAP3 ADD PUSH1 0x5 SHR ADD SWAP1 JUMPDEST DUP2 DUP2 LT PUSH2 0x1799 JUMPI POP PUSH2 0x1651 JUMP JUMPDEST PUSH1 0x0 DUP2 SSTORE DUP5 SWAP4 POP PUSH1 0x1 ADD PUSH2 0x178C JUMP JUMPDEST SWAP1 SWAP2 POP DUP2 SWAP1 PUSH2 0x177E JUMP JUMPDEST PUSH1 0x1 DUP3 ADD DUP1 SLOAD PUSH1 0x1 PUSH1 0x1 PUSH1 0xA0 SHL SUB SWAP2 DUP3 SWAP2 PUSH2 0x17D1 SWAP1 DUP4 AND PUSH2 0x156E PUSH2 0x4A7F JUMP JUMPDEST SLOAD AND SWAP2 PUSH1 0x40 MLOAD SWAP1 PUSH2 0x17E1 DUP3 PUSH2 0x3CC5 JUMP JUMPDEST PUSH1 0xE DUP3 MSTORE PUSH14 0x4C6F737420612064697370757465 PUSH1 0x90 SHL PUSH1 0x20 DUP4 ADD MSTORE DUP4 PUSH1 0x0 MSTORE PUSH1 0x8 PUSH1 0x20 MSTORE PUSH1 0x40 PUSH1 0x0 KECCAK256 PUSH1 0x40 MLOAD SWAP1 PUSH2 0x1817 DUP3 PUSH2 0x3C74 JUMP JUMPDEST PUSH1 0x2 DUP3 MSTORE PUSH1 0x20 DUP3 ADD PUSH1 0x4 CALLDATALOAD DUP2 MSTORE PUSH1 0x40 DUP4 ADD SWAP2 TIMESTAMP DUP4 MSTORE PUSH1 0x60 DUP5 ADD SWAP6 DUP7 MSTORE DUP1 SLOAD PUSH1 0x1 PUSH1 0x40 SHL DUP2 LT ISZERO PUSH2 0x3F0 JUMPI PUSH2 0x1850 SWAP2 PUSH1 0x1 DUP3 ADD DUP2 SSTORE PUSH2 0x3F21 JUMP JUMPDEST SWAP4 SWAP1 SWAP4 PUSH2 0xDF7 JUMPI MLOAD PUSH1 0xD DUP2 LT ISZERO PUSH2 0x43B JUMPI PUSH1 0xFF PUSH1 0x3 SWAP6 DUP6 SLOAD AND SWAP2 AND OR DUP4 SSTORE MLOAD PUSH1 0x1 DUP4 ADD SSTORE MLOAD PUSH1 0x2 DUP3 ADD SSTORE ADD SWAP1 MLOAD DUP1 MLOAD SWAP1 PUSH1 0x1 DUP1 PUSH1 0x40 SHL SUB DUP3 GT PUSH2 0x3F0 JUMPI DUP2 SWAP1 PUSH2 0x1899 DUP5 SLOAD PUSH2 0x3C3A JUMP JUMPDEST PUSH1 0x1F DUP2 GT PUSH2 0x19B6 JUMPI JUMPDEST POP PUSH1 0x20 SWAP1 PUSH1 0x1F DUP4 GT PUSH1 0x1 EQ PUSH2 0x1950 JUMPI PUSH1 0x0 SWAP3 PUSH2 0x1945 JUMPI JUMPDEST POP POP DUP2 PUSH1 0x1 SHL SWAP2 PUSH1 0x0 NOT SWAP1 PUSH1 0x3 SHL SHR NOT AND OR SWAP1 SSTORE JUMPDEST DUP2 PUSH1 0x0 MSTORE PUSH1 0x9 PUSH1 0x20 MSTORE PUSH1 0x40 PUSH1 0x0 KECCAK256 PUSH1 0x2 PUSH1 0x0 MSTORE PUSH1 0x20 MSTORE PUSH1 0x40 PUSH1 0x0 KECCAK256 DUP1 SLOAD SWAP3 PUSH1 0x1 DUP5 ADD DUP1 SWAP5 GT PUSH2 0xD20 JUMPI PUSH2 0x10EE SWAP5 PUSH1 0x2 PUSH1 0x0 SWAP6 SWAP5 DUP2 DUP8 SWAP7 SWAP5 DUP8 SWAP7 SWAP6 DUP8 SWAP7 SSTORE PUSH1 0x0 DUP1 MLOAD PUSH1 0x20 PUSH2 0x4E19 DUP4 CODECOPY DUP2 MLOAD SWAP2 MSTORE PUSH1 0x20 PUSH1 0x40 MLOAD PUSH1 0x4 CALLDATALOAD DUP2 MSTORE LOG3 PUSH2 0x1934 DUP2 DUP5 SLOAD AND PUSH2 0x16E8 PUSH2 0x4AA7 JUMP JUMPDEST DUP3 SLOAD AND SWAP2 ADD SLOAD SWAP1 GAS CALL PUSH2 0x10E8 PUSH2 0x414A JUMP JUMPDEST ADD MLOAD SWAP1 POP DUP7 DUP1 PUSH2 0x18B9 JUMP JUMPDEST PUSH1 0x0 DUP6 DUP2 MSTORE PUSH1 0x20 DUP2 KECCAK256 SWAP4 POP PUSH1 0x1F NOT DUP6 AND SWAP1 JUMPDEST DUP2 DUP2 LT PUSH2 0x199E JUMPI POP SWAP1 DUP5 PUSH1 0x1 SWAP6 SWAP5 SWAP4 SWAP3 LT PUSH2 0x1985 JUMPI JUMPDEST POP POP POP DUP2 SHL ADD SWAP1 SSTORE PUSH2 0x18CE JUMP JUMPDEST ADD MLOAD PUSH1 0x0 NOT PUSH1 0xF8 DUP5 PUSH1 0x3 SHL AND SHR NOT AND SWAP1 SSTORE DUP7 DUP1 DUP1 PUSH2 0x1978 JUMP JUMPDEST SWAP3 SWAP4 PUSH1 0x20 PUSH1 0x1 DUP2 SWAP3 DUP8 DUP7 ADD MLOAD DUP2 SSTORE ADD SWAP6 ADD SWAP4 ADD PUSH2 0x1962 JUMP JUMPDEST SWAP1 SWAP2 POP DUP4 PUSH1 0x0 MSTORE PUSH1 0x20 PUSH1 0x0 KECCAK256 PUSH1 0x1F DUP5 ADD PUSH1 0x5 SHR DUP2 ADD SWAP2 PUSH1 0x20 DUP6 LT PUSH2 0x19FF JUMPI JUMPDEST SWAP1 PUSH1 0x1F DUP6 SWAP5 SWAP4 SWAP3 ADD PUSH1 0x5 SHR ADD SWAP1 JUMPDEST DUP2 DUP2 LT PUSH2 0x19F0 JUMPI POP PUSH2 0x18A2 JUMP JUMPDEST PUSH1 0x0 DUP2 SSTORE DUP5 SWAP4 POP PUSH1 0x1 ADD PUSH2 0x19E3 JUMP JUMPDEST SWAP1 SWAP2 POP DUP2 SWAP1 PUSH2 0x19D5 JUMP JUMPDEST PUSH1 0x40 MLOAD PUSH3 0x461BCD PUSH1 0xE5 SHL DUP2 MSTORE PUSH1 0x20 PUSH1 0x4 DUP3 ADD MSTORE PUSH1 0x10 PUSH1 0x24 DUP3 ADD MSTORE PUSH16 0x159BDD1A5B99C81B9BDD08195B991959 PUSH1 0x82 SHL PUSH1 0x44 DUP3 ADD MSTORE PUSH1 0x64 SWAP1 REVERT JUMPDEST POP PUSH1 0x9 DUP3 ADD SLOAD PUSH1 0xFF DUP2 PUSH1 0x10 SHR AND PUSH1 0xFF DUP3 PUSH1 0x8 SHR AND ADD SWAP1 PUSH1 0xFF DUP3 GT PUSH2 0xD20 JUMPI PUSH1 0xFF DUP1 SWAP2 AND SWAP2 AND EQ PUSH2 0x1253 JUMP JUMPDEST CALLVALUE PUSH2 0x258 JUMPI PUSH1 0x20 CALLDATASIZE PUSH1 0x3 NOT ADD SLT PUSH2 0x258 JUMPI PUSH1 0x4 CALLDATALOAD PUSH1 0x0 MSTORE PUSH1 0x5 PUSH1 0x20 MSTORE PUSH1 0x40 PUSH1 0x9 DUP2 PUSH1 0x0 KECCAK256 ADD SLOAD PUSH1 0xFF DUP3 MLOAD SWAP2 DUP2 DUP2 PUSH1 0x8 SHR AND DUP4 MSTORE PUSH1 0x10 SHR AND PUSH1 0x20 DUP3 ADD MSTORE RETURN JUMPDEST PUSH2 0x3DA9 JUMP JUMPDEST CALLVALUE PUSH2 0x258 JUMPI PUSH1 0x20 CALLDATASIZE PUSH1 0x3 NOT ADD SLT PUSH2 0x258 JUMPI PUSH1 0x1 PUSH1 0x1 PUSH1 0xA0 SHL SUB PUSH2 0x1AD0 PUSH2 0x3B9A JUMP JUMPDEST AND PUSH1 0x0 MSTORE PUSH1 0x4 PUSH1 0x20 MSTORE PUSH2 0x1AF1 PUSH1 0xFF PUSH1 0x40 PUSH1 0x0 KECCAK256 SLOAD AND PUSH1 0x40 MLOAD SWAP2 DUP3 SWAP2 DUP3 PUSH2 0x3E75 JUMP JUMPDEST SUB SWAP1 RETURN JUMPDEST PUSH1 0x20 DUP1 PUSH1 0x3 NOT CALLDATASIZE ADD SLT PUSH2 0x258 JUMPI PUSH1 0x4 CALLDATALOAD PUSH1 0x0 MSTORE PUSH1 0xB DUP2 MSTORE PUSH1 0x40 PUSH1 0x0 KECCAK256 CALLER PUSH1 0x0 MSTORE PUSH1 0x4 DUP3 MSTORE PUSH1 0xFF PUSH1 0x40 PUSH1 0x0 KECCAK256 SLOAD AND PUSH1 0x3 DUP2 LT ISZERO PUSH2 0x43B JUMPI PUSH1 0x1 PUSH2 0x1B37 SWAP2 EQ PUSH2 0x3F67 JUMP JUMPDEST DUP1 SLOAD PUSH1 0x1 PUSH1 0x1 PUSH1 0xA0 SHL SUB AND CALLER SUB PUSH2 0x1BE5 JUMPI PUSH1 0xB DUP2 ADD SWAP1 DUP2 SLOAD SWAP1 PUSH1 0xFF DUP3 AND PUSH1 0x9 DUP2 LT ISZERO PUSH2 0x43B JUMPI PUSH2 0x1BB2 JUMPI PUSH1 0x2 DUP2 ADD SLOAD CALLVALUE SUB PUSH2 0x1B7E JUMPI TIMESTAMP PUSH1 0x8 SWAP1 SWAP2 ADD SSTORE PUSH1 0xFF NOT AND PUSH1 0x1 OR SWAP1 SSTORE STOP JUMPDEST PUSH1 0x40 MLOAD PUSH3 0x461BCD PUSH1 0xE5 SHL DUP2 MSTORE PUSH1 0x4 DUP2 ADD DUP6 SWAP1 MSTORE PUSH1 0xC PUSH1 0x24 DUP3 ADD MSTORE PUSH12 0x15DC9BDB99C8185B5BDD5B9D PUSH1 0xA2 SHL PUSH1 0x44 DUP3 ADD MSTORE PUSH1 0x64 SWAP1 REVERT JUMPDEST PUSH1 0x40 MLOAD PUSH3 0x461BCD PUSH1 0xE5 SHL DUP2 MSTORE PUSH1 0x4 DUP2 ADD DUP6 SWAP1 MSTORE PUSH1 0xB PUSH1 0x24 DUP3 ADD MSTORE PUSH11 0x139BDD0810DC99585D1959 PUSH1 0xAA SHL PUSH1 0x44 DUP3 ADD MSTORE PUSH1 0x64 SWAP1 REVERT JUMPDEST PUSH1 0x40 MLOAD PUSH3 0x461BCD PUSH1 0xE5 SHL DUP2 MSTORE PUSH1 0x4 DUP2 ADD DUP4 SWAP1 MSTORE PUSH1 0x9 PUSH1 0x24 DUP3 ADD MSTORE PUSH9 0x2737BA1037BBB732B9 PUSH1 0xB9 SHL PUSH1 0x44 DUP3 ADD MSTORE PUSH1 0x64 SWAP1 REVERT JUMPDEST CALLVALUE PUSH2 0x258 JUMPI PUSH1 0x40 CALLDATASIZE PUSH1 0x3 NOT ADD SLT PUSH2 0x258 JUMPI PUSH2 0x1C2F PUSH2 0x3B9A JUMP JUMPDEST PUSH1 0x24 CALLDATALOAD SWAP1 PUSH1 0xD DUP3 LT ISZERO PUSH2 0x258 JUMPI PUSH1 0x1 DUP1 PUSH1 0xA0 SHL SUB AND PUSH1 0x0 MSTORE PUSH1 0x9 PUSH1 0x20 MSTORE PUSH1 0x40 PUSH1 0x0 KECCAK256 SWAP1 PUSH1 0x0 MSTORE PUSH1 0x20 MSTORE PUSH1 0x20 PUSH1 0x40 PUSH1 0x0 KECCAK256 SLOAD PUSH1 0x40 MLOAD SWAP1 DUP2 MSTORE RETURN JUMPDEST CALLVALUE PUSH2 0x258 JUMPI PUSH1 0x20 CALLDATASIZE PUSH1 0x3 NOT ADD SLT PUSH2 0x258 JUMPI PUSH1 0x20 PUSH2 0x1C8B PUSH2 0x1C86 PUSH2 0x3B9A JUMP JUMPDEST PUSH2 0x491F JUMP JUMPDEST PUSH1 0x40 MLOAD SWAP1 DUP2 MSTORE RETURN JUMPDEST CALLVALUE PUSH2 0x258 JUMPI PUSH1 0x60 CALLDATASIZE PUSH1 0x3 NOT ADD SLT PUSH2 0x258 JUMPI PUSH1 0x24 CALLDATALOAD PUSH1 0xFF DUP2 AND DUP2 SUB PUSH2 0x258 JUMPI PUSH1 0x44 CALLDATALOAD PUSH1 0x1 PUSH1 0x1 PUSH1 0x40 SHL SUB DUP2 GT PUSH2 0x258 JUMPI PUSH2 0x1CD0 SWAP1 CALLDATASIZE SWAP1 PUSH1 0x4 ADD PUSH2 0x3DFC JUMP JUMPDEST SWAP1 PUSH1 0x4 CALLDATALOAD PUSH1 0x0 MSTORE PUSH1 0xB PUSH1 0x20 MSTORE PUSH1 0x40 PUSH1 0x0 KECCAK256 SWAP2 PUSH1 0x1 DUP1 PUSH1 0xA0 SHL SUB DUP4 SLOAD AND PUSH2 0x1CF7 DUP2 CALLER EQ PUSH2 0x3F67 JUMP JUMPDEST PUSH1 0xB DUP5 ADD DUP1 SLOAD PUSH1 0xFF DUP2 AND PUSH1 0x9 DUP2 LT ISZERO PUSH2 0x43B JUMPI PUSH1 0x4 PUSH2 0x1D16 SWAP2 EQ PUSH2 0x40E5 JUMP JUMPDEST PUSH1 0x1 PUSH1 0xFF DUP7 AND LT ISZERO DUP1 PUSH2 0x2579 JUMPI JUMPDEST ISZERO PUSH2 0x2543 JUMPI PUSH1 0xFF NOT AND PUSH1 0x5 OR SWAP1 SSTORE PUSH1 0x40 MLOAD PUSH2 0x1D3E DUP2 PUSH2 0x3CAA JUMP JUMPDEST PUSH1 0x22 DUP2 MSTORE PUSH32 0x52656C6961626C6520636C69656E74207769746820636C65616E20686973746F PUSH1 0x20 DUP3 ADD MSTORE PUSH2 0x7279 PUSH1 0xF0 SHL PUSH1 0x40 DUP3 ADD MSTORE DUP2 PUSH1 0x0 MSTORE PUSH1 0x8 PUSH1 0x20 MSTORE PUSH1 0x40 PUSH1 0x0 KECCAK256 PUSH1 0x40 MLOAD SWAP2 PUSH2 0x1D8E DUP4 PUSH2 0x3C74 JUMP JUMPDEST PUSH1 0xB DUP4 MSTORE PUSH1 0x4 CALLDATALOAD PUSH1 0x20 DUP5 ADD MSTORE TIMESTAMP PUSH1 0x40 DUP5 ADD MSTORE PUSH1 0x60 DUP4 ADD MSTORE DUP1 SLOAD PUSH1 0x1 PUSH1 0x40 SHL DUP2 LT ISZERO PUSH2 0x3F0 JUMPI PUSH2 0x1DC2 SWAP2 PUSH1 0x1 DUP3 ADD DUP2 SSTORE PUSH2 0x3F21 JUMP JUMPDEST SWAP2 SWAP1 SWAP2 PUSH2 0xDF7 JUMPI DUP1 MLOAD SWAP1 PUSH1 0xD DUP3 LT ISZERO PUSH2 0x43B JUMPI PUSH1 0x60 SWAP2 PUSH1 0xFF DUP1 NOT DUP6 SLOAD AND SWAP2 AND OR DUP4 SSTORE PUSH1 0x20 DUP2 ADD MLOAD PUSH1 0x1 DUP5 ADD SSTORE PUSH1 0x40 DUP2 ADD MLOAD PUSH1 0x2 DUP5 ADD SSTORE ADD MLOAD DUP1 MLOAD SWAP1 PUSH1 0x1 DUP1 PUSH1 0x40 SHL SUB DUP3 GT PUSH2 0x3F0 JUMPI PUSH2 0x1E17 PUSH1 0x3 DUP5 ADD SLOAD PUSH2 0x3C3A JUMP JUMPDEST PUSH1 0x1F DUP2 GT PUSH2 0x24FC JUMPI JUMPDEST POP PUSH1 0x20 SWAP1 PUSH1 0x1F DUP4 GT PUSH1 0x1 EQ PUSH2 0x248D JUMPI PUSH1 0x3 SWAP3 SWAP2 PUSH1 0x0 SWAP2 DUP4 PUSH2 0x2482 JUMPI JUMPDEST POP POP DUP2 PUSH1 0x1 SHL SWAP2 PUSH1 0x0 NOT SWAP1 DUP5 SHL SHR NOT AND OR SWAP2 ADD SSTORE JUMPDEST DUP1 PUSH1 0x0 MSTORE PUSH1 0x9 PUSH1 0x20 MSTORE PUSH1 0x40 PUSH1 0x0 KECCAK256 PUSH1 0xB PUSH1 0x0 MSTORE PUSH1 0x20 MSTORE PUSH1 0x40 PUSH1 0x0 KECCAK256 SWAP1 DUP2 SLOAD SWAP2 PUSH1 0x1 DUP4 ADD DUP4 GT PUSH2 0xD20 JUMPI PUSH1 0x1 PUSH1 0xB SWAP4 ADD SWAP1 SSTORE PUSH1 0x0 DUP1 MLOAD PUSH1 0x20 PUSH2 0x4E19 DUP4 CODECOPY DUP2 MLOAD SWAP2 MSTORE PUSH1 0x20 PUSH1 0x40 MLOAD PUSH1 0x4 CALLDATALOAD DUP2 MSTORE LOG3 PUSH2 0x1ED1 PUSH1 0x40 MLOAD PUSH2 0x1EAB DUP2 PUSH2 0x3CC5 JUMP JUMPDEST PUSH1 0x13 DUP2 MSTORE PUSH19 0x31B634B2B73A2FB0B8383937BB32B22FB537B1 PUSH1 0x69 SHL PUSH1 0x20 DUP3 ADD MSTORE CALLER PUSH2 0x4B99 JUMP JUMPDEST PUSH1 0x4 PUSH1 0xFF DUP4 AND LT PUSH2 0x2155 JUMPI PUSH1 0x1 DUP4 ADD DUP1 SLOAD PUSH2 0x1F30 SWAP2 SWAP1 PUSH2 0x1EFC SWAP1 PUSH1 0x1 PUSH1 0x1 PUSH1 0xA0 SHL SUB AND PUSH2 0x16E8 PUSH2 0x4121 JUMP JUMPDEST SLOAD PUSH1 0x40 MLOAD SWAP1 PUSH1 0x1 PUSH1 0x1 PUSH1 0xA0 SHL SUB AND PUSH2 0x1F13 DUP3 PUSH2 0x3CC5 JUMP JUMPDEST PUSH1 0xB DUP3 MSTORE PUSH11 0x676F6F645F726174696E67 PUSH1 0xA8 SHL PUSH1 0x20 DUP4 ADD MSTORE PUSH2 0x4B99 JUMP JUMPDEST PUSH1 0x1 DUP4 ADD SLOAD PUSH1 0x40 MLOAD SWAP2 SWAP1 PUSH1 0x1 PUSH1 0x1 PUSH1 0xA0 SHL SUB AND PUSH2 0x1F4C DUP4 PUSH2 0x3C74 JUMP JUMPDEST CALLER DUP4 MSTORE PUSH1 0x20 DUP1 DUP5 ADD SWAP2 DUP3 MSTORE PUSH1 0xFF DUP6 AND PUSH1 0x40 DUP1 DUP7 ADD SWAP2 DUP3 MSTORE PUSH1 0x60 DUP7 ADD SWAP5 DUP6 MSTORE PUSH1 0x4 CALLDATALOAD PUSH1 0x0 SWAP1 DUP2 MSTORE PUSH1 0xC SWAP1 SWAP4 MSTORE SWAP1 SWAP2 KECCAK256 SWAP4 MLOAD DUP5 SLOAD PUSH1 0x1 PUSH1 0x1 PUSH1 0xA0 SHL SUB NOT AND PUSH1 0x1 PUSH1 0x1 PUSH1 0xA0 SHL SUB SWAP2 DUP3 AND OR DUP6 SSTORE SWAP2 MLOAD PUSH1 0x1 DUP6 ADD DUP1 SLOAD SWAP3 MLOAD PUSH1 0x1 PUSH1 0x1 PUSH1 0xA8 SHL SUB NOT SWAP1 SWAP4 AND SWAP2 SWAP1 SWAP4 AND OR PUSH1 0xA0 SWAP2 SWAP1 SWAP2 SHL PUSH1 0xFF PUSH1 0xA0 SHL AND OR SWAP1 SSTORE MLOAD DUP1 MLOAD SWAP1 PUSH1 0x1 PUSH1 0x1 PUSH1 0x40 SHL SUB DUP3 GT PUSH2 0x3F0 JUMPI PUSH2 0x1FDF PUSH1 0x2 DUP5 ADD SLOAD PUSH2 0x3C3A JUMP JUMPDEST PUSH1 0x1F DUP2 GT PUSH2 0x210E JUMPI JUMPDEST POP PUSH1 0x20 SWAP1 PUSH1 0x1F DUP4 GT PUSH1 0x1 EQ PUSH2 0x20A0 JUMPI PUSH1 0x2 SWAP3 SWAP2 PUSH1 0x0 SWAP2 DUP4 PUSH2 0x2095 JUMPI JUMPDEST POP POP DUP2 PUSH1 0x1 SHL SWAP2 PUSH1 0x0 NOT SWAP1 PUSH1 0x3 SHL SHR NOT AND OR SWAP2 ADD SSTORE JUMPDEST PUSH1 0x1 DUP1 PUSH1 0xA0 SHL SUB PUSH1 0x1 DUP4 ADD SLOAD AND PUSH1 0x0 MSTORE PUSH1 0xD PUSH1 0x20 MSTORE PUSH2 0x2042 PUSH1 0xFF PUSH1 0x40 PUSH1 0x0 KECCAK256 SWAP3 AND DUP3 SLOAD PUSH2 0x4014 JUMP JUMPDEST SWAP1 SSTORE PUSH1 0x1 DUP1 PUSH1 0xA0 SHL SUB PUSH1 0x1 DUP3 ADD SLOAD AND PUSH1 0x0 MSTORE PUSH1 0xE PUSH1 0x20 MSTORE PUSH1 0x40 PUSH1 0x0 KECCAK256 DUP1 SLOAD SWAP2 PUSH1 0x1 DUP4 ADD DUP1 SWAP4 GT PUSH2 0xD20 JUMPI PUSH1 0x0 DUP1 DUP1 DUP1 SWAP4 DUP7 PUSH2 0x10EE SWAP7 SSTORE PUSH1 0x2 PUSH1 0x1 DUP1 PUSH1 0xA0 SHL SUB PUSH1 0x1 DUP4 ADD SLOAD AND SWAP2 ADD SLOAD SWAP1 GAS CALL PUSH2 0x10E8 PUSH2 0x414A JUMP JUMPDEST ADD MLOAD SWAP1 POP DUP7 DUP1 PUSH2 0x2004 JUMP JUMPDEST SWAP1 PUSH1 0x1F NOT DUP4 AND SWAP2 PUSH1 0x2 DUP6 ADD PUSH1 0x0 MSTORE PUSH1 0x20 PUSH1 0x0 KECCAK256 SWAP3 PUSH1 0x0 JUMPDEST DUP2 DUP2 LT PUSH2 0x20F6 JUMPI POP SWAP2 PUSH1 0x1 SWAP4 SWAP2 DUP6 PUSH1 0x2 SWAP7 SWAP5 LT PUSH2 0x20DD JUMPI JUMPDEST POP POP POP DUP2 SHL ADD SWAP2 ADD SSTORE PUSH2 0x201A JUMP JUMPDEST ADD MLOAD PUSH1 0x0 NOT PUSH1 0xF8 DUP5 PUSH1 0x3 SHL AND SHR NOT AND SWAP1 SSTORE DUP7 DUP1 DUP1 PUSH2 0x20CF JUMP JUMPDEST SWAP3 SWAP4 PUSH1 0x20 PUSH1 0x1 DUP2 SWAP3 DUP8 DUP7 ADD MLOAD DUP2 SSTORE ADD SWAP6 ADD SWAP4 ADD PUSH2 0x20B7 JUMP JUMPDEST PUSH1 0x2 DUP5 ADD PUSH1 0x0 MSTORE PUSH1 0x20 PUSH1 0x0 KECCAK256 PUSH1 0x1F DUP5 ADD PUSH1 0x5 SHR DUP2 ADD PUSH1 0x20 DUP6 LT PUSH2 0x214E JUMPI JUMPDEST PUSH1 0x1F DUP4 ADD PUSH1 0x5 SHR DUP3 ADD DUP2 LT PUSH2 0x2142 JUMPI POP POP PUSH2 0x1FE8 JUMP JUMPDEST PUSH1 0x0 DUP2 SSTORE PUSH1 0x1 ADD PUSH2 0x212C JUMP JUMPDEST POP DUP1 PUSH2 0x212C JUMP JUMPDEST PUSH1 0x2 PUSH1 0xFF DUP4 AND GT PUSH2 0x2463 JUMPI PUSH1 0x1 DUP4 ADD SLOAD PUSH2 0x217A SWAP1 PUSH1 0x1 PUSH1 0x1 PUSH1 0xA0 SHL SUB AND PUSH2 0x16E8 PUSH2 0x4121 JUMP JUMPDEST PUSH1 0x1 DUP1 PUSH1 0xA0 SHL SUB PUSH1 0x1 DUP5 ADD SLOAD AND PUSH1 0x40 MLOAD PUSH2 0x2193 DUP2 PUSH2 0x3CC5 JUMP JUMPDEST PUSH1 0xA DUP2 MSTORE PUSH10 0x6261645F726174696E67 PUSH1 0xB0 SHL PUSH1 0x20 DUP3 ADD MSTORE DUP2 PUSH1 0x0 MSTORE PUSH1 0x0 PUSH1 0x20 MSTORE PUSH1 0xFF PUSH1 0x40 PUSH1 0x0 KECCAK256 SLOAD AND SWAP1 DUP2 PUSH1 0x7 LT ISZERO PUSH1 0x0 EQ PUSH2 0x2439 JUMPI PUSH1 0x0 DUP1 MLOAD PUSH1 0x20 PUSH2 0x4E39 DUP4 CODECOPY DUP2 MLOAD SWAP2 MSTORE SWAP2 PUSH2 0x2207 PUSH1 0x0 SWAP3 JUMPDEST DUP6 PUSH1 0x0 MSTORE PUSH1 0x0 PUSH1 0x20 MSTORE PUSH1 0x40 PUSH1 0x0 KECCAK256 PUSH1 0xFF DUP6 AND PUSH1 0xFF NOT DUP3 SLOAD AND OR SWAP1 SSTORE PUSH1 0x40 MLOAD SWAP4 DUP5 SWAP4 DUP5 PUSH2 0x4B78 JUMP JUMPDEST SUB SWAP1 LOG2 PUSH1 0x1 DUP1 PUSH1 0xA0 SHL SUB PUSH1 0x1 DUP5 ADD SLOAD AND PUSH1 0x40 MLOAD PUSH2 0x2223 DUP2 PUSH2 0x3CC5 JUMP JUMPDEST PUSH1 0x1B DUP2 MSTORE PUSH27 0x52656365697665642031206F722032207374617220726174696E67 PUSH1 0x28 SHL PUSH1 0x20 DUP3 ADD MSTORE DUP2 PUSH1 0x0 MSTORE PUSH1 0x8 PUSH1 0x20 MSTORE PUSH1 0x40 PUSH1 0x0 KECCAK256 PUSH1 0x40 MLOAD SWAP2 PUSH2 0x2266 DUP4 PUSH2 0x3C74 JUMP JUMPDEST PUSH1 0x1 DUP4 MSTORE PUSH1 0x4 CALLDATALOAD PUSH1 0x20 DUP5 ADD MSTORE TIMESTAMP PUSH1 0x40 DUP5 ADD MSTORE PUSH1 0x60 DUP4 ADD MSTORE DUP1 SLOAD PUSH1 0x1 PUSH1 0x40 SHL DUP2 LT ISZERO PUSH2 0x3F0 JUMPI PUSH2 0x229A SWAP2 PUSH1 0x1 DUP3 ADD DUP2 SSTORE PUSH2 0x3F21 JUMP JUMPDEST SWAP2 SWAP1 SWAP2 PUSH2 0xDF7 JUMPI DUP1 MLOAD SWAP1 PUSH1 0xD DUP3 LT ISZERO PUSH2 0x43B JUMPI PUSH1 0x60 SWAP2 PUSH1 0xFF DUP1 NOT DUP6 SLOAD AND SWAP2 AND OR DUP4 SSTORE PUSH1 0x20 DUP2 ADD MLOAD PUSH1 0x1 DUP5 ADD SSTORE PUSH1 0x40 DUP2 ADD MLOAD PUSH1 0x2 DUP5 ADD SSTORE ADD MLOAD DUP1 MLOAD SWAP1 PUSH1 0x1 DUP1 PUSH1 0x40 SHL SUB DUP3 GT PUSH2 0x3F0 JUMPI PUSH2 0x22EF PUSH1 0x3 DUP5 ADD SLOAD PUSH2 0x3C3A JUMP JUMPDEST PUSH1 0x1F DUP2 GT PUSH2 0x23F2 JUMPI JUMPDEST POP PUSH1 0x20 SWAP1 PUSH1 0x1F DUP4 GT PUSH1 0x1 EQ PUSH2 0x2383 JUMPI PUSH1 0x3 SWAP3 SWAP2 PUSH1 0x0 SWAP2 DUP4 PUSH2 0x2378 JUMPI JUMPDEST POP POP DUP2 PUSH1 0x1 SHL SWAP2 PUSH1 0x0 NOT SWAP1 DUP5 SHL SHR NOT AND OR SWAP2 ADD SSTORE JUMPDEST DUP1 PUSH1 0x0 MSTORE PUSH1 0x9 PUSH1 0x20 MSTORE PUSH1 0x40 PUSH1 0x0 KECCAK256 PUSH1 0x1 PUSH1 0x0 MSTORE PUSH1 0x20 MSTORE PUSH1 0x40 PUSH1 0x0 KECCAK256 SWAP1 DUP2 SLOAD SWAP2 PUSH1 0x1 DUP4 ADD DUP4 GT PUSH2 0xD20 JUMPI PUSH1 0x1 DUP1 SWAP4 ADD SWAP1 SSTORE PUSH1 0x0 DUP1 MLOAD PUSH1 0x20 PUSH2 0x4E19 DUP4 CODECOPY DUP2 MLOAD SWAP2 MSTORE PUSH1 0x20 PUSH1 0x40 MLOAD PUSH1 0x4 CALLDATALOAD DUP2 MSTORE LOG3 PUSH2 0x1F30 JUMP JUMPDEST ADD MLOAD SWAP1 POP DUP9 DUP1 PUSH2 0x2314 JUMP JUMPDEST SWAP1 PUSH1 0x3 DUP5 ADD PUSH1 0x0 MSTORE PUSH1 0x20 PUSH1 0x0 KECCAK256 SWAP2 PUSH1 0x0 JUMPDEST PUSH1 0x1F NOT DUP6 AND DUP2 LT PUSH2 0x23DA JUMPI POP SWAP2 DUP4 SWAP2 PUSH1 0x1 SWAP4 PUSH1 0x3 SWAP6 PUSH1 0x1F NOT DUP2 AND LT PUSH2 0x23C2 JUMPI JUMPDEST POP POP POP DUP2 SHL ADD SWAP2 ADD SSTORE PUSH2 0x2329 JUMP JUMPDEST ADD MLOAD PUSH1 0x0 NOT DUP4 DUP7 SHL PUSH1 0xF8 AND SHR NOT AND SWAP1 SSTORE DUP9 DUP1 DUP1 PUSH2 0x23B4 JUMP JUMPDEST SWAP2 SWAP3 PUSH1 0x20 PUSH1 0x1 DUP2 SWAP3 DUP7 DUP6 ADD MLOAD DUP2 SSTORE ADD SWAP5 ADD SWAP3 ADD PUSH2 0x2394 JUMP JUMPDEST PUSH1 0x3 DUP5 ADD PUSH1 0x0 MSTORE PUSH1 0x20 PUSH1 0x0 KECCAK256 PUSH1 0x1F DUP5 ADD PUSH1 0x5 SHR DUP2 ADD PUSH1 0x20 DUP6 LT PUSH2 0x2432 JUMPI JUMPDEST PUSH1 0x1F DUP4 ADD PUSH1 0x5 SHR DUP3 ADD DUP2 LT PUSH2 0x2426 JUMPI POP POP PUSH2 0x22F8 JUMP JUMPDEST PUSH1 0x0 DUP2 SSTORE PUSH1 0x1 ADD PUSH2 0x2410 JUMP JUMPDEST POP DUP1 PUSH2 0x2410 JUMP JUMPDEST PUSH1 0xFF PUSH1 0x6 NOT DUP4 ADD GT PUSH2 0xD20 JUMPI PUSH1 0x0 DUP1 MLOAD PUSH1 0x20 PUSH2 0x4E39 DUP4 CODECOPY DUP2 MLOAD SWAP2 MSTORE SWAP2 PUSH2 0x2207 PUSH1 0x6 NOT DUP3 ADD SWAP3 PUSH2 0x21E0 JUMP JUMPDEST PUSH1 0x1 DUP4 ADD SLOAD PUSH2 0x247D SWAP1 PUSH1 0x1 PUSH1 0x1 PUSH1 0xA0 SHL SUB AND PUSH2 0x16E8 PUSH2 0x4121 JUMP JUMPDEST PUSH2 0x1F30 JUMP JUMPDEST ADD MLOAD SWAP1 POP DUP9 DUP1 PUSH2 0x1E3C JUMP JUMPDEST SWAP1 PUSH1 0x3 DUP5 ADD PUSH1 0x0 MSTORE PUSH1 0x20 PUSH1 0x0 KECCAK256 SWAP2 PUSH1 0x0 JUMPDEST PUSH1 0x1F NOT DUP6 AND DUP2 LT PUSH2 0x24E4 JUMPI POP SWAP2 DUP4 SWAP2 PUSH1 0x1 SWAP4 PUSH1 0x3 SWAP6 PUSH1 0x1F NOT DUP2 AND LT PUSH2 0x24CC JUMPI JUMPDEST POP POP POP DUP2 SHL ADD SWAP2 ADD SSTORE PUSH2 0x1E51 JUMP JUMPDEST ADD MLOAD PUSH1 0x0 NOT DUP4 DUP7 SHL PUSH1 0xF8 AND SHR NOT AND SWAP1 SSTORE DUP9 DUP1 DUP1 PUSH2 0x24BE JUMP JUMPDEST SWAP2 SWAP3 PUSH1 0x20 PUSH1 0x1 DUP2 SWAP3 DUP7 DUP6 ADD MLOAD DUP2 SSTORE ADD SWAP5 ADD SWAP3 ADD PUSH2 0x249E JUMP JUMPDEST PUSH1 0x3 DUP5 ADD PUSH1 0x0 MSTORE PUSH1 0x20 PUSH1 0x0 KECCAK256 PUSH1 0x1F DUP5 ADD PUSH1 0x5 SHR DUP2 ADD PUSH1 0x20 DUP6 LT PUSH2 0x253C JUMPI JUMPDEST PUSH1 0x1F DUP4 ADD PUSH1 0x5 SHR DUP3 ADD DUP2 LT PUSH2 0x2530 JUMPI POP POP PUSH2 0x1E20 JUMP JUMPDEST PUSH1 0x0 DUP2 SSTORE PUSH1 0x1 ADD PUSH2 0x251A JUMP JUMPDEST POP DUP1 PUSH2 0x251A JUMP JUMPDEST PUSH1 0x40 MLOAD PUSH3 0x461BCD PUSH1 0xE5 SHL DUP2 MSTORE PUSH1 0x20 PUSH1 0x4 DUP3 ADD MSTORE PUSH1 0xE PUSH1 0x24 DUP3 ADD MSTORE PUSH14 0x496E76616C696420726174696E67 PUSH1 0x90 SHL PUSH1 0x44 DUP3 ADD MSTORE PUSH1 0x64 SWAP1 REVERT JUMPDEST POP PUSH1 0x5 PUSH1 0xFF DUP7 AND GT ISZERO PUSH2 0x1D24 JUMP JUMPDEST CALLVALUE PUSH2 0x258 JUMPI PUSH1 0x0 CALLDATASIZE PUSH1 0x3 NOT ADD SLT PUSH2 0x258 JUMPI CALLER PUSH1 0x0 MSTORE PUSH1 0x4 PUSH1 0x20 MSTORE PUSH2 0x1AF1 PUSH1 0xFF PUSH1 0x40 PUSH1 0x0 KECCAK256 SLOAD AND PUSH1 0x40 MLOAD SWAP2 DUP3 SWAP2 DUP3 PUSH2 0x3E75 JUMP JUMPDEST CALLVALUE PUSH2 0x258 JUMPI PUSH1 0x0 CALLDATASIZE PUSH1 0x3 NOT ADD SLT PUSH2 0x258 JUMPI CALLER PUSH1 0x0 MSTORE PUSH1 0x4 PUSH1 0x20 MSTORE PUSH1 0xFF PUSH1 0x40 PUSH1 0x0 KECCAK256 SLOAD AND PUSH1 0x3 DUP2 LT ISZERO PUSH2 0x43B JUMPI PUSH2 0x25EF SWAP1 ISZERO PUSH2 0x3E88 JUMP JUMPDEST CALLER PUSH1 0x0 MSTORE PUSH1 0x4 PUSH1 0x20 MSTORE PUSH1 0x40 PUSH1 0x0 KECCAK256 PUSH1 0x1 PUSH1 0xFF NOT DUP3 SLOAD AND OR SWAP1 SSTORE PUSH2 0x2611 CALLER PUSH2 0x4ACE JUMP JUMPDEST PUSH2 0x10EE CALLER PUSH2 0x4D9F JUMP JUMPDEST CALLVALUE PUSH2 0x258 JUMPI PUSH1 0x20 CALLDATASIZE PUSH1 0x3 NOT ADD SLT PUSH2 0x258 JUMPI PUSH1 0x1 PUSH1 0x1 PUSH1 0xA0 SHL SUB PUSH2 0x263B PUSH2 0x3B9A JUMP JUMPDEST AND PUSH1 0x0 MSTORE PUSH1 0x9 PUSH1 0x20 MSTORE PUSH1 0x40 PUSH1 0x0 KECCAK256 PUSH1 0x9 PUSH1 0x0 MSTORE PUSH1 0x20 MSTORE PUSH1 0x20 PUSH1 0x40 PUSH1 0x0 KECCAK256 SLOAD ISZERO ISZERO PUSH1 0x40 MLOAD SWAP1 DUP2 MSTORE RETURN JUMPDEST CALLVALUE PUSH2 0x258 JUMPI PUSH1 0x20 DUP1 PUSH1 0x3 NOT CALLDATASIZE ADD SLT PUSH2 0x258 JUMPI PUSH1 0x4 CALLDATALOAD DUP1 PUSH1 0x0 MSTORE PUSH1 0xB DUP3 MSTORE PUSH1 0x40 PUSH1 0x0 KECCAK256 SWAP1 PUSH1 0xB DUP3 ADD DUP1 SLOAD SWAP1 PUSH1 0xFF DUP3 AND PUSH1 0x9 DUP2 LT ISZERO PUSH2 0x43B JUMPI PUSH1 0x3 SUB PUSH2 0x293E JUMPI PUSH1 0x9 DUP5 ADD SLOAD PUSH1 0x78 DUP2 ADD DUP1 SWAP2 GT PUSH2 0xD20 JUMPI PUSH2 0x26BD SWAP1 TIMESTAMP LT ISZERO PUSH2 0x4021 JUMP JUMPDEST PUSH1 0xFF NOT SWAP2 DUP3 AND PUSH1 0x6 OR SWAP1 SSTORE PUSH1 0x1 DUP4 DUP2 ADD DUP1 SLOAD PUSH1 0x40 MLOAD PUSH1 0x1 PUSH1 0x1 PUSH1 0xA0 SHL SUB SWAP7 SWAP3 DUP8 SWAP3 SWAP1 SWAP2 PUSH2 0x2710 SWAP2 DUP5 AND PUSH2 0x26EF DUP3 PUSH2 0x3CC5 JUMP JUMPDEST PUSH1 0x10 DUP3 MSTORE PUSH16 0x1DDBDC9AD95C97D858985B991BDB9959 PUSH1 0x82 SHL DUP12 DUP4 ADD MSTORE PUSH2 0x4CD7 JUMP JUMPDEST SLOAD AND SWAP3 PUSH2 0x271B PUSH2 0x4059 JUMP JUMPDEST SWAP1 DUP5 PUSH1 0x0 MSTORE PUSH1 0x8 DUP9 MSTORE PUSH1 0x40 PUSH1 0x0 KECCAK256 PUSH1 0x40 MLOAD SWAP1 PUSH2 0x2736 DUP3 PUSH2 0x3C74 JUMP JUMPDEST PUSH1 0x0 DUP3 MSTORE DUP10 DUP3 ADD DUP9 DUP2 MSTORE PUSH1 0x40 DUP4 ADD SWAP2 TIMESTAMP DUP4 MSTORE PUSH1 0x60 DUP5 ADD SWAP6 DUP7 MSTORE DUP1 SLOAD PUSH1 0x1 PUSH1 0x40 SHL DUP2 LT ISZERO PUSH2 0x3F0 JUMPI PUSH2 0x276B SWAP2 DUP10 DUP3 ADD DUP2 SSTORE PUSH2 0x3F21 JUMP JUMPDEST SWAP4 SWAP1 SWAP4 PUSH2 0xDF7 JUMPI MLOAD PUSH1 0xD DUP2 LT ISZERO PUSH2 0x43B JUMPI PUSH1 0xFF PUSH1 0x3 SWAP6 DUP6 SLOAD AND SWAP2 AND OR DUP4 SSTORE MLOAD DUP7 DUP4 ADD SSTORE MLOAD PUSH1 0x2 DUP3 ADD SSTORE ADD SWAP1 MLOAD DUP1 MLOAD SWAP1 PUSH1 0x1 DUP1 PUSH1 0x40 SHL SUB DUP3 GT PUSH2 0x3F0 JUMPI DUP2 SWAP1 PUSH2 0x27B3 DUP5 SLOAD PUSH2 0x3C3A JUMP JUMPDEST PUSH1 0x1F DUP2 GT PUSH2 0x28EB JUMPI JUMPDEST POP DUP10 SWAP1 PUSH1 0x1F DUP4 GT PUSH1 0x1 EQ PUSH2 0x2888 JUMPI PUSH1 0x0 SWAP3 PUSH2 0x287D JUMPI JUMPDEST POP POP PUSH1 0x0 NOT PUSH1 0x3 DUP4 SWAP1 SHL SHR NOT AND SWAP1 DUP5 SHL OR SWAP1 SSTORE JUMPDEST DUP3 PUSH1 0x0 MSTORE PUSH1 0x9 DUP7 MSTORE PUSH1 0x40 PUSH1 0x0 KECCAK256 PUSH1 0x0 DUP1 MSTORE DUP7 MSTORE PUSH1 0x40 PUSH1 0x0 KECCAK256 DUP1 SLOAD SWAP3 DUP4 ADD DUP1 SWAP4 GT PUSH2 0xD20 JUMPI PUSH1 0x0 SWAP6 DUP7 DUP1 SWAP7 SWAP6 PUSH1 0x0 DUP1 MLOAD PUSH1 0x20 PUSH2 0x4E19 DUP4 CODECOPY DUP2 MLOAD SWAP2 MSTORE DUP11 DUP4 SWAP9 DUP5 SWAP9 PUSH1 0x2 SWAP8 SSTORE PUSH1 0x40 MLOAD SWAP1 DUP2 MSTORE LOG3 DUP3 SLOAD AND SWAP2 ADD SLOAD SWAP1 GAS CALL PUSH2 0x2841 PUSH2 0x414A JUMP JUMPDEST POP ISZERO PUSH2 0x2849 JUMPI STOP JUMPDEST PUSH1 0x64 SWAP1 PUSH1 0x40 MLOAD SWAP1 PUSH3 0x461BCD PUSH1 0xE5 SHL DUP3 MSTORE PUSH1 0x4 DUP3 ADD MSTORE PUSH1 0xD PUSH1 0x24 DUP3 ADD MSTORE PUSH13 0x1499599D5B990819985A5B1959 PUSH1 0x9A SHL PUSH1 0x44 DUP3 ADD MSTORE REVERT JUMPDEST ADD MLOAD SWAP1 POP DUP10 DUP1 PUSH2 0x27D2 JUMP JUMPDEST SWAP1 DUP7 SWAP4 POP PUSH1 0x1F NOT DUP4 AND SWAP2 DUP6 PUSH1 0x0 MSTORE DUP12 PUSH1 0x0 KECCAK256 SWAP3 PUSH1 0x0 JUMPDEST DUP14 DUP3 DUP3 LT PUSH2 0x28D5 JUMPI POP POP DUP5 GT PUSH2 0x28BC JUMPI JUMPDEST POP POP POP DUP2 SHL ADD SWAP1 SSTORE PUSH2 0x27E6 JUMP JUMPDEST ADD MLOAD PUSH1 0x0 NOT PUSH1 0xF8 DUP5 PUSH1 0x3 SHL AND SHR NOT AND SWAP1 SSTORE DUP10 DUP1 DUP1 PUSH2 0x28AF JUMP JUMPDEST DUP4 DUP6 ADD MLOAD DUP7 SSTORE DUP11 SWAP8 SWAP1 SWAP6 ADD SWAP5 SWAP4 DUP5 ADD SWAP4 ADD PUSH2 0x289E JUMP JUMPDEST SWAP1 SWAP2 POP DUP4 PUSH1 0x0 MSTORE DUP10 PUSH1 0x0 KECCAK256 PUSH1 0x1F DUP5 ADD PUSH1 0x5 SHR DUP2 ADD SWAP2 DUP12 DUP6 LT PUSH2 0x2934 JUMPI JUMPDEST DUP5 SWAP4 SWAP3 SWAP2 PUSH1 0x1F DUP10 SWAP3 ADD PUSH1 0x5 SHR ADD SWAP2 JUMPDEST DUP3 DUP2 LT PUSH2 0x2925 JUMPI POP POP PUSH2 0x27BC JUMP JUMPDEST PUSH1 0x0 DUP2 SSTORE DUP6 SWAP5 POP DUP9 SWAP2 ADD PUSH2 0x2917 JUMP JUMPDEST SWAP1 SWAP2 POP DUP2 SWAP1 PUSH2 0x2908 JUMP JUMPDEST PUSH1 0x40 MLOAD PUSH3 0x461BCD PUSH1 0xE5 SHL DUP2 MSTORE PUSH1 0x4 DUP2 ADD DUP7 SWAP1 MSTORE PUSH1 0xF PUSH1 0x24 DUP3 ADD MSTORE PUSH15 0x4E6F7420696E2070726F6772657373 PUSH1 0x88 SHL PUSH1 0x44 DUP3 ADD MSTORE PUSH1 0x64 SWAP1 REVERT JUMPDEST CALLVALUE PUSH2 0x258 JUMPI PUSH1 0x20 DUP1 PUSH1 0x3 NOT CALLDATASIZE ADD SLT PUSH2 0x258 JUMPI PUSH1 0x4 CALLDATALOAD PUSH1 0x0 MSTORE PUSH1 0xB DUP2 MSTORE PUSH1 0x40 PUSH1 0x0 KECCAK256 CALLER PUSH1 0x0 MSTORE PUSH1 0x4 DUP3 MSTORE PUSH1 0xFF PUSH1 0x40 PUSH1 0x0 KECCAK256 SLOAD AND PUSH1 0x3 DUP2 LT ISZERO PUSH2 0x43B JUMPI PUSH1 0x2 PUSH2 0x29BC SWAP2 EQ PUSH2 0x3FA0 JUMP JUMPDEST PUSH1 0xB DUP2 ADD SWAP1 DUP2 SLOAD SWAP1 PUSH1 0xFF DUP3 AND PUSH1 0x9 DUP2 LT ISZERO PUSH2 0x43B JUMPI PUSH1 0x1 SUB PUSH2 0x2A8A JUMPI DUP1 SLOAD PUSH1 0x1 PUSH1 0x1 PUSH1 0xA0 SHL SUB SWAP1 DUP2 AND CALLER EQ PUSH2 0x2A4F JUMPI PUSH1 0x1 DUP3 ADD SWAP1 DUP2 SLOAD SWAP1 DUP2 AND PUSH2 0x2A1A JUMPI PUSH1 0x1 PUSH1 0x1 PUSH1 0xA0 SHL SUB NOT AND CALLER OR SWAP1 SSTORE TIMESTAMP PUSH1 0x9 SWAP2 SWAP1 SWAP2 ADD SSTORE PUSH1 0xFF NOT AND PUSH1 0x2 OR SWAP1 SSTORE STOP JUMPDEST PUSH1 0x40 MLOAD PUSH3 0x461BCD PUSH1 0xE5 SHL DUP2 MSTORE PUSH1 0x4 DUP2 ADD DUP8 SWAP1 MSTORE PUSH1 0xD PUSH1 0x24 DUP3 ADD MSTORE PUSH13 0x20B63932B0B23C903A30B5B2B7 PUSH1 0x99 SHL PUSH1 0x44 DUP3 ADD MSTORE PUSH1 0x64 SWAP1 REVERT JUMPDEST PUSH1 0x40 MLOAD PUSH3 0x461BCD PUSH1 0xE5 SHL DUP2 MSTORE PUSH1 0x4 DUP2 ADD DUP7 SWAP1 MSTORE PUSH1 0x13 PUSH1 0x24 DUP3 ADD MSTORE PUSH19 0x21B0B73737BA103A30B5B29037BBB7103537B1 PUSH1 0x69 SHL PUSH1 0x44 DUP3 ADD MSTORE PUSH1 0x64 SWAP1 REVERT JUMPDEST PUSH1 0x40 MLOAD PUSH3 0x461BCD PUSH1 0xE5 SHL DUP2 MSTORE PUSH1 0x4 DUP2 ADD DUP6 SWAP1 MSTORE PUSH1 0xA PUSH1 0x24 DUP3 ADD MSTORE PUSH10 0x139BDD08199D5B991959 PUSH1 0xB2 SHL PUSH1 0x44 DUP3 ADD MSTORE PUSH1 0x64 SWAP1 REVERT JUMPDEST PUSH2 0x3DC5 JUMP JUMPDEST CALLVALUE PUSH2 0x258 JUMPI PUSH2 0x2ACF CALLDATASIZE PUSH2 0x3E43 JUMP JUMPDEST PUSH1 0x0 DUP3 DUP2 MSTORE PUSH1 0xB PUSH1 0x20 MSTORE PUSH1 0x40 SWAP1 KECCAK256 DUP1 SLOAD PUSH1 0x1 PUSH1 0x1 PUSH1 0xA0 SHL SUB AND SWAP1 CALLER DUP3 EQ DUP1 ISZERO PUSH2 0x3041 JUMPI JUMPDEST PUSH2 0x2AFC SWAP1 PUSH2 0x4970 JUMP JUMPDEST PUSH1 0xB DUP2 ADD DUP1 SLOAD PUSH1 0xFF DUP2 AND PUSH1 0x9 DUP2 LT ISZERO PUSH2 0x43B JUMPI PUSH1 0x4 DUP2 EQ SWAP1 DUP2 ISZERO PUSH2 0x3036 JUMPI JUMPDEST POP ISZERO PUSH2 0x2FF5 JUMPI PUSH1 0x7 SWAP1 PUSH1 0xFF NOT AND OR SWAP1 SSTORE PUSH1 0x1 DUP1 DUP1 PUSH1 0xA0 SHL SUB SWAP2 ADD SLOAD AND SWAP1 DUP4 PUSH1 0x0 MSTORE PUSH1 0x5 PUSH1 0x20 MSTORE PUSH1 0x40 PUSH1 0x0 KECCAK256 SWAP3 PUSH2 0x2B58 PUSH1 0xFF PUSH1 0xB DUP7 ADD SLOAD AND ISZERO PUSH2 0x49AB JUMP JUMPDEST PUSH1 0xA DUP5 ADD SLOAD PUSH2 0x2FB7 JUMPI DUP5 DUP5 SSTORE PUSH1 0x1 DUP5 ADD DUP1 SLOAD PUSH1 0x1 PUSH1 0x1 PUSH1 0xA0 SHL SUB NOT AND CALLER OR SWAP1 SSTORE DUP1 MLOAD SWAP1 PUSH1 0x1 PUSH1 0x1 PUSH1 0x40 SHL SUB DUP3 GT PUSH2 0x3F0 JUMPI DUP2 SWAP1 PUSH2 0x2B98 PUSH1 0x2 DUP8 ADD SLOAD PUSH2 0x3C3A JUMP JUMPDEST PUSH1 0x1F DUP2 GT PUSH2 0x2F64 JUMPI JUMPDEST POP PUSH1 0x20 SWAP1 PUSH1 0x1F DUP4 GT PUSH1 0x1 EQ PUSH2 0x2EF7 JUMPI PUSH1 0x0 SWAP3 PUSH2 0x2EEC JUMPI JUMPDEST POP POP DUP2 PUSH1 0x1 SHL SWAP2 PUSH1 0x0 NOT SWAP1 PUSH1 0x3 SHL SHR NOT AND OR PUSH1 0x2 DUP5 ADD SSTORE JUMPDEST PUSH2 0x12C TIMESTAMP ADD DUP1 TIMESTAMP GT PUSH2 0xD20 JUMPI PUSH1 0xA DUP5 ADD SSTORE PUSH1 0x40 MLOAD PUSH1 0x20 DUP2 ADD SWAP1 TIMESTAMP DUP3 MSTORE PREVRANDAO PUSH1 0x40 DUP3 ADD MSTORE DUP6 PUSH1 0x60 DUP3 ADD MSTORE PUSH1 0x60 DUP2 MSTORE PUSH2 0x2C05 DUP2 PUSH2 0x3C74 JUMP JUMPDEST MLOAD SWAP1 KECCAK256 SWAP2 PUSH1 0x2 SLOAD PUSH2 0x2C15 DUP2 PUSH2 0x3EE0 JUMP JUMPDEST SWAP3 PUSH1 0x0 SWAP3 PUSH1 0x0 JUMPDEST DUP4 DUP2 LT PUSH2 0x2E7A JUMPI POP POP POP POP PUSH1 0x5 DUP2 LT PUSH1 0x0 EQ PUSH2 0x2E6F JUMPI PUSH1 0xFF DUP2 AND SWAP1 SWAP5 SWAP4 SWAP5 JUMPDEST PUSH2 0x2C47 PUSH1 0xFF DUP4 AND PUSH2 0x3EE0 JUMP JUMPDEST SWAP4 PUSH2 0x2C51 DUP3 PUSH2 0x3EE0 JUMP JUMPDEST SWAP4 PUSH1 0x0 JUMPDEST DUP4 DUP2 LT PUSH2 0x2E42 JUMPI POP POP PUSH1 0x0 JUMPDEST PUSH1 0xFF DUP5 AND DUP2 LT PUSH2 0x2D78 JUMPI DUP8 DUP8 DUP8 PUSH1 0xFF DUP2 MLOAD AND PUSH1 0x9 DUP5 ADD SWAP1 PUSH1 0xFF NOT DUP3 SLOAD AND OR SWAP1 SSTORE PUSH1 0x4 PUSH1 0x0 SWAP4 ADD SWAP3 JUMPDEST DUP2 MLOAD PUSH1 0xFF DUP3 AND SWAP1 DUP2 LT ISZERO PUSH2 0x2CE3 JUMPI PUSH2 0x2CDE SWAP2 SWAP1 PUSH2 0x1421 SWAP1 PUSH1 0x1 PUSH1 0x1 PUSH1 0xA0 SHL SUB SWAP1 PUSH2 0x2CB3 SWAP1 DUP7 PUSH2 0x3F53 JUMP JUMPDEST MLOAD AND PUSH2 0x2CBF DUP4 DUP9 PUSH2 0x49FB JUMP JUMPDEST SWAP1 SWAP2 SWAP1 DUP3 SLOAD SWAP1 PUSH1 0x3 SHL SWAP2 PUSH1 0x1 DUP1 PUSH1 0xA0 SHL SUB DUP1 SWAP2 AND DUP4 SHL SWAP3 SHL NOT AND OR SWAP1 SSTORE JUMP JUMPDEST PUSH2 0x2C89 JUMP JUMPDEST POP POP PUSH1 0x40 MLOAD SWAP1 CALLER DUP4 PUSH32 0x84A477DF8A28A4276CA6DEE4458A06C3015F30C477D9C949EDE4E13FF8A552B4 PUSH1 0x0 DUP1 LOG3 PUSH1 0x20 DUP3 ADD PUSH1 0x20 DUP4 MSTORE DUP2 MLOAD DUP1 SWAP2 MSTORE PUSH1 0x20 PUSH1 0x40 DUP5 ADD SWAP3 ADD SWAP1 PUSH1 0x0 JUMPDEST DUP2 DUP2 LT PUSH2 0x2D59 JUMPI DUP6 PUSH32 0xAAF49C3B93C6F3A66B3AD89750CFDBB3FE0BE786559EF1298F6E6CB977566337 DUP7 DUP7 SUB DUP8 LOG2 STOP JUMPDEST DUP3 MLOAD PUSH1 0x1 PUSH1 0x1 PUSH1 0xA0 SHL SUB AND DUP5 MSTORE PUSH1 0x20 SWAP4 DUP5 ADD SWAP4 SWAP1 SWAP3 ADD SWAP2 PUSH1 0x1 ADD PUSH2 0x2D29 JUMP JUMPDEST PUSH1 0x40 SWAP8 SWAP7 SWAP8 MLOAD PUSH1 0x20 DUP2 ADD SWAP1 DUP4 DUP3 MSTORE DUP3 PUSH1 0x40 DUP3 ADD MSTORE PUSH1 0x40 DUP2 MSTORE PUSH2 0x2D99 DUP2 PUSH2 0x3CAA JUMP JUMPDEST MLOAD SWAP1 KECCAK256 SWAP1 DUP1 DUP5 SUB SWAP1 DUP5 DUP3 GT PUSH2 0xD20 JUMPI DUP1 DUP6 EQ PUSH2 0x2E2C JUMPI PUSH2 0x2DC0 PUSH2 0x2E22 SWAP3 PUSH1 0xFF SWAP5 MOD DUP3 PUSH2 0x4014 JUMP JUMPDEST PUSH2 0x2DFD PUSH1 0x1 PUSH1 0x1 PUSH1 0xA0 SHL SUB PUSH2 0x2DD5 DUP5 DUP12 PUSH2 0x3F53 JUMP JUMPDEST MLOAD AND SWAP2 PUSH1 0x1 PUSH1 0x1 PUSH1 0xA0 SHL SUB PUSH2 0x2DEA DUP3 DUP13 PUSH2 0x3F53 JUMP JUMPDEST MLOAD AND PUSH2 0x2DF6 DUP6 DUP13 PUSH2 0x3F53 JUMP JUMPDEST MSTORE DUP10 PUSH2 0x3F53 JUMP JUMPDEST MSTORE PUSH1 0x1 PUSH1 0x1 PUSH1 0xA0 SHL SUB PUSH2 0x2E10 DUP3 DUP10 PUSH2 0x3F53 JUMP JUMPDEST MLOAD AND PUSH2 0x2E1C DUP3 DUP11 PUSH2 0x3F53 JUMP JUMPDEST MSTORE PUSH2 0x3F12 JUMP JUMPDEST SWAP1 POP SWAP7 SWAP6 SWAP7 PUSH2 0x2C61 JUMP JUMPDEST PUSH4 0x4E487B71 PUSH1 0xE0 SHL PUSH1 0x0 MSTORE PUSH1 0x12 PUSH1 0x4 MSTORE PUSH1 0x24 PUSH1 0x0 REVERT JUMPDEST SWAP7 SWAP8 SWAP7 PUSH2 0x2E67 SWAP1 PUSH1 0x1 PUSH1 0x1 PUSH1 0xA0 SHL SUB PUSH2 0x2E5B DUP3 DUP6 PUSH2 0x3F53 JUMP JUMPDEST MLOAD AND PUSH2 0x2E1C DUP3 DUP10 PUSH2 0x3F53 JUMP JUMPDEST SWAP8 SWAP7 SWAP8 PUSH2 0x2C55 JUMP JUMPDEST PUSH1 0x5 SWAP1 SWAP5 SWAP4 SWAP5 PUSH2 0x2C3B JUMP JUMPDEST PUSH2 0x2E83 DUP2 PUSH2 0x4D84 JUMP JUMPDEST SWAP1 SLOAD PUSH1 0x3 SWAP2 SWAP1 SWAP2 SHL SHR PUSH1 0x1 PUSH1 0x1 PUSH1 0xA0 SHL SUB AND DUP4 DUP2 EQ ISZERO DUP1 PUSH2 0x2EE2 JUMPI JUMPDEST DUP1 PUSH2 0x2ED3 JUMPI JUMPDEST PUSH2 0x2EB9 JUMPI JUMPDEST POP PUSH2 0x2EB4 SWAP1 PUSH2 0x3F12 JUMP JUMPDEST PUSH2 0x2C1C JUMP JUMPDEST DUP6 PUSH2 0x2ECC SWAP2 PUSH2 0x2E1C PUSH2 0x2EB4 SWAP5 SWAP9 DUP11 PUSH2 0x3F53 JUMP JUMPDEST SWAP5 SWAP1 PUSH2 0x2EAA JUMP JUMPDEST POP PUSH2 0x2EDD DUP2 PUSH2 0x4D64 JUMP JUMPDEST PUSH2 0x2EA5 JUMP JUMPDEST POP DUP3 DUP2 EQ ISZERO PUSH2 0x2E9F JUMP JUMPDEST ADD MLOAD SWAP1 POP DUP7 DUP1 PUSH2 0x2BB8 JUMP JUMPDEST PUSH1 0x2 DUP8 ADD PUSH1 0x0 SWAP1 DUP2 MSTORE PUSH1 0x20 DUP2 KECCAK256 SWAP4 POP PUSH1 0x1F NOT DUP6 AND SWAP1 JUMPDEST DUP2 DUP2 LT PUSH2 0x2F4C JUMPI POP SWAP1 DUP5 PUSH1 0x1 SWAP6 SWAP5 SWAP4 SWAP3 LT PUSH2 0x2F33 JUMPI JUMPDEST POP POP POP DUP2 SHL ADD PUSH1 0x2 DUP5 ADD SSTORE PUSH2 0x2BD0 JUMP JUMPDEST ADD MLOAD PUSH1 0x0 NOT PUSH1 0xF8 DUP5 PUSH1 0x3 SHL AND SHR NOT AND SWAP1 SSTORE DUP7 DUP1 DUP1 PUSH2 0x2F23 JUMP JUMPDEST SWAP3 SWAP4 PUSH1 0x20 PUSH1 0x1 DUP2 SWAP3 DUP8 DUP7 ADD MLOAD DUP2 SSTORE ADD SWAP6 ADD SWAP4 ADD PUSH2 0x2F0D JUMP JUMPDEST SWAP1 SWAP2 POP PUSH1 0x2 DUP7 ADD PUSH1 0x0 MSTORE PUSH1 0x20 PUSH1 0x0 KECCAK256 PUSH1 0x1F DUP5 ADD PUSH1 0x5 SHR DUP2 ADD PUSH1 0x20 DUP6 LT PUSH2 0x2FB0 JUMPI JUMPDEST SWAP1 DUP5 SWAP4 SWAP3 SWAP2 JUMPDEST PUSH1 0x1F DUP4 ADD PUSH1 0x5 SHR DUP3 ADD DUP2 LT PUSH2 0x2FA1 JUMPI POP POP PUSH2 0x2BA1 JUMP JUMPDEST PUSH1 0x0 DUP2 SSTORE DUP6 SWAP5 POP PUSH1 0x1 ADD PUSH2 0x2F8B JUMP JUMPDEST POP DUP1 PUSH2 0x2F85 JUMP JUMPDEST PUSH1 0x40 MLOAD PUSH3 0x461BCD PUSH1 0xE5 SHL DUP2 MSTORE PUSH1 0x20 PUSH1 0x4 DUP3 ADD MSTORE PUSH1 0x16 PUSH1 0x24 DUP3 ADD MSTORE PUSH22 0x111A5CDC1D5D1948185B1C9958591E481C985A5CD959 PUSH1 0x52 SHL PUSH1 0x44 DUP3 ADD MSTORE PUSH1 0x64 SWAP1 REVERT JUMPDEST PUSH1 0x40 MLOAD PUSH3 0x461BCD PUSH1 0xE5 SHL DUP2 MSTORE PUSH1 0x20 PUSH1 0x4 DUP3 ADD MSTORE PUSH1 0x19 PUSH1 0x24 DUP3 ADD MSTORE PUSH25 0x496E76616C696420737461746520666F722064697370757465 PUSH1 0x38 SHL PUSH1 0x44 DUP3 ADD MSTORE PUSH1 0x64 SWAP1 REVERT JUMPDEST PUSH1 0x3 SWAP2 POP EQ DUP8 PUSH2 0x2B1B JUMP JUMPDEST POP PUSH1 0x1 DUP2 ADD SLOAD PUSH1 0x1 PUSH1 0x1 PUSH1 0xA0 SHL SUB AND CALLER EQ PUSH2 0x2AF3 JUMP JUMPDEST CALLVALUE PUSH2 0x258 JUMPI PUSH1 0x20 CALLDATASIZE PUSH1 0x3 NOT ADD SLT PUSH2 0x258 JUMPI PUSH1 0x4 CALLDATALOAD PUSH1 0x0 SWAP1 DUP2 MSTORE PUSH1 0x5 PUSH1 0x20 MSTORE PUSH1 0x40 SWAP1 KECCAK256 DUP1 SLOAD PUSH1 0x1 DUP3 ADD SLOAD PUSH1 0x1 PUSH1 0x1 PUSH1 0xA0 SHL SUB AND SWAP2 PUSH1 0xFF PUSH2 0x3098 PUSH1 0x2 DUP4 ADD PUSH2 0x3D03 JUMP JUMPDEST PUSH2 0x30A4 PUSH1 0x3 DUP5 ADD PUSH2 0x3D03 JUMP JUMPDEST SWAP3 DUP3 PUSH2 0x30E9 PUSH1 0x9 DUP4 ADD SLOAD SWAP6 PUSH2 0x30DB PUSH1 0xB PUSH1 0xA DUP7 ADD SLOAD SWAP6 ADD SLOAD SWAP6 PUSH1 0x40 MLOAD SWAP11 DUP12 SWAP11 DUP12 MSTORE PUSH1 0x20 DUP12 ADD MSTORE PUSH2 0x140 DUP1 PUSH1 0x40 DUP13 ADD MSTORE DUP11 ADD SWAP1 PUSH2 0x3BFA JUMP JUMPDEST SWAP1 DUP9 DUP3 SUB PUSH1 0x60 DUP11 ADD MSTORE PUSH2 0x3BFA JUMP JUMPDEST SWAP5 DUP2 DUP2 AND PUSH1 0x80 DUP9 ADD MSTORE DUP2 DUP2 PUSH1 0x8 SHR AND PUSH1 0xA0 DUP9 ADD MSTORE PUSH1 0x10 SHR AND PUSH1 0xC0 DUP7 ADD MSTORE PUSH1 0xE0 DUP6 ADD MSTORE DUP2 DUP2 AND ISZERO ISZERO PUSH2 0x100 DUP6 ADD MSTORE PUSH1 0x8 SHR AND ISZERO ISZERO PUSH2 0x120 DUP4 ADD MSTORE SUB SWAP1 RETURN JUMPDEST CALLVALUE PUSH2 0x258 JUMPI PUSH1 0x20 CALLDATASIZE PUSH1 0x3 NOT ADD SLT PUSH2 0x258 JUMPI PUSH1 0x1 PUSH1 0x1 PUSH1 0xA0 SHL SUB PUSH2 0x3147 PUSH2 0x3B9A JUMP JUMPDEST AND PUSH1 0x0 MSTORE PUSH1 0x0 PUSH1 0x20 MSTORE PUSH1 0x20 PUSH1 0xFF PUSH1 0x40 PUSH1 0x0 KECCAK256 SLOAD AND PUSH1 0x40 MLOAD SWAP1 DUP2 MSTORE RETURN JUMPDEST CALLVALUE PUSH2 0x258 JUMPI PUSH1 0x0 CALLDATASIZE PUSH1 0x3 NOT ADD SLT PUSH2 0x258 JUMPI PUSH1 0x20 PUSH1 0xA SLOAD PUSH1 0x40 MLOAD SWAP1 DUP2 MSTORE RETURN JUMPDEST CALLVALUE PUSH2 0x258 JUMPI PUSH1 0x20 CALLDATASIZE PUSH1 0x3 NOT ADD SLT PUSH2 0x258 JUMPI PUSH1 0x1 PUSH1 0x1 PUSH1 0xA0 SHL SUB PUSH2 0x31A2 PUSH2 0x3B9A JUMP JUMPDEST AND PUSH1 0x0 MSTORE PUSH1 0xD PUSH1 0x20 MSTORE PUSH1 0x20 PUSH1 0x40 PUSH1 0x0 KECCAK256 SLOAD PUSH1 0x40 MLOAD SWAP1 DUP2 MSTORE RETURN JUMPDEST CALLVALUE PUSH2 0x258 JUMPI PUSH1 0x0 CALLDATASIZE PUSH1 0x3 NOT ADD SLT PUSH2 0x258 JUMPI PUSH1 0x20 PUSH1 0x40 MLOAD PUSH2 0x12C DUP2 MSTORE RETURN JUMPDEST CALLVALUE PUSH2 0x258 JUMPI PUSH1 0x40 CALLDATASIZE PUSH1 0x3 NOT ADD SLT PUSH2 0x258 JUMPI PUSH2 0x31F1 PUSH2 0x3BB0 JUMP JUMPDEST PUSH1 0x4 CALLDATALOAD PUSH1 0x0 MSTORE PUSH1 0x6 PUSH1 0x20 MSTORE PUSH1 0x40 PUSH1 0x0 KECCAK256 SWAP1 PUSH1 0x1 DUP1 PUSH1 0xA0 SHL SUB AND PUSH1 0x0 MSTORE PUSH1 0x20 MSTORE PUSH1 0x20 PUSH1 0xFF PUSH1 0x40 PUSH1 0x0 KECCAK256 SLOAD AND PUSH1 0x40 MLOAD SWAP1 ISZERO ISZERO DUP2 MSTORE RETURN JUMPDEST CALLVALUE PUSH2 0x258 JUMPI PUSH1 0x20 CALLDATASIZE PUSH1 0x3 NOT ADD SLT PUSH2 0x258 JUMPI PUSH1 0x20 PUSH2 0x3248 PUSH2 0x3243 PUSH2 0x3B9A JUMP JUMPDEST PUSH2 0x4D64 JUMP JUMPDEST PUSH1 0x40 MLOAD SWAP1 ISZERO ISZERO DUP2 MSTORE RETURN JUMPDEST CALLVALUE PUSH2 0x258 JUMPI PUSH1 0x0 CALLDATASIZE PUSH1 0x3 NOT ADD SLT PUSH2 0x258 JUMPI PUSH1 0x20 PUSH1 0x40 MLOAD PUSH1 0x0 DUP2 MSTORE RETURN JUMPDEST CALLVALUE PUSH2 0x258 JUMPI PUSH1 0x0 CALLDATASIZE PUSH1 0x3 NOT ADD SLT PUSH2 0x258 JUMPI PUSH1 0x20 PUSH1 0x40 MLOAD PUSH1 0x3C DUP2 MSTORE RETURN JUMPDEST CALLVALUE PUSH2 0x258 JUMPI PUSH1 0x40 CALLDATASIZE PUSH1 0x3 NOT ADD SLT PUSH2 0x258 JUMPI PUSH1 0x1 PUSH1 0x1 PUSH1 0xA0 SHL SUB PUSH2 0x32AB PUSH2 0x3B9A JUMP JUMPDEST AND PUSH1 0x0 MSTORE PUSH1 0x9 PUSH1 0x20 MSTORE PUSH1 0x40 PUSH1 0x0 KECCAK256 PUSH1 0x24 CALLDATALOAD PUSH1 0x0 MSTORE PUSH1 0x20 MSTORE PUSH1 0x20 PUSH1 0x40 PUSH1 0x0 KECCAK256 SLOAD PUSH1 0x40 MLOAD SWAP1 DUP2 MSTORE RETURN JUMPDEST CALLVALUE PUSH2 0x258 JUMPI PUSH1 0x20 CALLDATASIZE PUSH1 0x3 NOT ADD SLT PUSH2 0x258 JUMPI PUSH1 0x4 CALLDATALOAD PUSH1 0x0 MSTORE PUSH1 0xC PUSH1 0x20 MSTORE PUSH1 0x40 PUSH1 0x0 KECCAK256 PUSH1 0x1 DUP1 PUSH1 0xA0 SHL SUB SWAP1 PUSH2 0x1AF1 DUP3 DUP3 SLOAD AND SWAP2 PUSH1 0xFF PUSH2 0x3316 PUSH1 0x2 PUSH1 0x1 DUP5 ADD SLOAD SWAP4 ADD PUSH2 0x3D03 JUMP JUMPDEST SWAP2 PUSH1 0x40 MLOAD SWAP6 DUP7 SWAP6 DUP7 MSTORE DUP2 AND PUSH1 0x20 DUP7 ADD MSTORE PUSH1 0xA0 SHR AND PUSH1 0x40 DUP5 ADD MSTORE PUSH1 0x80 PUSH1 0x60 DUP5 ADD MSTORE PUSH1 0x80 DUP4 ADD SWAP1 PUSH2 0x3BFA JUMP JUMPDEST CALLVALUE PUSH2 0x258 JUMPI PUSH1 0x0 CALLDATASIZE PUSH1 0x3 NOT ADD SLT PUSH2 0x258 JUMPI PUSH1 0x20 PUSH1 0x40 MLOAD PUSH1 0x64 DUP2 MSTORE RETURN JUMPDEST CALLVALUE PUSH2 0x258 JUMPI PUSH1 0x0 CALLDATASIZE PUSH1 0x3 NOT ADD SLT PUSH2 0x258 JUMPI PUSH1 0x20 PUSH1 0x40 MLOAD PUSH1 0x5 DUP2 MSTORE RETURN JUMPDEST CALLVALUE PUSH2 0x258 JUMPI PUSH1 0x20 CALLDATASIZE PUSH1 0x3 NOT ADD SLT PUSH2 0x258 JUMPI PUSH1 0x1 PUSH1 0x1 PUSH1 0xA0 SHL SUB PUSH2 0x3399 PUSH2 0x3B9A JUMP JUMPDEST AND PUSH1 0x0 MSTORE PUSH1 0xE PUSH1 0x20 MSTORE PUSH1 0x20 PUSH1 0x40 PUSH1 0x0 KECCAK256 SLOAD PUSH1 0x40 MLOAD SWAP1 DUP2 MSTORE RETURN JUMPDEST CALLVALUE PUSH2 0x258 JUMPI PUSH1 0x0 CALLDATASIZE PUSH1 0x3 NOT ADD SLT PUSH2 0x258 JUMPI CALLER PUSH1 0x0 MSTORE PUSH1 0x4 PUSH1 0x20 MSTORE PUSH1 0xFF PUSH1 0x40 PUSH1 0x0 KECCAK256 SLOAD AND PUSH1 0x3 DUP2 LT ISZERO PUSH2 0x43B JUMPI PUSH2 0x33E8 SWAP1 ISZERO PUSH2 0x3E88 JUMP JUMPDEST CALLER PUSH1 0x0 MSTORE PUSH1 0x4 PUSH1 0x20 MSTORE PUSH1 0x40 PUSH1 0x0 KECCAK256 PUSH1 0x2 PUSH1 0xFF NOT DUP3 SLOAD AND OR SWAP1 SSTORE PUSH2 0x2611 CALLER PUSH2 0x4ACE JUMP JUMPDEST CALLVALUE PUSH2 0x258 JUMPI PUSH1 0x20 CALLDATASIZE PUSH1 0x3 NOT ADD SLT PUSH2 0x258 JUMPI PUSH2 0x10EE PUSH1 0x4 CALLDATALOAD PUSH2 0x41B8 JUMP JUMPDEST CALLVALUE PUSH2 0x258 JUMPI PUSH1 0x20 CALLDATASIZE PUSH1 0x3 NOT ADD SLT PUSH2 0x258 JUMPI PUSH1 0x4 CALLDATALOAD PUSH1 0x0 MSTORE PUSH1 0xB PUSH1 0x20 MSTORE PUSH1 0x40 PUSH1 0x0 KECCAK256 PUSH1 0x1 DUP1 PUSH1 0xA0 SHL SUB SWAP1 DUP2 DUP2 SLOAD AND SWAP2 PUSH1 0x1 DUP3 ADD SLOAD AND SWAP1 PUSH1 0x2 DUP2 ADD SLOAD SWAP1 PUSH1 0x3 DUP2 ADD SLOAD SWAP2 PUSH2 0x34EA PUSH1 0x4 DUP4 ADD SLOAD PUSH2 0x34DC PUSH1 0x5 DUP6 ADD SLOAD PUSH2 0x3483 PUSH1 0x6 DUP8 ADD PUSH2 0x3D03 JUMP JUMPDEST SWAP1 PUSH2 0x3490 PUSH1 0x7 DUP9 ADD PUSH2 0x3D03 JUMP JUMPDEST SWAP4 PUSH1 0x8 DUP9 ADD SLOAD SWAP9 PUSH1 0x9 DUP10 ADD SLOAD SWAP8 PUSH1 0xFF PUSH1 0xB PUSH1 0xA DUP13 ADD SLOAD SWAP12 ADD SLOAD AND SWAP12 PUSH1 0x20 PUSH1 0x40 MLOAD SWAP15 DUP16 SWAP1 DUP2 MSTORE ADD MSTORE PUSH1 0x40 DUP14 ADD MSTORE PUSH1 0x60 DUP13 ADD MSTORE PUSH1 0x80 DUP12 ADD MSTORE PUSH1 0xA0 DUP11 ADD MSTORE PUSH2 0x180 DUP1 PUSH1 0xC0 DUP12 ADD MSTORE DUP10 ADD SWAP1 PUSH2 0x3BFA JUMP JUMPDEST SWAP1 DUP8 DUP3 SUB PUSH1 0xE0 DUP10 ADD MSTORE PUSH2 0x3BFA JUMP JUMPDEST SWAP3 PUSH2 0x100 DUP7 ADD MSTORE PUSH2 0x120 DUP6 ADD MSTORE PUSH2 0x140 DUP5 ADD MSTORE PUSH1 0x9 DUP3 LT ISZERO PUSH2 0x43B JUMPI DUP3 SWAP2 PUSH2 0x160 DUP4 ADD MSTORE SUB SWAP1 RETURN JUMPDEST CALLVALUE PUSH2 0x258 JUMPI PUSH1 0x20 DUP1 PUSH1 0x3 NOT CALLDATASIZE ADD SLT PUSH2 0x258 JUMPI PUSH1 0xA0 PUSH1 0x40 MLOAD PUSH2 0x3532 DUP2 PUSH2 0x3C8F JUMP JUMPDEST CALLDATASIZE SWAP1 CALLDATACOPY PUSH1 0x4 CALLDATALOAD PUSH1 0x0 MSTORE PUSH1 0x5 DUP1 DUP3 MSTORE PUSH1 0x4 PUSH1 0x40 PUSH1 0x0 KECCAK256 ADD SWAP2 PUSH1 0x40 MLOAD SWAP3 DUP4 DUP3 PUSH1 0x0 SWAP2 JUMPDEST DUP6 DUP4 LT PUSH2 0x359B JUMPI POP POP POP POP PUSH2 0x3567 DUP4 PUSH2 0x3C8F JUMP JUMPDEST PUSH1 0x40 MLOAD SWAP3 PUSH1 0x0 SWAP1 DUP5 JUMPDEST DUP5 DUP4 LT PUSH2 0x357C JUMPI PUSH1 0xA0 DUP7 RETURN JUMPDEST DUP2 MLOAD PUSH1 0x1 PUSH1 0x1 PUSH1 0xA0 SHL SUB AND DUP2 MSTORE PUSH1 0x1 SWAP3 SWAP1 SWAP3 ADD SWAP2 SWAP1 DUP4 ADD SWAP1 DUP4 ADD PUSH2 0x3570 JUMP JUMPDEST DUP4 SLOAD PUSH1 0x1 PUSH1 0x1 PUSH1 0xA0 SHL SUB AND DUP2 MSTORE PUSH1 0x1 SWAP4 DUP5 ADD SWAP4 SWAP3 SWAP1 SWAP3 ADD SWAP2 DUP5 SWAP2 ADD PUSH2 0x3553 JUMP JUMPDEST CALLVALUE PUSH2 0x258 JUMPI PUSH1 0x40 CALLDATASIZE PUSH1 0x3 NOT ADD SLT PUSH2 0x258 JUMPI PUSH1 0x24 DUP1 CALLDATALOAD DUP1 ISZERO ISZERO SWAP1 PUSH1 0x4 CALLDATALOAD SWAP1 DUP3 DUP2 SUB PUSH2 0x258 JUMPI DUP2 PUSH1 0x0 MSTORE PUSH1 0x20 SWAP1 PUSH1 0xB DUP3 MSTORE PUSH1 0xFF DUP1 PUSH1 0xB PUSH1 0x40 PUSH1 0x0 KECCAK256 ADD SLOAD AND PUSH1 0x9 DUP2 LT ISZERO PUSH2 0x3865 JUMPI PUSH1 0x7 PUSH2 0x360C SWAP2 EQ PUSH2 0x4A0B JUMP JUMPDEST DUP4 PUSH1 0x0 MSTORE PUSH1 0x5 DUP4 MSTORE PUSH1 0x40 PUSH1 0x0 KECCAK256 SWAP2 PUSH1 0xA DUP4 ADD SLOAD DUP1 ISZERO PUSH2 0x382D JUMPI PUSH2 0x3635 DUP4 PUSH1 0xB DUP7 ADD SLOAD AND ISZERO PUSH2 0x49AB JUMP JUMPDEST TIMESTAMP LT ISZERO PUSH2 0x37F3 JUMPI DUP5 PUSH1 0x0 MSTORE PUSH1 0x6 DUP5 MSTORE PUSH1 0x40 PUSH1 0x0 KECCAK256 CALLER PUSH1 0x0 MSTORE DUP5 MSTORE DUP2 PUSH1 0x40 PUSH1 0x0 KECCAK256 SLOAD AND PUSH2 0x37BF JUMPI PUSH1 0x0 DUP1 SWAP4 PUSH1 0x9 DUP2 ADD SWAP5 PUSH1 0x4 DUP6 DUP8 SLOAD AND SWAP3 ADD SWAP1 JUMPDEST DUP3 DUP7 DUP3 AND LT PUSH2 0x3781 JUMPI JUMPDEST POP POP POP ISZERO PUSH2 0x3746 JUMPI DUP5 PUSH32 0xF2913DBE661EE2ACC4A046D8FBCDC792373BDA34C41C6086484B5345E5785E5F SWAP6 SWAP7 SWAP8 POP PUSH1 0x0 MSTORE PUSH1 0x6 DUP5 MSTORE PUSH1 0x40 PUSH1 0x0 KECCAK256 CALLER PUSH1 0x0 MSTORE DUP5 MSTORE PUSH1 0x40 PUSH1 0x0 KECCAK256 PUSH1 0xFF NOT SWAP1 PUSH1 0x1 DUP3 DUP3 SLOAD AND OR SWAP1 SSTORE DUP7 PUSH1 0x0 MSTORE PUSH1 0x7 DUP6 MSTORE PUSH1 0x40 PUSH1 0x0 KECCAK256 CALLER PUSH1 0x0 MSTORE DUP6 MSTORE PUSH1 0x40 PUSH1 0x0 KECCAK256 SWAP1 DUP2 SLOAD AND DUP4 DUP10 AND OR SWAP1 SSTORE PUSH1 0x0 EQ PUSH2 0x371F JUMPI PUSH2 0xFF00 PUSH2 0x3706 DUP4 SLOAD SWAP3 DUP4 PUSH1 0x8 SHR AND PUSH2 0x49EA JUMP JUMPDEST PUSH1 0x8 SHL AND SWAP1 PUSH2 0xFF00 NOT AND OR SWAP1 SSTORE JUMPDEST PUSH1 0x40 MLOAD SWAP4 DUP5 MSTORE CALLER SWAP4 LOG3 STOP JUMPDEST PUSH3 0xFF0000 PUSH2 0x3733 DUP4 SLOAD SWAP3 DUP4 PUSH1 0x10 SHR AND PUSH2 0x49EA JUMP JUMPDEST PUSH1 0x10 SHL AND SWAP1 PUSH3 0xFF0000 NOT AND OR SWAP1 SSTORE PUSH2 0x3714 JUMP JUMPDEST PUSH1 0x40 MLOAD PUSH3 0x461BCD PUSH1 0xE5 SHL DUP2 MSTORE PUSH1 0x4 DUP2 ADD DUP6 SWAP1 MSTORE PUSH1 0x14 DUP2 DUP10 ADD MSTORE PUSH20 0x2737BA10309039B2B632B1BA32B2103B37BA32B9 PUSH1 0x61 SHL PUSH1 0x44 DUP3 ADD MSTORE PUSH1 0x64 SWAP1 REVERT JUMPDEST PUSH2 0x378B DUP2 DUP4 PUSH2 0x49FB JUMP JUMPDEST SWAP1 SLOAD PUSH1 0x3 SWAP2 SWAP1 SWAP2 SHL SHR PUSH1 0x1 PUSH1 0x1 PUSH1 0xA0 SHL SUB AND CALLER EQ PUSH2 0x37B1 JUMPI PUSH2 0x37AC SWAP1 PUSH2 0x49EA JUMP JUMPDEST PUSH2 0x366E JUMP JUMPDEST POP POP POP POP PUSH1 0x1 DUP9 DUP1 DUP1 PUSH2 0x3678 JUMP JUMPDEST PUSH1 0x40 MLOAD PUSH3 0x461BCD PUSH1 0xE5 SHL DUP2 MSTORE PUSH1 0x4 DUP2 ADD DUP6 SWAP1 MSTORE PUSH1 0xD DUP2 DUP10 ADD MSTORE PUSH13 0x105B1C9958591E481D9BDD1959 PUSH1 0x9A SHL PUSH1 0x44 DUP3 ADD MSTORE PUSH1 0x64 SWAP1 REVERT JUMPDEST PUSH1 0x40 MLOAD PUSH3 0x461BCD PUSH1 0xE5 SHL DUP2 MSTORE PUSH1 0x4 DUP2 ADD DUP6 SWAP1 MSTORE PUSH1 0x13 DUP2 DUP10 ADD MSTORE PUSH19 0x159BDD1A5B99C81C195C9A5BD908195B991959 PUSH1 0x6A SHL PUSH1 0x44 DUP3 ADD MSTORE PUSH1 0x64 SWAP1 REVERT JUMPDEST PUSH1 0x40 MLOAD PUSH3 0x461BCD PUSH1 0xE5 SHL DUP2 MSTORE PUSH1 0x4 DUP2 ADD DUP7 SWAP1 MSTORE PUSH1 0x11 DUP2 DUP11 ADD MSTORE PUSH17 0x4E6F206469737075746520657869737473 PUSH1 0x78 SHL PUSH1 0x44 DUP3 ADD MSTORE PUSH1 0x64 SWAP1 REVERT JUMPDEST DUP7 PUSH4 0x4E487B71 PUSH1 0xE0 SHL PUSH1 0x0 MSTORE PUSH1 0x21 PUSH1 0x4 MSTORE PUSH1 0x0 REVERT JUMPDEST CALLVALUE PUSH2 0x258 JUMPI PUSH1 0x20 CALLDATASIZE PUSH1 0x3 NOT ADD SLT PUSH2 0x258 JUMPI PUSH1 0x4 CALLDATALOAD PUSH1 0x0 MSTORE PUSH1 0xB PUSH1 0x20 MSTORE PUSH1 0x40 PUSH1 0x0 KECCAK256 PUSH2 0x38B2 PUSH1 0x1 DUP1 PUSH1 0xA0 SHL SUB PUSH1 0x1 DUP4 ADD SLOAD AND CALLER EQ PUSH2 0x3FA0 JUMP JUMPDEST PUSH1 0xB DUP2 ADD SWAP1 DUP2 SLOAD SWAP1 PUSH1 0xFF DUP3 AND PUSH1 0x9 DUP2 LT ISZERO PUSH2 0x43B JUMPI PUSH1 0x2 PUSH2 0x38D3 SWAP2 EQ PUSH2 0x3FD9 JUMP JUMPDEST PUSH1 0x3 DUP2 ADD SLOAD DUP1 TIMESTAMP LT PUSH2 0x393A JUMPI PUSH1 0x5 PUSH2 0x38ED SWAP3 ADD SLOAD SWAP1 PUSH2 0x4014 JUMP JUMPDEST TIMESTAMP GT PUSH2 0x38FE JUMPI PUSH1 0xFF NOT AND PUSH1 0x3 OR SWAP1 SSTORE STOP JUMPDEST PUSH1 0x40 MLOAD PUSH3 0x461BCD PUSH1 0xE5 SHL DUP2 MSTORE PUSH1 0x20 PUSH1 0x4 DUP3 ADD MSTORE PUSH1 0x14 PUSH1 0x24 DUP3 ADD MSTORE PUSH20 0x14DD185C9D081DDA5B991BDDC8195E1C1A5C9959 PUSH1 0x62 SHL PUSH1 0x44 DUP3 ADD MSTORE PUSH1 0x64 SWAP1 REVERT JUMPDEST PUSH1 0x40 MLOAD PUSH3 0x461BCD PUSH1 0xE5 SHL DUP2 MSTORE PUSH1 0x20 PUSH1 0x4 DUP3 ADD MSTORE PUSH1 0x12 PUSH1 0x24 DUP3 ADD MSTORE PUSH18 0x151BDBC819585C9B1E481D1BC81CDD185C9D PUSH1 0x72 SHL PUSH1 0x44 DUP3 ADD MSTORE PUSH1 0x64 SWAP1 REVERT JUMPDEST CALLVALUE PUSH2 0x258 JUMPI PUSH1 0x20 DUP1 PUSH1 0x3 NOT CALLDATASIZE ADD SLT PUSH2 0x258 JUMPI PUSH1 0x1 PUSH1 0x1 PUSH1 0xA0 SHL SUB PUSH2 0x3996 PUSH2 0x3B9A JUMP JUMPDEST AND PUSH1 0x0 MSTORE PUSH1 0x8 DUP2 MSTORE PUSH1 0x40 PUSH1 0x0 KECCAK256 DUP1 SLOAD SWAP1 PUSH2 0x39AF DUP3 PUSH2 0x3EC9 JUMP JUMPDEST SWAP2 PUSH2 0x39BD PUSH1 0x40 MLOAD SWAP4 DUP5 PUSH2 0x3CE0 JUMP JUMPDEST DUP1 DUP4 MSTORE PUSH2 0x39C9 DUP2 PUSH2 0x3EC9 JUMP JUMPDEST SWAP1 DUP5 DUP5 ADD PUSH1 0x1F NOT DUP1 SWAP4 ADD CALLDATASIZE DUP3 CALLDATACOPY PUSH2 0x39DF DUP3 PUSH2 0x3EE0 JUMP JUMPDEST PUSH2 0x39E8 DUP4 PUSH2 0x3EE0 JUMP JUMPDEST SWAP3 PUSH2 0x39F2 DUP2 PUSH2 0x3EC9 JUMP JUMPDEST SWAP6 PUSH2 0x3A00 PUSH1 0x40 MLOAD SWAP8 DUP9 PUSH2 0x3CE0 JUMP JUMPDEST DUP2 DUP8 MSTORE DUP6 PUSH2 0x3A0D DUP4 PUSH2 0x3EC9 JUMP JUMPDEST ADD PUSH1 0x0 JUMPDEST DUP2 DUP2 LT PUSH2 0x3B8B JUMPI POP POP PUSH1 0x0 JUMPDEST DUP3 DUP2 LT PUSH2 0x3AF2 JUMPI POP POP POP PUSH1 0x40 MLOAD SWAP6 PUSH1 0x80 DUP8 ADD SWAP1 PUSH1 0x80 DUP9 MSTORE MLOAD DUP1 SWAP2 MSTORE PUSH1 0xA0 DUP8 ADD SWAP3 SWAP1 PUSH1 0x0 JUMPDEST DUP2 DUP2 LT PUSH2 0x3ACB JUMPI POP POP POP DUP2 PUSH2 0x3A60 SWAP2 DUP8 PUSH2 0x3A6E SWAP6 SWAP5 SUB DUP10 DUP10 ADD MSTORE PUSH2 0x3BC6 JUMP JUMPDEST SWAP1 DUP6 DUP3 SUB PUSH1 0x40 DUP8 ADD MSTORE PUSH2 0x3BC6 JUMP JUMPDEST SWAP4 DUP4 DUP6 SUB PUSH1 0x60 DUP6 ADD MSTORE DUP3 MLOAD SWAP1 DUP2 DUP7 MSTORE DUP1 DUP7 ADD DUP2 DUP1 DUP5 PUSH1 0x5 SHL DUP10 ADD ADD SWAP6 ADD SWAP4 PUSH1 0x0 SWAP8 JUMPDEST DUP5 DUP10 LT PUSH2 0x3A9D JUMPI DUP8 DUP8 SUB DUP9 RETURN JUMPDEST SWAP1 SWAP2 SWAP3 SWAP4 SWAP5 SWAP6 DUP5 DUP1 PUSH2 0x3AB9 DUP4 DUP7 DUP7 PUSH1 0x1 SWAP7 SUB ADD DUP9 MSTORE DUP11 MLOAD PUSH2 0x3BFA JUMP JUMPDEST SWAP9 ADD SWAP5 ADD SWAP9 ADD SWAP8 SWAP2 SWAP1 SWAP5 SWAP4 SWAP3 SWAP5 PUSH2 0x3A90 JUMP JUMPDEST SWAP1 SWAP2 SWAP4 DUP5 SWAP10 SWAP7 SWAP10 MLOAD SWAP1 PUSH1 0xD DUP3 LT ISZERO PUSH2 0x43B JUMPI SWAP1 DUP2 MSTORE SWAP6 SWAP9 SWAP6 DUP10 ADD SWAP4 DUP10 ADD SWAP2 SWAP1 PUSH1 0x1 ADD PUSH2 0x3A41 JUMP JUMPDEST PUSH1 0xFF PUSH2 0x3B01 DUP3 DUP5 SWAP13 SWAP10 SWAP13 PUSH2 0x3F21 JUMP JUMPDEST POP SLOAD AND SWAP1 PUSH2 0x3B0F DUP2 DUP12 PUSH2 0x3F53 JUMP JUMPDEST SWAP2 PUSH1 0xD DUP2 LT ISZERO PUSH2 0x43B JUMPI PUSH2 0x3B83 SWAP3 MSTORE PUSH1 0x1 PUSH2 0x3B2A DUP3 DUP6 PUSH2 0x3F21 JUMP JUMPDEST POP ADD SLOAD PUSH2 0x3B37 DUP3 DUP8 PUSH2 0x3F53 JUMP JUMPDEST MSTORE PUSH1 0x2 PUSH2 0x3B44 DUP3 DUP6 PUSH2 0x3F21 JUMP JUMPDEST POP ADD SLOAD PUSH2 0x3B51 DUP3 DUP10 PUSH2 0x3F53 JUMP JUMPDEST MSTORE PUSH2 0x3B68 PUSH1 0x3 PUSH2 0x3B61 DUP4 DUP7 PUSH2 0x3F21 JUMP JUMPDEST POP ADD PUSH2 0x3D03 JUMP JUMPDEST PUSH2 0x3B72 DUP3 DUP12 PUSH2 0x3F53 JUMP JUMPDEST MSTORE PUSH2 0x3B7D DUP2 DUP11 PUSH2 0x3F53 JUMP JUMPDEST POP PUSH2 0x3F12 JUMP JUMPDEST SWAP9 SWAP6 SWAP9 PUSH2 0x3A1D JUMP JUMPDEST PUSH1 0x60 DUP10 DUP3 ADD DUP13 ADD MSTORE DUP11 ADD PUSH2 0x3A11 JUMP JUMPDEST PUSH1 0x4 CALLDATALOAD SWAP1 PUSH1 0x1 PUSH1 0x1 PUSH1 0xA0 SHL SUB DUP3 AND DUP3 SUB PUSH2 0x258 JUMPI JUMP JUMPDEST PUSH1 0x24 CALLDATALOAD SWAP1 PUSH1 0x1 PUSH1 0x1 PUSH1 0xA0 SHL SUB DUP3 AND DUP3 SUB PUSH2 0x258 JUMPI JUMP JUMPDEST SWAP1 DUP2 MLOAD DUP1 DUP3 MSTORE PUSH1 0x20 DUP1 DUP1 SWAP4 ADD SWAP4 ADD SWAP2 PUSH1 0x0 JUMPDEST DUP3 DUP2 LT PUSH2 0x3BE6 JUMPI POP POP POP POP SWAP1 JUMP JUMPDEST DUP4 MLOAD DUP6 MSTORE SWAP4 DUP2 ADD SWAP4 SWAP3 DUP2 ADD SWAP3 PUSH1 0x1 ADD PUSH2 0x3BD8 JUMP JUMPDEST SWAP2 SWAP1 DUP3 MLOAD SWAP3 DUP4 DUP3 MSTORE PUSH1 0x0 JUMPDEST DUP5 DUP2 LT PUSH2 0x3C26 JUMPI POP POP DUP3 PUSH1 0x0 PUSH1 0x20 DUP1 SWAP5 SWAP6 DUP5 ADD ADD MSTORE PUSH1 0x1F DUP1 NOT SWAP2 ADD AND ADD ADD SWAP1 JUMP JUMPDEST PUSH1 0x20 DUP2 DUP4 ADD DUP2 ADD MLOAD DUP5 DUP4 ADD DUP3 ADD MSTORE ADD PUSH2 0x3C05 JUMP JUMPDEST SWAP1 PUSH1 0x1 DUP3 DUP2 SHR SWAP3 AND DUP1 ISZERO PUSH2 0x3C6A JUMPI JUMPDEST PUSH1 0x20 DUP4 LT EQ PUSH2 0x3C54 JUMPI JUMP JUMPDEST PUSH4 0x4E487B71 PUSH1 0xE0 SHL PUSH1 0x0 MSTORE PUSH1 0x22 PUSH1 0x4 MSTORE PUSH1 0x24 PUSH1 0x0 REVERT JUMPDEST SWAP2 PUSH1 0x7F AND SWAP2 PUSH2 0x3C49 JUMP JUMPDEST PUSH1 0x80 DUP2 ADD SWAP1 DUP2 LT PUSH1 0x1 PUSH1 0x1 PUSH1 0x40 SHL SUB DUP3 GT OR PUSH2 0x3F0 JUMPI PUSH1 0x40 MSTORE JUMP JUMPDEST PUSH1 0xA0 DUP2 ADD SWAP1 DUP2 LT PUSH1 0x1 PUSH1 0x1 PUSH1 0x40 SHL SUB DUP3 GT OR PUSH2 0x3F0 JUMPI PUSH1 0x40 MSTORE JUMP JUMPDEST PUSH1 0x60 DUP2 ADD SWAP1 DUP2 LT PUSH1 0x1 PUSH1 0x1 PUSH1 0x40 SHL SUB DUP3 GT OR PUSH2 0x3F0 JUMPI PUSH1 0x40 MSTORE JUMP JUMPDEST PUSH1 0x40 DUP2 ADD SWAP1 DUP2 LT PUSH1 0x1 PUSH1 0x1 PUSH1 0x40 SHL SUB DUP3 GT OR PUSH2 0x3F0 JUMPI PUSH1 0x40 MSTORE JUMP JUMPDEST PUSH1 0x1F SWAP1 SWAP2 ADD PUSH1 0x1F NOT AND DUP2 ADD SWAP1 PUSH1 0x1 PUSH1 0x1 PUSH1 0x40 SHL SUB DUP3 GT SWAP1 DUP3 LT OR PUSH2 0x3F0 JUMPI PUSH1 0x40 MSTORE JUMP JUMPDEST SWAP1 PUSH1 0x40 MLOAD SWAP2 DUP3 PUSH1 0x0 DUP3 SLOAD SWAP3 PUSH2 0x3D17 DUP5 PUSH2 0x3C3A JUMP JUMPDEST SWAP1 DUP2 DUP5 MSTORE PUSH1 0x1 SWAP5 DUP6 DUP2 AND SWAP1 DUP2 PUSH1 0x0 EQ PUSH2 0x3D86 JUMPI POP PUSH1 0x1 EQ PUSH2 0x3D43 JUMPI JUMPDEST POP POP PUSH2 0x3D41 SWAP3 POP SUB DUP4 PUSH2 0x3CE0 JUMP JUMPDEST JUMP JUMPDEST SWAP1 SWAP4 SWAP2 POP PUSH1 0x0 MSTORE PUSH1 0x20 SWAP1 DUP2 PUSH1 0x0 KECCAK256 SWAP4 PUSH1 0x0 SWAP2 JUMPDEST DUP2 DUP4 LT PUSH2 0x3D6E JUMPI POP POP PUSH2 0x3D41 SWAP4 POP DUP3 ADD ADD CODESIZE DUP1 PUSH2 0x3D33 JUMP JUMPDEST DUP6 SLOAD DUP9 DUP5 ADD DUP6 ADD MSTORE SWAP5 DUP6 ADD SWAP5 DUP8 SWAP5 POP SWAP2 DUP4 ADD SWAP2 PUSH2 0x3D56 JUMP JUMPDEST SWAP2 POP POP PUSH2 0x3D41 SWAP5 POP PUSH1 0x20 SWAP3 POP PUSH1 0xFF NOT AND DUP3 DUP5 ADD MSTORE ISZERO ISZERO PUSH1 0x5 SHL DUP3 ADD ADD CODESIZE DUP1 PUSH2 0x3D33 JUMP JUMPDEST CALLVALUE PUSH2 0x258 JUMPI PUSH1 0x0 CALLDATASIZE PUSH1 0x3 NOT ADD SLT PUSH2 0x258 JUMPI PUSH1 0x20 PUSH1 0x40 MLOAD PUSH1 0x50 DUP2 MSTORE RETURN JUMPDEST CALLVALUE PUSH2 0x258 JUMPI PUSH1 0x0 CALLDATASIZE PUSH1 0x3 NOT ADD SLT PUSH2 0x258 JUMPI PUSH1 0x20 PUSH1 0x40 MLOAD PUSH1 0x78 DUP2 MSTORE RETURN JUMPDEST PUSH1 0x1 PUSH1 0x1 PUSH1 0x40 SHL SUB DUP2 GT PUSH2 0x3F0 JUMPI PUSH1 0x1F ADD PUSH1 0x1F NOT AND PUSH1 0x20 ADD SWAP1 JUMP JUMPDEST DUP2 PUSH1 0x1F DUP3 ADD SLT ISZERO PUSH2 0x258 JUMPI DUP1 CALLDATALOAD SWAP1 PUSH2 0x3E13 DUP3 PUSH2 0x3DE1 JUMP JUMPDEST SWAP3 PUSH2 0x3E21 PUSH1 0x40 MLOAD SWAP5 DUP6 PUSH2 0x3CE0 JUMP JUMPDEST DUP3 DUP5 MSTORE PUSH1 0x20 DUP4 DUP4 ADD ADD GT PUSH2 0x258 JUMPI DUP2 PUSH1 0x0 SWAP3 PUSH1 0x20 DUP1 SWAP4 ADD DUP4 DUP7 ADD CALLDATACOPY DUP4 ADD ADD MSTORE SWAP1 JUMP JUMPDEST SWAP1 PUSH1 0x40 PUSH1 0x3 NOT DUP4 ADD SLT PUSH2 0x258 JUMPI PUSH1 0x4 CALLDATALOAD SWAP2 PUSH1 0x24 CALLDATALOAD SWAP1 PUSH1 0x1 PUSH1 0x1 PUSH1 0x40 SHL SUB DUP3 GT PUSH2 0x258 JUMPI PUSH2 0x3E72 SWAP2 PUSH1 0x4 ADD PUSH2 0x3DFC JUMP JUMPDEST SWAP1 JUMP JUMPDEST SWAP2 SWAP1 PUSH1 0x20 DUP4 ADD SWAP3 PUSH1 0x3 DUP3 LT ISZERO PUSH2 0x43B JUMPI MSTORE JUMP JUMPDEST ISZERO PUSH2 0x3E8F JUMPI JUMP JUMPDEST PUSH1 0x40 MLOAD PUSH3 0x461BCD PUSH1 0xE5 SHL DUP2 MSTORE PUSH1 0x20 PUSH1 0x4 DUP3 ADD MSTORE PUSH1 0x12 PUSH1 0x24 DUP3 ADD MSTORE PUSH18 0x105B1C9958591E481C9959DA5CDD195C9959 PUSH1 0x72 SHL PUSH1 0x44 DUP3 ADD MSTORE PUSH1 0x64 SWAP1 REVERT JUMPDEST PUSH1 0x1 PUSH1 0x1 PUSH1 0x40 SHL SUB DUP2 GT PUSH2 0x3F0 JUMPI PUSH1 0x5 SHL PUSH1 0x20 ADD SWAP1 JUMP JUMPDEST SWAP1 PUSH2 0x3EEA DUP3 PUSH2 0x3EC9 JUMP JUMPDEST PUSH2 0x3EF7 PUSH1 0x40 MLOAD SWAP2 DUP3 PUSH2 0x3CE0 JUMP JUMPDEST DUP3 DUP2 MSTORE DUP1 SWAP3 PUSH2 0x3F08 PUSH1 0x1F NOT SWAP2 PUSH2 0x3EC9 JUMP JUMPDEST ADD SWAP1 PUSH1 0x20 CALLDATASIZE SWAP2 ADD CALLDATACOPY JUMP JUMPDEST PUSH1 0x0 NOT DUP2 EQ PUSH2 0xD20 JUMPI PUSH1 0x1 ADD SWAP1 JUMP JUMPDEST DUP1 SLOAD DUP3 LT ISZERO PUSH2 0x3F3D JUMPI PUSH1 0x0 MSTORE PUSH1 0x20 PUSH1 0x0 KECCAK256 SWAP1 PUSH1 0x2 SHL ADD SWAP1 PUSH1 0x0 SWAP1 JUMP JUMPDEST PUSH4 0x4E487B71 PUSH1 0xE0 SHL PUSH1 0x0 MSTORE PUSH1 0x32 PUSH1 0x4 MSTORE PUSH1 0x24 PUSH1 0x0 REVERT JUMPDEST DUP1 MLOAD DUP3 LT ISZERO PUSH2 0x3F3D JUMPI PUSH1 0x20 SWAP2 PUSH1 0x5 SHL ADD ADD SWAP1 JUMP JUMPDEST ISZERO PUSH2 0x3F6E JUMPI JUMP JUMPDEST PUSH1 0x40 MLOAD PUSH3 0x461BCD PUSH1 0xE5 SHL DUP2 MSTORE PUSH1 0x20 PUSH1 0x4 DUP3 ADD MSTORE PUSH1 0xA PUSH1 0x24 DUP3 ADD MSTORE PUSH10 0x139BDD0818DB1A595B9D PUSH1 0xB2 SHL PUSH1 0x44 DUP3 ADD MSTORE PUSH1 0x64 SWAP1 REVERT JUMPDEST ISZERO PUSH2 0x3FA7 JUMPI JUMP JUMPDEST PUSH1 0x40 MLOAD PUSH3 0x461BCD PUSH1 0xE5 SHL DUP2 MSTORE PUSH1 0x20 PUSH1 0x4 DUP3 ADD MSTORE PUSH1 0xA PUSH1 0x24 DUP3 ADD MSTORE PUSH10 0x2737BA103BB7B935B2B9 PUSH1 0xB1 SHL PUSH1 0x44 DUP3 ADD MSTORE PUSH1 0x64 SWAP1 REVERT JUMPDEST ISZERO PUSH2 0x3FE0 JUMPI JUMP JUMPDEST PUSH1 0x40 MLOAD PUSH3 0x461BCD PUSH1 0xE5 SHL DUP2 MSTORE PUSH1 0x20 PUSH1 0x4 DUP3 ADD MSTORE PUSH1 0xC PUSH1 0x24 DUP3 ADD MSTORE PUSH12 0x139BDD081858D8D95C1D1959 PUSH1 0xA2 SHL PUSH1 0x44 DUP3 ADD MSTORE PUSH1 0x64 SWAP1 REVERT JUMPDEST SWAP2 SWAP1 DUP3 ADD DUP1 SWAP3 GT PUSH2 0xD20 JUMPI JUMP JUMPDEST ISZERO PUSH2 0x4028 JUMPI JUMP JUMPDEST PUSH1 0x40 MLOAD PUSH3 0x461BCD PUSH1 0xE5 SHL DUP2 MSTORE PUSH1 0x20 PUSH1 0x4 DUP3 ADD MSTORE PUSH1 0x9 PUSH1 0x24 DUP3 ADD MSTORE PUSH9 0x546F6F206561726C79 PUSH1 0xB8 SHL PUSH1 0x44 DUP3 ADD MSTORE PUSH1 0x64 SWAP1 REVERT JUMPDEST PUSH1 0x40 MLOAD PUSH2 0x4065 DUP2 PUSH2 0x3CAA JUMP JUMPDEST PUSH1 0x25 DUP2 MSTORE PUSH32 0x4163636570746564206F7220696E2D70726F6772657373206A6F62206162616E PUSH1 0x20 DUP3 ADD MSTORE PUSH5 0x191BDB9959 PUSH1 0xDA SHL PUSH1 0x40 DUP3 ADD MSTORE SWAP1 JUMP JUMPDEST PUSH1 0x40 MLOAD PUSH2 0x40AC DUP2 PUSH2 0x3CAA JUMP JUMPDEST PUSH1 0x23 DUP2 MSTORE PUSH32 0x43616E63656C6C6564206A6F6220616674657220776F726B6572206163636570 PUSH1 0x20 DUP3 ADD MSTORE PUSH3 0x1D1959 PUSH1 0xEA SHL PUSH1 0x40 DUP3 ADD MSTORE SWAP1 JUMP JUMPDEST ISZERO PUSH2 0x40EC JUMPI JUMP JUMPDEST PUSH1 0x40 MLOAD PUSH3 0x461BCD PUSH1 0xE5 SHL DUP2 MSTORE PUSH1 0x20 PUSH1 0x4 DUP3 ADD MSTORE PUSH1 0xD PUSH1 0x24 DUP3 ADD MSTORE PUSH13 0x139BDD081CDD589B5A5D1D1959 PUSH1 0x9A SHL PUSH1 0x44 DUP3 ADD MSTORE PUSH1 0x64 SWAP1 REVERT JUMPDEST PUSH1 0x40 MLOAD SWAP1 PUSH2 0x412E DUP3 PUSH2 0x3CC5 JUMP JUMPDEST PUSH1 0xD DUP3 MSTORE PUSH13 0x1A9BD897D8DBDB5C1B195D1959 PUSH1 0x9A SHL PUSH1 0x20 DUP4 ADD MSTORE JUMP JUMPDEST RETURNDATASIZE ISZERO PUSH2 0x4175 JUMPI RETURNDATASIZE SWAP1 PUSH2 0x415B DUP3 PUSH2 0x3DE1 JUMP JUMPDEST SWAP2 PUSH2 0x4169 PUSH1 0x40 MLOAD SWAP4 DUP5 PUSH2 0x3CE0 JUMP JUMPDEST DUP3 MSTORE RETURNDATASIZE PUSH1 0x0 PUSH1 0x20 DUP5 ADD RETURNDATACOPY JUMP JUMPDEST PUSH1 0x60 SWAP1 JUMP JUMPDEST ISZERO PUSH2 0x4181 JUMPI JUMP JUMPDEST PUSH1 0x40 MLOAD PUSH3 0x461BCD PUSH1 0xE5 SHL DUP2 MSTORE PUSH1 0x20 PUSH1 0x4 DUP3 ADD MSTORE PUSH1 0xF PUSH1 0x24 DUP3 ADD MSTORE PUSH15 0x151C985B9CD9995C8819985A5B1959 PUSH1 0x8A SHL PUSH1 0x44 DUP3 ADD MSTORE PUSH1 0x64 SWAP1 REVERT JUMPDEST PUSH1 0x0 DUP2 DUP2 MSTORE PUSH1 0xB PUSH1 0x20 MSTORE PUSH1 0x40 SWAP1 KECCAK256 DUP1 SLOAD PUSH1 0x1 PUSH1 0x1 PUSH1 0xA0 SHL SUB AND PUSH2 0x41DC CALLER DUP3 EQ PUSH2 0x3F67 JUMP JUMPDEST PUSH1 0xB DUP3 ADD SWAP1 DUP2 SLOAD PUSH1 0xFF DUP2 AND PUSH1 0x9 DUP2 LT ISZERO PUSH2 0x43B JUMPI PUSH1 0x1 EQ PUSH2 0x48D8 JUMPI POP POP DUP1 SLOAD PUSH1 0xFF DUP2 AND PUSH1 0x9 DUP2 LT ISZERO PUSH2 0x43B JUMPI PUSH1 0x2 EQ PUSH2 0x4252 JUMPI PUSH1 0x40 MLOAD PUSH3 0x461BCD PUSH1 0xE5 SHL DUP2 MSTORE PUSH1 0x20 PUSH1 0x4 DUP3 ADD MSTORE PUSH1 0x1B PUSH1 0x24 DUP3 ADD MSTORE PUSH27 0x43616E6E6F742063616E63656C2061742074686973207374616765 PUSH1 0x28 SHL PUSH1 0x44 DUP3 ADD MSTORE PUSH1 0x64 SWAP1 REVERT JUMPDEST PUSH1 0xFF NOT AND PUSH1 0x6 OR SWAP1 SSTORE PUSH1 0x1 DUP2 ADD SLOAD DUP2 SLOAD PUSH1 0x1 PUSH1 0x1 PUSH1 0xA0 SHL SUB SWAP2 DUP3 AND SWAP3 SWAP2 AND PUSH2 0x4278 PUSH2 0x40A0 JUMP JUMPDEST DUP2 PUSH1 0x0 MSTORE PUSH1 0x8 PUSH1 0x20 MSTORE PUSH1 0x40 PUSH1 0x0 KECCAK256 SWAP1 PUSH1 0x40 MLOAD SWAP2 PUSH2 0x4294 DUP4 PUSH2 0x3C74 JUMP JUMPDEST PUSH1 0x8 DUP4 MSTORE PUSH1 0x20 DUP4 ADD DUP8 DUP2 MSTORE PUSH1 0x40 DUP5 ADD SWAP2 TIMESTAMP DUP4 MSTORE PUSH1 0x60 DUP6 ADD SWAP4 DUP5 MSTORE DUP1 SLOAD PUSH1 0x1 PUSH1 0x40 SHL DUP2 LT ISZERO PUSH2 0x3F0 JUMPI PUSH2 0x42CB SWAP2 PUSH1 0x1 DUP3 ADD DUP2 SSTORE PUSH2 0x3F21 JUMP JUMPDEST SWAP5 SWAP1 SWAP5 PUSH2 0xDF7 JUMPI MLOAD PUSH1 0xD DUP2 LT ISZERO PUSH2 0x43B JUMPI PUSH1 0xFF DUP1 NOT DUP7 SLOAD AND SWAP2 AND OR DUP5 SSTORE MLOAD PUSH1 0x1 DUP5 ADD SSTORE MLOAD PUSH1 0x2 DUP4 ADD SSTORE MLOAD DUP1 MLOAD SWAP1 PUSH1 0x1 DUP1 PUSH1 0x40 SHL SUB DUP3 GT PUSH2 0x3F0 JUMPI PUSH2 0x4312 PUSH1 0x3 DUP5 ADD SLOAD PUSH2 0x3C3A JUMP JUMPDEST PUSH1 0x1F DUP2 GT PUSH2 0x4891 JUMPI JUMPDEST POP PUSH1 0x20 SWAP1 PUSH1 0x1F DUP4 GT PUSH1 0x1 EQ PUSH2 0x4822 JUMPI PUSH1 0x3 SWAP3 SWAP2 PUSH1 0x0 SWAP2 DUP4 PUSH2 0x4817 JUMPI JUMPDEST POP POP DUP2 PUSH1 0x1 SHL SWAP2 PUSH1 0x0 NOT SWAP1 DUP5 SHL SHR NOT AND OR SWAP2 ADD SSTORE JUMPDEST DUP1 PUSH1 0x0 MSTORE PUSH1 0x9 PUSH1 0x20 MSTORE PUSH1 0x40 PUSH1 0x0 KECCAK256 PUSH1 0x8 PUSH1 0x0 MSTORE PUSH1 0x20 MSTORE PUSH1 0x40 PUSH1 0x0 KECCAK256 DUP1 SLOAD PUSH1 0x1 DUP2 ADD DUP2 GT PUSH2 0xD20 JUMPI PUSH1 0x1 ADD SWAP1 SSTORE PUSH1 0x8 DUP2 PUSH1 0x0 DUP1 MLOAD PUSH1 0x20 PUSH2 0x4E19 DUP4 CODECOPY DUP2 MLOAD SWAP2 MSTORE PUSH1 0x20 PUSH1 0x40 MLOAD DUP9 DUP2 MSTORE LOG3 DUP1 PUSH1 0x0 MSTORE PUSH1 0x9 PUSH1 0x20 MSTORE PUSH1 0x40 PUSH1 0x0 KECCAK256 PUSH1 0x8 PUSH1 0x0 MSTORE PUSH1 0x20 MSTORE PUSH1 0x5 PUSH1 0x40 PUSH1 0x0 KECCAK256 SLOAD LT ISZERO PUSH2 0x45C4 JUMPI JUMPDEST POP PUSH1 0x0 DUP1 DUP1 DUP1 PUSH2 0x43DC SWAP5 PUSH1 0x2 PUSH1 0x1 DUP1 PUSH1 0xA0 SHL SUB DUP3 SLOAD AND SWAP2 ADD SLOAD SWAP1 GAS CALL PUSH2 0x10E8 PUSH2 0x414A JUMP JUMPDEST PUSH2 0x43E4 PUSH2 0x40A0 JUMP JUMPDEST DUP2 PUSH1 0x0 MSTORE PUSH1 0x8 PUSH1 0x20 MSTORE PUSH1 0x40 PUSH1 0x0 KECCAK256 PUSH1 0x40 MLOAD PUSH2 0x43FE DUP2 PUSH2 0x3C74 JUMP JUMPDEST PUSH1 0x8 DUP2 MSTORE PUSH1 0x20 DUP2 ADD SWAP2 DUP6 DUP4 MSTORE PUSH1 0x40 DUP3 ADD SWAP1 TIMESTAMP DUP3 MSTORE PUSH1 0x60 DUP4 ADD SWAP5 DUP6 MSTORE DUP1 SLOAD PUSH1 0x1 PUSH1 0x40 SHL DUP2 LT ISZERO PUSH2 0x3F0 JUMPI PUSH2 0x4436 SWAP2 PUSH1 0x1 DUP3 ADD DUP2 SSTORE PUSH2 0x3F21 JUMP JUMPDEST SWAP3 SWAP1 SWAP3 PUSH2 0xDF7 JUMPI MLOAD SWAP3 PUSH1 0xD DUP5 LT ISZERO PUSH2 0x43B JUMPI PUSH1 0x3 SWAP4 PUSH1 0xFF DUP1 NOT DUP6 SLOAD AND SWAP2 AND OR DUP4 SSTORE MLOAD PUSH1 0x1 DUP4 ADD SSTORE MLOAD PUSH1 0x2 DUP3 ADD SSTORE ADD SWAP1 MLOAD DUP1 MLOAD SWAP1 PUSH1 0x1 DUP1 PUSH1 0x40 SHL SUB DUP3 GT PUSH2 0x3F0 JUMPI DUP2 SWAP1 PUSH2 0x4482 DUP5 SLOAD PUSH2 0x3C3A JUMP JUMPDEST PUSH1 0x1F DUP2 GT PUSH2 0x4571 JUMPI JUMPDEST POP PUSH1 0x20 SWAP1 PUSH1 0x1F DUP4 GT PUSH1 0x1 EQ PUSH2 0x450B JUMPI PUSH1 0x0 SWAP3 PUSH2 0x4500 JUMPI JUMPDEST POP POP DUP2 PUSH1 0x1 SHL SWAP2 PUSH1 0x0 NOT SWAP1 PUSH1 0x3 SHL SHR NOT AND OR SWAP1 SSTORE JUMPDEST DUP1 PUSH1 0x0 MSTORE PUSH1 0x9 PUSH1 0x20 MSTORE PUSH1 0x40 PUSH1 0x0 KECCAK256 PUSH1 0x8 PUSH1 0x0 MSTORE PUSH1 0x20 MSTORE PUSH1 0x40 PUSH1 0x0 KECCAK256 DUP1 SLOAD SWAP1 PUSH1 0x1 DUP3 ADD DUP1 SWAP3 GT PUSH2 0xD20 JUMPI PUSH1 0x8 SWAP4 PUSH1 0x0 DUP1 MLOAD PUSH1 0x20 PUSH2 0x4E19 DUP4 CODECOPY DUP2 MLOAD SWAP2 MSTORE SWAP3 PUSH1 0x20 SWAP3 SSTORE PUSH1 0x40 MLOAD SWAP1 DUP2 MSTORE LOG3 JUMP JUMPDEST ADD MLOAD SWAP1 POP CODESIZE DUP1 PUSH2 0x44A2 JUMP JUMPDEST PUSH1 0x0 DUP6 DUP2 MSTORE PUSH1 0x20 DUP2 KECCAK256 SWAP4 POP PUSH1 0x1F NOT DUP6 AND SWAP1 JUMPDEST DUP2 DUP2 LT PUSH2 0x4559 JUMPI POP SWAP1 DUP5 PUSH1 0x1 SWAP6 SWAP5 SWAP4 SWAP3 LT PUSH2 0x4540 JUMPI JUMPDEST POP POP POP DUP2 SHL ADD SWAP1 SSTORE PUSH2 0x44B7 JUMP JUMPDEST ADD MLOAD PUSH1 0x0 NOT PUSH1 0xF8 DUP5 PUSH1 0x3 SHL AND SHR NOT AND SWAP1 SSTORE CODESIZE DUP1 DUP1 PUSH2 0x4533 JUMP JUMPDEST SWAP3 SWAP4 PUSH1 0x20 PUSH1 0x1 DUP2 SWAP3 DUP8 DUP7 ADD MLOAD DUP2 SSTORE ADD SWAP6 ADD SWAP4 ADD PUSH2 0x451D JUMP JUMPDEST SWAP1 SWAP2 POP DUP4 PUSH1 0x0 MSTORE PUSH1 0x20 PUSH1 0x0 KECCAK256 PUSH1 0x1F DUP5 ADD PUSH1 0x5 SHR DUP2 ADD SWAP2 PUSH1 0x20 DUP6 LT PUSH2 0x45BA JUMPI JUMPDEST SWAP1 PUSH1 0x1F DUP6 SWAP5 SWAP4 SWAP3 ADD PUSH1 0x5 SHR ADD SWAP1 JUMPDEST DUP2 DUP2 LT PUSH2 0x45AB JUMPI POP PUSH2 0x448B JUMP JUMPDEST PUSH1 0x0 DUP2 SSTORE DUP5 SWAP4 POP PUSH1 0x1 ADD PUSH2 0x459E JUMP JUMPDEST SWAP1 SWAP2 POP DUP2 SWAP1 PUSH2 0x4590 JUMP JUMPDEST DUP1 PUSH1 0x0 MSTORE PUSH1 0x9 PUSH1 0x20 MSTORE PUSH1 0x40 PUSH1 0x0 KECCAK256 PUSH1 0x9 PUSH1 0x0 MSTORE PUSH1 0x20 MSTORE PUSH1 0x40 PUSH1 0x0 KECCAK256 SLOAD PUSH2 0x43B8 JUMPI SWAP1 PUSH1 0x40 MLOAD PUSH2 0x45F1 DUP2 PUSH2 0x3CC5 JUMP JUMPDEST PUSH1 0x1C DUP2 MSTORE PUSH28 0x233630B3B3B2B21030B9903837BA32B73A34B0B61039B1B0B6B6B2B9 PUSH1 0x21 SHL PUSH1 0x20 DUP3 ADD MSTORE DUP3 PUSH1 0x0 MSTORE PUSH1 0x8 PUSH1 0x20 MSTORE PUSH1 0x40 PUSH1 0x0 KECCAK256 PUSH1 0x40 MLOAD SWAP2 PUSH2 0x4635 DUP4 PUSH2 0x3C74 JUMP JUMPDEST PUSH1 0x9 DUP4 MSTORE PUSH1 0x0 PUSH1 0x20 DUP5 ADD MSTORE TIMESTAMP PUSH1 0x40 DUP5 ADD MSTORE PUSH1 0x60 DUP4 ADD MSTORE DUP1 SLOAD PUSH1 0x1 PUSH1 0x40 SHL DUP2 LT ISZERO PUSH2 0x3F0 JUMPI PUSH2 0x4668 SWAP2 PUSH1 0x1 DUP3 ADD DUP2 SSTORE PUSH2 0x3F21 JUMP JUMPDEST SWAP2 SWAP1 SWAP2 PUSH2 0xDF7 JUMPI DUP1 MLOAD SWAP1 PUSH1 0xD DUP3 LT ISZERO PUSH2 0x43B JUMPI PUSH1 0x60 SWAP2 PUSH1 0xFF DUP1 NOT DUP6 SLOAD AND SWAP2 AND OR DUP4 SSTORE PUSH1 0x20 DUP2 ADD MLOAD PUSH1 0x1 DUP5 ADD SSTORE PUSH1 0x40 DUP2 ADD MLOAD PUSH1 0x2 DUP5 ADD SSTORE ADD MLOAD DUP1 MLOAD SWAP1 PUSH1 0x1 DUP1 PUSH1 0x40 SHL SUB DUP3 GT PUSH2 0x3F0 JUMPI PUSH2 0x46BD PUSH1 0x3 DUP5 ADD SLOAD PUSH2 0x3C3A JUMP JUMPDEST PUSH1 0x1F DUP2 GT PUSH2 0x47D0 JUMPI JUMPDEST POP PUSH1 0x20 SWAP1 PUSH1 0x1F DUP4 GT PUSH1 0x1 EQ PUSH2 0x4761 JUMPI PUSH1 0x3 SWAP3 SWAP2 PUSH1 0x0 SWAP2 DUP4 PUSH2 0x4756 JUMPI JUMPDEST POP POP DUP2 PUSH1 0x1 SHL SWAP2 PUSH1 0x0 NOT SWAP1 DUP5 SHL SHR NOT AND OR SWAP2 ADD SSTORE JUMPDEST DUP2 PUSH1 0x0 MSTORE PUSH1 0x9 PUSH1 0x20 MSTORE PUSH1 0x40 PUSH1 0x0 KECCAK256 PUSH1 0x9 PUSH1 0x0 MSTORE PUSH1 0x20 MSTORE PUSH1 0x40 PUSH1 0x0 KECCAK256 SWAP2 DUP3 SLOAD SWAP1 PUSH1 0x1 DUP3 ADD DUP3 GT PUSH2 0xD20 JUMPI PUSH1 0x0 DUP1 SWAP4 PUSH1 0x9 DUP3 SWAP5 SWAP4 PUSH2 0x43DC SWAP8 PUSH1 0x1 DUP6 SWAP7 ADD SWAP1 SSTORE PUSH1 0x0 DUP1 MLOAD PUSH1 0x20 PUSH2 0x4E19 DUP4 CODECOPY DUP2 MLOAD SWAP2 MSTORE PUSH1 0x20 PUSH1 0x40 MLOAD DUP7 DUP2 MSTORE LOG3 SWAP5 POP POP POP POP PUSH2 0x43B8 JUMP JUMPDEST ADD MLOAD SWAP1 POP CODESIZE DUP1 PUSH2 0x46E2 JUMP JUMPDEST SWAP1 PUSH1 0x3 DUP5 ADD PUSH1 0x0 MSTORE PUSH1 0x20 PUSH1 0x0 KECCAK256 SWAP2 PUSH1 0x0 JUMPDEST PUSH1 0x1F NOT DUP6 AND DUP2 LT PUSH2 0x47B8 JUMPI POP SWAP2 DUP4 SWAP2 PUSH1 0x1 SWAP4 PUSH1 0x3 SWAP6 PUSH1 0x1F NOT DUP2 AND LT PUSH2 0x47A0 JUMPI JUMPDEST POP POP POP DUP2 SHL ADD SWAP2 ADD SSTORE PUSH2 0x46F7 JUMP JUMPDEST ADD MLOAD PUSH1 0x0 NOT DUP4 DUP7 SHL PUSH1 0xF8 AND SHR NOT AND SWAP1 SSTORE CODESIZE DUP1 DUP1 PUSH2 0x4792 JUMP JUMPDEST SWAP2 SWAP3 PUSH1 0x20 PUSH1 0x1 DUP2 SWAP3 DUP7 DUP6 ADD MLOAD DUP2 SSTORE ADD SWAP5 ADD SWAP3 ADD PUSH2 0x4772 JUMP JUMPDEST PUSH1 0x3 DUP5 ADD PUSH1 0x0 MSTORE PUSH1 0x20 PUSH1 0x0 KECCAK256 PUSH1 0x1F DUP5 ADD PUSH1 0x5 SHR DUP2 ADD PUSH1 0x20 DUP6 LT PUSH2 0x4810 JUMPI JUMPDEST PUSH1 0x1F DUP4 ADD PUSH1 0x5 SHR DUP3 ADD DUP2 LT PUSH2 0x4804 JUMPI POP POP PUSH2 0x46C6 JUMP JUMPDEST PUSH1 0x0 DUP2 SSTORE PUSH1 0x1 ADD PUSH2 0x47EE JUMP JUMPDEST POP DUP1 PUSH2 0x47EE JUMP JUMPDEST ADD MLOAD SWAP1 POP CODESIZE DUP1 PUSH2 0x4337 JUMP JUMPDEST SWAP1 PUSH1 0x3 DUP5 ADD PUSH1 0x0 MSTORE PUSH1 0x20 PUSH1 0x0 KECCAK256 SWAP2 PUSH1 0x0 JUMPDEST PUSH1 0x1F NOT DUP6 AND DUP2 LT PUSH2 0x4879 JUMPI POP SWAP2 DUP4 SWAP2 PUSH1 0x1 SWAP4 PUSH1 0x3 SWAP6 PUSH1 0x1F NOT DUP2 AND LT PUSH2 0x4861 JUMPI JUMPDEST POP POP POP DUP2 SHL ADD SWAP2 ADD SSTORE PUSH2 0x434C JUMP JUMPDEST ADD MLOAD PUSH1 0x0 NOT DUP4 DUP7 SHL PUSH1 0xF8 AND SHR NOT AND SWAP1 SSTORE CODESIZE DUP1 DUP1 PUSH2 0x4853 JUMP JUMPDEST SWAP2 SWAP3 PUSH1 0x20 PUSH1 0x1 DUP2 SWAP3 DUP7 DUP6 ADD MLOAD DUP2 SSTORE ADD SWAP5 ADD SWAP3 ADD PUSH2 0x4833 JUMP JUMPDEST PUSH1 0x3 DUP5 ADD PUSH1 0x0 MSTORE PUSH1 0x20 PUSH1 0x0 KECCAK256 PUSH1 0x1F DUP5 ADD PUSH1 0x5 SHR DUP2 ADD PUSH1 0x20 DUP6 LT PUSH2 0x48D1 JUMPI JUMPDEST PUSH1 0x1F DUP4 ADD PUSH1 0x5 SHR DUP3 ADD DUP2 LT PUSH2 0x48C5 JUMPI POP POP PUSH2 0x431B JUMP JUMPDEST PUSH1 0x0 DUP2 SSTORE PUSH1 0x1 ADD PUSH2 0x48AF JUMP JUMPDEST POP DUP1 PUSH2 0x48AF JUMP JUMPDEST SWAP3 SWAP2 SWAP1 SWAP4 POP PUSH1 0x8 DUP3 ADD SLOAD PUSH1 0x3C DUP2 ADD DUP1 SWAP2 GT PUSH2 0xD20 JUMPI PUSH2 0x3D41 SWAP5 PUSH1 0x2 PUSH1 0x0 SWAP6 SWAP5 DUP7 SWAP6 SWAP5 PUSH1 0x6 DUP8 SWAP7 PUSH2 0x490B DUP9 SWAP8 TIMESTAMP LT ISZERO PUSH2 0x4021 JUMP JUMPDEST PUSH1 0xFF NOT AND OR SWAP1 SSTORE ADD SLOAD SWAP1 GAS CALL PUSH2 0x10E8 PUSH2 0x414A JUMP JUMPDEST PUSH1 0x1 PUSH1 0x1 PUSH1 0xA0 SHL SUB AND PUSH1 0x0 SWAP1 DUP2 MSTORE PUSH1 0xE PUSH1 0x20 MSTORE PUSH1 0x40 DUP2 KECCAK256 SLOAD ISZERO PUSH2 0x3E72 JUMPI PUSH1 0xD PUSH1 0x20 MSTORE PUSH1 0x40 DUP2 KECCAK256 SLOAD PUSH1 0xE PUSH1 0x20 MSTORE PUSH1 0x40 DUP3 KECCAK256 SLOAD SWAP2 DUP3 ISZERO PUSH2 0x495C JUMPI POP DIV SWAP1 JUMP JUMPDEST PUSH4 0x4E487B71 PUSH1 0xE0 SHL DUP2 MSTORE PUSH1 0x12 PUSH1 0x4 MSTORE PUSH1 0x24 SWAP1 REVERT JUMPDEST ISZERO PUSH2 0x4977 JUMPI JUMP JUMPDEST PUSH1 0x40 MLOAD PUSH3 0x461BCD PUSH1 0xE5 SHL DUP2 MSTORE PUSH1 0x20 PUSH1 0x4 DUP3 ADD MSTORE PUSH1 0xC PUSH1 0x24 DUP3 ADD MSTORE PUSH12 0x139BDD081A5B9D9BDB1D9959 PUSH1 0xA2 SHL PUSH1 0x44 DUP3 ADD MSTORE PUSH1 0x64 SWAP1 REVERT JUMPDEST ISZERO PUSH2 0x49B2 JUMPI JUMP JUMPDEST PUSH1 0x40 MLOAD PUSH3 0x461BCD PUSH1 0xE5 SHL DUP2 MSTORE PUSH1 0x20 PUSH1 0x4 DUP3 ADD MSTORE PUSH1 0x10 PUSH1 0x24 DUP3 ADD MSTORE PUSH16 0x105B1C9958591E481C995CDBDB1D9959 PUSH1 0x82 SHL PUSH1 0x44 DUP3 ADD MSTORE PUSH1 0x64 SWAP1 REVERT JUMPDEST PUSH1 0xFF AND PUSH1 0xFF DUP2 EQ PUSH2 0xD20 JUMPI PUSH1 0x1 ADD SWAP1 JUMP JUMPDEST PUSH1 0x5 DUP3 LT ISZERO PUSH2 0x3F3D JUMPI ADD SWAP1 PUSH1 0x0 SWAP1 JUMP JUMPDEST ISZERO PUSH2 0x4A12 JUMPI JUMP JUMPDEST PUSH1 0x40 MLOAD PUSH3 0x461BCD PUSH1 0xE5 SHL DUP2 MSTORE PUSH1 0x20 PUSH1 0x4 DUP3 ADD MSTORE PUSH1 0xC PUSH1 0x24 DUP3 ADD MSTORE PUSH12 0x139BDD08191A5CDC1D5D1959 PUSH1 0xA2 SHL PUSH1 0x44 DUP3 ADD MSTORE PUSH1 0x64 SWAP1 REVERT JUMPDEST ISZERO PUSH2 0x4A4D JUMPI JUMP JUMPDEST PUSH1 0x40 MLOAD PUSH3 0x461BCD PUSH1 0xE5 SHL DUP2 MSTORE PUSH1 0x20 PUSH1 0x4 DUP3 ADD MSTORE PUSH1 0xA PUSH1 0x24 DUP3 ADD MSTORE PUSH10 0x4E6F2064697370757465 PUSH1 0xB0 SHL PUSH1 0x44 DUP3 ADD MSTORE PUSH1 0x64 SWAP1 REVERT JUMPDEST PUSH1 0x40 MLOAD SWAP1 PUSH2 0x4A8C DUP3 PUSH2 0x3CC5 JUMP JUMPDEST PUSH1 0xC DUP3 MSTORE PUSH12 0x6C6F73745F64697370757465 PUSH1 0xA0 SHL PUSH1 0x20 DUP4 ADD MSTORE JUMP JUMPDEST PUSH1 0x40 MLOAD SWAP1 PUSH2 0x4AB4 DUP3 PUSH2 0x3CC5 JUMP JUMPDEST PUSH1 0xB DUP3 MSTORE PUSH11 0x776F6E5F64697370757465 PUSH1 0xA8 SHL PUSH1 0x20 DUP4 ADD MSTORE JUMP JUMPDEST PUSH1 0x1 PUSH1 0x1 PUSH1 0xA0 SHL SUB AND PUSH1 0x0 DUP2 DUP2 MSTORE PUSH1 0x1 PUSH1 0x20 MSTORE PUSH1 0x40 DUP2 KECCAK256 SLOAD PUSH1 0xFF AND PUSH2 0x4B3D JUMPI DUP1 DUP3 PUSH32 0x5D95448EDAE7BCC3F04CEED898BF2926C2E56C8DE7C6A57D3B90539B1FF037A6 SWAP3 MSTORE DUP1 PUSH1 0x20 MSTORE PUSH1 0x40 DUP2 KECCAK256 PUSH1 0xFF NOT SWAP1 PUSH1 0x50 DUP3 DUP3 SLOAD AND OR SWAP1 SSTORE PUSH1 0x1 PUSH1 0x20 MSTORE PUSH1 0x1 PUSH1 0x40 DUP4 KECCAK256 SWAP2 DUP3 SLOAD AND OR SWAP1 SSTORE DUP1 LOG2 JUMP JUMPDEST PUSH1 0x40 MLOAD PUSH3 0x461BCD PUSH1 0xE5 SHL DUP2 MSTORE PUSH1 0x20 PUSH1 0x4 DUP3 ADD MSTORE PUSH1 0x13 PUSH1 0x24 DUP3 ADD MSTORE PUSH19 0x105B1C9958591E481A5B9A5D1A585B1A5E9959 PUSH1 0x6A SHL PUSH1 0x44 DUP3 ADD MSTORE PUSH1 0x64 SWAP1 REVERT JUMPDEST PUSH1 0xFF PUSH2 0x3E72 SWAP5 SWAP4 DUP2 PUSH1 0x60 SWAP5 AND DUP4 MSTORE AND PUSH1 0x20 DUP3 ADD MSTORE DUP2 PUSH1 0x40 DUP3 ADD MSTORE ADD SWAP1 PUSH2 0x3BFA JUMP JUMPDEST PUSH1 0x1 PUSH1 0x1 PUSH1 0xA0 SHL SUB AND PUSH1 0x0 DUP2 DUP2 MSTORE PUSH1 0x20 DUP2 SWAP1 MSTORE PUSH1 0x40 DUP2 KECCAK256 SLOAD SWAP2 SWAP3 SWAP1 SWAP2 PUSH1 0xFF AND SWAP1 PUSH1 0x5 DUP3 ADD PUSH2 0xFFFF DUP1 DUP3 GT PUSH2 0x4C4E JUMPI PUSH1 0x64 SWAP1 DUP3 AND GT ISZERO PUSH2 0x4C14 JUMPI POP SWAP1 PUSH2 0x4C0F PUSH1 0x0 DUP1 MLOAD PUSH1 0x20 PUSH2 0x4E39 DUP4 CODECOPY DUP2 MLOAD SWAP2 MSTORE SWAP4 SWAP3 PUSH1 0x40 PUSH1 0x64 SWAP5 JUMPDEST DUP8 DUP2 MSTORE DUP1 PUSH1 0x20 MSTORE KECCAK256 PUSH1 0xFF DUP6 AND PUSH1 0xFF NOT DUP3 SLOAD AND OR SWAP1 SSTORE PUSH1 0x40 MLOAD SWAP4 DUP5 SWAP4 DUP5 PUSH2 0x4B78 JUMP JUMPDEST SUB SWAP1 LOG2 JUMP JUMPDEST PUSH1 0xFF DUP2 GT PUSH2 0x4C3A JUMPI PUSH1 0x0 DUP1 MLOAD PUSH1 0x20 PUSH2 0x4E39 DUP4 CODECOPY DUP2 MLOAD SWAP2 MSTORE SWAP4 SWAP3 SWAP2 PUSH1 0x40 PUSH2 0x4C0F SWAP3 SWAP5 PUSH2 0x4BEE JUMP JUMPDEST PUSH4 0x4E487B71 PUSH1 0xE0 SHL DUP5 MSTORE PUSH1 0x11 PUSH1 0x4 MSTORE PUSH1 0x24 DUP5 REVERT JUMPDEST PUSH4 0x4E487B71 PUSH1 0xE0 SHL DUP6 MSTORE PUSH1 0x11 PUSH1 0x4 MSTORE PUSH1 0x24 DUP6 REVERT JUMPDEST PUSH1 0x1 PUSH1 0x1 PUSH1 0xA0 SHL SUB AND PUSH1 0x0 DUP2 DUP2 MSTORE PUSH1 0x20 DUP2 SWAP1 MSTORE PUSH1 0x40 DUP2 KECCAK256 SLOAD SWAP2 SWAP3 SWAP1 SWAP2 PUSH1 0xFF AND SWAP1 PUSH1 0xA DUP3 ADD PUSH2 0xFFFF DUP1 DUP3 GT PUSH2 0x4C4E JUMPI PUSH1 0x64 SWAP1 DUP3 AND GT ISZERO PUSH2 0x4C14 JUMPI POP SWAP1 PUSH2 0x4C0F PUSH1 0x0 DUP1 MLOAD PUSH1 0x20 PUSH2 0x4E39 DUP4 CODECOPY DUP2 MLOAD SWAP2 MSTORE SWAP4 SWAP3 PUSH1 0x40 PUSH1 0x64 SWAP5 DUP8 DUP2 MSTORE DUP1 PUSH1 0x20 MSTORE KECCAK256 PUSH1 0xFF DUP6 AND PUSH1 0xFF NOT DUP3 SLOAD AND OR SWAP1 SSTORE PUSH1 0x40 MLOAD SWAP4 DUP5 SWAP4 DUP5 PUSH2 0x4B78 JUMP JUMPDEST PUSH1 0x1 PUSH1 0x1 PUSH1 0xA0 SHL SUB AND PUSH1 0x0 DUP2 DUP2 MSTORE PUSH1 0x20 DUP2 SWAP1 MSTORE PUSH1 0x40 DUP2 KECCAK256 SLOAD SWAP2 SWAP3 SWAP1 SWAP2 PUSH1 0xFF AND SWAP1 PUSH1 0xA DUP3 GT PUSH2 0x4D39 JUMPI SWAP1 PUSH2 0x4C0F DUP4 SWAP3 PUSH1 0x40 PUSH1 0x0 DUP1 MLOAD PUSH1 0x20 PUSH2 0x4E39 DUP4 CODECOPY DUP2 MLOAD SWAP2 MSTORE SWAP6 SWAP5 DUP8 DUP2 MSTORE DUP1 PUSH1 0x20 MSTORE KECCAK256 PUSH1 0xFF DUP6 AND PUSH1 0xFF NOT DUP3 SLOAD AND OR SWAP1 SSTORE PUSH1 0x40 MLOAD SWAP4 DUP5 SWAP4 DUP5 PUSH2 0x4B78 JUMP JUMPDEST PUSH1 0x9 NOT DUP3 ADD PUSH1 0xFF DUP2 GT PUSH2 0x4C3A JUMPI PUSH1 0x0 DUP1 MLOAD PUSH1 0x20 PUSH2 0x4E39 DUP4 CODECOPY DUP2 MLOAD SWAP2 MSTORE SWAP4 SWAP3 SWAP2 PUSH1 0x40 PUSH2 0x4C0F SWAP3 SWAP5 PUSH2 0x4BEE JUMP JUMPDEST PUSH1 0x1 DUP1 PUSH1 0xA0 SHL SUB AND PUSH1 0x0 MSTORE PUSH1 0x0 PUSH1 0x20 MSTORE PUSH1 0x50 PUSH1 0xFF PUSH1 0x40 PUSH1 0x0 KECCAK256 SLOAD AND LT ISZERO SWAP1 JUMP JUMPDEST PUSH1 0x2 SLOAD DUP2 LT ISZERO PUSH2 0x3F3D JUMPI PUSH1 0x2 PUSH1 0x0 MSTORE PUSH1 0x20 PUSH1 0x0 KECCAK256 ADD SWAP1 PUSH1 0x0 SWAP1 JUMP JUMPDEST PUSH1 0x1 PUSH1 0x1 PUSH1 0xA0 SHL SUB DUP2 AND PUSH1 0x0 DUP2 DUP2 MSTORE PUSH1 0x3 PUSH1 0x20 MSTORE PUSH1 0x40 DUP2 KECCAK256 SLOAD SWAP1 SWAP3 SWAP1 PUSH1 0xFF AND ISZERO PUSH2 0x4DC8 JUMPI POP POP POP JUMP JUMPDEST PUSH1 0x2 SLOAD PUSH1 0x1 PUSH1 0x40 SHL DUP2 LT ISZERO PUSH2 0x4E04 JUMPI PUSH1 0x40 SWAP4 SWAP3 SWAP2 PUSH2 0x2CBF DUP3 PUSH1 0x1 PUSH2 0x4DEF SWAP5 ADD PUSH1 0x2 SSTORE PUSH2 0x4D84 JUMP JUMPDEST DUP2 MSTORE PUSH1 0x3 PUSH1 0x20 MSTORE KECCAK256 DUP1 SLOAD PUSH1 0xFF NOT AND PUSH1 0x1 OR SWAP1 SSTORE JUMP JUMPDEST PUSH4 0x4E487B71 PUSH1 0xE0 SHL DUP5 MSTORE PUSH1 0x41 PUSH1 0x4 MSTORE PUSH1 0x24 DUP5 REVERT INVALID 0xD4 0xDF 0xC 0xB9 PUSH10 0xB99D25F121A3E9C7F32D DUP16 0xCC GAS 0xD PUSH25 0x2408695F68DE9493DB8CC177BBF5EE5EEE34326C6C2D38C9B7 0xCE 0xEB PUSH27 0x8E3EE460657A93DD17FAC3E82B141D57A264697066735822122016 BYTE 0xC1 PUSH32 0x1628FC3B08861D51399B09DFB773C942B5210CF6C889D99E8E5E45B464736F6C PUSH4 0x43000814 STOP CALLER "},"methodIdentifiers":{"APPROVE_TIMEOUT()":"4f0db622","FUND_TIMEOUT()":"3dc9fe42","INIT_SCORE()":"247bc4a7","MAX_SCORE()":"27ff6223","MIN_SCORE()":"40b89270","SCAM_THRESHOLD()":"2488b2ee","SERIAL_CANCEL_THRESHOLD()":"e72f73a8","SUBMIT_TIMEOUT()":"5d5a373c","VOTER_THRESHOLD()":"9ec0164a","VOTE_DURATION()":"4654ff05","acceptJob(uint256)":"63b2f3c9","approveJob(uint256,uint8,string)":"771dd581","autoReleaseIfNotApproved(uint256)":"c5f8e299","badgeCount(address,uint256)":"2d592865","cancelIfNotStarted(uint256)":"ca62fafd","cancelIfNotSubmitted(uint256)":"66c910c8","cancelJob(uint256)":"1dffa3dc","castVote(uint256,bool)":"15373e3d","createJob(string,uint256,uint256,uint256,uint256)":"cbf78ee6","disputes(uint256)":"564a565d","feedbacks(uint256)":"2bb8b0dc","fundJob(uint256)":"8d22b863","getBadgeCount(address,uint8)":"8721ba3f","getBadges(address)":"03828e45","getDisputeVoters(uint256)":"1732d652","getMyRole()":"6e3b47fc","getRating(address)":"80fc9c0e","getVoteCount(uint256)":"b2c2f2e8","hasVoted(uint256,address)":"43859632","isEligibleVoter(address)":"4225e7f4","isScammer(address)":"69c04c44","jobCount()":"4c5d8a0f","jobs(uint256)":"180aedf3","raiseDispute(uint256,string)":"5aef573c","ratingCount(address)":"2404165e","registerClient()":"6d9fb287","registerWorker()":"208082bf","reputationScore(address)":"50d061cb","resolveDispute(uint256)":"c2b7b868","roles(address)":"99374642","startWork(uint256)":"03a250f9","submitCounterEvidence(uint256,string)":"d0d24142","submitWork(uint256,string)":"da8accf9","totalRating(address)":"4807632f","voteChoice(uint256,address)":"fb468855"}}}}}