{"contracts/BadgeManager.sol":{"BadgeManager":{"abi":[{"anonymous":false,"inputs":[{"indexed":true,"internalType":"address","name":"user","type":"address"},{"indexed":true,"internalType":"enum BadgeManager.BadgeType","name":"badgeType","type":"uint8"},{"indexed":false,"internalType":"uint256","name":"jobId","type":"uint256"}],"name":"BadgeAwarded","type":"event"},{"inputs":[],"name":"SCAM_THRESHOLD","outputs":[{"internalType":"uint256","name":"","type":"uint256"}],"stateMutability":"view","type":"function"},{"inputs":[],"name":"SERIAL_CANCEL_THRESHOLD","outputs":[{"internalType":"uint256","name":"","type":"uint256"}],"stateMutability":"view","type":"function"},{"inputs":[{"internalType":"address","name":"","type":"address"},{"internalType":"uint256","name":"","type":"uint256"}],"name":"badgeCount","outputs":[{"internalType":"uint256","name":"","type":"uint256"}],"stateMutability":"view","type":"function"},{"inputs":[{"internalType":"address","name":"user","type":"address"},{"internalType":"enum BadgeManager.BadgeType","name":"badgeType","type":"uint8"}],"name":"getBadgeCount","outputs":[{"internalType":"uint256","name":"","type":"uint256"}],"stateMutability":"view","type":"function"},{"inputs":[{"internalType":"address","name":"user","type":"address"}],"name":"getBadges","outputs":[{"internalType":"enum BadgeManager.BadgeType[]","name":"types","type":"uint8[]"},{"internalType":"uint256[]","name":"jobIds","type":"uint256[]"},{"internalType":"uint256[]","name":"timestamps","type":"uint256[]"},{"internalType":"string[]","name":"notes","type":"string[]"}],"stateMutability":"view","type":"function"},{"inputs":[{"internalType":"address","name":"user","type":"address"}],"name":"isScammer","outputs":[{"internalType":"bool","name":"","type":"bool"}],"stateMutability":"view","type":"function"}],"evm":{"bytecode":{"linkReferences":{},"object":"6080806040523461001657610616908161001c8239f35b600080fdfe6080604052600436101561001257600080fd5b60003560e01c806303828e451461017e5780632488b2ee146101625780632d5928651461011a57806369c04c44146100d15780638721ba3f1461007f5763e72f73a81461005e57600080fd5b3461007a57600036600319011261007a57602060405160038152f35b600080fd5b3461007a57604036600319011261007a576100986104ce565b60243590600d82101561007a5760018060a01b031660005260016020526040600020906000526020526020604060002054604051908152f35b3461007a57602036600319011261007a576001600160a01b036100f26104ce565b1660005260016020526040600020600960005260205260206040600020541515604051908152f35b3461007a57604036600319011261007a576001600160a01b0361013b6104ce565b16600052600160205260406000206024356000526020526020604060002054604051908152f35b3461007a57600036600319011261007a57602060405160058152f35b3461007a57602036600319011261007a576001600160a01b0361019f6104ce565b166000526000602052604060002080546101b881610551565b906101c66040519283610518565b808252601f196101d582610551565b013660208401376101e581610568565b916101ef82610568565b916101f981610551565b946102076040519687610518565b818652601f1961021683610551565b0160005b8181106104bd57505060005b828110610345575050506040519260808401608085528251809152602060a086019301906000905b80821061030c575050508161026e918561027c95940360208701526104e4565b9083820360408501526104e4565b918183036060830152805180845260208401906020808260051b8701019301916000955b8287106102ad5785850386f35b90919293601f19828203018352845180519081835260005b8281106102f757505060208083836000838096600198010152601f8019910116010196019301960195909291926102a0565b806020809284010151828287010152016102c5565b909193845190600d82101561032f5760208160019382935201950192019061024e565b634e487b7160e01b600052602160045260246000fd5b60ff610351828461059a565b50541661035e82866105cc565b600d82101561032f57526001610374828461059a565b50015461038182886105cc565b52600261038e828461059a565b50015461039b82876105cc565b526103a6818361059a565b506040519060006003820154908160011c9260018316156104b3575b60208410600184161461049d5783855284926001811690811561047b5750600114610432575b506103f592500382610518565b6103ff82896105cc565b5261040a81886105cc565b50600019811461041c57600101610226565b634e487b7160e01b600052601160045260246000fd5b90506003915001600052816020600020916000925b81841061045f57505060206103f5928201018b6103e8565b6020919250806001915483868801015201920191908391610447565b9050602092506103f594915060ff191682840152151560051b8201018b6103e8565b634e487b7160e01b600052602260045260246000fd5b92607f16926103c2565b806060602080938b0101520161021a565b600435906001600160a01b038216820361007a57565b90815180825260208080930193019160005b828110610504575050505090565b8351855293810193928101926001016104f6565b601f909101601f19168101906001600160401b0382119082101761053b57604052565b634e487b7160e01b600052604160045260246000fd5b6001600160401b03811161053b5760051b60200190565b9061057282610551565b61057f6040519182610518565b8281528092610590601f1991610551565b0190602036910137565b80548210156105b65760005260206000209060021b0190600090565b634e487b7160e01b600052603260045260246000fd5b80518210156105b65760209160051b01019056fea2646970667358221220ddde7e8bb4edea425fa81bfc3c494b7ddaaaf3910627b98abb86e73b2c70731064736f6c63430008140033","opcodes":"PUSH1 0x80 DUP1 PUSH1 0x40 MSTORE CALLVALUE PUSH2 0x16 JUMPI PUSH2 0x616 SWAP1 DUP2 PUSH2 0x1C DUP3 CODECOPY RETURN JUMPDEST PUSH1 0x0 DUP1 REVERT INVALID PUSH1 0x80 PUSH1 0x40 MSTORE PUSH1 0x4 CALLDATASIZE LT ISZERO PUSH2 0x12 JUMPI PUSH1 0x0 DUP1 REVERT JUMPDEST PUSH1 0x0 CALLDATALOAD PUSH1 0xE0 SHR DUP1 PUSH4 0x3828E45 EQ PUSH2 0x17E JUMPI DUP1 PUSH4 0x2488B2EE EQ PUSH2 0x162 JUMPI DUP1 PUSH4 0x2D592865 EQ PUSH2 0x11A JUMPI DUP1 PUSH4 0x69C04C44 EQ PUSH2 0xD1 JUMPI DUP1 PUSH4 0x8721BA3F EQ PUSH2 0x7F JUMPI PUSH4 0xE72F73A8 EQ PUSH2 0x5E JUMPI PUSH1 0x0 DUP1 REVERT JUMPDEST CALLVALUE PUSH2 0x7A JUMPI PUSH1 0x0 CALLDATASIZE PUSH1 0x3 NOT ADD SLT PUSH2 0x7A JUMPI PUSH1 0x20 PUSH1 0x40 MLOAD PUSH1 0x3 DUP2 MSTORE RETURN JUMPDEST PUSH1 0x0 DUP1 REVERT JUMPDEST CALLVALUE PUSH2 0x7A JUMPI PUSH1 0x40 CALLDATASIZE PUSH1 0x3 NOT ADD SLT PUSH2 0x7A JUMPI PUSH2 0x98 PUSH2 0x4CE JUMP JUMPDEST PUSH1 0x24 CALLDATALOAD SWAP1 PUSH1 0xD DUP3 LT ISZERO PUSH2 0x7A JUMPI PUSH1 0x1 DUP1 PUSH1 0xA0 SHL SUB AND PUSH1 0x0 MSTORE PUSH1 0x1 PUSH1 0x20 MSTORE PUSH1 0x40 PUSH1 0x0 KECCAK256 SWAP1 PUSH1 0x0 MSTORE PUSH1 0x20 MSTORE PUSH1 0x20 PUSH1 0x40 PUSH1 0x0 KECCAK256 SLOAD PUSH1 0x40 MLOAD SWAP1 DUP2 MSTORE RETURN JUMPDEST CALLVALUE PUSH2 0x7A JUMPI PUSH1 0x20 CALLDATASIZE PUSH1 0x3 NOT ADD SLT PUSH2 0x7A JUMPI PUSH1 0x1 PUSH1 0x1 PUSH1 0xA0 SHL SUB PUSH2 0xF2 PUSH2 0x4CE JUMP JUMPDEST AND PUSH1 0x0 MSTORE PUSH1 0x1 PUSH1 0x20 MSTORE PUSH1 0x40 PUSH1 0x0 KECCAK256 PUSH1 0x9 PUSH1 0x0 MSTORE PUSH1 0x20 MSTORE PUSH1 0x20 PUSH1 0x40 PUSH1 0x0 KECCAK256 SLOAD ISZERO ISZERO PUSH1 0x40 MLOAD SWAP1 DUP2 MSTORE RETURN JUMPDEST CALLVALUE PUSH2 0x7A JUMPI PUSH1 0x40 CALLDATASIZE PUSH1 0x3 NOT ADD SLT PUSH2 0x7A JUMPI PUSH1 0x1 PUSH1 0x1 PUSH1 0xA0 SHL SUB PUSH2 0x13B PUSH2 0x4CE JUMP JUMPDEST AND PUSH1 0x0 MSTORE PUSH1 0x1 PUSH1 0x20 MSTORE PUSH1 0x40 PUSH1 0x0 KECCAK256 PUSH1 0x24 CALLDATALOAD PUSH1 0x0 MSTORE PUSH1 0x20 MSTORE PUSH1 0x20 PUSH1 0x40 PUSH1 0x0 KECCAK256 SLOAD PUSH1 0x40 MLOAD SWAP1 DUP2 MSTORE RETURN JUMPDEST CALLVALUE PUSH2 0x7A JUMPI PUSH1 0x0 CALLDATASIZE PUSH1 0x3 NOT ADD SLT PUSH2 0x7A JUMPI PUSH1 0x20 PUSH1 0x40 MLOAD PUSH1 0x5 DUP2 MSTORE RETURN JUMPDEST CALLVALUE PUSH2 0x7A JUMPI PUSH1 0x20 CALLDATASIZE PUSH1 0x3 NOT ADD SLT PUSH2 0x7A JUMPI PUSH1 0x1 PUSH1 0x1 PUSH1 0xA0 SHL SUB PUSH2 0x19F PUSH2 0x4CE JUMP JUMPDEST AND PUSH1 0x0 MSTORE PUSH1 0x0 PUSH1 0x20 MSTORE PUSH1 0x40 PUSH1 0x0 KECCAK256 DUP1 SLOAD PUSH2 0x1B8 DUP2 PUSH2 0x551 JUMP JUMPDEST SWAP1 PUSH2 0x1C6 PUSH1 0x40 MLOAD SWAP3 DUP4 PUSH2 0x518 JUMP JUMPDEST DUP1 DUP3 MSTORE PUSH1 0x1F NOT PUSH2 0x1D5 DUP3 PUSH2 0x551 JUMP JUMPDEST ADD CALLDATASIZE PUSH1 0x20 DUP5 ADD CALLDATACOPY PUSH2 0x1E5 DUP2 PUSH2 0x568 JUMP JUMPDEST SWAP2 PUSH2 0x1EF DUP3 PUSH2 0x568 JUMP JUMPDEST SWAP2 PUSH2 0x1F9 DUP2 PUSH2 0x551 JUMP JUMPDEST SWAP5 PUSH2 0x207 PUSH1 0x40 MLOAD SWAP7 DUP8 PUSH2 0x518 JUMP JUMPDEST DUP2 DUP7 MSTORE PUSH1 0x1F NOT PUSH2 0x216 DUP4 PUSH2 0x551 JUMP JUMPDEST ADD PUSH1 0x0 JUMPDEST DUP2 DUP2 LT PUSH2 0x4BD JUMPI POP POP PUSH1 0x0 JUMPDEST DUP3 DUP2 LT PUSH2 0x345 JUMPI POP POP POP PUSH1 0x40 MLOAD SWAP3 PUSH1 0x80 DUP5 ADD PUSH1 0x80 DUP6 MSTORE DUP3 MLOAD DUP1 SWAP2 MSTORE PUSH1 0x20 PUSH1 0xA0 DUP7 ADD SWAP4 ADD SWAP1 PUSH1 0x0 SWAP1 JUMPDEST DUP1 DUP3 LT PUSH2 0x30C JUMPI POP POP POP DUP2 PUSH2 0x26E SWAP2 DUP6 PUSH2 0x27C SWAP6 SWAP5 SUB PUSH1 0x20 DUP8 ADD MSTORE PUSH2 0x4E4 JUMP JUMPDEST SWAP1 DUP4 DUP3 SUB PUSH1 0x40 DUP6 ADD MSTORE PUSH2 0x4E4 JUMP JUMPDEST SWAP2 DUP2 DUP4 SUB PUSH1 0x60 DUP4 ADD MSTORE DUP1 MLOAD DUP1 DUP5 MSTORE PUSH1 0x20 DUP5 ADD SWAP1 PUSH1 0x20 DUP1 DUP3 PUSH1 0x5 SHL DUP8 ADD ADD SWAP4 ADD SWAP2 PUSH1 0x0 SWAP6 JUMPDEST DUP3 DUP8 LT PUSH2 0x2AD JUMPI DUP6 DUP6 SUB DUP7 RETURN JUMPDEST SWAP1 SWAP2 SWAP3 SWAP4 PUSH1 0x1F NOT DUP3 DUP3 SUB ADD DUP4 MSTORE DUP5 MLOAD DUP1 MLOAD SWAP1 DUP2 DUP4 MSTORE PUSH1 0x0 JUMPDEST DUP3 DUP2 LT PUSH2 0x2F7 JUMPI POP POP PUSH1 0x20 DUP1 DUP4 DUP4 PUSH1 0x0 DUP4 DUP1 SWAP7 PUSH1 0x1 SWAP9 ADD ADD MSTORE PUSH1 0x1F DUP1 NOT SWAP2 ADD AND ADD ADD SWAP7 ADD SWAP4 ADD SWAP7 ADD SWAP6 SWAP1 SWAP3 SWAP2 SWAP3 PUSH2 0x2A0 JUMP JUMPDEST DUP1 PUSH1 0x20 DUP1 SWAP3 DUP5 ADD ADD MLOAD DUP3 DUP3 DUP8 ADD ADD MSTORE ADD PUSH2 0x2C5 JUMP JUMPDEST SWAP1 SWAP2 SWAP4 DUP5 MLOAD SWAP1 PUSH1 0xD DUP3 LT ISZERO PUSH2 0x32F JUMPI PUSH1 0x20 DUP2 PUSH1 0x1 SWAP4 DUP3 SWAP4 MSTORE ADD SWAP6 ADD SWAP3 ADD SWAP1 PUSH2 0x24E JUMP JUMPDEST PUSH4 0x4E487B71 PUSH1 0xE0 SHL PUSH1 0x0 MSTORE PUSH1 0x21 PUSH1 0x4 MSTORE PUSH1 0x24 PUSH1 0x0 REVERT JUMPDEST PUSH1 0xFF PUSH2 0x351 DUP3 DUP5 PUSH2 0x59A JUMP JUMPDEST POP SLOAD AND PUSH2 0x35E DUP3 DUP7 PUSH2 0x5CC JUMP JUMPDEST PUSH1 0xD DUP3 LT ISZERO PUSH2 0x32F JUMPI MSTORE PUSH1 0x1 PUSH2 0x374 DUP3 DUP5 PUSH2 0x59A JUMP JUMPDEST POP ADD SLOAD PUSH2 0x381 DUP3 DUP9 PUSH2 0x5CC JUMP JUMPDEST MSTORE PUSH1 0x2 PUSH2 0x38E DUP3 DUP5 PUSH2 0x59A JUMP JUMPDEST POP ADD SLOAD PUSH2 0x39B DUP3 DUP8 PUSH2 0x5CC JUMP JUMPDEST MSTORE PUSH2 0x3A6 DUP2 DUP4 PUSH2 0x59A JUMP JUMPDEST POP PUSH1 0x40 MLOAD SWAP1 PUSH1 0x0 PUSH1 0x3 DUP3 ADD SLOAD SWAP1 DUP2 PUSH1 0x1 SHR SWAP3 PUSH1 0x1 DUP4 AND ISZERO PUSH2 0x4B3 JUMPI JUMPDEST PUSH1 0x20 DUP5 LT PUSH1 0x1 DUP5 AND EQ PUSH2 0x49D JUMPI DUP4 DUP6 MSTORE DUP5 SWAP3 PUSH1 0x1 DUP2 AND SWAP1 DUP2 ISZERO PUSH2 0x47B JUMPI POP PUSH1 0x1 EQ PUSH2 0x432 JUMPI JUMPDEST POP PUSH2 0x3F5 SWAP3 POP SUB DUP3 PUSH2 0x518 JUMP JUMPDEST PUSH2 0x3FF DUP3 DUP10 PUSH2 0x5CC JUMP JUMPDEST MSTORE PUSH2 0x40A DUP2 DUP9 PUSH2 0x5CC JUMP JUMPDEST POP PUSH1 0x0 NOT DUP2 EQ PUSH2 0x41C JUMPI PUSH1 0x1 ADD PUSH2 0x226 JUMP JUMPDEST PUSH4 0x4E487B71 PUSH1 0xE0 SHL PUSH1 0x0 MSTORE PUSH1 0x11 PUSH1 0x4 MSTORE PUSH1 0x24 PUSH1 0x0 REVERT JUMPDEST SWAP1 POP PUSH1 0x3 SWAP2 POP ADD PUSH1 0x0 MSTORE DUP2 PUSH1 0x20 PUSH1 0x0 KECCAK256 SWAP2 PUSH1 0x0 SWAP3 JUMPDEST DUP2 DUP5 LT PUSH2 0x45F JUMPI POP POP PUSH1 0x20 PUSH2 0x3F5 SWAP3 DUP3 ADD ADD DUP12 PUSH2 0x3E8 JUMP JUMPDEST PUSH1 0x20 SWAP2 SWAP3 POP DUP1 PUSH1 0x1 SWAP2 SLOAD DUP4 DUP7 DUP9 ADD ADD MSTORE ADD SWAP3 ADD SWAP2 SWAP1 DUP4 SWAP2 PUSH2 0x447 JUMP JUMPDEST SWAP1 POP PUSH1 0x20 SWAP3 POP PUSH2 0x3F5 SWAP5 SWAP2 POP PUSH1 0xFF NOT AND DUP3 DUP5 ADD MSTORE ISZERO ISZERO PUSH1 0x5 SHL DUP3 ADD ADD DUP12 PUSH2 0x3E8 JUMP JUMPDEST PUSH4 0x4E487B71 PUSH1 0xE0 SHL PUSH1 0x0 MSTORE PUSH1 0x22 PUSH1 0x4 MSTORE PUSH1 0x24 PUSH1 0x0 REVERT JUMPDEST SWAP3 PUSH1 0x7F AND SWAP3 PUSH2 0x3C2 JUMP JUMPDEST DUP1 PUSH1 0x60 PUSH1 0x20 DUP1 SWAP4 DUP12 ADD ADD MSTORE ADD PUSH2 0x21A JUMP JUMPDEST PUSH1 0x4 CALLDATALOAD SWAP1 PUSH1 0x1 PUSH1 0x1 PUSH1 0xA0 SHL SUB DUP3 AND DUP3 SUB PUSH2 0x7A JUMPI JUMP JUMPDEST SWAP1 DUP2 MLOAD DUP1 DUP3 MSTORE PUSH1 0x20 DUP1 DUP1 SWAP4 ADD SWAP4 ADD SWAP2 PUSH1 0x0 JUMPDEST DUP3 DUP2 LT PUSH2 0x504 JUMPI POP POP POP POP SWAP1 JUMP JUMPDEST DUP4 MLOAD DUP6 MSTORE SWAP4 DUP2 ADD SWAP4 SWAP3 DUP2 ADD SWAP3 PUSH1 0x1 ADD PUSH2 0x4F6 JUMP JUMPDEST PUSH1 0x1F SWAP1 SWAP2 ADD PUSH1 0x1F NOT AND DUP2 ADD SWAP1 PUSH1 0x1 PUSH1 0x1 PUSH1 0x40 SHL SUB DUP3 GT SWAP1 DUP3 LT OR PUSH2 0x53B JUMPI PUSH1 0x40 MSTORE JUMP JUMPDEST PUSH4 0x4E487B71 PUSH1 0xE0 SHL PUSH1 0x0 MSTORE PUSH1 0x41 PUSH1 0x4 MSTORE PUSH1 0x24 PUSH1 0x0 REVERT JUMPDEST PUSH1 0x1 PUSH1 0x1 PUSH1 0x40 SHL SUB DUP2 GT PUSH2 0x53B JUMPI PUSH1 0x5 SHL PUSH1 0x20 ADD SWAP1 JUMP JUMPDEST SWAP1 PUSH2 0x572 DUP3 PUSH2 0x551 JUMP JUMPDEST PUSH2 0x57F PUSH1 0x40 MLOAD SWAP2 DUP3 PUSH2 0x518 JUMP JUMPDEST DUP3 DUP2 MSTORE DUP1 SWAP3 PUSH2 0x590 PUSH1 0x1F NOT SWAP2 PUSH2 0x551 JUMP JUMPDEST ADD SWAP1 PUSH1 0x20 CALLDATASIZE SWAP2 ADD CALLDATACOPY JUMP JUMPDEST DUP1 SLOAD DUP3 LT ISZERO PUSH2 0x5B6 JUMPI PUSH1 0x0 MSTORE PUSH1 0x20 PUSH1 0x0 KECCAK256 SWAP1 PUSH1 0x2 SHL ADD SWAP1 PUSH1 0x0 SWAP1 JUMP JUMPDEST PUSH4 0x4E487B71 PUSH1 0xE0 SHL PUSH1 0x0 MSTORE PUSH1 0x32 PUSH1 0x4 MSTORE PUSH1 0x24 PUSH1 0x0 REVERT JUMPDEST DUP1 MLOAD DUP3 LT ISZERO PUSH2 0x5B6 JUMPI PUSH1 0x20 SWAP2 PUSH1 0x5 SHL ADD ADD SWAP1 JUMP INVALID LOG2 PUSH5 0x6970667358 0x22 SLT KECCAK256 0xDD 0xDE PUSH31 0x8BB4EDEA425FA81BFC3C494B7DDAAAF3910627B98ABB86E73B2C7073106473 PUSH16 0x6C634300081400330000000000000000 "},"methodIdentifiers":{"SCAM_THRESHOLD()":"2488b2ee","SERIAL_CANCEL_THRESHOLD()":"e72f73a8","badgeCount(address,uint256)":"2d592865","getBadgeCount(address,uint8)":"8721ba3f","getBadges(address)":"03828e45","isScammer(address)":"69c04c44"}}}}}