{"contracts/Auth.sol":{"Auth":{"abi":[{"anonymous":false,"inputs":[{"indexed":true,"internalType":"address","name":"user","type":"address"},{"indexed":false,"internalType":"uint8","name":"oldScore","type":"uint8"},{"indexed":false,"internalType":"uint8","name":"newScore","type":"uint8"},{"indexed":false,"internalType":"string","name":"reason","type":"string"}],"name":"ScoreChanged","type":"event"},{"anonymous":false,"inputs":[{"indexed":true,"internalType":"address","name":"user","type":"address"}],"name":"ScoreInitialized","type":"event"},{"inputs":[],"name":"INIT_SCORE","outputs":[{"internalType":"uint8","name":"","type":"uint8"}],"stateMutability":"view","type":"function"},{"inputs":[],"name":"MAX_SCORE","outputs":[{"internalType":"uint8","name":"","type":"uint8"}],"stateMutability":"view","type":"function"},{"inputs":[],"name":"MIN_SCORE","outputs":[{"internalType":"uint8","name":"","type":"uint8"}],"stateMutability":"view","type":"function"},{"inputs":[],"name":"VOTER_THRESHOLD","outputs":[{"internalType":"uint8","name":"","type":"uint8"}],"stateMutability":"view","type":"function"},{"inputs":[],"name":"getMyRole","outputs":[{"internalType":"enum Auth.Role","name":"","type":"uint8"}],"stateMutability":"view","type":"function"},{"inputs":[{"internalType":"address","name":"user","type":"address"}],"name":"isEligibleVoter","outputs":[{"internalType":"bool","name":"","type":"bool"}],"stateMutability":"view","type":"function"},{"inputs":[],"name":"registerClient","outputs":[],"stateMutability":"nonpayable","type":"function"},{"inputs":[],"name":"registerWorker","outputs":[],"stateMutability":"nonpayable","type":"function"},{"inputs":[{"internalType":"address","name":"","type":"address"}],"name":"reputationScore","outputs":[{"internalType":"uint8","name":"","type":"uint8"}],"stateMutability":"view","type":"function"},{"inputs":[{"internalType":"address","name":"","type":"address"}],"name":"roles","outputs":[{"internalType":"enum Auth.Role","name":"","type":"uint8"}],"stateMutability":"view","type":"function"}],"evm":{"bytecode":{"linkReferences":{},"object":"6080806040523461001657610482908161001c8239f35b600080fdfe6040608081526004908136101561001557600080fd5b600090813560e01c928363208082bf14610213578363247bc4a71461009357836327ff62231461009357836340b89270146101f55783634225e7f4146101b757836350d061cb1461017d5783636d9fb287146101115783636e3b47fc146100e5578363993746421461009857505050639ec0164a1461009357600080fd5b610260565b346100e15760203660031901126100e15780356001600160a01b038116908190036100dd578360ff9284926100d99652602052205416905191829182610281565b0390f35b8380fd5b8280fd5b346100e157826003193601126100e157816100d99360ff92338252602052205416905191829182610281565b346100e157826003193601126100e1573383528060205260ff8284205416600381101561016a5761014290156102aa565b3383526020528120600160ff1982541617905561015e336102eb565b61016733610395565b80f35b634e487b7160e01b845260218252602484fd5b346100e15760203660031901126100e157356001600160a01b038116908190036100e157818360ff92602095528085522054169051908152f35b346100e15760203660031901126100e157356001600160a01b038116908190036100e15760ff82846064936020965280865220541610159051908152f35b503461020f578160031936011261020f5751908152602090f35b5080fd5b346100e157826003193601126100e1573383528060205260ff8284205416600381101561016a5761024490156102aa565b3383526020528120600260ff1982541617905561015e336102eb565b3461027c57600036600319011261027c57602060405160648152f35b600080fd5b9190602083019260038210156102945752565b634e487b7160e01b600052602160045260246000fd5b156102b157565b60405162461bcd60e51b8152602060048201526012602482015271105b1c9958591e481c9959da5cdd195c995960721b6044820152606490fd5b6001600160a01b031660008181526001602052604081205460ff1661035a5780827f5d95448edae7bcc3f04ceed898bf2926c2e56c8de7c6a57d3b90539b1ff037a69252806020526040812060ff199060648282541617905560016020526001604083209182541617905580a2565b60405162461bcd60e51b8152602060048201526013602482015272105b1c9958591e481a5b9a5d1a585b1a5e9959606a1b6044820152606490fd5b6001600160a01b031660008181526003602052604081205490919060ff16156103bc575050565b600254600160401b811015610438576001810180600255811015610424577f405787fa12a823e0f2b7631cc41b3ba8828b3321ca811111fa75cd3aa3bb5ace0180546001600160a01b031916821790558152600360205260409020805460ff19166001179055565b634e487b7160e01b83526032600452602483fd5b634e487b7160e01b83526041600452602483fdfea264697066735822122088b0082d4d7e200dc0b09fc1c3c679f5a86517b8c5830c28f90e9af361816c9e64736f6c63430008140033","opcodes":"PUSH1 0x80 DUP1 PUSH1 0x40 MSTORE CALLVALUE PUSH2 0x16 JUMPI PUSH2 0x482 SWAP1 DUP2 PUSH2 0x1C DUP3 CODECOPY RETURN JUMPDEST PUSH1 0x0 DUP1 REVERT INVALID PUSH1 0x40 PUSH1 0x80 DUP2 MSTORE PUSH1 0x4 SWAP1 DUP2 CALLDATASIZE LT ISZERO PUSH2 0x15 JUMPI PUSH1 0x0 DUP1 REVERT JUMPDEST PUSH1 0x0 SWAP1 DUP2 CALLDATALOAD PUSH1 0xE0 SHR SWAP3 DUP4 PUSH4 0x208082BF EQ PUSH2 0x213 JUMPI DUP4 PUSH4 0x247BC4A7 EQ PUSH2 0x93 JUMPI DUP4 PUSH4 0x27FF6223 EQ PUSH2 0x93 JUMPI DUP4 PUSH4 0x40B89270 EQ PUSH2 0x1F5 JUMPI DUP4 PUSH4 0x4225E7F4 EQ PUSH2 0x1B7 JUMPI DUP4 PUSH4 0x50D061CB EQ PUSH2 0x17D JUMPI DUP4 PUSH4 0x6D9FB287 EQ PUSH2 0x111 JUMPI DUP4 PUSH4 0x6E3B47FC EQ PUSH2 0xE5 JUMPI DUP4 PUSH4 0x99374642 EQ PUSH2 0x98 JUMPI POP POP POP PUSH4 0x9EC0164A EQ PUSH2 0x93 JUMPI PUSH1 0x0 DUP1 REVERT JUMPDEST PUSH2 0x260 JUMP JUMPDEST CALLVALUE PUSH2 0xE1 JUMPI PUSH1 0x20 CALLDATASIZE PUSH1 0x3 NOT ADD SLT PUSH2 0xE1 JUMPI DUP1 CALLDATALOAD PUSH1 0x1 PUSH1 0x1 PUSH1 0xA0 SHL SUB DUP2 AND SWAP1 DUP2 SWAP1 SUB PUSH2 0xDD JUMPI DUP4 PUSH1 0xFF SWAP3 DUP5 SWAP3 PUSH2 0xD9 SWAP7 MSTORE PUSH1 0x20 MSTORE KECCAK256 SLOAD AND SWAP1 MLOAD SWAP2 DUP3 SWAP2 DUP3 PUSH2 0x281 JUMP JUMPDEST SUB SWAP1 RETURN JUMPDEST DUP4 DUP1 REVERT JUMPDEST DUP3 DUP1 REVERT JUMPDEST CALLVALUE PUSH2 0xE1 JUMPI DUP3 PUSH1 0x3 NOT CALLDATASIZE ADD SLT PUSH2 0xE1 JUMPI DUP2 PUSH2 0xD9 SWAP4 PUSH1 0xFF SWAP3 CALLER DUP3 MSTORE PUSH1 0x20 MSTORE KECCAK256 SLOAD AND SWAP1 MLOAD SWAP2 DUP3 SWAP2 DUP3 PUSH2 0x281 JUMP JUMPDEST CALLVALUE PUSH2 0xE1 JUMPI DUP3 PUSH1 0x3 NOT CALLDATASIZE ADD SLT PUSH2 0xE1 JUMPI CALLER DUP4 MSTORE DUP1 PUSH1 0x20 MSTORE PUSH1 0xFF DUP3 DUP5 KECCAK256 SLOAD AND PUSH1 0x3 DUP2 LT ISZERO PUSH2 0x16A JUMPI PUSH2 0x142 SWAP1 ISZERO PUSH2 0x2AA JUMP JUMPDEST CALLER DUP4 MSTORE PUSH1 0x20 MSTORE DUP2 KECCAK256 PUSH1 0x1 PUSH1 0xFF NOT DUP3 SLOAD AND OR SWAP1 SSTORE PUSH2 0x15E CALLER PUSH2 0x2EB JUMP JUMPDEST PUSH2 0x167 CALLER PUSH2 0x395 JUMP JUMPDEST DUP1 RETURN JUMPDEST PUSH4 0x4E487B71 PUSH1 0xE0 SHL DUP5 MSTORE PUSH1 0x21 DUP3 MSTORE PUSH1 0x24 DUP5 REVERT JUMPDEST CALLVALUE PUSH2 0xE1 JUMPI PUSH1 0x20 CALLDATASIZE PUSH1 0x3 NOT ADD SLT PUSH2 0xE1 JUMPI CALLDATALOAD PUSH1 0x1 PUSH1 0x1 PUSH1 0xA0 SHL SUB DUP2 AND SWAP1 DUP2 SWAP1 SUB PUSH2 0xE1 JUMPI DUP2 DUP4 PUSH1 0xFF SWAP3 PUSH1 0x20 SWAP6 MSTORE DUP1 DUP6 MSTORE KECCAK256 SLOAD AND SWAP1 MLOAD SWAP1 DUP2 MSTORE RETURN JUMPDEST CALLVALUE PUSH2 0xE1 JUMPI PUSH1 0x20 CALLDATASIZE PUSH1 0x3 NOT ADD SLT PUSH2 0xE1 JUMPI CALLDATALOAD PUSH1 0x1 PUSH1 0x1 PUSH1 0xA0 SHL SUB DUP2 AND SWAP1 DUP2 SWAP1 SUB PUSH2 0xE1 JUMPI PUSH1 0xFF DUP3 DUP5 PUSH1 0x64 SWAP4 PUSH1 0x20 SWAP7 MSTORE DUP1 DUP7 MSTORE KECCAK256 SLOAD AND LT ISZERO SWAP1 MLOAD SWAP1 DUP2 MSTORE RETURN JUMPDEST POP CALLVALUE PUSH2 0x20F JUMPI DUP2 PUSH1 0x3 NOT CALLDATASIZE ADD SLT PUSH2 0x20F JUMPI MLOAD SWAP1 DUP2 MSTORE PUSH1 0x20 SWAP1 RETURN JUMPDEST POP DUP1 REVERT JUMPDEST CALLVALUE PUSH2 0xE1 JUMPI DUP3 PUSH1 0x3 NOT CALLDATASIZE ADD SLT PUSH2 0xE1 JUMPI CALLER DUP4 MSTORE DUP1 PUSH1 0x20 MSTORE PUSH1 0xFF DUP3 DUP5 KECCAK256 SLOAD AND PUSH1 0x3 DUP2 LT ISZERO PUSH2 0x16A JUMPI PUSH2 0x244 SWAP1 ISZERO PUSH2 0x2AA JUMP JUMPDEST CALLER DUP4 MSTORE PUSH1 0x20 MSTORE DUP2 KECCAK256 PUSH1 0x2 PUSH1 0xFF NOT DUP3 SLOAD AND OR SWAP1 SSTORE PUSH2 0x15E CALLER PUSH2 0x2EB JUMP JUMPDEST CALLVALUE PUSH2 0x27C JUMPI PUSH1 0x0 CALLDATASIZE PUSH1 0x3 NOT ADD SLT PUSH2 0x27C JUMPI PUSH1 0x20 PUSH1 0x40 MLOAD PUSH1 0x64 DUP2 MSTORE RETURN JUMPDEST PUSH1 0x0 DUP1 REVERT JUMPDEST SWAP2 SWAP1 PUSH1 0x20 DUP4 ADD SWAP3 PUSH1 0x3 DUP3 LT ISZERO PUSH2 0x294 JUMPI MSTORE JUMP JUMPDEST PUSH4 0x4E487B71 PUSH1 0xE0 SHL PUSH1 0x0 MSTORE PUSH1 0x21 PUSH1 0x4 MSTORE PUSH1 0x24 PUSH1 0x0 REVERT JUMPDEST ISZERO PUSH2 0x2B1 JUMPI JUMP JUMPDEST PUSH1 0x40 MLOAD PUSH3 0x461BCD PUSH1 0xE5 SHL DUP2 MSTORE PUSH1 0x20 PUSH1 0x4 DUP3 ADD MSTORE PUSH1 0x12 PUSH1 0x24 DUP3 ADD MSTORE PUSH18 0x105B1C9958591E481C9959DA5CDD195C9959 PUSH1 0x72 SHL PUSH1 0x44 DUP3 ADD MSTORE PUSH1 0x64 SWAP1 REVERT JUMPDEST PUSH1 0x1 PUSH1 0x1 PUSH1 0xA0 SHL SUB AND PUSH1 0x0 DUP2 DUP2 MSTORE PUSH1 0x1 PUSH1 0x20 MSTORE PUSH1 0x40 DUP2 KECCAK256 SLOAD PUSH1 0xFF AND PUSH2 0x35A JUMPI DUP1 DUP3 PUSH32 0x5D95448EDAE7BCC3F04CEED898BF2926C2E56C8DE7C6A57D3B90539B1FF037A6 SWAP3 MSTORE DUP1 PUSH1 0x20 MSTORE PUSH1 0x40 DUP2 KECCAK256 PUSH1 0xFF NOT SWAP1 PUSH1 0x64 DUP3 DUP3 SLOAD AND OR SWAP1 SSTORE PUSH1 0x1 PUSH1 0x20 MSTORE PUSH1 0x1 PUSH1 0x40 DUP4 KECCAK256 SWAP2 DUP3 SLOAD AND OR SWAP1 SSTORE DUP1 LOG2 JUMP JUMPDEST PUSH1 0x40 MLOAD PUSH3 0x461BCD PUSH1 0xE5 SHL DUP2 MSTORE PUSH1 0x20 PUSH1 0x4 DUP3 ADD MSTORE PUSH1 0x13 PUSH1 0x24 DUP3 ADD MSTORE PUSH19 0x105B1C9958591E481A5B9A5D1A585B1A5E9959 PUSH1 0x6A SHL PUSH1 0x44 DUP3 ADD MSTORE PUSH1 0x64 SWAP1 REVERT JUMPDEST PUSH1 0x1 PUSH1 0x1 PUSH1 0xA0 SHL SUB AND PUSH1 0x0 DUP2 DUP2 MSTORE PUSH1 0x3 PUSH1 0x20 MSTORE PUSH1 0x40 DUP2 KECCAK256 SLOAD SWAP1 SWAP2 SWAP1 PUSH1 0xFF AND ISZERO PUSH2 0x3BC JUMPI POP POP JUMP JUMPDEST PUSH1 0x2 SLOAD PUSH1 0x1 PUSH1 0x40 SHL DUP2 LT ISZERO PUSH2 0x438 JUMPI PUSH1 0x1 DUP2 ADD DUP1 PUSH1 0x2 SSTORE DUP2 LT ISZERO PUSH2 0x424 JUMPI PUSH32 0x405787FA12A823E0F2B7631CC41B3BA8828B3321CA811111FA75CD3AA3BB5ACE ADD DUP1 SLOAD PUSH1 0x1 PUSH1 0x1 PUSH1 0xA0 SHL SUB NOT AND DUP3 OR SWAP1 SSTORE DUP2 MSTORE PUSH1 0x3 PUSH1 0x20 MSTORE PUSH1 0x40 SWAP1 KECCAK256 DUP1 SLOAD PUSH1 0xFF NOT AND PUSH1 0x1 OR SWAP1 SSTORE JUMP JUMPDEST PUSH4 0x4E487B71 PUSH1 0xE0 SHL DUP4 MSTORE PUSH1 0x32 PUSH1 0x4 MSTORE PUSH1 0x24 DUP4 REVERT JUMPDEST PUSH4 0x4E487B71 PUSH1 0xE0 SHL DUP4 MSTORE PUSH1 0x41 PUSH1 0x4 MSTORE PUSH1 0x24 DUP4 REVERT INVALID LOG2 PUSH5 0x6970667358 0x22 SLT KECCAK256 DUP9 0xB0 ADDMOD 0x2D 0x4D PUSH31 0x200DC0B09FC1C3C679F5A86517B8C5830C28F90E9AF361816C9E64736F6C63 NUMBER STOP ADDMOD EQ STOP CALLER "},"methodIdentifiers":{"INIT_SCORE()":"247bc4a7","MAX_SCORE()":"27ff6223","MIN_SCORE()":"40b89270","VOTER_THRESHOLD()":"9ec0164a","getMyRole()":"6e3b47fc","isEligibleVoter(address)":"4225e7f4","registerClient()":"6d9fb287","registerWorker()":"208082bf","reputationScore(address)":"50d061cb","roles(address)":"99374642"}}}}}