{
  "_format": "hh-sol-artifact-1",
  "contractName": "Auth",
  "sourceName": "contracts/Auth.sol",
  "abi": [
    {
      "anonymous": false,
      "inputs": [
        {
          "indexed": true,
          "internalType": "address",
          "name": "user",
          "type": "address"
        },
        {
          "indexed": false,
          "internalType": "uint8",
          "name": "oldScore",
          "type": "uint8"
        },
        {
          "indexed": false,
          "internalType": "uint8",
          "name": "newScore",
          "type": "uint8"
        },
        {
          "indexed": false,
          "internalType": "string",
          "name": "reason",
          "type": "string"
        }
      ],
      "name": "ScoreChanged",
      "type": "event"
    },
    {
      "anonymous": false,
      "inputs": [
        {
          "indexed": true,
          "internalType": "address",
          "name": "user",
          "type": "address"
        }
      ],
      "name": "ScoreInitialized",
      "type": "event"
    },
    {
      "inputs": [],
      "name": "INIT_SCORE",
      "outputs": [
        {
          "internalType": "uint8",
          "name": "",
          "type": "uint8"
        }
      ],
      "stateMutability": "view",
      "type": "function"
    },
    {
      "inputs": [],
      "name": "MAX_SCORE",
      "outputs": [
        {
          "internalType": "uint8",
          "name": "",
          "type": "uint8"
        }
      ],
      "stateMutability": "view",
      "type": "function"
    },
    {
      "inputs": [],
      "name": "MIN_SCORE",
      "outputs": [
        {
          "internalType": "uint8",
          "name": "",
          "type": "uint8"
        }
      ],
      "stateMutability": "view",
      "type": "function"
    },
    {
      "inputs": [],
      "name": "VOTER_THRESHOLD",
      "outputs": [
        {
          "internalType": "uint8",
          "name": "",
          "type": "uint8"
        }
      ],
      "stateMutability": "view",
      "type": "function"
    },
    {
      "inputs": [],
      "name": "getMyRole",
      "outputs": [
        {
          "internalType": "enum Auth.Role",
          "name": "",
          "type": "uint8"
        }
      ],
      "stateMutability": "view",
      "type": "function"
    },
    {
      "inputs": [
        {
          "internalType": "address",
          "name": "user",
          "type": "address"
        }
      ],
      "name": "isEligibleVoter",
      "outputs": [
        {
          "internalType": "bool",
          "name": "",
          "type": "bool"
        }
      ],
      "stateMutability": "view",
      "type": "function"
    },
    {
      "inputs": [],
      "name": "registerClient",
      "outputs": [],
      "stateMutability": "nonpayable",
      "type": "function"
    },
    {
      "inputs": [],
      "name": "registerWorker",
      "outputs": [],
      "stateMutability": "nonpayable",
      "type": "function"
    },
    {
      "inputs": [
        {
          "internalType": "address",
          "name": "",
          "type": "address"
        }
      ],
      "name": "reputationScore",
      "outputs": [
        {
          "internalType": "uint8",
          "name": "",
          "type": "uint8"
        }
      ],
      "stateMutability": "view",
      "type": "function"
    },
    {
      "inputs": [
        {
          "internalType": "address",
          "name": "",
          "type": "address"
        }
      ],
      "name": "roles",
      "outputs": [
        {
          "internalType": "enum Auth.Role",
          "name": "",
          "type": "uint8"
        }
      ],
      "stateMutability": "view",
      "type": "function"
    }
  ],
  "bytecode": "0x6080806040523461001657610482908161001c8239f35b600080fdfe6040608081526004908136101561001557600080fd5b600090813560e01c928363208082bf14610213578363247bc4a71461009357836327ff62231461009357836340b89270146101f55783634225e7f4146101b757836350d061cb1461017d5783636d9fb287146101115783636e3b47fc146100e5578363993746421461009857505050639ec0164a1461009357600080fd5b610260565b346100e15760203660031901126100e15780356001600160a01b038116908190036100dd578360ff9284926100d99652602052205416905191829182610281565b0390f35b8380fd5b8280fd5b346100e157826003193601126100e157816100d99360ff92338252602052205416905191829182610281565b346100e157826003193601126100e1573383528060205260ff8284205416600381101561016a5761014290156102aa565b3383526020528120600160ff1982541617905561015e336102eb565b61016733610395565b80f35b634e487b7160e01b845260218252602484fd5b346100e15760203660031901126100e157356001600160a01b038116908190036100e157818360ff92602095528085522054169051908152f35b346100e15760203660031901126100e157356001600160a01b038116908190036100e15760ff82846064936020965280865220541610159051908152f35b503461020f578160031936011261020f5751908152602090f35b5080fd5b346100e157826003193601126100e1573383528060205260ff8284205416600381101561016a5761024490156102aa565b3383526020528120600260ff1982541617905561015e336102eb565b3461027c57600036600319011261027c57602060405160648152f35b600080fd5b9190602083019260038210156102945752565b634e487b7160e01b600052602160045260246000fd5b156102b157565b60405162461bcd60e51b8152602060048201526012602482015271105b1c9958591e481c9959da5cdd195c995960721b6044820152606490fd5b6001600160a01b031660008181526001602052604081205460ff1661035a5780827f5d95448edae7bcc3f04ceed898bf2926c2e56c8de7c6a57d3b90539b1ff037a69252806020526040812060ff199060648282541617905560016020526001604083209182541617905580a2565b60405162461bcd60e51b8152602060048201526013602482015272105b1c9958591e481a5b9a5d1a585b1a5e9959606a1b6044820152606490fd5b6001600160a01b031660008181526003602052604081205490919060ff16156103bc575050565b600254600160401b811015610438576001810180600255811015610424577f405787fa12a823e0f2b7631cc41b3ba8828b3321ca811111fa75cd3aa3bb5ace0180546001600160a01b031916821790558152600360205260409020805460ff19166001179055565b634e487b7160e01b83526032600452602483fd5b634e487b7160e01b83526041600452602483fdfea2646970667358221220fb1c03ba3d52d7f15a8b8b3da4ab3c6e88515a0b62f8eadbd7aa0d152f33d8f464736f6c63430008140033",
  "linkReferences": {},
  "deployedLinkReferences": {}
}