{
  "_format": "hh-sol-artifact-1",
  "contractName": "BadgeManager",
  "sourceName": "contracts/BadgeManager.sol",
  "abi": [
    {
      "anonymous": false,
      "inputs": [
        {
          "indexed": true,
          "internalType": "address",
          "name": "user",
          "type": "address"
        },
        {
          "indexed": true,
          "internalType": "enum BadgeManager.BadgeType",
          "name": "badgeType",
          "type": "uint8"
        },
        {
          "indexed": false,
          "internalType": "uint256",
          "name": "jobId",
          "type": "uint256"
        }
      ],
      "name": "BadgeAwarded",
      "type": "event"
    },
    {
      "inputs": [],
      "name": "SCAM_THRESHOLD",
      "outputs": [
        {
          "internalType": "uint256",
          "name": "",
          "type": "uint256"
        }
      ],
      "stateMutability": "view",
      "type": "function"
    },
    {
      "inputs": [],
      "name": "SERIAL_CANCEL_THRESHOLD",
      "outputs": [
        {
          "internalType": "uint256",
          "name": "",
          "type": "uint256"
        }
      ],
      "stateMutability": "view",
      "type": "function"
    },
    {
      "inputs": [
        {
          "internalType": "address",
          "name": "",
          "type": "address"
        },
        {
          "internalType": "uint256",
          "name": "",
          "type": "uint256"
        }
      ],
      "name": "badgeCount",
      "outputs": [
        {
          "internalType": "uint256",
          "name": "",
          "type": "uint256"
        }
      ],
      "stateMutability": "view",
      "type": "function"
    },
    {
      "inputs": [
        {
          "internalType": "address",
          "name": "user",
          "type": "address"
        },
        {
          "internalType": "enum BadgeManager.BadgeType",
          "name": "badgeType",
          "type": "uint8"
        }
      ],
      "name": "getBadgeCount",
      "outputs": [
        {
          "internalType": "uint256",
          "name": "",
          "type": "uint256"
        }
      ],
      "stateMutability": "view",
      "type": "function"
    },
    {
      "inputs": [
        {
          "internalType": "address",
          "name": "user",
          "type": "address"
        }
      ],
      "name": "getBadges",
      "outputs": [
        {
          "internalType": "enum BadgeManager.BadgeType[]",
          "name": "types",
          "type": "uint8[]"
        },
        {
          "internalType": "uint256[]",
          "name": "jobIds",
          "type": "uint256[]"
        },
        {
          "internalType": "uint256[]",
          "name": "timestamps",
          "type": "uint256[]"
        },
        {
          "internalType": "string[]",
          "name": "notes",
          "type": "string[]"
        }
      ],
      "stateMutability": "view",
      "type": "function"
    },
    {
      "inputs": [
        {
          "internalType": "address",
          "name": "user",
          "type": "address"
        }
      ],
      "name": "isScammer",
      "outputs": [
        {
          "internalType": "bool",
          "name": "",
          "type": "bool"
        }
      ],
      "stateMutability": "view",
      "type": "function"
    }
  ],
  "bytecode": "0x6080806040523461001657610616908161001c8239f35b600080fdfe6080604052600436101561001257600080fd5b60003560e01c806303828e451461017e5780632488b2ee146101625780632d5928651461011a57806369c04c44146100d15780638721ba3f1461007f5763e72f73a81461005e57600080fd5b3461007a57600036600319011261007a57602060405160038152f35b600080fd5b3461007a57604036600319011261007a576100986104ce565b60243590600d82101561007a5760018060a01b031660005260016020526040600020906000526020526020604060002054604051908152f35b3461007a57602036600319011261007a576001600160a01b036100f26104ce565b1660005260016020526040600020600960005260205260206040600020541515604051908152f35b3461007a57604036600319011261007a576001600160a01b0361013b6104ce565b16600052600160205260406000206024356000526020526020604060002054604051908152f35b3461007a57600036600319011261007a57602060405160058152f35b3461007a57602036600319011261007a576001600160a01b0361019f6104ce565b166000526000602052604060002080546101b881610551565b906101c66040519283610518565b808252601f196101d582610551565b013660208401376101e581610568565b916101ef82610568565b916101f981610551565b946102076040519687610518565b818652601f1961021683610551565b0160005b8181106104bd57505060005b828110610345575050506040519260808401608085528251809152602060a086019301906000905b80821061030c575050508161026e918561027c95940360208701526104e4565b9083820360408501526104e4565b918183036060830152805180845260208401906020808260051b8701019301916000955b8287106102ad5785850386f35b90919293601f19828203018352845180519081835260005b8281106102f757505060208083836000838096600198010152601f8019910116010196019301960195909291926102a0565b806020809284010151828287010152016102c5565b909193845190600d82101561032f5760208160019382935201950192019061024e565b634e487b7160e01b600052602160045260246000fd5b60ff610351828461059a565b50541661035e82866105cc565b600d82101561032f57526001610374828461059a565b50015461038182886105cc565b52600261038e828461059a565b50015461039b82876105cc565b526103a6818361059a565b506040519060006003820154908160011c9260018316156104b3575b60208410600184161461049d5783855284926001811690811561047b5750600114610432575b506103f592500382610518565b6103ff82896105cc565b5261040a81886105cc565b50600019811461041c57600101610226565b634e487b7160e01b600052601160045260246000fd5b90506003915001600052816020600020916000925b81841061045f57505060206103f5928201018b6103e8565b6020919250806001915483868801015201920191908391610447565b9050602092506103f594915060ff191682840152151560051b8201018b6103e8565b634e487b7160e01b600052602260045260246000fd5b92607f16926103c2565b806060602080938b0101520161021a565b600435906001600160a01b038216820361007a57565b90815180825260208080930193019160005b828110610504575050505090565b8351855293810193928101926001016104f6565b601f909101601f19168101906001600160401b0382119082101761053b57604052565b634e487b7160e01b600052604160045260246000fd5b6001600160401b03811161053b5760051b60200190565b9061057282610551565b61057f6040519182610518565b8281528092610590601f1991610551565b0190602036910137565b80548210156105b65760005260206000209060021b0190600090565b634e487b7160e01b600052603260045260246000fd5b80518210156105b65760209160051b01019056fea2646970667358221220ddde7e8bb4edea425fa81bfc3c494b7ddaaaf3910627b98abb86e73b2c70731064736f6c63430008140033",
  "linkReferences": {},
  "deployedLinkReferences": {}
}