{
  "_format": "hh-sol-artifact-1",
  "contractName": "BadgeManager",
  "sourceName": "contracts/BadgeManager.sol",
  "abi": [
    {
      "anonymous": false,
      "inputs": [
        {
          "indexed": true,
          "internalType": "address",
          "name": "user",
          "type": "address"
        },
        {
          "indexed": true,
          "internalType": "enum BadgeManager.BadgeType",
          "name": "badgeType",
          "type": "uint8"
        },
        {
          "indexed": false,
          "internalType": "uint256",
          "name": "jobId",
          "type": "uint256"
        }
      ],
      "name": "BadgeAwarded",
      "type": "event"
    },
    {
      "inputs": [],
      "name": "GHOST_SCAM_THRESHOLD",
      "outputs": [
        {
          "internalType": "uint256",
          "name": "",
          "type": "uint256"
        }
      ],
      "stateMutability": "view",
      "type": "function"
    },
    {
      "inputs": [],
      "name": "SCAM_THRESHOLD",
      "outputs": [
        {
          "internalType": "uint256",
          "name": "",
          "type": "uint256"
        }
      ],
      "stateMutability": "view",
      "type": "function"
    },
    {
      "inputs": [],
      "name": "SERIAL_CANCEL_THRESHOLD",
      "outputs": [
        {
          "internalType": "uint256",
          "name": "",
          "type": "uint256"
        }
      ],
      "stateMutability": "view",
      "type": "function"
    },
    {
      "inputs": [
        {
          "internalType": "address",
          "name": "",
          "type": "address"
        },
        {
          "internalType": "uint256",
          "name": "",
          "type": "uint256"
        }
      ],
      "name": "badgeCount",
      "outputs": [
        {
          "internalType": "uint256",
          "name": "",
          "type": "uint256"
        }
      ],
      "stateMutability": "view",
      "type": "function"
    },
    {
      "inputs": [
        {
          "internalType": "address",
          "name": "user",
          "type": "address"
        },
        {
          "internalType": "enum BadgeManager.BadgeType",
          "name": "badgeType",
          "type": "uint8"
        }
      ],
      "name": "getBadgeCount",
      "outputs": [
        {
          "internalType": "uint256",
          "name": "",
          "type": "uint256"
        }
      ],
      "stateMutability": "view",
      "type": "function"
    },
    {
      "inputs": [
        {
          "internalType": "address",
          "name": "user",
          "type": "address"
        }
      ],
      "name": "getBadges",
      "outputs": [
        {
          "internalType": "enum BadgeManager.BadgeType[]",
          "name": "types",
          "type": "uint8[]"
        },
        {
          "internalType": "uint256[]",
          "name": "jobIds",
          "type": "uint256[]"
        },
        {
          "internalType": "uint256[]",
          "name": "timestamps",
          "type": "uint256[]"
        },
        {
          "internalType": "string[]",
          "name": "notes",
          "type": "string[]"
        }
      ],
      "stateMutability": "view",
      "type": "function"
    },
    {
      "inputs": [
        {
          "internalType": "address",
          "name": "user",
          "type": "address"
        }
      ],
      "name": "isScammer",
      "outputs": [
        {
          "internalType": "bool",
          "name": "",
          "type": "bool"
        }
      ],
      "stateMutability": "view",
      "type": "function"
    }
  ],
  "bytecode": "0x6080806040523461001657610626908161001c8239f35b600080fdfe6080604052600436101561001257600080fd5b60003560e01c806303828e45146101725780631965bb0f146100695780632488b2ee146101565780632d5928651461010e57806369c04c44146100c55780638721ba3f1461006e5763e72f73a81461006957600080fd5b61050c565b346100c05760403660031901126100c0576100876104c2565b60243590600e8210156100c05760018060a01b031660005260016020526040600020906000526020526020604060002054604051908152f35b600080fd5b346100c05760203660031901126100c0576001600160a01b036100e66104c2565b1660005260016020526040600020600a60005260205260206040600020541515604051908152f35b346100c05760403660031901126100c0576001600160a01b0361012f6104c2565b16600052600160205260406000206024356000526020526020604060002054604051908152f35b346100c05760003660031901126100c057602060405160058152f35b346100c05760203660031901126100c0576001600160a01b036101936104c2565b166000526000602052604060002080546101ac81610561565b906101ba6040519283610528565b808252601f196101c982610561565b013660208401376101d981610578565b916101e382610578565b916101ed81610561565b946101fb6040519687610528565b818652601f1961020a83610561565b0160005b8181106104b157505060005b828110610339575050506040519260808401608085528251809152602060a086019301906000905b8082106103005750505081610262918561027095940360208701526104d8565b9083820360408501526104d8565b918183036060830152805180845260208401906020808260051b8701019301916000955b8287106102a15785850386f35b90919293601f19828203018352845180519081835260005b8281106102eb57505060208083836000838096600198010152601f801991011601019601930196019590929192610294565b806020809284010151828287010152016102b9565b909193845190600e82101561032357602081600193829352019501920190610242565b634e487b7160e01b600052602160045260246000fd5b60ff61034582846105aa565b50541661035282866105dc565b600e8210156103235752600161036882846105aa565b50015461037582886105dc565b52600261038282846105aa565b50015461038f82876105dc565b5261039a81836105aa565b506040519060006003820154908160011c9260018316156104a7575b6020841060018416146104915783855284926001811690811561046f5750600114610426575b506103e992500382610528565b6103f382896105dc565b526103fe81886105dc565b5060001981146104105760010161021a565b634e487b7160e01b600052601160045260246000fd5b90506003915001600052816020600020916000925b81841061045357505060206103e9928201018b6103dc565b602091925080600191548386880101520192019190839161043b565b9050602092506103e994915060ff191682840152151560051b8201018b6103dc565b634e487b7160e01b600052602260045260246000fd5b92607f16926103b6565b806060602080938b0101520161020e565b600435906001600160a01b03821682036100c057565b90815180825260208080930193019160005b8281106104f8575050505090565b8351855293810193928101926001016104ea565b346100c05760003660031901126100c057602060405160038152f35b601f909101601f19168101906001600160401b0382119082101761054b57604052565b634e487b7160e01b600052604160045260246000fd5b6001600160401b03811161054b5760051b60200190565b9061058282610561565b61058f6040519182610528565b82815280926105a0601f1991610561565b0190602036910137565b80548210156105c65760005260206000209060021b0190600090565b634e487b7160e01b600052603260045260246000fd5b80518210156105c65760209160051b01019056fea26469706673582212207776342ac7417320e67675a6451ae859d34289d5ec4e0b313d730f35925c96da64736f6c63430008140033",
  "linkReferences": {},
  "deployedLinkReferences": {}
}