{
  "_format": "hh-sol-artifact-1",
  "contractName": "ReputationManager",
  "sourceName": "contracts/ReputationManager.sol",
  "abi": [
    {
      "anonymous": false,
      "inputs": [
        {
          "indexed": true,
          "internalType": "address",
          "name": "user",
          "type": "address"
        },
        {
          "indexed": false,
          "internalType": "uint8",
          "name": "oldScore",
          "type": "uint8"
        },
        {
          "indexed": false,
          "internalType": "uint8",
          "name": "newScore",
          "type": "uint8"
        },
        {
          "indexed": false,
          "internalType": "string",
          "name": "reason",
          "type": "string"
        }
      ],
      "name": "ScoreChanged",
      "type": "event"
    },
    {
      "anonymous": false,
      "inputs": [
        {
          "indexed": true,
          "internalType": "address",
          "name": "user",
          "type": "address"
        }
      ],
      "name": "ScoreInitialized",
      "type": "event"
    },
    {
      "inputs": [],
      "name": "INIT_SCORE",
      "outputs": [
        {
          "internalType": "uint8",
          "name": "",
          "type": "uint8"
        }
      ],
      "stateMutability": "view",
      "type": "function"
    },
    {
      "inputs": [],
      "name": "MAX_SCORE",
      "outputs": [
        {
          "internalType": "uint8",
          "name": "",
          "type": "uint8"
        }
      ],
      "stateMutability": "view",
      "type": "function"
    },
    {
      "inputs": [],
      "name": "MIN_SCORE",
      "outputs": [
        {
          "internalType": "uint8",
          "name": "",
          "type": "uint8"
        }
      ],
      "stateMutability": "view",
      "type": "function"
    },
    {
      "inputs": [],
      "name": "VOTER_THRESHOLD",
      "outputs": [
        {
          "internalType": "uint8",
          "name": "",
          "type": "uint8"
        }
      ],
      "stateMutability": "view",
      "type": "function"
    },
    {
      "inputs": [
        {
          "internalType": "address",
          "name": "user",
          "type": "address"
        }
      ],
      "name": "isEligibleVoter",
      "outputs": [
        {
          "internalType": "bool",
          "name": "",
          "type": "bool"
        }
      ],
      "stateMutability": "view",
      "type": "function"
    },
    {
      "inputs": [
        {
          "internalType": "address",
          "name": "",
          "type": "address"
        }
      ],
      "name": "reputationScore",
      "outputs": [
        {
          "internalType": "uint8",
          "name": "",
          "type": "uint8"
        }
      ],
      "stateMutability": "view",
      "type": "function"
    }
  ],
  "bytecode": "0x608080604052346100165761015c908161001c8239f35b600080fdfe604060808152600436101561001357600080fd5b6000803560e01c918263247bc4a71461010557826327ff62231461006357826340b89270146100ec5782634225e7f4146100ac57826350d061cb14610068575050639ec0164a1461006357600080fd5b610105565b346100a85760203660031901126100a8576004356001600160a01b038116908190036100a457818360ff92602095528085522054169051908152f35b8280fd5b5080fd5b346100a85760203660031901126100a8576004356001600160a01b038116908190036100a45760ff82846064936020965280865220541610159051908152f35b346100a857816003193601126100a85751908152602090f35b3461012157600036600319011261012157602060405160648152f35b600080fdfea2646970667358221220c0fcc04ac54f2b9e9b5fdc457fa3c26a54fb0c2341434f272d3b5fa1c5d705b664736f6c63430008140033",
  "linkReferences": {},
  "deployedLinkReferences": {}
}