{
  "_format": "hh-sol-artifact-1",
  "contractName": "DisputeManager",
  "sourceName": "contracts/DisputeManager.sol",
  "abi": [
    {
      "anonymous": false,
      "inputs": [
        {
          "indexed": true,
          "internalType": "uint256",
          "name": "jobId",
          "type": "uint256"
        },
        {
          "indexed": true,
          "internalType": "address",
          "name": "responder",
          "type": "address"
        }
      ],
      "name": "CounterEvidenceSubmitted",
      "type": "event"
    },
    {
      "anonymous": false,
      "inputs": [
        {
          "indexed": true,
          "internalType": "uint256",
          "name": "jobId",
          "type": "uint256"
        },
        {
          "indexed": true,
          "internalType": "address",
          "name": "initiator",
          "type": "address"
        }
      ],
      "name": "DisputeRaised",
      "type": "event"
    },
    {
      "anonymous": false,
      "inputs": [
        {
          "indexed": true,
          "internalType": "uint256",
          "name": "jobId",
          "type": "uint256"
        },
        {
          "indexed": false,
          "internalType": "bool",
          "name": "workerWon",
          "type": "bool"
        }
      ],
      "name": "DisputeResolved",
      "type": "event"
    },
    {
      "anonymous": false,
      "inputs": [
        {
          "indexed": true,
          "internalType": "address",
          "name": "user",
          "type": "address"
        },
        {
          "indexed": false,
          "internalType": "uint8",
          "name": "oldScore",
          "type": "uint8"
        },
        {
          "indexed": false,
          "internalType": "uint8",
          "name": "newScore",
          "type": "uint8"
        },
        {
          "indexed": false,
          "internalType": "string",
          "name": "reason",
          "type": "string"
        }
      ],
      "name": "ScoreChanged",
      "type": "event"
    },
    {
      "anonymous": false,
      "inputs": [
        {
          "indexed": true,
          "internalType": "address",
          "name": "user",
          "type": "address"
        }
      ],
      "name": "ScoreInitialized",
      "type": "event"
    },
    {
      "anonymous": false,
      "inputs": [
        {
          "indexed": true,
          "internalType": "uint256",
          "name": "jobId",
          "type": "uint256"
        },
        {
          "indexed": true,
          "internalType": "address",
          "name": "voter",
          "type": "address"
        },
        {
          "indexed": false,
          "internalType": "bool",
          "name": "voteForWorker",
          "type": "bool"
        }
      ],
      "name": "Voted",
      "type": "event"
    },
    {
      "anonymous": false,
      "inputs": [
        {
          "indexed": true,
          "internalType": "uint256",
          "name": "jobId",
          "type": "uint256"
        },
        {
          "indexed": false,
          "internalType": "address[]",
          "name": "voters",
          "type": "address[]"
        }
      ],
      "name": "VoterSelected",
      "type": "event"
    },
    {
      "anonymous": false,
      "inputs": [
        {
          "indexed": true,
          "internalType": "uint256",
          "name": "jobId",
          "type": "uint256"
        },
        {
          "indexed": false,
          "internalType": "address[]",
          "name": "newVoters",
          "type": "address[]"
        },
        {
          "indexed": false,
          "internalType": "uint256",
          "name": "newDeadline",
          "type": "uint256"
        }
      ],
      "name": "VotersReplaced",
      "type": "event"
    },
    {
      "inputs": [],
      "name": "INIT_SCORE",
      "outputs": [
        {
          "internalType": "uint8",
          "name": "",
          "type": "uint8"
        }
      ],
      "stateMutability": "view",
      "type": "function"
    },
    {
      "inputs": [],
      "name": "MAX_SCORE",
      "outputs": [
        {
          "internalType": "uint8",
          "name": "",
          "type": "uint8"
        }
      ],
      "stateMutability": "view",
      "type": "function"
    },
    {
      "inputs": [],
      "name": "MIN_SCORE",
      "outputs": [
        {
          "internalType": "uint8",
          "name": "",
          "type": "uint8"
        }
      ],
      "stateMutability": "view",
      "type": "function"
    },
    {
      "inputs": [],
      "name": "VOTER_THRESHOLD",
      "outputs": [
        {
          "internalType": "uint8",
          "name": "",
          "type": "uint8"
        }
      ],
      "stateMutability": "view",
      "type": "function"
    },
    {
      "inputs": [],
      "name": "VOTE_DURATION",
      "outputs": [
        {
          "internalType": "uint256",
          "name": "",
          "type": "uint256"
        }
      ],
      "stateMutability": "view",
      "type": "function"
    },
    {
      "inputs": [
        {
          "internalType": "uint256",
          "name": "",
          "type": "uint256"
        }
      ],
      "name": "disputes",
      "outputs": [
        {
          "internalType": "uint256",
          "name": "jobId",
          "type": "uint256"
        },
        {
          "internalType": "address",
          "name": "initiator",
          "type": "address"
        },
        {
          "internalType": "string",
          "name": "evidenceHash",
          "type": "string"
        },
        {
          "internalType": "string",
          "name": "counterHash",
          "type": "string"
        },
        {
          "internalType": "uint8",
          "name": "voterCount",
          "type": "uint8"
        },
        {
          "internalType": "uint8",
          "name": "votesForWorker",
          "type": "uint8"
        },
        {
          "internalType": "uint8",
          "name": "votesForClient",
          "type": "uint8"
        },
        {
          "internalType": "uint256",
          "name": "deadline",
          "type": "uint256"
        },
        {
          "internalType": "bool",
          "name": "resolved",
          "type": "bool"
        },
        {
          "internalType": "bool",
          "name": "workerWon",
          "type": "bool"
        }
      ],
      "stateMutability": "view",
      "type": "function"
    },
    {
      "inputs": [
        {
          "internalType": "uint256",
          "name": "jobId",
          "type": "uint256"
        }
      ],
      "name": "getDisputeVoters",
      "outputs": [
        {
          "internalType": "address[5]",
          "name": "",
          "type": "address[5]"
        }
      ],
      "stateMutability": "view",
      "type": "function"
    },
    {
      "inputs": [
        {
          "internalType": "uint256",
          "name": "jobId",
          "type": "uint256"
        }
      ],
      "name": "getVoteCount",
      "outputs": [
        {
          "internalType": "uint8",
          "name": "forWorker",
          "type": "uint8"
        },
        {
          "internalType": "uint8",
          "name": "forClient",
          "type": "uint8"
        }
      ],
      "stateMutability": "view",
      "type": "function"
    },
    {
      "inputs": [
        {
          "internalType": "uint256",
          "name": "",
          "type": "uint256"
        },
        {
          "internalType": "address",
          "name": "",
          "type": "address"
        }
      ],
      "name": "hasVoted",
      "outputs": [
        {
          "internalType": "bool",
          "name": "",
          "type": "bool"
        }
      ],
      "stateMutability": "view",
      "type": "function"
    },
    {
      "inputs": [
        {
          "internalType": "address",
          "name": "user",
          "type": "address"
        }
      ],
      "name": "isEligibleVoter",
      "outputs": [
        {
          "internalType": "bool",
          "name": "",
          "type": "bool"
        }
      ],
      "stateMutability": "view",
      "type": "function"
    },
    {
      "inputs": [
        {
          "internalType": "address",
          "name": "",
          "type": "address"
        }
      ],
      "name": "reputationScore",
      "outputs": [
        {
          "internalType": "uint8",
          "name": "",
          "type": "uint8"
        }
      ],
      "stateMutability": "view",
      "type": "function"
    },
    {
      "inputs": [
        {
          "internalType": "uint256",
          "name": "",
          "type": "uint256"
        },
        {
          "internalType": "address",
          "name": "",
          "type": "address"
        }
      ],
      "name": "voteChoice",
      "outputs": [
        {
          "internalType": "bool",
          "name": "",
          "type": "bool"
        }
      ],
      "stateMutability": "view",
      "type": "function"
    }
  ],
  "bytecode": "0x608080604052346100165761056d908161001c8239f35b600080fdfe6080604081815260048036101561001557600080fd5b600092833560e01c9081631732d652146102f957508063247bc4a71461012f57806327ff62231461012f57806340b89270146102de5780634225e7f41461029e57806343859632146102585780634654ff051461023b57806350d061cb14610200578063564a565d146101345780639ec0164a1461012f578063b2c2f2e8146100f05763fb468855146100a757600080fd5b346100ec57816003193601126100ec578160209360ff926100c66103d6565b90358252600686528282206001600160a01b039091168252855220549151911615158152f35b8280fd5b5082903461012b57602036600319011261012b5760099181849235825260205220015460ff825191818160081c16835260101c166020820152f35b5080fd5b61039f565b50346100ec5760203660031901126100ec578035835260205290819020805460018201546001600160a01b03169290919060ff906101746002840161041d565b92826101c36101856003840161041d565b6101b5600985015497600b600a8701549601549680519b8c9b8c5260208c015261014080918c01528a01906104f7565b9088820360608a01526104f7565b948181166080880152818160081c1660a088015260101c1660c086015260e0850152818116151561010085015260081c1615156101208301520390f35b50503461012b57602036600319011261012b5760209160ff9082906001600160a01b0361022b6103c0565b1681528085522054169051908152f35b50503461012b578160031936011261012b576020905161012c8152f35b50346100ec57816003193601126100ec578160209360ff926102786103d6565b90358252600586528282206001600160a01b039091168252855220549151911615158152f35b50503461012b57602036600319011261012b5760209160649060ff9083906001600160a01b036102cc6103c0565b16815280865220541610159051908152f35b50503461012b578160031936011261012b5751908152602090f35b9190503461039b5760209182600319360112610397578061031e60a0929695966103ec565b36903780358352808252838320845194910183855b6005821061037857505050610347846103ec565b519291835b600582106103595760a085f35b83516001600160a01b031681529282019260019190910190820161034c565b82546001600160a01b0316815260019283019291909101908401610333565b8480fd5b8380fd5b346103bb5760003660031901126103bb57602060405160648152f35b600080fd5b600435906001600160a01b03821682036103bb57565b602435906001600160a01b03821682036103bb57565b60a081019081106001600160401b0382111761040757604052565b634e487b7160e01b600052604160045260246000fd5b9060405191600090805490600182811c918184169384156104ed575b60209485851081146104d9578489529081156104bb575060011461047f575b50505050829003601f01601f191682016001600160401b0381118382101761040757604052565b909293506000528260002091836000935b8385106104a7575050505083010138808080610458565b805488860183015293019284908201610490565b60ff191688860152505050151560051b840101905038808080610458565b634e487b7160e01b87526022600452602487fd5b92607f1692610439565b919082519283825260005b848110610523575050826000602080949584010152601f8019910116010190565b60208183018101518483018201520161050256fea2646970667358221220927dedd5dbc1809235c448b6a75990314b57e7dbed4a5df155337d5a574a4b9364736f6c63430008140033",
  "linkReferences": {},
  "deployedLinkReferences": {}
}