{
  "_format": "hh-sol-artifact-1",
  "contractName": "DisputeManager",
  "sourceName": "contracts/DisputeManager.sol",
  "abi": [
    {
      "anonymous": false,
      "inputs": [
        {
          "indexed": true,
          "internalType": "uint256",
          "name": "jobId",
          "type": "uint256"
        },
        {
          "indexed": true,
          "internalType": "address",
          "name": "responder",
          "type": "address"
        }
      ],
      "name": "CounterEvidenceSubmitted",
      "type": "event"
    },
    {
      "anonymous": false,
      "inputs": [
        {
          "indexed": true,
          "internalType": "uint256",
          "name": "jobId",
          "type": "uint256"
        },
        {
          "indexed": true,
          "internalType": "address",
          "name": "initiator",
          "type": "address"
        }
      ],
      "name": "DisputeRaised",
      "type": "event"
    },
    {
      "anonymous": false,
      "inputs": [
        {
          "indexed": true,
          "internalType": "uint256",
          "name": "jobId",
          "type": "uint256"
        },
        {
          "indexed": false,
          "internalType": "enum DisputeOutcome",
          "name": "outcome",
          "type": "uint8"
        }
      ],
      "name": "DisputeResolved",
      "type": "event"
    },
    {
      "anonymous": false,
      "inputs": [
        {
          "indexed": true,
          "internalType": "address",
          "name": "user",
          "type": "address"
        },
        {
          "indexed": false,
          "internalType": "uint8",
          "name": "oldScore",
          "type": "uint8"
        },
        {
          "indexed": false,
          "internalType": "uint8",
          "name": "newScore",
          "type": "uint8"
        },
        {
          "indexed": false,
          "internalType": "string",
          "name": "reason",
          "type": "string"
        }
      ],
      "name": "ScoreChanged",
      "type": "event"
    },
    {
      "anonymous": false,
      "inputs": [
        {
          "indexed": true,
          "internalType": "address",
          "name": "user",
          "type": "address"
        }
      ],
      "name": "ScoreInitialized",
      "type": "event"
    },
    {
      "anonymous": false,
      "inputs": [
        {
          "indexed": true,
          "internalType": "uint256",
          "name": "jobId",
          "type": "uint256"
        },
        {
          "indexed": true,
          "internalType": "address",
          "name": "voter",
          "type": "address"
        },
        {
          "indexed": false,
          "internalType": "bool",
          "name": "voteForWorker",
          "type": "bool"
        }
      ],
      "name": "Voted",
      "type": "event"
    },
    {
      "anonymous": false,
      "inputs": [
        {
          "indexed": true,
          "internalType": "uint256",
          "name": "jobId",
          "type": "uint256"
        },
        {
          "indexed": false,
          "internalType": "address[]",
          "name": "voters",
          "type": "address[]"
        }
      ],
      "name": "VoterSelected",
      "type": "event"
    },
    {
      "anonymous": false,
      "inputs": [
        {
          "indexed": true,
          "internalType": "uint256",
          "name": "jobId",
          "type": "uint256"
        },
        {
          "indexed": false,
          "internalType": "address[]",
          "name": "newVoters",
          "type": "address[]"
        },
        {
          "indexed": false,
          "internalType": "uint256",
          "name": "newDeadline",
          "type": "uint256"
        }
      ],
      "name": "VotersReplaced",
      "type": "event"
    },
    {
      "inputs": [],
      "name": "INIT_SCORE",
      "outputs": [
        {
          "internalType": "uint8",
          "name": "",
          "type": "uint8"
        }
      ],
      "stateMutability": "view",
      "type": "function"
    },
    {
      "inputs": [],
      "name": "MAX_SCORE",
      "outputs": [
        {
          "internalType": "uint8",
          "name": "",
          "type": "uint8"
        }
      ],
      "stateMutability": "view",
      "type": "function"
    },
    {
      "inputs": [],
      "name": "MIN_SCORE",
      "outputs": [
        {
          "internalType": "uint8",
          "name": "",
          "type": "uint8"
        }
      ],
      "stateMutability": "view",
      "type": "function"
    },
    {
      "inputs": [],
      "name": "VOTER_THRESHOLD",
      "outputs": [
        {
          "internalType": "uint8",
          "name": "",
          "type": "uint8"
        }
      ],
      "stateMutability": "view",
      "type": "function"
    },
    {
      "inputs": [],
      "name": "VOTE_DURATION",
      "outputs": [
        {
          "internalType": "uint256",
          "name": "",
          "type": "uint256"
        }
      ],
      "stateMutability": "view",
      "type": "function"
    },
    {
      "inputs": [
        {
          "internalType": "uint256",
          "name": "",
          "type": "uint256"
        }
      ],
      "name": "disputes",
      "outputs": [
        {
          "internalType": "uint256",
          "name": "jobId",
          "type": "uint256"
        },
        {
          "internalType": "address",
          "name": "initiator",
          "type": "address"
        },
        {
          "internalType": "string",
          "name": "evidenceHash",
          "type": "string"
        },
        {
          "internalType": "string",
          "name": "counterHash",
          "type": "string"
        },
        {
          "internalType": "uint8",
          "name": "voterCount",
          "type": "uint8"
        },
        {
          "internalType": "uint8",
          "name": "votesForWorker",
          "type": "uint8"
        },
        {
          "internalType": "uint8",
          "name": "votesForClient",
          "type": "uint8"
        },
        {
          "internalType": "uint256",
          "name": "deadline",
          "type": "uint256"
        },
        {
          "internalType": "bool",
          "name": "resolved",
          "type": "bool"
        },
        {
          "internalType": "enum DisputeOutcome",
          "name": "outcome",
          "type": "uint8"
        }
      ],
      "stateMutability": "view",
      "type": "function"
    },
    {
      "inputs": [
        {
          "internalType": "uint256",
          "name": "jobId",
          "type": "uint256"
        }
      ],
      "name": "getDisputeVoters",
      "outputs": [
        {
          "internalType": "address[5]",
          "name": "",
          "type": "address[5]"
        }
      ],
      "stateMutability": "view",
      "type": "function"
    },
    {
      "inputs": [
        {
          "internalType": "uint256",
          "name": "jobId",
          "type": "uint256"
        }
      ],
      "name": "getVoteCount",
      "outputs": [
        {
          "internalType": "uint8",
          "name": "forWorker",
          "type": "uint8"
        },
        {
          "internalType": "uint8",
          "name": "forClient",
          "type": "uint8"
        }
      ],
      "stateMutability": "view",
      "type": "function"
    },
    {
      "inputs": [
        {
          "internalType": "uint256",
          "name": "",
          "type": "uint256"
        },
        {
          "internalType": "address",
          "name": "",
          "type": "address"
        }
      ],
      "name": "hasVoted",
      "outputs": [
        {
          "internalType": "bool",
          "name": "",
          "type": "bool"
        }
      ],
      "stateMutability": "view",
      "type": "function"
    },
    {
      "inputs": [
        {
          "internalType": "address",
          "name": "user",
          "type": "address"
        }
      ],
      "name": "isEligibleVoter",
      "outputs": [
        {
          "internalType": "bool",
          "name": "",
          "type": "bool"
        }
      ],
      "stateMutability": "view",
      "type": "function"
    },
    {
      "inputs": [
        {
          "internalType": "address",
          "name": "",
          "type": "address"
        }
      ],
      "name": "reputationScore",
      "outputs": [
        {
          "internalType": "uint8",
          "name": "",
          "type": "uint8"
        }
      ],
      "stateMutability": "view",
      "type": "function"
    },
    {
      "inputs": [
        {
          "internalType": "uint256",
          "name": "",
          "type": "uint256"
        },
        {
          "internalType": "address",
          "name": "",
          "type": "address"
        }
      ],
      "name": "voteChoice",
      "outputs": [
        {
          "internalType": "bool",
          "name": "",
          "type": "bool"
        }
      ],
      "stateMutability": "view",
      "type": "function"
    }
  ],
  "bytecode": "0x608080604052346100165761058a908161001c8239f35b600080fdfe6080604081815260048036101561001557600080fd5b600092833560e01c9081631732d6521461031657508063247bc4a71461012f57806327ff62231461012f57806340b89270146102fb5780634225e7f4146102bb57806343859632146102755780634654ff051461025857806350d061cb1461021d578063564a565d146101345780639ec0164a1461012f578063b2c2f2e8146100f05763fb468855146100a757600080fd5b346100ec57816003193601126100ec578160209360ff926100c66103f3565b90358252600686528282206001600160a01b039091168252855220549151911615158152f35b8280fd5b5082903461012b57602036600319011261012b5760099181849235825260205220015460ff825191818160081c16835260101c166020820152f35b5080fd5b6103bc565b5091903461012b57602036600319011261012b5782358252826020528082209081549260ff60018060a01b03600185015416926101736002860161043a565b94826101c96101846003840161043a565b6101bb600985015499600b600a87015496015496858860081c169a602082519e8f90815201528c61014091829101528c0190610514565b908a820360608c0152610514565b9681811660808a0152818160081c1660a08a015260101c1660c088015260e08701521615156101008501528482101561020a57508293506101208301520390f35b634e487b7160e01b815260218552602490fd5b50503461012b57602036600319011261012b5760209160ff9082906001600160a01b036102486103dd565b1681528085522054169051908152f35b50503461012b578160031936011261012b576020905161012c8152f35b50346100ec57816003193601126100ec578160209360ff926102956103f3565b90358252600586528282206001600160a01b039091168252855220549151911615158152f35b50503461012b57602036600319011261012b5760209160649060ff9083906001600160a01b036102e96103dd565b16815280865220541610159051908152f35b50503461012b578160031936011261012b5751908152602090f35b919050346103b857602091826003193601126103b4578061033b60a092969596610409565b36903780358352808252838320845194910183855b600582106103955750505061036484610409565b519291835b600582106103765760a085f35b83516001600160a01b0316815292820192600191909101908201610369565b82546001600160a01b0316815260019283019291909101908401610350565b8480fd5b8380fd5b346103d85760003660031901126103d857602060405160648152f35b600080fd5b600435906001600160a01b03821682036103d857565b602435906001600160a01b03821682036103d857565b60a081019081106001600160401b0382111761042457604052565b634e487b7160e01b600052604160045260246000fd5b9060405191600090805490600182811c9181841693841561050a575b60209485851081146104f6578489529081156104d8575060011461049c575b50505050829003601f01601f191682016001600160401b0381118382101761042457604052565b909293506000528260002091836000935b8385106104c4575050505083010138808080610475565b8054888601830152930192849082016104ad565b60ff191688860152505050151560051b840101905038808080610475565b634e487b7160e01b87526022600452602487fd5b92607f1692610456565b919082519283825260005b848110610540575050826000602080949584010152601f8019910116010190565b60208183018101518483018201520161051f56fea264697066735822122010c9711d1314c4fc27ed78b764af02a9d62d9fee4197afd5e6bb211343180f5c64736f6c63430008140033",
  "linkReferences": {},
  "deployedLinkReferences": {}
}